{
  "_format": "hh-sol-artifact-1",
  "contractName": "FarmingSplitter",
  "sourceName": "contracts/FarmingSplitter.sol",
  "abi": [
    {
      "inputs": [
        {
          "internalType": "address",
          "name": "_ldt",
          "type": "address"
        },
        {
          "internalType": "address",
          "name": "_tbb",
          "type": "address"
        },
        {
          "internalType": "address",
          "name": "_tbs",
          "type": "address"
        },
        {
          "internalType": "address",
          "name": "_tbg",
          "type": "address"
        },
        {
          "internalType": "address[]",
          "name": "_farms",
          "type": "address[]"
        }
      ],
      "stateMutability": "nonpayable",
      "type": "constructor"
    },
    {
      "inputs": [
        {
          "internalType": "address",
          "name": "owner",
          "type": "address"
        }
      ],
      "name": "OwnableInvalidOwner",
      "type": "error"
    },
    {
      "inputs": [
        {
          "internalType": "address",
          "name": "account",
          "type": "address"
        }
      ],
      "name": "OwnableUnauthorizedAccount",
      "type": "error"
    },
    {
      "anonymous": false,
      "inputs": [
        {
          "indexed": true,
          "internalType": "address",
          "name": "previousOwner",
          "type": "address"
        },
        {
          "indexed": true,
          "internalType": "address",
          "name": "newOwner",
          "type": "address"
        }
      ],
      "name": "OwnershipTransferStarted",
      "type": "event"
    },
    {
      "anonymous": false,
      "inputs": [
        {
          "indexed": true,
          "internalType": "address",
          "name": "previousOwner",
          "type": "address"
        },
        {
          "indexed": true,
          "internalType": "address",
          "name": "newOwner",
          "type": "address"
        }
      ],
      "name": "OwnershipTransferred",
      "type": "event"
    },
    {
      "inputs": [],
      "name": "MAX_RATE",
      "outputs": [
        {
          "internalType": "uint256",
          "name": "",
          "type": "uint256"
        }
      ],
      "stateMutability": "view",
      "type": "function"
    },
    {
      "inputs": [],
      "name": "MIN_RATE",
      "outputs": [
        {
          "internalType": "uint256",
          "name": "",
          "type": "uint256"
        }
      ],
      "stateMutability": "view",
      "type": "function"
    },
    {
      "inputs": [],
      "name": "acceptOwnership",
      "outputs": [],
      "stateMutability": "nonpayable",
      "type": "function"
    },
    {
      "inputs": [
        {
          "internalType": "uint256",
          "name": "_ldt",
          "type": "uint256"
        },
        {
          "internalType": "uint256",
          "name": "_tb",
          "type": "uint256"
        }
      ],
      "name": "calculate",
      "outputs": [
        {
          "components": [
            {
              "components": [
                {
                  "components": [
                    {
                      "internalType": "uint256",
                      "name": "ldt",
                      "type": "uint256"
                    },
                    {
                      "internalType": "uint256",
                      "name": "tb",
                      "type": "uint256"
                    },
                    {
                      "internalType": "uint256",
                      "name": "ldtLiquidity",
                      "type": "uint256"
                    },
                    {
                      "internalType": "uint256",
                      "name": "tbLiquidity",
                      "type": "uint256"
                    }
                  ],
                  "internalType": "struct RewardsLibrary.Reward",
                  "name": "liquidity",
                  "type": "tuple"
                },
                {
                  "internalType": "uint256",
                  "name": "ldt",
                  "type": "uint256"
                },
                {
                  "internalType": "uint256",
                  "name": "tb",
                  "type": "uint256"
                }
              ],
              "internalType": "struct RewardsLibrary.Farm",
              "name": "tbb",
              "type": "tuple"
            },
            {
              "components": [
                {
                  "components": [
                    {
                      "internalType": "uint256",
                      "name": "ldt",
                      "type": "uint256"
                    },
                    {
                      "internalType": "uint256",
                      "name": "tb",
                      "type": "uint256"
                    },
                    {
                      "internalType": "uint256",
                      "name": "ldtLiquidity",
                      "type": "uint256"
                    },
                    {
                      "internalType": "uint256",
                      "name": "tbLiquidity",
                      "type": "uint256"
                    }
                  ],
                  "internalType": "struct RewardsLibrary.Reward",
                  "name": "liquidity",
                  "type": "tuple"
                },
                {
                  "internalType": "uint256",
                  "name": "ldt",
                  "type": "uint256"
                },
                {
                  "internalType": "uint256",
                  "name": "tb",
                  "type": "uint256"
                }
              ],
              "internalType": "struct RewardsLibrary.Farm",
              "name": "tbs",
              "type": "tuple"
            },
            {
              "components": [
                {
                  "components": [
                    {
                      "internalType": "uint256",
                      "name": "ldt",
                      "type": "uint256"
                    },
                    {
                      "internalType": "uint256",
                      "name": "tb",
                      "type": "uint256"
                    },
                    {
                      "internalType": "uint256",
                      "name": "ldtLiquidity",
                      "type": "uint256"
                    },
                    {
                      "internalType": "uint256",
                      "name": "tbLiquidity",
                      "type": "uint256"
                    }
                  ],
                  "internalType": "struct RewardsLibrary.Reward",
                  "name": "liquidity",
                  "type": "tuple"
                },
                {
                  "internalType": "uint256",
                  "name": "ldt",
                  "type": "uint256"
                },
                {
                  "internalType": "uint256",
                  "name": "tb",
                  "type": "uint256"
                }
              ],
              "internalType": "struct RewardsLibrary.Farm",
              "name": "tbg",
              "type": "tuple"
            }
          ],
          "internalType": "struct RewardsLibrary.RewardsAmounts",
          "name": "rewards",
          "type": "tuple"
        }
      ],
      "stateMutability": "view",
      "type": "function"
    },
    {
      "inputs": [
        {
          "internalType": "uint256",
          "name": "",
          "type": "uint256"
        }
      ],
      "name": "farms",
      "outputs": [
        {
          "internalType": "address",
          "name": "",
          "type": "address"
        }
      ],
      "stateMutability": "view",
      "type": "function"
    },
    {
      "inputs": [],
      "name": "ldt",
      "outputs": [
        {
          "internalType": "address",
          "name": "",
          "type": "address"
        }
      ],
      "stateMutability": "view",
      "type": "function"
    },
    {
      "inputs": [],
      "name": "owner",
      "outputs": [
        {
          "internalType": "address",
          "name": "",
          "type": "address"
        }
      ],
      "stateMutability": "view",
      "type": "function"
    },
    {
      "inputs": [],
      "name": "pendingOwner",
      "outputs": [
        {
          "internalType": "address",
          "name": "",
          "type": "address"
        }
      ],
      "stateMutability": "view",
      "type": "function"
    },
    {
      "inputs": [],
      "name": "renounceOwnership",
      "outputs": [],
      "stateMutability": "nonpayable",
      "type": "function"
    },
    {
      "inputs": [
        {
          "components": [
            {
              "internalType": "uint256",
              "name": "ldt",
              "type": "uint256"
            },
            {
              "internalType": "uint256",
              "name": "tb",
              "type": "uint256"
            }
          ],
          "internalType": "struct RewardsLibrary.RewardRate",
          "name": "_tbbRewardRate",
          "type": "tuple"
        }
      ],
      "name": "setTbbRewardRate",
      "outputs": [],
      "stateMutability": "nonpayable",
      "type": "function"
    },
    {
      "inputs": [
        {
          "components": [
            {
              "internalType": "uint256",
              "name": "ldt",
              "type": "uint256"
            },
            {
              "internalType": "uint256",
              "name": "tb",
              "type": "uint256"
            }
          ],
          "internalType": "struct RewardsLibrary.RewardRate",
          "name": "_tbgRewardRate",
          "type": "tuple"
        }
      ],
      "name": "setTbgRewardRate",
      "outputs": [],
      "stateMutability": "nonpayable",
      "type": "function"
    },
    {
      "inputs": [
        {
          "components": [
            {
              "internalType": "uint256",
              "name": "ldt",
              "type": "uint256"
            },
            {
              "internalType": "uint256",
              "name": "tb",
              "type": "uint256"
            }
          ],
          "internalType": "struct RewardsLibrary.RewardRate",
          "name": "_tbsRewardRate",
          "type": "tuple"
        }
      ],
      "name": "setTbsRewardRate",
      "outputs": [],
      "stateMutability": "nonpayable",
      "type": "function"
    },
    {
      "inputs": [],
      "name": "tbb",
      "outputs": [
        {
          "internalType": "address",
          "name": "",
          "type": "address"
        }
      ],
      "stateMutability": "view",
      "type": "function"
    },
    {
      "inputs": [],
      "name": "tbbRewardRate",
      "outputs": [
        {
          "internalType": "uint256",
          "name": "ldt",
          "type": "uint256"
        },
        {
          "internalType": "uint256",
          "name": "tb",
          "type": "uint256"
        }
      ],
      "stateMutability": "view",
      "type": "function"
    },
    {
      "inputs": [],
      "name": "tbg",
      "outputs": [
        {
          "internalType": "address",
          "name": "",
          "type": "address"
        }
      ],
      "stateMutability": "view",
      "type": "function"
    },
    {
      "inputs": [],
      "name": "tbgRewardRate",
      "outputs": [
        {
          "internalType": "uint256",
          "name": "ldt",
          "type": "uint256"
        },
        {
          "internalType": "uint256",
          "name": "tb",
          "type": "uint256"
        }
      ],
      "stateMutability": "view",
      "type": "function"
    },
    {
      "inputs": [],
      "name": "tbs",
      "outputs": [
        {
          "internalType": "address",
          "name": "",
          "type": "address"
        }
      ],
      "stateMutability": "view",
      "type": "function"
    },
    {
      "inputs": [],
      "name": "tbsRewardRate",
      "outputs": [
        {
          "internalType": "uint256",
          "name": "ldt",
          "type": "uint256"
        },
        {
          "internalType": "uint256",
          "name": "tb",
          "type": "uint256"
        }
      ],
      "stateMutability": "view",
      "type": "function"
    },
    {
      "inputs": [
        {
          "internalType": "address",
          "name": "newOwner",
          "type": "address"
        }
      ],
      "name": "transferOwnership",
      "outputs": [],
      "stateMutability": "nonpayable",
      "type": "function"
    }
  ],
  "bytecode": "0x60806040526040518060400160405280606481526020016064815250600760008201518160000155602082015181600101555050604051806040016040528060fa815260200160fa81525060096000820151816000015560208201518160010155505060405180604001604052806101f481526020016101f4815250600b60008201518160000155602082015181600101555050348015620000a057600080fd5b5060405162002416380380620024168339818101604052810190620000c691906200060f565b33600073ffffffffffffffffffffffffffffffffffffffff168173ffffffffffffffffffffffffffffffffffffffff16036200013c5760006040517f1e4fbdf7000000000000000000000000000000000000000000000000000000008152600401620001339190620006c7565b60405180910390fd5b6200014d816200027660201b60201c565b5084600260006101000a81548173ffffffffffffffffffffffffffffffffffffffff021916908373ffffffffffffffffffffffffffffffffffffffff16021790555083600360006101000a81548173ffffffffffffffffffffffffffffffffffffffff021916908373ffffffffffffffffffffffffffffffffffffffff16021790555082600460006101000a81548173ffffffffffffffffffffffffffffffffffffffff021916908373ffffffffffffffffffffffffffffffffffffffff16021790555081600560006101000a81548173ffffffffffffffffffffffffffffffffffffffff021916908373ffffffffffffffffffffffffffffffffffffffff16021790555080600690805190602001906200026a92919062000373565b505050505050620006e4565b600160006101000a81549073ffffffffffffffffffffffffffffffffffffffff0219169055620002ac81620002af60201b60201c565b50565b60008060009054906101000a900473ffffffffffffffffffffffffffffffffffffffff169050816000806101000a81548173ffffffffffffffffffffffffffffffffffffffff021916908373ffffffffffffffffffffffffffffffffffffffff1602179055508173ffffffffffffffffffffffffffffffffffffffff168173ffffffffffffffffffffffffffffffffffffffff167f8be0079c531659141344cd1fd0a4f28419497f9722a3daafe3b4186f6b6457e060405160405180910390a35050565b828054828255906000526020600020908101928215620003ef579160200282015b82811115620003ee5782518260006101000a81548173ffffffffffffffffffffffffffffffffffffffff021916908373ffffffffffffffffffffffffffffffffffffffff1602179055509160200191906001019062000394565b5b509050620003fe919062000402565b5090565b5b808211156200041d57600081600090555060010162000403565b5090565b6000604051905090565b600080fd5b600080fd5b600073ffffffffffffffffffffffffffffffffffffffff82169050919050565b6000620004628262000435565b9050919050565b620004748162000455565b81146200048057600080fd5b50565b600081519050620004948162000469565b92915050565b600080fd5b6000601f19601f8301169050919050565b7f4e487b7100000000000000000000000000000000000000000000000000000000600052604160045260246000fd5b620004ea826200049f565b810181811067ffffffffffffffff821117156200050c576200050b620004b0565b5b80604052505050565b60006200052162000421565b90506200052f8282620004df565b919050565b600067ffffffffffffffff821115620005525762000551620004b0565b5b602082029050602081019050919050565b600080fd5b60006200057f620005798462000534565b62000515565b90508083825260208201905060208402830185811115620005a557620005a462000563565b5b835b81811015620005d25780620005bd888262000483565b845260208401935050602081019050620005a7565b5050509392505050565b600082601f830112620005f457620005f36200049a565b5b81516200060684826020860162000568565b91505092915050565b600080600080600060a086880312156200062e576200062d6200042b565b5b60006200063e8882890162000483565b9550506020620006518882890162000483565b9450506040620006648882890162000483565b9350506060620006778882890162000483565b925050608086015167ffffffffffffffff8111156200069b576200069a62000430565b5b620006a988828901620005dc565b9150509295509295909350565b620006c18162000455565b82525050565b6000602082019050620006de6000830184620006b6565b92915050565b611d2280620006f46000396000f3fe608060405234801561001057600080fd5b50600436106101215760003560e01c80638da5cb5b116100ad578063c24dbebd11610071578063c24dbebd146102c5578063d819bfef146102e3578063e30c397814610301578063eb6075861461031f578063f2fde38b1461033b57610121565b80638da5cb5b146102215780638dfa43631461023f578063903bf98b1461026f578063a45667f41461028d578063b7f7de16146102a957610121565b806370a53926116100f457806370a53926146101a0578063715018a6146101bf57806379ba5097146101c95780637da470ea146101d35780637dad91151461020357610121565b80632c2465011461012657806338cd6c0f146101445780634eecf1fd1461016357806350c2161b14610182575b600080fd5b61012e610357565b60405161013b91906116f6565b60405180910390f35b61014c61037d565b60405161015a92919061172a565b60405180910390f35b61016b61038f565b60405161017992919061172a565b60405180910390f35b61018a6103a1565b60405161019791906116f6565b60405180910390f35b6101a86103c7565b6040516101b692919061172a565b60405180910390f35b6101c76103d9565b005b6101d16103ed565b005b6101ed60048036038101906101e8919061178e565b61047c565b6040516101fa91906116f6565b60405180910390f35b61020b6104bb565b60405161021891906116f6565b60405180910390f35b6102296104e1565b60405161023691906116f6565b60405180910390f35b610259600480360381019061025491906117bb565b61050a565b60405161026691906118e5565b60405180910390f35b610277610d42565b60405161028491906116f6565b60405180910390f35b6102a760048036038101906102a291906119e2565b610d68565b005b6102c360048036038101906102be91906119e2565b610d8d565b005b6102cd610db2565b6040516102da9190611a0f565b60405180910390f35b6102eb610db9565b6040516102f89190611a0f565b60405180910390f35b610309610dbe565b60405161031691906116f6565b60405180910390f35b610339600480360381019061033491906119e2565b610de8565b005b61035560048036038101906103509190611a56565b610e0d565b005b600360009054906101000a900473ffffffffffffffffffffffffffffffffffffffff1681565b600b8060000154908060010154905082565b60078060000154908060010154905082565b600260009054906101000a900473ffffffffffffffffffffffffffffffffffffffff1681565b60098060000154908060010154905082565b6103e1610eba565b6103eb6000610f41565b565b60006103f7610f72565b90508073ffffffffffffffffffffffffffffffffffffffff16610418610dbe565b73ffffffffffffffffffffffffffffffffffffffff161461047057806040517f118cdaa700000000000000000000000000000000000000000000000000000000815260040161046791906116f6565b60405180910390fd5b61047981610f41565b50565b6006818154811061048c57600080fd5b906000526020600020016000915054906101000a900473ffffffffffffffffffffffffffffffffffffffff1681565b600560009054906101000a900473ffffffffffffffffffffffffffffffffffffffff1681565b60008060009054906101000a900473ffffffffffffffffffffffffffffffffffffffff16905090565b610512611633565b600060646014846105239190611ab2565b61052d9190611b23565b905060006064601e856105409190611ab2565b61054a9190611b23565b9050600081838661055b9190611b54565b6105659190611b54565b90506105d0600660008154811061057f5761057e611b88565b5b9060005260206000200160009054906101000a900473ffffffffffffffffffffffffffffffffffffffff16600760405180604001604052908160008201548152602001600182015481525050610f7a565b84600001516000018190525061064560066001815481106105f4576105f3611b88565b5b9060005260206000200160009054906101000a900473ffffffffffffffffffffffffffffffffffffffff16600960405180604001604052908160008201548152602001600182015481525050610f7a565b8460200151600001819052506106ba600660028154811061066957610668611b88565b5b9060005260206000200160009054906101000a900473ffffffffffffffffffffffffffffffffffffffff16600b60405180604001604052908160008201548152602001600182015481525050610f7a565b84604001516000018190525060008460400151600001516000015185602001516000015160000151866000015160000151600001516106f99190611bb7565b6107039190611bb7565b905086811115610881576000610757600660008154811061072757610726611b88565b5b9060005260206000200160009054906101000a900473ffffffffffffffffffffffffffffffffffffffff16611457565b905060006107a3600660018154811061077357610772611b88565b5b9060005260206000200160009054906101000a900473ffffffffffffffffffffffffffffffffffffffff16611457565b905060006107ef60066002815481106107bf576107be611b88565b5b9060005260206000200160009054906101000a900473ffffffffffffffffffffffffffffffffffffffff16611457565b905060008183856108009190611bb7565b61080a9190611bb7565b9050808b856108199190611ab2565b6108239190611b23565b89600001516020018181525050808b8461083d9190611ab2565b6108479190611b23565b89602001516020018181525050808b836108619190611ab2565b61086b9190611b23565b89604001516020018181525050505050506108d0565b8460000151600001516000015185600001516020018181525050846020015160000151600001518560200151602001818152505084604001516000015160000151856040015160200181815250505b600360009054906101000a900473ffffffffffffffffffffffffffffffffffffffff1673ffffffffffffffffffffffffffffffffffffffff16632c4e722e6040518163ffffffff1660e01b8152600401602060405180830381865afa15801561093d573d6000803e3d6000fd5b505050506040513d601f19601f820116820180604052508101906109619190611c00565b8461096c9190611b23565b856000015160000151602001511115610a2d57600360009054906101000a900473ffffffffffffffffffffffffffffffffffffffff1673ffffffffffffffffffffffffffffffffffffffff16632c4e722e6040518163ffffffff1660e01b8152600401602060405180830381865afa1580156109ec573d6000803e3d6000fd5b505050506040513d601f19601f82011682018060405250810190610a109190611c00565b84610a1b9190611b23565b85600001516040018181525050610a48565b84600001516000015160200151856000015160400181815250505b600460009054906101000a900473ffffffffffffffffffffffffffffffffffffffff1673ffffffffffffffffffffffffffffffffffffffff16632c4e722e6040518163ffffffff1660e01b8152600401602060405180830381865afa158015610ab5573d6000803e3d6000fd5b505050506040513d601f19601f82011682018060405250810190610ad99190611c00565b83610ae49190611b23565b856020015160000151602001511115610ba557600460009054906101000a900473ffffffffffffffffffffffffffffffffffffffff1673ffffffffffffffffffffffffffffffffffffffff16632c4e722e6040518163ffffffff1660e01b8152600401602060405180830381865afa158015610b64573d6000803e3d6000fd5b505050506040513d601f19601f82011682018060405250810190610b889190611c00565b83610b939190611b23565b85602001516040018181525050610bc0565b84602001516000015160200151856020015160400181815250505b600560009054906101000a900473ffffffffffffffffffffffffffffffffffffffff1673ffffffffffffffffffffffffffffffffffffffff16632c4e722e6040518163ffffffff1660e01b8152600401602060405180830381865afa158015610c2d573d6000803e3d6000fd5b505050506040513d601f19601f82011682018060405250810190610c519190611c00565b82610c5c9190611b23565b856040015160000151602001511115610d1d57600560009054906101000a900473ffffffffffffffffffffffffffffffffffffffff1673ffffffffffffffffffffffffffffffffffffffff16632c4e722e6040518163ffffffff1660e01b8152600401602060405180830381865afa158015610cdc573d6000803e3d6000fd5b505050506040513d601f19601f82011682018060405250810190610d009190611c00565b82610d0b9190611b23565b85604001516040018181525050610d38565b84604001516000015160200151856040015160400181815250505b5050505092915050565b600460009054906101000a900473ffffffffffffffffffffffffffffffffffffffff1681565b610d70610eba565b80600b600082015181600001556020820151816001015590505050565b610d95610eba565b806007600082015181600001556020820151816001015590505050565b620186a081565b600181565b6000600160009054906101000a900473ffffffffffffffffffffffffffffffffffffffff16905090565b610df0610eba565b806009600082015181600001556020820151816001015590505050565b610e15610eba565b80600160006101000a81548173ffffffffffffffffffffffffffffffffffffffff021916908373ffffffffffffffffffffffffffffffffffffffff1602179055508073ffffffffffffffffffffffffffffffffffffffff16610e756104e1565b73ffffffffffffffffffffffffffffffffffffffff167f38d16b8cac22d99fc7c124b9cd0de2d3fa1faef420bfe791d8c362d765e2270060405160405180910390a350565b610ec2610f72565b73ffffffffffffffffffffffffffffffffffffffff16610ee06104e1565b73ffffffffffffffffffffffffffffffffffffffff1614610f3f57610f03610f72565b6040517f118cdaa7000000000000000000000000000000000000000000000000000000008152600401610f3691906116f6565b60405180910390fd5b565b600160006101000a81549073ffffffffffffffffffffffffffffffffffffffff0219169055610f6f8161156f565b50565b600033905090565b610f82611666565b60008373ffffffffffffffffffffffffffffffffffffffff1663817b1cd26040518163ffffffff1660e01b8152600401602060405180830381865afa158015610fcf573d6000803e3d6000fd5b505050506040513d601f19601f82011682018060405250810190610ff39190611c00565b905060008473ffffffffffffffffffffffffffffffffffffffff16635fcbd2856040518163ffffffff1660e01b8152600401602060405180830381865afa158015611042573d6000803e3d6000fd5b505050506040513d601f19601f820116820180604052508101906110669190611c42565b905060008173ffffffffffffffffffffffffffffffffffffffff166318160ddd6040518163ffffffff1660e01b8152600401602060405180830381865afa1580156110b5573d6000803e3d6000fd5b505050506040513d601f19601f820116820180604052508101906110d99190611c00565b905060008273ffffffffffffffffffffffffffffffffffffffff16630dfe16816040518163ffffffff1660e01b8152600401602060405180830381865afa158015611128573d6000803e3d6000fd5b505050506040513d601f19601f8201168201806040525081019061114c9190611c42565b905060008373ffffffffffffffffffffffffffffffffffffffff1663d21220a76040518163ffffffff1660e01b8152600401602060405180830381865afa15801561119b573d6000803e3d6000fd5b505050506040513d601f19601f820116820180604052508101906111bf9190611c42565b9050600080600260009054906101000a900473ffffffffffffffffffffffffffffffffffffffff1673ffffffffffffffffffffffffffffffffffffffff168473ffffffffffffffffffffffffffffffffffffffff1614611220578284611223565b83835b91509150600260009054906101000a900473ffffffffffffffffffffffffffffffffffffffff1673ffffffffffffffffffffffffffffffffffffffff168273ffffffffffffffffffffffffffffffffffffffff16146112b7576040517f08c379a00000000000000000000000000000000000000000000000000000000081526004016112ae90611ccc565b60405180910390fd5b60008273ffffffffffffffffffffffffffffffffffffffff166370a08231886040518263ffffffff1660e01b81526004016112f291906116f6565b602060405180830381865afa15801561130f573d6000803e3d6000fd5b505050506040513d601f19601f820116820180604052508101906113339190611c00565b905060008273ffffffffffffffffffffffffffffffffffffffff166370a08231896040518263ffffffff1660e01b815260040161137091906116f6565b602060405180830381865afa15801561138d573d6000803e3d6000fd5b505050506040513d601f19601f820116820180604052508101906113b19190611c00565b9050600087838b6113c29190611ab2565b6113cc9190611b23565b9050600088838c6113dd9190611ab2565b6113e79190611b23565b90506040518060800160405280620186a08f60000151856114089190611ab2565b6114129190611b23565b8152602001620186a08f602001518461142b9190611ab2565b6114359190611b23565b8152602001838152602001828152509b50505050505050505050505092915050565b6000808273ffffffffffffffffffffffffffffffffffffffff16635fcbd2856040518163ffffffff1660e01b8152600401602060405180830381865afa1580156114a5573d6000803e3d6000fd5b505050506040513d601f19601f820116820180604052508101906114c99190611c42565b9050600260009054906101000a900473ffffffffffffffffffffffffffffffffffffffff1673ffffffffffffffffffffffffffffffffffffffff166370a08231826040518263ffffffff1660e01b815260040161152691906116f6565b602060405180830381865afa158015611543573d6000803e3d6000fd5b505050506040513d601f19601f820116820180604052508101906115679190611c00565b915050919050565b60008060009054906101000a900473ffffffffffffffffffffffffffffffffffffffff169050816000806101000a81548173ffffffffffffffffffffffffffffffffffffffff021916908373ffffffffffffffffffffffffffffffffffffffff1602179055508173ffffffffffffffffffffffffffffffffffffffff168173ffffffffffffffffffffffffffffffffffffffff167f8be0079c531659141344cd1fd0a4f28419497f9722a3daafe3b4186f6b6457e060405160405180910390a35050565b604051806060016040528061164661168e565b815260200161165361168e565b815260200161166061168e565b81525090565b6040518060800160405280600081526020016000815260200160008152602001600081525090565b60405180606001604052806116a1611666565b815260200160008152602001600081525090565b600073ffffffffffffffffffffffffffffffffffffffff82169050919050565b60006116e0826116b5565b9050919050565b6116f0816116d5565b82525050565b600060208201905061170b60008301846116e7565b92915050565b6000819050919050565b61172481611711565b82525050565b600060408201905061173f600083018561171b565b61174c602083018461171b565b9392505050565b6000604051905090565b600080fd5b61176b81611711565b811461177657600080fd5b50565b60008135905061178881611762565b92915050565b6000602082840312156117a4576117a361175d565b5b60006117b284828501611779565b91505092915050565b600080604083850312156117d2576117d161175d565b5b60006117e085828601611779565b92505060206117f185828601611779565b9150509250929050565b61180481611711565b82525050565b60808201600082015161182060008501826117fb565b50602082015161183360208501826117fb565b50604082015161184660408501826117fb565b50606082015161185960608501826117fb565b50505050565b60c082016000820151611875600085018261180a565b50602082015161188860808501826117fb565b50604082015161189b60a08501826117fb565b50505050565b610240820160008201516118b8600085018261185f565b5060208201516118cb60c085018261185f565b5060408201516118df61018085018261185f565b50505050565b6000610240820190506118fb60008301846118a1565b92915050565b600080fd5b6000601f19601f8301169050919050565b7f4e487b7100000000000000000000000000000000000000000000000000000000600052604160045260246000fd5b61194f82611906565b810181811067ffffffffffffffff8211171561196e5761196d611917565b5b80604052505050565b6000611981611753565b905061198d8282611946565b919050565b6000604082840312156119a8576119a7611901565b5b6119b26040611977565b905060006119c284828501611779565b60008301525060206119d684828501611779565b60208301525092915050565b6000604082840312156119f8576119f761175d565b5b6000611a0684828501611992565b91505092915050565b6000602082019050611a24600083018461171b565b92915050565b611a33816116d5565b8114611a3e57600080fd5b50565b600081359050611a5081611a2a565b92915050565b600060208284031215611a6c57611a6b61175d565b5b6000611a7a84828501611a41565b91505092915050565b7f4e487b7100000000000000000000000000000000000000000000000000000000600052601160045260246000fd5b6000611abd82611711565b9150611ac883611711565b9250828202611ad681611711565b91508282048414831517611aed57611aec611a83565b5b5092915050565b7f4e487b7100000000000000000000000000000000000000000000000000000000600052601260045260246000fd5b6000611b2e82611711565b9150611b3983611711565b925082611b4957611b48611af4565b5b828204905092915050565b6000611b5f82611711565b9150611b6a83611711565b9250828203905081811115611b8257611b81611a83565b5b92915050565b7f4e487b7100000000000000000000000000000000000000000000000000000000600052603260045260246000fd5b6000611bc282611711565b9150611bcd83611711565b9250828201905080821115611be557611be4611a83565b5b92915050565b600081519050611bfa81611762565b92915050565b600060208284031215611c1657611c1561175d565b5b6000611c2484828501611beb565b91505092915050565b600081519050611c3c81611a2a565b92915050565b600060208284031215611c5857611c5761175d565b5b6000611c6684828501611c2d565b91505092915050565b600082825260208201905092915050565b7f494e56414c49445f544f4b454e00000000000000000000000000000000000000600082015250565b6000611cb6600d83611c6f565b9150611cc182611c80565b602082019050919050565b60006020820190508181036000830152611ce581611ca9565b905091905056fea26469706673582212203b6197aea89e362227bb8a3eeea15bcf7d007d62f94ea5d758e1aed422caedcc64736f6c63430008180033",
  "linkReferences": {},
  "deployedLinkReferences": {}
}