{
  "_format": "hh-sol-artifact-1",
  "contractName": "RewardSplitterV2",
  "sourceName": "contracts/RewardSplitterV2.sol",
  "abi": [
    {
      "inputs": [
        {
          "internalType": "address",
          "name": "_ldt",
          "type": "address"
        },
        {
          "internalType": "address",
          "name": "_tbb",
          "type": "address"
        },
        {
          "internalType": "address",
          "name": "_tbs",
          "type": "address"
        },
        {
          "internalType": "address",
          "name": "_tbg",
          "type": "address"
        },
        {
          "internalType": "address",
          "name": "_distributor",
          "type": "address"
        },
        {
          "internalType": "address",
          "name": "_farmSplitter",
          "type": "address"
        },
        {
          "internalType": "address",
          "name": "_stakingSplitter",
          "type": "address"
        },
        {
          "internalType": "address",
          "name": "_boostingSplitter",
          "type": "address"
        },
        {
          "internalType": "address",
          "name": "_teamSplitter",
          "type": "address"
        },
        {
          "internalType": "address",
          "name": "_teamVault",
          "type": "address"
        },
        {
          "components": [
            {
              "internalType": "address[]",
              "name": "farms",
              "type": "address[]"
            },
            {
              "internalType": "address[]",
              "name": "stakers",
              "type": "address[]"
            },
            {
              "internalType": "address[]",
              "name": "boosters",
              "type": "address[]"
            }
          ],
          "internalType": "struct RewardSplitterV2.StakerAddresses",
          "name": "_addresses",
          "type": "tuple"
        }
      ],
      "stateMutability": "nonpayable",
      "type": "constructor"
    },
    {
      "inputs": [
        {
          "internalType": "address",
          "name": "owner",
          "type": "address"
        }
      ],
      "name": "OwnableInvalidOwner",
      "type": "error"
    },
    {
      "inputs": [
        {
          "internalType": "address",
          "name": "account",
          "type": "address"
        }
      ],
      "name": "OwnableUnauthorizedAccount",
      "type": "error"
    },
    {
      "anonymous": false,
      "inputs": [
        {
          "components": [
            {
              "components": [
                {
                  "components": [
                    {
                      "internalType": "uint256",
                      "name": "ldt",
                      "type": "uint256"
                    },
                    {
                      "internalType": "uint256",
                      "name": "tb",
                      "type": "uint256"
                    },
                    {
                      "internalType": "uint256",
                      "name": "ldtLiquidity",
                      "type": "uint256"
                    },
                    {
                      "internalType": "uint256",
                      "name": "tbLiquidity",
                      "type": "uint256"
                    }
                  ],
                  "internalType": "struct RewardsLibrary.Reward",
                  "name": "liquidity",
                  "type": "tuple"
                },
                {
                  "internalType": "uint256",
                  "name": "ldt",
                  "type": "uint256"
                },
                {
                  "internalType": "uint256",
                  "name": "tb",
                  "type": "uint256"
                }
              ],
              "internalType": "struct RewardsLibrary.Farm",
              "name": "tbb",
              "type": "tuple"
            },
            {
              "components": [
                {
                  "components": [
                    {
                      "internalType": "uint256",
                      "name": "ldt",
                      "type": "uint256"
                    },
                    {
                      "internalType": "uint256",
                      "name": "tb",
                      "type": "uint256"
                    },
                    {
                      "internalType": "uint256",
                      "name": "ldtLiquidity",
                      "type": "uint256"
                    },
                    {
                      "internalType": "uint256",
                      "name": "tbLiquidity",
                      "type": "uint256"
                    }
                  ],
                  "internalType": "struct RewardsLibrary.Reward",
                  "name": "liquidity",
                  "type": "tuple"
                },
                {
                  "internalType": "uint256",
                  "name": "ldt",
                  "type": "uint256"
                },
                {
                  "internalType": "uint256",
                  "name": "tb",
                  "type": "uint256"
                }
              ],
              "internalType": "struct RewardsLibrary.Farm",
              "name": "tbs",
              "type": "tuple"
            },
            {
              "components": [
                {
                  "components": [
                    {
                      "internalType": "uint256",
                      "name": "ldt",
                      "type": "uint256"
                    },
                    {
                      "internalType": "uint256",
                      "name": "tb",
                      "type": "uint256"
                    },
                    {
                      "internalType": "uint256",
                      "name": "ldtLiquidity",
                      "type": "uint256"
                    },
                    {
                      "internalType": "uint256",
                      "name": "tbLiquidity",
                      "type": "uint256"
                    }
                  ],
                  "internalType": "struct RewardsLibrary.Reward",
                  "name": "liquidity",
                  "type": "tuple"
                },
                {
                  "internalType": "uint256",
                  "name": "ldt",
                  "type": "uint256"
                },
                {
                  "internalType": "uint256",
                  "name": "tb",
                  "type": "uint256"
                }
              ],
              "internalType": "struct RewardsLibrary.Farm",
              "name": "tbg",
              "type": "tuple"
            }
          ],
          "indexed": false,
          "internalType": "struct RewardsLibrary.RewardsAmounts",
          "name": "rewards",
          "type": "tuple"
        }
      ],
      "name": "DistributeBoostingRewards",
      "type": "event"
    },
    {
      "anonymous": false,
      "inputs": [
        {
          "components": [
            {
              "components": [
                {
                  "components": [
                    {
                      "internalType": "uint256",
                      "name": "ldt",
                      "type": "uint256"
                    },
                    {
                      "internalType": "uint256",
                      "name": "tb",
                      "type": "uint256"
                    },
                    {
                      "internalType": "uint256",
                      "name": "ldtLiquidity",
                      "type": "uint256"
                    },
                    {
                      "internalType": "uint256",
                      "name": "tbLiquidity",
                      "type": "uint256"
                    }
                  ],
                  "internalType": "struct RewardsLibrary.Reward",
                  "name": "liquidity",
                  "type": "tuple"
                },
                {
                  "internalType": "uint256",
                  "name": "ldt",
                  "type": "uint256"
                },
                {
                  "internalType": "uint256",
                  "name": "tb",
                  "type": "uint256"
                }
              ],
              "internalType": "struct RewardsLibrary.Farm",
              "name": "tbb",
              "type": "tuple"
            },
            {
              "components": [
                {
                  "components": [
                    {
                      "internalType": "uint256",
                      "name": "ldt",
                      "type": "uint256"
                    },
                    {
                      "internalType": "uint256",
                      "name": "tb",
                      "type": "uint256"
                    },
                    {
                      "internalType": "uint256",
                      "name": "ldtLiquidity",
                      "type": "uint256"
                    },
                    {
                      "internalType": "uint256",
                      "name": "tbLiquidity",
                      "type": "uint256"
                    }
                  ],
                  "internalType": "struct RewardsLibrary.Reward",
                  "name": "liquidity",
                  "type": "tuple"
                },
                {
                  "internalType": "uint256",
                  "name": "ldt",
                  "type": "uint256"
                },
                {
                  "internalType": "uint256",
                  "name": "tb",
                  "type": "uint256"
                }
              ],
              "internalType": "struct RewardsLibrary.Farm",
              "name": "tbs",
              "type": "tuple"
            },
            {
              "components": [
                {
                  "components": [
                    {
                      "internalType": "uint256",
                      "name": "ldt",
                      "type": "uint256"
                    },
                    {
                      "internalType": "uint256",
                      "name": "tb",
                      "type": "uint256"
                    },
                    {
                      "internalType": "uint256",
                      "name": "ldtLiquidity",
                      "type": "uint256"
                    },
                    {
                      "internalType": "uint256",
                      "name": "tbLiquidity",
                      "type": "uint256"
                    }
                  ],
                  "internalType": "struct RewardsLibrary.Reward",
                  "name": "liquidity",
                  "type": "tuple"
                },
                {
                  "internalType": "uint256",
                  "name": "ldt",
                  "type": "uint256"
                },
                {
                  "internalType": "uint256",
                  "name": "tb",
                  "type": "uint256"
                }
              ],
              "internalType": "struct RewardsLibrary.Farm",
              "name": "tbg",
              "type": "tuple"
            }
          ],
          "indexed": false,
          "internalType": "struct RewardsLibrary.RewardsAmounts",
          "name": "rewards",
          "type": "tuple"
        }
      ],
      "name": "DistributeFarmingRewards",
      "type": "event"
    },
    {
      "anonymous": false,
      "inputs": [
        {
          "components": [
            {
              "internalType": "uint256",
              "name": "total",
              "type": "uint256"
            },
            {
              "internalType": "uint256",
              "name": "ldt",
              "type": "uint256"
            },
            {
              "internalType": "uint256",
              "name": "tb",
              "type": "uint256"
            },
            {
              "components": [
                {
                  "internalType": "uint256",
                  "name": "ldt",
                  "type": "uint256"
                },
                {
                  "internalType": "uint256",
                  "name": "tb",
                  "type": "uint256"
                }
              ],
              "internalType": "struct RewardSplitterV2.DoubleReward",
              "name": "farming",
              "type": "tuple"
            },
            {
              "components": [
                {
                  "internalType": "uint256",
                  "name": "ldt",
                  "type": "uint256"
                },
                {
                  "internalType": "uint256",
                  "name": "tb",
                  "type": "uint256"
                }
              ],
              "internalType": "struct RewardSplitterV2.DoubleReward",
              "name": "staking",
              "type": "tuple"
            },
            {
              "components": [
                {
                  "internalType": "uint256",
                  "name": "ldt",
                  "type": "uint256"
                },
                {
                  "internalType": "uint256",
                  "name": "tb",
                  "type": "uint256"
                }
              ],
              "internalType": "struct RewardSplitterV2.DoubleReward",
              "name": "boosting",
              "type": "tuple"
            },
            {
              "components": [
                {
                  "internalType": "uint256",
                  "name": "ldt",
                  "type": "uint256"
                },
                {
                  "internalType": "uint256",
                  "name": "tb",
                  "type": "uint256"
                }
              ],
              "internalType": "struct RewardSplitterV2.DoubleReward",
              "name": "team",
              "type": "tuple"
            }
          ],
          "indexed": false,
          "internalType": "struct RewardSplitterV2.Rewards",
          "name": "rewards",
          "type": "tuple"
        }
      ],
      "name": "DistributeRewards",
      "type": "event"
    },
    {
      "anonymous": false,
      "inputs": [
        {
          "components": [
            {
              "components": [
                {
                  "components": [
                    {
                      "internalType": "uint256",
                      "name": "ldt",
                      "type": "uint256"
                    },
                    {
                      "internalType": "uint256",
                      "name": "tb",
                      "type": "uint256"
                    },
                    {
                      "internalType": "uint256",
                      "name": "ldtLiquidity",
                      "type": "uint256"
                    },
                    {
                      "internalType": "uint256",
                      "name": "tbLiquidity",
                      "type": "uint256"
                    }
                  ],
                  "internalType": "struct RewardsLibrary.Reward",
                  "name": "liquidity",
                  "type": "tuple"
                },
                {
                  "internalType": "uint256",
                  "name": "ldt",
                  "type": "uint256"
                },
                {
                  "internalType": "uint256",
                  "name": "tb",
                  "type": "uint256"
                }
              ],
              "internalType": "struct RewardsLibrary.Farm",
              "name": "tbb",
              "type": "tuple"
            },
            {
              "components": [
                {
                  "components": [
                    {
                      "internalType": "uint256",
                      "name": "ldt",
                      "type": "uint256"
                    },
                    {
                      "internalType": "uint256",
                      "name": "tb",
                      "type": "uint256"
                    },
                    {
                      "internalType": "uint256",
                      "name": "ldtLiquidity",
                      "type": "uint256"
                    },
                    {
                      "internalType": "uint256",
                      "name": "tbLiquidity",
                      "type": "uint256"
                    }
                  ],
                  "internalType": "struct RewardsLibrary.Reward",
                  "name": "liquidity",
                  "type": "tuple"
                },
                {
                  "internalType": "uint256",
                  "name": "ldt",
                  "type": "uint256"
                },
                {
                  "internalType": "uint256",
                  "name": "tb",
                  "type": "uint256"
                }
              ],
              "internalType": "struct RewardsLibrary.Farm",
              "name": "tbs",
              "type": "tuple"
            },
            {
              "components": [
                {
                  "components": [
                    {
                      "internalType": "uint256",
                      "name": "ldt",
                      "type": "uint256"
                    },
                    {
                      "internalType": "uint256",
                      "name": "tb",
                      "type": "uint256"
                    },
                    {
                      "internalType": "uint256",
                      "name": "ldtLiquidity",
                      "type": "uint256"
                    },
                    {
                      "internalType": "uint256",
                      "name": "tbLiquidity",
                      "type": "uint256"
                    }
                  ],
                  "internalType": "struct RewardsLibrary.Reward",
                  "name": "liquidity",
                  "type": "tuple"
                },
                {
                  "internalType": "uint256",
                  "name": "ldt",
                  "type": "uint256"
                },
                {
                  "internalType": "uint256",
                  "name": "tb",
                  "type": "uint256"
                }
              ],
              "internalType": "struct RewardsLibrary.Farm",
              "name": "tbg",
              "type": "tuple"
            }
          ],
          "indexed": false,
          "internalType": "struct RewardsLibrary.RewardsAmounts",
          "name": "rewards",
          "type": "tuple"
        }
      ],
      "name": "DistributeStakingRewards",
      "type": "event"
    },
    {
      "anonymous": false,
      "inputs": [
        {
          "components": [
            {
              "internalType": "uint256",
              "name": "ldt",
              "type": "uint256"
            },
            {
              "internalType": "uint256",
              "name": "tbb",
              "type": "uint256"
            },
            {
              "internalType": "uint256",
              "name": "tbs",
              "type": "uint256"
            },
            {
              "internalType": "uint256",
              "name": "tbg",
              "type": "uint256"
            }
          ],
          "indexed": false,
          "internalType": "struct RewardsLibrary.TeamRewardsAmounts",
          "name": "rewards",
          "type": "tuple"
        }
      ],
      "name": "DistributeTeamRewards",
      "type": "event"
    },
    {
      "anonymous": false,
      "inputs": [
        {
          "indexed": true,
          "internalType": "address",
          "name": "previousOwner",
          "type": "address"
        },
        {
          "indexed": true,
          "internalType": "address",
          "name": "newOwner",
          "type": "address"
        }
      ],
      "name": "OwnershipTransferStarted",
      "type": "event"
    },
    {
      "anonymous": false,
      "inputs": [
        {
          "indexed": true,
          "internalType": "address",
          "name": "previousOwner",
          "type": "address"
        },
        {
          "indexed": true,
          "internalType": "address",
          "name": "newOwner",
          "type": "address"
        }
      ],
      "name": "OwnershipTransferred",
      "type": "event"
    },
    {
      "inputs": [],
      "name": "acceptOwnership",
      "outputs": [],
      "stateMutability": "nonpayable",
      "type": "function"
    },
    {
      "inputs": [],
      "name": "approveTokens",
      "outputs": [],
      "stateMutability": "nonpayable",
      "type": "function"
    },
    {
      "inputs": [
        {
          "internalType": "uint256",
          "name": "",
          "type": "uint256"
        }
      ],
      "name": "boosters",
      "outputs": [
        {
          "internalType": "address",
          "name": "",
          "type": "address"
        }
      ],
      "stateMutability": "view",
      "type": "function"
    },
    {
      "inputs": [],
      "name": "boostingSplitter",
      "outputs": [
        {
          "internalType": "address",
          "name": "",
          "type": "address"
        }
      ],
      "stateMutability": "view",
      "type": "function"
    },
    {
      "inputs": [],
      "name": "distributeRewards",
      "outputs": [],
      "stateMutability": "nonpayable",
      "type": "function"
    },
    {
      "inputs": [],
      "name": "distributor",
      "outputs": [
        {
          "internalType": "address",
          "name": "",
          "type": "address"
        }
      ],
      "stateMutability": "view",
      "type": "function"
    },
    {
      "inputs": [],
      "name": "farmSplitter",
      "outputs": [
        {
          "internalType": "address",
          "name": "",
          "type": "address"
        }
      ],
      "stateMutability": "view",
      "type": "function"
    },
    {
      "inputs": [
        {
          "internalType": "uint256",
          "name": "",
          "type": "uint256"
        }
      ],
      "name": "farms",
      "outputs": [
        {
          "internalType": "address",
          "name": "",
          "type": "address"
        }
      ],
      "stateMutability": "view",
      "type": "function"
    },
    {
      "inputs": [],
      "name": "ldt",
      "outputs": [
        {
          "internalType": "address",
          "name": "",
          "type": "address"
        }
      ],
      "stateMutability": "view",
      "type": "function"
    },
    {
      "inputs": [],
      "name": "ldtRewards",
      "outputs": [
        {
          "internalType": "uint8",
          "name": "farming",
          "type": "uint8"
        },
        {
          "internalType": "uint8",
          "name": "staking",
          "type": "uint8"
        },
        {
          "internalType": "uint8",
          "name": "team",
          "type": "uint8"
        },
        {
          "internalType": "uint8",
          "name": "daoFund",
          "type": "uint8"
        },
        {
          "internalType": "uint8",
          "name": "ambassadorIncentive",
          "type": "uint8"
        },
        {
          "internalType": "uint8",
          "name": "greenEnergy",
          "type": "uint8"
        },
        {
          "internalType": "uint8",
          "name": "marketing",
          "type": "uint8"
        }
      ],
      "stateMutability": "view",
      "type": "function"
    },
    {
      "inputs": [],
      "name": "owner",
      "outputs": [
        {
          "internalType": "address",
          "name": "",
          "type": "address"
        }
      ],
      "stateMutability": "view",
      "type": "function"
    },
    {
      "inputs": [],
      "name": "pendingOwner",
      "outputs": [
        {
          "internalType": "address",
          "name": "",
          "type": "address"
        }
      ],
      "stateMutability": "view",
      "type": "function"
    },
    {
      "inputs": [
        {
          "internalType": "address",
          "name": "_address",
          "type": "address"
        }
      ],
      "name": "recoverOwnership",
      "outputs": [],
      "stateMutability": "nonpayable",
      "type": "function"
    },
    {
      "inputs": [],
      "name": "renounceOwnership",
      "outputs": [],
      "stateMutability": "nonpayable",
      "type": "function"
    },
    {
      "inputs": [
        {
          "internalType": "address",
          "name": "_boostingSplitter",
          "type": "address"
        }
      ],
      "name": "setBoostingSplitter",
      "outputs": [],
      "stateMutability": "nonpayable",
      "type": "function"
    },
    {
      "inputs": [
        {
          "internalType": "address",
          "name": "_farmSplitter",
          "type": "address"
        }
      ],
      "name": "setFarmSplitter",
      "outputs": [],
      "stateMutability": "nonpayable",
      "type": "function"
    },
    {
      "inputs": [
        {
          "internalType": "address",
          "name": "_stakingSplitter",
          "type": "address"
        }
      ],
      "name": "setStakingSplitter",
      "outputs": [],
      "stateMutability": "nonpayable",
      "type": "function"
    },
    {
      "inputs": [
        {
          "internalType": "address",
          "name": "_teamSplitter",
          "type": "address"
        }
      ],
      "name": "setTeamSplitter",
      "outputs": [],
      "stateMutability": "nonpayable",
      "type": "function"
    },
    {
      "inputs": [
        {
          "internalType": "uint256",
          "name": "",
          "type": "uint256"
        }
      ],
      "name": "stakers",
      "outputs": [
        {
          "internalType": "address",
          "name": "",
          "type": "address"
        }
      ],
      "stateMutability": "view",
      "type": "function"
    },
    {
      "inputs": [],
      "name": "stakingSplitter",
      "outputs": [
        {
          "internalType": "address",
          "name": "",
          "type": "address"
        }
      ],
      "stateMutability": "view",
      "type": "function"
    },
    {
      "inputs": [],
      "name": "tbRate",
      "outputs": [
        {
          "internalType": "uint8",
          "name": "",
          "type": "uint8"
        }
      ],
      "stateMutability": "view",
      "type": "function"
    },
    {
      "inputs": [],
      "name": "tbRewards",
      "outputs": [
        {
          "internalType": "uint8",
          "name": "farming",
          "type": "uint8"
        },
        {
          "internalType": "uint8",
          "name": "staking",
          "type": "uint8"
        },
        {
          "internalType": "uint8",
          "name": "team",
          "type": "uint8"
        },
        {
          "internalType": "uint8",
          "name": "daoFund",
          "type": "uint8"
        },
        {
          "internalType": "uint8",
          "name": "ambassadorIncentive",
          "type": "uint8"
        },
        {
          "internalType": "uint8",
          "name": "greenEnergy",
          "type": "uint8"
        }
      ],
      "stateMutability": "view",
      "type": "function"
    },
    {
      "inputs": [],
      "name": "tbb",
      "outputs": [
        {
          "internalType": "address",
          "name": "",
          "type": "address"
        }
      ],
      "stateMutability": "view",
      "type": "function"
    },
    {
      "inputs": [],
      "name": "tbg",
      "outputs": [
        {
          "internalType": "address",
          "name": "",
          "type": "address"
        }
      ],
      "stateMutability": "view",
      "type": "function"
    },
    {
      "inputs": [],
      "name": "tbs",
      "outputs": [
        {
          "internalType": "address",
          "name": "",
          "type": "address"
        }
      ],
      "stateMutability": "view",
      "type": "function"
    },
    {
      "inputs": [],
      "name": "teamSplitter",
      "outputs": [
        {
          "internalType": "address",
          "name": "",
          "type": "address"
        }
      ],
      "stateMutability": "view",
      "type": "function"
    },
    {
      "inputs": [],
      "name": "teamVault",
      "outputs": [
        {
          "internalType": "address",
          "name": "",
          "type": "address"
        }
      ],
      "stateMutability": "view",
      "type": "function"
    },
    {
      "inputs": [
        {
          "internalType": "address",
          "name": "newOwner",
          "type": "address"
        }
      ],
      "name": "transferOwnership",
      "outputs": [],
      "stateMutability": "nonpayable",
      "type": "function"
    }
  ],
  "bytecode": "0x60806040526050600e60146101000a81548160ff021916908360ff1602179055506040518060e00160405280601460ff168152602001602860ff168152602001600a60ff168152602001600e60ff168152602001600a60ff168152602001600560ff168152602001600160ff16815250600f60008201518160000160006101000a81548160ff021916908360ff16021790555060208201518160000160016101000a81548160ff021916908360ff16021790555060408201518160000160026101000a81548160ff021916908360ff16021790555060608201518160000160036101000a81548160ff021916908360ff16021790555060808201518160000160046101000a81548160ff021916908360ff16021790555060a08201518160000160056101000a81548160ff021916908360ff16021790555060c08201518160000160066101000a81548160ff021916908360ff16021790555050506040518060c00160405280602860ff168152602001601960ff168152602001600a60ff168152602001600a60ff168152602001600a60ff168152602001600560ff16815250601060008201518160000160006101000a81548160ff021916908360ff16021790555060208201518160000160016101000a81548160ff021916908360ff16021790555060408201518160000160026101000a81548160ff021916908360ff16021790555060608201518160000160036101000a81548160ff021916908360ff16021790555060808201518160000160046101000a81548160ff021916908360ff16021790555060a08201518160000160056101000a81548160ff021916908360ff16021790555050503480156200027657600080fd5b50604051620047343803806200473483398181016040528101906200029c919062000a85565b33600073ffffffffffffffffffffffffffffffffffffffff168173ffffffffffffffffffffffffffffffffffffffff1603620003125760006040517f1e4fbdf700000000000000000000000000000000000000000000000000000000815260040162000309919062000bc2565b60405180910390fd5b62000323816200061660201b60201c565b508a600360006101000a81548173ffffffffffffffffffffffffffffffffffffffff021916908373ffffffffffffffffffffffffffffffffffffffff16021790555089600460006101000a81548173ffffffffffffffffffffffffffffffffffffffff021916908373ffffffffffffffffffffffffffffffffffffffff16021790555088600560006101000a81548173ffffffffffffffffffffffffffffffffffffffff021916908373ffffffffffffffffffffffffffffffffffffffff16021790555087600660006101000a81548173ffffffffffffffffffffffffffffffffffffffff021916908373ffffffffffffffffffffffffffffffffffffffff16021790555086600260006101000a81548173ffffffffffffffffffffffffffffffffffffffff021916908373ffffffffffffffffffffffffffffffffffffffff16021790555085600a60006101000a81548173ffffffffffffffffffffffffffffffffffffffff021916908373ffffffffffffffffffffffffffffffffffffffff16021790555084600b60006101000a81548173ffffffffffffffffffffffffffffffffffffffff021916908373ffffffffffffffffffffffffffffffffffffffff16021790555083600d60006101000a81548173ffffffffffffffffffffffffffffffffffffffff021916908373ffffffffffffffffffffffffffffffffffffffff16021790555082600c60006101000a81548173ffffffffffffffffffffffffffffffffffffffff021916908373ffffffffffffffffffffffffffffffffffffffff16021790555081600e60006101000a81548173ffffffffffffffffffffffffffffffffffffffff021916908373ffffffffffffffffffffffffffffffffffffffff160217905550806000015160079080519060200190620005ca92919062000713565b50806020015160089080519060200190620005e792919062000713565b508060400151600990805190602001906200060492919062000713565b50505050505050505050505062000bdf565b600160006101000a81549073ffffffffffffffffffffffffffffffffffffffff02191690556200064c816200064f60201b60201c565b50565b60008060009054906101000a900473ffffffffffffffffffffffffffffffffffffffff169050816000806101000a81548173ffffffffffffffffffffffffffffffffffffffff021916908373ffffffffffffffffffffffffffffffffffffffff1602179055508173ffffffffffffffffffffffffffffffffffffffff168173ffffffffffffffffffffffffffffffffffffffff167f8be0079c531659141344cd1fd0a4f28419497f9722a3daafe3b4186f6b6457e060405160405180910390a35050565b8280548282559060005260206000209081019282156200078f579160200282015b828111156200078e5782518260006101000a81548173ffffffffffffffffffffffffffffffffffffffff021916908373ffffffffffffffffffffffffffffffffffffffff1602179055509160200191906001019062000734565b5b5090506200079e9190620007a2565b5090565b5b80821115620007bd576000816000905550600101620007a3565b5090565b6000604051905090565b600080fd5b600080fd5b600073ffffffffffffffffffffffffffffffffffffffff82169050919050565b60006200080282620007d5565b9050919050565b6200081481620007f5565b81146200082057600080fd5b50565b600081519050620008348162000809565b92915050565b600080fd5b6000601f19601f8301169050919050565b7f4e487b7100000000000000000000000000000000000000000000000000000000600052604160045260246000fd5b6200088a826200083f565b810181811067ffffffffffffffff82111715620008ac57620008ab62000850565b5b80604052505050565b6000620008c1620007c1565b9050620008cf82826200087f565b919050565b600080fd5b600080fd5b600067ffffffffffffffff821115620008fc57620008fb62000850565b5b602082029050602081019050919050565b600080fd5b6000620009296200092384620008de565b620008b5565b905080838252602082019050602084028301858111156200094f576200094e6200090d565b5b835b818110156200097c578062000967888262000823565b84526020840193505060208101905062000951565b5050509392505050565b600082601f8301126200099e576200099d620008d9565b5b8151620009b084826020860162000912565b91505092915050565b600060608284031215620009d257620009d16200083a565b5b620009de6060620008b5565b9050600082015167ffffffffffffffff81111562000a015762000a00620008d4565b5b62000a0f8482850162000986565b600083015250602082015167ffffffffffffffff81111562000a365762000a35620008d4565b5b62000a448482850162000986565b602083015250604082015167ffffffffffffffff81111562000a6b5762000a6a620008d4565b5b62000a798482850162000986565b60408301525092915050565b60008060008060008060008060008060006101608c8e03121562000aae5762000aad620007cb565b5b600062000abe8e828f0162000823565b9b5050602062000ad18e828f0162000823565b9a5050604062000ae48e828f0162000823565b995050606062000af78e828f0162000823565b985050608062000b0a8e828f0162000823565b97505060a062000b1d8e828f0162000823565b96505060c062000b308e828f0162000823565b95505060e062000b438e828f0162000823565b94505061010062000b578e828f0162000823565b93505061012062000b6b8e828f0162000823565b9250506101408c015167ffffffffffffffff81111562000b905762000b8f620007d0565b5b62000b9e8e828f01620009b9565b9150509295989b509295989b9093969950565b62000bbc81620007f5565b82525050565b600060208201905062000bd9600083018462000bb1565b92915050565b613b458062000bef6000396000f3fe608060405234801561001057600080fd5b50600436106101c45760003560e01c80638ab5212b116100f9578063bfe1092811610097578063e30c397811610071578063e30c397814610482578063f2fde38b146104a0578063fd5e6dd1146104bc578063fd68f223146104ec576101c4565b8063bfe109281461042a578063d525564314610448578063e129200e14610464576101c4565b8063a1a8c312116100d3578063a1a8c312146103a9578063a9ea9db0146103cd578063aed6e306146103f0578063b754ae8a1461040c576101c4565b80638ab5212b1461034f5780638da5cb5b1461036d578063903bf98b1461038b576101c4565b806370cd22ae1161016657806379ba50971161014057806379ba5097146102d95780637da470ea146102e35780637dad91151461031357806389f4b48d14610331576101c4565b806370cd22ae1461028157806371080ec4146102b1578063715018a6146102cf576101c4565b80632c246501116101a25780632c2465011461021f57806332fc28401461023d57806350c2161b146102595780636f4a2cd014610277576101c4565b80630a53c61c146101c95780630b699abe146101e757806315b242a114610203575b600080fd5b6101d16104f6565b6040516101de919061315a565b60405180910390f35b61020160048036038101906101fc91906131b0565b61051c565b005b61021d600480360381019061021891906131b0565b610599565b005b6102276105e5565b604051610234919061315a565b60405180910390f35b610257600480360381019061025291906131b0565b61060b565b005b610261610657565b60405161026e919061315a565b60405180910390f35b61027f61067d565b005b61029b60048036038101906102969190613213565b6120f9565b6040516102a8919061315a565b60405180910390f35b6102b9612138565b6040516102c6919061325c565b60405180910390f35b6102d761214b565b005b6102e161215f565b005b6102fd60048036038101906102f89190613213565b6121ee565b60405161030a919061315a565b60405180910390f35b61031b61222d565b604051610328919061315a565b60405180910390f35b610339612253565b604051610346919061315a565b60405180910390f35b610357612279565b604051610364919061315a565b60405180910390f35b61037561229f565b604051610382919061315a565b60405180910390f35b6103936122c8565b6040516103a0919061315a565b60405180910390f35b6103b16122ee565b6040516103c49796959493929190613277565b60405180910390f35b6103d5612379565b6040516103e7969594939291906132e6565b60405180910390f35b61040a600480360381019061040591906131b0565b6123f1565b005b61041461243d565b604051610421919061315a565b60405180910390f35b610432612463565b60405161043f919061315a565b60405180910390f35b610462600480360381019061045d91906131b0565b612489565b005b61046c6124d5565b604051610479919061315a565b60405180910390f35b61048a6124fb565b604051610497919061315a565b60405180910390f35b6104ba60048036038101906104b591906131b0565b612525565b005b6104d660048036038101906104d19190613213565b6125d2565b6040516104e3919061315a565b60405180910390f35b6104f4612611565b005b600c60009054906101000a900473ffffffffffffffffffffffffffffffffffffffff1681565b610524612e83565b8073ffffffffffffffffffffffffffffffffffffffff1663f2fde38b61054861229f565b6040518263ffffffff1660e01b8152600401610564919061315a565b600060405180830381600087803b15801561057e57600080fd5b505af1158015610592573d6000803e3d6000fd5b5050505050565b6105a1612e83565b80600b60006101000a81548173ffffffffffffffffffffffffffffffffffffffff021916908373ffffffffffffffffffffffffffffffffffffffff16021790555050565b600460009054906101000a900473ffffffffffffffffffffffffffffffffffffffff1681565b610613612e83565b80600d60006101000a81548173ffffffffffffffffffffffffffffffffffffffff021916908373ffffffffffffffffffffffffffffffffffffffff16021790555050565b600360009054906101000a900473ffffffffffffffffffffffffffffffffffffffff1681565b610685612e83565b600260009054906101000a900473ffffffffffffffffffffffffffffffffffffffff1673ffffffffffffffffffffffffffffffffffffffff1663e4fc6b6d6040518163ffffffff1660e01b8152600401600060405180830381600087803b1580156106ef57600080fd5b505af1158015610703573d6000803e3d6000fd5b5050505061070f6130aa565b600360009054906101000a900473ffffffffffffffffffffffffffffffffffffffff1673ffffffffffffffffffffffffffffffffffffffff166370a08231306040518263ffffffff1660e01b815260040161076a919061315a565b602060405180830381865afa158015610787573d6000803e3d6000fd5b505050506040513d601f19601f820116820180604052508101906107ab919061335c565b8160000181815250506064600e60149054906101000a900460ff1660ff1682600001516107d891906133b8565b6107e29190613429565b816040018181525050806040015181600001516107ff919061345a565b8160200181815250506064600f60000160009054906101000a900460ff1660ff16826020015161082f91906133b8565b6108399190613429565b816060015160000181815250506064601060000160009054906101000a900460ff1660ff16826040015161086d91906133b8565b6108779190613429565b8160600151602001818152505060006064600f60000160019054906101000a900460ff1660ff1683602001516108ad91906133b8565b6108b79190613429565b905060006064601060000160019054906101000a900460ff1660ff1684604001516108e291906133b8565b6108ec9190613429565b90506002826108fb9190613429565b836080015160000181815250506002816109159190613429565b8360800151602001818152505082608001516000015182610936919061345a565b8360a00151600001818152505082608001516020015181610957919061345a565b8360a0015160200181815250506064600f60000160029054906101000a900460ff1660ff16846020015161098b91906133b8565b6109959190613429565b8360c0015160000181815250506064601060000160029054906101000a900460ff1660ff1684604001516109c991906133b8565b6109d39190613429565b8360c0015160200181815250506000600a60009054906101000a900473ffffffffffffffffffffffffffffffffffffffff1673ffffffffffffffffffffffffffffffffffffffff16638dfa43638560600151600001518660600151602001516040518363ffffffff1660e01b8152600401610a4f92919061349d565b61024060405180830381865afa158015610a6d573d6000803e3d6000fd5b505050506040513d601f19601f82011682018060405250810190610a919190613699565b90506000600b60009054906101000a900473ffffffffffffffffffffffffffffffffffffffff1673ffffffffffffffffffffffffffffffffffffffff16638dfa43638660800151600001518760800151602001516040518363ffffffff1660e01b8152600401610b0292919061349d565b61024060405180830381865afa158015610b20573d6000803e3d6000fd5b505050506040513d601f19601f82011682018060405250810190610b449190613699565b90506000600d60009054906101000a900473ffffffffffffffffffffffffffffffffffffffff1673ffffffffffffffffffffffffffffffffffffffff16638dfa43638760a00151600001518860a00151602001516040518363ffffffff1660e01b8152600401610bb592919061349d565b61024060405180830381865afa158015610bd3573d6000803e3d6000fd5b505050506040513d601f19601f82011682018060405250810190610bf79190613699565b90506000826040015160000151604001518460400151600001516040015184602001516000015160400151866020015160000151604001518660000151600001516040015188600001516000015160400151610c5391906136c7565b610c5d91906136c7565b610c6791906136c7565b610c7191906136c7565b610c7b91906136c7565b905060008360000151600001516060015185600001516000015160600151610ca391906136c7565b905060008460200151600001516060015186602001516000015160600151610ccb91906136c7565b905060008560400151600001516060015187604001516000015160600151610cf391906136c7565b90506000600c60009054906101000a900473ffffffffffffffffffffffffffffffffffffffff1673ffffffffffffffffffffffffffffffffffffffff16636ce35d3b8c60c0015160000151878e60c00151602001518888886040518763ffffffff1660e01b8152600401610d6c969594939291906136fb565b608060405180830381865afa158015610d89573d6000803e3d6000fd5b505050506040513d601f19601f82011682018060405250810190610dad91906137d4565b90506000886000015160200151118015610dcf57506000886000015160400151115b15610f2857600460009054906101000a900473ffffffffffffffffffffffffffffffffffffffff1673ffffffffffffffffffffffffffffffffffffffff166340c10f19308a60000151604001516040518363ffffffff1660e01b8152600401610e39929190613801565b600060405180830381600087803b158015610e5357600080fd5b505af1158015610e67573d6000803e3d6000fd5b505050506007600081548110610e8057610e7f61382a565b5b9060005260206000200160009054906101000a900473ffffffffffffffffffffffffffffffffffffffff1673ffffffffffffffffffffffffffffffffffffffff1663df6c39fb8960000151602001518a60000151604001516040518363ffffffff1660e01b8152600401610ef592919061349d565b600060405180830381600087803b158015610f0f57600080fd5b505af1158015610f23573d6000803e3d6000fd5b505050505b6000886020015160200151118015610f4857506000886020015160400151115b156110a157600560009054906101000a900473ffffffffffffffffffffffffffffffffffffffff1673ffffffffffffffffffffffffffffffffffffffff166340c10f19308a60200151604001516040518363ffffffff1660e01b8152600401610fb2929190613801565b600060405180830381600087803b158015610fcc57600080fd5b505af1158015610fe0573d6000803e3d6000fd5b505050506007600181548110610ff957610ff861382a565b5b9060005260206000200160009054906101000a900473ffffffffffffffffffffffffffffffffffffffff1673ffffffffffffffffffffffffffffffffffffffff1663df6c39fb8960200151602001518a60200151604001516040518363ffffffff1660e01b815260040161106e92919061349d565b600060405180830381600087803b15801561108857600080fd5b505af115801561109c573d6000803e3d6000fd5b505050505b60008860400151602001511180156110c157506000886040015160400151115b1561121a57600660009054906101000a900473ffffffffffffffffffffffffffffffffffffffff1673ffffffffffffffffffffffffffffffffffffffff166340c10f19308a60400151604001516040518363ffffffff1660e01b815260040161112b929190613801565b600060405180830381600087803b15801561114557600080fd5b505af1158015611159573d6000803e3d6000fd5b5050505060076002815481106111725761117161382a565b5b9060005260206000200160009054906101000a900473ffffffffffffffffffffffffffffffffffffffff1673ffffffffffffffffffffffffffffffffffffffff1663df6c39fb8960400151602001518a60400151604001516040518363ffffffff1660e01b81526004016111e792919061349d565b600060405180830381600087803b15801561120157600080fd5b505af1158015611215573d6000803e3d6000fd5b505050505b600087600001516020015111801561123a57506000876000015160400151115b1561139357600460009054906101000a900473ffffffffffffffffffffffffffffffffffffffff1673ffffffffffffffffffffffffffffffffffffffff166340c10f19308960000151604001516040518363ffffffff1660e01b81526004016112a4929190613801565b600060405180830381600087803b1580156112be57600080fd5b505af11580156112d2573d6000803e3d6000fd5b5050505060086000815481106112eb576112ea61382a565b5b9060005260206000200160009054906101000a900473ffffffffffffffffffffffffffffffffffffffff1673ffffffffffffffffffffffffffffffffffffffff1663df6c39fb8860000151602001518960000151604001516040518363ffffffff1660e01b815260040161136092919061349d565b600060405180830381600087803b15801561137a57600080fd5b505af115801561138e573d6000803e3d6000fd5b505050505b60008760200151602001511180156113b357506000876020015160400151115b1561150c57600560009054906101000a900473ffffffffffffffffffffffffffffffffffffffff1673ffffffffffffffffffffffffffffffffffffffff166340c10f19308960200151604001516040518363ffffffff1660e01b815260040161141d929190613801565b600060405180830381600087803b15801561143757600080fd5b505af115801561144b573d6000803e3d6000fd5b5050505060086001815481106114645761146361382a565b5b9060005260206000200160009054906101000a900473ffffffffffffffffffffffffffffffffffffffff1673ffffffffffffffffffffffffffffffffffffffff1663df6c39fb8860200151602001518960200151604001516040518363ffffffff1660e01b81526004016114d992919061349d565b600060405180830381600087803b1580156114f357600080fd5b505af1158015611507573d6000803e3d6000fd5b505050505b600087604001516020015111801561152c57506000876040015160400151115b1561168557600660009054906101000a900473ffffffffffffffffffffffffffffffffffffffff1673ffffffffffffffffffffffffffffffffffffffff166340c10f19308960400151604001516040518363ffffffff1660e01b8152600401611596929190613801565b600060405180830381600087803b1580156115b057600080fd5b505af11580156115c4573d6000803e3d6000fd5b5050505060086002815481106115dd576115dc61382a565b5b9060005260206000200160009054906101000a900473ffffffffffffffffffffffffffffffffffffffff1673ffffffffffffffffffffffffffffffffffffffff1663df6c39fb8860400151602001518960400151604001516040518363ffffffff1660e01b815260040161165292919061349d565b600060405180830381600087803b15801561166c57600080fd5b505af1158015611680573d6000803e3d6000fd5b505050505b60008660000151602001511180156116a557506000866000015160400151115b156117fe57600460009054906101000a900473ffffffffffffffffffffffffffffffffffffffff1673ffffffffffffffffffffffffffffffffffffffff166340c10f19308860000151604001516040518363ffffffff1660e01b815260040161170f929190613801565b600060405180830381600087803b15801561172957600080fd5b505af115801561173d573d6000803e3d6000fd5b5050505060096000815481106117565761175561382a565b5b9060005260206000200160009054906101000a900473ffffffffffffffffffffffffffffffffffffffff1673ffffffffffffffffffffffffffffffffffffffff1663df6c39fb8760000151602001518860000151604001516040518363ffffffff1660e01b81526004016117cb92919061349d565b600060405180830381600087803b1580156117e557600080fd5b505af11580156117f9573d6000803e3d6000fd5b505050505b600086602001516020015111801561181e57506000866020015160400151115b1561197757600560009054906101000a900473ffffffffffffffffffffffffffffffffffffffff1673ffffffffffffffffffffffffffffffffffffffff166340c10f19308860200151604001516040518363ffffffff1660e01b8152600401611888929190613801565b600060405180830381600087803b1580156118a257600080fd5b505af11580156118b6573d6000803e3d6000fd5b5050505060096001815481106118cf576118ce61382a565b5b9060005260206000200160009054906101000a900473ffffffffffffffffffffffffffffffffffffffff1673ffffffffffffffffffffffffffffffffffffffff1663df6c39fb8760200151602001518860200151604001516040518363ffffffff1660e01b815260040161194492919061349d565b600060405180830381600087803b15801561195e57600080fd5b505af1158015611972573d6000803e3d6000fd5b505050505b600086604001516020015111801561199757506000866040015160400151115b15611af057600660009054906101000a900473ffffffffffffffffffffffffffffffffffffffff1673ffffffffffffffffffffffffffffffffffffffff166340c10f19308860400151604001516040518363ffffffff1660e01b8152600401611a01929190613801565b600060405180830381600087803b158015611a1b57600080fd5b505af1158015611a2f573d6000803e3d6000fd5b505050506009600281548110611a4857611a4761382a565b5b9060005260206000200160009054906101000a900473ffffffffffffffffffffffffffffffffffffffff1673ffffffffffffffffffffffffffffffffffffffff1663df6c39fb8760400151602001518860400151604001516040518363ffffffff1660e01b8152600401611abd92919061349d565b600060405180830381600087803b158015611ad757600080fd5b505af1158015611aeb573d6000803e3d6000fd5b505050505b600360009054906101000a900473ffffffffffffffffffffffffffffffffffffffff1673ffffffffffffffffffffffffffffffffffffffff1663a9059cbb600e60009054906101000a900473ffffffffffffffffffffffffffffffffffffffff1683600001516040518363ffffffff1660e01b8152600401611b73929190613801565b6020604051808303816000875af1158015611b92573d6000803e3d6000fd5b505050506040513d601f19601f82011682018060405250810190611bb69190613891565b50600460009054906101000a900473ffffffffffffffffffffffffffffffffffffffff1673ffffffffffffffffffffffffffffffffffffffff166340c10f19600e60009054906101000a900473ffffffffffffffffffffffffffffffffffffffff1683602001516040518363ffffffff1660e01b8152600401611c3a929190613801565b600060405180830381600087803b158015611c5457600080fd5b505af1158015611c68573d6000803e3d6000fd5b50505050600560009054906101000a900473ffffffffffffffffffffffffffffffffffffffff1673ffffffffffffffffffffffffffffffffffffffff166340c10f19600e60009054906101000a900473ffffffffffffffffffffffffffffffffffffffff1683604001516040518363ffffffff1660e01b8152600401611cef929190613801565b600060405180830381600087803b158015611d0957600080fd5b505af1158015611d1d573d6000803e3d6000fd5b50505050600660009054906101000a900473ffffffffffffffffffffffffffffffffffffffff1673ffffffffffffffffffffffffffffffffffffffff166340c10f19600e60009054906101000a900473ffffffffffffffffffffffffffffffffffffffff1683606001516040518363ffffffff1660e01b8152600401611da4929190613801565b600060405180830381600087803b158015611dbe57600080fd5b505af1158015611dd2573d6000803e3d6000fd5b505050506000600360009054906101000a900473ffffffffffffffffffffffffffffffffffffffff1673ffffffffffffffffffffffffffffffffffffffff166370a08231306040518263ffffffff1660e01b8152600401611e33919061315a565b602060405180830381865afa158015611e50573d6000803e3d6000fd5b505050506040513d601f19601f82011682018060405250810190611e74919061335c565b1115611fd957600360009054906101000a900473ffffffffffffffffffffffffffffffffffffffff1673ffffffffffffffffffffffffffffffffffffffff1663a9059cbb600260009054906101000a900473ffffffffffffffffffffffffffffffffffffffff16600360009054906101000a900473ffffffffffffffffffffffffffffffffffffffff1673ffffffffffffffffffffffffffffffffffffffff166370a08231306040518263ffffffff1660e01b8152600401611f36919061315a565b602060405180830381865afa158015611f53573d6000803e3d6000fd5b505050506040513d601f19601f82011682018060405250810190611f77919061335c565b6040518363ffffffff1660e01b8152600401611f94929190613801565b6020604051808303816000875af1158015611fb3573d6000803e3d6000fd5b505050506040513d601f19601f82011682018060405250810190611fd79190613891565b505b7f0f41298dd61b4fdff224f14a8bde24760d3e18cd4e91a2a072f29d882d17f1088860405161200891906139a8565b60405180910390a17f686de475d8cf02a731287d163936d70c522d2d4dff8f07048dc5476e251d6f678760405161203f91906139a8565b60405180910390a17f4a573778a3a39ae90551df4d0fcd5e5cf0e18fd1f406eaad36df0e6c7b1b28658660405161207691906139a8565b60405180910390a17f2c6c1fe2cebdc992e4374cc537bd49223d9903f1be112f6d9dd455d1d14210f5816040516120ad9190613a19565b60405180910390a17f5578432bef88b16bac0877a12038c7d09ab8630c4bbf78e123e67bf6becaf8ad8b6040516120e49190613af3565b60405180910390a15050505050505050505050565b6009818154811061210957600080fd5b906000526020600020016000915054906101000a900473ffffffffffffffffffffffffffffffffffffffff1681565b600e60149054906101000a900460ff1681565b612153612e83565b61215d6000612f0a565b565b6000612169612f3b565b90508073ffffffffffffffffffffffffffffffffffffffff1661218a6124fb565b73ffffffffffffffffffffffffffffffffffffffff16146121e257806040517f118cdaa70000000000000000000000000000000000000000000000000000000081526004016121d9919061315a565b60405180910390fd5b6121eb81612f0a565b50565b600781815481106121fe57600080fd5b906000526020600020016000915054906101000a900473ffffffffffffffffffffffffffffffffffffffff1681565b600660009054906101000a900473ffffffffffffffffffffffffffffffffffffffff1681565b600a60009054906101000a900473ffffffffffffffffffffffffffffffffffffffff1681565b600e60009054906101000a900473ffffffffffffffffffffffffffffffffffffffff1681565b60008060009054906101000a900473ffffffffffffffffffffffffffffffffffffffff16905090565b600560009054906101000a900473ffffffffffffffffffffffffffffffffffffffff1681565b600f8060000160009054906101000a900460ff16908060000160019054906101000a900460ff16908060000160029054906101000a900460ff16908060000160039054906101000a900460ff16908060000160049054906101000a900460ff16908060000160059054906101000a900460ff16908060000160069054906101000a900460ff16905087565b60108060000160009054906101000a900460ff16908060000160019054906101000a900460ff16908060000160029054906101000a900460ff16908060000160039054906101000a900460ff16908060000160049054906101000a900460ff16908060000160059054906101000a900460ff16905086565b6123f9612e83565b80600c60006101000a81548173ffffffffffffffffffffffffffffffffffffffff021916908373ffffffffffffffffffffffffffffffffffffffff16021790555050565b600d60009054906101000a900473ffffffffffffffffffffffffffffffffffffffff1681565b600260009054906101000a900473ffffffffffffffffffffffffffffffffffffffff1681565b612491612e83565b80600a60006101000a81548173ffffffffffffffffffffffffffffffffffffffff021916908373ffffffffffffffffffffffffffffffffffffffff16021790555050565b600b60009054906101000a900473ffffffffffffffffffffffffffffffffffffffff1681565b6000600160009054906101000a900473ffffffffffffffffffffffffffffffffffffffff16905090565b61252d612e83565b80600160006101000a81548173ffffffffffffffffffffffffffffffffffffffff021916908373ffffffffffffffffffffffffffffffffffffffff1602179055508073ffffffffffffffffffffffffffffffffffffffff1661258d61229f565b73ffffffffffffffffffffffffffffffffffffffff167f38d16b8cac22d99fc7c124b9cd0de2d3fa1faef420bfe791d8c362d765e2270060405160405180910390a350565b600881815481106125e257600080fd5b906000526020600020016000915054906101000a900473ffffffffffffffffffffffffffffffffffffffff1681565b61265f600360009054906101000a900473ffffffffffffffffffffffffffffffffffffffff16600460009054906101000a900473ffffffffffffffffffffffffffffffffffffffff16612f43565b6126ad600360009054906101000a900473ffffffffffffffffffffffffffffffffffffffff16600560009054906101000a900473ffffffffffffffffffffffffffffffffffffffff16612f43565b6126fb600360009054906101000a900473ffffffffffffffffffffffffffffffffffffffff16600660009054906101000a900473ffffffffffffffffffffffffffffffffffffffff16612f43565b612766600360009054906101000a900473ffffffffffffffffffffffffffffffffffffffff1660076000815481106127365761273561382a565b5b9060005260206000200160009054906101000a900473ffffffffffffffffffffffffffffffffffffffff16612f43565b6127d1600460009054906101000a900473ffffffffffffffffffffffffffffffffffffffff1660076000815481106127a1576127a061382a565b5b9060005260206000200160009054906101000a900473ffffffffffffffffffffffffffffffffffffffff16612f43565b61283c600360009054906101000a900473ffffffffffffffffffffffffffffffffffffffff16600860008154811061280c5761280b61382a565b5b9060005260206000200160009054906101000a900473ffffffffffffffffffffffffffffffffffffffff16612f43565b6128a7600460009054906101000a900473ffffffffffffffffffffffffffffffffffffffff1660086000815481106128775761287661382a565b5b9060005260206000200160009054906101000a900473ffffffffffffffffffffffffffffffffffffffff16612f43565b612912600360009054906101000a900473ffffffffffffffffffffffffffffffffffffffff1660096000815481106128e2576128e161382a565b5b9060005260206000200160009054906101000a900473ffffffffffffffffffffffffffffffffffffffff16612f43565b61297d600460009054906101000a900473ffffffffffffffffffffffffffffffffffffffff16600960008154811061294d5761294c61382a565b5b9060005260206000200160009054906101000a900473ffffffffffffffffffffffffffffffffffffffff16612f43565b6129e8600360009054906101000a900473ffffffffffffffffffffffffffffffffffffffff1660076001815481106129b8576129b761382a565b5b9060005260206000200160009054906101000a900473ffffffffffffffffffffffffffffffffffffffff16612f43565b612a53600560009054906101000a900473ffffffffffffffffffffffffffffffffffffffff166007600181548110612a2357612a2261382a565b5b9060005260206000200160009054906101000a900473ffffffffffffffffffffffffffffffffffffffff16612f43565b612abe600360009054906101000a900473ffffffffffffffffffffffffffffffffffffffff166008600181548110612a8e57612a8d61382a565b5b9060005260206000200160009054906101000a900473ffffffffffffffffffffffffffffffffffffffff16612f43565b612b29600560009054906101000a900473ffffffffffffffffffffffffffffffffffffffff166008600181548110612af957612af861382a565b5b9060005260206000200160009054906101000a900473ffffffffffffffffffffffffffffffffffffffff16612f43565b612b94600360009054906101000a900473ffffffffffffffffffffffffffffffffffffffff166009600181548110612b6457612b6361382a565b5b9060005260206000200160009054906101000a900473ffffffffffffffffffffffffffffffffffffffff16612f43565b612bff600560009054906101000a900473ffffffffffffffffffffffffffffffffffffffff166009600181548110612bcf57612bce61382a565b5b9060005260206000200160009054906101000a900473ffffffffffffffffffffffffffffffffffffffff16612f43565b612c6a600360009054906101000a900473ffffffffffffffffffffffffffffffffffffffff166007600281548110612c3a57612c3961382a565b5b9060005260206000200160009054906101000a900473ffffffffffffffffffffffffffffffffffffffff16612f43565b612cd5600660009054906101000a900473ffffffffffffffffffffffffffffffffffffffff166007600281548110612ca557612ca461382a565b5b9060005260206000200160009054906101000a900473ffffffffffffffffffffffffffffffffffffffff16612f43565b612d40600360009054906101000a900473ffffffffffffffffffffffffffffffffffffffff166008600281548110612d1057612d0f61382a565b5b9060005260206000200160009054906101000a900473ffffffffffffffffffffffffffffffffffffffff16612f43565b612dab600660009054906101000a900473ffffffffffffffffffffffffffffffffffffffff166008600281548110612d7b57612d7a61382a565b5b9060005260206000200160009054906101000a900473ffffffffffffffffffffffffffffffffffffffff16612f43565b612e16600360009054906101000a900473ffffffffffffffffffffffffffffffffffffffff166009600281548110612de657612de561382a565b5b9060005260206000200160009054906101000a900473ffffffffffffffffffffffffffffffffffffffff16612f43565b612e81600660009054906101000a900473ffffffffffffffffffffffffffffffffffffffff166009600281548110612e5157612e5061382a565b5b9060005260206000200160009054906101000a900473ffffffffffffffffffffffffffffffffffffffff16612f43565b565b612e8b612f3b565b73ffffffffffffffffffffffffffffffffffffffff16612ea961229f565b73ffffffffffffffffffffffffffffffffffffffff1614612f0857612ecc612f3b565b6040517f118cdaa7000000000000000000000000000000000000000000000000000000008152600401612eff919061315a565b60405180910390fd5b565b600160006101000a81549073ffffffffffffffffffffffffffffffffffffffff0219169055612f3881612fe6565b50565b600033905090565b8173ffffffffffffffffffffffffffffffffffffffff1663095ea7b3827fffffffffffffffffffffffffffffffffffffffffffffffffffffffffffffffff6040518363ffffffff1660e01b8152600401612f9e929190613801565b6020604051808303816000875af1158015612fbd573d6000803e3d6000fd5b505050506040513d601f19601f82011682018060405250810190612fe19190613891565b505050565b60008060009054906101000a900473ffffffffffffffffffffffffffffffffffffffff169050816000806101000a81548173ffffffffffffffffffffffffffffffffffffffff021916908373ffffffffffffffffffffffffffffffffffffffff1602179055508173ffffffffffffffffffffffffffffffffffffffff168173ffffffffffffffffffffffffffffffffffffffff167f8be0079c531659141344cd1fd0a4f28419497f9722a3daafe3b4186f6b6457e060405160405180910390a35050565b6040518060e001604052806000815260200160008152602001600081526020016130d26130ff565b81526020016130df6130ff565b81526020016130ec6130ff565b81526020016130f96130ff565b81525090565b604051806040016040528060008152602001600081525090565b600073ffffffffffffffffffffffffffffffffffffffff82169050919050565b600061314482613119565b9050919050565b61315481613139565b82525050565b600060208201905061316f600083018461314b565b92915050565b6000604051905090565b600080fd5b61318d81613139565b811461319857600080fd5b50565b6000813590506131aa81613184565b92915050565b6000602082840312156131c6576131c561317f565b5b60006131d48482850161319b565b91505092915050565b6000819050919050565b6131f0816131dd565b81146131fb57600080fd5b50565b60008135905061320d816131e7565b92915050565b6000602082840312156132295761322861317f565b5b6000613237848285016131fe565b91505092915050565b600060ff82169050919050565b61325681613240565b82525050565b6000602082019050613271600083018461324d565b92915050565b600060e08201905061328c600083018a61324d565b613299602083018961324d565b6132a6604083018861324d565b6132b3606083018761324d565b6132c0608083018661324d565b6132cd60a083018561324d565b6132da60c083018461324d565b98975050505050505050565b600060c0820190506132fb600083018961324d565b613308602083018861324d565b613315604083018761324d565b613322606083018661324d565b61332f608083018561324d565b61333c60a083018461324d565b979650505050505050565b600081519050613356816131e7565b92915050565b6000602082840312156133725761337161317f565b5b600061338084828501613347565b91505092915050565b7f4e487b7100000000000000000000000000000000000000000000000000000000600052601160045260246000fd5b60006133c3826131dd565b91506133ce836131dd565b92508282026133dc816131dd565b915082820484148315176133f3576133f2613389565b5b5092915050565b7f4e487b7100000000000000000000000000000000000000000000000000000000600052601260045260246000fd5b6000613434826131dd565b915061343f836131dd565b92508261344f5761344e6133fa565b5b828204905092915050565b6000613465826131dd565b9150613470836131dd565b925082820390508181111561348857613487613389565b5b92915050565b613497816131dd565b82525050565b60006040820190506134b2600083018561348e565b6134bf602083018461348e565b9392505050565b600080fd5b6000601f19601f8301169050919050565b7f4e487b7100000000000000000000000000000000000000000000000000000000600052604160045260246000fd5b613514826134cb565b810181811067ffffffffffffffff82111715613533576135326134dc565b5b80604052505050565b6000613546613175565b9050613552828261350b565b919050565b60006080828403121561356d5761356c6134c6565b5b613577608061353c565b9050600061358784828501613347565b600083015250602061359b84828501613347565b60208301525060406135af84828501613347565b60408301525060606135c384828501613347565b60608301525092915050565b600060c082840312156135e5576135e46134c6565b5b6135ef606061353c565b905060006135ff84828501613557565b600083015250608061361384828501613347565b60208301525060a061362784828501613347565b60408301525092915050565b6000610240828403121561364a576136496134c6565b5b613654606061353c565b90506000613664848285016135cf565b60008301525060c0613678848285016135cf565b60208301525061018061368d848285016135cf565b60408301525092915050565b600061024082840312156136b0576136af61317f565b5b60006136be84828501613633565b91505092915050565b60006136d2826131dd565b91506136dd836131dd565b92508282019050808211156136f5576136f4613389565b5b92915050565b600060c082019050613710600083018961348e565b61371d602083018861348e565b61372a604083018761348e565b613737606083018661348e565b613744608083018561348e565b61375160a083018461348e565b979650505050505050565b600060808284031215613772576137716134c6565b5b61377c608061353c565b9050600061378c84828501613347565b60008301525060206137a084828501613347565b60208301525060406137b484828501613347565b60408301525060606137c884828501613347565b60608301525092915050565b6000608082840312156137ea576137e961317f565b5b60006137f88482850161375c565b91505092915050565b6000604082019050613816600083018561314b565b613823602083018461348e565b9392505050565b7f4e487b7100000000000000000000000000000000000000000000000000000000600052603260045260246000fd5b60008115159050919050565b61386e81613859565b811461387957600080fd5b50565b60008151905061388b81613865565b92915050565b6000602082840312156138a7576138a661317f565b5b60006138b58482850161387c565b91505092915050565b6138c7816131dd565b82525050565b6080820160008201516138e360008501826138be565b5060208201516138f660208501826138be565b50604082015161390960408501826138be565b50606082015161391c60608501826138be565b50505050565b60c08201600082015161393860008501826138cd565b50602082015161394b60808501826138be565b50604082015161395e60a08501826138be565b50505050565b6102408201600082015161397b6000850182613922565b50602082015161398e60c0850182613922565b5060408201516139a2610180850182613922565b50505050565b6000610240820190506139be6000830184613964565b92915050565b6080820160008201516139da60008501826138be565b5060208201516139ed60208501826138be565b506040820151613a0060408501826138be565b506060820151613a1360608501826138be565b50505050565b6000608082019050613a2e60008301846139c4565b92915050565b604082016000820151613a4a60008501826138be565b506020820151613a5d60208501826138be565b50505050565b61016082016000820151613a7a60008501826138be565b506020820151613a8d60208501826138be565b506040820151613aa060408501826138be565b506060820151613ab36060850182613a34565b506080820151613ac660a0850182613a34565b5060a0820151613ad960e0850182613a34565b5060c0820151613aed610120850182613a34565b50505050565b600061016082019050613b096000830184613a63565b9291505056fea2646970667358221220dfa4563e633e19509bf46d01aeb417a9b9224567ead9d3e41e630d85212a87b064736f6c63430008180033",
  "linkReferences": {},
  "deployedLinkReferences": {}
}