{
  "_format": "hh-sol-artifact-1",
  "contractName": "RewardSplitter",
  "sourceName": "contracts/RewardSplitter.sol",
  "abi": [
    {
      "inputs": [
        {
          "internalType": "address",
          "name": "_ldt",
          "type": "address"
        },
        {
          "internalType": "address",
          "name": "_distributor",
          "type": "address"
        },
        {
          "internalType": "address",
          "name": "_tbbAddress",
          "type": "address"
        },
        {
          "internalType": "address",
          "name": "_tbbFarmAddress",
          "type": "address"
        },
        {
          "internalType": "address",
          "name": "_tbsAddress",
          "type": "address"
        },
        {
          "internalType": "address",
          "name": "_tbsFarmAddress",
          "type": "address"
        },
        {
          "internalType": "address",
          "name": "_tbgAddress",
          "type": "address"
        },
        {
          "internalType": "address",
          "name": "_tbgFarmAddress",
          "type": "address"
        },
        {
          "internalType": "address",
          "name": "_teamAddress",
          "type": "address"
        }
      ],
      "stateMutability": "nonpayable",
      "type": "constructor"
    },
    {
      "inputs": [
        {
          "internalType": "address",
          "name": "owner",
          "type": "address"
        }
      ],
      "name": "OwnableInvalidOwner",
      "type": "error"
    },
    {
      "inputs": [
        {
          "internalType": "address",
          "name": "account",
          "type": "address"
        }
      ],
      "name": "OwnableUnauthorizedAccount",
      "type": "error"
    },
    {
      "anonymous": false,
      "inputs": [
        {
          "indexed": true,
          "internalType": "address",
          "name": "previousOwner",
          "type": "address"
        },
        {
          "indexed": true,
          "internalType": "address",
          "name": "newOwner",
          "type": "address"
        }
      ],
      "name": "OwnershipTransferStarted",
      "type": "event"
    },
    {
      "anonymous": false,
      "inputs": [
        {
          "indexed": true,
          "internalType": "address",
          "name": "previousOwner",
          "type": "address"
        },
        {
          "indexed": true,
          "internalType": "address",
          "name": "newOwner",
          "type": "address"
        }
      ],
      "name": "OwnershipTransferred",
      "type": "event"
    },
    {
      "inputs": [],
      "name": "MAX_RATE",
      "outputs": [
        {
          "internalType": "uint256",
          "name": "",
          "type": "uint256"
        }
      ],
      "stateMutability": "view",
      "type": "function"
    },
    {
      "inputs": [],
      "name": "MIN_RATE",
      "outputs": [
        {
          "internalType": "uint256",
          "name": "",
          "type": "uint256"
        }
      ],
      "stateMutability": "view",
      "type": "function"
    },
    {
      "inputs": [],
      "name": "acceptOwnership",
      "outputs": [],
      "stateMutability": "nonpayable",
      "type": "function"
    },
    {
      "inputs": [],
      "name": "approveTokens",
      "outputs": [],
      "stateMutability": "nonpayable",
      "type": "function"
    },
    {
      "inputs": [
        {
          "internalType": "address",
          "name": "_farm",
          "type": "address"
        },
        {
          "components": [
            {
              "internalType": "uint256",
              "name": "ldt",
              "type": "uint256"
            },
            {
              "internalType": "uint256",
              "name": "tb",
              "type": "uint256"
            }
          ],
          "internalType": "struct RewardSplitter.RewardRate",
          "name": "_rate",
          "type": "tuple"
        }
      ],
      "name": "calculateStakingLiquidity",
      "outputs": [
        {
          "components": [
            {
              "internalType": "uint256",
              "name": "rewardAmountLdt",
              "type": "uint256"
            },
            {
              "internalType": "uint256",
              "name": "rewardAmountTb",
              "type": "uint256"
            },
            {
              "internalType": "uint256",
              "name": "liquidityLdt",
              "type": "uint256"
            },
            {
              "internalType": "uint256",
              "name": "liquidityTb",
              "type": "uint256"
            }
          ],
          "internalType": "struct RewardSplitter.RewardLiquidity",
          "name": "",
          "type": "tuple"
        }
      ],
      "stateMutability": "view",
      "type": "function"
    },
    {
      "inputs": [],
      "name": "distributor",
      "outputs": [
        {
          "internalType": "address",
          "name": "",
          "type": "address"
        }
      ],
      "stateMutability": "view",
      "type": "function"
    },
    {
      "inputs": [
        {
          "internalType": "address",
          "name": "_farm",
          "type": "address"
        }
      ],
      "name": "getLdtLiquidity",
      "outputs": [
        {
          "internalType": "uint256",
          "name": "liquidity",
          "type": "uint256"
        }
      ],
      "stateMutability": "view",
      "type": "function"
    },
    {
      "inputs": [],
      "name": "ldt",
      "outputs": [
        {
          "internalType": "address",
          "name": "",
          "type": "address"
        }
      ],
      "stateMutability": "view",
      "type": "function"
    },
    {
      "inputs": [],
      "name": "ldtSplit",
      "outputs": [
        {
          "internalType": "uint8",
          "name": "farmingReward",
          "type": "uint8"
        },
        {
          "internalType": "uint8",
          "name": "stakingReward",
          "type": "uint8"
        },
        {
          "internalType": "uint8",
          "name": "teamReward",
          "type": "uint8"
        },
        {
          "internalType": "uint8",
          "name": "daoFundReward",
          "type": "uint8"
        },
        {
          "internalType": "uint8",
          "name": "ambassadorIncentiveReward",
          "type": "uint8"
        },
        {
          "internalType": "uint8",
          "name": "greenEnergyProducersReward",
          "type": "uint8"
        },
        {
          "internalType": "uint8",
          "name": "marketingReward",
          "type": "uint8"
        }
      ],
      "stateMutability": "view",
      "type": "function"
    },
    {
      "inputs": [],
      "name": "owner",
      "outputs": [
        {
          "internalType": "address",
          "name": "",
          "type": "address"
        }
      ],
      "stateMutability": "view",
      "type": "function"
    },
    {
      "inputs": [],
      "name": "pendingOwner",
      "outputs": [
        {
          "internalType": "address",
          "name": "",
          "type": "address"
        }
      ],
      "stateMutability": "view",
      "type": "function"
    },
    {
      "inputs": [],
      "name": "recoverOwnershipTbb",
      "outputs": [],
      "stateMutability": "nonpayable",
      "type": "function"
    },
    {
      "inputs": [],
      "name": "recoverOwnershipTbbFarm",
      "outputs": [],
      "stateMutability": "nonpayable",
      "type": "function"
    },
    {
      "inputs": [],
      "name": "recoverOwnershipTbg",
      "outputs": [],
      "stateMutability": "nonpayable",
      "type": "function"
    },
    {
      "inputs": [],
      "name": "recoverOwnershipTbgFarm",
      "outputs": [],
      "stateMutability": "nonpayable",
      "type": "function"
    },
    {
      "inputs": [],
      "name": "recoverOwnershipTbs",
      "outputs": [],
      "stateMutability": "nonpayable",
      "type": "function"
    },
    {
      "inputs": [],
      "name": "recoverOwnershipTbsFarm",
      "outputs": [],
      "stateMutability": "nonpayable",
      "type": "function"
    },
    {
      "inputs": [],
      "name": "renounceOwnership",
      "outputs": [],
      "stateMutability": "nonpayable",
      "type": "function"
    },
    {
      "inputs": [],
      "name": "requestDistribution",
      "outputs": [],
      "stateMutability": "nonpayable",
      "type": "function"
    },
    {
      "inputs": [
        {
          "internalType": "address",
          "name": "_distributor",
          "type": "address"
        }
      ],
      "name": "setDistributor",
      "outputs": [],
      "stateMutability": "nonpayable",
      "type": "function"
    },
    {
      "inputs": [
        {
          "components": [
            {
              "internalType": "uint8",
              "name": "farmingReward",
              "type": "uint8"
            },
            {
              "internalType": "uint8",
              "name": "stakingReward",
              "type": "uint8"
            },
            {
              "internalType": "uint8",
              "name": "teamReward",
              "type": "uint8"
            },
            {
              "internalType": "uint8",
              "name": "daoFundReward",
              "type": "uint8"
            },
            {
              "internalType": "uint8",
              "name": "ambassadorIncentiveReward",
              "type": "uint8"
            },
            {
              "internalType": "uint8",
              "name": "greenEnergyProducersReward",
              "type": "uint8"
            },
            {
              "internalType": "uint8",
              "name": "marketingReward",
              "type": "uint8"
            }
          ],
          "internalType": "struct RewardSplitter.LdtSplit",
          "name": "_ldtSplit",
          "type": "tuple"
        }
      ],
      "name": "setLdtSplit",
      "outputs": [],
      "stateMutability": "nonpayable",
      "type": "function"
    },
    {
      "inputs": [
        {
          "components": [
            {
              "internalType": "uint8",
              "name": "farmingReward",
              "type": "uint8"
            },
            {
              "internalType": "uint8",
              "name": "stakingReward",
              "type": "uint8"
            },
            {
              "internalType": "uint8",
              "name": "teamReward",
              "type": "uint8"
            },
            {
              "internalType": "uint8",
              "name": "daoFundReward",
              "type": "uint8"
            },
            {
              "internalType": "uint8",
              "name": "ambassadorIncentiveReward",
              "type": "uint8"
            },
            {
              "internalType": "uint8",
              "name": "greenEnergyProducersReward",
              "type": "uint8"
            }
          ],
          "internalType": "struct RewardSplitter.TbSplit",
          "name": "_tbSplit",
          "type": "tuple"
        }
      ],
      "name": "setTbSplit",
      "outputs": [],
      "stateMutability": "nonpayable",
      "type": "function"
    },
    {
      "inputs": [
        {
          "internalType": "uint256",
          "name": "_ldtRate",
          "type": "uint256"
        },
        {
          "internalType": "uint256",
          "name": "_tbbRate",
          "type": "uint256"
        }
      ],
      "name": "setTbbRewardRate",
      "outputs": [],
      "stateMutability": "nonpayable",
      "type": "function"
    },
    {
      "inputs": [
        {
          "internalType": "uint256",
          "name": "_ldtRate",
          "type": "uint256"
        },
        {
          "internalType": "uint256",
          "name": "_tbgRate",
          "type": "uint256"
        }
      ],
      "name": "setTbgRewardRate",
      "outputs": [],
      "stateMutability": "nonpayable",
      "type": "function"
    },
    {
      "inputs": [
        {
          "internalType": "uint256",
          "name": "_ldtRate",
          "type": "uint256"
        },
        {
          "internalType": "uint256",
          "name": "_tbsRate",
          "type": "uint256"
        }
      ],
      "name": "setTbsRewardRate",
      "outputs": [],
      "stateMutability": "nonpayable",
      "type": "function"
    },
    {
      "inputs": [
        {
          "internalType": "address",
          "name": "_teamAddress",
          "type": "address"
        }
      ],
      "name": "setTeamAddress",
      "outputs": [],
      "stateMutability": "nonpayable",
      "type": "function"
    },
    {
      "inputs": [
        {
          "internalType": "uint256",
          "name": "_ldtRate",
          "type": "uint256"
        },
        {
          "internalType": "uint256",
          "name": "_tbgRate",
          "type": "uint256"
        }
      ],
      "name": "setTeamRewardRate",
      "outputs": [],
      "stateMutability": "nonpayable",
      "type": "function"
    },
    {
      "inputs": [],
      "name": "tbRate",
      "outputs": [
        {
          "internalType": "uint8",
          "name": "",
          "type": "uint8"
        }
      ],
      "stateMutability": "view",
      "type": "function"
    },
    {
      "inputs": [],
      "name": "tbSplit",
      "outputs": [
        {
          "internalType": "uint8",
          "name": "farmingReward",
          "type": "uint8"
        },
        {
          "internalType": "uint8",
          "name": "stakingReward",
          "type": "uint8"
        },
        {
          "internalType": "uint8",
          "name": "teamReward",
          "type": "uint8"
        },
        {
          "internalType": "uint8",
          "name": "daoFundReward",
          "type": "uint8"
        },
        {
          "internalType": "uint8",
          "name": "ambassadorIncentiveReward",
          "type": "uint8"
        },
        {
          "internalType": "uint8",
          "name": "greenEnergyProducersReward",
          "type": "uint8"
        }
      ],
      "stateMutability": "view",
      "type": "function"
    },
    {
      "inputs": [],
      "name": "tbbAddress",
      "outputs": [
        {
          "internalType": "address",
          "name": "",
          "type": "address"
        }
      ],
      "stateMutability": "view",
      "type": "function"
    },
    {
      "inputs": [],
      "name": "tbbFarmAddress",
      "outputs": [
        {
          "internalType": "address",
          "name": "",
          "type": "address"
        }
      ],
      "stateMutability": "view",
      "type": "function"
    },
    {
      "inputs": [],
      "name": "tbbRewardRate",
      "outputs": [
        {
          "internalType": "uint256",
          "name": "ldt",
          "type": "uint256"
        },
        {
          "internalType": "uint256",
          "name": "tb",
          "type": "uint256"
        }
      ],
      "stateMutability": "view",
      "type": "function"
    },
    {
      "inputs": [],
      "name": "tbgAddress",
      "outputs": [
        {
          "internalType": "address",
          "name": "",
          "type": "address"
        }
      ],
      "stateMutability": "view",
      "type": "function"
    },
    {
      "inputs": [],
      "name": "tbgFarmAddress",
      "outputs": [
        {
          "internalType": "address",
          "name": "",
          "type": "address"
        }
      ],
      "stateMutability": "view",
      "type": "function"
    },
    {
      "inputs": [],
      "name": "tbgRewardRate",
      "outputs": [
        {
          "internalType": "uint256",
          "name": "ldt",
          "type": "uint256"
        },
        {
          "internalType": "uint256",
          "name": "tb",
          "type": "uint256"
        }
      ],
      "stateMutability": "view",
      "type": "function"
    },
    {
      "inputs": [],
      "name": "tbsAddress",
      "outputs": [
        {
          "internalType": "address",
          "name": "",
          "type": "address"
        }
      ],
      "stateMutability": "view",
      "type": "function"
    },
    {
      "inputs": [],
      "name": "tbsFarmAddress",
      "outputs": [
        {
          "internalType": "address",
          "name": "",
          "type": "address"
        }
      ],
      "stateMutability": "view",
      "type": "function"
    },
    {
      "inputs": [],
      "name": "tbsRewardRate",
      "outputs": [
        {
          "internalType": "uint256",
          "name": "ldt",
          "type": "uint256"
        },
        {
          "internalType": "uint256",
          "name": "tb",
          "type": "uint256"
        }
      ],
      "stateMutability": "view",
      "type": "function"
    },
    {
      "inputs": [],
      "name": "teamAddress",
      "outputs": [
        {
          "internalType": "address",
          "name": "",
          "type": "address"
        }
      ],
      "stateMutability": "view",
      "type": "function"
    },
    {
      "inputs": [],
      "name": "teamRewardRate",
      "outputs": [
        {
          "internalType": "uint256",
          "name": "ldt",
          "type": "uint256"
        },
        {
          "internalType": "uint256",
          "name": "tb",
          "type": "uint256"
        }
      ],
      "stateMutability": "view",
      "type": "function"
    },
    {
      "inputs": [
        {
          "internalType": "address",
          "name": "newOwner",
          "type": "address"
        }
      ],
      "name": "transferOwnership",
      "outputs": [],
      "stateMutability": "nonpayable",
      "type": "function"
    }
  ],
  "bytecode": "0x60806040526050600a60146101000a81548160ff021916908360ff160217905550604051806040016040528060c8815260200160c8815250600b6000820151816000015560208201518160010155505060405180604001604052806101f481526020016101f4815250600d6000820151816000015560208201518160010155505060405180604001604052806103e881526020016103e8815250600f6000820151816000015560208201518160010155505060405180604001604052806103e881526020016103e88152506011600082015181600001556020820151816001015550506040518060e00160405280601460ff168152602001602860ff168152602001600a60ff168152602001600e60ff168152602001600a60ff168152602001600560ff168152602001600160ff16815250601360008201518160000160006101000a81548160ff021916908360ff16021790555060208201518160000160016101000a81548160ff021916908360ff16021790555060408201518160000160026101000a81548160ff021916908360ff16021790555060608201518160000160036101000a81548160ff021916908360ff16021790555060808201518160000160046101000a81548160ff021916908360ff16021790555060a08201518160000160056101000a81548160ff021916908360ff16021790555060c08201518160000160066101000a81548160ff021916908360ff16021790555050506040518060c00160405280602860ff168152602001601960ff168152602001600a60ff168152602001600a60ff168152602001600a60ff168152602001600560ff16815250601460008201518160000160006101000a81548160ff021916908360ff16021790555060208201518160000160016101000a81548160ff021916908360ff16021790555060408201518160000160026101000a81548160ff021916908360ff16021790555060608201518160000160036101000a81548160ff021916908360ff16021790555060808201518160000160046101000a81548160ff021916908360ff16021790555060a08201518160000160056101000a81548160ff021916908360ff16021790555050503480156200033857600080fd5b50604051620056f9380380620056f983398181016040528101906200035e9190620007a5565b33600073ffffffffffffffffffffffffffffffffffffffff168173ffffffffffffffffffffffffffffffffffffffff1603620003d45760006040517f1e4fbdf7000000000000000000000000000000000000000000000000000000008152600401620003cb919062000895565b60405180910390fd5b620003e5816200063e60201b60201c565b5088600260006101000a81548173ffffffffffffffffffffffffffffffffffffffff021916908373ffffffffffffffffffffffffffffffffffffffff16021790555087600a60006101000a81548173ffffffffffffffffffffffffffffffffffffffff021916908373ffffffffffffffffffffffffffffffffffffffff16021790555086600360006101000a81548173ffffffffffffffffffffffffffffffffffffffff021916908373ffffffffffffffffffffffffffffffffffffffff16021790555085600660006101000a81548173ffffffffffffffffffffffffffffffffffffffff021916908373ffffffffffffffffffffffffffffffffffffffff16021790555084600460006101000a81548173ffffffffffffffffffffffffffffffffffffffff021916908373ffffffffffffffffffffffffffffffffffffffff16021790555083600760006101000a81548173ffffffffffffffffffffffffffffffffffffffff021916908373ffffffffffffffffffffffffffffffffffffffff16021790555082600560006101000a81548173ffffffffffffffffffffffffffffffffffffffff021916908373ffffffffffffffffffffffffffffffffffffffff16021790555081600860006101000a81548173ffffffffffffffffffffffffffffffffffffffff021916908373ffffffffffffffffffffffffffffffffffffffff16021790555080600960006101000a81548173ffffffffffffffffffffffffffffffffffffffff021916908373ffffffffffffffffffffffffffffffffffffffff160217905550505050505050505050620008b2565b600160006101000a81549073ffffffffffffffffffffffffffffffffffffffff021916905562000674816200067760201b60201c565b50565b60008060009054906101000a900473ffffffffffffffffffffffffffffffffffffffff169050816000806101000a81548173ffffffffffffffffffffffffffffffffffffffff021916908373ffffffffffffffffffffffffffffffffffffffff1602179055508173ffffffffffffffffffffffffffffffffffffffff168173ffffffffffffffffffffffffffffffffffffffff167f8be0079c531659141344cd1fd0a4f28419497f9722a3daafe3b4186f6b6457e060405160405180910390a35050565b600080fd5b600073ffffffffffffffffffffffffffffffffffffffff82169050919050565b60006200076d8262000740565b9050919050565b6200077f8162000760565b81146200078b57600080fd5b50565b6000815190506200079f8162000774565b92915050565b60008060008060008060008060006101208a8c031215620007cb57620007ca6200073b565b5b6000620007db8c828d016200078e565b9950506020620007ee8c828d016200078e565b9850506040620008018c828d016200078e565b9750506060620008148c828d016200078e565b9650506080620008278c828d016200078e565b95505060a06200083a8c828d016200078e565b94505060c06200084d8c828d016200078e565b93505060e0620008608c828d016200078e565b925050610100620008748c828d016200078e565b9150509295985092959850929598565b6200088f8162000760565b82525050565b6000602082019050620008ac600083018462000884565b92915050565b614e3780620008c26000396000f3fe608060405234801561001057600080fd5b50600436106102535760003560e01c80638da5cb5b11610146578063d2449407116100c3578063ed578dfe11610087578063ed578dfe146105f0578063ee120c2514610613578063f2fde38b1461061d578063fa27c5bd14610639578063fd68f22314610657578063feeffcd61461066157610253565b8063d244940714610596578063d72bd287146105a0578063d819bfef146105aa578063e24ac8e0146105c8578063e30c3978146105d257610253565b8063bbb186b51161010a578063bbb186b5146104f0578063bfe1092814610520578063c24dbebd1461053e578063c7214b6a1461055c578063d036f6121461057857610253565b80638da5cb5b1461046f5780638e10ef0b1461048d5780638ec244f1146104ac578063912eb70b146104ca578063bb7cf7ba146104d457610253565b806359c52a8c116101d457806375619ab51161019857806375619ab5146103d9578063763acf65146103f557806379ba5097146104195780637e3ba83d1461042357806381720c081461043f57610253565b806359c52a8c1461036c5780636690864e1461037657806370a539261461039257806371080ec4146103b1578063715018a6146103cf57610253565b806338cd6c0f1161021b57806338cd6c0f146102ea578063427186dd1461030957806347b018e2146103135780634eecf1fd1461032f57806350c2161b1461034e57610253565b8063151471b3146102585780631c75f085146102745780631c8c7a1c1461029257806326a1cea9146102b05780632a2b662c146102ce575b600080fd5b610272600480360381019061026d91906143f7565b61067f565b005b61027c610745565b6040516102899190614478565b60405180910390f35b61029a61076b565b6040516102a79190614478565b60405180910390f35b6102b8610791565b6040516102c59190614478565b60405180910390f35b6102e860048036038101906102e391906143f7565b6107b7565b005b6102f261087d565b6040516103009291906144a2565b60405180910390f35b61031161088f565b005b61032d600480360381019061032891906143f7565b61092d565b005b6103376109f3565b6040516103459291906144a2565b60405180910390f35b610356610a05565b6040516103639190614478565b60405180910390f35b610374610a2b565b005b610390600480360381019061038b91906144f7565b6128e7565b005b61039a612933565b6040516103a89291906144a2565b60405180910390f35b6103b9612945565b6040516103c69190614540565b60405180910390f35b6103d7612958565b005b6103f360048036038101906103ee91906144f7565b61296c565b005b6103fd6129b8565b604051610410979695949392919061455b565b60405180910390f35b610421612a43565b005b61043d600480360381019061043891906143f7565b612ad2565b005b610459600480360381019061045491906144f7565b612b98565b60405161046691906145ca565b60405180910390f35b610477612cb0565b6040516104849190614478565b60405180910390f35b610495612cd9565b6040516104a39291906144a2565b60405180910390f35b6104b4612ceb565b6040516104c19190614478565b60405180910390f35b6104d2612d11565b005b6104ee60048036038101906104e99190614742565b612daf565b005b61050a600480360381019061050591906147bf565b612f1c565b6040516105179190614863565b60405180910390f35b6105286133f9565b6040516105359190614478565b60405180910390f35b61054661341f565b60405161055391906145ca565b60405180910390f35b61057660048036038101906105719190614932565b613426565b005b6105806135c3565b60405161058d9190614478565b60405180910390f35b61059e6135e9565b005b6105a8613687565b005b6105b2613725565b6040516105bf91906145ca565b60405180910390f35b6105d061372a565b005b6105da6137c8565b6040516105e79190614478565b60405180910390f35b6105f86137f2565b60405161060a9695949392919061495f565b60405180910390f35b61061b61386a565b005b610637600480360381019061063291906144f7565b613908565b005b6106416139b5565b60405161064e9190614478565b60405180910390f35b61065f6139db565b005b6106696141e0565b6040516106769190614478565b60405180910390f35b610687614206565b6001821015801561069b5750620186a08211155b6106da576040517f08c379a00000000000000000000000000000000000000000000000000000000081526004016106d190614a1d565b60405180910390fd5b600181101580156106ee5750620186a08111155b61072d576040517f08c379a000000000000000000000000000000000000000000000000000000000815260040161072490614a89565b60405180910390fd5b81601160000181905550806011600101819055505050565b600960009054906101000a900473ffffffffffffffffffffffffffffffffffffffff1681565b600760009054906101000a900473ffffffffffffffffffffffffffffffffffffffff1681565b600460009054906101000a900473ffffffffffffffffffffffffffffffffffffffff1681565b6107bf614206565b600182101580156107d35750620186a08211155b610812576040517f08c379a000000000000000000000000000000000000000000000000000000000815260040161080990614a1d565b60405180910390fd5b600181101580156108265750620186a08111155b610865576040517f08c379a000000000000000000000000000000000000000000000000000000000815260040161085c90614a89565b60405180910390fd5b81600f6000018190555080600f600101819055505050565b600f8060000154908060010154905082565b610897614206565b600560009054906101000a900473ffffffffffffffffffffffffffffffffffffffff1673ffffffffffffffffffffffffffffffffffffffff1663f2fde38b6108dd612cb0565b6040518263ffffffff1660e01b81526004016108f99190614478565b600060405180830381600087803b15801561091357600080fd5b505af1158015610927573d6000803e3d6000fd5b50505050565b610935614206565b600182101580156109495750620186a08211155b610988576040517f08c379a000000000000000000000000000000000000000000000000000000000815260040161097f90614a1d565b60405180910390fd5b6001811015801561099c5750620186a08111155b6109db576040517f08c379a00000000000000000000000000000000000000000000000000000000081526004016109d290614a89565b60405180910390fd5b81600d6000018190555080600d600101819055505050565b600b8060000154908060010154905082565b600260009054906101000a900473ffffffffffffffffffffffffffffffffffffffff1681565b610a33614206565b6000604051806102c0016040528060008152602001600081526020016000815260200160008152602001600081526020016000815260200160008152602001600081526020016000815260200160008152602001600081526020016000815260200160008152602001600081526020016000815260200160008152602001600081526020016000815260200160008152602001604051806080016040528060008152602001600081526020016000815260200160008152508152602001604051806080016040528060008152602001600081526020016000815260200160008152508152602001604051806080016040528060008152602001600081526020016000815260200160008152508152509050600a60009054906101000a900473ffffffffffffffffffffffffffffffffffffffff1673ffffffffffffffffffffffffffffffffffffffff1663e4fc6b6d6040518163ffffffff1660e01b8152600401600060405180830381600087803b158015610bae57600080fd5b505af1158015610bc2573d6000803e3d6000fd5b50505050600260009054906101000a900473ffffffffffffffffffffffffffffffffffffffff1673ffffffffffffffffffffffffffffffffffffffff166370a08231306040518263ffffffff1660e01b8152600401610c219190614478565b602060405180830381865afa158015610c3e573d6000803e3d6000fd5b505050506040513d601f19601f82011682018060405250810190610c629190614abe565b8160000181815250506064600a60149054906101000a900460ff1660ff168260000151610c8f9190614b1a565b610c999190614b8b565b81604001818152505080604001518160000151610cb69190614bbc565b8160200181815250506064601360000160009054906101000a900460ff1660ff168260200151610ce69190614b1a565b610cf09190614b8b565b8160600181815250506064601460000160009054906101000a900460ff1660ff168260400151610d209190614b1a565b610d2a9190614b8b565b8160a0018181525050606460148260a00151610d469190614b1a565b610d509190614b8b565b8160e00181815250506064601e8260a00151610d6c9190614b1a565b610d769190614b8b565b816101000181815250508061010001518160e001518260a00151610d9a9190614bbc565b610da49190614bbc565b81610120018181525050610dfa600660009054906101000a900473ffffffffffffffffffffffffffffffffffffffff16600b60405180604001604052908160008201548152602001600182015481525050612f1c565b816102600181905250610e4f600760009054906101000a900473ffffffffffffffffffffffffffffffffffffffff16600d60405180604001604052908160008201548152602001600182015481525050612f1c565b816102800181905250610ea4600860009054906101000a900473ffffffffffffffffffffffffffffffffffffffff16600f60405180604001604052908160008201548152602001600182015481525050612f1c565b816102a001819052506000816102a00151600001518261028001516000015183610260015160000151610ed79190614bf0565b610ee19190614bf0565b9050816060015181111561100f576000610f1c600660009054906101000a900473ffffffffffffffffffffffffffffffffffffffff16612b98565b90506000610f4b600760009054906101000a900473ffffffffffffffffffffffffffffffffffffffff16612b98565b90506000610f7a600860009054906101000a900473ffffffffffffffffffffffffffffffffffffffff16612b98565b90506000818385610f8b9190614bf0565b610f959190614bf0565b905080866060015185610fa89190614b1a565b610fb29190614b8b565b866101c001818152505080866060015184610fcd9190614b1a565b610fd79190614b8b565b8661020001818152505080866060015183610ff29190614b1a565b610ffc9190614b8b565b866102400181815250505050505061104c565b81610260015160000151826101c00181815250508161028001516000015182610200018181525050816102a0015160000151826102400181815250505b600360009054906101000a900473ffffffffffffffffffffffffffffffffffffffff1673ffffffffffffffffffffffffffffffffffffffff16632c4e722e6040518163ffffffff1660e01b81526004016020604051808303816000875af11580156110bb573d6000803e3d6000fd5b505050506040513d601f19601f820116820180604052508101906110df9190614abe565b8260e001516110ee9190614b8b565b82610260015160200151111561123357600360009054906101000a900473ffffffffffffffffffffffffffffffffffffffff1673ffffffffffffffffffffffffffffffffffffffff166340c10f1930600360009054906101000a900473ffffffffffffffffffffffffffffffffffffffff1673ffffffffffffffffffffffffffffffffffffffff16632c4e722e6040518163ffffffff1660e01b81526004016020604051808303816000875af11580156111ac573d6000803e3d6000fd5b505050506040513d601f19601f820116820180604052508101906111d09190614abe565b8560e001516111df9190614b8b565b6040518363ffffffff1660e01b81526004016111fc929190614c24565b600060405180830381600087803b15801561121657600080fd5b505af115801561122a573d6000803e3d6000fd5b505050506112cc565b600360009054906101000a900473ffffffffffffffffffffffffffffffffffffffff1673ffffffffffffffffffffffffffffffffffffffff166340c10f1930846102600151602001516040518363ffffffff1660e01b8152600401611299929190614c24565b600060405180830381600087803b1580156112b357600080fd5b505af11580156112c7573d6000803e3d6000fd5b505050505b600460009054906101000a900473ffffffffffffffffffffffffffffffffffffffff1673ffffffffffffffffffffffffffffffffffffffff16632c4e722e6040518163ffffffff1660e01b81526004016020604051808303816000875af115801561133b573d6000803e3d6000fd5b505050506040513d601f19601f8201168201806040525081019061135f9190614abe565b82610100015161136f9190614b8b565b8261028001516020015111156114b557600460009054906101000a900473ffffffffffffffffffffffffffffffffffffffff1673ffffffffffffffffffffffffffffffffffffffff166340c10f1930600460009054906101000a900473ffffffffffffffffffffffffffffffffffffffff1673ffffffffffffffffffffffffffffffffffffffff16632c4e722e6040518163ffffffff1660e01b81526004016020604051808303816000875af115801561142d573d6000803e3d6000fd5b505050506040513d601f19601f820116820180604052508101906114519190614abe565b8561010001516114619190614b8b565b6040518363ffffffff1660e01b815260040161147e929190614c24565b600060405180830381600087803b15801561149857600080fd5b505af11580156114ac573d6000803e3d6000fd5b5050505061154e565b600460009054906101000a900473ffffffffffffffffffffffffffffffffffffffff1673ffffffffffffffffffffffffffffffffffffffff166340c10f1930846102800151602001516040518363ffffffff1660e01b815260040161151b929190614c24565b600060405180830381600087803b15801561153557600080fd5b505af1158015611549573d6000803e3d6000fd5b505050505b600560009054906101000a900473ffffffffffffffffffffffffffffffffffffffff1673ffffffffffffffffffffffffffffffffffffffff16632c4e722e6040518163ffffffff1660e01b81526004016020604051808303816000875af11580156115bd573d6000803e3d6000fd5b505050506040513d601f19601f820116820180604052508101906115e19190614abe565b8261012001516115f19190614b8b565b826102a0015160200151111561173b57600560009054906101000a900473ffffffffffffffffffffffffffffffffffffffff1673ffffffffffffffffffffffffffffffffffffffff166340c10f1930600560009054906101000a900473ffffffffffffffffffffffffffffffffffffffff1673ffffffffffffffffffffffffffffffffffffffff16632c4e722e6040518163ffffffff1660e01b81526004016020604051808303816000875af11580156116af573d6000803e3d6000fd5b505050506040513d601f19601f820116820180604052508101906116d39190614abe565b856102a00151602001516116e79190614b8b565b6040518363ffffffff1660e01b8152600401611704929190614c24565b600060405180830381600087803b15801561171e57600080fd5b505af1158015611732573d6000803e3d6000fd5b505050506117d4565b600560009054906101000a900473ffffffffffffffffffffffffffffffffffffffff1673ffffffffffffffffffffffffffffffffffffffff166340c10f1930846102a00151602001516040518363ffffffff1660e01b81526004016117a1929190614c24565b600060405180830381600087803b1580156117bb57600080fd5b505af11580156117cf573d6000803e3d6000fd5b505050505b6000601360000160029054906101000a900460ff1660ff16111561225c576064601360000160029054906101000a900460ff1660ff1683602001516118199190614b1a565b6118239190614b8b565b8260800181815250506064601460000160029054906101000a900460ff1660ff1683604001516118539190614b1a565b61185d9190614b8b565b8260c0018181525050606460148360c001516118799190614b1a565b6118839190614b8b565b826101400181815250506064601e8360c001516118a09190614b1a565b6118aa9190614b8b565b826101600181815250508161016001518261014001518360c001516118cf9190614bbc565b6118d99190614bbc565b826101800181815250506000826102a0015160400151836102800151604001518461026001516040015161190d9190614bf0565b6119179190614bf0565b90506000620186a0601160000154836119309190614b1a565b61193a9190614b8b565b9050836080015181101561195357808460800181815250505b600360009054906101000a900473ffffffffffffffffffffffffffffffffffffffff1673ffffffffffffffffffffffffffffffffffffffff16632c4e722e6040518163ffffffff1660e01b81526004016020604051808303816000875af11580156119c2573d6000803e3d6000fd5b505050506040513d601f19601f820116820180604052508101906119e69190614abe565b8461014001516119f69190614b8b565b620186a060116001015486610260015160600151611a149190614b1a565b611a1e9190614b8b565b1115611b7c57600360009054906101000a900473ffffffffffffffffffffffffffffffffffffffff1673ffffffffffffffffffffffffffffffffffffffff166340c10f19600960009054906101000a900473ffffffffffffffffffffffffffffffffffffffff16600360009054906101000a900473ffffffffffffffffffffffffffffffffffffffff1673ffffffffffffffffffffffffffffffffffffffff16632c4e722e6040518163ffffffff1660e01b81526004016020604051808303816000875af1158015611af4573d6000803e3d6000fd5b505050506040513d601f19601f82011682018060405250810190611b189190614abe565b876101400151611b289190614b8b565b6040518363ffffffff1660e01b8152600401611b45929190614c24565b600060405180830381600087803b158015611b5f57600080fd5b505af1158015611b73573d6000803e3d6000fd5b50505050611c55565b600360009054906101000a900473ffffffffffffffffffffffffffffffffffffffff1673ffffffffffffffffffffffffffffffffffffffff166340c10f19600960009054906101000a900473ffffffffffffffffffffffffffffffffffffffff16620186a060116001015488610260015160600151611bfb9190614b1a565b611c059190614b8b565b6040518363ffffffff1660e01b8152600401611c22929190614c24565b600060405180830381600087803b158015611c3c57600080fd5b505af1158015611c50573d6000803e3d6000fd5b505050505b600460009054906101000a900473ffffffffffffffffffffffffffffffffffffffff1673ffffffffffffffffffffffffffffffffffffffff16632c4e722e6040518163ffffffff1660e01b81526004016020604051808303816000875af1158015611cc4573d6000803e3d6000fd5b505050506040513d601f19601f82011682018060405250810190611ce89190614abe565b846101600151611cf89190614b8b565b620186a060116001015486610280015160600151611d169190614b1a565b611d209190614b8b565b1115611e7e57600460009054906101000a900473ffffffffffffffffffffffffffffffffffffffff1673ffffffffffffffffffffffffffffffffffffffff166340c10f19600960009054906101000a900473ffffffffffffffffffffffffffffffffffffffff16600460009054906101000a900473ffffffffffffffffffffffffffffffffffffffff1673ffffffffffffffffffffffffffffffffffffffff16632c4e722e6040518163ffffffff1660e01b81526004016020604051808303816000875af1158015611df6573d6000803e3d6000fd5b505050506040513d601f19601f82011682018060405250810190611e1a9190614abe565b876101600151611e2a9190614b8b565b6040518363ffffffff1660e01b8152600401611e47929190614c24565b600060405180830381600087803b158015611e6157600080fd5b505af1158015611e75573d6000803e3d6000fd5b50505050611f57565b600460009054906101000a900473ffffffffffffffffffffffffffffffffffffffff1673ffffffffffffffffffffffffffffffffffffffff166340c10f19600960009054906101000a900473ffffffffffffffffffffffffffffffffffffffff16620186a060116001015488610280015160600151611efd9190614b1a565b611f079190614b8b565b6040518363ffffffff1660e01b8152600401611f24929190614c24565b600060405180830381600087803b158015611f3e57600080fd5b505af1158015611f52573d6000803e3d6000fd5b505050505b600560009054906101000a900473ffffffffffffffffffffffffffffffffffffffff1673ffffffffffffffffffffffffffffffffffffffff16632c4e722e6040518163ffffffff1660e01b81526004016020604051808303816000875af1158015611fc6573d6000803e3d6000fd5b505050506040513d601f19601f82011682018060405250810190611fea9190614abe565b846101800151611ffa9190614b8b565b620186a0601160010154866102a00151606001516120189190614b1a565b6120229190614b8b565b111561218057600560009054906101000a900473ffffffffffffffffffffffffffffffffffffffff1673ffffffffffffffffffffffffffffffffffffffff166340c10f19600960009054906101000a900473ffffffffffffffffffffffffffffffffffffffff16600560009054906101000a900473ffffffffffffffffffffffffffffffffffffffff1673ffffffffffffffffffffffffffffffffffffffff16632c4e722e6040518163ffffffff1660e01b81526004016020604051808303816000875af11580156120f8573d6000803e3d6000fd5b505050506040513d601f19601f8201168201806040525081019061211c9190614abe565b87610180015161212c9190614b8b565b6040518363ffffffff1660e01b8152600401612149929190614c24565b600060405180830381600087803b15801561216357600080fd5b505af1158015612177573d6000803e3d6000fd5b50505050612259565b600560009054906101000a900473ffffffffffffffffffffffffffffffffffffffff1673ffffffffffffffffffffffffffffffffffffffff166340c10f19600960009054906101000a900473ffffffffffffffffffffffffffffffffffffffff16620186a0601160010154886102a00151606001516121ff9190614b1a565b6122099190614b8b565b6040518363ffffffff1660e01b8152600401612226929190614c24565b600060405180830381600087803b15801561224057600080fd5b505af1158015612254573d6000803e3d6000fd5b505050505b50505b600360009054906101000a900473ffffffffffffffffffffffffffffffffffffffff1673ffffffffffffffffffffffffffffffffffffffff166370a08231306040518263ffffffff1660e01b81526004016122b79190614478565b602060405180830381865afa1580156122d4573d6000803e3d6000fd5b505050506040513d601f19601f820116820180604052508101906122f89190614abe565b826101a0018181525050600460009054906101000a900473ffffffffffffffffffffffffffffffffffffffff1673ffffffffffffffffffffffffffffffffffffffff166370a08231306040518263ffffffff1660e01b815260040161235d9190614478565b602060405180830381865afa15801561237a573d6000803e3d6000fd5b505050506040513d601f19601f8201168201806040525081019061239e9190614abe565b826101e0018181525050600560009054906101000a900473ffffffffffffffffffffffffffffffffffffffff1673ffffffffffffffffffffffffffffffffffffffff166370a08231306040518263ffffffff1660e01b81526004016124039190614478565b602060405180830381865afa158015612420573d6000803e3d6000fd5b505050506040513d601f19601f820116820180604052508101906124449190614abe565b82610220018181525050600660009054906101000a900473ffffffffffffffffffffffffffffffffffffffff1673ffffffffffffffffffffffffffffffffffffffff1663df6c39fb836101c00151846101a001516040518363ffffffff1660e01b81526004016124b59291906144a2565b600060405180830381600087803b1580156124cf57600080fd5b505af11580156124e3573d6000803e3d6000fd5b50505050600760009054906101000a900473ffffffffffffffffffffffffffffffffffffffff1673ffffffffffffffffffffffffffffffffffffffff1663df6c39fb836102000151846101e001516040518363ffffffff1660e01b815260040161254e9291906144a2565b600060405180830381600087803b15801561256857600080fd5b505af115801561257c573d6000803e3d6000fd5b50505050600860009054906101000a900473ffffffffffffffffffffffffffffffffffffffff1673ffffffffffffffffffffffffffffffffffffffff1663df6c39fb8361024001518461022001516040518363ffffffff1660e01b81526004016125e79291906144a2565b600060405180830381600087803b15801561260157600080fd5b505af1158015612615573d6000803e3d6000fd5b50505050600260009054906101000a900473ffffffffffffffffffffffffffffffffffffffff1673ffffffffffffffffffffffffffffffffffffffff1663a9059cbb600960009054906101000a900473ffffffffffffffffffffffffffffffffffffffff1684608001516040518363ffffffff1660e01b815260040161269c929190614c24565b6020604051808303816000875af11580156126bb573d6000803e3d6000fd5b505050506040513d601f19601f820116820180604052508101906126df9190614c85565b506000600260009054906101000a900473ffffffffffffffffffffffffffffffffffffffff1673ffffffffffffffffffffffffffffffffffffffff166370a08231306040518263ffffffff1660e01b815260040161273d9190614478565b602060405180830381865afa15801561275a573d6000803e3d6000fd5b505050506040513d601f19601f8201168201806040525081019061277e9190614abe565b11156128e357600260009054906101000a900473ffffffffffffffffffffffffffffffffffffffff1673ffffffffffffffffffffffffffffffffffffffff1663a9059cbb600a60009054906101000a900473ffffffffffffffffffffffffffffffffffffffff16600260009054906101000a900473ffffffffffffffffffffffffffffffffffffffff1673ffffffffffffffffffffffffffffffffffffffff166370a08231306040518263ffffffff1660e01b81526004016128409190614478565b602060405180830381865afa15801561285d573d6000803e3d6000fd5b505050506040513d601f19601f820116820180604052508101906128819190614abe565b6040518363ffffffff1660e01b815260040161289e929190614c24565b6020604051808303816000875af11580156128bd573d6000803e3d6000fd5b505050506040513d601f19601f820116820180604052508101906128e19190614c85565b505b5050565b6128ef614206565b80600960006101000a81548173ffffffffffffffffffffffffffffffffffffffff021916908373ffffffffffffffffffffffffffffffffffffffff16021790555050565b600d8060000154908060010154905082565b600a60149054906101000a900460ff1681565b612960614206565b61296a600061428d565b565b612974614206565b80600a60006101000a81548173ffffffffffffffffffffffffffffffffffffffff021916908373ffffffffffffffffffffffffffffffffffffffff16021790555050565b60138060000160009054906101000a900460ff16908060000160019054906101000a900460ff16908060000160029054906101000a900460ff16908060000160039054906101000a900460ff16908060000160049054906101000a900460ff16908060000160059054906101000a900460ff16908060000160069054906101000a900460ff16905087565b6000612a4d6142be565b90508073ffffffffffffffffffffffffffffffffffffffff16612a6e6137c8565b73ffffffffffffffffffffffffffffffffffffffff1614612ac657806040517f118cdaa7000000000000000000000000000000000000000000000000000000008152600401612abd9190614478565b60405180910390fd5b612acf8161428d565b50565b612ada614206565b60018210158015612aee5750620186a08211155b612b2d576040517f08c379a0000000000000000000000000000000000000000000000000000000008152600401612b2490614a1d565b60405180910390fd5b60018110158015612b415750620186a08111155b612b80576040517f08c379a0000000000000000000000000000000000000000000000000000000008152600401612b7790614a89565b60405180910390fd5b81600b6000018190555080600b600101819055505050565b6000808273ffffffffffffffffffffffffffffffffffffffff16635fcbd2856040518163ffffffff1660e01b8152600401602060405180830381865afa158015612be6573d6000803e3d6000fd5b505050506040513d601f19601f82011682018060405250810190612c0a9190614cc7565b9050600260009054906101000a900473ffffffffffffffffffffffffffffffffffffffff1673ffffffffffffffffffffffffffffffffffffffff166370a08231826040518263ffffffff1660e01b8152600401612c679190614478565b602060405180830381865afa158015612c84573d6000803e3d6000fd5b505050506040513d601f19601f82011682018060405250810190612ca89190614abe565b915050919050565b60008060009054906101000a900473ffffffffffffffffffffffffffffffffffffffff16905090565b60118060000154908060010154905082565b600360009054906101000a900473ffffffffffffffffffffffffffffffffffffffff1681565b612d19614206565b600760009054906101000a900473ffffffffffffffffffffffffffffffffffffffff1673ffffffffffffffffffffffffffffffffffffffff1663f2fde38b612d5f612cb0565b6040518263ffffffff1660e01b8152600401612d7b9190614478565b600060405180830381600087803b158015612d9557600080fd5b505af1158015612da9573d6000803e3d6000fd5b50505050565b612db7614206565b60648160a0015182608001518360600151846040015185602001518660000151612de19190614cf4565b612deb9190614cf4565b612df59190614cf4565b612dff9190614cf4565b612e099190614cf4565b60ff161115612e4d576040517f08c379a0000000000000000000000000000000000000000000000000000000008152600401612e4490614d75565b60405180910390fd5b80601460008201518160000160006101000a81548160ff021916908360ff16021790555060208201518160000160016101000a81548160ff021916908360ff16021790555060408201518160000160026101000a81548160ff021916908360ff16021790555060608201518160000160036101000a81548160ff021916908360ff16021790555060808201518160000160046101000a81548160ff021916908360ff16021790555060a08201518160000160056101000a81548160ff021916908360ff16021790555090505050565b612f2461438a565b60008373ffffffffffffffffffffffffffffffffffffffff1663817b1cd26040518163ffffffff1660e01b8152600401602060405180830381865afa158015612f71573d6000803e3d6000fd5b505050506040513d601f19601f82011682018060405250810190612f959190614abe565b905060008473ffffffffffffffffffffffffffffffffffffffff16635fcbd2856040518163ffffffff1660e01b8152600401602060405180830381865afa158015612fe4573d6000803e3d6000fd5b505050506040513d601f19601f820116820180604052508101906130089190614cc7565b905060008173ffffffffffffffffffffffffffffffffffffffff166318160ddd6040518163ffffffff1660e01b8152600401602060405180830381865afa158015613057573d6000803e3d6000fd5b505050506040513d601f19601f8201168201806040525081019061307b9190614abe565b905060008273ffffffffffffffffffffffffffffffffffffffff16630dfe16816040518163ffffffff1660e01b8152600401602060405180830381865afa1580156130ca573d6000803e3d6000fd5b505050506040513d601f19601f820116820180604052508101906130ee9190614cc7565b905060008373ffffffffffffffffffffffffffffffffffffffff1663d21220a76040518163ffffffff1660e01b8152600401602060405180830381865afa15801561313d573d6000803e3d6000fd5b505050506040513d601f19601f820116820180604052508101906131619190614cc7565b9050600080600260009054906101000a900473ffffffffffffffffffffffffffffffffffffffff1673ffffffffffffffffffffffffffffffffffffffff168473ffffffffffffffffffffffffffffffffffffffff16146131c25782846131c5565b83835b91509150600260009054906101000a900473ffffffffffffffffffffffffffffffffffffffff1673ffffffffffffffffffffffffffffffffffffffff168273ffffffffffffffffffffffffffffffffffffffff1614613259576040517f08c379a000000000000000000000000000000000000000000000000000000000815260040161325090614de1565b60405180910390fd5b60008273ffffffffffffffffffffffffffffffffffffffff166370a08231886040518263ffffffff1660e01b81526004016132949190614478565b602060405180830381865afa1580156132b1573d6000803e3d6000fd5b505050506040513d601f19601f820116820180604052508101906132d59190614abe565b905060008273ffffffffffffffffffffffffffffffffffffffff166370a08231896040518263ffffffff1660e01b81526004016133129190614478565b602060405180830381865afa15801561332f573d6000803e3d6000fd5b505050506040513d601f19601f820116820180604052508101906133539190614abe565b9050600087838b6133649190614b1a565b61336e9190614b8b565b9050600088838c61337f9190614b1a565b6133899190614b8b565b90506040518060800160405280620186a08f60000151856133aa9190614b1a565b6133b49190614b8b565b8152602001620186a08f60200151846133cd9190614b1a565b6133d79190614b8b565b8152602001838152602001828152509b50505050505050505050505092915050565b600a60009054906101000a900473ffffffffffffffffffffffffffffffffffffffff1681565b620186a081565b61342e614206565b60648160c001518260a001518360800151846060015185604001518660200151876000015161345d9190614cf4565b6134679190614cf4565b6134719190614cf4565b61347b9190614cf4565b6134859190614cf4565b61348f9190614cf4565b60ff1611156134d3576040517f08c379a00000000000000000000000000000000000000000000000000000000081526004016134ca90614d75565b60405180910390fd5b80601360008201518160000160006101000a81548160ff021916908360ff16021790555060208201518160000160016101000a81548160ff021916908360ff16021790555060408201518160000160026101000a81548160ff021916908360ff16021790555060608201518160000160036101000a81548160ff021916908360ff16021790555060808201518160000160046101000a81548160ff021916908360ff16021790555060a08201518160000160056101000a81548160ff021916908360ff16021790555060c08201518160000160066101000a81548160ff021916908360ff16021790555090505050565b600560009054906101000a900473ffffffffffffffffffffffffffffffffffffffff1681565b6135f1614206565b600860009054906101000a900473ffffffffffffffffffffffffffffffffffffffff1673ffffffffffffffffffffffffffffffffffffffff1663f2fde38b613637612cb0565b6040518263ffffffff1660e01b81526004016136539190614478565b600060405180830381600087803b15801561366d57600080fd5b505af1158015613681573d6000803e3d6000fd5b50505050565b61368f614206565b600660009054906101000a900473ffffffffffffffffffffffffffffffffffffffff1673ffffffffffffffffffffffffffffffffffffffff1663f2fde38b6136d5612cb0565b6040518263ffffffff1660e01b81526004016136f19190614478565b600060405180830381600087803b15801561370b57600080fd5b505af115801561371f573d6000803e3d6000fd5b50505050565b600181565b613732614206565b600460009054906101000a900473ffffffffffffffffffffffffffffffffffffffff1673ffffffffffffffffffffffffffffffffffffffff1663f2fde38b613778612cb0565b6040518263ffffffff1660e01b81526004016137949190614478565b600060405180830381600087803b1580156137ae57600080fd5b505af11580156137c2573d6000803e3d6000fd5b50505050565b6000600160009054906101000a900473ffffffffffffffffffffffffffffffffffffffff16905090565b60148060000160009054906101000a900460ff16908060000160019054906101000a900460ff16908060000160029054906101000a900460ff16908060000160039054906101000a900460ff16908060000160049054906101000a900460ff16908060000160059054906101000a900460ff16905086565b613872614206565b600360009054906101000a900473ffffffffffffffffffffffffffffffffffffffff1673ffffffffffffffffffffffffffffffffffffffff1663f2fde38b6138b8612cb0565b6040518263ffffffff1660e01b81526004016138d49190614478565b600060405180830381600087803b1580156138ee57600080fd5b505af1158015613902573d6000803e3d6000fd5b50505050565b613910614206565b80600160006101000a81548173ffffffffffffffffffffffffffffffffffffffff021916908373ffffffffffffffffffffffffffffffffffffffff1602179055508073ffffffffffffffffffffffffffffffffffffffff16613970612cb0565b73ffffffffffffffffffffffffffffffffffffffff167f38d16b8cac22d99fc7c124b9cd0de2d3fa1faef420bfe791d8c362d765e2270060405160405180910390a350565b600860009054906101000a900473ffffffffffffffffffffffffffffffffffffffff1681565b6139e3614206565b600260009054906101000a900473ffffffffffffffffffffffffffffffffffffffff1673ffffffffffffffffffffffffffffffffffffffff1663095ea7b3600360009054906101000a900473ffffffffffffffffffffffffffffffffffffffff167fffffffffffffffffffffffffffffffffffffffffffffffffffffffffffffffff6040518363ffffffff1660e01b8152600401613a82929190614c24565b6020604051808303816000875af1158015613aa1573d6000803e3d6000fd5b505050506040513d601f19601f82011682018060405250810190613ac59190614c85565b50600260009054906101000a900473ffffffffffffffffffffffffffffffffffffffff1673ffffffffffffffffffffffffffffffffffffffff1663095ea7b3600460009054906101000a900473ffffffffffffffffffffffffffffffffffffffff167fffffffffffffffffffffffffffffffffffffffffffffffffffffffffffffffff6040518363ffffffff1660e01b8152600401613b65929190614c24565b6020604051808303816000875af1158015613b84573d6000803e3d6000fd5b505050506040513d601f19601f82011682018060405250810190613ba89190614c85565b50600260009054906101000a900473ffffffffffffffffffffffffffffffffffffffff1673ffffffffffffffffffffffffffffffffffffffff1663095ea7b3600560009054906101000a900473ffffffffffffffffffffffffffffffffffffffff167fffffffffffffffffffffffffffffffffffffffffffffffffffffffffffffffff6040518363ffffffff1660e01b8152600401613c48929190614c24565b6020604051808303816000875af1158015613c67573d6000803e3d6000fd5b505050506040513d601f19601f82011682018060405250810190613c8b9190614c85565b50600360009054906101000a900473ffffffffffffffffffffffffffffffffffffffff1673ffffffffffffffffffffffffffffffffffffffff1663095ea7b3600660009054906101000a900473ffffffffffffffffffffffffffffffffffffffff167fffffffffffffffffffffffffffffffffffffffffffffffffffffffffffffffff6040518363ffffffff1660e01b8152600401613d2b929190614c24565b6020604051808303816000875af1158015613d4a573d6000803e3d6000fd5b505050506040513d601f19601f82011682018060405250810190613d6e9190614c85565b50600260009054906101000a900473ffffffffffffffffffffffffffffffffffffffff1673ffffffffffffffffffffffffffffffffffffffff1663095ea7b3600660009054906101000a900473ffffffffffffffffffffffffffffffffffffffff167fffffffffffffffffffffffffffffffffffffffffffffffffffffffffffffffff6040518363ffffffff1660e01b8152600401613e0e929190614c24565b6020604051808303816000875af1158015613e2d573d6000803e3d6000fd5b505050506040513d601f19601f82011682018060405250810190613e519190614c85565b50600460009054906101000a900473ffffffffffffffffffffffffffffffffffffffff1673ffffffffffffffffffffffffffffffffffffffff1663095ea7b3600760009054906101000a900473ffffffffffffffffffffffffffffffffffffffff167fffffffffffffffffffffffffffffffffffffffffffffffffffffffffffffffff6040518363ffffffff1660e01b8152600401613ef1929190614c24565b6020604051808303816000875af1158015613f10573d6000803e3d6000fd5b505050506040513d601f19601f82011682018060405250810190613f349190614c85565b50600260009054906101000a900473ffffffffffffffffffffffffffffffffffffffff1673ffffffffffffffffffffffffffffffffffffffff1663095ea7b3600760009054906101000a900473ffffffffffffffffffffffffffffffffffffffff167fffffffffffffffffffffffffffffffffffffffffffffffffffffffffffffffff6040518363ffffffff1660e01b8152600401613fd4929190614c24565b6020604051808303816000875af1158015613ff3573d6000803e3d6000fd5b505050506040513d601f19601f820116820180604052508101906140179190614c85565b50600560009054906101000a900473ffffffffffffffffffffffffffffffffffffffff1673ffffffffffffffffffffffffffffffffffffffff1663095ea7b3600860009054906101000a900473ffffffffffffffffffffffffffffffffffffffff167fffffffffffffffffffffffffffffffffffffffffffffffffffffffffffffffff6040518363ffffffff1660e01b81526004016140b7929190614c24565b6020604051808303816000875af11580156140d6573d6000803e3d6000fd5b505050506040513d601f19601f820116820180604052508101906140fa9190614c85565b50600260009054906101000a900473ffffffffffffffffffffffffffffffffffffffff1673ffffffffffffffffffffffffffffffffffffffff1663095ea7b3600860009054906101000a900473ffffffffffffffffffffffffffffffffffffffff167fffffffffffffffffffffffffffffffffffffffffffffffffffffffffffffffff6040518363ffffffff1660e01b815260040161419a929190614c24565b6020604051808303816000875af11580156141b9573d6000803e3d6000fd5b505050506040513d601f19601f820116820180604052508101906141dd9190614c85565b50565b600660009054906101000a900473ffffffffffffffffffffffffffffffffffffffff1681565b61420e6142be565b73ffffffffffffffffffffffffffffffffffffffff1661422c612cb0565b73ffffffffffffffffffffffffffffffffffffffff161461428b5761424f6142be565b6040517f118cdaa70000000000000000000000000000000000000000000000000000000081526004016142829190614478565b60405180910390fd5b565b600160006101000a81549073ffffffffffffffffffffffffffffffffffffffff02191690556142bb816142c6565b50565b600033905090565b60008060009054906101000a900473ffffffffffffffffffffffffffffffffffffffff169050816000806101000a81548173ffffffffffffffffffffffffffffffffffffffff021916908373ffffffffffffffffffffffffffffffffffffffff1602179055508173ffffffffffffffffffffffffffffffffffffffff168173ffffffffffffffffffffffffffffffffffffffff167f8be0079c531659141344cd1fd0a4f28419497f9722a3daafe3b4186f6b6457e060405160405180910390a35050565b6040518060800160405280600081526020016000815260200160008152602001600081525090565b6000604051905090565b600080fd5b6000819050919050565b6143d4816143c1565b81146143df57600080fd5b50565b6000813590506143f1816143cb565b92915050565b6000806040838503121561440e5761440d6143bc565b5b600061441c858286016143e2565b925050602061442d858286016143e2565b9150509250929050565b600073ffffffffffffffffffffffffffffffffffffffff82169050919050565b600061446282614437565b9050919050565b61447281614457565b82525050565b600060208201905061448d6000830184614469565b92915050565b61449c816143c1565b82525050565b60006040820190506144b76000830185614493565b6144c46020830184614493565b9392505050565b6144d481614457565b81146144df57600080fd5b50565b6000813590506144f1816144cb565b92915050565b60006020828403121561450d5761450c6143bc565b5b600061451b848285016144e2565b91505092915050565b600060ff82169050919050565b61453a81614524565b82525050565b60006020820190506145556000830184614531565b92915050565b600060e082019050614570600083018a614531565b61457d6020830189614531565b61458a6040830188614531565b6145976060830187614531565b6145a46080830186614531565b6145b160a0830185614531565b6145be60c0830184614531565b98975050505050505050565b60006020820190506145df6000830184614493565b92915050565b600080fd5b6000601f19601f8301169050919050565b7f4e487b7100000000000000000000000000000000000000000000000000000000600052604160045260246000fd5b614633826145ea565b810181811067ffffffffffffffff82111715614652576146516145fb565b5b80604052505050565b60006146656143b2565b9050614671828261462a565b919050565b61467f81614524565b811461468a57600080fd5b50565b60008135905061469c81614676565b92915050565b600060c082840312156146b8576146b76145e5565b5b6146c260c061465b565b905060006146d28482850161468d565b60008301525060206146e68482850161468d565b60208301525060406146fa8482850161468d565b604083015250606061470e8482850161468d565b60608301525060806147228482850161468d565b60808301525060a06147368482850161468d565b60a08301525092915050565b600060c08284031215614758576147576143bc565b5b6000614766848285016146a2565b91505092915050565b600060408284031215614785576147846145e5565b5b61478f604061465b565b9050600061479f848285016143e2565b60008301525060206147b3848285016143e2565b60208301525092915050565b600080606083850312156147d6576147d56143bc565b5b60006147e4858286016144e2565b92505060206147f58582860161476f565b9150509250929050565b614808816143c1565b82525050565b60808201600082015161482460008501826147ff565b50602082015161483760208501826147ff565b50604082015161484a60408501826147ff565b50606082015161485d60608501826147ff565b50505050565b6000608082019050614878600083018461480e565b92915050565b600060e08284031215614894576148936145e5565b5b61489e60e061465b565b905060006148ae8482850161468d565b60008301525060206148c28482850161468d565b60208301525060406148d68482850161468d565b60408301525060606148ea8482850161468d565b60608301525060806148fe8482850161468d565b60808301525060a06149128482850161468d565b60a08301525060c06149268482850161468d565b60c08301525092915050565b600060e08284031215614948576149476143bc565b5b60006149568482850161487e565b91505092915050565b600060c0820190506149746000830189614531565b6149816020830188614531565b61498e6040830187614531565b61499b6060830186614531565b6149a86080830185614531565b6149b560a0830184614531565b979650505050505050565b600082825260208201905092915050565b7f494e56414c49445f4c44545f5241544500000000000000000000000000000000600082015250565b6000614a076010836149c0565b9150614a12826149d1565b602082019050919050565b60006020820190508181036000830152614a36816149fa565b9050919050565b7f494e56414c49445f54425f524154450000000000000000000000000000000000600082015250565b6000614a73600f836149c0565b9150614a7e82614a3d565b602082019050919050565b60006020820190508181036000830152614aa281614a66565b9050919050565b600081519050614ab8816143cb565b92915050565b600060208284031215614ad457614ad36143bc565b5b6000614ae284828501614aa9565b91505092915050565b7f4e487b7100000000000000000000000000000000000000000000000000000000600052601160045260246000fd5b6000614b25826143c1565b9150614b30836143c1565b9250828202614b3e816143c1565b91508282048414831517614b5557614b54614aeb565b5b5092915050565b7f4e487b7100000000000000000000000000000000000000000000000000000000600052601260045260246000fd5b6000614b96826143c1565b9150614ba1836143c1565b925082614bb157614bb0614b5c565b5b828204905092915050565b6000614bc7826143c1565b9150614bd2836143c1565b9250828203905081811115614bea57614be9614aeb565b5b92915050565b6000614bfb826143c1565b9150614c06836143c1565b9250828201905080821115614c1e57614c1d614aeb565b5b92915050565b6000604082019050614c396000830185614469565b614c466020830184614493565b9392505050565b60008115159050919050565b614c6281614c4d565b8114614c6d57600080fd5b50565b600081519050614c7f81614c59565b92915050565b600060208284031215614c9b57614c9a6143bc565b5b6000614ca984828501614c70565b91505092915050565b600081519050614cc1816144cb565b92915050565b600060208284031215614cdd57614cdc6143bc565b5b6000614ceb84828501614cb2565b91505092915050565b6000614cff82614524565b9150614d0a83614524565b9250828201905060ff811115614d2357614d22614aeb565b5b92915050565b7f494e56414c49445f53504c495400000000000000000000000000000000000000600082015250565b6000614d5f600d836149c0565b9150614d6a82614d29565b602082019050919050565b60006020820190508181036000830152614d8e81614d52565b9050919050565b7f494e56414c49445f544f4b454e00000000000000000000000000000000000000600082015250565b6000614dcb600d836149c0565b9150614dd682614d95565b602082019050919050565b60006020820190508181036000830152614dfa81614dbe565b905091905056fea264697066735822122013077f644cb5898fb6f4a24ebd31b405a6bf7a5736781fd21b095b0d890e738864736f6c63430008180033",
  "linkReferences": {},
  "deployedLinkReferences": {}
}