{
  "_format": "hh-sol-artifact-1",
  "contractName": "StakingSplitter",
  "sourceName": "contracts/StakingSplitter.sol",
  "abi": [
    {
      "inputs": [
        {
          "internalType": "address",
          "name": "_ldt",
          "type": "address"
        },
        {
          "internalType": "address",
          "name": "_tbb",
          "type": "address"
        },
        {
          "internalType": "address",
          "name": "_tbs",
          "type": "address"
        },
        {
          "internalType": "address",
          "name": "_tbg",
          "type": "address"
        },
        {
          "internalType": "address[]",
          "name": "_stakers",
          "type": "address[]"
        }
      ],
      "stateMutability": "nonpayable",
      "type": "constructor"
    },
    {
      "inputs": [
        {
          "internalType": "address",
          "name": "owner",
          "type": "address"
        }
      ],
      "name": "OwnableInvalidOwner",
      "type": "error"
    },
    {
      "inputs": [
        {
          "internalType": "address",
          "name": "account",
          "type": "address"
        }
      ],
      "name": "OwnableUnauthorizedAccount",
      "type": "error"
    },
    {
      "anonymous": false,
      "inputs": [
        {
          "indexed": true,
          "internalType": "address",
          "name": "previousOwner",
          "type": "address"
        },
        {
          "indexed": true,
          "internalType": "address",
          "name": "newOwner",
          "type": "address"
        }
      ],
      "name": "OwnershipTransferStarted",
      "type": "event"
    },
    {
      "anonymous": false,
      "inputs": [
        {
          "indexed": true,
          "internalType": "address",
          "name": "previousOwner",
          "type": "address"
        },
        {
          "indexed": true,
          "internalType": "address",
          "name": "newOwner",
          "type": "address"
        }
      ],
      "name": "OwnershipTransferred",
      "type": "event"
    },
    {
      "inputs": [],
      "name": "MAX_RATE",
      "outputs": [
        {
          "internalType": "uint256",
          "name": "",
          "type": "uint256"
        }
      ],
      "stateMutability": "view",
      "type": "function"
    },
    {
      "inputs": [],
      "name": "MIN_RATE",
      "outputs": [
        {
          "internalType": "uint256",
          "name": "",
          "type": "uint256"
        }
      ],
      "stateMutability": "view",
      "type": "function"
    },
    {
      "inputs": [],
      "name": "acceptOwnership",
      "outputs": [],
      "stateMutability": "nonpayable",
      "type": "function"
    },
    {
      "inputs": [
        {
          "internalType": "uint256",
          "name": "_ldt",
          "type": "uint256"
        },
        {
          "internalType": "uint256",
          "name": "_tb",
          "type": "uint256"
        }
      ],
      "name": "calculate",
      "outputs": [
        {
          "components": [
            {
              "components": [
                {
                  "components": [
                    {
                      "internalType": "uint256",
                      "name": "ldt",
                      "type": "uint256"
                    },
                    {
                      "internalType": "uint256",
                      "name": "tb",
                      "type": "uint256"
                    },
                    {
                      "internalType": "uint256",
                      "name": "ldtLiquidity",
                      "type": "uint256"
                    },
                    {
                      "internalType": "uint256",
                      "name": "tbLiquidity",
                      "type": "uint256"
                    }
                  ],
                  "internalType": "struct RewardsLibrary.Reward",
                  "name": "liquidity",
                  "type": "tuple"
                },
                {
                  "internalType": "uint256",
                  "name": "ldt",
                  "type": "uint256"
                },
                {
                  "internalType": "uint256",
                  "name": "tb",
                  "type": "uint256"
                }
              ],
              "internalType": "struct RewardsLibrary.Farm",
              "name": "tbb",
              "type": "tuple"
            },
            {
              "components": [
                {
                  "components": [
                    {
                      "internalType": "uint256",
                      "name": "ldt",
                      "type": "uint256"
                    },
                    {
                      "internalType": "uint256",
                      "name": "tb",
                      "type": "uint256"
                    },
                    {
                      "internalType": "uint256",
                      "name": "ldtLiquidity",
                      "type": "uint256"
                    },
                    {
                      "internalType": "uint256",
                      "name": "tbLiquidity",
                      "type": "uint256"
                    }
                  ],
                  "internalType": "struct RewardsLibrary.Reward",
                  "name": "liquidity",
                  "type": "tuple"
                },
                {
                  "internalType": "uint256",
                  "name": "ldt",
                  "type": "uint256"
                },
                {
                  "internalType": "uint256",
                  "name": "tb",
                  "type": "uint256"
                }
              ],
              "internalType": "struct RewardsLibrary.Farm",
              "name": "tbs",
              "type": "tuple"
            },
            {
              "components": [
                {
                  "components": [
                    {
                      "internalType": "uint256",
                      "name": "ldt",
                      "type": "uint256"
                    },
                    {
                      "internalType": "uint256",
                      "name": "tb",
                      "type": "uint256"
                    },
                    {
                      "internalType": "uint256",
                      "name": "ldtLiquidity",
                      "type": "uint256"
                    },
                    {
                      "internalType": "uint256",
                      "name": "tbLiquidity",
                      "type": "uint256"
                    }
                  ],
                  "internalType": "struct RewardsLibrary.Reward",
                  "name": "liquidity",
                  "type": "tuple"
                },
                {
                  "internalType": "uint256",
                  "name": "ldt",
                  "type": "uint256"
                },
                {
                  "internalType": "uint256",
                  "name": "tb",
                  "type": "uint256"
                }
              ],
              "internalType": "struct RewardsLibrary.Farm",
              "name": "tbg",
              "type": "tuple"
            }
          ],
          "internalType": "struct RewardsLibrary.RewardsAmounts",
          "name": "rewards",
          "type": "tuple"
        }
      ],
      "stateMutability": "view",
      "type": "function"
    },
    {
      "inputs": [],
      "name": "ldt",
      "outputs": [
        {
          "internalType": "address",
          "name": "",
          "type": "address"
        }
      ],
      "stateMutability": "view",
      "type": "function"
    },
    {
      "inputs": [],
      "name": "owner",
      "outputs": [
        {
          "internalType": "address",
          "name": "",
          "type": "address"
        }
      ],
      "stateMutability": "view",
      "type": "function"
    },
    {
      "inputs": [],
      "name": "pendingOwner",
      "outputs": [
        {
          "internalType": "address",
          "name": "",
          "type": "address"
        }
      ],
      "stateMutability": "view",
      "type": "function"
    },
    {
      "inputs": [],
      "name": "renounceOwnership",
      "outputs": [],
      "stateMutability": "nonpayable",
      "type": "function"
    },
    {
      "inputs": [
        {
          "components": [
            {
              "internalType": "uint256",
              "name": "ldt",
              "type": "uint256"
            },
            {
              "internalType": "uint256",
              "name": "tb",
              "type": "uint256"
            }
          ],
          "internalType": "struct RewardsLibrary.RewardRate",
          "name": "_tbbRewardRate",
          "type": "tuple"
        }
      ],
      "name": "setTbbRewardRate",
      "outputs": [],
      "stateMutability": "nonpayable",
      "type": "function"
    },
    {
      "inputs": [
        {
          "components": [
            {
              "internalType": "uint256",
              "name": "ldt",
              "type": "uint256"
            },
            {
              "internalType": "uint256",
              "name": "tb",
              "type": "uint256"
            }
          ],
          "internalType": "struct RewardsLibrary.RewardRate",
          "name": "_tbgRewardRate",
          "type": "tuple"
        }
      ],
      "name": "setTbgRewardRate",
      "outputs": [],
      "stateMutability": "nonpayable",
      "type": "function"
    },
    {
      "inputs": [
        {
          "components": [
            {
              "internalType": "uint256",
              "name": "ldt",
              "type": "uint256"
            },
            {
              "internalType": "uint256",
              "name": "tb",
              "type": "uint256"
            }
          ],
          "internalType": "struct RewardsLibrary.RewardRate",
          "name": "_tbsRewardRate",
          "type": "tuple"
        }
      ],
      "name": "setTbsRewardRate",
      "outputs": [],
      "stateMutability": "nonpayable",
      "type": "function"
    },
    {
      "inputs": [
        {
          "internalType": "uint256",
          "name": "",
          "type": "uint256"
        }
      ],
      "name": "stakers",
      "outputs": [
        {
          "internalType": "address",
          "name": "",
          "type": "address"
        }
      ],
      "stateMutability": "view",
      "type": "function"
    },
    {
      "inputs": [],
      "name": "tbb",
      "outputs": [
        {
          "internalType": "address",
          "name": "",
          "type": "address"
        }
      ],
      "stateMutability": "view",
      "type": "function"
    },
    {
      "inputs": [],
      "name": "tbbRewardRate",
      "outputs": [
        {
          "internalType": "uint256",
          "name": "ldt",
          "type": "uint256"
        },
        {
          "internalType": "uint256",
          "name": "tb",
          "type": "uint256"
        }
      ],
      "stateMutability": "view",
      "type": "function"
    },
    {
      "inputs": [],
      "name": "tbg",
      "outputs": [
        {
          "internalType": "address",
          "name": "",
          "type": "address"
        }
      ],
      "stateMutability": "view",
      "type": "function"
    },
    {
      "inputs": [],
      "name": "tbgRewardRate",
      "outputs": [
        {
          "internalType": "uint256",
          "name": "ldt",
          "type": "uint256"
        },
        {
          "internalType": "uint256",
          "name": "tb",
          "type": "uint256"
        }
      ],
      "stateMutability": "view",
      "type": "function"
    },
    {
      "inputs": [],
      "name": "tbs",
      "outputs": [
        {
          "internalType": "address",
          "name": "",
          "type": "address"
        }
      ],
      "stateMutability": "view",
      "type": "function"
    },
    {
      "inputs": [],
      "name": "tbsRewardRate",
      "outputs": [
        {
          "internalType": "uint256",
          "name": "ldt",
          "type": "uint256"
        },
        {
          "internalType": "uint256",
          "name": "tb",
          "type": "uint256"
        }
      ],
      "stateMutability": "view",
      "type": "function"
    },
    {
      "inputs": [
        {
          "internalType": "address",
          "name": "newOwner",
          "type": "address"
        }
      ],
      "name": "transferOwnership",
      "outputs": [],
      "stateMutability": "nonpayable",
      "type": "function"
    }
  ],
  "bytecode": "0x6080604052604051806040016040528060c8815260200160c881525060076000820151816000015560208201518160010155505060405180604001604052806101f481526020016101f481525060096000820151816000015560208201518160010155505060405180604001604052806103e881526020016103e8815250600b60008201518160000155602082015181600101555050348015620000a257600080fd5b5060405162001f6838038062001f688339818101604052810190620000c8919062000611565b33600073ffffffffffffffffffffffffffffffffffffffff168173ffffffffffffffffffffffffffffffffffffffff16036200013e5760006040517f1e4fbdf7000000000000000000000000000000000000000000000000000000008152600401620001359190620006c9565b60405180910390fd5b6200014f816200027860201b60201c565b5084600260006101000a81548173ffffffffffffffffffffffffffffffffffffffff021916908373ffffffffffffffffffffffffffffffffffffffff16021790555083600360006101000a81548173ffffffffffffffffffffffffffffffffffffffff021916908373ffffffffffffffffffffffffffffffffffffffff16021790555082600460006101000a81548173ffffffffffffffffffffffffffffffffffffffff021916908373ffffffffffffffffffffffffffffffffffffffff16021790555081600560006101000a81548173ffffffffffffffffffffffffffffffffffffffff021916908373ffffffffffffffffffffffffffffffffffffffff16021790555080600690805190602001906200026c92919062000375565b505050505050620006e6565b600160006101000a81549073ffffffffffffffffffffffffffffffffffffffff0219169055620002ae81620002b160201b60201c565b50565b60008060009054906101000a900473ffffffffffffffffffffffffffffffffffffffff169050816000806101000a81548173ffffffffffffffffffffffffffffffffffffffff021916908373ffffffffffffffffffffffffffffffffffffffff1602179055508173ffffffffffffffffffffffffffffffffffffffff168173ffffffffffffffffffffffffffffffffffffffff167f8be0079c531659141344cd1fd0a4f28419497f9722a3daafe3b4186f6b6457e060405160405180910390a35050565b828054828255906000526020600020908101928215620003f1579160200282015b82811115620003f05782518260006101000a81548173ffffffffffffffffffffffffffffffffffffffff021916908373ffffffffffffffffffffffffffffffffffffffff1602179055509160200191906001019062000396565b5b50905062000400919062000404565b5090565b5b808211156200041f57600081600090555060010162000405565b5090565b6000604051905090565b600080fd5b600080fd5b600073ffffffffffffffffffffffffffffffffffffffff82169050919050565b6000620004648262000437565b9050919050565b620004768162000457565b81146200048257600080fd5b50565b60008151905062000496816200046b565b92915050565b600080fd5b6000601f19601f8301169050919050565b7f4e487b7100000000000000000000000000000000000000000000000000000000600052604160045260246000fd5b620004ec82620004a1565b810181811067ffffffffffffffff821117156200050e576200050d620004b2565b5b80604052505050565b60006200052362000423565b9050620005318282620004e1565b919050565b600067ffffffffffffffff821115620005545762000553620004b2565b5b602082029050602081019050919050565b600080fd5b6000620005816200057b8462000536565b62000517565b90508083825260208201905060208402830185811115620005a757620005a662000565565b5b835b81811015620005d45780620005bf888262000485565b845260208401935050602081019050620005a9565b5050509392505050565b600082601f830112620005f657620005f56200049c565b5b8151620006088482602086016200056a565b91505092915050565b600080600080600060a0868803121562000630576200062f6200042d565b5b6000620006408882890162000485565b9550506020620006538882890162000485565b9450506040620006668882890162000485565b9350506060620006798882890162000485565b925050608086015167ffffffffffffffff8111156200069d576200069c62000432565b5b620006ab88828901620005de565b9150509295509295909350565b620006c38162000457565b82525050565b6000602082019050620006e06000830184620006b8565b92915050565b61187280620006f66000396000f3fe608060405234801561001057600080fd5b50600436106101215760003560e01c80638dfa4363116100ad578063d819bfef11610071578063d819bfef146102b3578063e30c3978146102d1578063eb607586146102ef578063f2fde38b1461030b578063fd5e6dd11461032757610121565b80638dfa43631461020f578063903bf98b1461023f578063a45667f41461025d578063b7f7de1614610279578063c24dbebd1461029557610121565b806370a53926116100f457806370a53926146101a0578063715018a6146101bf57806379ba5097146101c95780637dad9115146101d35780638da5cb5b146101f157610121565b80632c2465011461012657806338cd6c0f146101445780634eecf1fd1461016357806350c2161b14610182575b600080fd5b61012e610357565b60405161013b9190611305565b60405180910390f35b61014c61037d565b60405161015a929190611339565b60405180910390f35b61016b61038f565b604051610179929190611339565b60405180910390f35b61018a6103a1565b6040516101979190611305565b60405180910390f35b6101a86103c7565b6040516101b6929190611339565b60405180910390f35b6101c76103d9565b005b6101d16103ed565b005b6101db61047c565b6040516101e89190611305565b60405180910390f35b6101f96104a2565b6040516102069190611305565b60405180910390f35b6102296004803603810190610224919061139d565b6104cb565b60405161023691906114c7565b60405180910390f35b610247610e05565b6040516102549190611305565b60405180910390f35b610277600480360381019061027291906115c4565b610e2b565b005b610293600480360381019061028e91906115c4565b610e50565b005b61029d610e75565b6040516102aa91906115f1565b60405180910390f35b6102bb610e7c565b6040516102c891906115f1565b60405180910390f35b6102d9610e81565b6040516102e69190611305565b60405180910390f35b610309600480360381019061030491906115c4565b610eab565b005b61032560048036038101906103209190611638565b610ed0565b005b610341600480360381019061033c9190611665565b610f7d565b60405161034e9190611305565b60405180910390f35b600360009054906101000a900473ffffffffffffffffffffffffffffffffffffffff1681565b600b8060000154908060010154905082565b60078060000154908060010154905082565b600260009054906101000a900473ffffffffffffffffffffffffffffffffffffffff1681565b60098060000154908060010154905082565b6103e1610fbc565b6103eb6000611043565b565b60006103f7611074565b90508073ffffffffffffffffffffffffffffffffffffffff16610418610e81565b73ffffffffffffffffffffffffffffffffffffffff161461047057806040517f118cdaa70000000000000000000000000000000000000000000000000000000081526004016104679190611305565b60405180910390fd5b61047981611043565b50565b600560009054906101000a900473ffffffffffffffffffffffffffffffffffffffff1681565b60008060009054906101000a900473ffffffffffffffffffffffffffffffffffffffff16905090565b6104d3611242565b600060646014846104e491906116c1565b6104ee9190611732565b905060006064601e8561050191906116c1565b61050b9190611732565b9050600081838661051c9190611763565b6105269190611763565b905061062260066000815481106105405761053f611797565b5b9060005260206000200160009054906101000a900473ffffffffffffffffffffffffffffffffffffffff16600360009054906101000a900473ffffffffffffffffffffffffffffffffffffffff1673ffffffffffffffffffffffffffffffffffffffff16632c4e722e6040518163ffffffff1660e01b8152600401602060405180830381865afa1580156105d8573d6000803e3d6000fd5b505050506040513d601f19601f820116820180604052508101906105fc91906117db565b60076040518060400160405290816000820154815260200160018201548152505061107c565b846000015160000181905250610728600660018154811061064657610645611797565b5b9060005260206000200160009054906101000a900473ffffffffffffffffffffffffffffffffffffffff16600460009054906101000a900473ffffffffffffffffffffffffffffffffffffffff1673ffffffffffffffffffffffffffffffffffffffff16632c4e722e6040518163ffffffff1660e01b8152600401602060405180830381865afa1580156106de573d6000803e3d6000fd5b505050506040513d601f19601f8201168201806040525081019061070291906117db565b60096040518060400160405290816000820154815260200160018201548152505061107c565b84602001516000018190525061082e600660028154811061074c5761074b611797565b5b9060005260206000200160009054906101000a900473ffffffffffffffffffffffffffffffffffffffff16600560009054906101000a900473ffffffffffffffffffffffffffffffffffffffff1673ffffffffffffffffffffffffffffffffffffffff16632c4e722e6040518163ffffffff1660e01b8152600401602060405180830381865afa1580156107e4573d6000803e3d6000fd5b505050506040513d601f19601f8201168201806040525081019061080891906117db565b600b6040518060400160405290816000820154815260200160018201548152505061107c565b846040015160000181905250600084604001516000015160000151856020015160000151600001518660000151600001516000015161086d9190611808565b6108779190611808565b9050868111156109445760008560000151600001516040015190506000866020015160000151604001519050600087604001516000015160400151905060008183856108c39190611808565b6108cd9190611808565b9050808b856108dc91906116c1565b6108e69190611732565b89600001516020018181525050808b8461090091906116c1565b61090a9190611732565b89602001516020018181525050808b8361092491906116c1565b61092e9190611732565b8960400151602001818152505050505050610993565b8460000151600001516000015185600001516020018181525050846020015160000151600001518560200151602001818152505084604001516000015160000151856040015160200181815250505b600360009054906101000a900473ffffffffffffffffffffffffffffffffffffffff1673ffffffffffffffffffffffffffffffffffffffff16632c4e722e6040518163ffffffff1660e01b8152600401602060405180830381865afa158015610a00573d6000803e3d6000fd5b505050506040513d601f19601f82011682018060405250810190610a2491906117db565b84610a2f9190611732565b856000015160000151602001511115610af057600360009054906101000a900473ffffffffffffffffffffffffffffffffffffffff1673ffffffffffffffffffffffffffffffffffffffff16632c4e722e6040518163ffffffff1660e01b8152600401602060405180830381865afa158015610aaf573d6000803e3d6000fd5b505050506040513d601f19601f82011682018060405250810190610ad391906117db565b84610ade9190611732565b85600001516040018181525050610b0b565b84600001516000015160200151856000015160400181815250505b600460009054906101000a900473ffffffffffffffffffffffffffffffffffffffff1673ffffffffffffffffffffffffffffffffffffffff16632c4e722e6040518163ffffffff1660e01b8152600401602060405180830381865afa158015610b78573d6000803e3d6000fd5b505050506040513d601f19601f82011682018060405250810190610b9c91906117db565b83610ba79190611732565b856020015160000151602001511115610c6857600460009054906101000a900473ffffffffffffffffffffffffffffffffffffffff1673ffffffffffffffffffffffffffffffffffffffff16632c4e722e6040518163ffffffff1660e01b8152600401602060405180830381865afa158015610c27573d6000803e3d6000fd5b505050506040513d601f19601f82011682018060405250810190610c4b91906117db565b83610c569190611732565b85602001516040018181525050610c83565b84602001516000015160200151856020015160400181815250505b600560009054906101000a900473ffffffffffffffffffffffffffffffffffffffff1673ffffffffffffffffffffffffffffffffffffffff16632c4e722e6040518163ffffffff1660e01b8152600401602060405180830381865afa158015610cf0573d6000803e3d6000fd5b505050506040513d601f19601f82011682018060405250810190610d1491906117db565b82610d1f9190611732565b856040015160000151602001511115610de057600560009054906101000a900473ffffffffffffffffffffffffffffffffffffffff1673ffffffffffffffffffffffffffffffffffffffff16632c4e722e6040518163ffffffff1660e01b8152600401602060405180830381865afa158015610d9f573d6000803e3d6000fd5b505050506040513d601f19601f82011682018060405250810190610dc391906117db565b82610dce9190611732565b85604001516040018181525050610dfb565b84604001516000015160200151856040015160400181815250505b5050505092915050565b600460009054906101000a900473ffffffffffffffffffffffffffffffffffffffff1681565b610e33610fbc565b80600b600082015181600001556020820151816001015590505050565b610e58610fbc565b806007600082015181600001556020820151816001015590505050565b620186a081565b600181565b6000600160009054906101000a900473ffffffffffffffffffffffffffffffffffffffff16905090565b610eb3610fbc565b806009600082015181600001556020820151816001015590505050565b610ed8610fbc565b80600160006101000a81548173ffffffffffffffffffffffffffffffffffffffff021916908373ffffffffffffffffffffffffffffffffffffffff1602179055508073ffffffffffffffffffffffffffffffffffffffff16610f386104a2565b73ffffffffffffffffffffffffffffffffffffffff167f38d16b8cac22d99fc7c124b9cd0de2d3fa1faef420bfe791d8c362d765e2270060405160405180910390a350565b60068181548110610f8d57600080fd5b906000526020600020016000915054906101000a900473ffffffffffffffffffffffffffffffffffffffff1681565b610fc4611074565b73ffffffffffffffffffffffffffffffffffffffff16610fe26104a2565b73ffffffffffffffffffffffffffffffffffffffff161461104157611005611074565b6040517f118cdaa70000000000000000000000000000000000000000000000000000000081526004016110389190611305565b60405180910390fd5b565b600160006101000a81549073ffffffffffffffffffffffffffffffffffffffff02191690556110718161117e565b50565b600033905090565b611084611275565b600060028573ffffffffffffffffffffffffffffffffffffffff1663817b1cd26040518163ffffffff1660e01b8152600401602060405180830381865afa1580156110d3573d6000803e3d6000fd5b505050506040513d601f19601f820116820180604052508101906110f791906117db565b6111019190611732565b90506040518060800160405280620186a08560000151878561112391906116c1565b61112d91906116c1565b6111379190611732565b8152602001620186a085602001518461115091906116c1565b61115a9190611732565b8152602001858361116b91906116c1565b8152602001828152509150509392505050565b60008060009054906101000a900473ffffffffffffffffffffffffffffffffffffffff169050816000806101000a81548173ffffffffffffffffffffffffffffffffffffffff021916908373ffffffffffffffffffffffffffffffffffffffff1602179055508173ffffffffffffffffffffffffffffffffffffffff168173ffffffffffffffffffffffffffffffffffffffff167f8be0079c531659141344cd1fd0a4f28419497f9722a3daafe3b4186f6b6457e060405160405180910390a35050565b604051806060016040528061125561129d565b815260200161126261129d565b815260200161126f61129d565b81525090565b6040518060800160405280600081526020016000815260200160008152602001600081525090565b60405180606001604052806112b0611275565b815260200160008152602001600081525090565b600073ffffffffffffffffffffffffffffffffffffffff82169050919050565b60006112ef826112c4565b9050919050565b6112ff816112e4565b82525050565b600060208201905061131a60008301846112f6565b92915050565b6000819050919050565b61133381611320565b82525050565b600060408201905061134e600083018561132a565b61135b602083018461132a565b9392505050565b6000604051905090565b600080fd5b61137a81611320565b811461138557600080fd5b50565b60008135905061139781611371565b92915050565b600080604083850312156113b4576113b361136c565b5b60006113c285828601611388565b92505060206113d385828601611388565b9150509250929050565b6113e681611320565b82525050565b60808201600082015161140260008501826113dd565b50602082015161141560208501826113dd565b50604082015161142860408501826113dd565b50606082015161143b60608501826113dd565b50505050565b60c08201600082015161145760008501826113ec565b50602082015161146a60808501826113dd565b50604082015161147d60a08501826113dd565b50505050565b6102408201600082015161149a6000850182611441565b5060208201516114ad60c0850182611441565b5060408201516114c1610180850182611441565b50505050565b6000610240820190506114dd6000830184611483565b92915050565b600080fd5b6000601f19601f8301169050919050565b7f4e487b7100000000000000000000000000000000000000000000000000000000600052604160045260246000fd5b611531826114e8565b810181811067ffffffffffffffff821117156115505761154f6114f9565b5b80604052505050565b6000611563611362565b905061156f8282611528565b919050565b60006040828403121561158a576115896114e3565b5b6115946040611559565b905060006115a484828501611388565b60008301525060206115b884828501611388565b60208301525092915050565b6000604082840312156115da576115d961136c565b5b60006115e884828501611574565b91505092915050565b6000602082019050611606600083018461132a565b92915050565b611615816112e4565b811461162057600080fd5b50565b6000813590506116328161160c565b92915050565b60006020828403121561164e5761164d61136c565b5b600061165c84828501611623565b91505092915050565b60006020828403121561167b5761167a61136c565b5b600061168984828501611388565b91505092915050565b7f4e487b7100000000000000000000000000000000000000000000000000000000600052601160045260246000fd5b60006116cc82611320565b91506116d783611320565b92508282026116e581611320565b915082820484148315176116fc576116fb611692565b5b5092915050565b7f4e487b7100000000000000000000000000000000000000000000000000000000600052601260045260246000fd5b600061173d82611320565b915061174883611320565b92508261175857611757611703565b5b828204905092915050565b600061176e82611320565b915061177983611320565b925082820390508181111561179157611790611692565b5b92915050565b7f4e487b7100000000000000000000000000000000000000000000000000000000600052603260045260246000fd5b6000815190506117d581611371565b92915050565b6000602082840312156117f1576117f061136c565b5b60006117ff848285016117c6565b91505092915050565b600061181382611320565b915061181e83611320565b925082820190508082111561183657611835611692565b5b9291505056fea264697066735822122072eeabd295f385c32d6165140af357af4488b10f5389ac1ff50837ab1a7ffc0164736f6c63430008180033",
  "linkReferences": {},
  "deployedLinkReferences": {}
}