{
  "_format": "hh-sol-artifact-1",
  "contractName": "LDT",
  "sourceName": "contracts/LTD.sol",
  "abi": [
    {
      "inputs": [
        {
          "internalType": "address",
          "name": "vault",
          "type": "address"
        },
        {
          "internalType": "address",
          "name": "team",
          "type": "address"
        },
        {
          "internalType": "address",
          "name": "marketing",
          "type": "address"
        },
        {
          "internalType": "address",
          "name": "liquidity",
          "type": "address"
        },
        {
          "internalType": "address",
          "name": "presale",
          "type": "address"
        }
      ],
      "stateMutability": "nonpayable",
      "type": "constructor"
    },
    {
      "inputs": [
        {
          "internalType": "address",
          "name": "spender",
          "type": "address"
        },
        {
          "internalType": "uint256",
          "name": "allowance",
          "type": "uint256"
        },
        {
          "internalType": "uint256",
          "name": "needed",
          "type": "uint256"
        }
      ],
      "name": "ERC20InsufficientAllowance",
      "type": "error"
    },
    {
      "inputs": [
        {
          "internalType": "address",
          "name": "sender",
          "type": "address"
        },
        {
          "internalType": "uint256",
          "name": "balance",
          "type": "uint256"
        },
        {
          "internalType": "uint256",
          "name": "needed",
          "type": "uint256"
        }
      ],
      "name": "ERC20InsufficientBalance",
      "type": "error"
    },
    {
      "inputs": [
        {
          "internalType": "address",
          "name": "approver",
          "type": "address"
        }
      ],
      "name": "ERC20InvalidApprover",
      "type": "error"
    },
    {
      "inputs": [
        {
          "internalType": "address",
          "name": "receiver",
          "type": "address"
        }
      ],
      "name": "ERC20InvalidReceiver",
      "type": "error"
    },
    {
      "inputs": [
        {
          "internalType": "address",
          "name": "sender",
          "type": "address"
        }
      ],
      "name": "ERC20InvalidSender",
      "type": "error"
    },
    {
      "inputs": [
        {
          "internalType": "address",
          "name": "spender",
          "type": "address"
        }
      ],
      "name": "ERC20InvalidSpender",
      "type": "error"
    },
    {
      "inputs": [
        {
          "internalType": "address",
          "name": "owner",
          "type": "address"
        }
      ],
      "name": "OwnableInvalidOwner",
      "type": "error"
    },
    {
      "inputs": [
        {
          "internalType": "address",
          "name": "account",
          "type": "address"
        }
      ],
      "name": "OwnableUnauthorizedAccount",
      "type": "error"
    },
    {
      "anonymous": false,
      "inputs": [
        {
          "indexed": true,
          "internalType": "address",
          "name": "owner",
          "type": "address"
        },
        {
          "indexed": true,
          "internalType": "address",
          "name": "spender",
          "type": "address"
        },
        {
          "indexed": false,
          "internalType": "uint256",
          "name": "value",
          "type": "uint256"
        }
      ],
      "name": "Approval",
      "type": "event"
    },
    {
      "anonymous": false,
      "inputs": [
        {
          "indexed": true,
          "internalType": "address",
          "name": "previousOwner",
          "type": "address"
        },
        {
          "indexed": true,
          "internalType": "address",
          "name": "newOwner",
          "type": "address"
        }
      ],
      "name": "OwnershipTransferred",
      "type": "event"
    },
    {
      "anonymous": false,
      "inputs": [
        {
          "indexed": true,
          "internalType": "address",
          "name": "from",
          "type": "address"
        },
        {
          "indexed": true,
          "internalType": "address",
          "name": "to",
          "type": "address"
        },
        {
          "indexed": false,
          "internalType": "uint256",
          "name": "value",
          "type": "uint256"
        }
      ],
      "name": "Transfer",
      "type": "event"
    },
    {
      "inputs": [
        {
          "internalType": "address",
          "name": "owner",
          "type": "address"
        },
        {
          "internalType": "address",
          "name": "spender",
          "type": "address"
        }
      ],
      "name": "allowance",
      "outputs": [
        {
          "internalType": "uint256",
          "name": "",
          "type": "uint256"
        }
      ],
      "stateMutability": "view",
      "type": "function"
    },
    {
      "inputs": [
        {
          "internalType": "address",
          "name": "spender",
          "type": "address"
        },
        {
          "internalType": "uint256",
          "name": "value",
          "type": "uint256"
        }
      ],
      "name": "approve",
      "outputs": [
        {
          "internalType": "bool",
          "name": "",
          "type": "bool"
        }
      ],
      "stateMutability": "nonpayable",
      "type": "function"
    },
    {
      "inputs": [
        {
          "internalType": "address",
          "name": "account",
          "type": "address"
        }
      ],
      "name": "balanceOf",
      "outputs": [
        {
          "internalType": "uint256",
          "name": "",
          "type": "uint256"
        }
      ],
      "stateMutability": "view",
      "type": "function"
    },
    {
      "inputs": [
        {
          "internalType": "uint256",
          "name": "quantity",
          "type": "uint256"
        }
      ],
      "name": "burn",
      "outputs": [],
      "stateMutability": "nonpayable",
      "type": "function"
    },
    {
      "inputs": [],
      "name": "decimals",
      "outputs": [
        {
          "internalType": "uint8",
          "name": "",
          "type": "uint8"
        }
      ],
      "stateMutability": "view",
      "type": "function"
    },
    {
      "inputs": [],
      "name": "name",
      "outputs": [
        {
          "internalType": "string",
          "name": "",
          "type": "string"
        }
      ],
      "stateMutability": "view",
      "type": "function"
    },
    {
      "inputs": [],
      "name": "owner",
      "outputs": [
        {
          "internalType": "address",
          "name": "",
          "type": "address"
        }
      ],
      "stateMutability": "view",
      "type": "function"
    },
    {
      "inputs": [],
      "name": "renounceOwnership",
      "outputs": [],
      "stateMutability": "nonpayable",
      "type": "function"
    },
    {
      "inputs": [],
      "name": "symbol",
      "outputs": [
        {
          "internalType": "string",
          "name": "",
          "type": "string"
        }
      ],
      "stateMutability": "view",
      "type": "function"
    },
    {
      "inputs": [],
      "name": "totalSupply",
      "outputs": [
        {
          "internalType": "uint256",
          "name": "",
          "type": "uint256"
        }
      ],
      "stateMutability": "view",
      "type": "function"
    },
    {
      "inputs": [
        {
          "internalType": "address",
          "name": "to",
          "type": "address"
        },
        {
          "internalType": "uint256",
          "name": "value",
          "type": "uint256"
        }
      ],
      "name": "transfer",
      "outputs": [
        {
          "internalType": "bool",
          "name": "",
          "type": "bool"
        }
      ],
      "stateMutability": "nonpayable",
      "type": "function"
    },
    {
      "inputs": [
        {
          "internalType": "address",
          "name": "from",
          "type": "address"
        },
        {
          "internalType": "address",
          "name": "to",
          "type": "address"
        },
        {
          "internalType": "uint256",
          "name": "value",
          "type": "uint256"
        }
      ],
      "name": "transferFrom",
      "outputs": [
        {
          "internalType": "bool",
          "name": "",
          "type": "bool"
        }
      ],
      "stateMutability": "nonpayable",
      "type": "function"
    },
    {
      "inputs": [
        {
          "internalType": "address",
          "name": "newOwner",
          "type": "address"
        }
      ],
      "name": "transferOwnership",
      "outputs": [],
      "stateMutability": "nonpayable",
      "type": "function"
    }
  ],
  "bytecode": "0x60806040523480156200001157600080fd5b5060405162001cb438038062001cb48339818101604052810190620000379190620005f3565b62000047620001fe60201b60201c565b6040518060400160405280600e81526020017f4c4952412044616f20546f6b656e0000000000000000000000000000000000008152506040518060400160405280600381526020017f4c445400000000000000000000000000000000000000000000000000000000008152508160039081620000c49190620008f5565b508060049081620000d69190620008f5565b505050600073ffffffffffffffffffffffffffffffffffffffff168173ffffffffffffffffffffffffffffffffffffffff16036200014e5760006040517f1e4fbdf7000000000000000000000000000000000000000000000000000000008152600401620001459190620009ed565b60405180910390fd5b6200015f816200020660201b60201c565b506200017e856b1d14a0219e54822428000000620002cc60201b60201c565b6200019b846a295be96e64066972000000620002cc60201b60201c565b620001b8836a52b7d2dcc80cd2e4000000620002cc60201b60201c565b620001d5826a52b7d2dcc80cd2e4000000620002cc60201b60201c565b620001f3816b026c62ad77dc602dae000000620002cc60201b60201c565b505050505062000adf565b600033905090565b6000600560009054906101000a900473ffffffffffffffffffffffffffffffffffffffff16905081600560006101000a81548173ffffffffffffffffffffffffffffffffffffffff021916908373ffffffffffffffffffffffffffffffffffffffff1602179055508173ffffffffffffffffffffffffffffffffffffffff168173ffffffffffffffffffffffffffffffffffffffff167f8be0079c531659141344cd1fd0a4f28419497f9722a3daafe3b4186f6b6457e060405160405180910390a35050565b600073ffffffffffffffffffffffffffffffffffffffff168273ffffffffffffffffffffffffffffffffffffffff1603620003415760006040517fec442f05000000000000000000000000000000000000000000000000000000008152600401620003389190620009ed565b60405180910390fd5b62000355600083836200035960201b60201c565b5050565b600073ffffffffffffffffffffffffffffffffffffffff168373ffffffffffffffffffffffffffffffffffffffff1603620003af578060026000828254620003a2919062000a39565b9250508190555062000485565b60008060008573ffffffffffffffffffffffffffffffffffffffff1673ffffffffffffffffffffffffffffffffffffffff168152602001908152602001600020549050818110156200043e578381836040517fe450d38c000000000000000000000000000000000000000000000000000000008152600401620004359392919062000a85565b60405180910390fd5b8181036000808673ffffffffffffffffffffffffffffffffffffffff1673ffffffffffffffffffffffffffffffffffffffff16815260200190815260200160002081905550505b600073ffffffffffffffffffffffffffffffffffffffff168273ffffffffffffffffffffffffffffffffffffffff1603620004d057806002600082825403925050819055506200051d565b806000808473ffffffffffffffffffffffffffffffffffffffff1673ffffffffffffffffffffffffffffffffffffffff168152602001908152602001600020600082825401925050819055505b8173ffffffffffffffffffffffffffffffffffffffff168373ffffffffffffffffffffffffffffffffffffffff167fddf252ad1be2c89b69c2b068fc378daa952ba7f163c4a11628f55a4df523b3ef836040516200057c919062000ac2565b60405180910390a3505050565b600080fd5b600073ffffffffffffffffffffffffffffffffffffffff82169050919050565b6000620005bb826200058e565b9050919050565b620005cd81620005ae565b8114620005d957600080fd5b50565b600081519050620005ed81620005c2565b92915050565b600080600080600060a0868803121562000612576200061162000589565b5b60006200062288828901620005dc565b95505060206200063588828901620005dc565b94505060406200064888828901620005dc565b93505060606200065b88828901620005dc565b92505060806200066e88828901620005dc565b9150509295509295909350565b600081519050919050565b7f4e487b7100000000000000000000000000000000000000000000000000000000600052604160045260246000fd5b7f4e487b7100000000000000000000000000000000000000000000000000000000600052602260045260246000fd5b60006002820490506001821680620006fd57607f821691505b602082108103620007135762000712620006b5565b5b50919050565b60008190508160005260206000209050919050565b60006020601f8301049050919050565b600082821b905092915050565b6000600883026200077d7fffffffffffffffffffffffffffffffffffffffffffffffffffffffffffffffff826200073e565b6200078986836200073e565b95508019841693508086168417925050509392505050565b6000819050919050565b6000819050919050565b6000620007d6620007d0620007ca84620007a1565b620007ab565b620007a1565b9050919050565b6000819050919050565b620007f283620007b5565b6200080a6200080182620007dd565b8484546200074b565b825550505050565b600090565b6200082162000812565b6200082e818484620007e7565b505050565b5b8181101562000856576200084a60008262000817565b60018101905062000834565b5050565b601f821115620008a5576200086f8162000719565b6200087a846200072e565b810160208510156200088a578190505b620008a262000899856200072e565b83018262000833565b50505b505050565b600082821c905092915050565b6000620008ca60001984600802620008aa565b1980831691505092915050565b6000620008e58383620008b7565b9150826002028217905092915050565b62000900826200067b565b67ffffffffffffffff8111156200091c576200091b62000686565b5b620009288254620006e4565b620009358282856200085a565b600060209050601f8311600181146200096d576000841562000958578287015190505b620009648582620008d7565b865550620009d4565b601f1984166200097d8662000719565b60005b82811015620009a75784890151825560018201915060208501945060208101905062000980565b86831015620009c75784890151620009c3601f891682620008b7565b8355505b6001600288020188555050505b505050505050565b620009e781620005ae565b82525050565b600060208201905062000a046000830184620009dc565b92915050565b7f4e487b7100000000000000000000000000000000000000000000000000000000600052601160045260246000fd5b600062000a4682620007a1565b915062000a5383620007a1565b925082820190508082111562000a6e5762000a6d62000a0a565b5b92915050565b62000a7f81620007a1565b82525050565b600060608201905062000a9c6000830186620009dc565b62000aab602083018562000a74565b62000aba604083018462000a74565b949350505050565b600060208201905062000ad9600083018462000a74565b92915050565b6111c58062000aef6000396000f3fe608060405234801561001057600080fd5b50600436106100cf5760003560e01c806370a082311161008c57806395d89b411161006657806395d89b4114610202578063a9059cbb14610220578063dd62ed3e14610250578063f2fde38b14610280576100cf565b806370a08231146101aa578063715018a6146101da5780638da5cb5b146101e4576100cf565b806306fdde03146100d4578063095ea7b3146100f257806318160ddd1461012257806323b872dd14610140578063313ce5671461017057806342966c681461018e575b600080fd5b6100dc61029c565b6040516100e99190610dec565b60405180910390f35b61010c60048036038101906101079190610ea7565b61032e565b6040516101199190610f02565b60405180910390f35b61012a610351565b6040516101379190610f2c565b60405180910390f35b61015a60048036038101906101559190610f47565b61035b565b6040516101679190610f02565b60405180910390f35b61017861038a565b6040516101859190610fb6565b60405180910390f35b6101a860048036038101906101a39190610fd1565b610393565b005b6101c460048036038101906101bf9190610ffe565b6103a7565b6040516101d19190610f2c565b60405180910390f35b6101e26103ef565b005b6101ec610403565b6040516101f9919061103a565b60405180910390f35b61020a61042d565b6040516102179190610dec565b60405180910390f35b61023a60048036038101906102359190610ea7565b6104bf565b6040516102479190610f02565b60405180910390f35b61026a60048036038101906102659190611055565b6104e2565b6040516102779190610f2c565b60405180910390f35b61029a60048036038101906102959190610ffe565b610569565b005b6060600380546102ab906110c4565b80601f01602080910402602001604051908101604052809291908181526020018280546102d7906110c4565b80156103245780601f106102f957610100808354040283529160200191610324565b820191906000526020600020905b81548152906001019060200180831161030757829003601f168201915b5050505050905090565b6000806103396105ef565b90506103468185856105f7565b600191505092915050565b6000600254905090565b6000806103666105ef565b9050610373858285610609565b61037e85858561069d565b60019150509392505050565b60006012905090565b6103a461039e6105ef565b82610791565b50565b60008060008373ffffffffffffffffffffffffffffffffffffffff1673ffffffffffffffffffffffffffffffffffffffff168152602001908152602001600020549050919050565b6103f7610813565b610401600061089a565b565b6000600560009054906101000a900473ffffffffffffffffffffffffffffffffffffffff16905090565b60606004805461043c906110c4565b80601f0160208091040260200160405190810160405280929190818152602001828054610468906110c4565b80156104b55780601f1061048a576101008083540402835291602001916104b5565b820191906000526020600020905b81548152906001019060200180831161049857829003601f168201915b5050505050905090565b6000806104ca6105ef565b90506104d781858561069d565b600191505092915050565b6000600160008473ffffffffffffffffffffffffffffffffffffffff1673ffffffffffffffffffffffffffffffffffffffff16815260200190815260200160002060008373ffffffffffffffffffffffffffffffffffffffff1673ffffffffffffffffffffffffffffffffffffffff16815260200190815260200160002054905092915050565b610571610813565b600073ffffffffffffffffffffffffffffffffffffffff168173ffffffffffffffffffffffffffffffffffffffff16036105e35760006040517f1e4fbdf70000000000000000000000000000000000000000000000000000000081526004016105da919061103a565b60405180910390fd5b6105ec8161089a565b50565b600033905090565b6106048383836001610960565b505050565b600061061584846104e2565b90507fffffffffffffffffffffffffffffffffffffffffffffffffffffffffffffffff81146106975781811015610687578281836040517ffb8f41b200000000000000000000000000000000000000000000000000000000815260040161067e939291906110f5565b60405180910390fd5b61069684848484036000610960565b5b50505050565b600073ffffffffffffffffffffffffffffffffffffffff168373ffffffffffffffffffffffffffffffffffffffff160361070f5760006040517f96c6fd1e000000000000000000000000000000000000000000000000000000008152600401610706919061103a565b60405180910390fd5b600073ffffffffffffffffffffffffffffffffffffffff168273ffffffffffffffffffffffffffffffffffffffff16036107815760006040517fec442f05000000000000000000000000000000000000000000000000000000008152600401610778919061103a565b60405180910390fd5b61078c838383610b37565b505050565b600073ffffffffffffffffffffffffffffffffffffffff168273ffffffffffffffffffffffffffffffffffffffff16036108035760006040517f96c6fd1e0000000000000000000000000000000000000000000000000000000081526004016107fa919061103a565b60405180910390fd5b61080f82600083610b37565b5050565b61081b6105ef565b73ffffffffffffffffffffffffffffffffffffffff16610839610403565b73ffffffffffffffffffffffffffffffffffffffff16146108985761085c6105ef565b6040517f118cdaa700000000000000000000000000000000000000000000000000000000815260040161088f919061103a565b60405180910390fd5b565b6000600560009054906101000a900473ffffffffffffffffffffffffffffffffffffffff16905081600560006101000a81548173ffffffffffffffffffffffffffffffffffffffff021916908373ffffffffffffffffffffffffffffffffffffffff1602179055508173ffffffffffffffffffffffffffffffffffffffff168173ffffffffffffffffffffffffffffffffffffffff167f8be0079c531659141344cd1fd0a4f28419497f9722a3daafe3b4186f6b6457e060405160405180910390a35050565b600073ffffffffffffffffffffffffffffffffffffffff168473ffffffffffffffffffffffffffffffffffffffff16036109d25760006040517fe602df050000000000000000000000000000000000000000000000000000000081526004016109c9919061103a565b60405180910390fd5b600073ffffffffffffffffffffffffffffffffffffffff168373ffffffffffffffffffffffffffffffffffffffff1603610a445760006040517f94280d62000000000000000000000000000000000000000000000000000000008152600401610a3b919061103a565b60405180910390fd5b81600160008673ffffffffffffffffffffffffffffffffffffffff1673ffffffffffffffffffffffffffffffffffffffff16815260200190815260200160002060008573ffffffffffffffffffffffffffffffffffffffff1673ffffffffffffffffffffffffffffffffffffffff168152602001908152602001600020819055508015610b31578273ffffffffffffffffffffffffffffffffffffffff168473ffffffffffffffffffffffffffffffffffffffff167f8c5be1e5ebec7d5bd14f71427d1e84f3dd0314c0f7b2291e5b200ac8c7c3b92584604051610b289190610f2c565b60405180910390a35b50505050565b600073ffffffffffffffffffffffffffffffffffffffff168373ffffffffffffffffffffffffffffffffffffffff1603610b89578060026000828254610b7d919061115b565b92505081905550610c5c565b60008060008573ffffffffffffffffffffffffffffffffffffffff1673ffffffffffffffffffffffffffffffffffffffff16815260200190815260200160002054905081811015610c15578381836040517fe450d38c000000000000000000000000000000000000000000000000000000008152600401610c0c939291906110f5565b60405180910390fd5b8181036000808673ffffffffffffffffffffffffffffffffffffffff1673ffffffffffffffffffffffffffffffffffffffff16815260200190815260200160002081905550505b600073ffffffffffffffffffffffffffffffffffffffff168273ffffffffffffffffffffffffffffffffffffffff1603610ca55780600260008282540392505081905550610cf2565b806000808473ffffffffffffffffffffffffffffffffffffffff1673ffffffffffffffffffffffffffffffffffffffff168152602001908152602001600020600082825401925050819055505b8173ffffffffffffffffffffffffffffffffffffffff168373ffffffffffffffffffffffffffffffffffffffff167fddf252ad1be2c89b69c2b068fc378daa952ba7f163c4a11628f55a4df523b3ef83604051610d4f9190610f2c565b60405180910390a3505050565b600081519050919050565b600082825260208201905092915050565b60005b83811015610d96578082015181840152602081019050610d7b565b60008484015250505050565b6000601f19601f8301169050919050565b6000610dbe82610d5c565b610dc88185610d67565b9350610dd8818560208601610d78565b610de181610da2565b840191505092915050565b60006020820190508181036000830152610e068184610db3565b905092915050565b600080fd5b600073ffffffffffffffffffffffffffffffffffffffff82169050919050565b6000610e3e82610e13565b9050919050565b610e4e81610e33565b8114610e5957600080fd5b50565b600081359050610e6b81610e45565b92915050565b6000819050919050565b610e8481610e71565b8114610e8f57600080fd5b50565b600081359050610ea181610e7b565b92915050565b60008060408385031215610ebe57610ebd610e0e565b5b6000610ecc85828601610e5c565b9250506020610edd85828601610e92565b9150509250929050565b60008115159050919050565b610efc81610ee7565b82525050565b6000602082019050610f176000830184610ef3565b92915050565b610f2681610e71565b82525050565b6000602082019050610f416000830184610f1d565b92915050565b600080600060608486031215610f6057610f5f610e0e565b5b6000610f6e86828701610e5c565b9350506020610f7f86828701610e5c565b9250506040610f9086828701610e92565b9150509250925092565b600060ff82169050919050565b610fb081610f9a565b82525050565b6000602082019050610fcb6000830184610fa7565b92915050565b600060208284031215610fe757610fe6610e0e565b5b6000610ff584828501610e92565b91505092915050565b60006020828403121561101457611013610e0e565b5b600061102284828501610e5c565b91505092915050565b61103481610e33565b82525050565b600060208201905061104f600083018461102b565b92915050565b6000806040838503121561106c5761106b610e0e565b5b600061107a85828601610e5c565b925050602061108b85828601610e5c565b9150509250929050565b7f4e487b7100000000000000000000000000000000000000000000000000000000600052602260045260246000fd5b600060028204905060018216806110dc57607f821691505b6020821081036110ef576110ee611095565b5b50919050565b600060608201905061110a600083018661102b565b6111176020830185610f1d565b6111246040830184610f1d565b949350505050565b7f4e487b7100000000000000000000000000000000000000000000000000000000600052601160045260246000fd5b600061116682610e71565b915061117183610e71565b92508282019050808211156111895761118861112c565b5b9291505056fea2646970667358221220f8bea8c34ea97711841f9b7f42fa9c7790152a273935345b3c387c52d36eedcf64736f6c63430008180033",
  "linkReferences": {},
  "deployedLinkReferences": {}
}