{
  "_format": "hh-sol-artifact-1",
  "contractName": "BoostingStaker",
  "sourceName": "contracts/BoostingStaker.sol",
  "abi": [
    {
      "inputs": [
        {
          "internalType": "address",
          "name": "_token",
          "type": "address"
        },
        {
          "internalType": "address",
          "name": "_rewardToken1",
          "type": "address"
        },
        {
          "internalType": "address",
          "name": "_rewardToken2",
          "type": "address"
        },
        {
          "internalType": "address",
          "name": "_stakerAddress",
          "type": "address"
        }
      ],
      "stateMutability": "nonpayable",
      "type": "constructor"
    },
    {
      "inputs": [
        {
          "internalType": "address",
          "name": "target",
          "type": "address"
        }
      ],
      "name": "AddressEmptyCode",
      "type": "error"
    },
    {
      "inputs": [
        {
          "internalType": "address",
          "name": "account",
          "type": "address"
        }
      ],
      "name": "AddressInsufficientBalance",
      "type": "error"
    },
    {
      "inputs": [],
      "name": "FailedInnerCall",
      "type": "error"
    },
    {
      "inputs": [
        {
          "internalType": "address",
          "name": "owner",
          "type": "address"
        }
      ],
      "name": "OwnableInvalidOwner",
      "type": "error"
    },
    {
      "inputs": [
        {
          "internalType": "address",
          "name": "account",
          "type": "address"
        }
      ],
      "name": "OwnableUnauthorizedAccount",
      "type": "error"
    },
    {
      "inputs": [],
      "name": "ReentrancyGuardReentrantCall",
      "type": "error"
    },
    {
      "inputs": [
        {
          "internalType": "address",
          "name": "token",
          "type": "address"
        }
      ],
      "name": "SafeERC20FailedOperation",
      "type": "error"
    },
    {
      "anonymous": false,
      "inputs": [
        {
          "indexed": false,
          "internalType": "address",
          "name": "wallet",
          "type": "address"
        },
        {
          "indexed": false,
          "internalType": "uint256",
          "name": "amountToken1",
          "type": "uint256"
        },
        {
          "indexed": false,
          "internalType": "uint256",
          "name": "amountToken2",
          "type": "uint256"
        }
      ],
      "name": "Harvest",
      "type": "event"
    },
    {
      "anonymous": false,
      "inputs": [
        {
          "indexed": true,
          "internalType": "address",
          "name": "previousOwner",
          "type": "address"
        },
        {
          "indexed": true,
          "internalType": "address",
          "name": "newOwner",
          "type": "address"
        }
      ],
      "name": "OwnershipTransferred",
      "type": "event"
    },
    {
      "anonymous": false,
      "inputs": [
        {
          "indexed": false,
          "internalType": "address",
          "name": "wallet",
          "type": "address"
        },
        {
          "indexed": false,
          "internalType": "uint256",
          "name": "amount",
          "type": "uint256"
        }
      ],
      "name": "Stake",
      "type": "event"
    },
    {
      "anonymous": false,
      "inputs": [
        {
          "indexed": false,
          "internalType": "address",
          "name": "wallet",
          "type": "address"
        },
        {
          "indexed": false,
          "internalType": "uint256",
          "name": "amount",
          "type": "uint256"
        }
      ],
      "name": "Unstake",
      "type": "event"
    },
    {
      "inputs": [
        {
          "internalType": "uint256",
          "name": "rewardAmount1",
          "type": "uint256"
        },
        {
          "internalType": "uint256",
          "name": "rewardAmount2",
          "type": "uint256"
        }
      ],
      "name": "distributeRewards",
      "outputs": [],
      "stateMutability": "nonpayable",
      "type": "function"
    },
    {
      "inputs": [
        {
          "internalType": "address",
          "name": "tokenAddress",
          "type": "address"
        }
      ],
      "name": "emergencyWithdraw",
      "outputs": [],
      "stateMutability": "nonpayable",
      "type": "function"
    },
    {
      "inputs": [],
      "name": "empty",
      "outputs": [],
      "stateMutability": "nonpayable",
      "type": "function"
    },
    {
      "inputs": [],
      "name": "harvest",
      "outputs": [],
      "stateMutability": "nonpayable",
      "type": "function"
    },
    {
      "inputs": [],
      "name": "owner",
      "outputs": [
        {
          "internalType": "address",
          "name": "",
          "type": "address"
        }
      ],
      "stateMutability": "view",
      "type": "function"
    },
    {
      "inputs": [
        {
          "internalType": "address",
          "name": "_address",
          "type": "address"
        }
      ],
      "name": "pendingRewards",
      "outputs": [
        {
          "internalType": "uint256",
          "name": "",
          "type": "uint256"
        },
        {
          "internalType": "uint256",
          "name": "",
          "type": "uint256"
        }
      ],
      "stateMutability": "view",
      "type": "function"
    },
    {
      "inputs": [],
      "name": "renounceOwnership",
      "outputs": [],
      "stateMutability": "nonpayable",
      "type": "function"
    },
    {
      "inputs": [
        {
          "internalType": "uint256",
          "name": "",
          "type": "uint256"
        },
        {
          "internalType": "uint256",
          "name": "",
          "type": "uint256"
        }
      ],
      "name": "rewardRounds",
      "outputs": [
        {
          "internalType": "uint256",
          "name": "",
          "type": "uint256"
        }
      ],
      "stateMutability": "view",
      "type": "function"
    },
    {
      "inputs": [],
      "name": "rewardRoundsLength",
      "outputs": [
        {
          "internalType": "uint256",
          "name": "",
          "type": "uint256"
        }
      ],
      "stateMutability": "view",
      "type": "function"
    },
    {
      "inputs": [],
      "name": "rewardToken1",
      "outputs": [
        {
          "internalType": "address",
          "name": "",
          "type": "address"
        }
      ],
      "stateMutability": "view",
      "type": "function"
    },
    {
      "inputs": [],
      "name": "rewardToken2",
      "outputs": [
        {
          "internalType": "address",
          "name": "",
          "type": "address"
        }
      ],
      "stateMutability": "view",
      "type": "function"
    },
    {
      "inputs": [
        {
          "internalType": "uint256",
          "name": "_amount",
          "type": "uint256"
        }
      ],
      "name": "stake",
      "outputs": [],
      "stateMutability": "nonpayable",
      "type": "function"
    },
    {
      "inputs": [],
      "name": "stakerAddress",
      "outputs": [
        {
          "internalType": "address",
          "name": "",
          "type": "address"
        }
      ],
      "stateMutability": "view",
      "type": "function"
    },
    {
      "inputs": [
        {
          "internalType": "address",
          "name": "",
          "type": "address"
        }
      ],
      "name": "stakers",
      "outputs": [
        {
          "internalType": "uint256",
          "name": "amount",
          "type": "uint256"
        },
        {
          "internalType": "uint256",
          "name": "lastRewardRound",
          "type": "uint256"
        }
      ],
      "stateMutability": "view",
      "type": "function"
    },
    {
      "inputs": [],
      "name": "token",
      "outputs": [
        {
          "internalType": "address",
          "name": "",
          "type": "address"
        }
      ],
      "stateMutability": "view",
      "type": "function"
    },
    {
      "inputs": [],
      "name": "totalStaked",
      "outputs": [
        {
          "internalType": "uint256",
          "name": "",
          "type": "uint256"
        }
      ],
      "stateMutability": "view",
      "type": "function"
    },
    {
      "inputs": [
        {
          "internalType": "address",
          "name": "newOwner",
          "type": "address"
        }
      ],
      "name": "transferOwnership",
      "outputs": [],
      "stateMutability": "nonpayable",
      "type": "function"
    },
    {
      "inputs": [
        {
          "internalType": "uint256",
          "name": "_amount",
          "type": "uint256"
        }
      ],
      "name": "unstake",
      "outputs": [],
      "stateMutability": "nonpayable",
      "type": "function"
    }
  ],
  "bytecode": "0x60806040523480156200001157600080fd5b506040516200285a3803806200285a833981810160405281019062000037919062000302565b33600073ffffffffffffffffffffffffffffffffffffffff168173ffffffffffffffffffffffffffffffffffffffff1603620000ad5760006040517f1e4fbdf7000000000000000000000000000000000000000000000000000000008152600401620000a4919062000385565b60405180910390fd5b620000be81620001d460201b60201c565b506001808190555083600260006101000a81548173ffffffffffffffffffffffffffffffffffffffff021916908373ffffffffffffffffffffffffffffffffffffffff16021790555082600360006101000a81548173ffffffffffffffffffffffffffffffffffffffff021916908373ffffffffffffffffffffffffffffffffffffffff16021790555081600460006101000a81548173ffffffffffffffffffffffffffffffffffffffff021916908373ffffffffffffffffffffffffffffffffffffffff16021790555080600560006101000a81548173ffffffffffffffffffffffffffffffffffffffff021916908373ffffffffffffffffffffffffffffffffffffffff16021790555050505050620003a2565b60008060009054906101000a900473ffffffffffffffffffffffffffffffffffffffff169050816000806101000a81548173ffffffffffffffffffffffffffffffffffffffff021916908373ffffffffffffffffffffffffffffffffffffffff1602179055508173ffffffffffffffffffffffffffffffffffffffff168173ffffffffffffffffffffffffffffffffffffffff167f8be0079c531659141344cd1fd0a4f28419497f9722a3daafe3b4186f6b6457e060405160405180910390a35050565b600080fd5b600073ffffffffffffffffffffffffffffffffffffffff82169050919050565b6000620002ca826200029d565b9050919050565b620002dc81620002bd565b8114620002e857600080fd5b50565b600081519050620002fc81620002d1565b92915050565b600080600080608085870312156200031f576200031e62000298565b5b60006200032f87828801620002eb565b94505060206200034287828801620002eb565b93505060406200035587828801620002eb565b92505060606200036887828801620002eb565b91505092959194509250565b6200037f81620002bd565b82525050565b60006020820190506200039c600083018462000374565b92915050565b6124a880620003b26000396000f3fe608060405234801561001057600080fd5b50600436106101165760003560e01c80639168ae72116100a2578063df6c39fb11610071578063df6c39fb14610299578063e6975964146102b5578063f2a75fe4146102e5578063f2fde38b146102ef578063fc0c546a1461030b57610116565b80639168ae7214610210578063a694fc3a14610241578063d470316b1461025d578063d61a47f11461027b57610116565b80636ff1c9bc116100e95780636ff1c9bc14610190578063715018a6146101ac5780637f2bfc64146101b6578063817b1cd2146101d45780638da5cb5b146101f257610116565b80632e17de781461011b57806331d7a262146101375780634641257d146101685780636f28d68814610172575b600080fd5b61013560048036038101906101309190611c94565b610329565b005b610151600480360381019061014c9190611d1f565b6104cc565b60405161015f929190611d5b565b60405180910390f35b6101706106a5565b005b61017a61099f565b6040516101879190611d93565b60405180910390f35b6101aa60048036038101906101a59190611d1f565b6109c5565b005b6101b4610c2b565b005b6101be610c3f565b6040516101cb9190611dae565b60405180910390f35b6101dc610c4c565b6040516101e99190611dae565b60405180910390f35b6101fa610c52565b6040516102079190611d93565b60405180910390f35b61022a60048036038101906102259190611d1f565b610c7b565b604051610238929190611d5b565b60405180910390f35b61025b60048036038101906102569190611c94565b610c9f565b005b61026561108d565b6040516102729190611d93565b60405180910390f35b6102836110b3565b6040516102909190611d93565b60405180910390f35b6102b360048036038101906102ae9190611dc9565b6110d9565b005b6102cf60048036038101906102ca9190611dc9565b61124a565b6040516102dc9190611dae565b60405180910390f35b6102ed611282565b005b61030960048036038101906103049190611d1f565b611655565b005b6103136116db565b6040516103209190611d93565b60405180910390f35b610331611701565b6000600660003373ffffffffffffffffffffffffffffffffffffffff1673ffffffffffffffffffffffffffffffffffffffff16815260200190815260200160002090506007805490508160010154146103bf576040517f08c379a00000000000000000000000000000000000000000000000000000000081526004016103b690611e66565b60405180910390fd5b8060000154821115610406576040517f08c379a00000000000000000000000000000000000000000000000000000000081526004016103fd90611ed2565b60405180910390fd5b8181600001600082825461041a9190611f21565b9250508190555081600860008282546104339190611f21565b925050819055506104873383600260009054906101000a900473ffffffffffffffffffffffffffffffffffffffff1673ffffffffffffffffffffffffffffffffffffffff166117479092919063ffffffff16565b7f85082129d87b2fe11527cb1b3b7a520aeb5aa6913f88a3d8757fe40d1db02fdd33836040516104b8929190611f55565b60405180910390a1506104c96117c6565b50565b6000806000600660008573ffffffffffffffffffffffffffffffffffffffff1673ffffffffffffffffffffffffffffffffffffffff16815260200190815260200160002090506000806000836001015490505b600780549050811015610696576ec097ce7bc90715b34b9f1000000000600782815481106105505761054f611f7e565b5b906000526020600020906002020160006002811061057157610570611f7e565b5b0154600660008a73ffffffffffffffffffffffffffffffffffffffff1673ffffffffffffffffffffffffffffffffffffffff168152602001908152602001600020600001546105c09190611fad565b6105ca919061201e565b836105d5919061204f565b92506ec097ce7bc90715b34b9f1000000000600782815481106105fb576105fa611f7e565b5b906000526020600020906002020160016002811061061c5761061b611f7e565b5b0154600660008a73ffffffffffffffffffffffffffffffffffffffff1673ffffffffffffffffffffffffffffffffffffffff1681526020019081526020016000206000015461066b9190611fad565b610675919061201e565b82610680919061204f565b915060018161068f919061204f565b905061051f565b82829550955050505050915091565b6106ad611701565b6000600660003373ffffffffffffffffffffffffffffffffffffffff1673ffffffffffffffffffffffffffffffffffffffff1681526020019081526020016000206000015490506000600660003373ffffffffffffffffffffffffffffffffffffffff1673ffffffffffffffffffffffffffffffffffffffff16815260200190815260200160002060010154905060008060005a905060006064600a836107549190611fad565b61075e919061201e565b90505b600780549050851080156107745750805a115b1561085f576ec097ce7bc90715b34b9f10000000006007868154811061079d5761079c611f7e565b5b90600052602060002090600202016000600281106107be576107bd611f7e565b5b0154876107cb9190611fad565b6107d5919061201e565b846107e0919061204f565b93506ec097ce7bc90715b34b9f10000000006007868154811061080657610805611f7e565b5b906000526020600020906002020160016002811061082757610826611f7e565b5b0154876108349190611fad565b61083e919061201e565b83610849919061204f565b9250600185610858919061204f565b9450610761565b84600660003373ffffffffffffffffffffffffffffffffffffffff1673ffffffffffffffffffffffffffffffffffffffff1681526020019081526020016000206001018190555060008411156108fd576108fc3385600360009054906101000a900473ffffffffffffffffffffffffffffffffffffffff1673ffffffffffffffffffffffffffffffffffffffff166117479092919063ffffffff16565b5b6000831115610954576109533384600460009054906101000a900473ffffffffffffffffffffffffffffffffffffffff1673ffffffffffffffffffffffffffffffffffffffff166117479092919063ffffffff16565b5b7f71bab65ced2e5750775a0613be067df48ef06cf92a496ebf7663ae066092495433858560405161098793929190612083565b60405180910390a150505050505061099d6117c6565b565b600360009054906101000a900473ffffffffffffffffffffffffffffffffffffffff1681565b6109cd6117cf565b600260009054906101000a900473ffffffffffffffffffffffffffffffffffffffff1673ffffffffffffffffffffffffffffffffffffffff168173ffffffffffffffffffffffffffffffffffffffff1603610a5d576040517f08c379a0000000000000000000000000000000000000000000000000000000008152600401610a5490612106565b60405180910390fd5b600360009054906101000a900473ffffffffffffffffffffffffffffffffffffffff1673ffffffffffffffffffffffffffffffffffffffff168173ffffffffffffffffffffffffffffffffffffffff1603610aed576040517f08c379a0000000000000000000000000000000000000000000000000000000008152600401610ae490612106565b60405180910390fd5b600460009054906101000a900473ffffffffffffffffffffffffffffffffffffffff1673ffffffffffffffffffffffffffffffffffffffff168173ffffffffffffffffffffffffffffffffffffffff1603610b7d576040517f08c379a0000000000000000000000000000000000000000000000000000000008152600401610b7490612106565b60405180910390fd5b610c28610b88610c52565b8273ffffffffffffffffffffffffffffffffffffffff166370a08231306040518263ffffffff1660e01b8152600401610bc19190611d93565b602060405180830381865afa158015610bde573d6000803e3d6000fd5b505050506040513d601f19601f82011682018060405250810190610c02919061213b565b8373ffffffffffffffffffffffffffffffffffffffff166117479092919063ffffffff16565b50565b610c336117cf565b610c3d6000611856565b565b6000600780549050905090565b60085481565b60008060009054906101000a900473ffffffffffffffffffffffffffffffffffffffff16905090565b60066020528060005260406000206000915090508060000154908060010154905082565b610ca7611701565b6000600560009054906101000a900473ffffffffffffffffffffffffffffffffffffffff1673ffffffffffffffffffffffffffffffffffffffff16639168ae72336040518263ffffffff1660e01b8152600401610d049190611d93565b60408051808303816000875af1158015610d22573d6000803e3d6000fd5b505050506040513d601f19601f82011682018060405250810190610d469190612249565b6000015111610d8a576040517f08c379a0000000000000000000000000000000000000000000000000000000008152600401610d81906122c2565b60405180910390fd5b6000600660003373ffffffffffffffffffffffffffffffffffffffff1673ffffffffffffffffffffffffffffffffffffffff1681526020019081526020016000209050600081600001541480610de857506007805490508160010154145b610e27576040517f08c379a0000000000000000000000000000000000000000000000000000000008152600401610e1e90611e66565b60405180910390fd5b81816000016000828254610e3b919061204f565b925050819055506002600460009054906101000a900473ffffffffffffffffffffffffffffffffffffffff1673ffffffffffffffffffffffffffffffffffffffff16632c4e722e6040518163ffffffff1660e01b81526004016020604051808303816000875af1158015610eb3573d6000803e3d6000fd5b505050506040513d601f19601f82011682018060405250810190610ed7919061213b565b600560009054906101000a900473ffffffffffffffffffffffffffffffffffffffff1673ffffffffffffffffffffffffffffffffffffffff16639168ae72336040518263ffffffff1660e01b8152600401610f329190611d93565b60408051808303816000875af1158015610f50573d6000803e3d6000fd5b505050506040513d601f19601f82011682018060405250810190610f749190612249565b60000151610f829190611fad565b610f8c919061201e565b81600001541115610fd2576040517f08c379a0000000000000000000000000000000000000000000000000000000008152600401610fc99061232e565b60405180910390fd5b60078054905081600101819055508160086000828254610ff2919061204f565b92505081905550611048333084600260009054906101000a900473ffffffffffffffffffffffffffffffffffffffff1673ffffffffffffffffffffffffffffffffffffffff1661191a909392919063ffffffff16565b7febedb8b3c678666e7f36970bc8f57abf6d8fa2e828c0da91ea5b75bf68ed101a3383604051611079929190611f55565b60405180910390a15061108a6117c6565b50565b600560009054906101000a900473ffffffffffffffffffffffffffffffffffffffff1681565b600460009054906101000a900473ffffffffffffffffffffffffffffffffffffffff1681565b6110e16117cf565b6110e9611701565b60006008546ec097ce7bc90715b34b9f1000000000846111099190611fad565b611113919061201e565b905060006008546ec097ce7bc90715b34b9f1000000000846111359190611fad565b61113f919061201e565b90506007604051806040016040528084815260200183815250908060018154018082558091505060019003906000526020600020906002020160009091909190915090600261118f929190611bf2565b506111e661119b610c52565b3086600360009054906101000a900473ffffffffffffffffffffffffffffffffffffffff1673ffffffffffffffffffffffffffffffffffffffff1661191a909392919063ffffffff16565b61123c6111f1610c52565b3085600460009054906101000a900473ffffffffffffffffffffffffffffffffffffffff1673ffffffffffffffffffffffffffffffffffffffff1661191a909392919063ffffffff16565b50506112466117c6565b5050565b6007828154811061125a57600080fd5b9060005260206000209060020201816002811061127657600080fd5b01600091509150505481565b61128a6117cf565b600260009054906101000a900473ffffffffffffffffffffffffffffffffffffffff1673ffffffffffffffffffffffffffffffffffffffff1663a9059cbb6112d0610c52565b600260009054906101000a900473ffffffffffffffffffffffffffffffffffffffff1673ffffffffffffffffffffffffffffffffffffffff166370a08231306040518263ffffffff1660e01b815260040161132b9190611d93565b602060405180830381865afa158015611348573d6000803e3d6000fd5b505050506040513d601f19601f8201168201806040525081019061136c919061213b565b6040518363ffffffff1660e01b8152600401611389929190611f55565b6020604051808303816000875af11580156113a8573d6000803e3d6000fd5b505050506040513d601f19601f820116820180604052508101906113cc9190612386565b50600360009054906101000a900473ffffffffffffffffffffffffffffffffffffffff1673ffffffffffffffffffffffffffffffffffffffff1663a9059cbb611413610c52565b600360009054906101000a900473ffffffffffffffffffffffffffffffffffffffff1673ffffffffffffffffffffffffffffffffffffffff166370a08231306040518263ffffffff1660e01b815260040161146e9190611d93565b602060405180830381865afa15801561148b573d6000803e3d6000fd5b505050506040513d601f19601f820116820180604052508101906114af919061213b565b6040518363ffffffff1660e01b81526004016114cc929190611f55565b6020604051808303816000875af11580156114eb573d6000803e3d6000fd5b505050506040513d601f19601f8201168201806040525081019061150f9190612386565b50600460009054906101000a900473ffffffffffffffffffffffffffffffffffffffff1673ffffffffffffffffffffffffffffffffffffffff1663a9059cbb611556610c52565b600460009054906101000a900473ffffffffffffffffffffffffffffffffffffffff1673ffffffffffffffffffffffffffffffffffffffff166370a08231306040518263ffffffff1660e01b81526004016115b19190611d93565b602060405180830381865afa1580156115ce573d6000803e3d6000fd5b505050506040513d601f19601f820116820180604052508101906115f2919061213b565b6040518363ffffffff1660e01b815260040161160f929190611f55565b6020604051808303816000875af115801561162e573d6000803e3d6000fd5b505050506040513d601f19601f820116820180604052508101906116529190612386565b50565b61165d6117cf565b600073ffffffffffffffffffffffffffffffffffffffff168173ffffffffffffffffffffffffffffffffffffffff16036116cf5760006040517f1e4fbdf70000000000000000000000000000000000000000000000000000000081526004016116c69190611d93565b60405180910390fd5b6116d881611856565b50565b600260009054906101000a900473ffffffffffffffffffffffffffffffffffffffff1681565b60026001540361173d576040517f3ee5aeb500000000000000000000000000000000000000000000000000000000815260040160405180910390fd5b6002600181905550565b6117c1838473ffffffffffffffffffffffffffffffffffffffff1663a9059cbb858560405160240161177a929190611f55565b604051602081830303815290604052915060e01b6020820180517bffffffffffffffffffffffffffffffffffffffffffffffffffffffff838183161783525050505061199c565b505050565b60018081905550565b6117d7611a33565b73ffffffffffffffffffffffffffffffffffffffff166117f5610c52565b73ffffffffffffffffffffffffffffffffffffffff161461185457611818611a33565b6040517f118cdaa700000000000000000000000000000000000000000000000000000000815260040161184b9190611d93565b60405180910390fd5b565b60008060009054906101000a900473ffffffffffffffffffffffffffffffffffffffff169050816000806101000a81548173ffffffffffffffffffffffffffffffffffffffff021916908373ffffffffffffffffffffffffffffffffffffffff1602179055508173ffffffffffffffffffffffffffffffffffffffff168173ffffffffffffffffffffffffffffffffffffffff167f8be0079c531659141344cd1fd0a4f28419497f9722a3daafe3b4186f6b6457e060405160405180910390a35050565b611996848573ffffffffffffffffffffffffffffffffffffffff166323b872dd86868660405160240161194f939291906123b3565b604051602081830303815290604052915060e01b6020820180517bffffffffffffffffffffffffffffffffffffffffffffffffffffffff838183161783525050505061199c565b50505050565b60006119c7828473ffffffffffffffffffffffffffffffffffffffff16611a3b90919063ffffffff16565b905060008151141580156119ec5750808060200190518101906119ea9190612386565b155b15611a2e57826040517f5274afe7000000000000000000000000000000000000000000000000000000008152600401611a259190611d93565b60405180910390fd5b505050565b600033905090565b6060611a4983836000611a51565b905092915050565b606081471015611a9857306040517fcd786059000000000000000000000000000000000000000000000000000000008152600401611a8f9190611d93565b60405180910390fd5b6000808573ffffffffffffffffffffffffffffffffffffffff168486604051611ac1919061245b565b60006040518083038185875af1925050503d8060008114611afe576040519150601f19603f3d011682016040523d82523d6000602084013e611b03565b606091505b5091509150611b13868383611b1e565b925050509392505050565b606082611b3357611b2e82611bad565b611ba5565b60008251148015611b5b575060008473ffffffffffffffffffffffffffffffffffffffff163b145b15611b9d57836040517f9996b315000000000000000000000000000000000000000000000000000000008152600401611b949190611d93565b60405180910390fd5b819050611ba6565b5b9392505050565b600081511115611bc05780518082602001fd5b6040517f1425ea4200000000000000000000000000000000000000000000000000000000815260040160405180910390fd5b8260028101928215611c21579160200282015b82811115611c20578251825591602001919060010190611c05565b5b509050611c2e9190611c32565b5090565b5b80821115611c4b576000816000905550600101611c33565b5090565b6000604051905090565b600080fd5b6000819050919050565b611c7181611c5e565b8114611c7c57600080fd5b50565b600081359050611c8e81611c68565b92915050565b600060208284031215611caa57611ca9611c59565b5b6000611cb884828501611c7f565b91505092915050565b600073ffffffffffffffffffffffffffffffffffffffff82169050919050565b6000611cec82611cc1565b9050919050565b611cfc81611ce1565b8114611d0757600080fd5b50565b600081359050611d1981611cf3565b92915050565b600060208284031215611d3557611d34611c59565b5b6000611d4384828501611d0a565b91505092915050565b611d5581611c5e565b82525050565b6000604082019050611d706000830185611d4c565b611d7d6020830184611d4c565b9392505050565b611d8d81611ce1565b82525050565b6000602082019050611da86000830184611d84565b92915050565b6000602082019050611dc36000830184611d4c565b92915050565b60008060408385031215611de057611ddf611c59565b5b6000611dee85828601611c7f565b9250506020611dff85828601611c7f565b9150509250929050565b600082825260208201905092915050565b7f50454e44494e475f424f4f53545f524557415244530000000000000000000000600082015250565b6000611e50601583611e09565b9150611e5b82611e1a565b602082019050919050565b60006020820190508181036000830152611e7f81611e43565b9050919050565b7f494e56414c49445f414d4f554e54000000000000000000000000000000000000600082015250565b6000611ebc600e83611e09565b9150611ec782611e86565b602082019050919050565b60006020820190508181036000830152611eeb81611eaf565b9050919050565b7f4e487b7100000000000000000000000000000000000000000000000000000000600052601160045260246000fd5b6000611f2c82611c5e565b9150611f3783611c5e565b9250828203905081811115611f4f57611f4e611ef2565b5b92915050565b6000604082019050611f6a6000830185611d84565b611f776020830184611d4c565b9392505050565b7f4e487b7100000000000000000000000000000000000000000000000000000000600052603260045260246000fd5b6000611fb882611c5e565b9150611fc383611c5e565b9250828202611fd181611c5e565b91508282048414831517611fe857611fe7611ef2565b5b5092915050565b7f4e487b7100000000000000000000000000000000000000000000000000000000600052601260045260246000fd5b600061202982611c5e565b915061203483611c5e565b92508261204457612043611fef565b5b828204905092915050565b600061205a82611c5e565b915061206583611c5e565b925082820190508082111561207d5761207c611ef2565b5b92915050565b60006060820190506120986000830186611d84565b6120a56020830185611d4c565b6120b26040830184611d4c565b949350505050565b7f43414e4e4f545f57495448445241575f4c4f434b45445f544f4b454e00000000600082015250565b60006120f0601c83611e09565b91506120fb826120ba565b602082019050919050565b6000602082019050818103600083015261211f816120e3565b9050919050565b60008151905061213581611c68565b92915050565b60006020828403121561215157612150611c59565b5b600061215f84828501612126565b91505092915050565b600080fd5b6000601f19601f8301169050919050565b7f4e487b7100000000000000000000000000000000000000000000000000000000600052604160045260246000fd5b6121b68261216d565b810181811067ffffffffffffffff821117156121d5576121d461217e565b5b80604052505050565b60006121e8611c4f565b90506121f482826121ad565b919050565b60006040828403121561220f5761220e612168565b5b61221960406121de565b9050600061222984828501612126565b600083015250602061223d84828501612126565b60208301525092915050565b60006040828403121561225f5761225e611c59565b5b600061226d848285016121f9565b91505092915050565b7f4d494e494d554d5f424f4f53545f414d4f554e54000000000000000000000000600082015250565b60006122ac601483611e09565b91506122b782612276565b602082019050919050565b600060208201905081810360008301526122db8161229f565b9050919050565b7f4d41585f424f4f53545f414d4f554e5400000000000000000000000000000000600082015250565b6000612318601083611e09565b9150612323826122e2565b602082019050919050565b600060208201905081810360008301526123478161230b565b9050919050565b60008115159050919050565b6123638161234e565b811461236e57600080fd5b50565b6000815190506123808161235a565b92915050565b60006020828403121561239c5761239b611c59565b5b60006123aa84828501612371565b91505092915050565b60006060820190506123c86000830186611d84565b6123d56020830185611d84565b6123e26040830184611d4c565b949350505050565b600081519050919050565b600081905092915050565b60005b8381101561241e578082015181840152602081019050612403565b60008484015250505050565b6000612435826123ea565b61243f81856123f5565b935061244f818560208601612400565b80840191505092915050565b6000612467828461242a565b91508190509291505056fea264697066735822122052d7982ab22b6560abf6848c2df33d0e7163557222059e063abcfd7bca7c619864736f6c63430008180033",
  "linkReferences": {},
  "deployedLinkReferences": {}
}