{
  "_format": "hh-sol-artifact-1",
  "contractName": "BoostingStaker",
  "sourceName": "contracts/BoostingStaker.sol",
  "abi": [
    {
      "inputs": [
        {
          "internalType": "address",
          "name": "_token",
          "type": "address"
        },
        {
          "internalType": "address",
          "name": "_rewardToken1",
          "type": "address"
        },
        {
          "internalType": "address",
          "name": "_rewardToken2",
          "type": "address"
        },
        {
          "internalType": "address",
          "name": "_stakerAddress",
          "type": "address"
        }
      ],
      "stateMutability": "nonpayable",
      "type": "constructor"
    },
    {
      "inputs": [
        {
          "internalType": "address",
          "name": "target",
          "type": "address"
        }
      ],
      "name": "AddressEmptyCode",
      "type": "error"
    },
    {
      "inputs": [
        {
          "internalType": "address",
          "name": "account",
          "type": "address"
        }
      ],
      "name": "AddressInsufficientBalance",
      "type": "error"
    },
    {
      "inputs": [],
      "name": "FailedInnerCall",
      "type": "error"
    },
    {
      "inputs": [
        {
          "internalType": "address",
          "name": "owner",
          "type": "address"
        }
      ],
      "name": "OwnableInvalidOwner",
      "type": "error"
    },
    {
      "inputs": [
        {
          "internalType": "address",
          "name": "account",
          "type": "address"
        }
      ],
      "name": "OwnableUnauthorizedAccount",
      "type": "error"
    },
    {
      "inputs": [],
      "name": "ReentrancyGuardReentrantCall",
      "type": "error"
    },
    {
      "inputs": [
        {
          "internalType": "address",
          "name": "token",
          "type": "address"
        }
      ],
      "name": "SafeERC20FailedOperation",
      "type": "error"
    },
    {
      "anonymous": false,
      "inputs": [
        {
          "indexed": false,
          "internalType": "address",
          "name": "wallet",
          "type": "address"
        },
        {
          "indexed": false,
          "internalType": "uint256",
          "name": "amountToken1",
          "type": "uint256"
        },
        {
          "indexed": false,
          "internalType": "uint256",
          "name": "amountToken2",
          "type": "uint256"
        }
      ],
      "name": "Harvest",
      "type": "event"
    },
    {
      "anonymous": false,
      "inputs": [
        {
          "indexed": true,
          "internalType": "address",
          "name": "previousOwner",
          "type": "address"
        },
        {
          "indexed": true,
          "internalType": "address",
          "name": "newOwner",
          "type": "address"
        }
      ],
      "name": "OwnershipTransferred",
      "type": "event"
    },
    {
      "anonymous": false,
      "inputs": [
        {
          "indexed": false,
          "internalType": "address",
          "name": "wallet",
          "type": "address"
        },
        {
          "indexed": false,
          "internalType": "uint256",
          "name": "amount",
          "type": "uint256"
        }
      ],
      "name": "Stake",
      "type": "event"
    },
    {
      "anonymous": false,
      "inputs": [
        {
          "indexed": false,
          "internalType": "address",
          "name": "wallet",
          "type": "address"
        },
        {
          "indexed": false,
          "internalType": "uint256",
          "name": "amount",
          "type": "uint256"
        }
      ],
      "name": "Unstake",
      "type": "event"
    },
    {
      "inputs": [
        {
          "internalType": "uint256",
          "name": "rewardAmount1",
          "type": "uint256"
        },
        {
          "internalType": "uint256",
          "name": "rewardAmount2",
          "type": "uint256"
        }
      ],
      "name": "distributeRewards",
      "outputs": [],
      "stateMutability": "nonpayable",
      "type": "function"
    },
    {
      "inputs": [
        {
          "internalType": "address",
          "name": "tokenAddress",
          "type": "address"
        }
      ],
      "name": "emergencyWithdraw",
      "outputs": [],
      "stateMutability": "nonpayable",
      "type": "function"
    },
    {
      "inputs": [
        {
          "internalType": "address",
          "name": "_address",
          "type": "address"
        }
      ],
      "name": "getMaxBoost",
      "outputs": [
        {
          "internalType": "uint256",
          "name": "",
          "type": "uint256"
        }
      ],
      "stateMutability": "view",
      "type": "function"
    },
    {
      "inputs": [
        {
          "internalType": "address",
          "name": "_address",
          "type": "address"
        }
      ],
      "name": "getRemainingBoost",
      "outputs": [
        {
          "internalType": "uint256",
          "name": "",
          "type": "uint256"
        }
      ],
      "stateMutability": "view",
      "type": "function"
    },
    {
      "inputs": [],
      "name": "harvest",
      "outputs": [],
      "stateMutability": "nonpayable",
      "type": "function"
    },
    {
      "inputs": [],
      "name": "owner",
      "outputs": [
        {
          "internalType": "address",
          "name": "",
          "type": "address"
        }
      ],
      "stateMutability": "view",
      "type": "function"
    },
    {
      "inputs": [
        {
          "internalType": "address",
          "name": "_address",
          "type": "address"
        }
      ],
      "name": "pendingRewards",
      "outputs": [
        {
          "internalType": "uint256",
          "name": "",
          "type": "uint256"
        },
        {
          "internalType": "uint256",
          "name": "",
          "type": "uint256"
        }
      ],
      "stateMutability": "view",
      "type": "function"
    },
    {
      "inputs": [],
      "name": "renounceOwnership",
      "outputs": [],
      "stateMutability": "nonpayable",
      "type": "function"
    },
    {
      "inputs": [
        {
          "internalType": "uint256",
          "name": "",
          "type": "uint256"
        },
        {
          "internalType": "uint256",
          "name": "",
          "type": "uint256"
        }
      ],
      "name": "rewardRounds",
      "outputs": [
        {
          "internalType": "uint256",
          "name": "",
          "type": "uint256"
        }
      ],
      "stateMutability": "view",
      "type": "function"
    },
    {
      "inputs": [],
      "name": "rewardRoundsLength",
      "outputs": [
        {
          "internalType": "uint256",
          "name": "",
          "type": "uint256"
        }
      ],
      "stateMutability": "view",
      "type": "function"
    },
    {
      "inputs": [],
      "name": "rewardToken1",
      "outputs": [
        {
          "internalType": "address",
          "name": "",
          "type": "address"
        }
      ],
      "stateMutability": "view",
      "type": "function"
    },
    {
      "inputs": [],
      "name": "rewardToken2",
      "outputs": [
        {
          "internalType": "address",
          "name": "",
          "type": "address"
        }
      ],
      "stateMutability": "view",
      "type": "function"
    },
    {
      "inputs": [
        {
          "internalType": "uint256",
          "name": "_amount",
          "type": "uint256"
        }
      ],
      "name": "stake",
      "outputs": [],
      "stateMutability": "nonpayable",
      "type": "function"
    },
    {
      "inputs": [],
      "name": "stakerAddress",
      "outputs": [
        {
          "internalType": "address",
          "name": "",
          "type": "address"
        }
      ],
      "stateMutability": "view",
      "type": "function"
    },
    {
      "inputs": [
        {
          "internalType": "address",
          "name": "",
          "type": "address"
        }
      ],
      "name": "stakers",
      "outputs": [
        {
          "internalType": "uint256",
          "name": "amount",
          "type": "uint256"
        },
        {
          "internalType": "uint256",
          "name": "lastRewardRound",
          "type": "uint256"
        }
      ],
      "stateMutability": "view",
      "type": "function"
    },
    {
      "inputs": [],
      "name": "token",
      "outputs": [
        {
          "internalType": "address",
          "name": "",
          "type": "address"
        }
      ],
      "stateMutability": "view",
      "type": "function"
    },
    {
      "inputs": [],
      "name": "totalStaked",
      "outputs": [
        {
          "internalType": "uint256",
          "name": "",
          "type": "uint256"
        }
      ],
      "stateMutability": "view",
      "type": "function"
    },
    {
      "inputs": [
        {
          "internalType": "address",
          "name": "newOwner",
          "type": "address"
        }
      ],
      "name": "transferOwnership",
      "outputs": [],
      "stateMutability": "nonpayable",
      "type": "function"
    },
    {
      "inputs": [
        {
          "internalType": "uint256",
          "name": "_amount",
          "type": "uint256"
        }
      ],
      "name": "unstake",
      "outputs": [],
      "stateMutability": "nonpayable",
      "type": "function"
    }
  ],
  "bytecode": "0x60806040523480156200001157600080fd5b506040516200285e3803806200285e833981810160405281019062000037919062000302565b33600073ffffffffffffffffffffffffffffffffffffffff168173ffffffffffffffffffffffffffffffffffffffff1603620000ad5760006040517f1e4fbdf7000000000000000000000000000000000000000000000000000000008152600401620000a4919062000385565b60405180910390fd5b620000be81620001d460201b60201c565b506001808190555083600260006101000a81548173ffffffffffffffffffffffffffffffffffffffff021916908373ffffffffffffffffffffffffffffffffffffffff16021790555082600360006101000a81548173ffffffffffffffffffffffffffffffffffffffff021916908373ffffffffffffffffffffffffffffffffffffffff16021790555081600460006101000a81548173ffffffffffffffffffffffffffffffffffffffff021916908373ffffffffffffffffffffffffffffffffffffffff16021790555080600560006101000a81548173ffffffffffffffffffffffffffffffffffffffff021916908373ffffffffffffffffffffffffffffffffffffffff16021790555050505050620003a2565b60008060009054906101000a900473ffffffffffffffffffffffffffffffffffffffff169050816000806101000a81548173ffffffffffffffffffffffffffffffffffffffff021916908373ffffffffffffffffffffffffffffffffffffffff1602179055508173ffffffffffffffffffffffffffffffffffffffff168173ffffffffffffffffffffffffffffffffffffffff167f8be0079c531659141344cd1fd0a4f28419497f9722a3daafe3b4186f6b6457e060405160405180910390a35050565b600080fd5b600073ffffffffffffffffffffffffffffffffffffffff82169050919050565b6000620002ca826200029d565b9050919050565b620002dc81620002bd565b8114620002e857600080fd5b50565b600081519050620002fc81620002d1565b92915050565b600080600080608085870312156200031f576200031e62000298565b5b60006200032f87828801620002eb565b94505060206200034287828801620002eb565b93505060406200035587828801620002eb565b92505060606200036887828801620002eb565b91505092959194509250565b6200037f81620002bd565b82525050565b60006020820190506200039c600083018462000374565b92915050565b6124ac80620003b26000396000f3fe608060405234801561001057600080fd5b50600436106101215760003560e01c80638da5cb5b116100ad578063df6c39fb11610071578063df6c39fb146102d4578063e6975964146102f0578063f211c3d014610320578063f2fde38b14610350578063fc0c546a1461036c57610121565b80638da5cb5b1461022d5780639168ae721461024b578063a694fc3a1461027c578063d470316b14610298578063d61a47f1146102b657610121565b80636f28d688116100f45780636f28d688146101ad5780636ff1c9bc146101cb578063715018a6146101e75780637f2bfc64146101f1578063817b1cd21461020f57610121565b8063259cd0eb146101265780632e17de781461015657806331d7a262146101725780634641257d146101a3575b600080fd5b610140600480360381019061013b9190611cc0565b61038a565b60405161014d9190611d06565b60405180910390f35b610170600480360381019061016b9190611d4d565b610531565b005b61018c60048036038101906101879190611cc0565b610717565b60405161019a929190611d7a565b60405180910390f35b6101ab6108f0565b005b6101b5610bea565b6040516101c29190611db2565b60405180910390f35b6101e560048036038101906101e09190611cc0565b610c10565b005b6101ef610e76565b005b6101f9610e8a565b6040516102069190611d06565b60405180910390f35b610217610e97565b6040516102249190611d06565b60405180910390f35b610235610e9d565b6040516102429190611db2565b60405180910390f35b61026560048036038101906102609190611cc0565b610ec6565b604051610273929190611d7a565b60405180910390f35b61029660048036038101906102919190611d4d565b610eea565b005b6102a0611315565b6040516102ad9190611db2565b60405180910390f35b6102be61133b565b6040516102cb9190611db2565b60405180910390f35b6102ee60048036038101906102e99190611dcd565b611361565b005b61030a60048036038101906103059190611dcd565b6114d2565b6040516103179190611d06565b60405180910390f35b61033a60048036038101906103359190611cc0565b61150a565b6040516103479190611d06565b60405180910390f35b61036a60048036038101906103659190611cc0565b611659565b005b6103746116df565b6040516103819190611db2565b60405180910390f35b600080600660008473ffffffffffffffffffffffffffffffffffffffff1673ffffffffffffffffffffffffffffffffffffffff16815260200190815260200160002060000154905060006002600460009054906101000a900473ffffffffffffffffffffffffffffffffffffffff1673ffffffffffffffffffffffffffffffffffffffff16632c4e722e6040518163ffffffff1660e01b8152600401602060405180830381865afa158015610443573d6000803e3d6000fd5b505050506040513d601f19601f820116820180604052508101906104679190611e22565b600560009054906101000a900473ffffffffffffffffffffffffffffffffffffffff1673ffffffffffffffffffffffffffffffffffffffff16639168ae72876040518263ffffffff1660e01b81526004016104c29190611db2565b6040805180830381865afa1580156104de573d6000803e3d6000fd5b505050506040513d601f19601f820116820180604052508101906105029190611f30565b600001516105109190611f8c565b61051a9190611ffd565b90508181610528919061202e565b92505050919050565b610539611705565b6000811161057c576040517f08c379a0000000000000000000000000000000000000000000000000000000008152600401610573906120bf565b60405180910390fd5b6000600660003373ffffffffffffffffffffffffffffffffffffffff1673ffffffffffffffffffffffffffffffffffffffff168152602001908152602001600020905060078054905081600101541461060a576040517f08c379a00000000000000000000000000000000000000000000000000000000081526004016106019061212b565b60405180910390fd5b8060000154821115610651576040517f08c379a0000000000000000000000000000000000000000000000000000000008152600401610648906120bf565b60405180910390fd5b81816000016000828254610665919061202e565b92505081905550816008600082825461067e919061202e565b925050819055506106d23383600260009054906101000a900473ffffffffffffffffffffffffffffffffffffffff1673ffffffffffffffffffffffffffffffffffffffff1661174b9092919063ffffffff16565b7f85082129d87b2fe11527cb1b3b7a520aeb5aa6913f88a3d8757fe40d1db02fdd338360405161070392919061214b565b60405180910390a1506107146117ca565b50565b6000806000600660008573ffffffffffffffffffffffffffffffffffffffff1673ffffffffffffffffffffffffffffffffffffffff16815260200190815260200160002090506000806000836001015490505b6007805490508110156108e1576ec097ce7bc90715b34b9f10000000006007828154811061079b5761079a612174565b5b90600052602060002090600202016000600281106107bc576107bb612174565b5b0154600660008a73ffffffffffffffffffffffffffffffffffffffff1673ffffffffffffffffffffffffffffffffffffffff1681526020019081526020016000206000015461080b9190611f8c565b6108159190611ffd565b8361082091906121a3565b92506ec097ce7bc90715b34b9f10000000006007828154811061084657610845612174565b5b906000526020600020906002020160016002811061086757610866612174565b5b0154600660008a73ffffffffffffffffffffffffffffffffffffffff1673ffffffffffffffffffffffffffffffffffffffff168152602001908152602001600020600001546108b69190611f8c565b6108c09190611ffd565b826108cb91906121a3565b91506001816108da91906121a3565b905061076a565b82829550955050505050915091565b6108f8611705565b6000600660003373ffffffffffffffffffffffffffffffffffffffff1673ffffffffffffffffffffffffffffffffffffffff1681526020019081526020016000206000015490506000600660003373ffffffffffffffffffffffffffffffffffffffff1673ffffffffffffffffffffffffffffffffffffffff16815260200190815260200160002060010154905060008060005a905060006064600a8361099f9190611f8c565b6109a99190611ffd565b90505b600780549050851080156109bf5750805a115b15610aaa576ec097ce7bc90715b34b9f1000000000600786815481106109e8576109e7612174565b5b9060005260206000209060020201600060028110610a0957610a08612174565b5b015487610a169190611f8c565b610a209190611ffd565b84610a2b91906121a3565b93506ec097ce7bc90715b34b9f100000000060078681548110610a5157610a50612174565b5b9060005260206000209060020201600160028110610a7257610a71612174565b5b015487610a7f9190611f8c565b610a899190611ffd565b83610a9491906121a3565b9250600185610aa391906121a3565b94506109ac565b84600660003373ffffffffffffffffffffffffffffffffffffffff1673ffffffffffffffffffffffffffffffffffffffff168152602001908152602001600020600101819055506000841115610b4857610b473385600360009054906101000a900473ffffffffffffffffffffffffffffffffffffffff1673ffffffffffffffffffffffffffffffffffffffff1661174b9092919063ffffffff16565b5b6000831115610b9f57610b9e3384600460009054906101000a900473ffffffffffffffffffffffffffffffffffffffff1673ffffffffffffffffffffffffffffffffffffffff1661174b9092919063ffffffff16565b5b7f71bab65ced2e5750775a0613be067df48ef06cf92a496ebf7663ae0660924954338585604051610bd2939291906121d7565b60405180910390a1505050505050610be86117ca565b565b600360009054906101000a900473ffffffffffffffffffffffffffffffffffffffff1681565b610c186117d3565b600260009054906101000a900473ffffffffffffffffffffffffffffffffffffffff1673ffffffffffffffffffffffffffffffffffffffff168173ffffffffffffffffffffffffffffffffffffffff1603610ca8576040517f08c379a0000000000000000000000000000000000000000000000000000000008152600401610c9f9061225a565b60405180910390fd5b600360009054906101000a900473ffffffffffffffffffffffffffffffffffffffff1673ffffffffffffffffffffffffffffffffffffffff168173ffffffffffffffffffffffffffffffffffffffff1603610d38576040517f08c379a0000000000000000000000000000000000000000000000000000000008152600401610d2f9061225a565b60405180910390fd5b600460009054906101000a900473ffffffffffffffffffffffffffffffffffffffff1673ffffffffffffffffffffffffffffffffffffffff168173ffffffffffffffffffffffffffffffffffffffff1603610dc8576040517f08c379a0000000000000000000000000000000000000000000000000000000008152600401610dbf9061225a565b60405180910390fd5b610e73610dd3610e9d565b8273ffffffffffffffffffffffffffffffffffffffff166370a08231306040518263ffffffff1660e01b8152600401610e0c9190611db2565b602060405180830381865afa158015610e29573d6000803e3d6000fd5b505050506040513d601f19601f82011682018060405250810190610e4d9190611e22565b8373ffffffffffffffffffffffffffffffffffffffff1661174b9092919063ffffffff16565b50565b610e7e6117d3565b610e88600061185a565b565b6000600780549050905090565b60085481565b60008060009054906101000a900473ffffffffffffffffffffffffffffffffffffffff16905090565b60066020528060005260406000206000915090508060000154908060010154905082565b610ef2611705565b60008111610f35576040517f08c379a0000000000000000000000000000000000000000000000000000000008152600401610f2c906120bf565b60405180910390fd5b6000600560009054906101000a900473ffffffffffffffffffffffffffffffffffffffff1673ffffffffffffffffffffffffffffffffffffffff16639168ae72336040518263ffffffff1660e01b8152600401610f929190611db2565b6040805180830381865afa158015610fae573d6000803e3d6000fd5b505050506040513d601f19601f82011682018060405250810190610fd29190611f30565b6000015111611016576040517f08c379a000000000000000000000000000000000000000000000000000000000815260040161100d906122c6565b60405180910390fd5b6000600660003373ffffffffffffffffffffffffffffffffffffffff1673ffffffffffffffffffffffffffffffffffffffff168152602001908152602001600020905060008160000154148061107457506007805490508160010154145b6110b3576040517f08c379a00000000000000000000000000000000000000000000000000000000081526004016110aa9061212b565b60405180910390fd5b818160000160008282546110c791906121a3565b925050819055506002600460009054906101000a900473ffffffffffffffffffffffffffffffffffffffff1673ffffffffffffffffffffffffffffffffffffffff16632c4e722e6040518163ffffffff1660e01b8152600401602060405180830381865afa15801561113d573d6000803e3d6000fd5b505050506040513d601f19601f820116820180604052508101906111619190611e22565b600560009054906101000a900473ffffffffffffffffffffffffffffffffffffffff1673ffffffffffffffffffffffffffffffffffffffff16639168ae72336040518263ffffffff1660e01b81526004016111bc9190611db2565b6040805180830381865afa1580156111d8573d6000803e3d6000fd5b505050506040513d601f19601f820116820180604052508101906111fc9190611f30565b6000015161120a9190611f8c565b6112149190611ffd565b8160000154111561125a576040517f08c379a000000000000000000000000000000000000000000000000000000000815260040161125190612332565b60405180910390fd5b6007805490508160010181905550816008600082825461127a91906121a3565b925050819055506112d0333084600260009054906101000a900473ffffffffffffffffffffffffffffffffffffffff1673ffffffffffffffffffffffffffffffffffffffff1661191e909392919063ffffffff16565b7febedb8b3c678666e7f36970bc8f57abf6d8fa2e828c0da91ea5b75bf68ed101a338360405161130192919061214b565b60405180910390a1506113126117ca565b50565b600560009054906101000a900473ffffffffffffffffffffffffffffffffffffffff1681565b600460009054906101000a900473ffffffffffffffffffffffffffffffffffffffff1681565b6113696117d3565b611371611705565b60006008546ec097ce7bc90715b34b9f1000000000846113919190611f8c565b61139b9190611ffd565b905060006008546ec097ce7bc90715b34b9f1000000000846113bd9190611f8c565b6113c79190611ffd565b905060076040518060400160405280848152602001838152509080600181540180825580915050600190039060005260206000209060020201600090919091909150906002611417929190611bf6565b5061146e611423610e9d565b3086600360009054906101000a900473ffffffffffffffffffffffffffffffffffffffff1673ffffffffffffffffffffffffffffffffffffffff1661191e909392919063ffffffff16565b6114c4611479610e9d565b3085600460009054906101000a900473ffffffffffffffffffffffffffffffffffffffff1673ffffffffffffffffffffffffffffffffffffffff1661191e909392919063ffffffff16565b50506114ce6117ca565b5050565b600782815481106114e257600080fd5b906000526020600020906002020181600281106114fe57600080fd5b01600091509150505481565b60006002600460009054906101000a900473ffffffffffffffffffffffffffffffffffffffff1673ffffffffffffffffffffffffffffffffffffffff16632c4e722e6040518163ffffffff1660e01b8152600401602060405180830381865afa15801561157b573d6000803e3d6000fd5b505050506040513d601f19601f8201168201806040525081019061159f9190611e22565b600560009054906101000a900473ffffffffffffffffffffffffffffffffffffffff1673ffffffffffffffffffffffffffffffffffffffff16639168ae72856040518263ffffffff1660e01b81526004016115fa9190611db2565b6040805180830381865afa158015611616573d6000803e3d6000fd5b505050506040513d601f19601f8201168201806040525081019061163a9190611f30565b600001516116489190611f8c565b6116529190611ffd565b9050919050565b6116616117d3565b600073ffffffffffffffffffffffffffffffffffffffff168173ffffffffffffffffffffffffffffffffffffffff16036116d35760006040517f1e4fbdf70000000000000000000000000000000000000000000000000000000081526004016116ca9190611db2565b60405180910390fd5b6116dc8161185a565b50565b600260009054906101000a900473ffffffffffffffffffffffffffffffffffffffff1681565b600260015403611741576040517f3ee5aeb500000000000000000000000000000000000000000000000000000000815260040160405180910390fd5b6002600181905550565b6117c5838473ffffffffffffffffffffffffffffffffffffffff1663a9059cbb858560405160240161177e92919061214b565b604051602081830303815290604052915060e01b6020820180517bffffffffffffffffffffffffffffffffffffffffffffffffffffffff83818316178352505050506119a0565b505050565b60018081905550565b6117db611a37565b73ffffffffffffffffffffffffffffffffffffffff166117f9610e9d565b73ffffffffffffffffffffffffffffffffffffffff16146118585761181c611a37565b6040517f118cdaa700000000000000000000000000000000000000000000000000000000815260040161184f9190611db2565b60405180910390fd5b565b60008060009054906101000a900473ffffffffffffffffffffffffffffffffffffffff169050816000806101000a81548173ffffffffffffffffffffffffffffffffffffffff021916908373ffffffffffffffffffffffffffffffffffffffff1602179055508173ffffffffffffffffffffffffffffffffffffffff168173ffffffffffffffffffffffffffffffffffffffff167f8be0079c531659141344cd1fd0a4f28419497f9722a3daafe3b4186f6b6457e060405160405180910390a35050565b61199a848573ffffffffffffffffffffffffffffffffffffffff166323b872dd86868660405160240161195393929190612352565b604051602081830303815290604052915060e01b6020820180517bffffffffffffffffffffffffffffffffffffffffffffffffffffffff83818316178352505050506119a0565b50505050565b60006119cb828473ffffffffffffffffffffffffffffffffffffffff16611a3f90919063ffffffff16565b905060008151141580156119f05750808060200190518101906119ee91906123c1565b155b15611a3257826040517f5274afe7000000000000000000000000000000000000000000000000000000008152600401611a299190611db2565b60405180910390fd5b505050565b600033905090565b6060611a4d83836000611a55565b905092915050565b606081471015611a9c57306040517fcd786059000000000000000000000000000000000000000000000000000000008152600401611a939190611db2565b60405180910390fd5b6000808573ffffffffffffffffffffffffffffffffffffffff168486604051611ac5919061245f565b60006040518083038185875af1925050503d8060008114611b02576040519150601f19603f3d011682016040523d82523d6000602084013e611b07565b606091505b5091509150611b17868383611b22565b925050509392505050565b606082611b3757611b3282611bb1565b611ba9565b60008251148015611b5f575060008473ffffffffffffffffffffffffffffffffffffffff163b145b15611ba157836040517f9996b315000000000000000000000000000000000000000000000000000000008152600401611b989190611db2565b60405180910390fd5b819050611baa565b5b9392505050565b600081511115611bc45780518082602001fd5b6040517f1425ea4200000000000000000000000000000000000000000000000000000000815260040160405180910390fd5b8260028101928215611c25579160200282015b82811115611c24578251825591602001919060010190611c09565b5b509050611c329190611c36565b5090565b5b80821115611c4f576000816000905550600101611c37565b5090565b6000604051905090565b600080fd5b600073ffffffffffffffffffffffffffffffffffffffff82169050919050565b6000611c8d82611c62565b9050919050565b611c9d81611c82565b8114611ca857600080fd5b50565b600081359050611cba81611c94565b92915050565b600060208284031215611cd657611cd5611c5d565b5b6000611ce484828501611cab565b91505092915050565b6000819050919050565b611d0081611ced565b82525050565b6000602082019050611d1b6000830184611cf7565b92915050565b611d2a81611ced565b8114611d3557600080fd5b50565b600081359050611d4781611d21565b92915050565b600060208284031215611d6357611d62611c5d565b5b6000611d7184828501611d38565b91505092915050565b6000604082019050611d8f6000830185611cf7565b611d9c6020830184611cf7565b9392505050565b611dac81611c82565b82525050565b6000602082019050611dc76000830184611da3565b92915050565b60008060408385031215611de457611de3611c5d565b5b6000611df285828601611d38565b9250506020611e0385828601611d38565b9150509250929050565b600081519050611e1c81611d21565b92915050565b600060208284031215611e3857611e37611c5d565b5b6000611e4684828501611e0d565b91505092915050565b600080fd5b6000601f19601f8301169050919050565b7f4e487b7100000000000000000000000000000000000000000000000000000000600052604160045260246000fd5b611e9d82611e54565b810181811067ffffffffffffffff82111715611ebc57611ebb611e65565b5b80604052505050565b6000611ecf611c53565b9050611edb8282611e94565b919050565b600060408284031215611ef657611ef5611e4f565b5b611f006040611ec5565b90506000611f1084828501611e0d565b6000830152506020611f2484828501611e0d565b60208301525092915050565b600060408284031215611f4657611f45611c5d565b5b6000611f5484828501611ee0565b91505092915050565b7f4e487b7100000000000000000000000000000000000000000000000000000000600052601160045260246000fd5b6000611f9782611ced565b9150611fa283611ced565b9250828202611fb081611ced565b91508282048414831517611fc757611fc6611f5d565b5b5092915050565b7f4e487b7100000000000000000000000000000000000000000000000000000000600052601260045260246000fd5b600061200882611ced565b915061201383611ced565b92508261202357612022611fce565b5b828204905092915050565b600061203982611ced565b915061204483611ced565b925082820390508181111561205c5761205b611f5d565b5b92915050565b600082825260208201905092915050565b7f494e56414c49445f414d4f554e54000000000000000000000000000000000000600082015250565b60006120a9600e83612062565b91506120b482612073565b602082019050919050565b600060208201905081810360008301526120d88161209c565b9050919050565b7f50454e44494e475f424f4f53545f524557415244530000000000000000000000600082015250565b6000612115601583612062565b9150612120826120df565b602082019050919050565b6000602082019050818103600083015261214481612108565b9050919050565b60006040820190506121606000830185611da3565b61216d6020830184611cf7565b9392505050565b7f4e487b7100000000000000000000000000000000000000000000000000000000600052603260045260246000fd5b60006121ae82611ced565b91506121b983611ced565b92508282019050808211156121d1576121d0611f5d565b5b92915050565b60006060820190506121ec6000830186611da3565b6121f96020830185611cf7565b6122066040830184611cf7565b949350505050565b7f43414e4e4f545f57495448445241575f4c4f434b45445f544f4b454e00000000600082015250565b6000612244601c83612062565b915061224f8261220e565b602082019050919050565b6000602082019050818103600083015261227381612237565b9050919050565b7f4d494e494d554d5f424f4f53545f414d4f554e54000000000000000000000000600082015250565b60006122b0601483612062565b91506122bb8261227a565b602082019050919050565b600060208201905081810360008301526122df816122a3565b9050919050565b7f4d41585f424f4f53545f414d4f554e5400000000000000000000000000000000600082015250565b600061231c601083612062565b9150612327826122e6565b602082019050919050565b6000602082019050818103600083015261234b8161230f565b9050919050565b60006060820190506123676000830186611da3565b6123746020830185611da3565b6123816040830184611cf7565b949350505050565b60008115159050919050565b61239e81612389565b81146123a957600080fd5b50565b6000815190506123bb81612395565b92915050565b6000602082840312156123d7576123d6611c5d565b5b60006123e5848285016123ac565b91505092915050565b600081519050919050565b600081905092915050565b60005b83811015612422578082015181840152602081019050612407565b60008484015250505050565b6000612439826123ee565b61244381856123f9565b9350612453818560208601612404565b80840191505092915050565b600061246b828461242e565b91508190509291505056fea26469706673582212204d7019b2944bf5a925f7f3145d99384509032e4964d9661baf48338ff740d01964736f6c63430008180033",
  "linkReferences": {},
  "deployedLinkReferences": {}
}