{
  "_format": "hh-sol-artifact-1",
  "contractName": "BoostingSplitter",
  "sourceName": "contracts/BoostingSplitter.sol",
  "abi": [
    {
      "inputs": [
        {
          "internalType": "address",
          "name": "_ldt",
          "type": "address"
        },
        {
          "internalType": "address",
          "name": "_tbb",
          "type": "address"
        },
        {
          "internalType": "address",
          "name": "_tbs",
          "type": "address"
        },
        {
          "internalType": "address",
          "name": "_tbg",
          "type": "address"
        },
        {
          "internalType": "address[]",
          "name": "_boosters",
          "type": "address[]"
        }
      ],
      "stateMutability": "nonpayable",
      "type": "constructor"
    },
    {
      "inputs": [
        {
          "internalType": "address",
          "name": "owner",
          "type": "address"
        }
      ],
      "name": "OwnableInvalidOwner",
      "type": "error"
    },
    {
      "inputs": [
        {
          "internalType": "address",
          "name": "account",
          "type": "address"
        }
      ],
      "name": "OwnableUnauthorizedAccount",
      "type": "error"
    },
    {
      "anonymous": false,
      "inputs": [
        {
          "indexed": true,
          "internalType": "address",
          "name": "previousOwner",
          "type": "address"
        },
        {
          "indexed": true,
          "internalType": "address",
          "name": "newOwner",
          "type": "address"
        }
      ],
      "name": "OwnershipTransferStarted",
      "type": "event"
    },
    {
      "anonymous": false,
      "inputs": [
        {
          "indexed": true,
          "internalType": "address",
          "name": "previousOwner",
          "type": "address"
        },
        {
          "indexed": true,
          "internalType": "address",
          "name": "newOwner",
          "type": "address"
        }
      ],
      "name": "OwnershipTransferred",
      "type": "event"
    },
    {
      "inputs": [],
      "name": "MAX_RATE",
      "outputs": [
        {
          "internalType": "uint256",
          "name": "",
          "type": "uint256"
        }
      ],
      "stateMutability": "view",
      "type": "function"
    },
    {
      "inputs": [],
      "name": "MIN_RATE",
      "outputs": [
        {
          "internalType": "uint256",
          "name": "",
          "type": "uint256"
        }
      ],
      "stateMutability": "view",
      "type": "function"
    },
    {
      "inputs": [],
      "name": "acceptOwnership",
      "outputs": [],
      "stateMutability": "nonpayable",
      "type": "function"
    },
    {
      "inputs": [
        {
          "internalType": "uint256",
          "name": "",
          "type": "uint256"
        }
      ],
      "name": "boosters",
      "outputs": [
        {
          "internalType": "address",
          "name": "",
          "type": "address"
        }
      ],
      "stateMutability": "view",
      "type": "function"
    },
    {
      "inputs": [
        {
          "internalType": "uint256",
          "name": "_ldt",
          "type": "uint256"
        },
        {
          "internalType": "uint256",
          "name": "_tb",
          "type": "uint256"
        }
      ],
      "name": "calculate",
      "outputs": [
        {
          "components": [
            {
              "components": [
                {
                  "components": [
                    {
                      "internalType": "uint256",
                      "name": "ldt",
                      "type": "uint256"
                    },
                    {
                      "internalType": "uint256",
                      "name": "tb",
                      "type": "uint256"
                    },
                    {
                      "internalType": "uint256",
                      "name": "ldtLiquidity",
                      "type": "uint256"
                    },
                    {
                      "internalType": "uint256",
                      "name": "tbLiquidity",
                      "type": "uint256"
                    }
                  ],
                  "internalType": "struct RewardsLibrary.Reward",
                  "name": "liquidity",
                  "type": "tuple"
                },
                {
                  "internalType": "uint256",
                  "name": "ldt",
                  "type": "uint256"
                },
                {
                  "internalType": "uint256",
                  "name": "tb",
                  "type": "uint256"
                }
              ],
              "internalType": "struct RewardsLibrary.Farm",
              "name": "tbb",
              "type": "tuple"
            },
            {
              "components": [
                {
                  "components": [
                    {
                      "internalType": "uint256",
                      "name": "ldt",
                      "type": "uint256"
                    },
                    {
                      "internalType": "uint256",
                      "name": "tb",
                      "type": "uint256"
                    },
                    {
                      "internalType": "uint256",
                      "name": "ldtLiquidity",
                      "type": "uint256"
                    },
                    {
                      "internalType": "uint256",
                      "name": "tbLiquidity",
                      "type": "uint256"
                    }
                  ],
                  "internalType": "struct RewardsLibrary.Reward",
                  "name": "liquidity",
                  "type": "tuple"
                },
                {
                  "internalType": "uint256",
                  "name": "ldt",
                  "type": "uint256"
                },
                {
                  "internalType": "uint256",
                  "name": "tb",
                  "type": "uint256"
                }
              ],
              "internalType": "struct RewardsLibrary.Farm",
              "name": "tbs",
              "type": "tuple"
            },
            {
              "components": [
                {
                  "components": [
                    {
                      "internalType": "uint256",
                      "name": "ldt",
                      "type": "uint256"
                    },
                    {
                      "internalType": "uint256",
                      "name": "tb",
                      "type": "uint256"
                    },
                    {
                      "internalType": "uint256",
                      "name": "ldtLiquidity",
                      "type": "uint256"
                    },
                    {
                      "internalType": "uint256",
                      "name": "tbLiquidity",
                      "type": "uint256"
                    }
                  ],
                  "internalType": "struct RewardsLibrary.Reward",
                  "name": "liquidity",
                  "type": "tuple"
                },
                {
                  "internalType": "uint256",
                  "name": "ldt",
                  "type": "uint256"
                },
                {
                  "internalType": "uint256",
                  "name": "tb",
                  "type": "uint256"
                }
              ],
              "internalType": "struct RewardsLibrary.Farm",
              "name": "tbg",
              "type": "tuple"
            }
          ],
          "internalType": "struct RewardsLibrary.RewardsAmounts",
          "name": "rewards",
          "type": "tuple"
        }
      ],
      "stateMutability": "nonpayable",
      "type": "function"
    },
    {
      "inputs": [
        {
          "internalType": "address",
          "name": "_staker",
          "type": "address"
        },
        {
          "internalType": "uint256",
          "name": "_tokenRate",
          "type": "uint256"
        },
        {
          "components": [
            {
              "internalType": "uint256",
              "name": "ldt",
              "type": "uint256"
            },
            {
              "internalType": "uint256",
              "name": "tb",
              "type": "uint256"
            }
          ],
          "internalType": "struct RewardsLibrary.RewardRate",
          "name": "_rate",
          "type": "tuple"
        }
      ],
      "name": "calculateReward",
      "outputs": [
        {
          "components": [
            {
              "internalType": "uint256",
              "name": "ldt",
              "type": "uint256"
            },
            {
              "internalType": "uint256",
              "name": "tb",
              "type": "uint256"
            },
            {
              "internalType": "uint256",
              "name": "ldtLiquidity",
              "type": "uint256"
            },
            {
              "internalType": "uint256",
              "name": "tbLiquidity",
              "type": "uint256"
            }
          ],
          "internalType": "struct RewardsLibrary.Reward",
          "name": "",
          "type": "tuple"
        }
      ],
      "stateMutability": "view",
      "type": "function"
    },
    {
      "inputs": [],
      "name": "ldt",
      "outputs": [
        {
          "internalType": "address",
          "name": "",
          "type": "address"
        }
      ],
      "stateMutability": "view",
      "type": "function"
    },
    {
      "inputs": [],
      "name": "owner",
      "outputs": [
        {
          "internalType": "address",
          "name": "",
          "type": "address"
        }
      ],
      "stateMutability": "view",
      "type": "function"
    },
    {
      "inputs": [],
      "name": "pendingOwner",
      "outputs": [
        {
          "internalType": "address",
          "name": "",
          "type": "address"
        }
      ],
      "stateMutability": "view",
      "type": "function"
    },
    {
      "inputs": [],
      "name": "renounceOwnership",
      "outputs": [],
      "stateMutability": "nonpayable",
      "type": "function"
    },
    {
      "inputs": [
        {
          "components": [
            {
              "internalType": "uint256",
              "name": "ldt",
              "type": "uint256"
            },
            {
              "internalType": "uint256",
              "name": "tb",
              "type": "uint256"
            }
          ],
          "internalType": "struct RewardsLibrary.RewardRate",
          "name": "_tbbRewardRate",
          "type": "tuple"
        }
      ],
      "name": "setTbbRewardRate",
      "outputs": [],
      "stateMutability": "nonpayable",
      "type": "function"
    },
    {
      "inputs": [
        {
          "components": [
            {
              "internalType": "uint256",
              "name": "ldt",
              "type": "uint256"
            },
            {
              "internalType": "uint256",
              "name": "tb",
              "type": "uint256"
            }
          ],
          "internalType": "struct RewardsLibrary.RewardRate",
          "name": "_tbgRewardRate",
          "type": "tuple"
        }
      ],
      "name": "setTbgRewardRate",
      "outputs": [],
      "stateMutability": "nonpayable",
      "type": "function"
    },
    {
      "inputs": [
        {
          "components": [
            {
              "internalType": "uint256",
              "name": "ldt",
              "type": "uint256"
            },
            {
              "internalType": "uint256",
              "name": "tb",
              "type": "uint256"
            }
          ],
          "internalType": "struct RewardsLibrary.RewardRate",
          "name": "_tbsRewardRate",
          "type": "tuple"
        }
      ],
      "name": "setTbsRewardRate",
      "outputs": [],
      "stateMutability": "nonpayable",
      "type": "function"
    },
    {
      "inputs": [],
      "name": "tbb",
      "outputs": [
        {
          "internalType": "address",
          "name": "",
          "type": "address"
        }
      ],
      "stateMutability": "view",
      "type": "function"
    },
    {
      "inputs": [],
      "name": "tbbRewardRate",
      "outputs": [
        {
          "internalType": "uint256",
          "name": "ldt",
          "type": "uint256"
        },
        {
          "internalType": "uint256",
          "name": "tb",
          "type": "uint256"
        }
      ],
      "stateMutability": "view",
      "type": "function"
    },
    {
      "inputs": [],
      "name": "tbg",
      "outputs": [
        {
          "internalType": "address",
          "name": "",
          "type": "address"
        }
      ],
      "stateMutability": "view",
      "type": "function"
    },
    {
      "inputs": [],
      "name": "tbgRewardRate",
      "outputs": [
        {
          "internalType": "uint256",
          "name": "ldt",
          "type": "uint256"
        },
        {
          "internalType": "uint256",
          "name": "tb",
          "type": "uint256"
        }
      ],
      "stateMutability": "view",
      "type": "function"
    },
    {
      "inputs": [],
      "name": "tbs",
      "outputs": [
        {
          "internalType": "address",
          "name": "",
          "type": "address"
        }
      ],
      "stateMutability": "view",
      "type": "function"
    },
    {
      "inputs": [],
      "name": "tbsRewardRate",
      "outputs": [
        {
          "internalType": "uint256",
          "name": "ldt",
          "type": "uint256"
        },
        {
          "internalType": "uint256",
          "name": "tb",
          "type": "uint256"
        }
      ],
      "stateMutability": "view",
      "type": "function"
    },
    {
      "inputs": [
        {
          "internalType": "address",
          "name": "newOwner",
          "type": "address"
        }
      ],
      "name": "transferOwnership",
      "outputs": [],
      "stateMutability": "nonpayable",
      "type": "function"
    }
  ],
  "bytecode": "0x6080604052604051806040016040528060c8815260200160c881525060076000820151816000015560208201518160010155505060405180604001604052806101f481526020016101f481525060096000820151816000015560208201518160010155505060405180604001604052806103e881526020016103e8815250600b60008201518160000155602082015181600101555050348015620000a257600080fd5b506040516200238f3803806200238f8339818101604052810190620000c8919062000611565b33600073ffffffffffffffffffffffffffffffffffffffff168173ffffffffffffffffffffffffffffffffffffffff16036200013e5760006040517f1e4fbdf7000000000000000000000000000000000000000000000000000000008152600401620001359190620006c9565b60405180910390fd5b6200014f816200027860201b60201c565b5084600260006101000a81548173ffffffffffffffffffffffffffffffffffffffff021916908373ffffffffffffffffffffffffffffffffffffffff16021790555083600360006101000a81548173ffffffffffffffffffffffffffffffffffffffff021916908373ffffffffffffffffffffffffffffffffffffffff16021790555082600460006101000a81548173ffffffffffffffffffffffffffffffffffffffff021916908373ffffffffffffffffffffffffffffffffffffffff16021790555081600560006101000a81548173ffffffffffffffffffffffffffffffffffffffff021916908373ffffffffffffffffffffffffffffffffffffffff16021790555080600690805190602001906200026c92919062000375565b505050505050620006e6565b600160006101000a81549073ffffffffffffffffffffffffffffffffffffffff0219169055620002ae81620002b160201b60201c565b50565b60008060009054906101000a900473ffffffffffffffffffffffffffffffffffffffff169050816000806101000a81548173ffffffffffffffffffffffffffffffffffffffff021916908373ffffffffffffffffffffffffffffffffffffffff1602179055508173ffffffffffffffffffffffffffffffffffffffff168173ffffffffffffffffffffffffffffffffffffffff167f8be0079c531659141344cd1fd0a4f28419497f9722a3daafe3b4186f6b6457e060405160405180910390a35050565b828054828255906000526020600020908101928215620003f1579160200282015b82811115620003f05782518260006101000a81548173ffffffffffffffffffffffffffffffffffffffff021916908373ffffffffffffffffffffffffffffffffffffffff1602179055509160200191906001019062000396565b5b50905062000400919062000404565b5090565b5b808211156200041f57600081600090555060010162000405565b5090565b6000604051905090565b600080fd5b600080fd5b600073ffffffffffffffffffffffffffffffffffffffff82169050919050565b6000620004648262000437565b9050919050565b620004768162000457565b81146200048257600080fd5b50565b60008151905062000496816200046b565b92915050565b600080fd5b6000601f19601f8301169050919050565b7f4e487b7100000000000000000000000000000000000000000000000000000000600052604160045260246000fd5b620004ec82620004a1565b810181811067ffffffffffffffff821117156200050e576200050d620004b2565b5b80604052505050565b60006200052362000423565b9050620005318282620004e1565b919050565b600067ffffffffffffffff821115620005545762000553620004b2565b5b602082029050602081019050919050565b600080fd5b6000620005816200057b8462000536565b62000517565b90508083825260208201905060208402830185811115620005a757620005a662000565565b5b835b81811015620005d45780620005bf888262000485565b845260208401935050602081019050620005a9565b5050509392505050565b600082601f830112620005f657620005f56200049c565b5b8151620006088482602086016200056a565b91505092915050565b600080600080600060a0868803121562000630576200062f6200042d565b5b6000620006408882890162000485565b9550506020620006538882890162000485565b9450506040620006668882890162000485565b9350506060620006798882890162000485565b925050608086015167ffffffffffffffff8111156200069d576200069c62000432565b5b620006ab88828901620005de565b9150509295509295909350565b620006c38162000457565b82525050565b6000602082019050620006e06000830184620006b8565b92915050565b611c9980620006f66000396000f3fe608060405234801561001057600080fd5b506004361061012c5760003560e01c80638da5cb5b116100ad578063c24dbebd11610071578063c24dbebd14610300578063d819bfef1461031e578063e30c39781461033c578063eb6075861461035a578063f2fde38b146103765761012c565b80638da5cb5b1461025c5780638dfa43631461027a578063903bf98b146102aa578063a45667f4146102c8578063b7f7de16146102e45761012c565b806370a53926116100f457806370a53926146101db57806370cd22ae146101fa578063715018a61461022a57806379ba5097146102345780637dad91151461023e5761012c565b80632c24650114610131578063353cb24a1461014f57806338cd6c0f1461017f5780634eecf1fd1461019e57806350c2161b146101bd575b600080fd5b610139610392565b604051610146919061157d565b60405180910390f35b610169600480360381019061016491906116ea565b6103b8565b60405161017691906117a1565b60405180910390f35b6101876104ae565b6040516101959291906117cb565b60405180910390f35b6101a66104c0565b6040516101b49291906117cb565b60405180910390f35b6101c56104d2565b6040516101d2919061157d565b60405180910390f35b6101e36104f8565b6040516101f19291906117cb565b60405180910390f35b610214600480360381019061020f91906117f4565b61050a565b604051610221919061157d565b60405180910390f35b610232610549565b005b61023c61055d565b005b6102466105ec565b604051610253919061157d565b60405180910390f35b610264610612565b604051610271919061157d565b60405180910390f35b610294600480360381019061028f9190611821565b61063b565b6040516102a1919061193c565b60405180910390f35b6102b26110cf565b6040516102bf919061157d565b60405180910390f35b6102e260048036038101906102dd9190611958565b6110f5565b005b6102fe60048036038101906102f99190611958565b61111a565b005b61030861113f565b6040516103159190611985565b60405180910390f35b610326611146565b6040516103339190611985565b60405180910390f35b61034461114b565b604051610351919061157d565b60405180910390f35b610374600480360381019061036f9190611958565b611175565b005b610390600480360381019061038b91906119a0565b61119a565b005b600360009054906101000a900473ffffffffffffffffffffffffffffffffffffffff1681565b6103c06114b0565b60008473ffffffffffffffffffffffffffffffffffffffff1663817b1cd26040518163ffffffff1660e01b8152600401602060405180830381865afa15801561040d573d6000803e3d6000fd5b505050506040513d601f19601f8201168201806040525081019061043191906119e2565b90506040518060800160405280620186a08560000151846104529190611a3e565b61045c9190611aaf565b8152602001620186a0856020015187856104769190611aaf565b6104809190611a3e565b61048a9190611aaf565b815260200182815260200185836104a19190611aaf565b8152509150509392505050565b600b8060000154908060010154905082565b60078060000154908060010154905082565b600260009054906101000a900473ffffffffffffffffffffffffffffffffffffffff1681565b60098060000154908060010154905082565b6006818154811061051a57600080fd5b906000526020600020016000915054906101000a900473ffffffffffffffffffffffffffffffffffffffff1681565b610551611247565b61055b60006112ce565b565b60006105676112ff565b90508073ffffffffffffffffffffffffffffffffffffffff1661058861114b565b73ffffffffffffffffffffffffffffffffffffffff16146105e057806040517f118cdaa70000000000000000000000000000000000000000000000000000000081526004016105d7919061157d565b60405180910390fd5b6105e9816112ce565b50565b600560009054906101000a900473ffffffffffffffffffffffffffffffffffffffff1681565b60008060009054906101000a900473ffffffffffffffffffffffffffffffffffffffff16905090565b6106436114d8565b600060646014846106549190611a3e565b61065e9190611aaf565b905060006064601e856106719190611a3e565b61067b9190611aaf565b9050600081838661068c9190611ae0565b6106969190611ae0565b905061079460066000815481106106b0576106af611b14565b5b9060005260206000200160009054906101000a900473ffffffffffffffffffffffffffffffffffffffff16600360009054906101000a900473ffffffffffffffffffffffffffffffffffffffff1673ffffffffffffffffffffffffffffffffffffffff16632c4e722e6040518163ffffffff1660e01b81526004016020604051808303816000875af115801561074a573d6000803e3d6000fd5b505050506040513d601f19601f8201168201806040525081019061076e91906119e2565b6007604051806040016040529081600082015481526020016001820154815250506103b8565b84600001516000018190525061089c60066001815481106107b8576107b7611b14565b5b9060005260206000200160009054906101000a900473ffffffffffffffffffffffffffffffffffffffff16600460009054906101000a900473ffffffffffffffffffffffffffffffffffffffff1673ffffffffffffffffffffffffffffffffffffffff16632c4e722e6040518163ffffffff1660e01b81526004016020604051808303816000875af1158015610852573d6000803e3d6000fd5b505050506040513d601f19601f8201168201806040525081019061087691906119e2565b6009604051806040016040529081600082015481526020016001820154815250506103b8565b8460200151600001819052506109a460066002815481106108c0576108bf611b14565b5b9060005260206000200160009054906101000a900473ffffffffffffffffffffffffffffffffffffffff16600560009054906101000a900473ffffffffffffffffffffffffffffffffffffffff1673ffffffffffffffffffffffffffffffffffffffff16632c4e722e6040518163ffffffff1660e01b81526004016020604051808303816000875af115801561095a573d6000803e3d6000fd5b505050506040513d601f19601f8201168201806040525081019061097e91906119e2565b600b604051806040016040529081600082015481526020016001820154815250506103b8565b846040015160000181905250610a086040518060400160405280600b81526020017f726577617264732e7462620000000000000000000000000000000000000000008152508560000151600001516040015186600001516000015160600151611307565b610a606040518060400160405280600b81526020017f726577617264732e7462730000000000000000000000000000000000000000008152508560200151600001516040015186602001516000015160600151611307565b610ab86040518060400160405280600b81526020017f726577617264732e7462670000000000000000000000000000000000000000008152508560400151600001516040015186604001516000015160600151611307565b6000846040015160000151600001518560200151600001516000015186600001516000015160000151610aeb9190611b43565b610af59190611b43565b9050610b376040518060400160405280600381526020017f6c647400000000000000000000000000000000000000000000000000000000008152508289611307565b86811115610c02576000856000015160000151604001519050600086602001516000015160400151905060008760400151600001516040015190506000818385610b819190611b43565b610b8b9190611b43565b9050808b85610b9a9190611a3e565b610ba49190611aaf565b89600001516020018181525050808b84610bbe9190611a3e565b610bc89190611aaf565b89602001516020018181525050808b83610be29190611a3e565b610bec9190611aaf565b8960400151602001818152505050505050610c51565b8460000151600001516000015185600001516020018181525050846020015160000151600001518560200151602001818152505084604001516000015160000151856040015160200181815250505b600360009054906101000a900473ffffffffffffffffffffffffffffffffffffffff1673ffffffffffffffffffffffffffffffffffffffff16632c4e722e6040518163ffffffff1660e01b81526004016020604051808303816000875af1158015610cc0573d6000803e3d6000fd5b505050506040513d601f19601f82011682018060405250810190610ce491906119e2565b84610cef9190611aaf565b856000015160000151602001511115610db257600360009054906101000a900473ffffffffffffffffffffffffffffffffffffffff1673ffffffffffffffffffffffffffffffffffffffff16632c4e722e6040518163ffffffff1660e01b81526004016020604051808303816000875af1158015610d71573d6000803e3d6000fd5b505050506040513d601f19601f82011682018060405250810190610d9591906119e2565b84610da09190611aaf565b85600001516040018181525050610dcd565b84600001516000015160200151856000015160400181815250505b600460009054906101000a900473ffffffffffffffffffffffffffffffffffffffff1673ffffffffffffffffffffffffffffffffffffffff16632c4e722e6040518163ffffffff1660e01b81526004016020604051808303816000875af1158015610e3c573d6000803e3d6000fd5b505050506040513d601f19601f82011682018060405250810190610e6091906119e2565b83610e6b9190611aaf565b856020015160000151602001511115610f2e57600460009054906101000a900473ffffffffffffffffffffffffffffffffffffffff1673ffffffffffffffffffffffffffffffffffffffff16632c4e722e6040518163ffffffff1660e01b81526004016020604051808303816000875af1158015610eed573d6000803e3d6000fd5b505050506040513d601f19601f82011682018060405250810190610f1191906119e2565b83610f1c9190611aaf565b85602001516040018181525050610f49565b84602001516000015160200151856020015160400181815250505b600560009054906101000a900473ffffffffffffffffffffffffffffffffffffffff1673ffffffffffffffffffffffffffffffffffffffff16632c4e722e6040518163ffffffff1660e01b81526004016020604051808303816000875af1158015610fb8573d6000803e3d6000fd5b505050506040513d601f19601f82011682018060405250810190610fdc91906119e2565b82610fe79190611aaf565b8560400151600001516020015111156110aa57600560009054906101000a900473ffffffffffffffffffffffffffffffffffffffff1673ffffffffffffffffffffffffffffffffffffffff16632c4e722e6040518163ffffffff1660e01b81526004016020604051808303816000875af1158015611069573d6000803e3d6000fd5b505050506040513d601f19601f8201168201806040525081019061108d91906119e2565b826110989190611aaf565b856040015160400181815250506110c5565b84604001516000015160200151856040015160400181815250505b5050505092915050565b600460009054906101000a900473ffffffffffffffffffffffffffffffffffffffff1681565b6110fd611247565b80600b600082015181600001556020820151816001015590505050565b611122611247565b806007600082015181600001556020820151816001015590505050565b620186a081565b600181565b6000600160009054906101000a900473ffffffffffffffffffffffffffffffffffffffff16905090565b61117d611247565b806009600082015181600001556020820151816001015590505050565b6111a2611247565b80600160006101000a81548173ffffffffffffffffffffffffffffffffffffffff021916908373ffffffffffffffffffffffffffffffffffffffff1602179055508073ffffffffffffffffffffffffffffffffffffffff16611202610612565b73ffffffffffffffffffffffffffffffffffffffff167f38d16b8cac22d99fc7c124b9cd0de2d3fa1faef420bfe791d8c362d765e2270060405160405180910390a350565b61124f6112ff565b73ffffffffffffffffffffffffffffffffffffffff1661126d610612565b73ffffffffffffffffffffffffffffffffffffffff16146112cc576112906112ff565b6040517f118cdaa70000000000000000000000000000000000000000000000000000000081526004016112c3919061157d565b60405180910390fd5b565b600160006101000a81549073ffffffffffffffffffffffffffffffffffffffff02191690556112fc816113a6565b50565b600033905090565b6113a183838360405160240161131f93929190611bf6565b6040516020818303038152906040527fca47c4eb000000000000000000000000000000000000000000000000000000007bffffffffffffffffffffffffffffffffffffffffffffffffffffffff19166020820180517bffffffffffffffffffffffffffffffffffffffffffffffffffffffff838183161783525050505061146a565b505050565b60008060009054906101000a900473ffffffffffffffffffffffffffffffffffffffff169050816000806101000a81548173ffffffffffffffffffffffffffffffffffffffff021916908373ffffffffffffffffffffffffffffffffffffffff1602179055508173ffffffffffffffffffffffffffffffffffffffff168173ffffffffffffffffffffffffffffffffffffffff167f8be0079c531659141344cd1fd0a4f28419497f9722a3daafe3b4186f6b6457e060405160405180910390a35050565b611481816114796114846114a5565b63ffffffff16565b50565b60006a636f6e736f6c652e6c6f679050600080835160208501845afa505050565b61150b819050919050565b6040518060800160405280600081526020016000815260200160008152602001600081525090565b60405180606001604052806114eb611515565b81526020016114f8611515565b8152602001611505611515565b81525090565b611513611c34565b565b60405180606001604052806115286114b0565b815260200160008152602001600081525090565b600073ffffffffffffffffffffffffffffffffffffffff82169050919050565b60006115678261153c565b9050919050565b6115778161155c565b82525050565b6000602082019050611592600083018461156e565b92915050565b6000604051905090565b600080fd5b6115b08161155c565b81146115bb57600080fd5b50565b6000813590506115cd816115a7565b92915050565b6000819050919050565b6115e6816115d3565b81146115f157600080fd5b50565b600081359050611603816115dd565b92915050565b600080fd5b6000601f19601f8301169050919050565b7f4e487b7100000000000000000000000000000000000000000000000000000000600052604160045260246000fd5b6116578261160e565b810181811067ffffffffffffffff821117156116765761167561161f565b5b80604052505050565b6000611689611598565b9050611695828261164e565b919050565b6000604082840312156116b0576116af611609565b5b6116ba604061167f565b905060006116ca848285016115f4565b60008301525060206116de848285016115f4565b60208301525092915050565b600080600060808486031215611703576117026115a2565b5b6000611711868287016115be565b9350506020611722868287016115f4565b92505060406117338682870161169a565b9150509250925092565b611746816115d3565b82525050565b608082016000820151611762600085018261173d565b506020820151611775602085018261173d565b506040820151611788604085018261173d565b50606082015161179b606085018261173d565b50505050565b60006080820190506117b6600083018461174c565b92915050565b6117c5816115d3565b82525050565b60006040820190506117e060008301856117bc565b6117ed60208301846117bc565b9392505050565b60006020828403121561180a576118096115a2565b5b6000611818848285016115f4565b91505092915050565b60008060408385031215611838576118376115a2565b5b6000611846858286016115f4565b9250506020611857858286016115f4565b9150509250929050565b608082016000820151611877600085018261173d565b50602082015161188a602085018261173d565b50604082015161189d604085018261173d565b5060608201516118b0606085018261173d565b50505050565b60c0820160008201516118cc6000850182611861565b5060208201516118df608085018261173d565b5060408201516118f260a085018261173d565b50505050565b6102408201600082015161190f60008501826118b6565b50602082015161192260c08501826118b6565b5060408201516119366101808501826118b6565b50505050565b60006102408201905061195260008301846118f8565b92915050565b60006040828403121561196e5761196d6115a2565b5b600061197c8482850161169a565b91505092915050565b600060208201905061199a60008301846117bc565b92915050565b6000602082840312156119b6576119b56115a2565b5b60006119c4848285016115be565b91505092915050565b6000815190506119dc816115dd565b92915050565b6000602082840312156119f8576119f76115a2565b5b6000611a06848285016119cd565b91505092915050565b7f4e487b7100000000000000000000000000000000000000000000000000000000600052601160045260246000fd5b6000611a49826115d3565b9150611a54836115d3565b9250828202611a62816115d3565b91508282048414831517611a7957611a78611a0f565b5b5092915050565b7f4e487b7100000000000000000000000000000000000000000000000000000000600052601260045260246000fd5b6000611aba826115d3565b9150611ac5836115d3565b925082611ad557611ad4611a80565b5b828204905092915050565b6000611aeb826115d3565b9150611af6836115d3565b9250828203905081811115611b0e57611b0d611a0f565b5b92915050565b7f4e487b7100000000000000000000000000000000000000000000000000000000600052603260045260246000fd5b6000611b4e826115d3565b9150611b59836115d3565b9250828201905080821115611b7157611b70611a0f565b5b92915050565b600081519050919050565b600082825260208201905092915050565b60005b83811015611bb1578082015181840152602081019050611b96565b60008484015250505050565b6000611bc882611b77565b611bd28185611b82565b9350611be2818560208601611b93565b611beb8161160e565b840191505092915050565b60006060820190508181036000830152611c108186611bbd565b9050611c1f60208301856117bc565b611c2c60408301846117bc565b949350505050565b7f4e487b7100000000000000000000000000000000000000000000000000000000600052605160045260246000fdfea2646970667358221220900b8c79be7e9c07cb2c16bb9dae134a78772d3802a7b5eb2d47ee95cd666ed964736f6c63430008180033",
  "linkReferences": {},
  "deployedLinkReferences": {}
}