{
  "_format": "hh-sol-artifact-1",
  "contractName": "BoostingStaker",
  "sourceName": "contracts/BoostingStaker.sol",
  "abi": [
    {
      "inputs": [
        {
          "internalType": "address",
          "name": "_token",
          "type": "address"
        },
        {
          "internalType": "address",
          "name": "_rewardToken1",
          "type": "address"
        },
        {
          "internalType": "address",
          "name": "_rewardToken2",
          "type": "address"
        },
        {
          "internalType": "address",
          "name": "_stakerAddress",
          "type": "address"
        }
      ],
      "stateMutability": "nonpayable",
      "type": "constructor"
    },
    {
      "inputs": [
        {
          "internalType": "address",
          "name": "target",
          "type": "address"
        }
      ],
      "name": "AddressEmptyCode",
      "type": "error"
    },
    {
      "inputs": [
        {
          "internalType": "address",
          "name": "account",
          "type": "address"
        }
      ],
      "name": "AddressInsufficientBalance",
      "type": "error"
    },
    {
      "inputs": [],
      "name": "FailedInnerCall",
      "type": "error"
    },
    {
      "inputs": [
        {
          "internalType": "address",
          "name": "owner",
          "type": "address"
        }
      ],
      "name": "OwnableInvalidOwner",
      "type": "error"
    },
    {
      "inputs": [
        {
          "internalType": "address",
          "name": "account",
          "type": "address"
        }
      ],
      "name": "OwnableUnauthorizedAccount",
      "type": "error"
    },
    {
      "inputs": [],
      "name": "ReentrancyGuardReentrantCall",
      "type": "error"
    },
    {
      "inputs": [
        {
          "internalType": "address",
          "name": "token",
          "type": "address"
        }
      ],
      "name": "SafeERC20FailedOperation",
      "type": "error"
    },
    {
      "anonymous": false,
      "inputs": [
        {
          "indexed": false,
          "internalType": "address",
          "name": "wallet",
          "type": "address"
        },
        {
          "indexed": false,
          "internalType": "uint256",
          "name": "amountToken1",
          "type": "uint256"
        },
        {
          "indexed": false,
          "internalType": "uint256",
          "name": "amountToken2",
          "type": "uint256"
        }
      ],
      "name": "Harvest",
      "type": "event"
    },
    {
      "anonymous": false,
      "inputs": [
        {
          "indexed": true,
          "internalType": "address",
          "name": "previousOwner",
          "type": "address"
        },
        {
          "indexed": true,
          "internalType": "address",
          "name": "newOwner",
          "type": "address"
        }
      ],
      "name": "OwnershipTransferred",
      "type": "event"
    },
    {
      "anonymous": false,
      "inputs": [
        {
          "indexed": false,
          "internalType": "address",
          "name": "wallet",
          "type": "address"
        },
        {
          "indexed": false,
          "internalType": "uint256",
          "name": "amount",
          "type": "uint256"
        }
      ],
      "name": "Stake",
      "type": "event"
    },
    {
      "anonymous": false,
      "inputs": [
        {
          "indexed": false,
          "internalType": "address",
          "name": "wallet",
          "type": "address"
        },
        {
          "indexed": false,
          "internalType": "uint256",
          "name": "amount",
          "type": "uint256"
        }
      ],
      "name": "Unstake",
      "type": "event"
    },
    {
      "inputs": [
        {
          "internalType": "uint256",
          "name": "rewardAmount1",
          "type": "uint256"
        },
        {
          "internalType": "uint256",
          "name": "rewardAmount2",
          "type": "uint256"
        }
      ],
      "name": "distributeRewards",
      "outputs": [],
      "stateMutability": "nonpayable",
      "type": "function"
    },
    {
      "inputs": [
        {
          "internalType": "address",
          "name": "tokenAddress",
          "type": "address"
        }
      ],
      "name": "emergencyWithdraw",
      "outputs": [],
      "stateMutability": "nonpayable",
      "type": "function"
    },
    {
      "inputs": [
        {
          "internalType": "address",
          "name": "_address",
          "type": "address"
        }
      ],
      "name": "getMaxBoost",
      "outputs": [
        {
          "internalType": "uint256",
          "name": "",
          "type": "uint256"
        }
      ],
      "stateMutability": "view",
      "type": "function"
    },
    {
      "inputs": [],
      "name": "harvest",
      "outputs": [],
      "stateMutability": "nonpayable",
      "type": "function"
    },
    {
      "inputs": [],
      "name": "owner",
      "outputs": [
        {
          "internalType": "address",
          "name": "",
          "type": "address"
        }
      ],
      "stateMutability": "view",
      "type": "function"
    },
    {
      "inputs": [
        {
          "internalType": "address",
          "name": "_address",
          "type": "address"
        }
      ],
      "name": "pendingRewards",
      "outputs": [
        {
          "internalType": "uint256",
          "name": "",
          "type": "uint256"
        },
        {
          "internalType": "uint256",
          "name": "",
          "type": "uint256"
        }
      ],
      "stateMutability": "view",
      "type": "function"
    },
    {
      "inputs": [],
      "name": "renounceOwnership",
      "outputs": [],
      "stateMutability": "nonpayable",
      "type": "function"
    },
    {
      "inputs": [
        {
          "internalType": "uint256",
          "name": "",
          "type": "uint256"
        },
        {
          "internalType": "uint256",
          "name": "",
          "type": "uint256"
        }
      ],
      "name": "rewardRounds",
      "outputs": [
        {
          "internalType": "uint256",
          "name": "",
          "type": "uint256"
        }
      ],
      "stateMutability": "view",
      "type": "function"
    },
    {
      "inputs": [],
      "name": "rewardRoundsLength",
      "outputs": [
        {
          "internalType": "uint256",
          "name": "",
          "type": "uint256"
        }
      ],
      "stateMutability": "view",
      "type": "function"
    },
    {
      "inputs": [],
      "name": "rewardToken1",
      "outputs": [
        {
          "internalType": "address",
          "name": "",
          "type": "address"
        }
      ],
      "stateMutability": "view",
      "type": "function"
    },
    {
      "inputs": [],
      "name": "rewardToken2",
      "outputs": [
        {
          "internalType": "address",
          "name": "",
          "type": "address"
        }
      ],
      "stateMutability": "view",
      "type": "function"
    },
    {
      "inputs": [
        {
          "internalType": "uint256",
          "name": "_amount",
          "type": "uint256"
        }
      ],
      "name": "stake",
      "outputs": [],
      "stateMutability": "nonpayable",
      "type": "function"
    },
    {
      "inputs": [],
      "name": "stakerAddress",
      "outputs": [
        {
          "internalType": "address",
          "name": "",
          "type": "address"
        }
      ],
      "stateMutability": "view",
      "type": "function"
    },
    {
      "inputs": [
        {
          "internalType": "address",
          "name": "",
          "type": "address"
        }
      ],
      "name": "stakers",
      "outputs": [
        {
          "internalType": "uint256",
          "name": "amount",
          "type": "uint256"
        },
        {
          "internalType": "uint256",
          "name": "lastRewardRound",
          "type": "uint256"
        }
      ],
      "stateMutability": "view",
      "type": "function"
    },
    {
      "inputs": [],
      "name": "token",
      "outputs": [
        {
          "internalType": "address",
          "name": "",
          "type": "address"
        }
      ],
      "stateMutability": "view",
      "type": "function"
    },
    {
      "inputs": [],
      "name": "totalStaked",
      "outputs": [
        {
          "internalType": "uint256",
          "name": "",
          "type": "uint256"
        }
      ],
      "stateMutability": "view",
      "type": "function"
    },
    {
      "inputs": [
        {
          "internalType": "address",
          "name": "newOwner",
          "type": "address"
        }
      ],
      "name": "transferOwnership",
      "outputs": [],
      "stateMutability": "nonpayable",
      "type": "function"
    },
    {
      "inputs": [
        {
          "internalType": "uint256",
          "name": "_amount",
          "type": "uint256"
        }
      ],
      "name": "unstake",
      "outputs": [],
      "stateMutability": "nonpayable",
      "type": "function"
    }
  ],
  "bytecode": "0x60806040523480156200001157600080fd5b506040516200264e3803806200264e833981810160405281019062000037919062000302565b33600073ffffffffffffffffffffffffffffffffffffffff168173ffffffffffffffffffffffffffffffffffffffff1603620000ad5760006040517f1e4fbdf7000000000000000000000000000000000000000000000000000000008152600401620000a4919062000385565b60405180910390fd5b620000be81620001d460201b60201c565b506001808190555083600260006101000a81548173ffffffffffffffffffffffffffffffffffffffff021916908373ffffffffffffffffffffffffffffffffffffffff16021790555082600360006101000a81548173ffffffffffffffffffffffffffffffffffffffff021916908373ffffffffffffffffffffffffffffffffffffffff16021790555081600460006101000a81548173ffffffffffffffffffffffffffffffffffffffff021916908373ffffffffffffffffffffffffffffffffffffffff16021790555080600560006101000a81548173ffffffffffffffffffffffffffffffffffffffff021916908373ffffffffffffffffffffffffffffffffffffffff16021790555050505050620003a2565b60008060009054906101000a900473ffffffffffffffffffffffffffffffffffffffff169050816000806101000a81548173ffffffffffffffffffffffffffffffffffffffff021916908373ffffffffffffffffffffffffffffffffffffffff1602179055508173ffffffffffffffffffffffffffffffffffffffff168173ffffffffffffffffffffffffffffffffffffffff167f8be0079c531659141344cd1fd0a4f28419497f9722a3daafe3b4186f6b6457e060405160405180910390a35050565b600080fd5b600073ffffffffffffffffffffffffffffffffffffffff82169050919050565b6000620002ca826200029d565b9050919050565b620002dc81620002bd565b8114620002e857600080fd5b50565b600081519050620002fc81620002d1565b92915050565b600080600080608085870312156200031f576200031e62000298565b5b60006200032f87828801620002eb565b94505060206200034287828801620002eb565b93505060406200035587828801620002eb565b92505060606200036887828801620002eb565b91505092959194509250565b6200037f81620002bd565b82525050565b60006020820190506200039c600083018462000374565b92915050565b61229c80620003b26000396000f3fe608060405234801561001057600080fd5b50600436106101165760003560e01c80639168ae72116100a2578063df6c39fb11610071578063df6c39fb14610299578063e6975964146102b5578063f211c3d0146102e5578063f2fde38b14610315578063fc0c546a1461033157610116565b80639168ae7214610210578063a694fc3a14610241578063d470316b1461025d578063d61a47f11461027b57610116565b80636ff1c9bc116100e95780636ff1c9bc14610190578063715018a6146101ac5780637f2bfc64146101b6578063817b1cd2146101d45780638da5cb5b146101f257610116565b80632e17de781461011b57806331d7a262146101375780634641257d146101685780636f28d68814610172575b600080fd5b61013560048036038101906101309190611a88565b61034f565b005b610151600480360381019061014c9190611b13565b6104f2565b60405161015f929190611b4f565b60405180910390f35b6101706106cb565b005b61017a6109c5565b6040516101879190611b87565b60405180910390f35b6101aa60048036038101906101a59190611b13565b6109eb565b005b6101b4610c51565b005b6101be610c65565b6040516101cb9190611ba2565b60405180910390f35b6101dc610c72565b6040516101e99190611ba2565b60405180910390f35b6101fa610c78565b6040516102079190611b87565b60405180910390f35b61022a60048036038101906102259190611b13565b610ca1565b604051610238929190611b4f565b60405180910390f35b61025b60048036038101906102569190611a88565b610cc5565b005b6102656110ad565b6040516102729190611b87565b60405180910390f35b6102836110d3565b6040516102909190611b87565b60405180910390f35b6102b360048036038101906102ae9190611bbd565b6110f9565b005b6102cf60048036038101906102ca9190611bbd565b61126a565b6040516102dc9190611ba2565b60405180910390f35b6102ff60048036038101906102fa9190611b13565b6112a2565b60405161030c9190611ba2565b60405180910390f35b61032f600480360381019061032a9190611b13565b611449565b005b6103396114cf565b6040516103469190611b87565b60405180910390f35b6103576114f5565b6000600660003373ffffffffffffffffffffffffffffffffffffffff1673ffffffffffffffffffffffffffffffffffffffff16815260200190815260200160002090506007805490508160010154146103e5576040517f08c379a00000000000000000000000000000000000000000000000000000000081526004016103dc90611c5a565b60405180910390fd5b806000015482111561042c576040517f08c379a000000000000000000000000000000000000000000000000000000000815260040161042390611cc6565b60405180910390fd5b818160000160008282546104409190611d15565b9250508190555081600860008282546104599190611d15565b925050819055506104ad3383600260009054906101000a900473ffffffffffffffffffffffffffffffffffffffff1673ffffffffffffffffffffffffffffffffffffffff1661153b9092919063ffffffff16565b7f85082129d87b2fe11527cb1b3b7a520aeb5aa6913f88a3d8757fe40d1db02fdd33836040516104de929190611d49565b60405180910390a1506104ef6115ba565b50565b6000806000600660008573ffffffffffffffffffffffffffffffffffffffff1673ffffffffffffffffffffffffffffffffffffffff16815260200190815260200160002090506000806000836001015490505b6007805490508110156106bc576ec097ce7bc90715b34b9f10000000006007828154811061057657610575611d72565b5b906000526020600020906002020160006002811061059757610596611d72565b5b0154600660008a73ffffffffffffffffffffffffffffffffffffffff1673ffffffffffffffffffffffffffffffffffffffff168152602001908152602001600020600001546105e69190611da1565b6105f09190611e12565b836105fb9190611e43565b92506ec097ce7bc90715b34b9f10000000006007828154811061062157610620611d72565b5b906000526020600020906002020160016002811061064257610641611d72565b5b0154600660008a73ffffffffffffffffffffffffffffffffffffffff1673ffffffffffffffffffffffffffffffffffffffff168152602001908152602001600020600001546106919190611da1565b61069b9190611e12565b826106a69190611e43565b91506001816106b59190611e43565b9050610545565b82829550955050505050915091565b6106d36114f5565b6000600660003373ffffffffffffffffffffffffffffffffffffffff1673ffffffffffffffffffffffffffffffffffffffff1681526020019081526020016000206000015490506000600660003373ffffffffffffffffffffffffffffffffffffffff1673ffffffffffffffffffffffffffffffffffffffff16815260200190815260200160002060010154905060008060005a905060006064600a8361077a9190611da1565b6107849190611e12565b90505b6007805490508510801561079a5750805a115b15610885576ec097ce7bc90715b34b9f1000000000600786815481106107c3576107c2611d72565b5b90600052602060002090600202016000600281106107e4576107e3611d72565b5b0154876107f19190611da1565b6107fb9190611e12565b846108069190611e43565b93506ec097ce7bc90715b34b9f10000000006007868154811061082c5761082b611d72565b5b906000526020600020906002020160016002811061084d5761084c611d72565b5b01548761085a9190611da1565b6108649190611e12565b8361086f9190611e43565b925060018561087e9190611e43565b9450610787565b84600660003373ffffffffffffffffffffffffffffffffffffffff1673ffffffffffffffffffffffffffffffffffffffff168152602001908152602001600020600101819055506000841115610923576109223385600360009054906101000a900473ffffffffffffffffffffffffffffffffffffffff1673ffffffffffffffffffffffffffffffffffffffff1661153b9092919063ffffffff16565b5b600083111561097a576109793384600460009054906101000a900473ffffffffffffffffffffffffffffffffffffffff1673ffffffffffffffffffffffffffffffffffffffff1661153b9092919063ffffffff16565b5b7f71bab65ced2e5750775a0613be067df48ef06cf92a496ebf7663ae06609249543385856040516109ad93929190611e77565b60405180910390a15050505050506109c36115ba565b565b600360009054906101000a900473ffffffffffffffffffffffffffffffffffffffff1681565b6109f36115c3565b600260009054906101000a900473ffffffffffffffffffffffffffffffffffffffff1673ffffffffffffffffffffffffffffffffffffffff168173ffffffffffffffffffffffffffffffffffffffff1603610a83576040517f08c379a0000000000000000000000000000000000000000000000000000000008152600401610a7a90611efa565b60405180910390fd5b600360009054906101000a900473ffffffffffffffffffffffffffffffffffffffff1673ffffffffffffffffffffffffffffffffffffffff168173ffffffffffffffffffffffffffffffffffffffff1603610b13576040517f08c379a0000000000000000000000000000000000000000000000000000000008152600401610b0a90611efa565b60405180910390fd5b600460009054906101000a900473ffffffffffffffffffffffffffffffffffffffff1673ffffffffffffffffffffffffffffffffffffffff168173ffffffffffffffffffffffffffffffffffffffff1603610ba3576040517f08c379a0000000000000000000000000000000000000000000000000000000008152600401610b9a90611efa565b60405180910390fd5b610c4e610bae610c78565b8273ffffffffffffffffffffffffffffffffffffffff166370a08231306040518263ffffffff1660e01b8152600401610be79190611b87565b602060405180830381865afa158015610c04573d6000803e3d6000fd5b505050506040513d601f19601f82011682018060405250810190610c289190611f2f565b8373ffffffffffffffffffffffffffffffffffffffff1661153b9092919063ffffffff16565b50565b610c596115c3565b610c63600061164a565b565b6000600780549050905090565b60085481565b60008060009054906101000a900473ffffffffffffffffffffffffffffffffffffffff16905090565b60066020528060005260406000206000915090508060000154908060010154905082565b610ccd6114f5565b6000600560009054906101000a900473ffffffffffffffffffffffffffffffffffffffff1673ffffffffffffffffffffffffffffffffffffffff16639168ae72336040518263ffffffff1660e01b8152600401610d2a9190611b87565b6040805180830381865afa158015610d46573d6000803e3d6000fd5b505050506040513d601f19601f82011682018060405250810190610d6a919061203d565b6000015111610dae576040517f08c379a0000000000000000000000000000000000000000000000000000000008152600401610da5906120b6565b60405180910390fd5b6000600660003373ffffffffffffffffffffffffffffffffffffffff1673ffffffffffffffffffffffffffffffffffffffff1681526020019081526020016000209050600081600001541480610e0c57506007805490508160010154145b610e4b576040517f08c379a0000000000000000000000000000000000000000000000000000000008152600401610e4290611c5a565b60405180910390fd5b81816000016000828254610e5f9190611e43565b925050819055506002600460009054906101000a900473ffffffffffffffffffffffffffffffffffffffff1673ffffffffffffffffffffffffffffffffffffffff16632c4e722e6040518163ffffffff1660e01b8152600401602060405180830381865afa158015610ed5573d6000803e3d6000fd5b505050506040513d601f19601f82011682018060405250810190610ef99190611f2f565b600560009054906101000a900473ffffffffffffffffffffffffffffffffffffffff1673ffffffffffffffffffffffffffffffffffffffff16639168ae72336040518263ffffffff1660e01b8152600401610f549190611b87565b6040805180830381865afa158015610f70573d6000803e3d6000fd5b505050506040513d601f19601f82011682018060405250810190610f94919061203d565b60000151610fa29190611da1565b610fac9190611e12565b81600001541115610ff2576040517f08c379a0000000000000000000000000000000000000000000000000000000008152600401610fe990612122565b60405180910390fd5b600780549050816001018190555081600860008282546110129190611e43565b92505081905550611068333084600260009054906101000a900473ffffffffffffffffffffffffffffffffffffffff1673ffffffffffffffffffffffffffffffffffffffff1661170e909392919063ffffffff16565b7febedb8b3c678666e7f36970bc8f57abf6d8fa2e828c0da91ea5b75bf68ed101a3383604051611099929190611d49565b60405180910390a1506110aa6115ba565b50565b600560009054906101000a900473ffffffffffffffffffffffffffffffffffffffff1681565b600460009054906101000a900473ffffffffffffffffffffffffffffffffffffffff1681565b6111016115c3565b6111096114f5565b60006008546ec097ce7bc90715b34b9f1000000000846111299190611da1565b6111339190611e12565b905060006008546ec097ce7bc90715b34b9f1000000000846111559190611da1565b61115f9190611e12565b9050600760405180604001604052808481526020018381525090806001815401808255809150506001900390600052602060002090600202016000909190919091509060026111af9291906119e6565b506112066111bb610c78565b3086600360009054906101000a900473ffffffffffffffffffffffffffffffffffffffff1673ffffffffffffffffffffffffffffffffffffffff1661170e909392919063ffffffff16565b61125c611211610c78565b3085600460009054906101000a900473ffffffffffffffffffffffffffffffffffffffff1673ffffffffffffffffffffffffffffffffffffffff1661170e909392919063ffffffff16565b50506112666115ba565b5050565b6007828154811061127a57600080fd5b9060005260206000209060020201816002811061129657600080fd5b01600091509150505481565b600080600660008473ffffffffffffffffffffffffffffffffffffffff1673ffffffffffffffffffffffffffffffffffffffff16815260200190815260200160002060000154905060006002600460009054906101000a900473ffffffffffffffffffffffffffffffffffffffff1673ffffffffffffffffffffffffffffffffffffffff16632c4e722e6040518163ffffffff1660e01b8152600401602060405180830381865afa15801561135b573d6000803e3d6000fd5b505050506040513d601f19601f8201168201806040525081019061137f9190611f2f565b600560009054906101000a900473ffffffffffffffffffffffffffffffffffffffff1673ffffffffffffffffffffffffffffffffffffffff16639168ae72336040518263ffffffff1660e01b81526004016113da9190611b87565b6040805180830381865afa1580156113f6573d6000803e3d6000fd5b505050506040513d601f19601f8201168201806040525081019061141a919061203d565b600001516114289190611da1565b6114329190611e12565b905081816114409190611d15565b92505050919050565b6114516115c3565b600073ffffffffffffffffffffffffffffffffffffffff168173ffffffffffffffffffffffffffffffffffffffff16036114c35760006040517f1e4fbdf70000000000000000000000000000000000000000000000000000000081526004016114ba9190611b87565b60405180910390fd5b6114cc8161164a565b50565b600260009054906101000a900473ffffffffffffffffffffffffffffffffffffffff1681565b600260015403611531576040517f3ee5aeb500000000000000000000000000000000000000000000000000000000815260040160405180910390fd5b6002600181905550565b6115b5838473ffffffffffffffffffffffffffffffffffffffff1663a9059cbb858560405160240161156e929190611d49565b604051602081830303815290604052915060e01b6020820180517bffffffffffffffffffffffffffffffffffffffffffffffffffffffff8381831617835250505050611790565b505050565b60018081905550565b6115cb611827565b73ffffffffffffffffffffffffffffffffffffffff166115e9610c78565b73ffffffffffffffffffffffffffffffffffffffff16146116485761160c611827565b6040517f118cdaa700000000000000000000000000000000000000000000000000000000815260040161163f9190611b87565b60405180910390fd5b565b60008060009054906101000a900473ffffffffffffffffffffffffffffffffffffffff169050816000806101000a81548173ffffffffffffffffffffffffffffffffffffffff021916908373ffffffffffffffffffffffffffffffffffffffff1602179055508173ffffffffffffffffffffffffffffffffffffffff168173ffffffffffffffffffffffffffffffffffffffff167f8be0079c531659141344cd1fd0a4f28419497f9722a3daafe3b4186f6b6457e060405160405180910390a35050565b61178a848573ffffffffffffffffffffffffffffffffffffffff166323b872dd86868660405160240161174393929190612142565b604051602081830303815290604052915060e01b6020820180517bffffffffffffffffffffffffffffffffffffffffffffffffffffffff8381831617835250505050611790565b50505050565b60006117bb828473ffffffffffffffffffffffffffffffffffffffff1661182f90919063ffffffff16565b905060008151141580156117e05750808060200190518101906117de91906121b1565b155b1561182257826040517f5274afe70000000000000000000000000000000000000000000000000000000081526004016118199190611b87565b60405180910390fd5b505050565b600033905090565b606061183d83836000611845565b905092915050565b60608147101561188c57306040517fcd7860590000000000000000000000000000000000000000000000000000000081526004016118839190611b87565b60405180910390fd5b6000808573ffffffffffffffffffffffffffffffffffffffff1684866040516118b5919061224f565b60006040518083038185875af1925050503d80600081146118f2576040519150601f19603f3d011682016040523d82523d6000602084013e6118f7565b606091505b5091509150611907868383611912565b925050509392505050565b60608261192757611922826119a1565b611999565b6000825114801561194f575060008473ffffffffffffffffffffffffffffffffffffffff163b145b1561199157836040517f9996b3150000000000000000000000000000000000000000000000000000000081526004016119889190611b87565b60405180910390fd5b81905061199a565b5b9392505050565b6000815111156119b45780518082602001fd5b6040517f1425ea4200000000000000000000000000000000000000000000000000000000815260040160405180910390fd5b8260028101928215611a15579160200282015b82811115611a145782518255916020019190600101906119f9565b5b509050611a229190611a26565b5090565b5b80821115611a3f576000816000905550600101611a27565b5090565b6000604051905090565b600080fd5b6000819050919050565b611a6581611a52565b8114611a7057600080fd5b50565b600081359050611a8281611a5c565b92915050565b600060208284031215611a9e57611a9d611a4d565b5b6000611aac84828501611a73565b91505092915050565b600073ffffffffffffffffffffffffffffffffffffffff82169050919050565b6000611ae082611ab5565b9050919050565b611af081611ad5565b8114611afb57600080fd5b50565b600081359050611b0d81611ae7565b92915050565b600060208284031215611b2957611b28611a4d565b5b6000611b3784828501611afe565b91505092915050565b611b4981611a52565b82525050565b6000604082019050611b646000830185611b40565b611b716020830184611b40565b9392505050565b611b8181611ad5565b82525050565b6000602082019050611b9c6000830184611b78565b92915050565b6000602082019050611bb76000830184611b40565b92915050565b60008060408385031215611bd457611bd3611a4d565b5b6000611be285828601611a73565b9250506020611bf385828601611a73565b9150509250929050565b600082825260208201905092915050565b7f50454e44494e475f424f4f53545f524557415244530000000000000000000000600082015250565b6000611c44601583611bfd565b9150611c4f82611c0e565b602082019050919050565b60006020820190508181036000830152611c7381611c37565b9050919050565b7f494e56414c49445f414d4f554e54000000000000000000000000000000000000600082015250565b6000611cb0600e83611bfd565b9150611cbb82611c7a565b602082019050919050565b60006020820190508181036000830152611cdf81611ca3565b9050919050565b7f4e487b7100000000000000000000000000000000000000000000000000000000600052601160045260246000fd5b6000611d2082611a52565b9150611d2b83611a52565b9250828203905081811115611d4357611d42611ce6565b5b92915050565b6000604082019050611d5e6000830185611b78565b611d6b6020830184611b40565b9392505050565b7f4e487b7100000000000000000000000000000000000000000000000000000000600052603260045260246000fd5b6000611dac82611a52565b9150611db783611a52565b9250828202611dc581611a52565b91508282048414831517611ddc57611ddb611ce6565b5b5092915050565b7f4e487b7100000000000000000000000000000000000000000000000000000000600052601260045260246000fd5b6000611e1d82611a52565b9150611e2883611a52565b925082611e3857611e37611de3565b5b828204905092915050565b6000611e4e82611a52565b9150611e5983611a52565b9250828201905080821115611e7157611e70611ce6565b5b92915050565b6000606082019050611e8c6000830186611b78565b611e996020830185611b40565b611ea66040830184611b40565b949350505050565b7f43414e4e4f545f57495448445241575f4c4f434b45445f544f4b454e00000000600082015250565b6000611ee4601c83611bfd565b9150611eef82611eae565b602082019050919050565b60006020820190508181036000830152611f1381611ed7565b9050919050565b600081519050611f2981611a5c565b92915050565b600060208284031215611f4557611f44611a4d565b5b6000611f5384828501611f1a565b91505092915050565b600080fd5b6000601f19601f8301169050919050565b7f4e487b7100000000000000000000000000000000000000000000000000000000600052604160045260246000fd5b611faa82611f61565b810181811067ffffffffffffffff82111715611fc957611fc8611f72565b5b80604052505050565b6000611fdc611a43565b9050611fe88282611fa1565b919050565b60006040828403121561200357612002611f5c565b5b61200d6040611fd2565b9050600061201d84828501611f1a565b600083015250602061203184828501611f1a565b60208301525092915050565b60006040828403121561205357612052611a4d565b5b600061206184828501611fed565b91505092915050565b7f4d494e494d554d5f424f4f53545f414d4f554e54000000000000000000000000600082015250565b60006120a0601483611bfd565b91506120ab8261206a565b602082019050919050565b600060208201905081810360008301526120cf81612093565b9050919050565b7f4d41585f424f4f53545f414d4f554e5400000000000000000000000000000000600082015250565b600061210c601083611bfd565b9150612117826120d6565b602082019050919050565b6000602082019050818103600083015261213b816120ff565b9050919050565b60006060820190506121576000830186611b78565b6121646020830185611b78565b6121716040830184611b40565b949350505050565b60008115159050919050565b61218e81612179565b811461219957600080fd5b50565b6000815190506121ab81612185565b92915050565b6000602082840312156121c7576121c6611a4d565b5b60006121d58482850161219c565b91505092915050565b600081519050919050565b600081905092915050565b60005b838110156122125780820151818401526020810190506121f7565b60008484015250505050565b6000612229826121de565b61223381856121e9565b93506122438185602086016121f4565b80840191505092915050565b600061225b828461221e565b91508190509291505056fea2646970667358221220b3e6f6a3a86e7dd7024ca95c5d6fbd6e4c49cf29da689296c688a11ef5e27b5564736f6c63430008180033",
  "linkReferences": {},
  "deployedLinkReferences": {}
}