{
  "_format": "hh-sol-artifact-1",
  "contractName": "BoostingStaker",
  "sourceName": "contracts/BoostingStaker.sol",
  "abi": [
    {
      "inputs": [
        {
          "internalType": "address",
          "name": "_token",
          "type": "address"
        },
        {
          "internalType": "address",
          "name": "_rewardToken1",
          "type": "address"
        },
        {
          "internalType": "address",
          "name": "_rewardToken2",
          "type": "address"
        },
        {
          "internalType": "address",
          "name": "_stakerAddress",
          "type": "address"
        }
      ],
      "stateMutability": "nonpayable",
      "type": "constructor"
    },
    {
      "inputs": [
        {
          "internalType": "address",
          "name": "target",
          "type": "address"
        }
      ],
      "name": "AddressEmptyCode",
      "type": "error"
    },
    {
      "inputs": [
        {
          "internalType": "address",
          "name": "account",
          "type": "address"
        }
      ],
      "name": "AddressInsufficientBalance",
      "type": "error"
    },
    {
      "inputs": [],
      "name": "FailedInnerCall",
      "type": "error"
    },
    {
      "inputs": [
        {
          "internalType": "address",
          "name": "owner",
          "type": "address"
        }
      ],
      "name": "OwnableInvalidOwner",
      "type": "error"
    },
    {
      "inputs": [
        {
          "internalType": "address",
          "name": "account",
          "type": "address"
        }
      ],
      "name": "OwnableUnauthorizedAccount",
      "type": "error"
    },
    {
      "inputs": [],
      "name": "ReentrancyGuardReentrantCall",
      "type": "error"
    },
    {
      "inputs": [
        {
          "internalType": "address",
          "name": "token",
          "type": "address"
        }
      ],
      "name": "SafeERC20FailedOperation",
      "type": "error"
    },
    {
      "anonymous": false,
      "inputs": [
        {
          "indexed": false,
          "internalType": "address",
          "name": "wallet",
          "type": "address"
        },
        {
          "indexed": false,
          "internalType": "uint256",
          "name": "amountToken1",
          "type": "uint256"
        },
        {
          "indexed": false,
          "internalType": "uint256",
          "name": "amountToken2",
          "type": "uint256"
        }
      ],
      "name": "Harvest",
      "type": "event"
    },
    {
      "anonymous": false,
      "inputs": [
        {
          "indexed": true,
          "internalType": "address",
          "name": "previousOwner",
          "type": "address"
        },
        {
          "indexed": true,
          "internalType": "address",
          "name": "newOwner",
          "type": "address"
        }
      ],
      "name": "OwnershipTransferred",
      "type": "event"
    },
    {
      "anonymous": false,
      "inputs": [
        {
          "indexed": false,
          "internalType": "address",
          "name": "wallet",
          "type": "address"
        },
        {
          "indexed": false,
          "internalType": "uint256",
          "name": "amount",
          "type": "uint256"
        }
      ],
      "name": "Stake",
      "type": "event"
    },
    {
      "anonymous": false,
      "inputs": [
        {
          "indexed": false,
          "internalType": "address",
          "name": "wallet",
          "type": "address"
        },
        {
          "indexed": false,
          "internalType": "uint256",
          "name": "amount",
          "type": "uint256"
        }
      ],
      "name": "Unstake",
      "type": "event"
    },
    {
      "inputs": [
        {
          "internalType": "uint256",
          "name": "rewardAmount1",
          "type": "uint256"
        },
        {
          "internalType": "uint256",
          "name": "rewardAmount2",
          "type": "uint256"
        }
      ],
      "name": "distributeRewards",
      "outputs": [],
      "stateMutability": "nonpayable",
      "type": "function"
    },
    {
      "inputs": [
        {
          "internalType": "address",
          "name": "tokenAddress",
          "type": "address"
        }
      ],
      "name": "emergencyWithdraw",
      "outputs": [],
      "stateMutability": "nonpayable",
      "type": "function"
    },
    {
      "inputs": [
        {
          "internalType": "address",
          "name": "_address",
          "type": "address"
        }
      ],
      "name": "getMaxBoost",
      "outputs": [
        {
          "internalType": "uint256",
          "name": "",
          "type": "uint256"
        }
      ],
      "stateMutability": "view",
      "type": "function"
    },
    {
      "inputs": [
        {
          "internalType": "address",
          "name": "_address",
          "type": "address"
        }
      ],
      "name": "getRemainingBoost",
      "outputs": [
        {
          "internalType": "uint256",
          "name": "",
          "type": "uint256"
        }
      ],
      "stateMutability": "view",
      "type": "function"
    },
    {
      "inputs": [
        {
          "internalType": "address",
          "name": "_address",
          "type": "address"
        },
        {
          "internalType": "uint256",
          "name": "_amount",
          "type": "uint256"
        }
      ],
      "name": "getUnstakeAmount",
      "outputs": [
        {
          "internalType": "uint256",
          "name": "",
          "type": "uint256"
        }
      ],
      "stateMutability": "view",
      "type": "function"
    },
    {
      "inputs": [],
      "name": "harvest",
      "outputs": [],
      "stateMutability": "nonpayable",
      "type": "function"
    },
    {
      "inputs": [],
      "name": "owner",
      "outputs": [
        {
          "internalType": "address",
          "name": "",
          "type": "address"
        }
      ],
      "stateMutability": "view",
      "type": "function"
    },
    {
      "inputs": [
        {
          "internalType": "address",
          "name": "_address",
          "type": "address"
        }
      ],
      "name": "pendingRewards",
      "outputs": [
        {
          "internalType": "uint256",
          "name": "",
          "type": "uint256"
        },
        {
          "internalType": "uint256",
          "name": "",
          "type": "uint256"
        }
      ],
      "stateMutability": "view",
      "type": "function"
    },
    {
      "inputs": [],
      "name": "renounceOwnership",
      "outputs": [],
      "stateMutability": "nonpayable",
      "type": "function"
    },
    {
      "inputs": [
        {
          "internalType": "uint256",
          "name": "",
          "type": "uint256"
        },
        {
          "internalType": "uint256",
          "name": "",
          "type": "uint256"
        }
      ],
      "name": "rewardRounds",
      "outputs": [
        {
          "internalType": "uint256",
          "name": "",
          "type": "uint256"
        }
      ],
      "stateMutability": "view",
      "type": "function"
    },
    {
      "inputs": [],
      "name": "rewardRoundsLength",
      "outputs": [
        {
          "internalType": "uint256",
          "name": "",
          "type": "uint256"
        }
      ],
      "stateMutability": "view",
      "type": "function"
    },
    {
      "inputs": [],
      "name": "rewardToken1",
      "outputs": [
        {
          "internalType": "address",
          "name": "",
          "type": "address"
        }
      ],
      "stateMutability": "view",
      "type": "function"
    },
    {
      "inputs": [],
      "name": "rewardToken2",
      "outputs": [
        {
          "internalType": "address",
          "name": "",
          "type": "address"
        }
      ],
      "stateMutability": "view",
      "type": "function"
    },
    {
      "inputs": [
        {
          "internalType": "uint256",
          "name": "_amount",
          "type": "uint256"
        }
      ],
      "name": "stake",
      "outputs": [],
      "stateMutability": "nonpayable",
      "type": "function"
    },
    {
      "inputs": [],
      "name": "stakerAddress",
      "outputs": [
        {
          "internalType": "address",
          "name": "",
          "type": "address"
        }
      ],
      "stateMutability": "view",
      "type": "function"
    },
    {
      "inputs": [
        {
          "internalType": "address",
          "name": "",
          "type": "address"
        }
      ],
      "name": "stakers",
      "outputs": [
        {
          "internalType": "uint256",
          "name": "amount",
          "type": "uint256"
        },
        {
          "internalType": "uint256",
          "name": "lastRewardRound",
          "type": "uint256"
        }
      ],
      "stateMutability": "view",
      "type": "function"
    },
    {
      "inputs": [],
      "name": "token",
      "outputs": [
        {
          "internalType": "address",
          "name": "",
          "type": "address"
        }
      ],
      "stateMutability": "view",
      "type": "function"
    },
    {
      "inputs": [],
      "name": "totalStaked",
      "outputs": [
        {
          "internalType": "uint256",
          "name": "",
          "type": "uint256"
        }
      ],
      "stateMutability": "view",
      "type": "function"
    },
    {
      "inputs": [
        {
          "internalType": "address",
          "name": "newOwner",
          "type": "address"
        }
      ],
      "name": "transferOwnership",
      "outputs": [],
      "stateMutability": "nonpayable",
      "type": "function"
    },
    {
      "inputs": [
        {
          "internalType": "uint256",
          "name": "_amount",
          "type": "uint256"
        }
      ],
      "name": "unstake",
      "outputs": [],
      "stateMutability": "nonpayable",
      "type": "function"
    }
  ],
  "bytecode": "0x60806040523480156200001157600080fd5b50604051620029f7380380620029f7833981810160405281019062000037919062000302565b33600073ffffffffffffffffffffffffffffffffffffffff168173ffffffffffffffffffffffffffffffffffffffff1603620000ad5760006040517f1e4fbdf7000000000000000000000000000000000000000000000000000000008152600401620000a4919062000385565b60405180910390fd5b620000be81620001d460201b60201c565b506001808190555083600260006101000a81548173ffffffffffffffffffffffffffffffffffffffff021916908373ffffffffffffffffffffffffffffffffffffffff16021790555082600360006101000a81548173ffffffffffffffffffffffffffffffffffffffff021916908373ffffffffffffffffffffffffffffffffffffffff16021790555081600460006101000a81548173ffffffffffffffffffffffffffffffffffffffff021916908373ffffffffffffffffffffffffffffffffffffffff16021790555080600560006101000a81548173ffffffffffffffffffffffffffffffffffffffff021916908373ffffffffffffffffffffffffffffffffffffffff16021790555050505050620003a2565b60008060009054906101000a900473ffffffffffffffffffffffffffffffffffffffff169050816000806101000a81548173ffffffffffffffffffffffffffffffffffffffff021916908373ffffffffffffffffffffffffffffffffffffffff1602179055508173ffffffffffffffffffffffffffffffffffffffff168173ffffffffffffffffffffffffffffffffffffffff167f8be0079c531659141344cd1fd0a4f28419497f9722a3daafe3b4186f6b6457e060405160405180910390a35050565b600080fd5b600073ffffffffffffffffffffffffffffffffffffffff82169050919050565b6000620002ca826200029d565b9050919050565b620002dc81620002bd565b8114620002e857600080fd5b50565b600081519050620002fc81620002d1565b92915050565b600080600080608085870312156200031f576200031e62000298565b5b60006200032f87828801620002eb565b94505060206200034287828801620002eb565b93505060406200035587828801620002eb565b92505060606200036887828801620002eb565b91505092959194509250565b6200037f81620002bd565b82525050565b60006020820190506200039c600083018462000374565b92915050565b61264580620003b26000396000f3fe608060405234801561001057600080fd5b506004361061012c5760003560e01c80638da5cb5b116100ad578063df6c39fb11610071578063df6c39fb1461030f578063e69759641461032b578063f211c3d01461035b578063f2fde38b1461038b578063fc0c546a146103a75761012c565b80638da5cb5b146102685780639168ae7214610286578063a694fc3a146102b7578063d470316b146102d3578063d61a47f1146102f15761012c565b80636f28d688116100f45780636f28d688146101e85780636ff1c9bc14610206578063715018a6146102225780637f2bfc641461022c578063817b1cd21461024a5761012c565b8063259cd0eb146101315780632e17de781461016157806330a53ef51461017d57806331d7a262146101ad5780634641257d146101de575b600080fd5b61014b60048036038101906101469190611e19565b6103c5565b6040516101589190611e5f565b60405180910390f35b61017b60048036038101906101769190611ea6565b61056c565b005b61019760048036038101906101929190611ed3565b610752565b6040516101a49190611e5f565b60405180910390f35b6101c760048036038101906101c29190611e19565b610870565b6040516101d5929190611f13565b60405180910390f35b6101e6610a49565b005b6101f0610d43565b6040516101fd9190611f4b565b60405180910390f35b610220600480360381019061021b9190611e19565b610d69565b005b61022a610fcf565b005b610234610fe3565b6040516102419190611e5f565b60405180910390f35b610252610ff0565b60405161025f9190611e5f565b60405180910390f35b610270610ff6565b60405161027d9190611f4b565b60405180910390f35b6102a0600480360381019061029b9190611e19565b61101f565b6040516102ae929190611f13565b60405180910390f35b6102d160048036038101906102cc9190611ea6565b611043565b005b6102db61146e565b6040516102e89190611f4b565b60405180910390f35b6102f9611494565b6040516103069190611f4b565b60405180910390f35b61032960048036038101906103249190611f66565b6114ba565b005b61034560048036038101906103409190611f66565b61162b565b6040516103529190611e5f565b60405180910390f35b61037560048036038101906103709190611e19565b611663565b6040516103829190611e5f565b60405180910390f35b6103a560048036038101906103a09190611e19565b6117b2565b005b6103af611838565b6040516103bc9190611f4b565b60405180910390f35b600080600660008473ffffffffffffffffffffffffffffffffffffffff1673ffffffffffffffffffffffffffffffffffffffff16815260200190815260200160002060000154905060006002600460009054906101000a900473ffffffffffffffffffffffffffffffffffffffff1673ffffffffffffffffffffffffffffffffffffffff16632c4e722e6040518163ffffffff1660e01b8152600401602060405180830381865afa15801561047e573d6000803e3d6000fd5b505050506040513d601f19601f820116820180604052508101906104a29190611fbb565b600560009054906101000a900473ffffffffffffffffffffffffffffffffffffffff1673ffffffffffffffffffffffffffffffffffffffff16639168ae72876040518263ffffffff1660e01b81526004016104fd9190611f4b565b6040805180830381865afa158015610519573d6000803e3d6000fd5b505050506040513d601f19601f8201168201806040525081019061053d91906120c9565b6000015161054b9190612125565b6105559190612196565b9050818161056391906121c7565b92505050919050565b61057461185e565b600081116105b7576040517f08c379a00000000000000000000000000000000000000000000000000000000081526004016105ae90612258565b60405180910390fd5b6000600660003373ffffffffffffffffffffffffffffffffffffffff1673ffffffffffffffffffffffffffffffffffffffff1681526020019081526020016000209050600780549050816001015414610645576040517f08c379a000000000000000000000000000000000000000000000000000000000815260040161063c906122c4565b60405180910390fd5b806000015482111561068c576040517f08c379a000000000000000000000000000000000000000000000000000000000815260040161068390612258565b60405180910390fd5b818160000160008282546106a091906121c7565b9250508190555081600860008282546106b991906121c7565b9250508190555061070d3383600260009054906101000a900473ffffffffffffffffffffffffffffffffffffffff1673ffffffffffffffffffffffffffffffffffffffff166118a49092919063ffffffff16565b7f85082129d87b2fe11527cb1b3b7a520aeb5aa6913f88a3d8757fe40d1db02fdd338360405161073e9291906122e4565b60405180910390a15061074f611923565b50565b6000806002600460009054906101000a900473ffffffffffffffffffffffffffffffffffffffff1673ffffffffffffffffffffffffffffffffffffffff16632c4e722e6040518163ffffffff1660e01b8152600401602060405180830381865afa1580156107c4573d6000803e3d6000fd5b505050506040513d601f19601f820116820180604052508101906107e89190611fbb565b846107f39190612125565b6107fd9190612196565b90506000600660008673ffffffffffffffffffffffffffffffffffffffff1673ffffffffffffffffffffffffffffffffffffffff1681526020019081526020016000206000015490508181111561086357818161085a91906121c7565b9250505061086a565b6000925050505b92915050565b6000806000600660008573ffffffffffffffffffffffffffffffffffffffff1673ffffffffffffffffffffffffffffffffffffffff16815260200190815260200160002090506000806000836001015490505b600780549050811015610a3a576ec097ce7bc90715b34b9f1000000000600782815481106108f4576108f361230d565b5b90600052602060002090600202016000600281106109155761091461230d565b5b0154600660008a73ffffffffffffffffffffffffffffffffffffffff1673ffffffffffffffffffffffffffffffffffffffff168152602001908152602001600020600001546109649190612125565b61096e9190612196565b83610979919061233c565b92506ec097ce7bc90715b34b9f10000000006007828154811061099f5761099e61230d565b5b90600052602060002090600202016001600281106109c0576109bf61230d565b5b0154600660008a73ffffffffffffffffffffffffffffffffffffffff1673ffffffffffffffffffffffffffffffffffffffff16815260200190815260200160002060000154610a0f9190612125565b610a199190612196565b82610a24919061233c565b9150600181610a33919061233c565b90506108c3565b82829550955050505050915091565b610a5161185e565b6000600660003373ffffffffffffffffffffffffffffffffffffffff1673ffffffffffffffffffffffffffffffffffffffff1681526020019081526020016000206000015490506000600660003373ffffffffffffffffffffffffffffffffffffffff1673ffffffffffffffffffffffffffffffffffffffff16815260200190815260200160002060010154905060008060005a905060006064600a83610af89190612125565b610b029190612196565b90505b60078054905085108015610b185750805a115b15610c03576ec097ce7bc90715b34b9f100000000060078681548110610b4157610b4061230d565b5b9060005260206000209060020201600060028110610b6257610b6161230d565b5b015487610b6f9190612125565b610b799190612196565b84610b84919061233c565b93506ec097ce7bc90715b34b9f100000000060078681548110610baa57610ba961230d565b5b9060005260206000209060020201600160028110610bcb57610bca61230d565b5b015487610bd89190612125565b610be29190612196565b83610bed919061233c565b9250600185610bfc919061233c565b9450610b05565b84600660003373ffffffffffffffffffffffffffffffffffffffff1673ffffffffffffffffffffffffffffffffffffffff168152602001908152602001600020600101819055506000841115610ca157610ca03385600360009054906101000a900473ffffffffffffffffffffffffffffffffffffffff1673ffffffffffffffffffffffffffffffffffffffff166118a49092919063ffffffff16565b5b6000831115610cf857610cf73384600460009054906101000a900473ffffffffffffffffffffffffffffffffffffffff1673ffffffffffffffffffffffffffffffffffffffff166118a49092919063ffffffff16565b5b7f71bab65ced2e5750775a0613be067df48ef06cf92a496ebf7663ae0660924954338585604051610d2b93929190612370565b60405180910390a1505050505050610d41611923565b565b600360009054906101000a900473ffffffffffffffffffffffffffffffffffffffff1681565b610d7161192c565b600260009054906101000a900473ffffffffffffffffffffffffffffffffffffffff1673ffffffffffffffffffffffffffffffffffffffff168173ffffffffffffffffffffffffffffffffffffffff1603610e01576040517f08c379a0000000000000000000000000000000000000000000000000000000008152600401610df8906123f3565b60405180910390fd5b600360009054906101000a900473ffffffffffffffffffffffffffffffffffffffff1673ffffffffffffffffffffffffffffffffffffffff168173ffffffffffffffffffffffffffffffffffffffff1603610e91576040517f08c379a0000000000000000000000000000000000000000000000000000000008152600401610e88906123f3565b60405180910390fd5b600460009054906101000a900473ffffffffffffffffffffffffffffffffffffffff1673ffffffffffffffffffffffffffffffffffffffff168173ffffffffffffffffffffffffffffffffffffffff1603610f21576040517f08c379a0000000000000000000000000000000000000000000000000000000008152600401610f18906123f3565b60405180910390fd5b610fcc610f2c610ff6565b8273ffffffffffffffffffffffffffffffffffffffff166370a08231306040518263ffffffff1660e01b8152600401610f659190611f4b565b602060405180830381865afa158015610f82573d6000803e3d6000fd5b505050506040513d601f19601f82011682018060405250810190610fa69190611fbb565b8373ffffffffffffffffffffffffffffffffffffffff166118a49092919063ffffffff16565b50565b610fd761192c565b610fe160006119b3565b565b6000600780549050905090565b60085481565b60008060009054906101000a900473ffffffffffffffffffffffffffffffffffffffff16905090565b60066020528060005260406000206000915090508060000154908060010154905082565b61104b61185e565b6000811161108e576040517f08c379a000000000000000000000000000000000000000000000000000000000815260040161108590612258565b60405180910390fd5b6000600560009054906101000a900473ffffffffffffffffffffffffffffffffffffffff1673ffffffffffffffffffffffffffffffffffffffff16639168ae72336040518263ffffffff1660e01b81526004016110eb9190611f4b565b6040805180830381865afa158015611107573d6000803e3d6000fd5b505050506040513d601f19601f8201168201806040525081019061112b91906120c9565b600001511161116f576040517f08c379a00000000000000000000000000000000000000000000000000000000081526004016111669061245f565b60405180910390fd5b6000600660003373ffffffffffffffffffffffffffffffffffffffff1673ffffffffffffffffffffffffffffffffffffffff16815260200190815260200160002090506000816000015414806111cd57506007805490508160010154145b61120c576040517f08c379a0000000000000000000000000000000000000000000000000000000008152600401611203906122c4565b60405180910390fd5b81816000016000828254611220919061233c565b925050819055506002600460009054906101000a900473ffffffffffffffffffffffffffffffffffffffff1673ffffffffffffffffffffffffffffffffffffffff16632c4e722e6040518163ffffffff1660e01b8152600401602060405180830381865afa158015611296573d6000803e3d6000fd5b505050506040513d601f19601f820116820180604052508101906112ba9190611fbb565b600560009054906101000a900473ffffffffffffffffffffffffffffffffffffffff1673ffffffffffffffffffffffffffffffffffffffff16639168ae72336040518263ffffffff1660e01b81526004016113159190611f4b565b6040805180830381865afa158015611331573d6000803e3d6000fd5b505050506040513d601f19601f8201168201806040525081019061135591906120c9565b600001516113639190612125565b61136d9190612196565b816000015411156113b3576040517f08c379a00000000000000000000000000000000000000000000000000000000081526004016113aa906124cb565b60405180910390fd5b600780549050816001018190555081600860008282546113d3919061233c565b92505081905550611429333084600260009054906101000a900473ffffffffffffffffffffffffffffffffffffffff1673ffffffffffffffffffffffffffffffffffffffff16611a77909392919063ffffffff16565b7febedb8b3c678666e7f36970bc8f57abf6d8fa2e828c0da91ea5b75bf68ed101a338360405161145a9291906122e4565b60405180910390a15061146b611923565b50565b600560009054906101000a900473ffffffffffffffffffffffffffffffffffffffff1681565b600460009054906101000a900473ffffffffffffffffffffffffffffffffffffffff1681565b6114c261192c565b6114ca61185e565b60006008546ec097ce7bc90715b34b9f1000000000846114ea9190612125565b6114f49190612196565b905060006008546ec097ce7bc90715b34b9f1000000000846115169190612125565b6115209190612196565b905060076040518060400160405280848152602001838152509080600181540180825580915050600190039060005260206000209060020201600090919091909150906002611570929190611d4f565b506115c761157c610ff6565b3086600360009054906101000a900473ffffffffffffffffffffffffffffffffffffffff1673ffffffffffffffffffffffffffffffffffffffff16611a77909392919063ffffffff16565b61161d6115d2610ff6565b3085600460009054906101000a900473ffffffffffffffffffffffffffffffffffffffff1673ffffffffffffffffffffffffffffffffffffffff16611a77909392919063ffffffff16565b5050611627611923565b5050565b6007828154811061163b57600080fd5b9060005260206000209060020201816002811061165757600080fd5b01600091509150505481565b60006002600460009054906101000a900473ffffffffffffffffffffffffffffffffffffffff1673ffffffffffffffffffffffffffffffffffffffff16632c4e722e6040518163ffffffff1660e01b8152600401602060405180830381865afa1580156116d4573d6000803e3d6000fd5b505050506040513d601f19601f820116820180604052508101906116f89190611fbb565b600560009054906101000a900473ffffffffffffffffffffffffffffffffffffffff1673ffffffffffffffffffffffffffffffffffffffff16639168ae72856040518263ffffffff1660e01b81526004016117539190611f4b565b6040805180830381865afa15801561176f573d6000803e3d6000fd5b505050506040513d601f19601f8201168201806040525081019061179391906120c9565b600001516117a19190612125565b6117ab9190612196565b9050919050565b6117ba61192c565b600073ffffffffffffffffffffffffffffffffffffffff168173ffffffffffffffffffffffffffffffffffffffff160361182c5760006040517f1e4fbdf70000000000000000000000000000000000000000000000000000000081526004016118239190611f4b565b60405180910390fd5b611835816119b3565b50565b600260009054906101000a900473ffffffffffffffffffffffffffffffffffffffff1681565b60026001540361189a576040517f3ee5aeb500000000000000000000000000000000000000000000000000000000815260040160405180910390fd5b6002600181905550565b61191e838473ffffffffffffffffffffffffffffffffffffffff1663a9059cbb85856040516024016118d79291906122e4565b604051602081830303815290604052915060e01b6020820180517bffffffffffffffffffffffffffffffffffffffffffffffffffffffff8381831617835250505050611af9565b505050565b60018081905550565b611934611b90565b73ffffffffffffffffffffffffffffffffffffffff16611952610ff6565b73ffffffffffffffffffffffffffffffffffffffff16146119b157611975611b90565b6040517f118cdaa70000000000000000000000000000000000000000000000000000000081526004016119a89190611f4b565b60405180910390fd5b565b60008060009054906101000a900473ffffffffffffffffffffffffffffffffffffffff169050816000806101000a81548173ffffffffffffffffffffffffffffffffffffffff021916908373ffffffffffffffffffffffffffffffffffffffff1602179055508173ffffffffffffffffffffffffffffffffffffffff168173ffffffffffffffffffffffffffffffffffffffff167f8be0079c531659141344cd1fd0a4f28419497f9722a3daafe3b4186f6b6457e060405160405180910390a35050565b611af3848573ffffffffffffffffffffffffffffffffffffffff166323b872dd868686604051602401611aac939291906124eb565b604051602081830303815290604052915060e01b6020820180517bffffffffffffffffffffffffffffffffffffffffffffffffffffffff8381831617835250505050611af9565b50505050565b6000611b24828473ffffffffffffffffffffffffffffffffffffffff16611b9890919063ffffffff16565b90506000815114158015611b49575080806020019051810190611b47919061255a565b155b15611b8b57826040517f5274afe7000000000000000000000000000000000000000000000000000000008152600401611b829190611f4b565b60405180910390fd5b505050565b600033905090565b6060611ba683836000611bae565b905092915050565b606081471015611bf557306040517fcd786059000000000000000000000000000000000000000000000000000000008152600401611bec9190611f4b565b60405180910390fd5b6000808573ffffffffffffffffffffffffffffffffffffffff168486604051611c1e91906125f8565b60006040518083038185875af1925050503d8060008114611c5b576040519150601f19603f3d011682016040523d82523d6000602084013e611c60565b606091505b5091509150611c70868383611c7b565b925050509392505050565b606082611c9057611c8b82611d0a565b611d02565b60008251148015611cb8575060008473ffffffffffffffffffffffffffffffffffffffff163b145b15611cfa57836040517f9996b315000000000000000000000000000000000000000000000000000000008152600401611cf19190611f4b565b60405180910390fd5b819050611d03565b5b9392505050565b600081511115611d1d5780518082602001fd5b6040517f1425ea4200000000000000000000000000000000000000000000000000000000815260040160405180910390fd5b8260028101928215611d7e579160200282015b82811115611d7d578251825591602001919060010190611d62565b5b509050611d8b9190611d8f565b5090565b5b80821115611da8576000816000905550600101611d90565b5090565b6000604051905090565b600080fd5b600073ffffffffffffffffffffffffffffffffffffffff82169050919050565b6000611de682611dbb565b9050919050565b611df681611ddb565b8114611e0157600080fd5b50565b600081359050611e1381611ded565b92915050565b600060208284031215611e2f57611e2e611db6565b5b6000611e3d84828501611e04565b91505092915050565b6000819050919050565b611e5981611e46565b82525050565b6000602082019050611e746000830184611e50565b92915050565b611e8381611e46565b8114611e8e57600080fd5b50565b600081359050611ea081611e7a565b92915050565b600060208284031215611ebc57611ebb611db6565b5b6000611eca84828501611e91565b91505092915050565b60008060408385031215611eea57611ee9611db6565b5b6000611ef885828601611e04565b9250506020611f0985828601611e91565b9150509250929050565b6000604082019050611f286000830185611e50565b611f356020830184611e50565b9392505050565b611f4581611ddb565b82525050565b6000602082019050611f606000830184611f3c565b92915050565b60008060408385031215611f7d57611f7c611db6565b5b6000611f8b85828601611e91565b9250506020611f9c85828601611e91565b9150509250929050565b600081519050611fb581611e7a565b92915050565b600060208284031215611fd157611fd0611db6565b5b6000611fdf84828501611fa6565b91505092915050565b600080fd5b6000601f19601f8301169050919050565b7f4e487b7100000000000000000000000000000000000000000000000000000000600052604160045260246000fd5b61203682611fed565b810181811067ffffffffffffffff8211171561205557612054611ffe565b5b80604052505050565b6000612068611dac565b9050612074828261202d565b919050565b60006040828403121561208f5761208e611fe8565b5b612099604061205e565b905060006120a984828501611fa6565b60008301525060206120bd84828501611fa6565b60208301525092915050565b6000604082840312156120df576120de611db6565b5b60006120ed84828501612079565b91505092915050565b7f4e487b7100000000000000000000000000000000000000000000000000000000600052601160045260246000fd5b600061213082611e46565b915061213b83611e46565b925082820261214981611e46565b915082820484148315176121605761215f6120f6565b5b5092915050565b7f4e487b7100000000000000000000000000000000000000000000000000000000600052601260045260246000fd5b60006121a182611e46565b91506121ac83611e46565b9250826121bc576121bb612167565b5b828204905092915050565b60006121d282611e46565b91506121dd83611e46565b92508282039050818111156121f5576121f46120f6565b5b92915050565b600082825260208201905092915050565b7f494e56414c49445f414d4f554e54000000000000000000000000000000000000600082015250565b6000612242600e836121fb565b915061224d8261220c565b602082019050919050565b6000602082019050818103600083015261227181612235565b9050919050565b7f50454e44494e475f424f4f53545f524557415244530000000000000000000000600082015250565b60006122ae6015836121fb565b91506122b982612278565b602082019050919050565b600060208201905081810360008301526122dd816122a1565b9050919050565b60006040820190506122f96000830185611f3c565b6123066020830184611e50565b9392505050565b7f4e487b7100000000000000000000000000000000000000000000000000000000600052603260045260246000fd5b600061234782611e46565b915061235283611e46565b925082820190508082111561236a576123696120f6565b5b92915050565b60006060820190506123856000830186611f3c565b6123926020830185611e50565b61239f6040830184611e50565b949350505050565b7f43414e4e4f545f57495448445241575f4c4f434b45445f544f4b454e00000000600082015250565b60006123dd601c836121fb565b91506123e8826123a7565b602082019050919050565b6000602082019050818103600083015261240c816123d0565b9050919050565b7f4d494e494d554d5f424f4f53545f414d4f554e54000000000000000000000000600082015250565b60006124496014836121fb565b915061245482612413565b602082019050919050565b600060208201905081810360008301526124788161243c565b9050919050565b7f4d41585f424f4f53545f414d4f554e5400000000000000000000000000000000600082015250565b60006124b56010836121fb565b91506124c08261247f565b602082019050919050565b600060208201905081810360008301526124e4816124a8565b9050919050565b60006060820190506125006000830186611f3c565b61250d6020830185611f3c565b61251a6040830184611e50565b949350505050565b60008115159050919050565b61253781612522565b811461254257600080fd5b50565b6000815190506125548161252e565b92915050565b6000602082840312156125705761256f611db6565b5b600061257e84828501612545565b91505092915050565b600081519050919050565b600081905092915050565b60005b838110156125bb5780820151818401526020810190506125a0565b60008484015250505050565b60006125d282612587565b6125dc8185612592565b93506125ec81856020860161259d565b80840191505092915050565b600061260482846125c7565b91508190509291505056fea2646970667358221220178cd599a42787868513d80e1e333ab4cb5d5153b04739821b643a2dab7c962364736f6c63430008180033",
  "linkReferences": {},
  "deployedLinkReferences": {}
}