{
  "_format": "hh-sol-artifact-1",
  "contractName": "BoostingStaker",
  "sourceName": "contracts/BoostingStaker.sol",
  "abi": [
    {
      "inputs": [
        {
          "internalType": "address",
          "name": "_token",
          "type": "address"
        },
        {
          "internalType": "address",
          "name": "_rewardToken1",
          "type": "address"
        },
        {
          "internalType": "address",
          "name": "_rewardToken2",
          "type": "address"
        },
        {
          "internalType": "address",
          "name": "_stakerAddress",
          "type": "address"
        }
      ],
      "stateMutability": "nonpayable",
      "type": "constructor"
    },
    {
      "inputs": [
        {
          "internalType": "address",
          "name": "target",
          "type": "address"
        }
      ],
      "name": "AddressEmptyCode",
      "type": "error"
    },
    {
      "inputs": [
        {
          "internalType": "address",
          "name": "account",
          "type": "address"
        }
      ],
      "name": "AddressInsufficientBalance",
      "type": "error"
    },
    {
      "inputs": [],
      "name": "FailedInnerCall",
      "type": "error"
    },
    {
      "inputs": [
        {
          "internalType": "address",
          "name": "owner",
          "type": "address"
        }
      ],
      "name": "OwnableInvalidOwner",
      "type": "error"
    },
    {
      "inputs": [
        {
          "internalType": "address",
          "name": "account",
          "type": "address"
        }
      ],
      "name": "OwnableUnauthorizedAccount",
      "type": "error"
    },
    {
      "inputs": [],
      "name": "ReentrancyGuardReentrantCall",
      "type": "error"
    },
    {
      "inputs": [
        {
          "internalType": "address",
          "name": "token",
          "type": "address"
        }
      ],
      "name": "SafeERC20FailedOperation",
      "type": "error"
    },
    {
      "anonymous": false,
      "inputs": [
        {
          "indexed": false,
          "internalType": "address",
          "name": "wallet",
          "type": "address"
        },
        {
          "indexed": false,
          "internalType": "uint256",
          "name": "amountToken1",
          "type": "uint256"
        },
        {
          "indexed": false,
          "internalType": "uint256",
          "name": "amountToken2",
          "type": "uint256"
        }
      ],
      "name": "Harvest",
      "type": "event"
    },
    {
      "anonymous": false,
      "inputs": [
        {
          "indexed": true,
          "internalType": "address",
          "name": "previousOwner",
          "type": "address"
        },
        {
          "indexed": true,
          "internalType": "address",
          "name": "newOwner",
          "type": "address"
        }
      ],
      "name": "OwnershipTransferred",
      "type": "event"
    },
    {
      "anonymous": false,
      "inputs": [
        {
          "indexed": false,
          "internalType": "address",
          "name": "wallet",
          "type": "address"
        },
        {
          "indexed": false,
          "internalType": "uint256",
          "name": "amount",
          "type": "uint256"
        }
      ],
      "name": "Stake",
      "type": "event"
    },
    {
      "anonymous": false,
      "inputs": [
        {
          "indexed": false,
          "internalType": "address",
          "name": "wallet",
          "type": "address"
        },
        {
          "indexed": false,
          "internalType": "uint256",
          "name": "amount",
          "type": "uint256"
        }
      ],
      "name": "Unstake",
      "type": "event"
    },
    {
      "inputs": [
        {
          "internalType": "uint256",
          "name": "rewardAmount1",
          "type": "uint256"
        },
        {
          "internalType": "uint256",
          "name": "rewardAmount2",
          "type": "uint256"
        }
      ],
      "name": "distributeRewards",
      "outputs": [],
      "stateMutability": "nonpayable",
      "type": "function"
    },
    {
      "inputs": [
        {
          "internalType": "address",
          "name": "tokenAddress",
          "type": "address"
        }
      ],
      "name": "emergencyWithdraw",
      "outputs": [],
      "stateMutability": "nonpayable",
      "type": "function"
    },
    {
      "inputs": [
        {
          "internalType": "address",
          "name": "_address",
          "type": "address"
        }
      ],
      "name": "getMaxBoost",
      "outputs": [
        {
          "internalType": "uint256",
          "name": "",
          "type": "uint256"
        }
      ],
      "stateMutability": "view",
      "type": "function"
    },
    {
      "inputs": [
        {
          "internalType": "address",
          "name": "_address",
          "type": "address"
        }
      ],
      "name": "getRemainingBoost",
      "outputs": [
        {
          "internalType": "uint256",
          "name": "",
          "type": "uint256"
        }
      ],
      "stateMutability": "view",
      "type": "function"
    },
    {
      "inputs": [],
      "name": "harvest",
      "outputs": [],
      "stateMutability": "nonpayable",
      "type": "function"
    },
    {
      "inputs": [],
      "name": "owner",
      "outputs": [
        {
          "internalType": "address",
          "name": "",
          "type": "address"
        }
      ],
      "stateMutability": "view",
      "type": "function"
    },
    {
      "inputs": [
        {
          "internalType": "address",
          "name": "_address",
          "type": "address"
        }
      ],
      "name": "pendingRewards",
      "outputs": [
        {
          "internalType": "uint256",
          "name": "",
          "type": "uint256"
        },
        {
          "internalType": "uint256",
          "name": "",
          "type": "uint256"
        }
      ],
      "stateMutability": "view",
      "type": "function"
    },
    {
      "inputs": [],
      "name": "renounceOwnership",
      "outputs": [],
      "stateMutability": "nonpayable",
      "type": "function"
    },
    {
      "inputs": [
        {
          "internalType": "uint256",
          "name": "",
          "type": "uint256"
        },
        {
          "internalType": "uint256",
          "name": "",
          "type": "uint256"
        }
      ],
      "name": "rewardRounds",
      "outputs": [
        {
          "internalType": "uint256",
          "name": "",
          "type": "uint256"
        }
      ],
      "stateMutability": "view",
      "type": "function"
    },
    {
      "inputs": [],
      "name": "rewardRoundsLength",
      "outputs": [
        {
          "internalType": "uint256",
          "name": "",
          "type": "uint256"
        }
      ],
      "stateMutability": "view",
      "type": "function"
    },
    {
      "inputs": [],
      "name": "rewardToken1",
      "outputs": [
        {
          "internalType": "address",
          "name": "",
          "type": "address"
        }
      ],
      "stateMutability": "view",
      "type": "function"
    },
    {
      "inputs": [],
      "name": "rewardToken2",
      "outputs": [
        {
          "internalType": "address",
          "name": "",
          "type": "address"
        }
      ],
      "stateMutability": "view",
      "type": "function"
    },
    {
      "inputs": [
        {
          "internalType": "uint256",
          "name": "_amount",
          "type": "uint256"
        }
      ],
      "name": "stake",
      "outputs": [],
      "stateMutability": "nonpayable",
      "type": "function"
    },
    {
      "inputs": [],
      "name": "stakerAddress",
      "outputs": [
        {
          "internalType": "address",
          "name": "",
          "type": "address"
        }
      ],
      "stateMutability": "view",
      "type": "function"
    },
    {
      "inputs": [
        {
          "internalType": "address",
          "name": "",
          "type": "address"
        }
      ],
      "name": "stakers",
      "outputs": [
        {
          "internalType": "uint256",
          "name": "amount",
          "type": "uint256"
        },
        {
          "internalType": "uint256",
          "name": "lastRewardRound",
          "type": "uint256"
        }
      ],
      "stateMutability": "view",
      "type": "function"
    },
    {
      "inputs": [],
      "name": "token",
      "outputs": [
        {
          "internalType": "address",
          "name": "",
          "type": "address"
        }
      ],
      "stateMutability": "view",
      "type": "function"
    },
    {
      "inputs": [],
      "name": "totalStaked",
      "outputs": [
        {
          "internalType": "uint256",
          "name": "",
          "type": "uint256"
        }
      ],
      "stateMutability": "view",
      "type": "function"
    },
    {
      "inputs": [
        {
          "internalType": "address",
          "name": "newOwner",
          "type": "address"
        }
      ],
      "name": "transferOwnership",
      "outputs": [],
      "stateMutability": "nonpayable",
      "type": "function"
    },
    {
      "inputs": [
        {
          "internalType": "uint256",
          "name": "_amount",
          "type": "uint256"
        }
      ],
      "name": "unstake",
      "outputs": [],
      "stateMutability": "nonpayable",
      "type": "function"
    }
  ],
  "bytecode": "0x60806040523480156200001157600080fd5b50604051620027d8380380620027d8833981810160405281019062000037919062000302565b33600073ffffffffffffffffffffffffffffffffffffffff168173ffffffffffffffffffffffffffffffffffffffff1603620000ad5760006040517f1e4fbdf7000000000000000000000000000000000000000000000000000000008152600401620000a4919062000385565b60405180910390fd5b620000be81620001d460201b60201c565b506001808190555083600260006101000a81548173ffffffffffffffffffffffffffffffffffffffff021916908373ffffffffffffffffffffffffffffffffffffffff16021790555082600360006101000a81548173ffffffffffffffffffffffffffffffffffffffff021916908373ffffffffffffffffffffffffffffffffffffffff16021790555081600460006101000a81548173ffffffffffffffffffffffffffffffffffffffff021916908373ffffffffffffffffffffffffffffffffffffffff16021790555080600560006101000a81548173ffffffffffffffffffffffffffffffffffffffff021916908373ffffffffffffffffffffffffffffffffffffffff16021790555050505050620003a2565b60008060009054906101000a900473ffffffffffffffffffffffffffffffffffffffff169050816000806101000a81548173ffffffffffffffffffffffffffffffffffffffff021916908373ffffffffffffffffffffffffffffffffffffffff1602179055508173ffffffffffffffffffffffffffffffffffffffff168173ffffffffffffffffffffffffffffffffffffffff167f8be0079c531659141344cd1fd0a4f28419497f9722a3daafe3b4186f6b6457e060405160405180910390a35050565b600080fd5b600073ffffffffffffffffffffffffffffffffffffffff82169050919050565b6000620002ca826200029d565b9050919050565b620002dc81620002bd565b8114620002e857600080fd5b50565b600081519050620002fc81620002d1565b92915050565b600080600080608085870312156200031f576200031e62000298565b5b60006200032f87828801620002eb565b94505060206200034287828801620002eb565b93505060406200035587828801620002eb565b92505060606200036887828801620002eb565b91505092959194509250565b6200037f81620002bd565b82525050565b60006020820190506200039c600083018462000374565b92915050565b61242680620003b26000396000f3fe608060405234801561001057600080fd5b50600436106101215760003560e01c80638da5cb5b116100ad578063df6c39fb11610071578063df6c39fb146102d4578063e6975964146102f0578063f211c3d014610320578063f2fde38b14610350578063fc0c546a1461036c57610121565b80638da5cb5b1461022d5780639168ae721461024b578063a694fc3a1461027c578063d470316b14610298578063d61a47f1146102b657610121565b80636f28d688116100f45780636f28d688146101ad5780636ff1c9bc146101cb578063715018a6146101e75780637f2bfc64146101f1578063817b1cd21461020f57610121565b8063259cd0eb146101265780632e17de781461015657806331d7a262146101725780634641257d146101a3575b600080fd5b610140600480360381019061013b9190611c3a565b61038a565b60405161014d9190611c80565b60405180910390f35b610170600480360381019061016b9190611cc7565b610531565b005b61018c60048036038101906101879190611c3a565b6106d4565b60405161019a929190611cf4565b60405180910390f35b6101ab6108ad565b005b6101b5610ba7565b6040516101c29190611d2c565b60405180910390f35b6101e560048036038101906101e09190611c3a565b610bcd565b005b6101ef610e33565b005b6101f9610e47565b6040516102069190611c80565b60405180910390f35b610217610e54565b6040516102249190611c80565b60405180910390f35b610235610e5a565b6040516102429190611d2c565b60405180910390f35b61026560048036038101906102609190611c3a565b610e83565b604051610273929190611cf4565b60405180910390f35b61029660048036038101906102919190611cc7565b610ea7565b005b6102a061128f565b6040516102ad9190611d2c565b60405180910390f35b6102be6112b5565b6040516102cb9190611d2c565b60405180910390f35b6102ee60048036038101906102e99190611d47565b6112db565b005b61030a60048036038101906103059190611d47565b61144c565b6040516103179190611c80565b60405180910390f35b61033a60048036038101906103359190611c3a565b611484565b6040516103479190611c80565b60405180910390f35b61036a60048036038101906103659190611c3a565b6115d3565b005b610374611659565b6040516103819190611d2c565b60405180910390f35b600080600660008473ffffffffffffffffffffffffffffffffffffffff1673ffffffffffffffffffffffffffffffffffffffff16815260200190815260200160002060000154905060006002600460009054906101000a900473ffffffffffffffffffffffffffffffffffffffff1673ffffffffffffffffffffffffffffffffffffffff16632c4e722e6040518163ffffffff1660e01b8152600401602060405180830381865afa158015610443573d6000803e3d6000fd5b505050506040513d601f19601f820116820180604052508101906104679190611d9c565b600560009054906101000a900473ffffffffffffffffffffffffffffffffffffffff1673ffffffffffffffffffffffffffffffffffffffff16639168ae72876040518263ffffffff1660e01b81526004016104c29190611d2c565b6040805180830381865afa1580156104de573d6000803e3d6000fd5b505050506040513d601f19601f820116820180604052508101906105029190611eaa565b600001516105109190611f06565b61051a9190611f77565b905081816105289190611fa8565b92505050919050565b61053961167f565b6000600660003373ffffffffffffffffffffffffffffffffffffffff1673ffffffffffffffffffffffffffffffffffffffff16815260200190815260200160002090506007805490508160010154146105c7576040517f08c379a00000000000000000000000000000000000000000000000000000000081526004016105be90612039565b60405180910390fd5b806000015482111561060e576040517f08c379a0000000000000000000000000000000000000000000000000000000008152600401610605906120a5565b60405180910390fd5b818160000160008282546106229190611fa8565b92505081905550816008600082825461063b9190611fa8565b9250508190555061068f3383600260009054906101000a900473ffffffffffffffffffffffffffffffffffffffff1673ffffffffffffffffffffffffffffffffffffffff166116c59092919063ffffffff16565b7f85082129d87b2fe11527cb1b3b7a520aeb5aa6913f88a3d8757fe40d1db02fdd33836040516106c09291906120c5565b60405180910390a1506106d1611744565b50565b6000806000600660008573ffffffffffffffffffffffffffffffffffffffff1673ffffffffffffffffffffffffffffffffffffffff16815260200190815260200160002090506000806000836001015490505b60078054905081101561089e576ec097ce7bc90715b34b9f100000000060078281548110610758576107576120ee565b5b9060005260206000209060020201600060028110610779576107786120ee565b5b0154600660008a73ffffffffffffffffffffffffffffffffffffffff1673ffffffffffffffffffffffffffffffffffffffff168152602001908152602001600020600001546107c89190611f06565b6107d29190611f77565b836107dd919061211d565b92506ec097ce7bc90715b34b9f100000000060078281548110610803576108026120ee565b5b9060005260206000209060020201600160028110610824576108236120ee565b5b0154600660008a73ffffffffffffffffffffffffffffffffffffffff1673ffffffffffffffffffffffffffffffffffffffff168152602001908152602001600020600001546108739190611f06565b61087d9190611f77565b82610888919061211d565b9150600181610897919061211d565b9050610727565b82829550955050505050915091565b6108b561167f565b6000600660003373ffffffffffffffffffffffffffffffffffffffff1673ffffffffffffffffffffffffffffffffffffffff1681526020019081526020016000206000015490506000600660003373ffffffffffffffffffffffffffffffffffffffff1673ffffffffffffffffffffffffffffffffffffffff16815260200190815260200160002060010154905060008060005a905060006064600a8361095c9190611f06565b6109669190611f77565b90505b6007805490508510801561097c5750805a115b15610a67576ec097ce7bc90715b34b9f1000000000600786815481106109a5576109a46120ee565b5b90600052602060002090600202016000600281106109c6576109c56120ee565b5b0154876109d39190611f06565b6109dd9190611f77565b846109e8919061211d565b93506ec097ce7bc90715b34b9f100000000060078681548110610a0e57610a0d6120ee565b5b9060005260206000209060020201600160028110610a2f57610a2e6120ee565b5b015487610a3c9190611f06565b610a469190611f77565b83610a51919061211d565b9250600185610a60919061211d565b9450610969565b84600660003373ffffffffffffffffffffffffffffffffffffffff1673ffffffffffffffffffffffffffffffffffffffff168152602001908152602001600020600101819055506000841115610b0557610b043385600360009054906101000a900473ffffffffffffffffffffffffffffffffffffffff1673ffffffffffffffffffffffffffffffffffffffff166116c59092919063ffffffff16565b5b6000831115610b5c57610b5b3384600460009054906101000a900473ffffffffffffffffffffffffffffffffffffffff1673ffffffffffffffffffffffffffffffffffffffff166116c59092919063ffffffff16565b5b7f71bab65ced2e5750775a0613be067df48ef06cf92a496ebf7663ae0660924954338585604051610b8f93929190612151565b60405180910390a1505050505050610ba5611744565b565b600360009054906101000a900473ffffffffffffffffffffffffffffffffffffffff1681565b610bd561174d565b600260009054906101000a900473ffffffffffffffffffffffffffffffffffffffff1673ffffffffffffffffffffffffffffffffffffffff168173ffffffffffffffffffffffffffffffffffffffff1603610c65576040517f08c379a0000000000000000000000000000000000000000000000000000000008152600401610c5c906121d4565b60405180910390fd5b600360009054906101000a900473ffffffffffffffffffffffffffffffffffffffff1673ffffffffffffffffffffffffffffffffffffffff168173ffffffffffffffffffffffffffffffffffffffff1603610cf5576040517f08c379a0000000000000000000000000000000000000000000000000000000008152600401610cec906121d4565b60405180910390fd5b600460009054906101000a900473ffffffffffffffffffffffffffffffffffffffff1673ffffffffffffffffffffffffffffffffffffffff168173ffffffffffffffffffffffffffffffffffffffff1603610d85576040517f08c379a0000000000000000000000000000000000000000000000000000000008152600401610d7c906121d4565b60405180910390fd5b610e30610d90610e5a565b8273ffffffffffffffffffffffffffffffffffffffff166370a08231306040518263ffffffff1660e01b8152600401610dc99190611d2c565b602060405180830381865afa158015610de6573d6000803e3d6000fd5b505050506040513d601f19601f82011682018060405250810190610e0a9190611d9c565b8373ffffffffffffffffffffffffffffffffffffffff166116c59092919063ffffffff16565b50565b610e3b61174d565b610e4560006117d4565b565b6000600780549050905090565b60085481565b60008060009054906101000a900473ffffffffffffffffffffffffffffffffffffffff16905090565b60066020528060005260406000206000915090508060000154908060010154905082565b610eaf61167f565b6000600560009054906101000a900473ffffffffffffffffffffffffffffffffffffffff1673ffffffffffffffffffffffffffffffffffffffff16639168ae72336040518263ffffffff1660e01b8152600401610f0c9190611d2c565b6040805180830381865afa158015610f28573d6000803e3d6000fd5b505050506040513d601f19601f82011682018060405250810190610f4c9190611eaa565b6000015111610f90576040517f08c379a0000000000000000000000000000000000000000000000000000000008152600401610f8790612240565b60405180910390fd5b6000600660003373ffffffffffffffffffffffffffffffffffffffff1673ffffffffffffffffffffffffffffffffffffffff1681526020019081526020016000209050600081600001541480610fee57506007805490508160010154145b61102d576040517f08c379a000000000000000000000000000000000000000000000000000000000815260040161102490612039565b60405180910390fd5b81816000016000828254611041919061211d565b925050819055506002600460009054906101000a900473ffffffffffffffffffffffffffffffffffffffff1673ffffffffffffffffffffffffffffffffffffffff16632c4e722e6040518163ffffffff1660e01b8152600401602060405180830381865afa1580156110b7573d6000803e3d6000fd5b505050506040513d601f19601f820116820180604052508101906110db9190611d9c565b600560009054906101000a900473ffffffffffffffffffffffffffffffffffffffff1673ffffffffffffffffffffffffffffffffffffffff16639168ae72336040518263ffffffff1660e01b81526004016111369190611d2c565b6040805180830381865afa158015611152573d6000803e3d6000fd5b505050506040513d601f19601f820116820180604052508101906111769190611eaa565b600001516111849190611f06565b61118e9190611f77565b816000015411156111d4576040517f08c379a00000000000000000000000000000000000000000000000000000000081526004016111cb906122ac565b60405180910390fd5b600780549050816001018190555081600860008282546111f4919061211d565b9250508190555061124a333084600260009054906101000a900473ffffffffffffffffffffffffffffffffffffffff1673ffffffffffffffffffffffffffffffffffffffff16611898909392919063ffffffff16565b7febedb8b3c678666e7f36970bc8f57abf6d8fa2e828c0da91ea5b75bf68ed101a338360405161127b9291906120c5565b60405180910390a15061128c611744565b50565b600560009054906101000a900473ffffffffffffffffffffffffffffffffffffffff1681565b600460009054906101000a900473ffffffffffffffffffffffffffffffffffffffff1681565b6112e361174d565b6112eb61167f565b60006008546ec097ce7bc90715b34b9f10000000008461130b9190611f06565b6113159190611f77565b905060006008546ec097ce7bc90715b34b9f1000000000846113379190611f06565b6113419190611f77565b905060076040518060400160405280848152602001838152509080600181540180825580915050600190039060005260206000209060020201600090919091909150906002611391929190611b70565b506113e861139d610e5a565b3086600360009054906101000a900473ffffffffffffffffffffffffffffffffffffffff1673ffffffffffffffffffffffffffffffffffffffff16611898909392919063ffffffff16565b61143e6113f3610e5a565b3085600460009054906101000a900473ffffffffffffffffffffffffffffffffffffffff1673ffffffffffffffffffffffffffffffffffffffff16611898909392919063ffffffff16565b5050611448611744565b5050565b6007828154811061145c57600080fd5b9060005260206000209060020201816002811061147857600080fd5b01600091509150505481565b60006002600460009054906101000a900473ffffffffffffffffffffffffffffffffffffffff1673ffffffffffffffffffffffffffffffffffffffff16632c4e722e6040518163ffffffff1660e01b8152600401602060405180830381865afa1580156114f5573d6000803e3d6000fd5b505050506040513d601f19601f820116820180604052508101906115199190611d9c565b600560009054906101000a900473ffffffffffffffffffffffffffffffffffffffff1673ffffffffffffffffffffffffffffffffffffffff16639168ae72856040518263ffffffff1660e01b81526004016115749190611d2c565b6040805180830381865afa158015611590573d6000803e3d6000fd5b505050506040513d601f19601f820116820180604052508101906115b49190611eaa565b600001516115c29190611f06565b6115cc9190611f77565b9050919050565b6115db61174d565b600073ffffffffffffffffffffffffffffffffffffffff168173ffffffffffffffffffffffffffffffffffffffff160361164d5760006040517f1e4fbdf70000000000000000000000000000000000000000000000000000000081526004016116449190611d2c565b60405180910390fd5b611656816117d4565b50565b600260009054906101000a900473ffffffffffffffffffffffffffffffffffffffff1681565b6002600154036116bb576040517f3ee5aeb500000000000000000000000000000000000000000000000000000000815260040160405180910390fd5b6002600181905550565b61173f838473ffffffffffffffffffffffffffffffffffffffff1663a9059cbb85856040516024016116f89291906120c5565b604051602081830303815290604052915060e01b6020820180517bffffffffffffffffffffffffffffffffffffffffffffffffffffffff838183161783525050505061191a565b505050565b60018081905550565b6117556119b1565b73ffffffffffffffffffffffffffffffffffffffff16611773610e5a565b73ffffffffffffffffffffffffffffffffffffffff16146117d2576117966119b1565b6040517f118cdaa70000000000000000000000000000000000000000000000000000000081526004016117c99190611d2c565b60405180910390fd5b565b60008060009054906101000a900473ffffffffffffffffffffffffffffffffffffffff169050816000806101000a81548173ffffffffffffffffffffffffffffffffffffffff021916908373ffffffffffffffffffffffffffffffffffffffff1602179055508173ffffffffffffffffffffffffffffffffffffffff168173ffffffffffffffffffffffffffffffffffffffff167f8be0079c531659141344cd1fd0a4f28419497f9722a3daafe3b4186f6b6457e060405160405180910390a35050565b611914848573ffffffffffffffffffffffffffffffffffffffff166323b872dd8686866040516024016118cd939291906122cc565b604051602081830303815290604052915060e01b6020820180517bffffffffffffffffffffffffffffffffffffffffffffffffffffffff838183161783525050505061191a565b50505050565b6000611945828473ffffffffffffffffffffffffffffffffffffffff166119b990919063ffffffff16565b9050600081511415801561196a575080806020019051810190611968919061233b565b155b156119ac57826040517f5274afe70000000000000000000000000000000000000000000000000000000081526004016119a39190611d2c565b60405180910390fd5b505050565b600033905090565b60606119c7838360006119cf565b905092915050565b606081471015611a1657306040517fcd786059000000000000000000000000000000000000000000000000000000008152600401611a0d9190611d2c565b60405180910390fd5b6000808573ffffffffffffffffffffffffffffffffffffffff168486604051611a3f91906123d9565b60006040518083038185875af1925050503d8060008114611a7c576040519150601f19603f3d011682016040523d82523d6000602084013e611a81565b606091505b5091509150611a91868383611a9c565b925050509392505050565b606082611ab157611aac82611b2b565b611b23565b60008251148015611ad9575060008473ffffffffffffffffffffffffffffffffffffffff163b145b15611b1b57836040517f9996b315000000000000000000000000000000000000000000000000000000008152600401611b129190611d2c565b60405180910390fd5b819050611b24565b5b9392505050565b600081511115611b3e5780518082602001fd5b6040517f1425ea4200000000000000000000000000000000000000000000000000000000815260040160405180910390fd5b8260028101928215611b9f579160200282015b82811115611b9e578251825591602001919060010190611b83565b5b509050611bac9190611bb0565b5090565b5b80821115611bc9576000816000905550600101611bb1565b5090565b6000604051905090565b600080fd5b600073ffffffffffffffffffffffffffffffffffffffff82169050919050565b6000611c0782611bdc565b9050919050565b611c1781611bfc565b8114611c2257600080fd5b50565b600081359050611c3481611c0e565b92915050565b600060208284031215611c5057611c4f611bd7565b5b6000611c5e84828501611c25565b91505092915050565b6000819050919050565b611c7a81611c67565b82525050565b6000602082019050611c956000830184611c71565b92915050565b611ca481611c67565b8114611caf57600080fd5b50565b600081359050611cc181611c9b565b92915050565b600060208284031215611cdd57611cdc611bd7565b5b6000611ceb84828501611cb2565b91505092915050565b6000604082019050611d096000830185611c71565b611d166020830184611c71565b9392505050565b611d2681611bfc565b82525050565b6000602082019050611d416000830184611d1d565b92915050565b60008060408385031215611d5e57611d5d611bd7565b5b6000611d6c85828601611cb2565b9250506020611d7d85828601611cb2565b9150509250929050565b600081519050611d9681611c9b565b92915050565b600060208284031215611db257611db1611bd7565b5b6000611dc084828501611d87565b91505092915050565b600080fd5b6000601f19601f8301169050919050565b7f4e487b7100000000000000000000000000000000000000000000000000000000600052604160045260246000fd5b611e1782611dce565b810181811067ffffffffffffffff82111715611e3657611e35611ddf565b5b80604052505050565b6000611e49611bcd565b9050611e558282611e0e565b919050565b600060408284031215611e7057611e6f611dc9565b5b611e7a6040611e3f565b90506000611e8a84828501611d87565b6000830152506020611e9e84828501611d87565b60208301525092915050565b600060408284031215611ec057611ebf611bd7565b5b6000611ece84828501611e5a565b91505092915050565b7f4e487b7100000000000000000000000000000000000000000000000000000000600052601160045260246000fd5b6000611f1182611c67565b9150611f1c83611c67565b9250828202611f2a81611c67565b91508282048414831517611f4157611f40611ed7565b5b5092915050565b7f4e487b7100000000000000000000000000000000000000000000000000000000600052601260045260246000fd5b6000611f8282611c67565b9150611f8d83611c67565b925082611f9d57611f9c611f48565b5b828204905092915050565b6000611fb382611c67565b9150611fbe83611c67565b9250828203905081811115611fd657611fd5611ed7565b5b92915050565b600082825260208201905092915050565b7f50454e44494e475f424f4f53545f524557415244530000000000000000000000600082015250565b6000612023601583611fdc565b915061202e82611fed565b602082019050919050565b6000602082019050818103600083015261205281612016565b9050919050565b7f494e56414c49445f414d4f554e54000000000000000000000000000000000000600082015250565b600061208f600e83611fdc565b915061209a82612059565b602082019050919050565b600060208201905081810360008301526120be81612082565b9050919050565b60006040820190506120da6000830185611d1d565b6120e76020830184611c71565b9392505050565b7f4e487b7100000000000000000000000000000000000000000000000000000000600052603260045260246000fd5b600061212882611c67565b915061213383611c67565b925082820190508082111561214b5761214a611ed7565b5b92915050565b60006060820190506121666000830186611d1d565b6121736020830185611c71565b6121806040830184611c71565b949350505050565b7f43414e4e4f545f57495448445241575f4c4f434b45445f544f4b454e00000000600082015250565b60006121be601c83611fdc565b91506121c982612188565b602082019050919050565b600060208201905081810360008301526121ed816121b1565b9050919050565b7f4d494e494d554d5f424f4f53545f414d4f554e54000000000000000000000000600082015250565b600061222a601483611fdc565b9150612235826121f4565b602082019050919050565b600060208201905081810360008301526122598161221d565b9050919050565b7f4d41585f424f4f53545f414d4f554e5400000000000000000000000000000000600082015250565b6000612296601083611fdc565b91506122a182612260565b602082019050919050565b600060208201905081810360008301526122c581612289565b9050919050565b60006060820190506122e16000830186611d1d565b6122ee6020830185611d1d565b6122fb6040830184611c71565b949350505050565b60008115159050919050565b61231881612303565b811461232357600080fd5b50565b6000815190506123358161230f565b92915050565b60006020828403121561235157612350611bd7565b5b600061235f84828501612326565b91505092915050565b600081519050919050565b600081905092915050565b60005b8381101561239c578082015181840152602081019050612381565b60008484015250505050565b60006123b382612368565b6123bd8185612373565b93506123cd81856020860161237e565b80840191505092915050565b60006123e582846123a8565b91508190509291505056fea2646970667358221220c924a05e280a5a1bd666e77cc45e1b66a382ac4da00b98db8e6becab0a57e95264736f6c63430008180033",
  "linkReferences": {},
  "deployedLinkReferences": {}
}