{
  "_format": "hh-sol-artifact-1",
  "contractName": "BoostingStaker",
  "sourceName": "contracts/BoostingStaker.sol",
  "abi": [
    {
      "inputs": [
        {
          "internalType": "address",
          "name": "_token",
          "type": "address"
        },
        {
          "internalType": "address",
          "name": "_rewardToken1",
          "type": "address"
        },
        {
          "internalType": "address",
          "name": "_rewardToken2",
          "type": "address"
        },
        {
          "internalType": "address",
          "name": "_stakerAddress",
          "type": "address"
        }
      ],
      "stateMutability": "nonpayable",
      "type": "constructor"
    },
    {
      "inputs": [
        {
          "internalType": "address",
          "name": "target",
          "type": "address"
        }
      ],
      "name": "AddressEmptyCode",
      "type": "error"
    },
    {
      "inputs": [
        {
          "internalType": "address",
          "name": "account",
          "type": "address"
        }
      ],
      "name": "AddressInsufficientBalance",
      "type": "error"
    },
    {
      "inputs": [],
      "name": "FailedInnerCall",
      "type": "error"
    },
    {
      "inputs": [
        {
          "internalType": "address",
          "name": "owner",
          "type": "address"
        }
      ],
      "name": "OwnableInvalidOwner",
      "type": "error"
    },
    {
      "inputs": [
        {
          "internalType": "address",
          "name": "account",
          "type": "address"
        }
      ],
      "name": "OwnableUnauthorizedAccount",
      "type": "error"
    },
    {
      "inputs": [],
      "name": "ReentrancyGuardReentrantCall",
      "type": "error"
    },
    {
      "inputs": [
        {
          "internalType": "address",
          "name": "token",
          "type": "address"
        }
      ],
      "name": "SafeERC20FailedOperation",
      "type": "error"
    },
    {
      "anonymous": false,
      "inputs": [
        {
          "indexed": false,
          "internalType": "address",
          "name": "wallet",
          "type": "address"
        },
        {
          "indexed": false,
          "internalType": "uint256",
          "name": "amountToken1",
          "type": "uint256"
        },
        {
          "indexed": false,
          "internalType": "uint256",
          "name": "amountToken2",
          "type": "uint256"
        }
      ],
      "name": "Harvest",
      "type": "event"
    },
    {
      "anonymous": false,
      "inputs": [
        {
          "indexed": true,
          "internalType": "address",
          "name": "previousOwner",
          "type": "address"
        },
        {
          "indexed": true,
          "internalType": "address",
          "name": "newOwner",
          "type": "address"
        }
      ],
      "name": "OwnershipTransferred",
      "type": "event"
    },
    {
      "anonymous": false,
      "inputs": [
        {
          "indexed": false,
          "internalType": "address",
          "name": "wallet",
          "type": "address"
        },
        {
          "indexed": false,
          "internalType": "uint256",
          "name": "amount",
          "type": "uint256"
        }
      ],
      "name": "Stake",
      "type": "event"
    },
    {
      "anonymous": false,
      "inputs": [
        {
          "indexed": false,
          "internalType": "address",
          "name": "wallet",
          "type": "address"
        },
        {
          "indexed": false,
          "internalType": "uint256",
          "name": "amount",
          "type": "uint256"
        }
      ],
      "name": "Unstake",
      "type": "event"
    },
    {
      "inputs": [
        {
          "internalType": "uint256",
          "name": "rewardAmount1",
          "type": "uint256"
        },
        {
          "internalType": "uint256",
          "name": "rewardAmount2",
          "type": "uint256"
        }
      ],
      "name": "distributeRewards",
      "outputs": [],
      "stateMutability": "nonpayable",
      "type": "function"
    },
    {
      "inputs": [
        {
          "internalType": "address",
          "name": "tokenAddress",
          "type": "address"
        }
      ],
      "name": "emergencyWithdraw",
      "outputs": [],
      "stateMutability": "nonpayable",
      "type": "function"
    },
    {
      "inputs": [],
      "name": "empty",
      "outputs": [],
      "stateMutability": "nonpayable",
      "type": "function"
    },
    {
      "inputs": [],
      "name": "harvest",
      "outputs": [],
      "stateMutability": "nonpayable",
      "type": "function"
    },
    {
      "inputs": [],
      "name": "owner",
      "outputs": [
        {
          "internalType": "address",
          "name": "",
          "type": "address"
        }
      ],
      "stateMutability": "view",
      "type": "function"
    },
    {
      "inputs": [
        {
          "internalType": "address",
          "name": "_address",
          "type": "address"
        }
      ],
      "name": "pendingRewards",
      "outputs": [
        {
          "internalType": "uint256",
          "name": "",
          "type": "uint256"
        },
        {
          "internalType": "uint256",
          "name": "",
          "type": "uint256"
        }
      ],
      "stateMutability": "view",
      "type": "function"
    },
    {
      "inputs": [],
      "name": "renounceOwnership",
      "outputs": [],
      "stateMutability": "nonpayable",
      "type": "function"
    },
    {
      "inputs": [
        {
          "internalType": "uint256",
          "name": "",
          "type": "uint256"
        },
        {
          "internalType": "uint256",
          "name": "",
          "type": "uint256"
        }
      ],
      "name": "rewardRounds",
      "outputs": [
        {
          "internalType": "uint256",
          "name": "",
          "type": "uint256"
        }
      ],
      "stateMutability": "view",
      "type": "function"
    },
    {
      "inputs": [],
      "name": "rewardToken1",
      "outputs": [
        {
          "internalType": "address",
          "name": "",
          "type": "address"
        }
      ],
      "stateMutability": "view",
      "type": "function"
    },
    {
      "inputs": [],
      "name": "rewardToken2",
      "outputs": [
        {
          "internalType": "address",
          "name": "",
          "type": "address"
        }
      ],
      "stateMutability": "view",
      "type": "function"
    },
    {
      "inputs": [
        {
          "internalType": "uint256",
          "name": "_amount",
          "type": "uint256"
        }
      ],
      "name": "stake",
      "outputs": [],
      "stateMutability": "nonpayable",
      "type": "function"
    },
    {
      "inputs": [],
      "name": "stakerAddress",
      "outputs": [
        {
          "internalType": "address",
          "name": "",
          "type": "address"
        }
      ],
      "stateMutability": "view",
      "type": "function"
    },
    {
      "inputs": [
        {
          "internalType": "address",
          "name": "",
          "type": "address"
        }
      ],
      "name": "stakers",
      "outputs": [
        {
          "internalType": "uint256",
          "name": "amount",
          "type": "uint256"
        },
        {
          "internalType": "uint256",
          "name": "lastRewardRound",
          "type": "uint256"
        }
      ],
      "stateMutability": "view",
      "type": "function"
    },
    {
      "inputs": [],
      "name": "token",
      "outputs": [
        {
          "internalType": "address",
          "name": "",
          "type": "address"
        }
      ],
      "stateMutability": "view",
      "type": "function"
    },
    {
      "inputs": [],
      "name": "totalStaked",
      "outputs": [
        {
          "internalType": "uint256",
          "name": "",
          "type": "uint256"
        }
      ],
      "stateMutability": "view",
      "type": "function"
    },
    {
      "inputs": [
        {
          "internalType": "address",
          "name": "newOwner",
          "type": "address"
        }
      ],
      "name": "transferOwnership",
      "outputs": [],
      "stateMutability": "nonpayable",
      "type": "function"
    },
    {
      "inputs": [
        {
          "internalType": "uint256",
          "name": "_amount",
          "type": "uint256"
        }
      ],
      "name": "unstake",
      "outputs": [],
      "stateMutability": "nonpayable",
      "type": "function"
    }
  ],
  "bytecode": "0x60806040523480156200001157600080fd5b506040516200282438038062002824833981810160405281019062000037919062000302565b33600073ffffffffffffffffffffffffffffffffffffffff168173ffffffffffffffffffffffffffffffffffffffff1603620000ad5760006040517f1e4fbdf7000000000000000000000000000000000000000000000000000000008152600401620000a4919062000385565b60405180910390fd5b620000be81620001d460201b60201c565b506001808190555083600260006101000a81548173ffffffffffffffffffffffffffffffffffffffff021916908373ffffffffffffffffffffffffffffffffffffffff16021790555082600360006101000a81548173ffffffffffffffffffffffffffffffffffffffff021916908373ffffffffffffffffffffffffffffffffffffffff16021790555081600460006101000a81548173ffffffffffffffffffffffffffffffffffffffff021916908373ffffffffffffffffffffffffffffffffffffffff16021790555080600560006101000a81548173ffffffffffffffffffffffffffffffffffffffff021916908373ffffffffffffffffffffffffffffffffffffffff16021790555050505050620003a2565b60008060009054906101000a900473ffffffffffffffffffffffffffffffffffffffff169050816000806101000a81548173ffffffffffffffffffffffffffffffffffffffff021916908373ffffffffffffffffffffffffffffffffffffffff1602179055508173ffffffffffffffffffffffffffffffffffffffff168173ffffffffffffffffffffffffffffffffffffffff167f8be0079c531659141344cd1fd0a4f28419497f9722a3daafe3b4186f6b6457e060405160405180910390a35050565b600080fd5b600073ffffffffffffffffffffffffffffffffffffffff82169050919050565b6000620002ca826200029d565b9050919050565b620002dc81620002bd565b8114620002e857600080fd5b50565b600081519050620002fc81620002d1565b92915050565b600080600080608085870312156200031f576200031e62000298565b5b60006200032f87828801620002eb565b94505060206200034287828801620002eb565b93505060406200035587828801620002eb565b92505060606200036887828801620002eb565b91505092959194509250565b6200037f81620002bd565b82525050565b60006020820190506200039c600083018462000374565b92915050565b61247280620003b26000396000f3fe608060405234801561001057600080fd5b506004361061010b5760003560e01c80639168ae72116100a2578063df6c39fb11610071578063df6c39fb14610270578063e69759641461028c578063f2a75fe4146102bc578063f2fde38b146102c6578063fc0c546a146102e25761010b565b80639168ae72146101e7578063a694fc3a14610218578063d470316b14610234578063d61a47f1146102525761010b565b80636ff1c9bc116100de5780636ff1c9bc14610185578063715018a6146101a1578063817b1cd2146101ab5780638da5cb5b146101c95761010b565b80632e17de781461011057806331d7a2621461012c5780634641257d1461015d5780636f28d68814610167575b600080fd5b61012a60048036038101906101259190611c5e565b610300565b005b61014660048036038101906101419190611ce9565b6104a3565b604051610154929190611d25565b60405180910390f35b61016561067c565b005b61016f610976565b60405161017c9190611d5d565b60405180910390f35b61019f600480360381019061019a9190611ce9565b61099c565b005b6101a9610c02565b005b6101b3610c16565b6040516101c09190611d78565b60405180910390f35b6101d1610c1c565b6040516101de9190611d5d565b60405180910390f35b61020160048036038101906101fc9190611ce9565b610c45565b60405161020f929190611d25565b60405180910390f35b610232600480360381019061022d9190611c5e565b610c69565b005b61023c611057565b6040516102499190611d5d565b60405180910390f35b61025a61107d565b6040516102679190611d5d565b60405180910390f35b61028a60048036038101906102859190611d93565b6110a3565b005b6102a660048036038101906102a19190611d93565b611214565b6040516102b39190611d78565b60405180910390f35b6102c461124c565b005b6102e060048036038101906102db9190611ce9565b61161f565b005b6102ea6116a5565b6040516102f79190611d5d565b60405180910390f35b6103086116cb565b6000600660003373ffffffffffffffffffffffffffffffffffffffff1673ffffffffffffffffffffffffffffffffffffffff1681526020019081526020016000209050600780549050816001015414610396576040517f08c379a000000000000000000000000000000000000000000000000000000000815260040161038d90611e30565b60405180910390fd5b80600001548211156103dd576040517f08c379a00000000000000000000000000000000000000000000000000000000081526004016103d490611e9c565b60405180910390fd5b818160000160008282546103f19190611eeb565b92505081905550816008600082825461040a9190611eeb565b9250508190555061045e3383600260009054906101000a900473ffffffffffffffffffffffffffffffffffffffff1673ffffffffffffffffffffffffffffffffffffffff166117119092919063ffffffff16565b7f85082129d87b2fe11527cb1b3b7a520aeb5aa6913f88a3d8757fe40d1db02fdd338360405161048f929190611f1f565b60405180910390a1506104a0611790565b50565b6000806000600660008573ffffffffffffffffffffffffffffffffffffffff1673ffffffffffffffffffffffffffffffffffffffff16815260200190815260200160002090506000806000836001015490505b60078054905081101561066d576ec097ce7bc90715b34b9f10000000006007828154811061052757610526611f48565b5b906000526020600020906002020160006002811061054857610547611f48565b5b0154600660008a73ffffffffffffffffffffffffffffffffffffffff1673ffffffffffffffffffffffffffffffffffffffff168152602001908152602001600020600001546105979190611f77565b6105a19190611fe8565b836105ac9190612019565b92506ec097ce7bc90715b34b9f1000000000600782815481106105d2576105d1611f48565b5b90600052602060002090600202016001600281106105f3576105f2611f48565b5b0154600660008a73ffffffffffffffffffffffffffffffffffffffff1673ffffffffffffffffffffffffffffffffffffffff168152602001908152602001600020600001546106429190611f77565b61064c9190611fe8565b826106579190612019565b91506001816106669190612019565b90506104f6565b82829550955050505050915091565b6106846116cb565b6000600660003373ffffffffffffffffffffffffffffffffffffffff1673ffffffffffffffffffffffffffffffffffffffff1681526020019081526020016000206000015490506000600660003373ffffffffffffffffffffffffffffffffffffffff1673ffffffffffffffffffffffffffffffffffffffff16815260200190815260200160002060010154905060008060005a905060006064600a8361072b9190611f77565b6107359190611fe8565b90505b6007805490508510801561074b5750805a115b15610836576ec097ce7bc90715b34b9f10000000006007868154811061077457610773611f48565b5b906000526020600020906002020160006002811061079557610794611f48565b5b0154876107a29190611f77565b6107ac9190611fe8565b846107b79190612019565b93506ec097ce7bc90715b34b9f1000000000600786815481106107dd576107dc611f48565b5b90600052602060002090600202016001600281106107fe576107fd611f48565b5b01548761080b9190611f77565b6108159190611fe8565b836108209190612019565b925060018561082f9190612019565b9450610738565b84600660003373ffffffffffffffffffffffffffffffffffffffff1673ffffffffffffffffffffffffffffffffffffffff1681526020019081526020016000206001018190555060008411156108d4576108d33385600360009054906101000a900473ffffffffffffffffffffffffffffffffffffffff1673ffffffffffffffffffffffffffffffffffffffff166117119092919063ffffffff16565b5b600083111561092b5761092a3384600460009054906101000a900473ffffffffffffffffffffffffffffffffffffffff1673ffffffffffffffffffffffffffffffffffffffff166117119092919063ffffffff16565b5b7f71bab65ced2e5750775a0613be067df48ef06cf92a496ebf7663ae066092495433858560405161095e9392919061204d565b60405180910390a1505050505050610974611790565b565b600360009054906101000a900473ffffffffffffffffffffffffffffffffffffffff1681565b6109a4611799565b600260009054906101000a900473ffffffffffffffffffffffffffffffffffffffff1673ffffffffffffffffffffffffffffffffffffffff168173ffffffffffffffffffffffffffffffffffffffff1603610a34576040517f08c379a0000000000000000000000000000000000000000000000000000000008152600401610a2b906120d0565b60405180910390fd5b600360009054906101000a900473ffffffffffffffffffffffffffffffffffffffff1673ffffffffffffffffffffffffffffffffffffffff168173ffffffffffffffffffffffffffffffffffffffff1603610ac4576040517f08c379a0000000000000000000000000000000000000000000000000000000008152600401610abb906120d0565b60405180910390fd5b600460009054906101000a900473ffffffffffffffffffffffffffffffffffffffff1673ffffffffffffffffffffffffffffffffffffffff168173ffffffffffffffffffffffffffffffffffffffff1603610b54576040517f08c379a0000000000000000000000000000000000000000000000000000000008152600401610b4b906120d0565b60405180910390fd5b610bff610b5f610c1c565b8273ffffffffffffffffffffffffffffffffffffffff166370a08231306040518263ffffffff1660e01b8152600401610b989190611d5d565b602060405180830381865afa158015610bb5573d6000803e3d6000fd5b505050506040513d601f19601f82011682018060405250810190610bd99190612105565b8373ffffffffffffffffffffffffffffffffffffffff166117119092919063ffffffff16565b50565b610c0a611799565b610c146000611820565b565b60085481565b60008060009054906101000a900473ffffffffffffffffffffffffffffffffffffffff16905090565b60066020528060005260406000206000915090508060000154908060010154905082565b610c716116cb565b6000600560009054906101000a900473ffffffffffffffffffffffffffffffffffffffff1673ffffffffffffffffffffffffffffffffffffffff16639168ae72336040518263ffffffff1660e01b8152600401610cce9190611d5d565b60408051808303816000875af1158015610cec573d6000803e3d6000fd5b505050506040513d601f19601f82011682018060405250810190610d109190612213565b6000015111610d54576040517f08c379a0000000000000000000000000000000000000000000000000000000008152600401610d4b9061228c565b60405180910390fd5b6000600660003373ffffffffffffffffffffffffffffffffffffffff1673ffffffffffffffffffffffffffffffffffffffff1681526020019081526020016000209050600081600001541480610db257506007805490508160010154145b610df1576040517f08c379a0000000000000000000000000000000000000000000000000000000008152600401610de890611e30565b60405180910390fd5b81816000016000828254610e059190612019565b925050819055506002600460009054906101000a900473ffffffffffffffffffffffffffffffffffffffff1673ffffffffffffffffffffffffffffffffffffffff16632c4e722e6040518163ffffffff1660e01b81526004016020604051808303816000875af1158015610e7d573d6000803e3d6000fd5b505050506040513d601f19601f82011682018060405250810190610ea19190612105565b600560009054906101000a900473ffffffffffffffffffffffffffffffffffffffff1673ffffffffffffffffffffffffffffffffffffffff16639168ae72336040518263ffffffff1660e01b8152600401610efc9190611d5d565b60408051808303816000875af1158015610f1a573d6000803e3d6000fd5b505050506040513d601f19601f82011682018060405250810190610f3e9190612213565b60000151610f4c9190611f77565b610f569190611fe8565b81600001541115610f9c576040517f08c379a0000000000000000000000000000000000000000000000000000000008152600401610f93906122f8565b60405180910390fd5b60078054905081600101819055508160086000828254610fbc9190612019565b92505081905550611012333084600260009054906101000a900473ffffffffffffffffffffffffffffffffffffffff1673ffffffffffffffffffffffffffffffffffffffff166118e4909392919063ffffffff16565b7febedb8b3c678666e7f36970bc8f57abf6d8fa2e828c0da91ea5b75bf68ed101a3383604051611043929190611f1f565b60405180910390a150611054611790565b50565b600560009054906101000a900473ffffffffffffffffffffffffffffffffffffffff1681565b600460009054906101000a900473ffffffffffffffffffffffffffffffffffffffff1681565b6110ab611799565b6110b36116cb565b60006008546ec097ce7bc90715b34b9f1000000000846110d39190611f77565b6110dd9190611fe8565b905060006008546ec097ce7bc90715b34b9f1000000000846110ff9190611f77565b6111099190611fe8565b905060076040518060400160405280848152602001838152509080600181540180825580915050600190039060005260206000209060020201600090919091909150906002611159929190611bbc565b506111b0611165610c1c565b3086600360009054906101000a900473ffffffffffffffffffffffffffffffffffffffff1673ffffffffffffffffffffffffffffffffffffffff166118e4909392919063ffffffff16565b6112066111bb610c1c565b3085600460009054906101000a900473ffffffffffffffffffffffffffffffffffffffff1673ffffffffffffffffffffffffffffffffffffffff166118e4909392919063ffffffff16565b5050611210611790565b5050565b6007828154811061122457600080fd5b9060005260206000209060020201816002811061124057600080fd5b01600091509150505481565b611254611799565b600260009054906101000a900473ffffffffffffffffffffffffffffffffffffffff1673ffffffffffffffffffffffffffffffffffffffff1663a9059cbb61129a610c1c565b600260009054906101000a900473ffffffffffffffffffffffffffffffffffffffff1673ffffffffffffffffffffffffffffffffffffffff166370a08231306040518263ffffffff1660e01b81526004016112f59190611d5d565b602060405180830381865afa158015611312573d6000803e3d6000fd5b505050506040513d601f19601f820116820180604052508101906113369190612105565b6040518363ffffffff1660e01b8152600401611353929190611f1f565b6020604051808303816000875af1158015611372573d6000803e3d6000fd5b505050506040513d601f19601f820116820180604052508101906113969190612350565b50600360009054906101000a900473ffffffffffffffffffffffffffffffffffffffff1673ffffffffffffffffffffffffffffffffffffffff1663a9059cbb6113dd610c1c565b600360009054906101000a900473ffffffffffffffffffffffffffffffffffffffff1673ffffffffffffffffffffffffffffffffffffffff166370a08231306040518263ffffffff1660e01b81526004016114389190611d5d565b602060405180830381865afa158015611455573d6000803e3d6000fd5b505050506040513d601f19601f820116820180604052508101906114799190612105565b6040518363ffffffff1660e01b8152600401611496929190611f1f565b6020604051808303816000875af11580156114b5573d6000803e3d6000fd5b505050506040513d601f19601f820116820180604052508101906114d99190612350565b50600460009054906101000a900473ffffffffffffffffffffffffffffffffffffffff1673ffffffffffffffffffffffffffffffffffffffff1663a9059cbb611520610c1c565b600460009054906101000a900473ffffffffffffffffffffffffffffffffffffffff1673ffffffffffffffffffffffffffffffffffffffff166370a08231306040518263ffffffff1660e01b815260040161157b9190611d5d565b602060405180830381865afa158015611598573d6000803e3d6000fd5b505050506040513d601f19601f820116820180604052508101906115bc9190612105565b6040518363ffffffff1660e01b81526004016115d9929190611f1f565b6020604051808303816000875af11580156115f8573d6000803e3d6000fd5b505050506040513d601f19601f8201168201806040525081019061161c9190612350565b50565b611627611799565b600073ffffffffffffffffffffffffffffffffffffffff168173ffffffffffffffffffffffffffffffffffffffff16036116995760006040517f1e4fbdf70000000000000000000000000000000000000000000000000000000081526004016116909190611d5d565b60405180910390fd5b6116a281611820565b50565b600260009054906101000a900473ffffffffffffffffffffffffffffffffffffffff1681565b600260015403611707576040517f3ee5aeb500000000000000000000000000000000000000000000000000000000815260040160405180910390fd5b6002600181905550565b61178b838473ffffffffffffffffffffffffffffffffffffffff1663a9059cbb8585604051602401611744929190611f1f565b604051602081830303815290604052915060e01b6020820180517bffffffffffffffffffffffffffffffffffffffffffffffffffffffff8381831617835250505050611966565b505050565b60018081905550565b6117a16119fd565b73ffffffffffffffffffffffffffffffffffffffff166117bf610c1c565b73ffffffffffffffffffffffffffffffffffffffff161461181e576117e26119fd565b6040517f118cdaa70000000000000000000000000000000000000000000000000000000081526004016118159190611d5d565b60405180910390fd5b565b60008060009054906101000a900473ffffffffffffffffffffffffffffffffffffffff169050816000806101000a81548173ffffffffffffffffffffffffffffffffffffffff021916908373ffffffffffffffffffffffffffffffffffffffff1602179055508173ffffffffffffffffffffffffffffffffffffffff168173ffffffffffffffffffffffffffffffffffffffff167f8be0079c531659141344cd1fd0a4f28419497f9722a3daafe3b4186f6b6457e060405160405180910390a35050565b611960848573ffffffffffffffffffffffffffffffffffffffff166323b872dd8686866040516024016119199392919061237d565b604051602081830303815290604052915060e01b6020820180517bffffffffffffffffffffffffffffffffffffffffffffffffffffffff8381831617835250505050611966565b50505050565b6000611991828473ffffffffffffffffffffffffffffffffffffffff16611a0590919063ffffffff16565b905060008151141580156119b65750808060200190518101906119b49190612350565b155b156119f857826040517f5274afe70000000000000000000000000000000000000000000000000000000081526004016119ef9190611d5d565b60405180910390fd5b505050565b600033905090565b6060611a1383836000611a1b565b905092915050565b606081471015611a6257306040517fcd786059000000000000000000000000000000000000000000000000000000008152600401611a599190611d5d565b60405180910390fd5b6000808573ffffffffffffffffffffffffffffffffffffffff168486604051611a8b9190612425565b60006040518083038185875af1925050503d8060008114611ac8576040519150601f19603f3d011682016040523d82523d6000602084013e611acd565b606091505b5091509150611add868383611ae8565b925050509392505050565b606082611afd57611af882611b77565b611b6f565b60008251148015611b25575060008473ffffffffffffffffffffffffffffffffffffffff163b145b15611b6757836040517f9996b315000000000000000000000000000000000000000000000000000000008152600401611b5e9190611d5d565b60405180910390fd5b819050611b70565b5b9392505050565b600081511115611b8a5780518082602001fd5b6040517f1425ea4200000000000000000000000000000000000000000000000000000000815260040160405180910390fd5b8260028101928215611beb579160200282015b82811115611bea578251825591602001919060010190611bcf565b5b509050611bf89190611bfc565b5090565b5b80821115611c15576000816000905550600101611bfd565b5090565b6000604051905090565b600080fd5b6000819050919050565b611c3b81611c28565b8114611c4657600080fd5b50565b600081359050611c5881611c32565b92915050565b600060208284031215611c7457611c73611c23565b5b6000611c8284828501611c49565b91505092915050565b600073ffffffffffffffffffffffffffffffffffffffff82169050919050565b6000611cb682611c8b565b9050919050565b611cc681611cab565b8114611cd157600080fd5b50565b600081359050611ce381611cbd565b92915050565b600060208284031215611cff57611cfe611c23565b5b6000611d0d84828501611cd4565b91505092915050565b611d1f81611c28565b82525050565b6000604082019050611d3a6000830185611d16565b611d476020830184611d16565b9392505050565b611d5781611cab565b82525050565b6000602082019050611d726000830184611d4e565b92915050565b6000602082019050611d8d6000830184611d16565b92915050565b60008060408385031215611daa57611da9611c23565b5b6000611db885828601611c49565b9250506020611dc985828601611c49565b9150509250929050565b600082825260208201905092915050565b7f50454e44494e475f424f4f53545f524557415244530000000000000000000000600082015250565b6000611e1a601583611dd3565b9150611e2582611de4565b602082019050919050565b60006020820190508181036000830152611e4981611e0d565b9050919050565b7f494e56414c49445f414d4f554e54000000000000000000000000000000000000600082015250565b6000611e86600e83611dd3565b9150611e9182611e50565b602082019050919050565b60006020820190508181036000830152611eb581611e79565b9050919050565b7f4e487b7100000000000000000000000000000000000000000000000000000000600052601160045260246000fd5b6000611ef682611c28565b9150611f0183611c28565b9250828203905081811115611f1957611f18611ebc565b5b92915050565b6000604082019050611f346000830185611d4e565b611f416020830184611d16565b9392505050565b7f4e487b7100000000000000000000000000000000000000000000000000000000600052603260045260246000fd5b6000611f8282611c28565b9150611f8d83611c28565b9250828202611f9b81611c28565b91508282048414831517611fb257611fb1611ebc565b5b5092915050565b7f4e487b7100000000000000000000000000000000000000000000000000000000600052601260045260246000fd5b6000611ff382611c28565b9150611ffe83611c28565b92508261200e5761200d611fb9565b5b828204905092915050565b600061202482611c28565b915061202f83611c28565b925082820190508082111561204757612046611ebc565b5b92915050565b60006060820190506120626000830186611d4e565b61206f6020830185611d16565b61207c6040830184611d16565b949350505050565b7f43414e4e4f545f57495448445241575f4c4f434b45445f544f4b454e00000000600082015250565b60006120ba601c83611dd3565b91506120c582612084565b602082019050919050565b600060208201905081810360008301526120e9816120ad565b9050919050565b6000815190506120ff81611c32565b92915050565b60006020828403121561211b5761211a611c23565b5b6000612129848285016120f0565b91505092915050565b600080fd5b6000601f19601f8301169050919050565b7f4e487b7100000000000000000000000000000000000000000000000000000000600052604160045260246000fd5b61218082612137565b810181811067ffffffffffffffff8211171561219f5761219e612148565b5b80604052505050565b60006121b2611c19565b90506121be8282612177565b919050565b6000604082840312156121d9576121d8612132565b5b6121e360406121a8565b905060006121f3848285016120f0565b6000830152506020612207848285016120f0565b60208301525092915050565b60006040828403121561222957612228611c23565b5b6000612237848285016121c3565b91505092915050565b7f4d494e494d554d5f424f4f53545f414d4f554e54000000000000000000000000600082015250565b6000612276601483611dd3565b915061228182612240565b602082019050919050565b600060208201905081810360008301526122a581612269565b9050919050565b7f4d41585f424f4f53545f414d4f554e5400000000000000000000000000000000600082015250565b60006122e2601083611dd3565b91506122ed826122ac565b602082019050919050565b60006020820190508181036000830152612311816122d5565b9050919050565b60008115159050919050565b61232d81612318565b811461233857600080fd5b50565b60008151905061234a81612324565b92915050565b60006020828403121561236657612365611c23565b5b60006123748482850161233b565b91505092915050565b60006060820190506123926000830186611d4e565b61239f6020830185611d4e565b6123ac6040830184611d16565b949350505050565b600081519050919050565b600081905092915050565b60005b838110156123e85780820151818401526020810190506123cd565b60008484015250505050565b60006123ff826123b4565b61240981856123bf565b93506124198185602086016123ca565b80840191505092915050565b600061243182846123f4565b91508190509291505056fea2646970667358221220a08737ea5921fff9baa9871abec52cfd84f67b8d06a7ea77bab36280a065a11464736f6c63430008180033",
  "linkReferences": {},
  "deployedLinkReferences": {}
}