{
  "_format": "hh-sol-artifact-1",
  "contractName": "FarmingSplitter",
  "sourceName": "contracts/RewardSplitter.sol",
  "abi": [
    {
      "inputs": [
        {
          "internalType": "address",
          "name": "_ldt",
          "type": "address"
        },
        {
          "internalType": "address",
          "name": "_tbb",
          "type": "address"
        },
        {
          "internalType": "address",
          "name": "_tbs",
          "type": "address"
        },
        {
          "internalType": "address",
          "name": "_tbg",
          "type": "address"
        },
        {
          "internalType": "address[]",
          "name": "_farms",
          "type": "address[]"
        }
      ],
      "stateMutability": "nonpayable",
      "type": "constructor"
    },
    {
      "inputs": [
        {
          "internalType": "address",
          "name": "owner",
          "type": "address"
        }
      ],
      "name": "OwnableInvalidOwner",
      "type": "error"
    },
    {
      "inputs": [
        {
          "internalType": "address",
          "name": "account",
          "type": "address"
        }
      ],
      "name": "OwnableUnauthorizedAccount",
      "type": "error"
    },
    {
      "anonymous": false,
      "inputs": [
        {
          "indexed": true,
          "internalType": "address",
          "name": "previousOwner",
          "type": "address"
        },
        {
          "indexed": true,
          "internalType": "address",
          "name": "newOwner",
          "type": "address"
        }
      ],
      "name": "OwnershipTransferStarted",
      "type": "event"
    },
    {
      "anonymous": false,
      "inputs": [
        {
          "indexed": true,
          "internalType": "address",
          "name": "previousOwner",
          "type": "address"
        },
        {
          "indexed": true,
          "internalType": "address",
          "name": "newOwner",
          "type": "address"
        }
      ],
      "name": "OwnershipTransferred",
      "type": "event"
    },
    {
      "inputs": [],
      "name": "MAX_RATE",
      "outputs": [
        {
          "internalType": "uint256",
          "name": "",
          "type": "uint256"
        }
      ],
      "stateMutability": "view",
      "type": "function"
    },
    {
      "inputs": [],
      "name": "MIN_RATE",
      "outputs": [
        {
          "internalType": "uint256",
          "name": "",
          "type": "uint256"
        }
      ],
      "stateMutability": "view",
      "type": "function"
    },
    {
      "inputs": [],
      "name": "acceptOwnership",
      "outputs": [],
      "stateMutability": "nonpayable",
      "type": "function"
    },
    {
      "inputs": [
        {
          "internalType": "uint256",
          "name": "_ldt",
          "type": "uint256"
        },
        {
          "internalType": "uint256",
          "name": "_tb",
          "type": "uint256"
        }
      ],
      "name": "calculate",
      "outputs": [
        {
          "components": [
            {
              "components": [
                {
                  "components": [
                    {
                      "internalType": "uint256",
                      "name": "ldt",
                      "type": "uint256"
                    },
                    {
                      "internalType": "uint256",
                      "name": "tb",
                      "type": "uint256"
                    },
                    {
                      "internalType": "uint256",
                      "name": "ldtLiquidity",
                      "type": "uint256"
                    },
                    {
                      "internalType": "uint256",
                      "name": "tbLiquidity",
                      "type": "uint256"
                    }
                  ],
                  "internalType": "struct Reward",
                  "name": "liquidity",
                  "type": "tuple"
                },
                {
                  "internalType": "uint256",
                  "name": "ldt",
                  "type": "uint256"
                },
                {
                  "internalType": "uint256",
                  "name": "tb",
                  "type": "uint256"
                }
              ],
              "internalType": "struct Farm",
              "name": "tbb",
              "type": "tuple"
            },
            {
              "components": [
                {
                  "components": [
                    {
                      "internalType": "uint256",
                      "name": "ldt",
                      "type": "uint256"
                    },
                    {
                      "internalType": "uint256",
                      "name": "tb",
                      "type": "uint256"
                    },
                    {
                      "internalType": "uint256",
                      "name": "ldtLiquidity",
                      "type": "uint256"
                    },
                    {
                      "internalType": "uint256",
                      "name": "tbLiquidity",
                      "type": "uint256"
                    }
                  ],
                  "internalType": "struct Reward",
                  "name": "liquidity",
                  "type": "tuple"
                },
                {
                  "internalType": "uint256",
                  "name": "ldt",
                  "type": "uint256"
                },
                {
                  "internalType": "uint256",
                  "name": "tb",
                  "type": "uint256"
                }
              ],
              "internalType": "struct Farm",
              "name": "tbs",
              "type": "tuple"
            },
            {
              "components": [
                {
                  "components": [
                    {
                      "internalType": "uint256",
                      "name": "ldt",
                      "type": "uint256"
                    },
                    {
                      "internalType": "uint256",
                      "name": "tb",
                      "type": "uint256"
                    },
                    {
                      "internalType": "uint256",
                      "name": "ldtLiquidity",
                      "type": "uint256"
                    },
                    {
                      "internalType": "uint256",
                      "name": "tbLiquidity",
                      "type": "uint256"
                    }
                  ],
                  "internalType": "struct Reward",
                  "name": "liquidity",
                  "type": "tuple"
                },
                {
                  "internalType": "uint256",
                  "name": "ldt",
                  "type": "uint256"
                },
                {
                  "internalType": "uint256",
                  "name": "tb",
                  "type": "uint256"
                }
              ],
              "internalType": "struct Farm",
              "name": "tbg",
              "type": "tuple"
            }
          ],
          "internalType": "struct RewardsAmounts",
          "name": "rewards",
          "type": "tuple"
        }
      ],
      "stateMutability": "nonpayable",
      "type": "function"
    },
    {
      "inputs": [
        {
          "internalType": "address",
          "name": "_farm",
          "type": "address"
        },
        {
          "components": [
            {
              "internalType": "uint256",
              "name": "ldt",
              "type": "uint256"
            },
            {
              "internalType": "uint256",
              "name": "tb",
              "type": "uint256"
            }
          ],
          "internalType": "struct RewardRate",
          "name": "_rate",
          "type": "tuple"
        }
      ],
      "name": "calculateReward",
      "outputs": [
        {
          "components": [
            {
              "internalType": "uint256",
              "name": "ldt",
              "type": "uint256"
            },
            {
              "internalType": "uint256",
              "name": "tb",
              "type": "uint256"
            },
            {
              "internalType": "uint256",
              "name": "ldtLiquidity",
              "type": "uint256"
            },
            {
              "internalType": "uint256",
              "name": "tbLiquidity",
              "type": "uint256"
            }
          ],
          "internalType": "struct Reward",
          "name": "",
          "type": "tuple"
        }
      ],
      "stateMutability": "view",
      "type": "function"
    },
    {
      "inputs": [
        {
          "internalType": "uint256",
          "name": "",
          "type": "uint256"
        }
      ],
      "name": "farms",
      "outputs": [
        {
          "internalType": "address",
          "name": "",
          "type": "address"
        }
      ],
      "stateMutability": "view",
      "type": "function"
    },
    {
      "inputs": [
        {
          "internalType": "address",
          "name": "_farm",
          "type": "address"
        }
      ],
      "name": "getLdtLiquidity",
      "outputs": [
        {
          "internalType": "uint256",
          "name": "liquidity",
          "type": "uint256"
        }
      ],
      "stateMutability": "view",
      "type": "function"
    },
    {
      "inputs": [],
      "name": "ldt",
      "outputs": [
        {
          "internalType": "address",
          "name": "",
          "type": "address"
        }
      ],
      "stateMutability": "view",
      "type": "function"
    },
    {
      "inputs": [],
      "name": "owner",
      "outputs": [
        {
          "internalType": "address",
          "name": "",
          "type": "address"
        }
      ],
      "stateMutability": "view",
      "type": "function"
    },
    {
      "inputs": [],
      "name": "pendingOwner",
      "outputs": [
        {
          "internalType": "address",
          "name": "",
          "type": "address"
        }
      ],
      "stateMutability": "view",
      "type": "function"
    },
    {
      "inputs": [],
      "name": "renounceOwnership",
      "outputs": [],
      "stateMutability": "nonpayable",
      "type": "function"
    },
    {
      "inputs": [],
      "name": "tbb",
      "outputs": [
        {
          "internalType": "address",
          "name": "",
          "type": "address"
        }
      ],
      "stateMutability": "view",
      "type": "function"
    },
    {
      "inputs": [],
      "name": "tbbFarmingRewardRate",
      "outputs": [
        {
          "internalType": "uint256",
          "name": "ldt",
          "type": "uint256"
        },
        {
          "internalType": "uint256",
          "name": "tb",
          "type": "uint256"
        }
      ],
      "stateMutability": "view",
      "type": "function"
    },
    {
      "inputs": [],
      "name": "tbg",
      "outputs": [
        {
          "internalType": "address",
          "name": "",
          "type": "address"
        }
      ],
      "stateMutability": "view",
      "type": "function"
    },
    {
      "inputs": [],
      "name": "tbgFarmingRewardRate",
      "outputs": [
        {
          "internalType": "uint256",
          "name": "ldt",
          "type": "uint256"
        },
        {
          "internalType": "uint256",
          "name": "tb",
          "type": "uint256"
        }
      ],
      "stateMutability": "view",
      "type": "function"
    },
    {
      "inputs": [],
      "name": "tbs",
      "outputs": [
        {
          "internalType": "address",
          "name": "",
          "type": "address"
        }
      ],
      "stateMutability": "view",
      "type": "function"
    },
    {
      "inputs": [],
      "name": "tbsFarmingRewardRate",
      "outputs": [
        {
          "internalType": "uint256",
          "name": "ldt",
          "type": "uint256"
        },
        {
          "internalType": "uint256",
          "name": "tb",
          "type": "uint256"
        }
      ],
      "stateMutability": "view",
      "type": "function"
    },
    {
      "inputs": [
        {
          "internalType": "address",
          "name": "newOwner",
          "type": "address"
        }
      ],
      "name": "transferOwnership",
      "outputs": [],
      "stateMutability": "nonpayable",
      "type": "function"
    }
  ],
  "bytecode": "0x6080604052604051806040016040528060c8815260200160c881525060076000820151816000015560208201518160010155505060405180604001604052806101f481526020016101f481525060096000820151816000015560208201518160010155505060405180604001604052806103e881526020016103e8815250600b60008201518160000155602082015181600101555050348015620000a257600080fd5b5060405162002439380380620024398339818101604052810190620000c8919062000611565b33600073ffffffffffffffffffffffffffffffffffffffff168173ffffffffffffffffffffffffffffffffffffffff16036200013e5760006040517f1e4fbdf7000000000000000000000000000000000000000000000000000000008152600401620001359190620006c9565b60405180910390fd5b6200014f816200027860201b60201c565b5084600260006101000a81548173ffffffffffffffffffffffffffffffffffffffff021916908373ffffffffffffffffffffffffffffffffffffffff16021790555083600360006101000a81548173ffffffffffffffffffffffffffffffffffffffff021916908373ffffffffffffffffffffffffffffffffffffffff16021790555082600460006101000a81548173ffffffffffffffffffffffffffffffffffffffff021916908373ffffffffffffffffffffffffffffffffffffffff16021790555081600560006101000a81548173ffffffffffffffffffffffffffffffffffffffff021916908373ffffffffffffffffffffffffffffffffffffffff16021790555080600690805190602001906200026c92919062000375565b505050505050620006e6565b600160006101000a81549073ffffffffffffffffffffffffffffffffffffffff0219169055620002ae81620002b160201b60201c565b50565b60008060009054906101000a900473ffffffffffffffffffffffffffffffffffffffff169050816000806101000a81548173ffffffffffffffffffffffffffffffffffffffff021916908373ffffffffffffffffffffffffffffffffffffffff1602179055508173ffffffffffffffffffffffffffffffffffffffff168173ffffffffffffffffffffffffffffffffffffffff167f8be0079c531659141344cd1fd0a4f28419497f9722a3daafe3b4186f6b6457e060405160405180910390a35050565b828054828255906000526020600020908101928215620003f1579160200282015b82811115620003f05782518260006101000a81548173ffffffffffffffffffffffffffffffffffffffff021916908373ffffffffffffffffffffffffffffffffffffffff1602179055509160200191906001019062000396565b5b50905062000400919062000404565b5090565b5b808211156200041f57600081600090555060010162000405565b5090565b6000604051905090565b600080fd5b600080fd5b600073ffffffffffffffffffffffffffffffffffffffff82169050919050565b6000620004648262000437565b9050919050565b620004768162000457565b81146200048257600080fd5b50565b60008151905062000496816200046b565b92915050565b600080fd5b6000601f19601f8301169050919050565b7f4e487b7100000000000000000000000000000000000000000000000000000000600052604160045260246000fd5b620004ec82620004a1565b810181811067ffffffffffffffff821117156200050e576200050d620004b2565b5b80604052505050565b60006200052362000423565b9050620005318282620004e1565b919050565b600067ffffffffffffffff821115620005545762000553620004b2565b5b602082029050602081019050919050565b600080fd5b6000620005816200057b8462000536565b62000517565b90508083825260208201905060208402830185811115620005a757620005a662000565565b5b835b81811015620005d45780620005bf888262000485565b845260208401935050602081019050620005a9565b5050509392505050565b600082601f830112620005f657620005f56200049c565b5b8151620006088482602086016200056a565b91505092915050565b600080600080600060a0868803121562000630576200062f6200042d565b5b6000620006408882890162000485565b9550506020620006538882890162000485565b9450506040620006668882890162000485565b9350506060620006798882890162000485565b925050608086015167ffffffffffffffff8111156200069d576200069c62000432565b5b620006ab88828901620005de565b9150509295509295909350565b620006c38162000457565b82525050565b6000602082019050620006e06000830184620006b8565b92915050565b611d4380620006f66000396000f3fe608060405234801561001057600080fd5b50600436106101165760003560e01c806381720c08116100a2578063c24dbebd11610071578063c24dbebd146102c3578063d3afaf70146102e1578063d819bfef14610300578063e30c39781461031e578063f2fde38b1461033c57610116565b806381720c08146102275780638da5cb5b146102575780638dfa436314610275578063903bf98b146102a557610116565b806365084447116100e957806365084447146101a6578063715018a6146101c557806379ba5097146101cf5780637da470ea146101d95780637dad91151461020957610116565b806320cf7cbd1461011b5780632c2465011461013a57806350c2161b1461015857806360f22e1514610176575b600080fd5b610123610358565b60405161013192919061166c565b60405180910390f35b61014261036a565b60405161014f91906116d6565b60405180910390f35b610160610390565b60405161016d91906116d6565b60405180910390f35b610190600480360381019061018b9190611839565b6103b6565b60405161019d91906118dd565b60405180910390f35b6101ae610893565b6040516101bc92919061166c565b60405180910390f35b6101cd6108a5565b005b6101d76108b9565b005b6101f360048036038101906101ee91906118f8565b610948565b60405161020091906116d6565b60405180910390f35b610211610987565b60405161021e91906116d6565b60405180910390f35b610241600480360381019061023c9190611925565b6109ad565b60405161024e9190611952565b60405180910390f35b61025f610ac5565b60405161026c91906116d6565b60405180910390f35b61028f600480360381019061028a919061196d565b610aee565b60405161029c9190611a88565b60405180910390f35b6102ad611332565b6040516102ba91906116d6565b60405180910390f35b6102cb611358565b6040516102d89190611952565b60405180910390f35b6102e961135f565b6040516102f792919061166c565b60405180910390f35b610308611371565b6040516103159190611952565b60405180910390f35b610326611376565b60405161033391906116d6565b60405180910390f35b61035660048036038101906103519190611925565b6113a0565b005b60098060000154908060010154905082565b600360009054906101000a900473ffffffffffffffffffffffffffffffffffffffff1681565b600260009054906101000a900473ffffffffffffffffffffffffffffffffffffffff1681565b6103be6115d1565b60008373ffffffffffffffffffffffffffffffffffffffff1663817b1cd26040518163ffffffff1660e01b8152600401602060405180830381865afa15801561040b573d6000803e3d6000fd5b505050506040513d601f19601f8201168201806040525081019061042f9190611ab9565b905060008473ffffffffffffffffffffffffffffffffffffffff16635fcbd2856040518163ffffffff1660e01b8152600401602060405180830381865afa15801561047e573d6000803e3d6000fd5b505050506040513d601f19601f820116820180604052508101906104a29190611afb565b905060008173ffffffffffffffffffffffffffffffffffffffff166318160ddd6040518163ffffffff1660e01b8152600401602060405180830381865afa1580156104f1573d6000803e3d6000fd5b505050506040513d601f19601f820116820180604052508101906105159190611ab9565b905060008273ffffffffffffffffffffffffffffffffffffffff16630dfe16816040518163ffffffff1660e01b8152600401602060405180830381865afa158015610564573d6000803e3d6000fd5b505050506040513d601f19601f820116820180604052508101906105889190611afb565b905060008373ffffffffffffffffffffffffffffffffffffffff1663d21220a76040518163ffffffff1660e01b8152600401602060405180830381865afa1580156105d7573d6000803e3d6000fd5b505050506040513d601f19601f820116820180604052508101906105fb9190611afb565b9050600080600260009054906101000a900473ffffffffffffffffffffffffffffffffffffffff1673ffffffffffffffffffffffffffffffffffffffff168473ffffffffffffffffffffffffffffffffffffffff161461065c57828461065f565b83835b91509150600260009054906101000a900473ffffffffffffffffffffffffffffffffffffffff1673ffffffffffffffffffffffffffffffffffffffff168273ffffffffffffffffffffffffffffffffffffffff16146106f3576040517f08c379a00000000000000000000000000000000000000000000000000000000081526004016106ea90611b85565b60405180910390fd5b60008273ffffffffffffffffffffffffffffffffffffffff166370a08231886040518263ffffffff1660e01b815260040161072e91906116d6565b602060405180830381865afa15801561074b573d6000803e3d6000fd5b505050506040513d601f19601f8201168201806040525081019061076f9190611ab9565b905060008273ffffffffffffffffffffffffffffffffffffffff166370a08231896040518263ffffffff1660e01b81526004016107ac91906116d6565b602060405180830381865afa1580156107c9573d6000803e3d6000fd5b505050506040513d601f19601f820116820180604052508101906107ed9190611ab9565b9050600087838b6107fe9190611bd4565b6108089190611c45565b9050600088838c6108199190611bd4565b6108239190611c45565b90506040518060800160405280620186a08f60000151856108449190611bd4565b61084e9190611c45565b8152602001620186a08f60200151846108679190611bd4565b6108719190611c45565b8152602001838152602001828152509b50505050505050505050505092915050565b60078060000154908060010154905082565b6108ad61144d565b6108b760006114d4565b565b60006108c3611505565b90508073ffffffffffffffffffffffffffffffffffffffff166108e4611376565b73ffffffffffffffffffffffffffffffffffffffff161461093c57806040517f118cdaa700000000000000000000000000000000000000000000000000000000815260040161093391906116d6565b60405180910390fd5b610945816114d4565b50565b6006818154811061095857600080fd5b906000526020600020016000915054906101000a900473ffffffffffffffffffffffffffffffffffffffff1681565b600560009054906101000a900473ffffffffffffffffffffffffffffffffffffffff1681565b6000808273ffffffffffffffffffffffffffffffffffffffff16635fcbd2856040518163ffffffff1660e01b8152600401602060405180830381865afa1580156109fb573d6000803e3d6000fd5b505050506040513d601f19601f82011682018060405250810190610a1f9190611afb565b9050600260009054906101000a900473ffffffffffffffffffffffffffffffffffffffff1673ffffffffffffffffffffffffffffffffffffffff166370a08231826040518263ffffffff1660e01b8152600401610a7c91906116d6565b602060405180830381865afa158015610a99573d6000803e3d6000fd5b505050506040513d601f19601f82011682018060405250810190610abd9190611ab9565b915050919050565b60008060009054906101000a900473ffffffffffffffffffffffffffffffffffffffff16905090565b610af66115f9565b60006064601484610b079190611bd4565b610b119190611c45565b905060006064601e85610b249190611bd4565b610b2e9190611c45565b90506000818386610b3f9190611c76565b610b499190611c76565b9050610bb46006600081548110610b6357610b62611caa565b5b9060005260206000200160009054906101000a900473ffffffffffffffffffffffffffffffffffffffff166007604051806040016040529081600082015481526020016001820154815250506103b6565b846000015160000181905250610c296006600181548110610bd857610bd7611caa565b5b9060005260206000200160009054906101000a900473ffffffffffffffffffffffffffffffffffffffff166009604051806040016040529081600082015481526020016001820154815250506103b6565b846020015160000181905250610c9e6006600281548110610c4d57610c4c611caa565b5b9060005260206000200160009054906101000a900473ffffffffffffffffffffffffffffffffffffffff16600b604051806040016040529081600082015481526020016001820154815250506103b6565b8460400151600001819052506000846040015160000151604001518560200151600001516040015186600001516000015160400151610cdd9190611cd9565b610ce79190611cd9565b905086811115610e65576000610d3b6006600081548110610d0b57610d0a611caa565b5b9060005260206000200160009054906101000a900473ffffffffffffffffffffffffffffffffffffffff166109ad565b90506000610d876006600181548110610d5757610d56611caa565b5b9060005260206000200160009054906101000a900473ffffffffffffffffffffffffffffffffffffffff166109ad565b90506000610dd36006600281548110610da357610da2611caa565b5b9060005260206000200160009054906101000a900473ffffffffffffffffffffffffffffffffffffffff166109ad565b90506000818385610de49190611cd9565b610dee9190611cd9565b9050808b85610dfd9190611bd4565b610e079190611c45565b89600001516020018181525050808b84610e219190611bd4565b610e2b9190611c45565b89602001516020018181525050808b83610e459190611bd4565b610e4f9190611c45565b8960400151602001818152505050505050610eb4565b8460000151600001516000015185600001516020018181525050846000015160000151600001518560200151602001818152505084600001516000015160000151856040015160200181815250505b600360009054906101000a900473ffffffffffffffffffffffffffffffffffffffff1673ffffffffffffffffffffffffffffffffffffffff16632c4e722e6040518163ffffffff1660e01b81526004016020604051808303816000875af1158015610f23573d6000803e3d6000fd5b505050506040513d601f19601f82011682018060405250810190610f479190611ab9565b84610f529190611c45565b85600001516000015160200151111561101557600360009054906101000a900473ffffffffffffffffffffffffffffffffffffffff1673ffffffffffffffffffffffffffffffffffffffff16632c4e722e6040518163ffffffff1660e01b81526004016020604051808303816000875af1158015610fd4573d6000803e3d6000fd5b505050506040513d601f19601f82011682018060405250810190610ff89190611ab9565b846110039190611c45565b85600001516040018181525050611030565b84600001516000015160200151856000015160400181815250505b600460009054906101000a900473ffffffffffffffffffffffffffffffffffffffff1673ffffffffffffffffffffffffffffffffffffffff16632c4e722e6040518163ffffffff1660e01b81526004016020604051808303816000875af115801561109f573d6000803e3d6000fd5b505050506040513d601f19601f820116820180604052508101906110c39190611ab9565b836110ce9190611c45565b85602001516000015160200151111561119157600460009054906101000a900473ffffffffffffffffffffffffffffffffffffffff1673ffffffffffffffffffffffffffffffffffffffff16632c4e722e6040518163ffffffff1660e01b81526004016020604051808303816000875af1158015611150573d6000803e3d6000fd5b505050506040513d601f19601f820116820180604052508101906111749190611ab9565b8361117f9190611c45565b856020015160400181815250506111ac565b84602001516000015160200151856020015160400181815250505b600560009054906101000a900473ffffffffffffffffffffffffffffffffffffffff1673ffffffffffffffffffffffffffffffffffffffff16632c4e722e6040518163ffffffff1660e01b81526004016020604051808303816000875af115801561121b573d6000803e3d6000fd5b505050506040513d601f19601f8201168201806040525081019061123f9190611ab9565b8261124a9190611c45565b85604001516000015160200151111561130d57600560009054906101000a900473ffffffffffffffffffffffffffffffffffffffff1673ffffffffffffffffffffffffffffffffffffffff16632c4e722e6040518163ffffffff1660e01b81526004016020604051808303816000875af11580156112cc573d6000803e3d6000fd5b505050506040513d601f19601f820116820180604052508101906112f09190611ab9565b826112fb9190611c45565b85604001516040018181525050611328565b84604001516000015160200151856040015160400181815250505b5050505092915050565b600460009054906101000a900473ffffffffffffffffffffffffffffffffffffffff1681565b620186a081565b600b8060000154908060010154905082565b600181565b6000600160009054906101000a900473ffffffffffffffffffffffffffffffffffffffff16905090565b6113a861144d565b80600160006101000a81548173ffffffffffffffffffffffffffffffffffffffff021916908373ffffffffffffffffffffffffffffffffffffffff1602179055508073ffffffffffffffffffffffffffffffffffffffff16611408610ac5565b73ffffffffffffffffffffffffffffffffffffffff167f38d16b8cac22d99fc7c124b9cd0de2d3fa1faef420bfe791d8c362d765e2270060405160405180910390a350565b611455611505565b73ffffffffffffffffffffffffffffffffffffffff16611473610ac5565b73ffffffffffffffffffffffffffffffffffffffff16146114d257611496611505565b6040517f118cdaa70000000000000000000000000000000000000000000000000000000081526004016114c991906116d6565b60405180910390fd5b565b600160006101000a81549073ffffffffffffffffffffffffffffffffffffffff02191690556115028161150d565b50565b600033905090565b60008060009054906101000a900473ffffffffffffffffffffffffffffffffffffffff169050816000806101000a81548173ffffffffffffffffffffffffffffffffffffffff021916908373ffffffffffffffffffffffffffffffffffffffff1602179055508173ffffffffffffffffffffffffffffffffffffffff168173ffffffffffffffffffffffffffffffffffffffff167f8be0079c531659141344cd1fd0a4f28419497f9722a3daafe3b4186f6b6457e060405160405180910390a35050565b6040518060800160405280600081526020016000815260200160008152602001600081525090565b604051806060016040528061160c61162c565b815260200161161961162c565b815260200161162661162c565b81525090565b604051806060016040528061163f6115d1565b815260200160008152602001600081525090565b6000819050919050565b61166681611653565b82525050565b6000604082019050611681600083018561165d565b61168e602083018461165d565b9392505050565b600073ffffffffffffffffffffffffffffffffffffffff82169050919050565b60006116c082611695565b9050919050565b6116d0816116b5565b82525050565b60006020820190506116eb60008301846116c7565b92915050565b6000604051905090565b600080fd5b611709816116b5565b811461171457600080fd5b50565b60008135905061172681611700565b92915050565b600080fd5b6000601f19601f8301169050919050565b7f4e487b7100000000000000000000000000000000000000000000000000000000600052604160045260246000fd5b61177a82611731565b810181811067ffffffffffffffff8211171561179957611798611742565b5b80604052505050565b60006117ac6116f1565b90506117b88282611771565b919050565b6117c681611653565b81146117d157600080fd5b50565b6000813590506117e3816117bd565b92915050565b6000604082840312156117ff576117fe61172c565b5b61180960406117a2565b90506000611819848285016117d4565b600083015250602061182d848285016117d4565b60208301525092915050565b600080606083850312156118505761184f6116fb565b5b600061185e85828601611717565b925050602061186f858286016117e9565b9150509250929050565b61188281611653565b82525050565b60808201600082015161189e6000850182611879565b5060208201516118b16020850182611879565b5060408201516118c46040850182611879565b5060608201516118d76060850182611879565b50505050565b60006080820190506118f26000830184611888565b92915050565b60006020828403121561190e5761190d6116fb565b5b600061191c848285016117d4565b91505092915050565b60006020828403121561193b5761193a6116fb565b5b600061194984828501611717565b91505092915050565b6000602082019050611967600083018461165d565b92915050565b60008060408385031215611984576119836116fb565b5b6000611992858286016117d4565b92505060206119a3858286016117d4565b9150509250929050565b6080820160008201516119c36000850182611879565b5060208201516119d66020850182611879565b5060408201516119e96040850182611879565b5060608201516119fc6060850182611879565b50505050565b60c082016000820151611a1860008501826119ad565b506020820151611a2b6080850182611879565b506040820151611a3e60a0850182611879565b50505050565b61024082016000820151611a5b6000850182611a02565b506020820151611a6e60c0850182611a02565b506040820151611a82610180850182611a02565b50505050565b600061024082019050611a9e6000830184611a44565b92915050565b600081519050611ab3816117bd565b92915050565b600060208284031215611acf57611ace6116fb565b5b6000611add84828501611aa4565b91505092915050565b600081519050611af581611700565b92915050565b600060208284031215611b1157611b106116fb565b5b6000611b1f84828501611ae6565b91505092915050565b600082825260208201905092915050565b7f494e56414c49445f544f4b454e00000000000000000000000000000000000000600082015250565b6000611b6f600d83611b28565b9150611b7a82611b39565b602082019050919050565b60006020820190508181036000830152611b9e81611b62565b9050919050565b7f4e487b7100000000000000000000000000000000000000000000000000000000600052601160045260246000fd5b6000611bdf82611653565b9150611bea83611653565b9250828202611bf881611653565b91508282048414831517611c0f57611c0e611ba5565b5b5092915050565b7f4e487b7100000000000000000000000000000000000000000000000000000000600052601260045260246000fd5b6000611c5082611653565b9150611c5b83611653565b925082611c6b57611c6a611c16565b5b828204905092915050565b6000611c8182611653565b9150611c8c83611653565b9250828203905081811115611ca457611ca3611ba5565b5b92915050565b7f4e487b7100000000000000000000000000000000000000000000000000000000600052603260045260246000fd5b6000611ce482611653565b9150611cef83611653565b9250828201905080821115611d0757611d06611ba5565b5b9291505056fea2646970667358221220dd3bc67e97b8a6cf0bd0e6d6c226353be078a4599329f97bb0598830314996c164736f6c63430008180033",
  "linkReferences": {},
  "deployedLinkReferences": {}
}