{
  "_format": "hh-sol-artifact-1",
  "contractName": "LPStaker",
  "sourceName": "contracts/LPStaker.sol",
  "abi": [
    {
      "inputs": [
        {
          "internalType": "contract IERC20",
          "name": "_lpToken",
          "type": "address"
        },
        {
          "internalType": "contract IERC20",
          "name": "_rewardToken1",
          "type": "address"
        },
        {
          "internalType": "contract IERC20",
          "name": "_rewardToken2",
          "type": "address"
        }
      ],
      "stateMutability": "nonpayable",
      "type": "constructor"
    },
    {
      "inputs": [
        {
          "internalType": "address",
          "name": "target",
          "type": "address"
        }
      ],
      "name": "AddressEmptyCode",
      "type": "error"
    },
    {
      "inputs": [
        {
          "internalType": "address",
          "name": "account",
          "type": "address"
        }
      ],
      "name": "AddressInsufficientBalance",
      "type": "error"
    },
    {
      "inputs": [],
      "name": "FailedInnerCall",
      "type": "error"
    },
    {
      "inputs": [
        {
          "internalType": "address",
          "name": "owner",
          "type": "address"
        }
      ],
      "name": "OwnableInvalidOwner",
      "type": "error"
    },
    {
      "inputs": [
        {
          "internalType": "address",
          "name": "account",
          "type": "address"
        }
      ],
      "name": "OwnableUnauthorizedAccount",
      "type": "error"
    },
    {
      "inputs": [],
      "name": "ReentrancyGuardReentrantCall",
      "type": "error"
    },
    {
      "inputs": [
        {
          "internalType": "address",
          "name": "token",
          "type": "address"
        }
      ],
      "name": "SafeERC20FailedOperation",
      "type": "error"
    },
    {
      "anonymous": false,
      "inputs": [
        {
          "indexed": false,
          "internalType": "address",
          "name": "wallet",
          "type": "address"
        },
        {
          "indexed": false,
          "internalType": "uint256",
          "name": "amountToken1",
          "type": "uint256"
        },
        {
          "indexed": false,
          "internalType": "uint256",
          "name": "amountToken2",
          "type": "uint256"
        }
      ],
      "name": "Harvest",
      "type": "event"
    },
    {
      "anonymous": false,
      "inputs": [
        {
          "indexed": true,
          "internalType": "address",
          "name": "previousOwner",
          "type": "address"
        },
        {
          "indexed": true,
          "internalType": "address",
          "name": "newOwner",
          "type": "address"
        }
      ],
      "name": "OwnershipTransferred",
      "type": "event"
    },
    {
      "anonymous": false,
      "inputs": [
        {
          "indexed": false,
          "internalType": "address",
          "name": "wallet",
          "type": "address"
        },
        {
          "indexed": false,
          "internalType": "uint256",
          "name": "amount",
          "type": "uint256"
        }
      ],
      "name": "Stake",
      "type": "event"
    },
    {
      "anonymous": false,
      "inputs": [
        {
          "indexed": false,
          "internalType": "address",
          "name": "wallet",
          "type": "address"
        },
        {
          "indexed": false,
          "internalType": "uint256",
          "name": "amount",
          "type": "uint256"
        }
      ],
      "name": "Unstake",
      "type": "event"
    },
    {
      "inputs": [
        {
          "internalType": "uint256",
          "name": "rewardAmount1",
          "type": "uint256"
        },
        {
          "internalType": "uint256",
          "name": "rewardAmount2",
          "type": "uint256"
        }
      ],
      "name": "distributeRewards",
      "outputs": [],
      "stateMutability": "nonpayable",
      "type": "function"
    },
    {
      "inputs": [
        {
          "internalType": "contract IERC20",
          "name": "tokenAddress",
          "type": "address"
        }
      ],
      "name": "emergencyWithdraw",
      "outputs": [],
      "stateMutability": "nonpayable",
      "type": "function"
    },
    {
      "inputs": [],
      "name": "harvest",
      "outputs": [],
      "stateMutability": "nonpayable",
      "type": "function"
    },
    {
      "inputs": [],
      "name": "lpToken",
      "outputs": [
        {
          "internalType": "contract IERC20",
          "name": "",
          "type": "address"
        }
      ],
      "stateMutability": "view",
      "type": "function"
    },
    {
      "inputs": [],
      "name": "owner",
      "outputs": [
        {
          "internalType": "address",
          "name": "",
          "type": "address"
        }
      ],
      "stateMutability": "view",
      "type": "function"
    },
    {
      "inputs": [
        {
          "internalType": "address",
          "name": "_address",
          "type": "address"
        }
      ],
      "name": "pendingRewards",
      "outputs": [
        {
          "internalType": "uint256",
          "name": "",
          "type": "uint256"
        },
        {
          "internalType": "uint256",
          "name": "",
          "type": "uint256"
        }
      ],
      "stateMutability": "view",
      "type": "function"
    },
    {
      "inputs": [],
      "name": "renounceOwnership",
      "outputs": [],
      "stateMutability": "nonpayable",
      "type": "function"
    },
    {
      "inputs": [
        {
          "internalType": "uint256",
          "name": "",
          "type": "uint256"
        },
        {
          "internalType": "uint256",
          "name": "",
          "type": "uint256"
        }
      ],
      "name": "rewardRounds",
      "outputs": [
        {
          "internalType": "uint256",
          "name": "",
          "type": "uint256"
        }
      ],
      "stateMutability": "view",
      "type": "function"
    },
    {
      "inputs": [],
      "name": "rewardToken1",
      "outputs": [
        {
          "internalType": "contract IERC20",
          "name": "",
          "type": "address"
        }
      ],
      "stateMutability": "view",
      "type": "function"
    },
    {
      "inputs": [],
      "name": "rewardToken2",
      "outputs": [
        {
          "internalType": "contract IERC20",
          "name": "",
          "type": "address"
        }
      ],
      "stateMutability": "view",
      "type": "function"
    },
    {
      "inputs": [
        {
          "internalType": "uint256",
          "name": "_amount",
          "type": "uint256"
        }
      ],
      "name": "stake",
      "outputs": [],
      "stateMutability": "nonpayable",
      "type": "function"
    },
    {
      "inputs": [
        {
          "internalType": "address",
          "name": "",
          "type": "address"
        }
      ],
      "name": "stakers",
      "outputs": [
        {
          "internalType": "uint256",
          "name": "amount",
          "type": "uint256"
        },
        {
          "internalType": "uint256",
          "name": "lastRewardRound",
          "type": "uint256"
        }
      ],
      "stateMutability": "view",
      "type": "function"
    },
    {
      "inputs": [],
      "name": "totalStaked",
      "outputs": [
        {
          "internalType": "uint256",
          "name": "",
          "type": "uint256"
        }
      ],
      "stateMutability": "view",
      "type": "function"
    },
    {
      "inputs": [
        {
          "internalType": "address",
          "name": "newOwner",
          "type": "address"
        }
      ],
      "name": "transferOwnership",
      "outputs": [],
      "stateMutability": "nonpayable",
      "type": "function"
    },
    {
      "inputs": [
        {
          "internalType": "uint256",
          "name": "_amount",
          "type": "uint256"
        }
      ],
      "name": "unstake",
      "outputs": [],
      "stateMutability": "nonpayable",
      "type": "function"
    }
  ],
  "bytecode": "0x60806040523480156200001157600080fd5b5060405162001f7838038062001f788339818101604052810190620000379190620002d4565b33600073ffffffffffffffffffffffffffffffffffffffff168173ffffffffffffffffffffffffffffffffffffffff1603620000ad5760006040517f1e4fbdf7000000000000000000000000000000000000000000000000000000008152600401620000a4919062000341565b60405180910390fd5b620000be816200019260201b60201c565b506001808190555082600260006101000a81548173ffffffffffffffffffffffffffffffffffffffff021916908373ffffffffffffffffffffffffffffffffffffffff16021790555081600360006101000a81548173ffffffffffffffffffffffffffffffffffffffff021916908373ffffffffffffffffffffffffffffffffffffffff16021790555080600460006101000a81548173ffffffffffffffffffffffffffffffffffffffff021916908373ffffffffffffffffffffffffffffffffffffffff1602179055505050506200035e565b60008060009054906101000a900473ffffffffffffffffffffffffffffffffffffffff169050816000806101000a81548173ffffffffffffffffffffffffffffffffffffffff021916908373ffffffffffffffffffffffffffffffffffffffff1602179055508173ffffffffffffffffffffffffffffffffffffffff168173ffffffffffffffffffffffffffffffffffffffff167f8be0079c531659141344cd1fd0a4f28419497f9722a3daafe3b4186f6b6457e060405160405180910390a35050565b600080fd5b600073ffffffffffffffffffffffffffffffffffffffff82169050919050565b600062000288826200025b565b9050919050565b60006200029c826200027b565b9050919050565b620002ae816200028f565b8114620002ba57600080fd5b50565b600081519050620002ce81620002a3565b92915050565b600080600060608486031215620002f057620002ef62000256565b5b60006200030086828701620002bd565b93505060206200031386828701620002bd565b92505060406200032686828701620002bd565b9150509250925092565b6200033b816200027b565b82525050565b600060208201905062000358600083018462000330565b92915050565b611c0a806200036e6000396000f3fe608060405234801561001057600080fd5b50600436106100f55760003560e01c8063817b1cd211610097578063d61a47f111610066578063d61a47f11461023c578063df6c39fb1461025a578063e697596414610276578063f2fde38b146102a6576100f5565b8063817b1cd2146101b35780638da5cb5b146101d15780639168ae72146101ef578063a694fc3a14610220576100f5565b80635fcbd285116100d35780635fcbd285146101515780636f28d6881461016f5780636ff1c9bc1461018d578063715018a6146101a9576100f5565b80632e17de78146100fa57806331d7a262146101165780634641257d14610147575b600080fd5b610114600480360381019061010f9190611563565b6102c2565b005b610130600480360381019061012b91906115ee565b61041e565b60405161013e92919061162a565b60405180910390f35b61014f6105f7565b005b6101596108f1565b60405161016691906116b2565b60405180910390f35b610177610917565b60405161018491906116b2565b60405180910390f35b6101a760048036038101906101a2919061170b565b61093d565b005b6101b1610ba3565b005b6101bb610bb7565b6040516101c89190611738565b60405180910390f35b6101d9610bbd565b6040516101e69190611762565b60405180910390f35b610209600480360381019061020491906115ee565b610be6565b60405161021792919061162a565b60405180910390f35b61023a60048036038101906102359190611563565b610c0a565b005b610244610d85565b60405161025191906116b2565b60405180910390f35b610274600480360381019061026f919061177d565b610dab565b005b610290600480360381019061028b919061177d565b610f1c565b60405161029d9190611738565b60405180910390f35b6102c060048036038101906102bb91906115ee565b610f54565b005b6102ca610fda565b6000600560003373ffffffffffffffffffffffffffffffffffffffff1673ffffffffffffffffffffffffffffffffffffffff1681526020019081526020016000209050600680549050816001015414610358576040517f08c379a000000000000000000000000000000000000000000000000000000000815260040161034f9061181a565b60405180910390fd5b8181600001600082825461036c9190611869565b9250508190555081600760008282546103859190611869565b925050819055506103d93383600260009054906101000a900473ffffffffffffffffffffffffffffffffffffffff1673ffffffffffffffffffffffffffffffffffffffff166110209092919063ffffffff16565b7f85082129d87b2fe11527cb1b3b7a520aeb5aa6913f88a3d8757fe40d1db02fdd338360405161040a92919061189d565b60405180910390a15061041b61109f565b50565b6000806000600560008573ffffffffffffffffffffffffffffffffffffffff1673ffffffffffffffffffffffffffffffffffffffff16815260200190815260200160002090506000806000836001015490505b6006805490508110156105e8576ec097ce7bc90715b34b9f1000000000600682815481106104a2576104a16118c6565b5b90600052602060002090600202016000600281106104c3576104c26118c6565b5b0154600560008a73ffffffffffffffffffffffffffffffffffffffff1673ffffffffffffffffffffffffffffffffffffffff1681526020019081526020016000206000015461051291906118f5565b61051c9190611966565b836105279190611997565b92506ec097ce7bc90715b34b9f10000000006006828154811061054d5761054c6118c6565b5b906000526020600020906002020160016002811061056e5761056d6118c6565b5b0154600560008a73ffffffffffffffffffffffffffffffffffffffff1673ffffffffffffffffffffffffffffffffffffffff168152602001908152602001600020600001546105bd91906118f5565b6105c79190611966565b826105d29190611997565b91506001816105e19190611997565b9050610471565b82829550955050505050915091565b6105ff610fda565b6000600560003373ffffffffffffffffffffffffffffffffffffffff1673ffffffffffffffffffffffffffffffffffffffff1681526020019081526020016000206000015490506000600560003373ffffffffffffffffffffffffffffffffffffffff1673ffffffffffffffffffffffffffffffffffffffff16815260200190815260200160002060010154905060008060005a905060006064600a836106a691906118f5565b6106b09190611966565b90505b600680549050851080156106c65750805a115b156107b1576ec097ce7bc90715b34b9f1000000000600686815481106106ef576106ee6118c6565b5b90600052602060002090600202016000600281106107105761070f6118c6565b5b01548761071d91906118f5565b6107279190611966565b846107329190611997565b93506ec097ce7bc90715b34b9f100000000060068681548110610758576107576118c6565b5b9060005260206000209060020201600160028110610779576107786118c6565b5b01548761078691906118f5565b6107909190611966565b8361079b9190611997565b92506001856107aa9190611997565b94506106b3565b84600560003373ffffffffffffffffffffffffffffffffffffffff1673ffffffffffffffffffffffffffffffffffffffff16815260200190815260200160002060010181905550600084111561084f5761084e3385600360009054906101000a900473ffffffffffffffffffffffffffffffffffffffff1673ffffffffffffffffffffffffffffffffffffffff166110209092919063ffffffff16565b5b60008311156108a6576108a53384600460009054906101000a900473ffffffffffffffffffffffffffffffffffffffff1673ffffffffffffffffffffffffffffffffffffffff166110209092919063ffffffff16565b5b7f71bab65ced2e5750775a0613be067df48ef06cf92a496ebf7663ae06609249543385856040516108d9939291906119cb565b60405180910390a15050505050506108ef61109f565b565b600260009054906101000a900473ffffffffffffffffffffffffffffffffffffffff1681565b600360009054906101000a900473ffffffffffffffffffffffffffffffffffffffff1681565b6109456110a8565b600260009054906101000a900473ffffffffffffffffffffffffffffffffffffffff1673ffffffffffffffffffffffffffffffffffffffff168173ffffffffffffffffffffffffffffffffffffffff16036109d5576040517f08c379a00000000000000000000000000000000000000000000000000000000081526004016109cc90611a4e565b60405180910390fd5b600360009054906101000a900473ffffffffffffffffffffffffffffffffffffffff1673ffffffffffffffffffffffffffffffffffffffff168173ffffffffffffffffffffffffffffffffffffffff1603610a65576040517f08c379a0000000000000000000000000000000000000000000000000000000008152600401610a5c90611a4e565b60405180910390fd5b600460009054906101000a900473ffffffffffffffffffffffffffffffffffffffff1673ffffffffffffffffffffffffffffffffffffffff168173ffffffffffffffffffffffffffffffffffffffff1603610af5576040517f08c379a0000000000000000000000000000000000000000000000000000000008152600401610aec90611a4e565b60405180910390fd5b610ba0610b00610bbd565b8273ffffffffffffffffffffffffffffffffffffffff166370a08231306040518263ffffffff1660e01b8152600401610b399190611762565b602060405180830381865afa158015610b56573d6000803e3d6000fd5b505050506040513d601f19601f82011682018060405250810190610b7a9190611a83565b8373ffffffffffffffffffffffffffffffffffffffff166110209092919063ffffffff16565b50565b610bab6110a8565b610bb5600061112f565b565b60075481565b60008060009054906101000a900473ffffffffffffffffffffffffffffffffffffffff16905090565b60056020528060005260406000206000915090508060000154908060010154905082565b610c12610fda565b6000600560003373ffffffffffffffffffffffffffffffffffffffff1673ffffffffffffffffffffffffffffffffffffffff1681526020019081526020016000209050600081600001541480610c7057506006805490508160010154145b610caf576040517f08c379a0000000000000000000000000000000000000000000000000000000008152600401610ca69061181a565b60405180910390fd5b81816000016000828254610cc39190611997565b9250508190555060068054905081600101819055508160076000828254610cea9190611997565b92505081905550610d40333084600260009054906101000a900473ffffffffffffffffffffffffffffffffffffffff1673ffffffffffffffffffffffffffffffffffffffff166111f3909392919063ffffffff16565b7febedb8b3c678666e7f36970bc8f57abf6d8fa2e828c0da91ea5b75bf68ed101a3383604051610d7192919061189d565b60405180910390a150610d8261109f565b50565b600460009054906101000a900473ffffffffffffffffffffffffffffffffffffffff1681565b610db36110a8565b610dbb610fda565b60006007546ec097ce7bc90715b34b9f100000000084610ddb91906118f5565b610de59190611966565b905060006007546ec097ce7bc90715b34b9f100000000084610e0791906118f5565b610e119190611966565b905060066040518060400160405280848152602001838152509080600181540180825580915050600190039060005260206000209060020201600090919091909150906002610e619291906114cb565b50610eb8610e6d610bbd565b3086600360009054906101000a900473ffffffffffffffffffffffffffffffffffffffff1673ffffffffffffffffffffffffffffffffffffffff166111f3909392919063ffffffff16565b610f0e610ec3610bbd565b3085600460009054906101000a900473ffffffffffffffffffffffffffffffffffffffff1673ffffffffffffffffffffffffffffffffffffffff166111f3909392919063ffffffff16565b5050610f1861109f565b5050565b60068281548110610f2c57600080fd5b90600052602060002090600202018160028110610f4857600080fd5b01600091509150505481565b610f5c6110a8565b600073ffffffffffffffffffffffffffffffffffffffff168173ffffffffffffffffffffffffffffffffffffffff1603610fce5760006040517f1e4fbdf7000000000000000000000000000000000000000000000000000000008152600401610fc59190611762565b60405180910390fd5b610fd78161112f565b50565b600260015403611016576040517f3ee5aeb500000000000000000000000000000000000000000000000000000000815260040160405180910390fd5b6002600181905550565b61109a838473ffffffffffffffffffffffffffffffffffffffff1663a9059cbb858560405160240161105392919061189d565b604051602081830303815290604052915060e01b6020820180517bffffffffffffffffffffffffffffffffffffffffffffffffffffffff8381831617835250505050611275565b505050565b60018081905550565b6110b061130c565b73ffffffffffffffffffffffffffffffffffffffff166110ce610bbd565b73ffffffffffffffffffffffffffffffffffffffff161461112d576110f161130c565b6040517f118cdaa70000000000000000000000000000000000000000000000000000000081526004016111249190611762565b60405180910390fd5b565b60008060009054906101000a900473ffffffffffffffffffffffffffffffffffffffff169050816000806101000a81548173ffffffffffffffffffffffffffffffffffffffff021916908373ffffffffffffffffffffffffffffffffffffffff1602179055508173ffffffffffffffffffffffffffffffffffffffff168173ffffffffffffffffffffffffffffffffffffffff167f8be0079c531659141344cd1fd0a4f28419497f9722a3daafe3b4186f6b6457e060405160405180910390a35050565b61126f848573ffffffffffffffffffffffffffffffffffffffff166323b872dd86868660405160240161122893929190611ab0565b604051602081830303815290604052915060e01b6020820180517bffffffffffffffffffffffffffffffffffffffffffffffffffffffff8381831617835250505050611275565b50505050565b60006112a0828473ffffffffffffffffffffffffffffffffffffffff1661131490919063ffffffff16565b905060008151141580156112c55750808060200190518101906112c39190611b1f565b155b1561130757826040517f5274afe70000000000000000000000000000000000000000000000000000000081526004016112fe9190611762565b60405180910390fd5b505050565b600033905090565b60606113228383600061132a565b905092915050565b60608147101561137157306040517fcd7860590000000000000000000000000000000000000000000000000000000081526004016113689190611762565b60405180910390fd5b6000808573ffffffffffffffffffffffffffffffffffffffff16848660405161139a9190611bbd565b60006040518083038185875af1925050503d80600081146113d7576040519150601f19603f3d011682016040523d82523d6000602084013e6113dc565b606091505b50915091506113ec8683836113f7565b925050509392505050565b60608261140c5761140782611486565b61147e565b60008251148015611434575060008473ffffffffffffffffffffffffffffffffffffffff163b145b1561147657836040517f9996b31500000000000000000000000000000000000000000000000000000000815260040161146d9190611762565b60405180910390fd5b81905061147f565b5b9392505050565b6000815111156114995780518082602001fd5b6040517f1425ea4200000000000000000000000000000000000000000000000000000000815260040160405180910390fd5b82600281019282156114fa579160200282015b828111156114f95782518255916020019190600101906114de565b5b509050611507919061150b565b5090565b5b8082111561152457600081600090555060010161150c565b5090565b600080fd5b6000819050919050565b6115408161152d565b811461154b57600080fd5b50565b60008135905061155d81611537565b92915050565b60006020828403121561157957611578611528565b5b60006115878482850161154e565b91505092915050565b600073ffffffffffffffffffffffffffffffffffffffff82169050919050565b60006115bb82611590565b9050919050565b6115cb816115b0565b81146115d657600080fd5b50565b6000813590506115e8816115c2565b92915050565b60006020828403121561160457611603611528565b5b6000611612848285016115d9565b91505092915050565b6116248161152d565b82525050565b600060408201905061163f600083018561161b565b61164c602083018461161b565b9392505050565b6000819050919050565b600061167861167361166e84611590565b611653565b611590565b9050919050565b600061168a8261165d565b9050919050565b600061169c8261167f565b9050919050565b6116ac81611691565b82525050565b60006020820190506116c760008301846116a3565b92915050565b60006116d8826115b0565b9050919050565b6116e8816116cd565b81146116f357600080fd5b50565b600081359050611705816116df565b92915050565b60006020828403121561172157611720611528565b5b600061172f848285016116f6565b91505092915050565b600060208201905061174d600083018461161b565b92915050565b61175c816115b0565b82525050565b60006020820190506117776000830184611753565b92915050565b6000806040838503121561179457611793611528565b5b60006117a28582860161154e565b92505060206117b38582860161154e565b9150509250929050565b600082825260208201905092915050565b7f50454e44494e475f524557415244530000000000000000000000000000000000600082015250565b6000611804600f836117bd565b915061180f826117ce565b602082019050919050565b60006020820190508181036000830152611833816117f7565b9050919050565b7f4e487b7100000000000000000000000000000000000000000000000000000000600052601160045260246000fd5b60006118748261152d565b915061187f8361152d565b92508282039050818111156118975761189661183a565b5b92915050565b60006040820190506118b26000830185611753565b6118bf602083018461161b565b9392505050565b7f4e487b7100000000000000000000000000000000000000000000000000000000600052603260045260246000fd5b60006119008261152d565b915061190b8361152d565b92508282026119198161152d565b915082820484148315176119305761192f61183a565b5b5092915050565b7f4e487b7100000000000000000000000000000000000000000000000000000000600052601260045260246000fd5b60006119718261152d565b915061197c8361152d565b92508261198c5761198b611937565b5b828204905092915050565b60006119a28261152d565b91506119ad8361152d565b92508282019050808211156119c5576119c461183a565b5b92915050565b60006060820190506119e06000830186611753565b6119ed602083018561161b565b6119fa604083018461161b565b949350505050565b7f43414e4e4f545f57495448445241575f4c4f434b45445f544f4b454e00000000600082015250565b6000611a38601c836117bd565b9150611a4382611a02565b602082019050919050565b60006020820190508181036000830152611a6781611a2b565b9050919050565b600081519050611a7d81611537565b92915050565b600060208284031215611a9957611a98611528565b5b6000611aa784828501611a6e565b91505092915050565b6000606082019050611ac56000830186611753565b611ad26020830185611753565b611adf604083018461161b565b949350505050565b60008115159050919050565b611afc81611ae7565b8114611b0757600080fd5b50565b600081519050611b1981611af3565b92915050565b600060208284031215611b3557611b34611528565b5b6000611b4384828501611b0a565b91505092915050565b600081519050919050565b600081905092915050565b60005b83811015611b80578082015181840152602081019050611b65565b60008484015250505050565b6000611b9782611b4c565b611ba18185611b57565b9350611bb1818560208601611b62565b80840191505092915050565b6000611bc98284611b8c565b91508190509291505056fea2646970667358221220362b269c9d0da201bf792c7b62b13ee7cf4df6a286d9f18eb6cb9af22ca2b6ce64736f6c63430008180033",
  "linkReferences": {},
  "deployedLinkReferences": {}
}