{
  "_format": "hh-sol-artifact-1",
  "contractName": "LPStakerV3",
  "sourceName": "contracts/LPStaker.sol",
  "abi": [
    {
      "inputs": [
        {
          "internalType": "contract IUniswapV2Pair",
          "name": "_lpToken",
          "type": "address"
        },
        {
          "internalType": "contract IERC20",
          "name": "_rewardToken1",
          "type": "address"
        },
        {
          "internalType": "contract IERC20",
          "name": "_rewardToken2",
          "type": "address"
        }
      ],
      "stateMutability": "nonpayable",
      "type": "constructor"
    },
    {
      "inputs": [
        {
          "internalType": "address",
          "name": "target",
          "type": "address"
        }
      ],
      "name": "AddressEmptyCode",
      "type": "error"
    },
    {
      "inputs": [
        {
          "internalType": "address",
          "name": "account",
          "type": "address"
        }
      ],
      "name": "AddressInsufficientBalance",
      "type": "error"
    },
    {
      "inputs": [],
      "name": "FailedInnerCall",
      "type": "error"
    },
    {
      "inputs": [
        {
          "internalType": "address",
          "name": "owner",
          "type": "address"
        }
      ],
      "name": "OwnableInvalidOwner",
      "type": "error"
    },
    {
      "inputs": [
        {
          "internalType": "address",
          "name": "account",
          "type": "address"
        }
      ],
      "name": "OwnableUnauthorizedAccount",
      "type": "error"
    },
    {
      "inputs": [
        {
          "internalType": "address",
          "name": "token",
          "type": "address"
        }
      ],
      "name": "SafeERC20FailedOperation",
      "type": "error"
    },
    {
      "anonymous": false,
      "inputs": [
        {
          "indexed": true,
          "internalType": "address",
          "name": "previousOwner",
          "type": "address"
        },
        {
          "indexed": true,
          "internalType": "address",
          "name": "newOwner",
          "type": "address"
        }
      ],
      "name": "OwnershipTransferred",
      "type": "event"
    },
    {
      "inputs": [
        {
          "internalType": "uint256",
          "name": "rewardAmount1",
          "type": "uint256"
        },
        {
          "internalType": "uint256",
          "name": "rewardAmount2",
          "type": "uint256"
        }
      ],
      "name": "distributeRewards",
      "outputs": [],
      "stateMutability": "nonpayable",
      "type": "function"
    },
    {
      "inputs": [],
      "name": "empty",
      "outputs": [],
      "stateMutability": "nonpayable",
      "type": "function"
    },
    {
      "inputs": [],
      "name": "harvest",
      "outputs": [],
      "stateMutability": "nonpayable",
      "type": "function"
    },
    {
      "inputs": [],
      "name": "lpToken",
      "outputs": [
        {
          "internalType": "contract IUniswapV2Pair",
          "name": "",
          "type": "address"
        }
      ],
      "stateMutability": "view",
      "type": "function"
    },
    {
      "inputs": [],
      "name": "owner",
      "outputs": [
        {
          "internalType": "address",
          "name": "",
          "type": "address"
        }
      ],
      "stateMutability": "view",
      "type": "function"
    },
    {
      "inputs": [
        {
          "internalType": "address",
          "name": "_address",
          "type": "address"
        }
      ],
      "name": "pendingRewards",
      "outputs": [
        {
          "internalType": "uint256",
          "name": "",
          "type": "uint256"
        },
        {
          "internalType": "uint256",
          "name": "",
          "type": "uint256"
        }
      ],
      "stateMutability": "view",
      "type": "function"
    },
    {
      "inputs": [],
      "name": "renounceOwnership",
      "outputs": [],
      "stateMutability": "nonpayable",
      "type": "function"
    },
    {
      "inputs": [
        {
          "internalType": "uint256",
          "name": "",
          "type": "uint256"
        },
        {
          "internalType": "uint256",
          "name": "",
          "type": "uint256"
        }
      ],
      "name": "rewardRounds",
      "outputs": [
        {
          "internalType": "uint256",
          "name": "",
          "type": "uint256"
        }
      ],
      "stateMutability": "view",
      "type": "function"
    },
    {
      "inputs": [],
      "name": "rewardToken1",
      "outputs": [
        {
          "internalType": "contract IERC20",
          "name": "",
          "type": "address"
        }
      ],
      "stateMutability": "view",
      "type": "function"
    },
    {
      "inputs": [],
      "name": "rewardToken2",
      "outputs": [
        {
          "internalType": "contract IERC20",
          "name": "",
          "type": "address"
        }
      ],
      "stateMutability": "view",
      "type": "function"
    },
    {
      "inputs": [
        {
          "internalType": "uint256",
          "name": "_amount",
          "type": "uint256"
        }
      ],
      "name": "stake",
      "outputs": [],
      "stateMutability": "nonpayable",
      "type": "function"
    },
    {
      "inputs": [
        {
          "internalType": "address",
          "name": "",
          "type": "address"
        }
      ],
      "name": "stakers",
      "outputs": [
        {
          "internalType": "uint256",
          "name": "amount",
          "type": "uint256"
        },
        {
          "internalType": "uint256",
          "name": "lastRewardRound",
          "type": "uint256"
        }
      ],
      "stateMutability": "view",
      "type": "function"
    },
    {
      "inputs": [],
      "name": "totalStaked",
      "outputs": [
        {
          "internalType": "uint256",
          "name": "",
          "type": "uint256"
        }
      ],
      "stateMutability": "view",
      "type": "function"
    },
    {
      "inputs": [
        {
          "internalType": "address",
          "name": "newOwner",
          "type": "address"
        }
      ],
      "name": "transferOwnership",
      "outputs": [],
      "stateMutability": "nonpayable",
      "type": "function"
    },
    {
      "inputs": [
        {
          "internalType": "uint256",
          "name": "_amount",
          "type": "uint256"
        }
      ],
      "name": "unstake",
      "outputs": [],
      "stateMutability": "nonpayable",
      "type": "function"
    }
  ],
  "bytecode": "0x60806040523480156200001157600080fd5b5060405162001f8c38038062001f8c833981810160405281019062000037919062000312565b33600073ffffffffffffffffffffffffffffffffffffffff168173ffffffffffffffffffffffffffffffffffffffff1603620000ad5760006040517f1e4fbdf7000000000000000000000000000000000000000000000000000000008152600401620000a491906200037f565b60405180910390fd5b620000be816200018b60201b60201c565b5082600160006101000a81548173ffffffffffffffffffffffffffffffffffffffff021916908373ffffffffffffffffffffffffffffffffffffffff16021790555081600260006101000a81548173ffffffffffffffffffffffffffffffffffffffff021916908373ffffffffffffffffffffffffffffffffffffffff16021790555080600360006101000a81548173ffffffffffffffffffffffffffffffffffffffff021916908373ffffffffffffffffffffffffffffffffffffffff1602179055505050506200039c565b60008060009054906101000a900473ffffffffffffffffffffffffffffffffffffffff169050816000806101000a81548173ffffffffffffffffffffffffffffffffffffffff021916908373ffffffffffffffffffffffffffffffffffffffff1602179055508173ffffffffffffffffffffffffffffffffffffffff168173ffffffffffffffffffffffffffffffffffffffff167f8be0079c531659141344cd1fd0a4f28419497f9722a3daafe3b4186f6b6457e060405160405180910390a35050565b600080fd5b600073ffffffffffffffffffffffffffffffffffffffff82169050919050565b6000620002818262000254565b9050919050565b6000620002958262000274565b9050919050565b620002a78162000288565b8114620002b357600080fd5b50565b600081519050620002c7816200029c565b92915050565b6000620002da8262000274565b9050919050565b620002ec81620002cd565b8114620002f857600080fd5b50565b6000815190506200030c81620002e1565b92915050565b6000806000606084860312156200032e576200032d6200024f565b5b60006200033e86828701620002b6565b93505060206200035186828701620002fb565b92505060406200036486828701620002fb565b9150509250925092565b620003798162000274565b82525050565b60006020820190506200039660008301846200036e565b92915050565b611be080620003ac6000396000f3fe608060405234801561001057600080fd5b50600436106100f55760003560e01c80638da5cb5b11610097578063df6c39fb11610066578063df6c39fb1461023e578063e69759641461025a578063f2a75fe41461028a578063f2fde38b14610294576100f5565b80638da5cb5b146101b55780639168ae72146101d3578063a694fc3a14610204578063d61a47f114610220576100f5565b80635fcbd285116100d35780635fcbd285146101515780636f28d6881461016f578063715018a61461018d578063817b1cd214610197576100f5565b80632e17de78146100fa57806331d7a262146101165780634641257d14610147575b600080fd5b610114600480360381019061010f919061160b565b6102b0565b005b610130600480360381019061012b9190611696565b610417565b60405161013e9291906116d2565b60405180910390f35b61014f6105f0565b005b6101596108a3565b604051610166919061175a565b60405180910390f35b6101776108c9565b6040516101849190611796565b60405180910390f35b6101956108ef565b005b61019f610903565b6040516101ac91906117b1565b60405180910390f35b6101bd610909565b6040516101ca91906117db565b60405180910390f35b6101ed60048036038101906101e89190611696565b610932565b6040516101fb9291906116d2565b60405180910390f35b61021e6004803603810190610219919061160b565b610956565b005b610228610adc565b6040516102359190611796565b60405180910390f35b610258600480360381019061025391906117f6565b610b02565b005b610274600480360381019061026f91906117f6565b610c55565b60405161028191906117b1565b60405180910390f35b610292610c8d565b005b6102ae60048036038101906102a99190611696565b61104b565b005b6000600460003373ffffffffffffffffffffffffffffffffffffffff1673ffffffffffffffffffffffffffffffffffffffff168152602001908152602001600020905060058054905081600101541461033e576040517f08c379a000000000000000000000000000000000000000000000000000000000815260040161033590611893565b60405180910390fd5b8181600001600082825461035291906118e2565b92505081905550600160009054906101000a900473ffffffffffffffffffffffffffffffffffffffff1673ffffffffffffffffffffffffffffffffffffffff1663a9059cbb33846040518363ffffffff1660e01b81526004016103b6929190611916565b6020604051808303816000875af11580156103d5573d6000803e3d6000fd5b505050506040513d601f19601f820116820180604052508101906103f99190611977565b50816006600082825461040c91906118e2565b925050819055505050565b6000806000600460008573ffffffffffffffffffffffffffffffffffffffff1673ffffffffffffffffffffffffffffffffffffffff16815260200190815260200160002090506000806000836001015490505b6005805490508110156105e1576ec097ce7bc90715b34b9f10000000006005828154811061049b5761049a6119a4565b5b90600052602060002090600202016000600281106104bc576104bb6119a4565b5b0154600460008a73ffffffffffffffffffffffffffffffffffffffff1673ffffffffffffffffffffffffffffffffffffffff1681526020019081526020016000206000015461050b91906119d3565b6105159190611a44565b836105209190611a75565b92506ec097ce7bc90715b34b9f100000000060058281548110610546576105456119a4565b5b9060005260206000209060020201600160028110610567576105666119a4565b5b0154600460008a73ffffffffffffffffffffffffffffffffffffffff1673ffffffffffffffffffffffffffffffffffffffff168152602001908152602001600020600001546105b691906119d3565b6105c09190611a44565b826105cb9190611a75565b91506001816105da9190611a75565b905061046a565b82829550955050505050915091565b6000600460003373ffffffffffffffffffffffffffffffffffffffff1673ffffffffffffffffffffffffffffffffffffffff168152602001908152602001600020905060008060005a905060006064600a8361064c91906119d3565b6106569190611a44565b90506000856001015490505b600580549050811080156106755750815a115b156107e4576ec097ce7bc90715b34b9f10000000006005828154811061069e5761069d6119a4565b5b90600052602060002090600202016000600281106106bf576106be6119a4565b5b0154600460003373ffffffffffffffffffffffffffffffffffffffff1673ffffffffffffffffffffffffffffffffffffffff1681526020019081526020016000206000015461070e91906119d3565b6107189190611a44565b856107239190611a75565b94506ec097ce7bc90715b34b9f100000000060058281548110610749576107486119a4565b5b906000526020600020906002020160016002811061076a576107696119a4565b5b0154600460003373ffffffffffffffffffffffffffffffffffffffff1673ffffffffffffffffffffffffffffffffffffffff168152602001908152602001600020600001546107b991906119d3565b6107c39190611a44565b846107ce9190611a75565b93506001816107dd9190611a75565b9050610662565b600085111561083b5761083a3386600260009054906101000a900473ffffffffffffffffffffffffffffffffffffffff1673ffffffffffffffffffffffffffffffffffffffff166110d19092919063ffffffff16565b5b6000841115610892576108913385600360009054906101000a900473ffffffffffffffffffffffffffffffffffffffff1673ffffffffffffffffffffffffffffffffffffffff166110d19092919063ffffffff16565b5b808660010181905550505050505050565b600160009054906101000a900473ffffffffffffffffffffffffffffffffffffffff1681565b600260009054906101000a900473ffffffffffffffffffffffffffffffffffffffff1681565b6108f7611150565b61090160006111d7565b565b60065481565b60008060009054906101000a900473ffffffffffffffffffffffffffffffffffffffff16905090565b60046020528060005260406000206000915090508060000154908060010154905082565b6000600460003373ffffffffffffffffffffffffffffffffffffffff1673ffffffffffffffffffffffffffffffffffffffff16815260200190815260200160002090506000816000015414806109b457506005805490508160010154145b6109f3576040517f08c379a00000000000000000000000000000000000000000000000000000000081526004016109ea90611893565b60405180910390fd5b600160009054906101000a900473ffffffffffffffffffffffffffffffffffffffff1673ffffffffffffffffffffffffffffffffffffffff166323b872dd3330856040518463ffffffff1660e01b8152600401610a5293929190611aa9565b6020604051808303816000875af1158015610a71573d6000803e3d6000fd5b505050506040513d601f19601f82011682018060405250810190610a959190611977565b5081816000016000828254610aaa9190611a75565b9250508190555060058054905081600101819055508160066000828254610ad19190611a75565b925050819055505050565b600360009054906101000a900473ffffffffffffffffffffffffffffffffffffffff1681565b610b0a611150565b60006006546ec097ce7bc90715b34b9f100000000084610b2a91906119d3565b610b349190611a44565b905060006006546ec097ce7bc90715b34b9f100000000084610b5691906119d3565b610b609190611a44565b905060056040518060400160405280848152602001838152509080600181540180825580915050600190039060005260206000209060020201600090919091909150906002610bb0929190611573565b50610c00333086600260009054906101000a900473ffffffffffffffffffffffffffffffffffffffff1673ffffffffffffffffffffffffffffffffffffffff1661129b909392919063ffffffff16565b610c4f333085600360009054906101000a900473ffffffffffffffffffffffffffffffffffffffff1673ffffffffffffffffffffffffffffffffffffffff1661129b909392919063ffffffff16565b50505050565b60058281548110610c6557600080fd5b90600052602060002090600202018160028110610c8157600080fd5b01600091509150505481565b610c95611150565b600160009054906101000a900473ffffffffffffffffffffffffffffffffffffffff1673ffffffffffffffffffffffffffffffffffffffff1663a9059cbb33600160009054906101000a900473ffffffffffffffffffffffffffffffffffffffff1673ffffffffffffffffffffffffffffffffffffffff166370a08231306040518263ffffffff1660e01b8152600401610d2f91906117db565b602060405180830381865afa158015610d4c573d6000803e3d6000fd5b505050506040513d601f19601f82011682018060405250810190610d709190611af5565b6040518363ffffffff1660e01b8152600401610d8d929190611916565b6020604051808303816000875af1158015610dac573d6000803e3d6000fd5b505050506040513d601f19601f82011682018060405250810190610dd09190611977565b50600260009054906101000a900473ffffffffffffffffffffffffffffffffffffffff1673ffffffffffffffffffffffffffffffffffffffff1663a9059cbb33600260009054906101000a900473ffffffffffffffffffffffffffffffffffffffff1673ffffffffffffffffffffffffffffffffffffffff166370a08231306040518263ffffffff1660e01b8152600401610e6b91906117db565b602060405180830381865afa158015610e88573d6000803e3d6000fd5b505050506040513d601f19601f82011682018060405250810190610eac9190611af5565b6040518363ffffffff1660e01b8152600401610ec9929190611916565b6020604051808303816000875af1158015610ee8573d6000803e3d6000fd5b505050506040513d601f19601f82011682018060405250810190610f0c9190611977565b50600360009054906101000a900473ffffffffffffffffffffffffffffffffffffffff1673ffffffffffffffffffffffffffffffffffffffff1663a9059cbb33600360009054906101000a900473ffffffffffffffffffffffffffffffffffffffff1673ffffffffffffffffffffffffffffffffffffffff166370a08231306040518263ffffffff1660e01b8152600401610fa791906117db565b602060405180830381865afa158015610fc4573d6000803e3d6000fd5b505050506040513d601f19601f82011682018060405250810190610fe89190611af5565b6040518363ffffffff1660e01b8152600401611005929190611916565b6020604051808303816000875af1158015611024573d6000803e3d6000fd5b505050506040513d601f19601f820116820180604052508101906110489190611977565b50565b611053611150565b600073ffffffffffffffffffffffffffffffffffffffff168173ffffffffffffffffffffffffffffffffffffffff16036110c55760006040517f1e4fbdf70000000000000000000000000000000000000000000000000000000081526004016110bc91906117db565b60405180910390fd5b6110ce816111d7565b50565b61114b838473ffffffffffffffffffffffffffffffffffffffff1663a9059cbb8585604051602401611104929190611916565b604051602081830303815290604052915060e01b6020820180517bffffffffffffffffffffffffffffffffffffffffffffffffffffffff838183161783525050505061131d565b505050565b6111586113b4565b73ffffffffffffffffffffffffffffffffffffffff16611176610909565b73ffffffffffffffffffffffffffffffffffffffff16146111d5576111996113b4565b6040517f118cdaa70000000000000000000000000000000000000000000000000000000081526004016111cc91906117db565b60405180910390fd5b565b60008060009054906101000a900473ffffffffffffffffffffffffffffffffffffffff169050816000806101000a81548173ffffffffffffffffffffffffffffffffffffffff021916908373ffffffffffffffffffffffffffffffffffffffff1602179055508173ffffffffffffffffffffffffffffffffffffffff168173ffffffffffffffffffffffffffffffffffffffff167f8be0079c531659141344cd1fd0a4f28419497f9722a3daafe3b4186f6b6457e060405160405180910390a35050565b611317848573ffffffffffffffffffffffffffffffffffffffff166323b872dd8686866040516024016112d093929190611aa9565b604051602081830303815290604052915060e01b6020820180517bffffffffffffffffffffffffffffffffffffffffffffffffffffffff838183161783525050505061131d565b50505050565b6000611348828473ffffffffffffffffffffffffffffffffffffffff166113bc90919063ffffffff16565b9050600081511415801561136d57508080602001905181019061136b9190611977565b155b156113af57826040517f5274afe70000000000000000000000000000000000000000000000000000000081526004016113a691906117db565b60405180910390fd5b505050565b600033905090565b60606113ca838360006113d2565b905092915050565b60608147101561141957306040517fcd78605900000000000000000000000000000000000000000000000000000000815260040161141091906117db565b60405180910390fd5b6000808573ffffffffffffffffffffffffffffffffffffffff1684866040516114429190611b93565b60006040518083038185875af1925050503d806000811461147f576040519150601f19603f3d011682016040523d82523d6000602084013e611484565b606091505b509150915061149486838361149f565b925050509392505050565b6060826114b4576114af8261152e565b611526565b600082511480156114dc575060008473ffffffffffffffffffffffffffffffffffffffff163b145b1561151e57836040517f9996b31500000000000000000000000000000000000000000000000000000000815260040161151591906117db565b60405180910390fd5b819050611527565b5b9392505050565b6000815111156115415780518082602001fd5b6040517f1425ea4200000000000000000000000000000000000000000000000000000000815260040160405180910390fd5b82600281019282156115a2579160200282015b828111156115a1578251825591602001919060010190611586565b5b5090506115af91906115b3565b5090565b5b808211156115cc5760008160009055506001016115b4565b5090565b600080fd5b6000819050919050565b6115e8816115d5565b81146115f357600080fd5b50565b600081359050611605816115df565b92915050565b600060208284031215611621576116206115d0565b5b600061162f848285016115f6565b91505092915050565b600073ffffffffffffffffffffffffffffffffffffffff82169050919050565b600061166382611638565b9050919050565b61167381611658565b811461167e57600080fd5b50565b6000813590506116908161166a565b92915050565b6000602082840312156116ac576116ab6115d0565b5b60006116ba84828501611681565b91505092915050565b6116cc816115d5565b82525050565b60006040820190506116e760008301856116c3565b6116f460208301846116c3565b9392505050565b6000819050919050565b600061172061171b61171684611638565b6116fb565b611638565b9050919050565b600061173282611705565b9050919050565b600061174482611727565b9050919050565b61175481611739565b82525050565b600060208201905061176f600083018461174b565b92915050565b600061178082611727565b9050919050565b61179081611775565b82525050565b60006020820190506117ab6000830184611787565b92915050565b60006020820190506117c660008301846116c3565b92915050565b6117d581611658565b82525050565b60006020820190506117f060008301846117cc565b92915050565b6000806040838503121561180d5761180c6115d0565b5b600061181b858286016115f6565b925050602061182c858286016115f6565b9150509250929050565b600082825260208201905092915050565b7f50454e44494e475f524557415244530000000000000000000000000000000000600082015250565b600061187d600f83611836565b915061188882611847565b602082019050919050565b600060208201905081810360008301526118ac81611870565b9050919050565b7f4e487b7100000000000000000000000000000000000000000000000000000000600052601160045260246000fd5b60006118ed826115d5565b91506118f8836115d5565b92508282039050818111156119105761190f6118b3565b5b92915050565b600060408201905061192b60008301856117cc565b61193860208301846116c3565b9392505050565b60008115159050919050565b6119548161193f565b811461195f57600080fd5b50565b6000815190506119718161194b565b92915050565b60006020828403121561198d5761198c6115d0565b5b600061199b84828501611962565b91505092915050565b7f4e487b7100000000000000000000000000000000000000000000000000000000600052603260045260246000fd5b60006119de826115d5565b91506119e9836115d5565b92508282026119f7816115d5565b91508282048414831517611a0e57611a0d6118b3565b5b5092915050565b7f4e487b7100000000000000000000000000000000000000000000000000000000600052601260045260246000fd5b6000611a4f826115d5565b9150611a5a836115d5565b925082611a6a57611a69611a15565b5b828204905092915050565b6000611a80826115d5565b9150611a8b836115d5565b9250828201905080821115611aa357611aa26118b3565b5b92915050565b6000606082019050611abe60008301866117cc565b611acb60208301856117cc565b611ad860408301846116c3565b949350505050565b600081519050611aef816115df565b92915050565b600060208284031215611b0b57611b0a6115d0565b5b6000611b1984828501611ae0565b91505092915050565b600081519050919050565b600081905092915050565b60005b83811015611b56578082015181840152602081019050611b3b565b60008484015250505050565b6000611b6d82611b22565b611b778185611b2d565b9350611b87818560208601611b38565b80840191505092915050565b6000611b9f8284611b62565b91508190509291505056fea2646970667358221220874aad5cd1077b2fe39c93e63f4e6d034ff29679bea4df37fa98611b8599df2564736f6c63430008180033",
  "linkReferences": {},
  "deployedLinkReferences": {}
}