{
  "_format": "hh-sol-artifact-1",
  "contractName": "RewardSplitter",
  "sourceName": "contracts/RewardSplitter.sol",
  "abi": [
    {
      "inputs": [
        {
          "internalType": "address",
          "name": "_rewardToken",
          "type": "address"
        },
        {
          "internalType": "address",
          "name": "_distributor",
          "type": "address"
        },
        {
          "internalType": "address",
          "name": "_tbbAddress",
          "type": "address"
        },
        {
          "internalType": "address",
          "name": "_tbbFarmAddress",
          "type": "address"
        },
        {
          "internalType": "address",
          "name": "_tbsAddress",
          "type": "address"
        },
        {
          "internalType": "address",
          "name": "_tbsFarmAddress",
          "type": "address"
        },
        {
          "internalType": "address",
          "name": "_tbgAddress",
          "type": "address"
        },
        {
          "internalType": "address",
          "name": "_tbgFarmAddress",
          "type": "address"
        }
      ],
      "stateMutability": "nonpayable",
      "type": "constructor"
    },
    {
      "inputs": [
        {
          "internalType": "address",
          "name": "owner",
          "type": "address"
        }
      ],
      "name": "OwnableInvalidOwner",
      "type": "error"
    },
    {
      "inputs": [
        {
          "internalType": "address",
          "name": "account",
          "type": "address"
        }
      ],
      "name": "OwnableUnauthorizedAccount",
      "type": "error"
    },
    {
      "anonymous": false,
      "inputs": [
        {
          "indexed": true,
          "internalType": "address",
          "name": "previousOwner",
          "type": "address"
        },
        {
          "indexed": true,
          "internalType": "address",
          "name": "newOwner",
          "type": "address"
        }
      ],
      "name": "OwnershipTransferStarted",
      "type": "event"
    },
    {
      "anonymous": false,
      "inputs": [
        {
          "indexed": true,
          "internalType": "address",
          "name": "previousOwner",
          "type": "address"
        },
        {
          "indexed": true,
          "internalType": "address",
          "name": "newOwner",
          "type": "address"
        }
      ],
      "name": "OwnershipTransferred",
      "type": "event"
    },
    {
      "inputs": [],
      "name": "acceptOwnership",
      "outputs": [],
      "stateMutability": "nonpayable",
      "type": "function"
    },
    {
      "inputs": [],
      "name": "approveTb",
      "outputs": [],
      "stateMutability": "nonpayable",
      "type": "function"
    },
    {
      "inputs": [
        {
          "internalType": "address",
          "name": "_farm",
          "type": "address"
        },
        {
          "components": [
            {
              "internalType": "uint256",
              "name": "ldt",
              "type": "uint256"
            },
            {
              "internalType": "uint256",
              "name": "tb",
              "type": "uint256"
            }
          ],
          "internalType": "struct RewardSplitter.RewardRate",
          "name": "_rate",
          "type": "tuple"
        }
      ],
      "name": "calculateStakingLiquidity",
      "outputs": [
        {
          "internalType": "uint256",
          "name": "",
          "type": "uint256"
        },
        {
          "internalType": "uint256",
          "name": "",
          "type": "uint256"
        }
      ],
      "stateMutability": "view",
      "type": "function"
    },
    {
      "inputs": [],
      "name": "distributor",
      "outputs": [
        {
          "internalType": "address",
          "name": "",
          "type": "address"
        }
      ],
      "stateMutability": "view",
      "type": "function"
    },
    {
      "inputs": [
        {
          "internalType": "address",
          "name": "_farm",
          "type": "address"
        }
      ],
      "name": "getLdtLiquidity",
      "outputs": [
        {
          "internalType": "uint256",
          "name": "liquidity",
          "type": "uint256"
        }
      ],
      "stateMutability": "view",
      "type": "function"
    },
    {
      "inputs": [],
      "name": "ldtAmbassadorIncentiveReward",
      "outputs": [
        {
          "internalType": "uint8",
          "name": "",
          "type": "uint8"
        }
      ],
      "stateMutability": "view",
      "type": "function"
    },
    {
      "inputs": [],
      "name": "ldtDaoFundReward",
      "outputs": [
        {
          "internalType": "uint8",
          "name": "",
          "type": "uint8"
        }
      ],
      "stateMutability": "view",
      "type": "function"
    },
    {
      "inputs": [],
      "name": "ldtFarmingReward",
      "outputs": [
        {
          "internalType": "uint8",
          "name": "",
          "type": "uint8"
        }
      ],
      "stateMutability": "view",
      "type": "function"
    },
    {
      "inputs": [],
      "name": "ldtGreenEnergyProducersReward",
      "outputs": [
        {
          "internalType": "uint8",
          "name": "",
          "type": "uint8"
        }
      ],
      "stateMutability": "view",
      "type": "function"
    },
    {
      "inputs": [],
      "name": "ldtMarketingReward",
      "outputs": [
        {
          "internalType": "uint8",
          "name": "",
          "type": "uint8"
        }
      ],
      "stateMutability": "view",
      "type": "function"
    },
    {
      "inputs": [],
      "name": "ldtStakingReward",
      "outputs": [
        {
          "internalType": "uint8",
          "name": "",
          "type": "uint8"
        }
      ],
      "stateMutability": "view",
      "type": "function"
    },
    {
      "inputs": [],
      "name": "ldtTeamReward",
      "outputs": [
        {
          "internalType": "uint8",
          "name": "",
          "type": "uint8"
        }
      ],
      "stateMutability": "view",
      "type": "function"
    },
    {
      "inputs": [],
      "name": "owner",
      "outputs": [
        {
          "internalType": "address",
          "name": "",
          "type": "address"
        }
      ],
      "stateMutability": "view",
      "type": "function"
    },
    {
      "inputs": [],
      "name": "pendingOwner",
      "outputs": [
        {
          "internalType": "address",
          "name": "",
          "type": "address"
        }
      ],
      "stateMutability": "view",
      "type": "function"
    },
    {
      "inputs": [],
      "name": "recoverOwnership",
      "outputs": [],
      "stateMutability": "nonpayable",
      "type": "function"
    },
    {
      "inputs": [],
      "name": "renounceOwnership",
      "outputs": [],
      "stateMutability": "nonpayable",
      "type": "function"
    },
    {
      "inputs": [],
      "name": "requestDistribution",
      "outputs": [],
      "stateMutability": "nonpayable",
      "type": "function"
    },
    {
      "inputs": [],
      "name": "rewardToken",
      "outputs": [
        {
          "internalType": "address",
          "name": "",
          "type": "address"
        }
      ],
      "stateMutability": "view",
      "type": "function"
    },
    {
      "inputs": [],
      "name": "tbAmbassadorIncentiveReward",
      "outputs": [
        {
          "internalType": "uint8",
          "name": "",
          "type": "uint8"
        }
      ],
      "stateMutability": "view",
      "type": "function"
    },
    {
      "inputs": [],
      "name": "tbDaoFundReward",
      "outputs": [
        {
          "internalType": "uint8",
          "name": "",
          "type": "uint8"
        }
      ],
      "stateMutability": "view",
      "type": "function"
    },
    {
      "inputs": [],
      "name": "tbFarmingReward",
      "outputs": [
        {
          "internalType": "uint8",
          "name": "",
          "type": "uint8"
        }
      ],
      "stateMutability": "view",
      "type": "function"
    },
    {
      "inputs": [],
      "name": "tbGreenEnergyProducersReward",
      "outputs": [
        {
          "internalType": "uint8",
          "name": "",
          "type": "uint8"
        }
      ],
      "stateMutability": "view",
      "type": "function"
    },
    {
      "inputs": [],
      "name": "tbRate",
      "outputs": [
        {
          "internalType": "uint8",
          "name": "",
          "type": "uint8"
        }
      ],
      "stateMutability": "view",
      "type": "function"
    },
    {
      "inputs": [],
      "name": "tbStakingReward",
      "outputs": [
        {
          "internalType": "uint8",
          "name": "",
          "type": "uint8"
        }
      ],
      "stateMutability": "view",
      "type": "function"
    },
    {
      "inputs": [],
      "name": "tbTeamReward",
      "outputs": [
        {
          "internalType": "uint8",
          "name": "",
          "type": "uint8"
        }
      ],
      "stateMutability": "view",
      "type": "function"
    },
    {
      "inputs": [],
      "name": "tbbAddress",
      "outputs": [
        {
          "internalType": "address",
          "name": "",
          "type": "address"
        }
      ],
      "stateMutability": "view",
      "type": "function"
    },
    {
      "inputs": [],
      "name": "tbbFarmAddress",
      "outputs": [
        {
          "internalType": "address",
          "name": "",
          "type": "address"
        }
      ],
      "stateMutability": "view",
      "type": "function"
    },
    {
      "inputs": [],
      "name": "tbbRewardRate",
      "outputs": [
        {
          "internalType": "uint256",
          "name": "ldt",
          "type": "uint256"
        },
        {
          "internalType": "uint256",
          "name": "tb",
          "type": "uint256"
        }
      ],
      "stateMutability": "view",
      "type": "function"
    },
    {
      "inputs": [],
      "name": "tbgAddress",
      "outputs": [
        {
          "internalType": "address",
          "name": "",
          "type": "address"
        }
      ],
      "stateMutability": "view",
      "type": "function"
    },
    {
      "inputs": [],
      "name": "tbgFarmAddress",
      "outputs": [
        {
          "internalType": "address",
          "name": "",
          "type": "address"
        }
      ],
      "stateMutability": "view",
      "type": "function"
    },
    {
      "inputs": [],
      "name": "tbgRewardRate",
      "outputs": [
        {
          "internalType": "uint256",
          "name": "ldt",
          "type": "uint256"
        },
        {
          "internalType": "uint256",
          "name": "tb",
          "type": "uint256"
        }
      ],
      "stateMutability": "view",
      "type": "function"
    },
    {
      "inputs": [],
      "name": "tbsAddress",
      "outputs": [
        {
          "internalType": "address",
          "name": "",
          "type": "address"
        }
      ],
      "stateMutability": "view",
      "type": "function"
    },
    {
      "inputs": [],
      "name": "tbsFarmAddress",
      "outputs": [
        {
          "internalType": "address",
          "name": "",
          "type": "address"
        }
      ],
      "stateMutability": "view",
      "type": "function"
    },
    {
      "inputs": [],
      "name": "tbsRewardRate",
      "outputs": [
        {
          "internalType": "uint256",
          "name": "ldt",
          "type": "uint256"
        },
        {
          "internalType": "uint256",
          "name": "tb",
          "type": "uint256"
        }
      ],
      "stateMutability": "view",
      "type": "function"
    },
    {
      "inputs": [
        {
          "internalType": "address",
          "name": "newOwner",
          "type": "address"
        }
      ],
      "name": "transferOwnership",
      "outputs": [],
      "stateMutability": "nonpayable",
      "type": "function"
    }
  ],
  "bytecode": "0x60806040526050600960146101000a81548160ff021916908360ff1602179055506028600960156101000a81548160ff021916908360ff1602179055506019600960166101000a81548160ff021916908360ff160217905550600a600960176101000a81548160ff021916908360ff160217905550600a600960186101000a81548160ff021916908360ff160217905550600a600960196101000a81548160ff021916908360ff16021790555060056009601a6101000a81548160ff021916908360ff16021790555060286009601b6101000a81548160ff021916908360ff16021790555060146009601c6101000a81548160ff021916908360ff160217905550600e6009601d6101000a81548160ff021916908360ff160217905550600a6009601e6101000a81548160ff021916908360ff160217905550600a6009601f6101000a81548160ff021916908360ff1602179055506005600a60006101000a81548160ff021916908360ff1602179055506001600a60016101000a81548160ff021916908360ff1602179055506040518060400160405280600a8152602001600a815250600b600082015181600001556020820151816001015550506040518060400160405280600a8152602001600a815250600d600082015181600001556020820151816001015550506040518060400160405280600a8152602001600a815250600f600082015181600001556020820151816001015550503480156200022657600080fd5b5060405162003cae38038062003cae83398181016040528101906200024c919062000651565b33600073ffffffffffffffffffffffffffffffffffffffff168173ffffffffffffffffffffffffffffffffffffffff1603620002c25760006040517f1e4fbdf7000000000000000000000000000000000000000000000000000000008152600401620002b991906200072b565b60405180910390fd5b620002d381620004ea60201b60201c565b5087600260006101000a81548173ffffffffffffffffffffffffffffffffffffffff021916908373ffffffffffffffffffffffffffffffffffffffff16021790555086600960006101000a81548173ffffffffffffffffffffffffffffffffffffffff021916908373ffffffffffffffffffffffffffffffffffffffff16021790555085600360006101000a81548173ffffffffffffffffffffffffffffffffffffffff021916908373ffffffffffffffffffffffffffffffffffffffff16021790555084600660006101000a81548173ffffffffffffffffffffffffffffffffffffffff021916908373ffffffffffffffffffffffffffffffffffffffff16021790555083600460006101000a81548173ffffffffffffffffffffffffffffffffffffffff021916908373ffffffffffffffffffffffffffffffffffffffff16021790555082600760006101000a81548173ffffffffffffffffffffffffffffffffffffffff021916908373ffffffffffffffffffffffffffffffffffffffff16021790555081600560006101000a81548173ffffffffffffffffffffffffffffffffffffffff021916908373ffffffffffffffffffffffffffffffffffffffff16021790555080600860006101000a81548173ffffffffffffffffffffffffffffffffffffffff021916908373ffffffffffffffffffffffffffffffffffffffff160217905550505050505050505062000748565b600160006101000a81549073ffffffffffffffffffffffffffffffffffffffff021916905562000520816200052360201b60201c565b50565b60008060009054906101000a900473ffffffffffffffffffffffffffffffffffffffff169050816000806101000a81548173ffffffffffffffffffffffffffffffffffffffff021916908373ffffffffffffffffffffffffffffffffffffffff1602179055508173ffffffffffffffffffffffffffffffffffffffff168173ffffffffffffffffffffffffffffffffffffffff167f8be0079c531659141344cd1fd0a4f28419497f9722a3daafe3b4186f6b6457e060405160405180910390a35050565b600080fd5b600073ffffffffffffffffffffffffffffffffffffffff82169050919050565b60006200061982620005ec565b9050919050565b6200062b816200060c565b81146200063757600080fd5b50565b6000815190506200064b8162000620565b92915050565b600080600080600080600080610100898b031215620006755762000674620005e7565b5b6000620006858b828c016200063a565b9850506020620006988b828c016200063a565b9750506040620006ab8b828c016200063a565b9650506060620006be8b828c016200063a565b9550506080620006d18b828c016200063a565b94505060a0620006e48b828c016200063a565b93505060c0620006f78b828c016200063a565b92505060e06200070a8b828c016200063a565b9150509295985092959890939650565b62000725816200060c565b82525050565b60006020820190506200074260008301846200071a565b92915050565b61355680620007586000396000f3fe608060405234801561001057600080fd5b50600436106102105760003560e01c80638ec244f111610125578063d036f612116100ad578063f2fce7241161007c578063f2fce7241461055d578063f2fde38b1461057b578063f7c618c114610597578063fa27c5bd146105b5578063feeffcd6146105d357610210565b8063d036f612146104f9578063d57a8df414610517578063d77374bd14610521578063e30c39781461053f57610210565b8063ba2b4c99116100f4578063ba2b4c9914610450578063bbb186b51461046e578063bfe109281461049f578063c64c595d146104bd578063c8ae163c146104db57610210565b80638ec244f1146103d8578063a34a9182146103f6578063a6964c0714610414578063b00272351461043257610210565b80634eecf1fd116101a857806371080ec41161017757806371080ec414610358578063715018a61461037657806379ba50971461038057806381720c081461038a5780638da5cb5b146103ba57610210565b80634eecf1fd146102f257806359c52a8c146103115780636e2da6311461031b57806370a539261461033957610210565b806322a00f3b116101e457806322a00f3b1461028d57806326a1cea9146102ab5780632954ef84146102c957806338cd6c0f146102d357610210565b806205d2f91461021557806312f51203146102335780631561bca5146102515780631c8c7a1c1461026f575b600080fd5b61021d6105f1565b60405161022a9190612fcf565b60405180910390f35b61023b610604565b6040516102489190612fcf565b60405180910390f35b610259610617565b6040516102669190612fcf565b60405180910390f35b61027761062a565b604051610284919061302b565b60405180910390f35b610295610650565b6040516102a29190612fcf565b60405180910390f35b6102b3610663565b6040516102c0919061302b565b60405180910390f35b6102d1610689565b005b6102db610e8e565b6040516102e992919061305f565b60405180910390f35b6102fa610ea0565b60405161030892919061305f565b60405180910390f35b610319610eb2565b005b610323612184565b6040516103309190612fcf565b60405180910390f35b610341612197565b60405161034f92919061305f565b60405180910390f35b6103606121a9565b60405161036d9190612fcf565b60405180910390f35b61037e6121bc565b005b6103886121d0565b005b6103a4600480360381019061039f91906130c3565b61225f565b6040516103b191906130f0565b60405180910390f35b6103c2612377565b6040516103cf919061302b565b60405180910390f35b6103e06123a0565b6040516103ed919061302b565b60405180910390f35b6103fe6123c6565b60405161040b9190612fcf565b60405180910390f35b61041c6123d9565b6040516104299190612fcf565b60405180910390f35b61043a6123ec565b6040516104479190612fcf565b60405180910390f35b6104586123ff565b6040516104659190612fcf565b60405180910390f35b61048860048036038101906104839190613218565b612412565b60405161049692919061305f565b60405180910390f35b6104a76128cc565b6040516104b4919061302b565b60405180910390f35b6104c56128f2565b6040516104d29190612fcf565b60405180910390f35b6104e3612905565b6040516104f09190612fcf565b60405180910390f35b610501612918565b60405161050e919061302b565b60405180910390f35b61051f61293e565b005b610529612cc0565b6040516105369190612fcf565b60405180910390f35b610547612cd3565b604051610554919061302b565b60405180910390f35b610565612cfd565b6040516105729190612fcf565b60405180910390f35b610595600480360381019061059091906130c3565b612d10565b005b61059f612dbd565b6040516105ac919061302b565b60405180910390f35b6105bd612de3565b6040516105ca919061302b565b60405180910390f35b6105db612e09565b6040516105e8919061302b565b60405180910390f35b600960199054906101000a900460ff1681565b6009601e9054906101000a900460ff1681565b6009601f9054906101000a900460ff1681565b600760009054906101000a900473ffffffffffffffffffffffffffffffffffffffff1681565b600a60009054906101000a900460ff1681565b600460009054906101000a900473ffffffffffffffffffffffffffffffffffffffff1681565b610691612e2f565b600260009054906101000a900473ffffffffffffffffffffffffffffffffffffffff1673ffffffffffffffffffffffffffffffffffffffff1663095ea7b3600360009054906101000a900473ffffffffffffffffffffffffffffffffffffffff167fffffffffffffffffffffffffffffffffffffffffffffffffffffffffffffffff6040518363ffffffff1660e01b8152600401610730929190613258565b6020604051808303816000875af115801561074f573d6000803e3d6000fd5b505050506040513d601f19601f8201168201806040525081019061077391906132b9565b50600260009054906101000a900473ffffffffffffffffffffffffffffffffffffffff1673ffffffffffffffffffffffffffffffffffffffff1663095ea7b3600460009054906101000a900473ffffffffffffffffffffffffffffffffffffffff167fffffffffffffffffffffffffffffffffffffffffffffffffffffffffffffffff6040518363ffffffff1660e01b8152600401610813929190613258565b6020604051808303816000875af1158015610832573d6000803e3d6000fd5b505050506040513d601f19601f8201168201806040525081019061085691906132b9565b50600260009054906101000a900473ffffffffffffffffffffffffffffffffffffffff1673ffffffffffffffffffffffffffffffffffffffff1663095ea7b3600560009054906101000a900473ffffffffffffffffffffffffffffffffffffffff167fffffffffffffffffffffffffffffffffffffffffffffffffffffffffffffffff6040518363ffffffff1660e01b81526004016108f6929190613258565b6020604051808303816000875af1158015610915573d6000803e3d6000fd5b505050506040513d601f19601f8201168201806040525081019061093991906132b9565b50600360009054906101000a900473ffffffffffffffffffffffffffffffffffffffff1673ffffffffffffffffffffffffffffffffffffffff1663095ea7b3600660009054906101000a900473ffffffffffffffffffffffffffffffffffffffff167fffffffffffffffffffffffffffffffffffffffffffffffffffffffffffffffff6040518363ffffffff1660e01b81526004016109d9929190613258565b6020604051808303816000875af11580156109f8573d6000803e3d6000fd5b505050506040513d601f19601f82011682018060405250810190610a1c91906132b9565b50600260009054906101000a900473ffffffffffffffffffffffffffffffffffffffff1673ffffffffffffffffffffffffffffffffffffffff1663095ea7b3600660009054906101000a900473ffffffffffffffffffffffffffffffffffffffff167fffffffffffffffffffffffffffffffffffffffffffffffffffffffffffffffff6040518363ffffffff1660e01b8152600401610abc929190613258565b6020604051808303816000875af1158015610adb573d6000803e3d6000fd5b505050506040513d601f19601f82011682018060405250810190610aff91906132b9565b50600460009054906101000a900473ffffffffffffffffffffffffffffffffffffffff1673ffffffffffffffffffffffffffffffffffffffff1663095ea7b3600760009054906101000a900473ffffffffffffffffffffffffffffffffffffffff167fffffffffffffffffffffffffffffffffffffffffffffffffffffffffffffffff6040518363ffffffff1660e01b8152600401610b9f929190613258565b6020604051808303816000875af1158015610bbe573d6000803e3d6000fd5b505050506040513d601f19601f82011682018060405250810190610be291906132b9565b50600260009054906101000a900473ffffffffffffffffffffffffffffffffffffffff1673ffffffffffffffffffffffffffffffffffffffff1663095ea7b3600760009054906101000a900473ffffffffffffffffffffffffffffffffffffffff167fffffffffffffffffffffffffffffffffffffffffffffffffffffffffffffffff6040518363ffffffff1660e01b8152600401610c82929190613258565b6020604051808303816000875af1158015610ca1573d6000803e3d6000fd5b505050506040513d601f19601f82011682018060405250810190610cc591906132b9565b50600560009054906101000a900473ffffffffffffffffffffffffffffffffffffffff1673ffffffffffffffffffffffffffffffffffffffff1663095ea7b3600860009054906101000a900473ffffffffffffffffffffffffffffffffffffffff167fffffffffffffffffffffffffffffffffffffffffffffffffffffffffffffffff6040518363ffffffff1660e01b8152600401610d65929190613258565b6020604051808303816000875af1158015610d84573d6000803e3d6000fd5b505050506040513d601f19601f82011682018060405250810190610da891906132b9565b50600260009054906101000a900473ffffffffffffffffffffffffffffffffffffffff1673ffffffffffffffffffffffffffffffffffffffff1663095ea7b3600860009054906101000a900473ffffffffffffffffffffffffffffffffffffffff167fffffffffffffffffffffffffffffffffffffffffffffffffffffffffffffffff6040518363ffffffff1660e01b8152600401610e48929190613258565b6020604051808303816000875af1158015610e67573d6000803e3d6000fd5b505050506040513d601f19601f82011682018060405250810190610e8b91906132b9565b50565b600f8060000154908060010154905082565b600b8060000154908060010154905082565b610eba612e2f565b600060405180610200016040528060008152602001600081526020016000815260200160008152602001600081526020016000815260200160008152602001600081526020016000815260200160008152602001600081526020016000815260200160008152602001600081526020016000815260200160008152509050600960009054906101000a900473ffffffffffffffffffffffffffffffffffffffff1673ffffffffffffffffffffffffffffffffffffffff1663e4fc6b6d6040518163ffffffff1660e01b8152600401600060405180830381600087803b158015610fa257600080fd5b505af1158015610fb6573d6000803e3d6000fd5b50505050600260009054906101000a900473ffffffffffffffffffffffffffffffffffffffff1673ffffffffffffffffffffffffffffffffffffffff166370a08231306040518263ffffffff1660e01b8152600401611015919061302b565b602060405180830381865afa158015611032573d6000803e3d6000fd5b505050506040513d601f19601f8201168201806040525081019061105691906132fb565b8160000181815250506064600960149054906101000a900460ff1660ff1682600001516110839190613357565b61108d91906133c8565b816040018181525050806040015181600001516110aa91906133f9565b81602001818152505060646009601b9054906101000a900460ff1660ff1682602001516110d79190613357565b6110e191906133c8565b81606001818152505060646009601d9054906101000a900460ff1660ff16826020015161110e9190613357565b61111891906133c8565b8160800181815250506064600960159054906101000a900460ff1660ff1682604001516111459190613357565b61114f91906133c8565b8160a00181815250506064600960179054906101000a900460ff1660ff16826040015161117c9190613357565b61118691906133c8565b8160c0018181525050606460148260a001516111a29190613357565b6111ac91906133c8565b8160e00181815250506064601e8260a001516111c89190613357565b6111d291906133c8565b816101000181815250508061010001518160e001518260a001516111f691906133f9565b61120091906133f9565b81610120018181525050600080611259600660009054906101000a900473ffffffffffffffffffffffffffffffffffffffff16600b60405180604001604052908160008201548152602001600182015481525050612412565b915091506000806112ac600760009054906101000a900473ffffffffffffffffffffffffffffffffffffffff16600d60405180604001604052908160008201548152602001600182015481525050612412565b915091506000806112ff600860009054906101000a900473ffffffffffffffffffffffffffffffffffffffff16600f60405180604001604052908160008201548152602001600182015481525050612412565b915091506000828588611312919061342d565b61131c919061342d565b9050876060015181111561144a576000611357600660009054906101000a900473ffffffffffffffffffffffffffffffffffffffff1661225f565b90506000611386600760009054906101000a900473ffffffffffffffffffffffffffffffffffffffff1661225f565b905060006113b5600860009054906101000a900473ffffffffffffffffffffffffffffffffffffffff1661225f565b905060008183856113c6919061342d565b6113d0919061342d565b9050808c60600151856113e39190613357565b6113ed91906133c8565b8c610160018181525050808c60600151846114089190613357565b61141291906133c8565b8c6101a0018181525050808c606001518361142d9190613357565b61143791906133c8565b8c6101e00181815250505050505061146c565b868861016001818152505084886101a001818152505082886101e00181815250505b600360009054906101000a900473ffffffffffffffffffffffffffffffffffffffff1673ffffffffffffffffffffffffffffffffffffffff16632c4e722e6040518163ffffffff1660e01b81526004016020604051808303816000875af11580156114db573d6000803e3d6000fd5b505050506040513d601f19601f820116820180604052508101906114ff91906132fb565b8860e0015161150e91906133c8565b86111561164a57600360009054906101000a900473ffffffffffffffffffffffffffffffffffffffff1673ffffffffffffffffffffffffffffffffffffffff166340c10f1930600360009054906101000a900473ffffffffffffffffffffffffffffffffffffffff1673ffffffffffffffffffffffffffffffffffffffff16632c4e722e6040518163ffffffff1660e01b81526004016020604051808303816000875af11580156115c3573d6000803e3d6000fd5b505050506040513d601f19601f820116820180604052508101906115e791906132fb565b8b60e001516115f691906133c8565b6040518363ffffffff1660e01b8152600401611613929190613258565b600060405180830381600087803b15801561162d57600080fd5b505af1158015611641573d6000803e3d6000fd5b505050506116da565b600360009054906101000a900473ffffffffffffffffffffffffffffffffffffffff1673ffffffffffffffffffffffffffffffffffffffff166340c10f1930886040518363ffffffff1660e01b81526004016116a7929190613258565b600060405180830381600087803b1580156116c157600080fd5b505af11580156116d5573d6000803e3d6000fd5b505050505b600460009054906101000a900473ffffffffffffffffffffffffffffffffffffffff1673ffffffffffffffffffffffffffffffffffffffff16632c4e722e6040518163ffffffff1660e01b81526004016020604051808303816000875af1158015611749573d6000803e3d6000fd5b505050506040513d601f19601f8201168201806040525081019061176d91906132fb565b88610100015161177d91906133c8565b8411156118ba57600460009054906101000a900473ffffffffffffffffffffffffffffffffffffffff1673ffffffffffffffffffffffffffffffffffffffff166340c10f1930600460009054906101000a900473ffffffffffffffffffffffffffffffffffffffff1673ffffffffffffffffffffffffffffffffffffffff16632c4e722e6040518163ffffffff1660e01b81526004016020604051808303816000875af1158015611832573d6000803e3d6000fd5b505050506040513d601f19601f8201168201806040525081019061185691906132fb565b8b610100015161186691906133c8565b6040518363ffffffff1660e01b8152600401611883929190613258565b600060405180830381600087803b15801561189d57600080fd5b505af11580156118b1573d6000803e3d6000fd5b5050505061194a565b600460009054906101000a900473ffffffffffffffffffffffffffffffffffffffff1673ffffffffffffffffffffffffffffffffffffffff166340c10f1930866040518363ffffffff1660e01b8152600401611917929190613258565b600060405180830381600087803b15801561193157600080fd5b505af1158015611945573d6000803e3d6000fd5b505050505b600560009054906101000a900473ffffffffffffffffffffffffffffffffffffffff1673ffffffffffffffffffffffffffffffffffffffff16632c4e722e6040518163ffffffff1660e01b81526004016020604051808303816000875af11580156119b9573d6000803e3d6000fd5b505050506040513d601f19601f820116820180604052508101906119dd91906132fb565b8861012001516119ed91906133c8565b821115611b2a57600560009054906101000a900473ffffffffffffffffffffffffffffffffffffffff1673ffffffffffffffffffffffffffffffffffffffff166340c10f1930600560009054906101000a900473ffffffffffffffffffffffffffffffffffffffff1673ffffffffffffffffffffffffffffffffffffffff16632c4e722e6040518163ffffffff1660e01b81526004016020604051808303816000875af1158015611aa2573d6000803e3d6000fd5b505050506040513d601f19601f82011682018060405250810190611ac691906132fb565b8b6101200151611ad691906133c8565b6040518363ffffffff1660e01b8152600401611af3929190613258565b600060405180830381600087803b158015611b0d57600080fd5b505af1158015611b21573d6000803e3d6000fd5b50505050611bba565b600560009054906101000a900473ffffffffffffffffffffffffffffffffffffffff1673ffffffffffffffffffffffffffffffffffffffff166340c10f1930846040518363ffffffff1660e01b8152600401611b87929190613258565b600060405180830381600087803b158015611ba157600080fd5b505af1158015611bb5573d6000803e3d6000fd5b505050505b600360009054906101000a900473ffffffffffffffffffffffffffffffffffffffff1673ffffffffffffffffffffffffffffffffffffffff166370a08231306040518263ffffffff1660e01b8152600401611c15919061302b565b602060405180830381865afa158015611c32573d6000803e3d6000fd5b505050506040513d601f19601f82011682018060405250810190611c5691906132fb565b88610140018181525050600460009054906101000a900473ffffffffffffffffffffffffffffffffffffffff1673ffffffffffffffffffffffffffffffffffffffff166370a08231306040518263ffffffff1660e01b8152600401611cbb919061302b565b602060405180830381865afa158015611cd8573d6000803e3d6000fd5b505050506040513d601f19601f82011682018060405250810190611cfc91906132fb565b88610180018181525050600560009054906101000a900473ffffffffffffffffffffffffffffffffffffffff1673ffffffffffffffffffffffffffffffffffffffff166370a08231306040518263ffffffff1660e01b8152600401611d61919061302b565b602060405180830381865afa158015611d7e573d6000803e3d6000fd5b505050506040513d601f19601f82011682018060405250810190611da291906132fb565b886101c0018181525050600660009054906101000a900473ffffffffffffffffffffffffffffffffffffffff1673ffffffffffffffffffffffffffffffffffffffff1663df6c39fb8961016001518a61014001516040518363ffffffff1660e01b8152600401611e1392919061305f565b600060405180830381600087803b158015611e2d57600080fd5b505af1158015611e41573d6000803e3d6000fd5b50505050600760009054906101000a900473ffffffffffffffffffffffffffffffffffffffff1673ffffffffffffffffffffffffffffffffffffffff1663df6c39fb896101a001518a61018001516040518363ffffffff1660e01b8152600401611eac92919061305f565b600060405180830381600087803b158015611ec657600080fd5b505af1158015611eda573d6000803e3d6000fd5b50505050600860009054906101000a900473ffffffffffffffffffffffffffffffffffffffff1673ffffffffffffffffffffffffffffffffffffffff1663df6c39fb896101e001518a6101c001516040518363ffffffff1660e01b8152600401611f4592919061305f565b600060405180830381600087803b158015611f5f57600080fd5b505af1158015611f73573d6000803e3d6000fd5b505050506000600260009054906101000a900473ffffffffffffffffffffffffffffffffffffffff1673ffffffffffffffffffffffffffffffffffffffff166370a08231306040518263ffffffff1660e01b8152600401611fd4919061302b565b602060405180830381865afa158015611ff1573d6000803e3d6000fd5b505050506040513d601f19601f8201168201806040525081019061201591906132fb565b111561217a57600260009054906101000a900473ffffffffffffffffffffffffffffffffffffffff1673ffffffffffffffffffffffffffffffffffffffff1663a9059cbb600960009054906101000a900473ffffffffffffffffffffffffffffffffffffffff16600260009054906101000a900473ffffffffffffffffffffffffffffffffffffffff1673ffffffffffffffffffffffffffffffffffffffff166370a08231306040518263ffffffff1660e01b81526004016120d7919061302b565b602060405180830381865afa1580156120f4573d6000803e3d6000fd5b505050506040513d601f19601f8201168201806040525081019061211891906132fb565b6040518363ffffffff1660e01b8152600401612135929190613258565b6020604051808303816000875af1158015612154573d6000803e3d6000fd5b505050506040513d601f19601f8201168201806040525081019061217891906132b9565b505b5050505050505050565b600a60019054906101000a900460ff1681565b600d8060000154908060010154905082565b600960149054906101000a900460ff1681565b6121c4612e2f565b6121ce6000612eb6565b565b60006121da612ee7565b90508073ffffffffffffffffffffffffffffffffffffffff166121fb612cd3565b73ffffffffffffffffffffffffffffffffffffffff161461225357806040517f118cdaa700000000000000000000000000000000000000000000000000000000815260040161224a919061302b565b60405180910390fd5b61225c81612eb6565b50565b6000808273ffffffffffffffffffffffffffffffffffffffff16635fcbd2856040518163ffffffff1660e01b8152600401602060405180830381865afa1580156122ad573d6000803e3d6000fd5b505050506040513d601f19601f820116820180604052508101906122d19190613476565b9050600260009054906101000a900473ffffffffffffffffffffffffffffffffffffffff1673ffffffffffffffffffffffffffffffffffffffff166370a08231826040518263ffffffff1660e01b815260040161232e919061302b565b602060405180830381865afa15801561234b573d6000803e3d6000fd5b505050506040513d601f19601f8201168201806040525081019061236f91906132fb565b915050919050565b60008060009054906101000a900473ffffffffffffffffffffffffffffffffffffffff16905090565b600360009054906101000a900473ffffffffffffffffffffffffffffffffffffffff1681565b6009601a9054906101000a900460ff1681565b6009601b9054906101000a900460ff1681565b6009601d9054906101000a900460ff1681565b600960159054906101000a900460ff1681565b60008060008473ffffffffffffffffffffffffffffffffffffffff1663817b1cd26040518163ffffffff1660e01b8152600401602060405180830381865afa158015612462573d6000803e3d6000fd5b505050506040513d601f19601f8201168201806040525081019061248691906132fb565b905060008573ffffffffffffffffffffffffffffffffffffffff16635fcbd2856040518163ffffffff1660e01b8152600401602060405180830381865afa1580156124d5573d6000803e3d6000fd5b505050506040513d601f19601f820116820180604052508101906124f99190613476565b905060008173ffffffffffffffffffffffffffffffffffffffff166318160ddd6040518163ffffffff1660e01b8152600401602060405180830381865afa158015612548573d6000803e3d6000fd5b505050506040513d601f19601f8201168201806040525081019061256c91906132fb565b905060008273ffffffffffffffffffffffffffffffffffffffff16630dfe16816040518163ffffffff1660e01b8152600401602060405180830381865afa1580156125bb573d6000803e3d6000fd5b505050506040513d601f19601f820116820180604052508101906125df9190613476565b905060008373ffffffffffffffffffffffffffffffffffffffff1663d21220a76040518163ffffffff1660e01b8152600401602060405180830381865afa15801561262e573d6000803e3d6000fd5b505050506040513d601f19601f820116820180604052508101906126529190613476565b9050600080600260009054906101000a900473ffffffffffffffffffffffffffffffffffffffff1673ffffffffffffffffffffffffffffffffffffffff168473ffffffffffffffffffffffffffffffffffffffff16146126b35782846126b6565b83835b91509150600260009054906101000a900473ffffffffffffffffffffffffffffffffffffffff1673ffffffffffffffffffffffffffffffffffffffff168273ffffffffffffffffffffffffffffffffffffffff161461274a576040517f08c379a000000000000000000000000000000000000000000000000000000000815260040161274190613500565b60405180910390fd5b60008273ffffffffffffffffffffffffffffffffffffffff166370a08231886040518263ffffffff1660e01b8152600401612785919061302b565b602060405180830381865afa1580156127a2573d6000803e3d6000fd5b505050506040513d601f19601f820116820180604052508101906127c691906132fb565b905060008273ffffffffffffffffffffffffffffffffffffffff166370a08231896040518263ffffffff1660e01b8152600401612803919061302b565b602060405180830381865afa158015612820573d6000803e3d6000fd5b505050506040513d601f19601f8201168201806040525081019061284491906132fb565b9050600087838b6128559190613357565b61285f91906133c8565b9050600088838c6128709190613357565b61287a91906133c8565b90506127108e600001518361288f9190613357565b61289991906133c8565b6127108f60200151836128ac9190613357565b6128b691906133c8565b9c509c5050505050505050505050509250929050565b600960009054906101000a900473ffffffffffffffffffffffffffffffffffffffff1681565b6009601c9054906101000a900460ff1681565b600960169054906101000a900460ff1681565b600560009054906101000a900473ffffffffffffffffffffffffffffffffffffffff1681565b612946612e2f565b600360009054906101000a900473ffffffffffffffffffffffffffffffffffffffff1673ffffffffffffffffffffffffffffffffffffffff1663f2fde38b61298c612377565b6040518263ffffffff1660e01b81526004016129a8919061302b565b600060405180830381600087803b1580156129c257600080fd5b505af11580156129d6573d6000803e3d6000fd5b50505050600460009054906101000a900473ffffffffffffffffffffffffffffffffffffffff1673ffffffffffffffffffffffffffffffffffffffff1663f2fde38b612a20612377565b6040518263ffffffff1660e01b8152600401612a3c919061302b565b600060405180830381600087803b158015612a5657600080fd5b505af1158015612a6a573d6000803e3d6000fd5b50505050600560009054906101000a900473ffffffffffffffffffffffffffffffffffffffff1673ffffffffffffffffffffffffffffffffffffffff1663f2fde38b612ab4612377565b6040518263ffffffff1660e01b8152600401612ad0919061302b565b600060405180830381600087803b158015612aea57600080fd5b505af1158015612afe573d6000803e3d6000fd5b50505050600660009054906101000a900473ffffffffffffffffffffffffffffffffffffffff1673ffffffffffffffffffffffffffffffffffffffff1663f2fde38b612b48612377565b6040518263ffffffff1660e01b8152600401612b64919061302b565b600060405180830381600087803b158015612b7e57600080fd5b505af1158015612b92573d6000803e3d6000fd5b50505050600760009054906101000a900473ffffffffffffffffffffffffffffffffffffffff1673ffffffffffffffffffffffffffffffffffffffff1663f2fde38b612bdc612377565b6040518263ffffffff1660e01b8152600401612bf8919061302b565b600060405180830381600087803b158015612c1257600080fd5b505af1158015612c26573d6000803e3d6000fd5b50505050600860009054906101000a900473ffffffffffffffffffffffffffffffffffffffff1673ffffffffffffffffffffffffffffffffffffffff1663f2fde38b612c70612377565b6040518263ffffffff1660e01b8152600401612c8c919061302b565b600060405180830381600087803b158015612ca657600080fd5b505af1158015612cba573d6000803e3d6000fd5b50505050565b600960189054906101000a900460ff1681565b6000600160009054906101000a900473ffffffffffffffffffffffffffffffffffffffff16905090565b600960179054906101000a900460ff1681565b612d18612e2f565b80600160006101000a81548173ffffffffffffffffffffffffffffffffffffffff021916908373ffffffffffffffffffffffffffffffffffffffff1602179055508073ffffffffffffffffffffffffffffffffffffffff16612d78612377565b73ffffffffffffffffffffffffffffffffffffffff167f38d16b8cac22d99fc7c124b9cd0de2d3fa1faef420bfe791d8c362d765e2270060405160405180910390a350565b600260009054906101000a900473ffffffffffffffffffffffffffffffffffffffff1681565b600860009054906101000a900473ffffffffffffffffffffffffffffffffffffffff1681565b600660009054906101000a900473ffffffffffffffffffffffffffffffffffffffff1681565b612e37612ee7565b73ffffffffffffffffffffffffffffffffffffffff16612e55612377565b73ffffffffffffffffffffffffffffffffffffffff1614612eb457612e78612ee7565b6040517f118cdaa7000000000000000000000000000000000000000000000000000000008152600401612eab919061302b565b60405180910390fd5b565b600160006101000a81549073ffffffffffffffffffffffffffffffffffffffff0219169055612ee481612eef565b50565b600033905090565b60008060009054906101000a900473ffffffffffffffffffffffffffffffffffffffff169050816000806101000a81548173ffffffffffffffffffffffffffffffffffffffff021916908373ffffffffffffffffffffffffffffffffffffffff1602179055508173ffffffffffffffffffffffffffffffffffffffff168173ffffffffffffffffffffffffffffffffffffffff167f8be0079c531659141344cd1fd0a4f28419497f9722a3daafe3b4186f6b6457e060405160405180910390a35050565b600060ff82169050919050565b612fc981612fb3565b82525050565b6000602082019050612fe46000830184612fc0565b92915050565b600073ffffffffffffffffffffffffffffffffffffffff82169050919050565b600061301582612fea565b9050919050565b6130258161300a565b82525050565b6000602082019050613040600083018461301c565b92915050565b6000819050919050565b61305981613046565b82525050565b60006040820190506130746000830185613050565b6130816020830184613050565b9392505050565b6000604051905090565b600080fd5b6130a08161300a565b81146130ab57600080fd5b50565b6000813590506130bd81613097565b92915050565b6000602082840312156130d9576130d8613092565b5b60006130e7848285016130ae565b91505092915050565b60006020820190506131056000830184613050565b92915050565b600080fd5b6000601f19601f8301169050919050565b7f4e487b7100000000000000000000000000000000000000000000000000000000600052604160045260246000fd5b61315982613110565b810181811067ffffffffffffffff8211171561317857613177613121565b5b80604052505050565b600061318b613088565b90506131978282613150565b919050565b6131a581613046565b81146131b057600080fd5b50565b6000813590506131c28161319c565b92915050565b6000604082840312156131de576131dd61310b565b5b6131e86040613181565b905060006131f8848285016131b3565b600083015250602061320c848285016131b3565b60208301525092915050565b6000806060838503121561322f5761322e613092565b5b600061323d858286016130ae565b925050602061324e858286016131c8565b9150509250929050565b600060408201905061326d600083018561301c565b61327a6020830184613050565b9392505050565b60008115159050919050565b61329681613281565b81146132a157600080fd5b50565b6000815190506132b38161328d565b92915050565b6000602082840312156132cf576132ce613092565b5b60006132dd848285016132a4565b91505092915050565b6000815190506132f58161319c565b92915050565b60006020828403121561331157613310613092565b5b600061331f848285016132e6565b91505092915050565b7f4e487b7100000000000000000000000000000000000000000000000000000000600052601160045260246000fd5b600061336282613046565b915061336d83613046565b925082820261337b81613046565b9150828204841483151761339257613391613328565b5b5092915050565b7f4e487b7100000000000000000000000000000000000000000000000000000000600052601260045260246000fd5b60006133d382613046565b91506133de83613046565b9250826133ee576133ed613399565b5b828204905092915050565b600061340482613046565b915061340f83613046565b925082820390508181111561342757613426613328565b5b92915050565b600061343882613046565b915061344383613046565b925082820190508082111561345b5761345a613328565b5b92915050565b60008151905061347081613097565b92915050565b60006020828403121561348c5761348b613092565b5b600061349a84828501613461565b91505092915050565b600082825260208201905092915050565b7f494e56414c49445f5245574152445f544f4b454e000000000000000000000000600082015250565b60006134ea6014836134a3565b91506134f5826134b4565b602082019050919050565b60006020820190508181036000830152613519816134dd565b905091905056fea2646970667358221220a3bb36257a29db4ff7a1933813fdf6776d97af94ee2fdb92c419691c7e309e4c64736f6c63430008180033",
  "linkReferences": {},
  "deployedLinkReferences": {}
}