{
  "_format": "hh-sol-artifact-1",
  "contractName": "RewardSplitter",
  "sourceName": "contracts/RewardSplitter.sol",
  "abi": [
    {
      "inputs": [
        {
          "internalType": "address",
          "name": "_rewardToken",
          "type": "address"
        },
        {
          "internalType": "address",
          "name": "_distributor",
          "type": "address"
        },
        {
          "internalType": "address",
          "name": "_tbbAddress",
          "type": "address"
        },
        {
          "internalType": "address",
          "name": "_tbbFarmAddress",
          "type": "address"
        },
        {
          "internalType": "address",
          "name": "_tbsAddress",
          "type": "address"
        },
        {
          "internalType": "address",
          "name": "_tbsFarmAddress",
          "type": "address"
        },
        {
          "internalType": "address",
          "name": "_tbgAddress",
          "type": "address"
        },
        {
          "internalType": "address",
          "name": "_tbgFarmAddress",
          "type": "address"
        }
      ],
      "stateMutability": "nonpayable",
      "type": "constructor"
    },
    {
      "inputs": [
        {
          "internalType": "address",
          "name": "owner",
          "type": "address"
        }
      ],
      "name": "OwnableInvalidOwner",
      "type": "error"
    },
    {
      "inputs": [
        {
          "internalType": "address",
          "name": "account",
          "type": "address"
        }
      ],
      "name": "OwnableUnauthorizedAccount",
      "type": "error"
    },
    {
      "anonymous": false,
      "inputs": [
        {
          "indexed": true,
          "internalType": "address",
          "name": "previousOwner",
          "type": "address"
        },
        {
          "indexed": true,
          "internalType": "address",
          "name": "newOwner",
          "type": "address"
        }
      ],
      "name": "OwnershipTransferStarted",
      "type": "event"
    },
    {
      "anonymous": false,
      "inputs": [
        {
          "indexed": true,
          "internalType": "address",
          "name": "previousOwner",
          "type": "address"
        },
        {
          "indexed": true,
          "internalType": "address",
          "name": "newOwner",
          "type": "address"
        }
      ],
      "name": "OwnershipTransferred",
      "type": "event"
    },
    {
      "inputs": [],
      "name": "MAX_RATE",
      "outputs": [
        {
          "internalType": "uint256",
          "name": "",
          "type": "uint256"
        }
      ],
      "stateMutability": "view",
      "type": "function"
    },
    {
      "inputs": [],
      "name": "MIN_RATE",
      "outputs": [
        {
          "internalType": "uint256",
          "name": "",
          "type": "uint256"
        }
      ],
      "stateMutability": "view",
      "type": "function"
    },
    {
      "inputs": [],
      "name": "acceptOwnership",
      "outputs": [],
      "stateMutability": "nonpayable",
      "type": "function"
    },
    {
      "inputs": [],
      "name": "approveTb",
      "outputs": [],
      "stateMutability": "nonpayable",
      "type": "function"
    },
    {
      "inputs": [
        {
          "internalType": "address",
          "name": "_farm",
          "type": "address"
        },
        {
          "components": [
            {
              "internalType": "uint256",
              "name": "ldt",
              "type": "uint256"
            },
            {
              "internalType": "uint256",
              "name": "tb",
              "type": "uint256"
            }
          ],
          "internalType": "struct RewardSplitter.RewardRate",
          "name": "_rate",
          "type": "tuple"
        }
      ],
      "name": "calculateStakingLiquidity",
      "outputs": [
        {
          "internalType": "uint256",
          "name": "",
          "type": "uint256"
        },
        {
          "internalType": "uint256",
          "name": "",
          "type": "uint256"
        }
      ],
      "stateMutability": "view",
      "type": "function"
    },
    {
      "inputs": [],
      "name": "distributor",
      "outputs": [
        {
          "internalType": "address",
          "name": "",
          "type": "address"
        }
      ],
      "stateMutability": "view",
      "type": "function"
    },
    {
      "inputs": [
        {
          "internalType": "address",
          "name": "_farm",
          "type": "address"
        }
      ],
      "name": "getLdtLiquidity",
      "outputs": [
        {
          "internalType": "uint256",
          "name": "liquidity",
          "type": "uint256"
        }
      ],
      "stateMutability": "view",
      "type": "function"
    },
    {
      "inputs": [],
      "name": "ldtAmbassadorIncentiveReward",
      "outputs": [
        {
          "internalType": "uint8",
          "name": "",
          "type": "uint8"
        }
      ],
      "stateMutability": "view",
      "type": "function"
    },
    {
      "inputs": [],
      "name": "ldtDaoFundReward",
      "outputs": [
        {
          "internalType": "uint8",
          "name": "",
          "type": "uint8"
        }
      ],
      "stateMutability": "view",
      "type": "function"
    },
    {
      "inputs": [],
      "name": "ldtFarmingReward",
      "outputs": [
        {
          "internalType": "uint8",
          "name": "",
          "type": "uint8"
        }
      ],
      "stateMutability": "view",
      "type": "function"
    },
    {
      "inputs": [],
      "name": "ldtGreenEnergyProducersReward",
      "outputs": [
        {
          "internalType": "uint8",
          "name": "",
          "type": "uint8"
        }
      ],
      "stateMutability": "view",
      "type": "function"
    },
    {
      "inputs": [],
      "name": "ldtMarketingReward",
      "outputs": [
        {
          "internalType": "uint8",
          "name": "",
          "type": "uint8"
        }
      ],
      "stateMutability": "view",
      "type": "function"
    },
    {
      "inputs": [],
      "name": "ldtStakingReward",
      "outputs": [
        {
          "internalType": "uint8",
          "name": "",
          "type": "uint8"
        }
      ],
      "stateMutability": "view",
      "type": "function"
    },
    {
      "inputs": [],
      "name": "ldtTeamReward",
      "outputs": [
        {
          "internalType": "uint8",
          "name": "",
          "type": "uint8"
        }
      ],
      "stateMutability": "view",
      "type": "function"
    },
    {
      "inputs": [],
      "name": "owner",
      "outputs": [
        {
          "internalType": "address",
          "name": "",
          "type": "address"
        }
      ],
      "stateMutability": "view",
      "type": "function"
    },
    {
      "inputs": [],
      "name": "pendingOwner",
      "outputs": [
        {
          "internalType": "address",
          "name": "",
          "type": "address"
        }
      ],
      "stateMutability": "view",
      "type": "function"
    },
    {
      "inputs": [],
      "name": "recoverOwnershipTbb",
      "outputs": [],
      "stateMutability": "nonpayable",
      "type": "function"
    },
    {
      "inputs": [],
      "name": "recoverOwnershipTbbFarm",
      "outputs": [],
      "stateMutability": "nonpayable",
      "type": "function"
    },
    {
      "inputs": [],
      "name": "recoverOwnershipTbg",
      "outputs": [],
      "stateMutability": "nonpayable",
      "type": "function"
    },
    {
      "inputs": [],
      "name": "recoverOwnershipTbgFarm",
      "outputs": [],
      "stateMutability": "nonpayable",
      "type": "function"
    },
    {
      "inputs": [],
      "name": "recoverOwnershipTbs",
      "outputs": [],
      "stateMutability": "nonpayable",
      "type": "function"
    },
    {
      "inputs": [],
      "name": "recoverOwnershipTbsFarm",
      "outputs": [],
      "stateMutability": "nonpayable",
      "type": "function"
    },
    {
      "inputs": [],
      "name": "renounceOwnership",
      "outputs": [],
      "stateMutability": "nonpayable",
      "type": "function"
    },
    {
      "inputs": [],
      "name": "requestDistribution",
      "outputs": [],
      "stateMutability": "nonpayable",
      "type": "function"
    },
    {
      "inputs": [],
      "name": "rewardToken",
      "outputs": [
        {
          "internalType": "address",
          "name": "",
          "type": "address"
        }
      ],
      "stateMutability": "view",
      "type": "function"
    },
    {
      "inputs": [
        {
          "internalType": "address",
          "name": "_distributor",
          "type": "address"
        }
      ],
      "name": "setDistributor",
      "outputs": [],
      "stateMutability": "nonpayable",
      "type": "function"
    },
    {
      "inputs": [
        {
          "internalType": "uint256",
          "name": "_ldtRate",
          "type": "uint256"
        },
        {
          "internalType": "uint256",
          "name": "_tbbRate",
          "type": "uint256"
        }
      ],
      "name": "setTbbRewardRate",
      "outputs": [],
      "stateMutability": "nonpayable",
      "type": "function"
    },
    {
      "inputs": [
        {
          "internalType": "uint256",
          "name": "_ldtRate",
          "type": "uint256"
        },
        {
          "internalType": "uint256",
          "name": "_tbgRate",
          "type": "uint256"
        }
      ],
      "name": "setTbgRewardRate",
      "outputs": [],
      "stateMutability": "nonpayable",
      "type": "function"
    },
    {
      "inputs": [
        {
          "internalType": "uint256",
          "name": "_ldtRate",
          "type": "uint256"
        },
        {
          "internalType": "uint256",
          "name": "_tbsRate",
          "type": "uint256"
        }
      ],
      "name": "setTbsRewardRate",
      "outputs": [],
      "stateMutability": "nonpayable",
      "type": "function"
    },
    {
      "inputs": [],
      "name": "tbAmbassadorIncentiveReward",
      "outputs": [
        {
          "internalType": "uint8",
          "name": "",
          "type": "uint8"
        }
      ],
      "stateMutability": "view",
      "type": "function"
    },
    {
      "inputs": [],
      "name": "tbDaoFundReward",
      "outputs": [
        {
          "internalType": "uint8",
          "name": "",
          "type": "uint8"
        }
      ],
      "stateMutability": "view",
      "type": "function"
    },
    {
      "inputs": [],
      "name": "tbFarmingReward",
      "outputs": [
        {
          "internalType": "uint8",
          "name": "",
          "type": "uint8"
        }
      ],
      "stateMutability": "view",
      "type": "function"
    },
    {
      "inputs": [],
      "name": "tbGreenEnergyProducersReward",
      "outputs": [
        {
          "internalType": "uint8",
          "name": "",
          "type": "uint8"
        }
      ],
      "stateMutability": "view",
      "type": "function"
    },
    {
      "inputs": [],
      "name": "tbRate",
      "outputs": [
        {
          "internalType": "uint8",
          "name": "",
          "type": "uint8"
        }
      ],
      "stateMutability": "view",
      "type": "function"
    },
    {
      "inputs": [],
      "name": "tbStakingReward",
      "outputs": [
        {
          "internalType": "uint8",
          "name": "",
          "type": "uint8"
        }
      ],
      "stateMutability": "view",
      "type": "function"
    },
    {
      "inputs": [],
      "name": "tbTeamReward",
      "outputs": [
        {
          "internalType": "uint8",
          "name": "",
          "type": "uint8"
        }
      ],
      "stateMutability": "view",
      "type": "function"
    },
    {
      "inputs": [],
      "name": "tbbAddress",
      "outputs": [
        {
          "internalType": "address",
          "name": "",
          "type": "address"
        }
      ],
      "stateMutability": "view",
      "type": "function"
    },
    {
      "inputs": [],
      "name": "tbbFarmAddress",
      "outputs": [
        {
          "internalType": "address",
          "name": "",
          "type": "address"
        }
      ],
      "stateMutability": "view",
      "type": "function"
    },
    {
      "inputs": [],
      "name": "tbbRewardRate",
      "outputs": [
        {
          "internalType": "uint256",
          "name": "ldt",
          "type": "uint256"
        },
        {
          "internalType": "uint256",
          "name": "tb",
          "type": "uint256"
        }
      ],
      "stateMutability": "view",
      "type": "function"
    },
    {
      "inputs": [],
      "name": "tbgAddress",
      "outputs": [
        {
          "internalType": "address",
          "name": "",
          "type": "address"
        }
      ],
      "stateMutability": "view",
      "type": "function"
    },
    {
      "inputs": [],
      "name": "tbgFarmAddress",
      "outputs": [
        {
          "internalType": "address",
          "name": "",
          "type": "address"
        }
      ],
      "stateMutability": "view",
      "type": "function"
    },
    {
      "inputs": [],
      "name": "tbgRewardRate",
      "outputs": [
        {
          "internalType": "uint256",
          "name": "ldt",
          "type": "uint256"
        },
        {
          "internalType": "uint256",
          "name": "tb",
          "type": "uint256"
        }
      ],
      "stateMutability": "view",
      "type": "function"
    },
    {
      "inputs": [],
      "name": "tbsAddress",
      "outputs": [
        {
          "internalType": "address",
          "name": "",
          "type": "address"
        }
      ],
      "stateMutability": "view",
      "type": "function"
    },
    {
      "inputs": [],
      "name": "tbsFarmAddress",
      "outputs": [
        {
          "internalType": "address",
          "name": "",
          "type": "address"
        }
      ],
      "stateMutability": "view",
      "type": "function"
    },
    {
      "inputs": [],
      "name": "tbsRewardRate",
      "outputs": [
        {
          "internalType": "uint256",
          "name": "ldt",
          "type": "uint256"
        },
        {
          "internalType": "uint256",
          "name": "tb",
          "type": "uint256"
        }
      ],
      "stateMutability": "view",
      "type": "function"
    },
    {
      "inputs": [
        {
          "internalType": "address",
          "name": "newOwner",
          "type": "address"
        }
      ],
      "name": "transferOwnership",
      "outputs": [],
      "stateMutability": "nonpayable",
      "type": "function"
    }
  ],
  "bytecode": "0x60806040526050600960146101000a81548160ff021916908360ff1602179055506028600960156101000a81548160ff021916908360ff1602179055506019600960166101000a81548160ff021916908360ff160217905550600a600960176101000a81548160ff021916908360ff160217905550600a600960186101000a81548160ff021916908360ff160217905550600a600960196101000a81548160ff021916908360ff16021790555060056009601a6101000a81548160ff021916908360ff16021790555060146009601b6101000a81548160ff021916908360ff16021790555060286009601c6101000a81548160ff021916908360ff160217905550600a6009601d6101000a81548160ff021916908360ff160217905550600e6009601e6101000a81548160ff021916908360ff160217905550600a6009601f6101000a81548160ff021916908360ff1602179055506005600a60006101000a81548160ff021916908360ff1602179055506001600a60016101000a81548160ff021916908360ff160217905550604051806040016040528060c8815260200160c8815250600b6000820151816000015560208201518160010155505060405180604001604052806101f481526020016101f4815250600d6000820151816000015560208201518160010155505060405180604001604052806103e881526020016103e8815250600f600082015181600001556020820151816001015550503480156200022a57600080fd5b50604051620041ff380380620041ff833981810160405281019062000250919062000655565b33600073ffffffffffffffffffffffffffffffffffffffff168173ffffffffffffffffffffffffffffffffffffffff1603620002c65760006040517f1e4fbdf7000000000000000000000000000000000000000000000000000000008152600401620002bd91906200072f565b60405180910390fd5b620002d781620004ee60201b60201c565b5087600260006101000a81548173ffffffffffffffffffffffffffffffffffffffff021916908373ffffffffffffffffffffffffffffffffffffffff16021790555086600960006101000a81548173ffffffffffffffffffffffffffffffffffffffff021916908373ffffffffffffffffffffffffffffffffffffffff16021790555085600360006101000a81548173ffffffffffffffffffffffffffffffffffffffff021916908373ffffffffffffffffffffffffffffffffffffffff16021790555084600660006101000a81548173ffffffffffffffffffffffffffffffffffffffff021916908373ffffffffffffffffffffffffffffffffffffffff16021790555083600460006101000a81548173ffffffffffffffffffffffffffffffffffffffff021916908373ffffffffffffffffffffffffffffffffffffffff16021790555082600760006101000a81548173ffffffffffffffffffffffffffffffffffffffff021916908373ffffffffffffffffffffffffffffffffffffffff16021790555081600560006101000a81548173ffffffffffffffffffffffffffffffffffffffff021916908373ffffffffffffffffffffffffffffffffffffffff16021790555080600860006101000a81548173ffffffffffffffffffffffffffffffffffffffff021916908373ffffffffffffffffffffffffffffffffffffffff16021790555050505050505050506200074c565b600160006101000a81549073ffffffffffffffffffffffffffffffffffffffff021916905562000524816200052760201b60201c565b50565b60008060009054906101000a900473ffffffffffffffffffffffffffffffffffffffff169050816000806101000a81548173ffffffffffffffffffffffffffffffffffffffff021916908373ffffffffffffffffffffffffffffffffffffffff1602179055508173ffffffffffffffffffffffffffffffffffffffff168173ffffffffffffffffffffffffffffffffffffffff167f8be0079c531659141344cd1fd0a4f28419497f9722a3daafe3b4186f6b6457e060405160405180910390a35050565b600080fd5b600073ffffffffffffffffffffffffffffffffffffffff82169050919050565b60006200061d82620005f0565b9050919050565b6200062f8162000610565b81146200063b57600080fd5b50565b6000815190506200064f8162000624565b92915050565b600080600080600080600080610100898b031215620006795762000678620005eb565b5b6000620006898b828c016200063e565b98505060206200069c8b828c016200063e565b9750506040620006af8b828c016200063e565b9650506060620006c28b828c016200063e565b9550506080620006d58b828c016200063e565b94505060a0620006e88b828c016200063e565b93505060c0620006fb8b828c016200063e565b92505060e06200070e8b828c016200063e565b9150509295985092959890939650565b620007298162000610565b82525050565b60006020820190506200074660008301846200071e565b92915050565b613aa3806200075c6000396000f3fe608060405234801561001057600080fd5b50600436106102895760003560e01c8063912eb70b1161015c578063d2449407116100ce578063ee120c2511610087578063ee120c25146106aa578063f2fce724146106b4578063f2fde38b146106d2578063f7c618c1146106ee578063fa27c5bd1461070c578063feeffcd61461072a57610289565b8063d244940714610632578063d72bd2871461063c578063d77374bd14610646578063d819bfef14610664578063e24ac8e014610682578063e30c39781461068c57610289565b8063bbb186b511610120578063bbb186b51461056b578063bfe109281461059c578063c24dbebd146105ba578063c64c595d146105d8578063c8ae163c146105f6578063d036f6121461061457610289565b8063912eb70b146104e9578063a34a9182146104f3578063a6964c0714610511578063b00272351461052f578063ba2b4c991461054d57610289565b80634eecf1fd1161020057806375619ab5116101b957806375619ab51461043b57806379ba5097146104575780637e3ba83d1461046157806381720c081461047d5780638da5cb5b146104ad5780638ec244f1146104cb57610289565b80634eecf1fd146103ad57806359c52a8c146103cc5780636e2da631146103d657806370a53926146103f457806371080ec414610413578063715018a61461043157610289565b806326a1cea91161025257806326a1cea9146103245780632954ef84146103425780632a2b662c1461034c57806338cd6c0f14610368578063427186dd1461038757806347b018e21461039157610289565b806205d2f91461028e57806312f51203146102ac5780631561bca5146102ca5780631c8c7a1c146102e857806322a00f3b14610306575b600080fd5b610296610748565b6040516102a39190613404565b60405180910390f35b6102b461075b565b6040516102c19190613404565b60405180910390f35b6102d261076e565b6040516102df9190613404565b60405180910390f35b6102f0610781565b6040516102fd9190613460565b60405180910390f35b61030e6107a7565b60405161031b9190613404565b60405180910390f35b61032c6107ba565b6040516103399190613460565b60405180910390f35b61034a6107e0565b005b610366600480360381019061036191906134c0565b610fe5565b005b6103706110ab565b60405161037e92919061350f565b60405180910390f35b61038f6110bd565b005b6103ab60048036038101906103a691906134c0565b61115b565b005b6103b5611221565b6040516103c392919061350f565b60405180910390f35b6103d4611233565b005b6103de612505565b6040516103eb9190613404565b60405180910390f35b6103fc612518565b60405161040a92919061350f565b60405180910390f35b61041b61252a565b6040516104289190613404565b60405180910390f35b61043961253d565b005b61045560048036038101906104509190613564565b612551565b005b61045f61259d565b005b61047b600480360381019061047691906134c0565b61262c565b005b61049760048036038101906104929190613564565b6126f2565b6040516104a49190613591565b60405180910390f35b6104b561280a565b6040516104c29190613460565b60405180910390f35b6104d3612833565b6040516104e09190613460565b60405180910390f35b6104f1612859565b005b6104fb6128f7565b6040516105089190613404565b60405180910390f35b61051961290a565b6040516105269190613404565b60405180910390f35b61053761291d565b6040516105449190613404565b60405180910390f35b610555612930565b6040516105629190613404565b60405180910390f35b6105856004803603810190610580919061368d565b612943565b60405161059392919061350f565b60405180910390f35b6105a4612dff565b6040516105b19190613460565b60405180910390f35b6105c2612e25565b6040516105cf9190613591565b60405180910390f35b6105e0612e2c565b6040516105ed9190613404565b60405180910390f35b6105fe612e3f565b60405161060b9190613404565b60405180910390f35b61061c612e52565b6040516106299190613460565b60405180910390f35b61063a612e78565b005b610644612f16565b005b61064e612fb4565b60405161065b9190613404565b60405180910390f35b61066c612fc7565b6040516106799190613591565b60405180910390f35b61068a612fcc565b005b61069461306a565b6040516106a19190613460565b60405180910390f35b6106b2613094565b005b6106bc613132565b6040516106c99190613404565b60405180910390f35b6106ec60048036038101906106e79190613564565b613145565b005b6106f66131f2565b6040516107039190613460565b60405180910390f35b610714613218565b6040516107219190613460565b60405180910390f35b61073261323e565b60405161073f9190613460565b60405180910390f35b600960199054906101000a900460ff1681565b6009601e9054906101000a900460ff1681565b6009601f9054906101000a900460ff1681565b600760009054906101000a900473ffffffffffffffffffffffffffffffffffffffff1681565b600a60009054906101000a900460ff1681565b600460009054906101000a900473ffffffffffffffffffffffffffffffffffffffff1681565b6107e8613264565b600260009054906101000a900473ffffffffffffffffffffffffffffffffffffffff1673ffffffffffffffffffffffffffffffffffffffff1663095ea7b3600360009054906101000a900473ffffffffffffffffffffffffffffffffffffffff167fffffffffffffffffffffffffffffffffffffffffffffffffffffffffffffffff6040518363ffffffff1660e01b81526004016108879291906136cd565b6020604051808303816000875af11580156108a6573d6000803e3d6000fd5b505050506040513d601f19601f820116820180604052508101906108ca919061372e565b50600260009054906101000a900473ffffffffffffffffffffffffffffffffffffffff1673ffffffffffffffffffffffffffffffffffffffff1663095ea7b3600460009054906101000a900473ffffffffffffffffffffffffffffffffffffffff167fffffffffffffffffffffffffffffffffffffffffffffffffffffffffffffffff6040518363ffffffff1660e01b815260040161096a9291906136cd565b6020604051808303816000875af1158015610989573d6000803e3d6000fd5b505050506040513d601f19601f820116820180604052508101906109ad919061372e565b50600260009054906101000a900473ffffffffffffffffffffffffffffffffffffffff1673ffffffffffffffffffffffffffffffffffffffff1663095ea7b3600560009054906101000a900473ffffffffffffffffffffffffffffffffffffffff167fffffffffffffffffffffffffffffffffffffffffffffffffffffffffffffffff6040518363ffffffff1660e01b8152600401610a4d9291906136cd565b6020604051808303816000875af1158015610a6c573d6000803e3d6000fd5b505050506040513d601f19601f82011682018060405250810190610a90919061372e565b50600360009054906101000a900473ffffffffffffffffffffffffffffffffffffffff1673ffffffffffffffffffffffffffffffffffffffff1663095ea7b3600660009054906101000a900473ffffffffffffffffffffffffffffffffffffffff167fffffffffffffffffffffffffffffffffffffffffffffffffffffffffffffffff6040518363ffffffff1660e01b8152600401610b309291906136cd565b6020604051808303816000875af1158015610b4f573d6000803e3d6000fd5b505050506040513d601f19601f82011682018060405250810190610b73919061372e565b50600260009054906101000a900473ffffffffffffffffffffffffffffffffffffffff1673ffffffffffffffffffffffffffffffffffffffff1663095ea7b3600660009054906101000a900473ffffffffffffffffffffffffffffffffffffffff167fffffffffffffffffffffffffffffffffffffffffffffffffffffffffffffffff6040518363ffffffff1660e01b8152600401610c139291906136cd565b6020604051808303816000875af1158015610c32573d6000803e3d6000fd5b505050506040513d601f19601f82011682018060405250810190610c56919061372e565b50600460009054906101000a900473ffffffffffffffffffffffffffffffffffffffff1673ffffffffffffffffffffffffffffffffffffffff1663095ea7b3600760009054906101000a900473ffffffffffffffffffffffffffffffffffffffff167fffffffffffffffffffffffffffffffffffffffffffffffffffffffffffffffff6040518363ffffffff1660e01b8152600401610cf69291906136cd565b6020604051808303816000875af1158015610d15573d6000803e3d6000fd5b505050506040513d601f19601f82011682018060405250810190610d39919061372e565b50600260009054906101000a900473ffffffffffffffffffffffffffffffffffffffff1673ffffffffffffffffffffffffffffffffffffffff1663095ea7b3600760009054906101000a900473ffffffffffffffffffffffffffffffffffffffff167fffffffffffffffffffffffffffffffffffffffffffffffffffffffffffffffff6040518363ffffffff1660e01b8152600401610dd99291906136cd565b6020604051808303816000875af1158015610df8573d6000803e3d6000fd5b505050506040513d601f19601f82011682018060405250810190610e1c919061372e565b50600560009054906101000a900473ffffffffffffffffffffffffffffffffffffffff1673ffffffffffffffffffffffffffffffffffffffff1663095ea7b3600860009054906101000a900473ffffffffffffffffffffffffffffffffffffffff167fffffffffffffffffffffffffffffffffffffffffffffffffffffffffffffffff6040518363ffffffff1660e01b8152600401610ebc9291906136cd565b6020604051808303816000875af1158015610edb573d6000803e3d6000fd5b505050506040513d601f19601f82011682018060405250810190610eff919061372e565b50600260009054906101000a900473ffffffffffffffffffffffffffffffffffffffff1673ffffffffffffffffffffffffffffffffffffffff1663095ea7b3600860009054906101000a900473ffffffffffffffffffffffffffffffffffffffff167fffffffffffffffffffffffffffffffffffffffffffffffffffffffffffffffff6040518363ffffffff1660e01b8152600401610f9f9291906136cd565b6020604051808303816000875af1158015610fbe573d6000803e3d6000fd5b505050506040513d601f19601f82011682018060405250810190610fe2919061372e565b50565b610fed613264565b600182101580156110015750620186a08211155b611040576040517f08c379a0000000000000000000000000000000000000000000000000000000008152600401611037906137b8565b60405180910390fd5b600181101580156110545750620186a08111155b611093576040517f08c379a000000000000000000000000000000000000000000000000000000000815260040161108a90613824565b60405180910390fd5b81600f6000018190555080600f600101819055505050565b600f8060000154908060010154905082565b6110c5613264565b600560009054906101000a900473ffffffffffffffffffffffffffffffffffffffff1673ffffffffffffffffffffffffffffffffffffffff1663f2fde38b61110b61280a565b6040518263ffffffff1660e01b81526004016111279190613460565b600060405180830381600087803b15801561114157600080fd5b505af1158015611155573d6000803e3d6000fd5b50505050565b611163613264565b600182101580156111775750620186a08211155b6111b6576040517f08c379a00000000000000000000000000000000000000000000000000000000081526004016111ad906137b8565b60405180910390fd5b600181101580156111ca5750620186a08111155b611209576040517f08c379a000000000000000000000000000000000000000000000000000000000815260040161120090613824565b60405180910390fd5b81600d6000018190555080600d600101819055505050565b600b8060000154908060010154905082565b61123b613264565b600060405180610200016040528060008152602001600081526020016000815260200160008152602001600081526020016000815260200160008152602001600081526020016000815260200160008152602001600081526020016000815260200160008152602001600081526020016000815260200160008152509050600960009054906101000a900473ffffffffffffffffffffffffffffffffffffffff1673ffffffffffffffffffffffffffffffffffffffff1663e4fc6b6d6040518163ffffffff1660e01b8152600401600060405180830381600087803b15801561132357600080fd5b505af1158015611337573d6000803e3d6000fd5b50505050600260009054906101000a900473ffffffffffffffffffffffffffffffffffffffff1673ffffffffffffffffffffffffffffffffffffffff166370a08231306040518263ffffffff1660e01b81526004016113969190613460565b602060405180830381865afa1580156113b3573d6000803e3d6000fd5b505050506040513d601f19601f820116820180604052508101906113d79190613859565b8160000181815250506064600960149054906101000a900460ff1660ff16826000015161140491906138b5565b61140e9190613926565b8160400181815250508060400151816000015161142b9190613957565b81602001818152505060646009601b9054906101000a900460ff1660ff16826020015161145891906138b5565b6114629190613926565b81606001818152505060646009601d9054906101000a900460ff1660ff16826020015161148f91906138b5565b6114999190613926565b8160800181815250506064600960159054906101000a900460ff1660ff1682604001516114c691906138b5565b6114d09190613926565b8160a00181815250506064600960179054906101000a900460ff1660ff1682604001516114fd91906138b5565b6115079190613926565b8160c0018181525050606460148260a0015161152391906138b5565b61152d9190613926565b8160e00181815250506064601e8260a0015161154991906138b5565b6115539190613926565b816101000181815250508061010001518160e001518260a001516115779190613957565b6115819190613957565b816101200181815250506000806115da600660009054906101000a900473ffffffffffffffffffffffffffffffffffffffff16600b60405180604001604052908160008201548152602001600182015481525050612943565b9150915060008061162d600760009054906101000a900473ffffffffffffffffffffffffffffffffffffffff16600d60405180604001604052908160008201548152602001600182015481525050612943565b91509150600080611680600860009054906101000a900473ffffffffffffffffffffffffffffffffffffffff16600f60405180604001604052908160008201548152602001600182015481525050612943565b915091506000828588611693919061398b565b61169d919061398b565b905087606001518111156117cb5760006116d8600660009054906101000a900473ffffffffffffffffffffffffffffffffffffffff166126f2565b90506000611707600760009054906101000a900473ffffffffffffffffffffffffffffffffffffffff166126f2565b90506000611736600860009054906101000a900473ffffffffffffffffffffffffffffffffffffffff166126f2565b90506000818385611747919061398b565b611751919061398b565b9050808c606001518561176491906138b5565b61176e9190613926565b8c610160018181525050808c606001518461178991906138b5565b6117939190613926565b8c6101a0018181525050808c60600151836117ae91906138b5565b6117b89190613926565b8c6101e0018181525050505050506117ed565b868861016001818152505084886101a001818152505082886101e00181815250505b600360009054906101000a900473ffffffffffffffffffffffffffffffffffffffff1673ffffffffffffffffffffffffffffffffffffffff16632c4e722e6040518163ffffffff1660e01b81526004016020604051808303816000875af115801561185c573d6000803e3d6000fd5b505050506040513d601f19601f820116820180604052508101906118809190613859565b8860e0015161188f9190613926565b8611156119cb57600360009054906101000a900473ffffffffffffffffffffffffffffffffffffffff1673ffffffffffffffffffffffffffffffffffffffff166340c10f1930600360009054906101000a900473ffffffffffffffffffffffffffffffffffffffff1673ffffffffffffffffffffffffffffffffffffffff16632c4e722e6040518163ffffffff1660e01b81526004016020604051808303816000875af1158015611944573d6000803e3d6000fd5b505050506040513d601f19601f820116820180604052508101906119689190613859565b8b60e001516119779190613926565b6040518363ffffffff1660e01b81526004016119949291906136cd565b600060405180830381600087803b1580156119ae57600080fd5b505af11580156119c2573d6000803e3d6000fd5b50505050611a5b565b600360009054906101000a900473ffffffffffffffffffffffffffffffffffffffff1673ffffffffffffffffffffffffffffffffffffffff166340c10f1930886040518363ffffffff1660e01b8152600401611a289291906136cd565b600060405180830381600087803b158015611a4257600080fd5b505af1158015611a56573d6000803e3d6000fd5b505050505b600460009054906101000a900473ffffffffffffffffffffffffffffffffffffffff1673ffffffffffffffffffffffffffffffffffffffff16632c4e722e6040518163ffffffff1660e01b81526004016020604051808303816000875af1158015611aca573d6000803e3d6000fd5b505050506040513d601f19601f82011682018060405250810190611aee9190613859565b886101000151611afe9190613926565b841115611c3b57600460009054906101000a900473ffffffffffffffffffffffffffffffffffffffff1673ffffffffffffffffffffffffffffffffffffffff166340c10f1930600460009054906101000a900473ffffffffffffffffffffffffffffffffffffffff1673ffffffffffffffffffffffffffffffffffffffff16632c4e722e6040518163ffffffff1660e01b81526004016020604051808303816000875af1158015611bb3573d6000803e3d6000fd5b505050506040513d601f19601f82011682018060405250810190611bd79190613859565b8b6101000151611be79190613926565b6040518363ffffffff1660e01b8152600401611c049291906136cd565b600060405180830381600087803b158015611c1e57600080fd5b505af1158015611c32573d6000803e3d6000fd5b50505050611ccb565b600460009054906101000a900473ffffffffffffffffffffffffffffffffffffffff1673ffffffffffffffffffffffffffffffffffffffff166340c10f1930866040518363ffffffff1660e01b8152600401611c989291906136cd565b600060405180830381600087803b158015611cb257600080fd5b505af1158015611cc6573d6000803e3d6000fd5b505050505b600560009054906101000a900473ffffffffffffffffffffffffffffffffffffffff1673ffffffffffffffffffffffffffffffffffffffff16632c4e722e6040518163ffffffff1660e01b81526004016020604051808303816000875af1158015611d3a573d6000803e3d6000fd5b505050506040513d601f19601f82011682018060405250810190611d5e9190613859565b886101200151611d6e9190613926565b821115611eab57600560009054906101000a900473ffffffffffffffffffffffffffffffffffffffff1673ffffffffffffffffffffffffffffffffffffffff166340c10f1930600560009054906101000a900473ffffffffffffffffffffffffffffffffffffffff1673ffffffffffffffffffffffffffffffffffffffff16632c4e722e6040518163ffffffff1660e01b81526004016020604051808303816000875af1158015611e23573d6000803e3d6000fd5b505050506040513d601f19601f82011682018060405250810190611e479190613859565b8b6101200151611e579190613926565b6040518363ffffffff1660e01b8152600401611e749291906136cd565b600060405180830381600087803b158015611e8e57600080fd5b505af1158015611ea2573d6000803e3d6000fd5b50505050611f3b565b600560009054906101000a900473ffffffffffffffffffffffffffffffffffffffff1673ffffffffffffffffffffffffffffffffffffffff166340c10f1930846040518363ffffffff1660e01b8152600401611f089291906136cd565b600060405180830381600087803b158015611f2257600080fd5b505af1158015611f36573d6000803e3d6000fd5b505050505b600360009054906101000a900473ffffffffffffffffffffffffffffffffffffffff1673ffffffffffffffffffffffffffffffffffffffff166370a08231306040518263ffffffff1660e01b8152600401611f969190613460565b602060405180830381865afa158015611fb3573d6000803e3d6000fd5b505050506040513d601f19601f82011682018060405250810190611fd79190613859565b88610140018181525050600460009054906101000a900473ffffffffffffffffffffffffffffffffffffffff1673ffffffffffffffffffffffffffffffffffffffff166370a08231306040518263ffffffff1660e01b815260040161203c9190613460565b602060405180830381865afa158015612059573d6000803e3d6000fd5b505050506040513d601f19601f8201168201806040525081019061207d9190613859565b88610180018181525050600560009054906101000a900473ffffffffffffffffffffffffffffffffffffffff1673ffffffffffffffffffffffffffffffffffffffff166370a08231306040518263ffffffff1660e01b81526004016120e29190613460565b602060405180830381865afa1580156120ff573d6000803e3d6000fd5b505050506040513d601f19601f820116820180604052508101906121239190613859565b886101c0018181525050600660009054906101000a900473ffffffffffffffffffffffffffffffffffffffff1673ffffffffffffffffffffffffffffffffffffffff1663df6c39fb8961016001518a61014001516040518363ffffffff1660e01b815260040161219492919061350f565b600060405180830381600087803b1580156121ae57600080fd5b505af11580156121c2573d6000803e3d6000fd5b50505050600760009054906101000a900473ffffffffffffffffffffffffffffffffffffffff1673ffffffffffffffffffffffffffffffffffffffff1663df6c39fb896101a001518a61018001516040518363ffffffff1660e01b815260040161222d92919061350f565b600060405180830381600087803b15801561224757600080fd5b505af115801561225b573d6000803e3d6000fd5b50505050600860009054906101000a900473ffffffffffffffffffffffffffffffffffffffff1673ffffffffffffffffffffffffffffffffffffffff1663df6c39fb896101e001518a6101c001516040518363ffffffff1660e01b81526004016122c692919061350f565b600060405180830381600087803b1580156122e057600080fd5b505af11580156122f4573d6000803e3d6000fd5b505050506000600260009054906101000a900473ffffffffffffffffffffffffffffffffffffffff1673ffffffffffffffffffffffffffffffffffffffff166370a08231306040518263ffffffff1660e01b81526004016123559190613460565b602060405180830381865afa158015612372573d6000803e3d6000fd5b505050506040513d601f19601f820116820180604052508101906123969190613859565b11156124fb57600260009054906101000a900473ffffffffffffffffffffffffffffffffffffffff1673ffffffffffffffffffffffffffffffffffffffff1663a9059cbb600960009054906101000a900473ffffffffffffffffffffffffffffffffffffffff16600260009054906101000a900473ffffffffffffffffffffffffffffffffffffffff1673ffffffffffffffffffffffffffffffffffffffff166370a08231306040518263ffffffff1660e01b81526004016124589190613460565b602060405180830381865afa158015612475573d6000803e3d6000fd5b505050506040513d601f19601f820116820180604052508101906124999190613859565b6040518363ffffffff1660e01b81526004016124b69291906136cd565b6020604051808303816000875af11580156124d5573d6000803e3d6000fd5b505050506040513d601f19601f820116820180604052508101906124f9919061372e565b505b5050505050505050565b600a60019054906101000a900460ff1681565b600d8060000154908060010154905082565b600960149054906101000a900460ff1681565b612545613264565b61254f60006132eb565b565b612559613264565b80600960006101000a81548173ffffffffffffffffffffffffffffffffffffffff021916908373ffffffffffffffffffffffffffffffffffffffff16021790555050565b60006125a761331c565b90508073ffffffffffffffffffffffffffffffffffffffff166125c861306a565b73ffffffffffffffffffffffffffffffffffffffff161461262057806040517f118cdaa70000000000000000000000000000000000000000000000000000000081526004016126179190613460565b60405180910390fd5b612629816132eb565b50565b612634613264565b600182101580156126485750620186a08211155b612687576040517f08c379a000000000000000000000000000000000000000000000000000000000815260040161267e906137b8565b60405180910390fd5b6001811015801561269b5750620186a08111155b6126da576040517f08c379a00000000000000000000000000000000000000000000000000000000081526004016126d190613824565b60405180910390fd5b81600b6000018190555080600b600101819055505050565b6000808273ffffffffffffffffffffffffffffffffffffffff16635fcbd2856040518163ffffffff1660e01b8152600401602060405180830381865afa158015612740573d6000803e3d6000fd5b505050506040513d601f19601f8201168201806040525081019061276491906139d4565b9050600260009054906101000a900473ffffffffffffffffffffffffffffffffffffffff1673ffffffffffffffffffffffffffffffffffffffff166370a08231826040518263ffffffff1660e01b81526004016127c19190613460565b602060405180830381865afa1580156127de573d6000803e3d6000fd5b505050506040513d601f19601f820116820180604052508101906128029190613859565b915050919050565b60008060009054906101000a900473ffffffffffffffffffffffffffffffffffffffff16905090565b600360009054906101000a900473ffffffffffffffffffffffffffffffffffffffff1681565b612861613264565b600760009054906101000a900473ffffffffffffffffffffffffffffffffffffffff1673ffffffffffffffffffffffffffffffffffffffff1663f2fde38b6128a761280a565b6040518263ffffffff1660e01b81526004016128c39190613460565b600060405180830381600087803b1580156128dd57600080fd5b505af11580156128f1573d6000803e3d6000fd5b50505050565b6009601a9054906101000a900460ff1681565b6009601b9054906101000a900460ff1681565b6009601d9054906101000a900460ff1681565b600960159054906101000a900460ff1681565b60008060008473ffffffffffffffffffffffffffffffffffffffff1663817b1cd26040518163ffffffff1660e01b8152600401602060405180830381865afa158015612993573d6000803e3d6000fd5b505050506040513d601f19601f820116820180604052508101906129b79190613859565b905060008573ffffffffffffffffffffffffffffffffffffffff16635fcbd2856040518163ffffffff1660e01b8152600401602060405180830381865afa158015612a06573d6000803e3d6000fd5b505050506040513d601f19601f82011682018060405250810190612a2a91906139d4565b905060008173ffffffffffffffffffffffffffffffffffffffff166318160ddd6040518163ffffffff1660e01b8152600401602060405180830381865afa158015612a79573d6000803e3d6000fd5b505050506040513d601f19601f82011682018060405250810190612a9d9190613859565b905060008273ffffffffffffffffffffffffffffffffffffffff16630dfe16816040518163ffffffff1660e01b8152600401602060405180830381865afa158015612aec573d6000803e3d6000fd5b505050506040513d601f19601f82011682018060405250810190612b1091906139d4565b905060008373ffffffffffffffffffffffffffffffffffffffff1663d21220a76040518163ffffffff1660e01b8152600401602060405180830381865afa158015612b5f573d6000803e3d6000fd5b505050506040513d601f19601f82011682018060405250810190612b8391906139d4565b9050600080600260009054906101000a900473ffffffffffffffffffffffffffffffffffffffff1673ffffffffffffffffffffffffffffffffffffffff168473ffffffffffffffffffffffffffffffffffffffff1614612be4578284612be7565b83835b91509150600260009054906101000a900473ffffffffffffffffffffffffffffffffffffffff1673ffffffffffffffffffffffffffffffffffffffff168273ffffffffffffffffffffffffffffffffffffffff1614612c7b576040517f08c379a0000000000000000000000000000000000000000000000000000000008152600401612c7290613a4d565b60405180910390fd5b60008273ffffffffffffffffffffffffffffffffffffffff166370a08231886040518263ffffffff1660e01b8152600401612cb69190613460565b602060405180830381865afa158015612cd3573d6000803e3d6000fd5b505050506040513d601f19601f82011682018060405250810190612cf79190613859565b905060008273ffffffffffffffffffffffffffffffffffffffff166370a08231896040518263ffffffff1660e01b8152600401612d349190613460565b602060405180830381865afa158015612d51573d6000803e3d6000fd5b505050506040513d601f19601f82011682018060405250810190612d759190613859565b9050600087838b612d8691906138b5565b612d909190613926565b9050600088838c612da191906138b5565b612dab9190613926565b9050620186a08e6000015183612dc191906138b5565b612dcb9190613926565b620186a08f6020015183612ddf91906138b5565b612de99190613926565b9c509c5050505050505050505050509250929050565b600960009054906101000a900473ffffffffffffffffffffffffffffffffffffffff1681565b620186a081565b6009601c9054906101000a900460ff1681565b600960169054906101000a900460ff1681565b600560009054906101000a900473ffffffffffffffffffffffffffffffffffffffff1681565b612e80613264565b600860009054906101000a900473ffffffffffffffffffffffffffffffffffffffff1673ffffffffffffffffffffffffffffffffffffffff1663f2fde38b612ec661280a565b6040518263ffffffff1660e01b8152600401612ee29190613460565b600060405180830381600087803b158015612efc57600080fd5b505af1158015612f10573d6000803e3d6000fd5b50505050565b612f1e613264565b600660009054906101000a900473ffffffffffffffffffffffffffffffffffffffff1673ffffffffffffffffffffffffffffffffffffffff1663f2fde38b612f6461280a565b6040518263ffffffff1660e01b8152600401612f809190613460565b600060405180830381600087803b158015612f9a57600080fd5b505af1158015612fae573d6000803e3d6000fd5b50505050565b600960189054906101000a900460ff1681565b600181565b612fd4613264565b600460009054906101000a900473ffffffffffffffffffffffffffffffffffffffff1673ffffffffffffffffffffffffffffffffffffffff1663f2fde38b61301a61280a565b6040518263ffffffff1660e01b81526004016130369190613460565b600060405180830381600087803b15801561305057600080fd5b505af1158015613064573d6000803e3d6000fd5b50505050565b6000600160009054906101000a900473ffffffffffffffffffffffffffffffffffffffff16905090565b61309c613264565b600360009054906101000a900473ffffffffffffffffffffffffffffffffffffffff1673ffffffffffffffffffffffffffffffffffffffff1663f2fde38b6130e261280a565b6040518263ffffffff1660e01b81526004016130fe9190613460565b600060405180830381600087803b15801561311857600080fd5b505af115801561312c573d6000803e3d6000fd5b50505050565b600960179054906101000a900460ff1681565b61314d613264565b80600160006101000a81548173ffffffffffffffffffffffffffffffffffffffff021916908373ffffffffffffffffffffffffffffffffffffffff1602179055508073ffffffffffffffffffffffffffffffffffffffff166131ad61280a565b73ffffffffffffffffffffffffffffffffffffffff167f38d16b8cac22d99fc7c124b9cd0de2d3fa1faef420bfe791d8c362d765e2270060405160405180910390a350565b600260009054906101000a900473ffffffffffffffffffffffffffffffffffffffff1681565b600860009054906101000a900473ffffffffffffffffffffffffffffffffffffffff1681565b600660009054906101000a900473ffffffffffffffffffffffffffffffffffffffff1681565b61326c61331c565b73ffffffffffffffffffffffffffffffffffffffff1661328a61280a565b73ffffffffffffffffffffffffffffffffffffffff16146132e9576132ad61331c565b6040517f118cdaa70000000000000000000000000000000000000000000000000000000081526004016132e09190613460565b60405180910390fd5b565b600160006101000a81549073ffffffffffffffffffffffffffffffffffffffff021916905561331981613324565b50565b600033905090565b60008060009054906101000a900473ffffffffffffffffffffffffffffffffffffffff169050816000806101000a81548173ffffffffffffffffffffffffffffffffffffffff021916908373ffffffffffffffffffffffffffffffffffffffff1602179055508173ffffffffffffffffffffffffffffffffffffffff168173ffffffffffffffffffffffffffffffffffffffff167f8be0079c531659141344cd1fd0a4f28419497f9722a3daafe3b4186f6b6457e060405160405180910390a35050565b600060ff82169050919050565b6133fe816133e8565b82525050565b600060208201905061341960008301846133f5565b92915050565b600073ffffffffffffffffffffffffffffffffffffffff82169050919050565b600061344a8261341f565b9050919050565b61345a8161343f565b82525050565b60006020820190506134756000830184613451565b92915050565b6000604051905090565b600080fd5b6000819050919050565b61349d8161348a565b81146134a857600080fd5b50565b6000813590506134ba81613494565b92915050565b600080604083850312156134d7576134d6613485565b5b60006134e5858286016134ab565b92505060206134f6858286016134ab565b9150509250929050565b6135098161348a565b82525050565b60006040820190506135246000830185613500565b6135316020830184613500565b9392505050565b6135418161343f565b811461354c57600080fd5b50565b60008135905061355e81613538565b92915050565b60006020828403121561357a57613579613485565b5b60006135888482850161354f565b91505092915050565b60006020820190506135a66000830184613500565b92915050565b600080fd5b6000601f19601f8301169050919050565b7f4e487b7100000000000000000000000000000000000000000000000000000000600052604160045260246000fd5b6135fa826135b1565b810181811067ffffffffffffffff82111715613619576136186135c2565b5b80604052505050565b600061362c61347b565b905061363882826135f1565b919050565b600060408284031215613653576136526135ac565b5b61365d6040613622565b9050600061366d848285016134ab565b6000830152506020613681848285016134ab565b60208301525092915050565b600080606083850312156136a4576136a3613485565b5b60006136b28582860161354f565b92505060206136c38582860161363d565b9150509250929050565b60006040820190506136e26000830185613451565b6136ef6020830184613500565b9392505050565b60008115159050919050565b61370b816136f6565b811461371657600080fd5b50565b60008151905061372881613702565b92915050565b60006020828403121561374457613743613485565b5b600061375284828501613719565b91505092915050565b600082825260208201905092915050565b7f494e56414c49445f4c44545f5241544500000000000000000000000000000000600082015250565b60006137a260108361375b565b91506137ad8261376c565b602082019050919050565b600060208201905081810360008301526137d181613795565b9050919050565b7f494e56414c49445f54425f524154450000000000000000000000000000000000600082015250565b600061380e600f8361375b565b9150613819826137d8565b602082019050919050565b6000602082019050818103600083015261383d81613801565b9050919050565b60008151905061385381613494565b92915050565b60006020828403121561386f5761386e613485565b5b600061387d84828501613844565b91505092915050565b7f4e487b7100000000000000000000000000000000000000000000000000000000600052601160045260246000fd5b60006138c08261348a565b91506138cb8361348a565b92508282026138d98161348a565b915082820484148315176138f0576138ef613886565b5b5092915050565b7f4e487b7100000000000000000000000000000000000000000000000000000000600052601260045260246000fd5b60006139318261348a565b915061393c8361348a565b92508261394c5761394b6138f7565b5b828204905092915050565b60006139628261348a565b915061396d8361348a565b925082820390508181111561398557613984613886565b5b92915050565b60006139968261348a565b91506139a18361348a565b92508282019050808211156139b9576139b8613886565b5b92915050565b6000815190506139ce81613538565b92915050565b6000602082840312156139ea576139e9613485565b5b60006139f8848285016139bf565b91505092915050565b7f494e56414c49445f5245574152445f544f4b454e000000000000000000000000600082015250565b6000613a3760148361375b565b9150613a4282613a01565b602082019050919050565b60006020820190508181036000830152613a6681613a2a565b905091905056fea2646970667358221220416f3ef76ce3dc9c11f2dd903dfe025d4d95c5eea0d40e81a6342dc924b1985764736f6c63430008180033",
  "linkReferences": {},
  "deployedLinkReferences": {}
}