{
  "_format": "hh-sol-artifact-1",
  "contractName": "RewardSplitterV2",
  "sourceName": "contracts/RewardSplitterV2.sol",
  "abi": [
    {
      "inputs": [
        {
          "internalType": "address",
          "name": "_ldt",
          "type": "address"
        },
        {
          "internalType": "address",
          "name": "_tbb",
          "type": "address"
        },
        {
          "internalType": "address",
          "name": "_tbs",
          "type": "address"
        },
        {
          "internalType": "address",
          "name": "_tbg",
          "type": "address"
        },
        {
          "internalType": "address",
          "name": "_distributor",
          "type": "address"
        },
        {
          "internalType": "address",
          "name": "_farmSplitter",
          "type": "address"
        },
        {
          "internalType": "address",
          "name": "_stakingSplitter",
          "type": "address"
        },
        {
          "internalType": "address",
          "name": "_boostingSplitter",
          "type": "address"
        },
        {
          "internalType": "address",
          "name": "_teamSplitter",
          "type": "address"
        },
        {
          "internalType": "address",
          "name": "_teamVault",
          "type": "address"
        },
        {
          "components": [
            {
              "internalType": "address[]",
              "name": "farms",
              "type": "address[]"
            },
            {
              "internalType": "address[]",
              "name": "stakers",
              "type": "address[]"
            },
            {
              "internalType": "address[]",
              "name": "boosters",
              "type": "address[]"
            }
          ],
          "internalType": "struct RewardSplitterV2.StakerAddresses",
          "name": "_addresses",
          "type": "tuple"
        }
      ],
      "stateMutability": "nonpayable",
      "type": "constructor"
    },
    {
      "inputs": [
        {
          "internalType": "address",
          "name": "owner",
          "type": "address"
        }
      ],
      "name": "OwnableInvalidOwner",
      "type": "error"
    },
    {
      "inputs": [
        {
          "internalType": "address",
          "name": "account",
          "type": "address"
        }
      ],
      "name": "OwnableUnauthorizedAccount",
      "type": "error"
    },
    {
      "anonymous": false,
      "inputs": [
        {
          "components": [
            {
              "components": [
                {
                  "components": [
                    {
                      "internalType": "uint256",
                      "name": "ldt",
                      "type": "uint256"
                    },
                    {
                      "internalType": "uint256",
                      "name": "tb",
                      "type": "uint256"
                    },
                    {
                      "internalType": "uint256",
                      "name": "ldtLiquidity",
                      "type": "uint256"
                    },
                    {
                      "internalType": "uint256",
                      "name": "tbLiquidity",
                      "type": "uint256"
                    }
                  ],
                  "internalType": "struct RewardsLibrary.Reward",
                  "name": "liquidity",
                  "type": "tuple"
                },
                {
                  "internalType": "uint256",
                  "name": "ldt",
                  "type": "uint256"
                },
                {
                  "internalType": "uint256",
                  "name": "tb",
                  "type": "uint256"
                }
              ],
              "internalType": "struct RewardsLibrary.Farm",
              "name": "tbb",
              "type": "tuple"
            },
            {
              "components": [
                {
                  "components": [
                    {
                      "internalType": "uint256",
                      "name": "ldt",
                      "type": "uint256"
                    },
                    {
                      "internalType": "uint256",
                      "name": "tb",
                      "type": "uint256"
                    },
                    {
                      "internalType": "uint256",
                      "name": "ldtLiquidity",
                      "type": "uint256"
                    },
                    {
                      "internalType": "uint256",
                      "name": "tbLiquidity",
                      "type": "uint256"
                    }
                  ],
                  "internalType": "struct RewardsLibrary.Reward",
                  "name": "liquidity",
                  "type": "tuple"
                },
                {
                  "internalType": "uint256",
                  "name": "ldt",
                  "type": "uint256"
                },
                {
                  "internalType": "uint256",
                  "name": "tb",
                  "type": "uint256"
                }
              ],
              "internalType": "struct RewardsLibrary.Farm",
              "name": "tbs",
              "type": "tuple"
            },
            {
              "components": [
                {
                  "components": [
                    {
                      "internalType": "uint256",
                      "name": "ldt",
                      "type": "uint256"
                    },
                    {
                      "internalType": "uint256",
                      "name": "tb",
                      "type": "uint256"
                    },
                    {
                      "internalType": "uint256",
                      "name": "ldtLiquidity",
                      "type": "uint256"
                    },
                    {
                      "internalType": "uint256",
                      "name": "tbLiquidity",
                      "type": "uint256"
                    }
                  ],
                  "internalType": "struct RewardsLibrary.Reward",
                  "name": "liquidity",
                  "type": "tuple"
                },
                {
                  "internalType": "uint256",
                  "name": "ldt",
                  "type": "uint256"
                },
                {
                  "internalType": "uint256",
                  "name": "tb",
                  "type": "uint256"
                }
              ],
              "internalType": "struct RewardsLibrary.Farm",
              "name": "tbg",
              "type": "tuple"
            }
          ],
          "indexed": false,
          "internalType": "struct RewardsLibrary.RewardsAmounts",
          "name": "rewards",
          "type": "tuple"
        }
      ],
      "name": "DistributeBoostingRewards",
      "type": "event"
    },
    {
      "anonymous": false,
      "inputs": [
        {
          "components": [
            {
              "components": [
                {
                  "components": [
                    {
                      "internalType": "uint256",
                      "name": "ldt",
                      "type": "uint256"
                    },
                    {
                      "internalType": "uint256",
                      "name": "tb",
                      "type": "uint256"
                    },
                    {
                      "internalType": "uint256",
                      "name": "ldtLiquidity",
                      "type": "uint256"
                    },
                    {
                      "internalType": "uint256",
                      "name": "tbLiquidity",
                      "type": "uint256"
                    }
                  ],
                  "internalType": "struct RewardsLibrary.Reward",
                  "name": "liquidity",
                  "type": "tuple"
                },
                {
                  "internalType": "uint256",
                  "name": "ldt",
                  "type": "uint256"
                },
                {
                  "internalType": "uint256",
                  "name": "tb",
                  "type": "uint256"
                }
              ],
              "internalType": "struct RewardsLibrary.Farm",
              "name": "tbb",
              "type": "tuple"
            },
            {
              "components": [
                {
                  "components": [
                    {
                      "internalType": "uint256",
                      "name": "ldt",
                      "type": "uint256"
                    },
                    {
                      "internalType": "uint256",
                      "name": "tb",
                      "type": "uint256"
                    },
                    {
                      "internalType": "uint256",
                      "name": "ldtLiquidity",
                      "type": "uint256"
                    },
                    {
                      "internalType": "uint256",
                      "name": "tbLiquidity",
                      "type": "uint256"
                    }
                  ],
                  "internalType": "struct RewardsLibrary.Reward",
                  "name": "liquidity",
                  "type": "tuple"
                },
                {
                  "internalType": "uint256",
                  "name": "ldt",
                  "type": "uint256"
                },
                {
                  "internalType": "uint256",
                  "name": "tb",
                  "type": "uint256"
                }
              ],
              "internalType": "struct RewardsLibrary.Farm",
              "name": "tbs",
              "type": "tuple"
            },
            {
              "components": [
                {
                  "components": [
                    {
                      "internalType": "uint256",
                      "name": "ldt",
                      "type": "uint256"
                    },
                    {
                      "internalType": "uint256",
                      "name": "tb",
                      "type": "uint256"
                    },
                    {
                      "internalType": "uint256",
                      "name": "ldtLiquidity",
                      "type": "uint256"
                    },
                    {
                      "internalType": "uint256",
                      "name": "tbLiquidity",
                      "type": "uint256"
                    }
                  ],
                  "internalType": "struct RewardsLibrary.Reward",
                  "name": "liquidity",
                  "type": "tuple"
                },
                {
                  "internalType": "uint256",
                  "name": "ldt",
                  "type": "uint256"
                },
                {
                  "internalType": "uint256",
                  "name": "tb",
                  "type": "uint256"
                }
              ],
              "internalType": "struct RewardsLibrary.Farm",
              "name": "tbg",
              "type": "tuple"
            }
          ],
          "indexed": false,
          "internalType": "struct RewardsLibrary.RewardsAmounts",
          "name": "rewards",
          "type": "tuple"
        }
      ],
      "name": "DistributeFarmingRewards",
      "type": "event"
    },
    {
      "anonymous": false,
      "inputs": [
        {
          "components": [
            {
              "internalType": "uint256",
              "name": "total",
              "type": "uint256"
            },
            {
              "internalType": "uint256",
              "name": "ldt",
              "type": "uint256"
            },
            {
              "internalType": "uint256",
              "name": "tb",
              "type": "uint256"
            },
            {
              "components": [
                {
                  "internalType": "uint256",
                  "name": "ldt",
                  "type": "uint256"
                },
                {
                  "internalType": "uint256",
                  "name": "tb",
                  "type": "uint256"
                }
              ],
              "internalType": "struct RewardSplitterV2.DoubleReward",
              "name": "farming",
              "type": "tuple"
            },
            {
              "components": [
                {
                  "internalType": "uint256",
                  "name": "ldt",
                  "type": "uint256"
                },
                {
                  "internalType": "uint256",
                  "name": "tb",
                  "type": "uint256"
                }
              ],
              "internalType": "struct RewardSplitterV2.DoubleReward",
              "name": "staking",
              "type": "tuple"
            },
            {
              "components": [
                {
                  "internalType": "uint256",
                  "name": "ldt",
                  "type": "uint256"
                },
                {
                  "internalType": "uint256",
                  "name": "tb",
                  "type": "uint256"
                }
              ],
              "internalType": "struct RewardSplitterV2.DoubleReward",
              "name": "boosting",
              "type": "tuple"
            },
            {
              "components": [
                {
                  "internalType": "uint256",
                  "name": "ldt",
                  "type": "uint256"
                },
                {
                  "internalType": "uint256",
                  "name": "tb",
                  "type": "uint256"
                }
              ],
              "internalType": "struct RewardSplitterV2.DoubleReward",
              "name": "team",
              "type": "tuple"
            }
          ],
          "indexed": false,
          "internalType": "struct RewardSplitterV2.Rewards",
          "name": "rewards",
          "type": "tuple"
        }
      ],
      "name": "DistributeRewards",
      "type": "event"
    },
    {
      "anonymous": false,
      "inputs": [
        {
          "components": [
            {
              "components": [
                {
                  "components": [
                    {
                      "internalType": "uint256",
                      "name": "ldt",
                      "type": "uint256"
                    },
                    {
                      "internalType": "uint256",
                      "name": "tb",
                      "type": "uint256"
                    },
                    {
                      "internalType": "uint256",
                      "name": "ldtLiquidity",
                      "type": "uint256"
                    },
                    {
                      "internalType": "uint256",
                      "name": "tbLiquidity",
                      "type": "uint256"
                    }
                  ],
                  "internalType": "struct RewardsLibrary.Reward",
                  "name": "liquidity",
                  "type": "tuple"
                },
                {
                  "internalType": "uint256",
                  "name": "ldt",
                  "type": "uint256"
                },
                {
                  "internalType": "uint256",
                  "name": "tb",
                  "type": "uint256"
                }
              ],
              "internalType": "struct RewardsLibrary.Farm",
              "name": "tbb",
              "type": "tuple"
            },
            {
              "components": [
                {
                  "components": [
                    {
                      "internalType": "uint256",
                      "name": "ldt",
                      "type": "uint256"
                    },
                    {
                      "internalType": "uint256",
                      "name": "tb",
                      "type": "uint256"
                    },
                    {
                      "internalType": "uint256",
                      "name": "ldtLiquidity",
                      "type": "uint256"
                    },
                    {
                      "internalType": "uint256",
                      "name": "tbLiquidity",
                      "type": "uint256"
                    }
                  ],
                  "internalType": "struct RewardsLibrary.Reward",
                  "name": "liquidity",
                  "type": "tuple"
                },
                {
                  "internalType": "uint256",
                  "name": "ldt",
                  "type": "uint256"
                },
                {
                  "internalType": "uint256",
                  "name": "tb",
                  "type": "uint256"
                }
              ],
              "internalType": "struct RewardsLibrary.Farm",
              "name": "tbs",
              "type": "tuple"
            },
            {
              "components": [
                {
                  "components": [
                    {
                      "internalType": "uint256",
                      "name": "ldt",
                      "type": "uint256"
                    },
                    {
                      "internalType": "uint256",
                      "name": "tb",
                      "type": "uint256"
                    },
                    {
                      "internalType": "uint256",
                      "name": "ldtLiquidity",
                      "type": "uint256"
                    },
                    {
                      "internalType": "uint256",
                      "name": "tbLiquidity",
                      "type": "uint256"
                    }
                  ],
                  "internalType": "struct RewardsLibrary.Reward",
                  "name": "liquidity",
                  "type": "tuple"
                },
                {
                  "internalType": "uint256",
                  "name": "ldt",
                  "type": "uint256"
                },
                {
                  "internalType": "uint256",
                  "name": "tb",
                  "type": "uint256"
                }
              ],
              "internalType": "struct RewardsLibrary.Farm",
              "name": "tbg",
              "type": "tuple"
            }
          ],
          "indexed": false,
          "internalType": "struct RewardsLibrary.RewardsAmounts",
          "name": "rewards",
          "type": "tuple"
        }
      ],
      "name": "DistributeStakingRewards",
      "type": "event"
    },
    {
      "anonymous": false,
      "inputs": [
        {
          "components": [
            {
              "internalType": "uint256",
              "name": "ldt",
              "type": "uint256"
            },
            {
              "internalType": "uint256",
              "name": "tbb",
              "type": "uint256"
            },
            {
              "internalType": "uint256",
              "name": "tbs",
              "type": "uint256"
            },
            {
              "internalType": "uint256",
              "name": "tbg",
              "type": "uint256"
            }
          ],
          "indexed": false,
          "internalType": "struct RewardsLibrary.TeamRewardsAmounts",
          "name": "rewards",
          "type": "tuple"
        }
      ],
      "name": "DistributeTeamRewards",
      "type": "event"
    },
    {
      "anonymous": false,
      "inputs": [
        {
          "indexed": true,
          "internalType": "address",
          "name": "previousOwner",
          "type": "address"
        },
        {
          "indexed": true,
          "internalType": "address",
          "name": "newOwner",
          "type": "address"
        }
      ],
      "name": "OwnershipTransferStarted",
      "type": "event"
    },
    {
      "anonymous": false,
      "inputs": [
        {
          "indexed": true,
          "internalType": "address",
          "name": "previousOwner",
          "type": "address"
        },
        {
          "indexed": true,
          "internalType": "address",
          "name": "newOwner",
          "type": "address"
        }
      ],
      "name": "OwnershipTransferred",
      "type": "event"
    },
    {
      "inputs": [],
      "name": "acceptOwnership",
      "outputs": [],
      "stateMutability": "nonpayable",
      "type": "function"
    },
    {
      "inputs": [],
      "name": "approveTokens",
      "outputs": [],
      "stateMutability": "nonpayable",
      "type": "function"
    },
    {
      "inputs": [
        {
          "internalType": "uint256",
          "name": "",
          "type": "uint256"
        }
      ],
      "name": "boosters",
      "outputs": [
        {
          "internalType": "address",
          "name": "",
          "type": "address"
        }
      ],
      "stateMutability": "view",
      "type": "function"
    },
    {
      "inputs": [],
      "name": "boostingSplitter",
      "outputs": [
        {
          "internalType": "address",
          "name": "",
          "type": "address"
        }
      ],
      "stateMutability": "view",
      "type": "function"
    },
    {
      "inputs": [],
      "name": "distributeRewards",
      "outputs": [],
      "stateMutability": "nonpayable",
      "type": "function"
    },
    {
      "inputs": [],
      "name": "distributor",
      "outputs": [
        {
          "internalType": "address",
          "name": "",
          "type": "address"
        }
      ],
      "stateMutability": "view",
      "type": "function"
    },
    {
      "inputs": [],
      "name": "farmSplitter",
      "outputs": [
        {
          "internalType": "address",
          "name": "",
          "type": "address"
        }
      ],
      "stateMutability": "view",
      "type": "function"
    },
    {
      "inputs": [
        {
          "internalType": "uint256",
          "name": "",
          "type": "uint256"
        }
      ],
      "name": "farms",
      "outputs": [
        {
          "internalType": "address",
          "name": "",
          "type": "address"
        }
      ],
      "stateMutability": "view",
      "type": "function"
    },
    {
      "inputs": [],
      "name": "ldt",
      "outputs": [
        {
          "internalType": "address",
          "name": "",
          "type": "address"
        }
      ],
      "stateMutability": "view",
      "type": "function"
    },
    {
      "inputs": [],
      "name": "ldtRewards",
      "outputs": [
        {
          "internalType": "uint8",
          "name": "farming",
          "type": "uint8"
        },
        {
          "internalType": "uint8",
          "name": "staking",
          "type": "uint8"
        },
        {
          "internalType": "uint8",
          "name": "team",
          "type": "uint8"
        },
        {
          "internalType": "uint8",
          "name": "daoFund",
          "type": "uint8"
        },
        {
          "internalType": "uint8",
          "name": "ambassadorIncentive",
          "type": "uint8"
        },
        {
          "internalType": "uint8",
          "name": "greenEnergy",
          "type": "uint8"
        },
        {
          "internalType": "uint8",
          "name": "marketing",
          "type": "uint8"
        }
      ],
      "stateMutability": "view",
      "type": "function"
    },
    {
      "inputs": [],
      "name": "owner",
      "outputs": [
        {
          "internalType": "address",
          "name": "",
          "type": "address"
        }
      ],
      "stateMutability": "view",
      "type": "function"
    },
    {
      "inputs": [],
      "name": "pendingOwner",
      "outputs": [
        {
          "internalType": "address",
          "name": "",
          "type": "address"
        }
      ],
      "stateMutability": "view",
      "type": "function"
    },
    {
      "inputs": [
        {
          "internalType": "address",
          "name": "_address",
          "type": "address"
        }
      ],
      "name": "recoverOwnership",
      "outputs": [],
      "stateMutability": "nonpayable",
      "type": "function"
    },
    {
      "inputs": [],
      "name": "renounceOwnership",
      "outputs": [],
      "stateMutability": "nonpayable",
      "type": "function"
    },
    {
      "inputs": [
        {
          "internalType": "address",
          "name": "_boostingSplitter",
          "type": "address"
        }
      ],
      "name": "setBoostingSplitter",
      "outputs": [],
      "stateMutability": "nonpayable",
      "type": "function"
    },
    {
      "inputs": [
        {
          "internalType": "address",
          "name": "_farmSplitter",
          "type": "address"
        }
      ],
      "name": "setFarmSplitter",
      "outputs": [],
      "stateMutability": "nonpayable",
      "type": "function"
    },
    {
      "inputs": [
        {
          "internalType": "address",
          "name": "_stakingSplitter",
          "type": "address"
        }
      ],
      "name": "setStakingSplitter",
      "outputs": [],
      "stateMutability": "nonpayable",
      "type": "function"
    },
    {
      "inputs": [
        {
          "internalType": "address",
          "name": "_teamSplitter",
          "type": "address"
        }
      ],
      "name": "setTeamSplitter",
      "outputs": [],
      "stateMutability": "nonpayable",
      "type": "function"
    },
    {
      "inputs": [
        {
          "internalType": "uint256",
          "name": "",
          "type": "uint256"
        }
      ],
      "name": "stakers",
      "outputs": [
        {
          "internalType": "address",
          "name": "",
          "type": "address"
        }
      ],
      "stateMutability": "view",
      "type": "function"
    },
    {
      "inputs": [],
      "name": "stakingSplitter",
      "outputs": [
        {
          "internalType": "address",
          "name": "",
          "type": "address"
        }
      ],
      "stateMutability": "view",
      "type": "function"
    },
    {
      "inputs": [],
      "name": "tbRate",
      "outputs": [
        {
          "internalType": "uint8",
          "name": "",
          "type": "uint8"
        }
      ],
      "stateMutability": "view",
      "type": "function"
    },
    {
      "inputs": [],
      "name": "tbRewards",
      "outputs": [
        {
          "internalType": "uint8",
          "name": "farming",
          "type": "uint8"
        },
        {
          "internalType": "uint8",
          "name": "staking",
          "type": "uint8"
        },
        {
          "internalType": "uint8",
          "name": "team",
          "type": "uint8"
        },
        {
          "internalType": "uint8",
          "name": "daoFund",
          "type": "uint8"
        },
        {
          "internalType": "uint8",
          "name": "ambassadorIncentive",
          "type": "uint8"
        },
        {
          "internalType": "uint8",
          "name": "greenEnergy",
          "type": "uint8"
        }
      ],
      "stateMutability": "view",
      "type": "function"
    },
    {
      "inputs": [],
      "name": "tbb",
      "outputs": [
        {
          "internalType": "address",
          "name": "",
          "type": "address"
        }
      ],
      "stateMutability": "view",
      "type": "function"
    },
    {
      "inputs": [],
      "name": "tbg",
      "outputs": [
        {
          "internalType": "address",
          "name": "",
          "type": "address"
        }
      ],
      "stateMutability": "view",
      "type": "function"
    },
    {
      "inputs": [],
      "name": "tbs",
      "outputs": [
        {
          "internalType": "address",
          "name": "",
          "type": "address"
        }
      ],
      "stateMutability": "view",
      "type": "function"
    },
    {
      "inputs": [],
      "name": "teamSplitter",
      "outputs": [
        {
          "internalType": "address",
          "name": "",
          "type": "address"
        }
      ],
      "stateMutability": "view",
      "type": "function"
    },
    {
      "inputs": [],
      "name": "teamVault",
      "outputs": [
        {
          "internalType": "address",
          "name": "",
          "type": "address"
        }
      ],
      "stateMutability": "view",
      "type": "function"
    },
    {
      "inputs": [
        {
          "internalType": "address",
          "name": "newOwner",
          "type": "address"
        }
      ],
      "name": "transferOwnership",
      "outputs": [],
      "stateMutability": "nonpayable",
      "type": "function"
    }
  ],
  "bytecode": "0x60806040526050600e60146101000a81548160ff021916908360ff1602179055506040518060e00160405280601460ff168152602001602860ff168152602001600a60ff168152602001600e60ff168152602001600a60ff168152602001600560ff168152602001600160ff16815250600f60008201518160000160006101000a81548160ff021916908360ff16021790555060208201518160000160016101000a81548160ff021916908360ff16021790555060408201518160000160026101000a81548160ff021916908360ff16021790555060608201518160000160036101000a81548160ff021916908360ff16021790555060808201518160000160046101000a81548160ff021916908360ff16021790555060a08201518160000160056101000a81548160ff021916908360ff16021790555060c08201518160000160066101000a81548160ff021916908360ff16021790555050506040518060c00160405280602860ff168152602001601960ff168152602001600a60ff168152602001600a60ff168152602001600a60ff168152602001600560ff16815250601060008201518160000160006101000a81548160ff021916908360ff16021790555060208201518160000160016101000a81548160ff021916908360ff16021790555060408201518160000160026101000a81548160ff021916908360ff16021790555060608201518160000160036101000a81548160ff021916908360ff16021790555060808201518160000160046101000a81548160ff021916908360ff16021790555060a08201518160000160056101000a81548160ff021916908360ff16021790555050503480156200027657600080fd5b50604051620046503803806200465083398181016040528101906200029c919062000a85565b33600073ffffffffffffffffffffffffffffffffffffffff168173ffffffffffffffffffffffffffffffffffffffff1603620003125760006040517f1e4fbdf700000000000000000000000000000000000000000000000000000000815260040162000309919062000bc2565b60405180910390fd5b62000323816200061660201b60201c565b508a600360006101000a81548173ffffffffffffffffffffffffffffffffffffffff021916908373ffffffffffffffffffffffffffffffffffffffff16021790555089600460006101000a81548173ffffffffffffffffffffffffffffffffffffffff021916908373ffffffffffffffffffffffffffffffffffffffff16021790555088600560006101000a81548173ffffffffffffffffffffffffffffffffffffffff021916908373ffffffffffffffffffffffffffffffffffffffff16021790555087600660006101000a81548173ffffffffffffffffffffffffffffffffffffffff021916908373ffffffffffffffffffffffffffffffffffffffff16021790555086600260006101000a81548173ffffffffffffffffffffffffffffffffffffffff021916908373ffffffffffffffffffffffffffffffffffffffff16021790555085600a60006101000a81548173ffffffffffffffffffffffffffffffffffffffff021916908373ffffffffffffffffffffffffffffffffffffffff16021790555084600b60006101000a81548173ffffffffffffffffffffffffffffffffffffffff021916908373ffffffffffffffffffffffffffffffffffffffff16021790555083600d60006101000a81548173ffffffffffffffffffffffffffffffffffffffff021916908373ffffffffffffffffffffffffffffffffffffffff16021790555082600c60006101000a81548173ffffffffffffffffffffffffffffffffffffffff021916908373ffffffffffffffffffffffffffffffffffffffff16021790555081600e60006101000a81548173ffffffffffffffffffffffffffffffffffffffff021916908373ffffffffffffffffffffffffffffffffffffffff160217905550806000015160079080519060200190620005ca92919062000713565b50806020015160089080519060200190620005e792919062000713565b508060400151600990805190602001906200060492919062000713565b50505050505050505050505062000bdf565b600160006101000a81549073ffffffffffffffffffffffffffffffffffffffff02191690556200064c816200064f60201b60201c565b50565b60008060009054906101000a900473ffffffffffffffffffffffffffffffffffffffff169050816000806101000a81548173ffffffffffffffffffffffffffffffffffffffff021916908373ffffffffffffffffffffffffffffffffffffffff1602179055508173ffffffffffffffffffffffffffffffffffffffff168173ffffffffffffffffffffffffffffffffffffffff167f8be0079c531659141344cd1fd0a4f28419497f9722a3daafe3b4186f6b6457e060405160405180910390a35050565b8280548282559060005260206000209081019282156200078f579160200282015b828111156200078e5782518260006101000a81548173ffffffffffffffffffffffffffffffffffffffff021916908373ffffffffffffffffffffffffffffffffffffffff1602179055509160200191906001019062000734565b5b5090506200079e9190620007a2565b5090565b5b80821115620007bd576000816000905550600101620007a3565b5090565b6000604051905090565b600080fd5b600080fd5b600073ffffffffffffffffffffffffffffffffffffffff82169050919050565b60006200080282620007d5565b9050919050565b6200081481620007f5565b81146200082057600080fd5b50565b600081519050620008348162000809565b92915050565b600080fd5b6000601f19601f8301169050919050565b7f4e487b7100000000000000000000000000000000000000000000000000000000600052604160045260246000fd5b6200088a826200083f565b810181811067ffffffffffffffff82111715620008ac57620008ab62000850565b5b80604052505050565b6000620008c1620007c1565b9050620008cf82826200087f565b919050565b600080fd5b600080fd5b600067ffffffffffffffff821115620008fc57620008fb62000850565b5b602082029050602081019050919050565b600080fd5b6000620009296200092384620008de565b620008b5565b905080838252602082019050602084028301858111156200094f576200094e6200090d565b5b835b818110156200097c578062000967888262000823565b84526020840193505060208101905062000951565b5050509392505050565b600082601f8301126200099e576200099d620008d9565b5b8151620009b084826020860162000912565b91505092915050565b600060608284031215620009d257620009d16200083a565b5b620009de6060620008b5565b9050600082015167ffffffffffffffff81111562000a015762000a00620008d4565b5b62000a0f8482850162000986565b600083015250602082015167ffffffffffffffff81111562000a365762000a35620008d4565b5b62000a448482850162000986565b602083015250604082015167ffffffffffffffff81111562000a6b5762000a6a620008d4565b5b62000a798482850162000986565b60408301525092915050565b60008060008060008060008060008060006101608c8e03121562000aae5762000aad620007cb565b5b600062000abe8e828f0162000823565b9b5050602062000ad18e828f0162000823565b9a5050604062000ae48e828f0162000823565b995050606062000af78e828f0162000823565b985050608062000b0a8e828f0162000823565b97505060a062000b1d8e828f0162000823565b96505060c062000b308e828f0162000823565b95505060e062000b438e828f0162000823565b94505061010062000b578e828f0162000823565b93505061012062000b6b8e828f0162000823565b9250506101408c015167ffffffffffffffff81111562000b905762000b8f620007d0565b5b62000b9e8e828f01620009b9565b9150509295989b509295989b9093969950565b62000bbc81620007f5565b82525050565b600060208201905062000bd9600083018462000bb1565b92915050565b613a618062000bef6000396000f3fe608060405234801561001057600080fd5b50600436106101c45760003560e01c80638ab5212b116100f9578063bfe1092811610097578063e30c397811610071578063e30c397814610482578063f2fde38b146104a0578063fd5e6dd1146104bc578063fd68f223146104ec576101c4565b8063bfe109281461042a578063d525564314610448578063e129200e14610464576101c4565b8063a1a8c312116100d3578063a1a8c312146103a9578063a9ea9db0146103cd578063aed6e306146103f0578063b754ae8a1461040c576101c4565b80638ab5212b1461034f5780638da5cb5b1461036d578063903bf98b1461038b576101c4565b806370cd22ae1161016657806379ba50971161014057806379ba5097146102d95780637da470ea146102e35780637dad91151461031357806389f4b48d14610331576101c4565b806370cd22ae1461028157806371080ec4146102b1578063715018a6146102cf576101c4565b80632c246501116101a25780632c2465011461021f57806332fc28401461023d57806350c2161b146102595780636f4a2cd014610277576101c4565b80630a53c61c146101c95780630b699abe146101e757806315b242a114610203575b600080fd5b6101d16104f6565b6040516101de9190613076565b60405180910390f35b61020160048036038101906101fc91906130cc565b61051c565b005b61021d600480360381019061021891906130cc565b610599565b005b6102276105e5565b6040516102349190613076565b60405180910390f35b610257600480360381019061025291906130cc565b61060b565b005b610261610657565b60405161026e9190613076565b60405180910390f35b61027f61067d565b005b61029b6004803603810190610296919061312f565b612015565b6040516102a89190613076565b60405180910390f35b6102b9612054565b6040516102c69190613178565b60405180910390f35b6102d7612067565b005b6102e161207b565b005b6102fd60048036038101906102f8919061312f565b61210a565b60405161030a9190613076565b60405180910390f35b61031b612149565b6040516103289190613076565b60405180910390f35b61033961216f565b6040516103469190613076565b60405180910390f35b610357612195565b6040516103649190613076565b60405180910390f35b6103756121bb565b6040516103829190613076565b60405180910390f35b6103936121e4565b6040516103a09190613076565b60405180910390f35b6103b161220a565b6040516103c49796959493929190613193565b60405180910390f35b6103d5612295565b6040516103e796959493929190613202565b60405180910390f35b61040a600480360381019061040591906130cc565b61230d565b005b610414612359565b6040516104219190613076565b60405180910390f35b61043261237f565b60405161043f9190613076565b60405180910390f35b610462600480360381019061045d91906130cc565b6123a5565b005b61046c6123f1565b6040516104799190613076565b60405180910390f35b61048a612417565b6040516104979190613076565b60405180910390f35b6104ba60048036038101906104b591906130cc565b612441565b005b6104d660048036038101906104d1919061312f565b6124ee565b6040516104e39190613076565b60405180910390f35b6104f461252d565b005b600c60009054906101000a900473ffffffffffffffffffffffffffffffffffffffff1681565b610524612d9f565b8073ffffffffffffffffffffffffffffffffffffffff1663f2fde38b6105486121bb565b6040518263ffffffff1660e01b81526004016105649190613076565b600060405180830381600087803b15801561057e57600080fd5b505af1158015610592573d6000803e3d6000fd5b5050505050565b6105a1612d9f565b80600b60006101000a81548173ffffffffffffffffffffffffffffffffffffffff021916908373ffffffffffffffffffffffffffffffffffffffff16021790555050565b600460009054906101000a900473ffffffffffffffffffffffffffffffffffffffff1681565b610613612d9f565b80600d60006101000a81548173ffffffffffffffffffffffffffffffffffffffff021916908373ffffffffffffffffffffffffffffffffffffffff16021790555050565b600360009054906101000a900473ffffffffffffffffffffffffffffffffffffffff1681565b610685612d9f565b600260009054906101000a900473ffffffffffffffffffffffffffffffffffffffff1673ffffffffffffffffffffffffffffffffffffffff1663e4fc6b6d6040518163ffffffff1660e01b8152600401600060405180830381600087803b1580156106ef57600080fd5b505af1158015610703573d6000803e3d6000fd5b5050505061070f612fc6565b600360009054906101000a900473ffffffffffffffffffffffffffffffffffffffff1673ffffffffffffffffffffffffffffffffffffffff166370a08231306040518263ffffffff1660e01b815260040161076a9190613076565b602060405180830381865afa158015610787573d6000803e3d6000fd5b505050506040513d601f19601f820116820180604052508101906107ab9190613278565b8160000181815250506064600e60149054906101000a900460ff1660ff1682600001516107d891906132d4565b6107e29190613345565b816040018181525050806040015181600001516107ff9190613376565b8160200181815250506064600f60000160009054906101000a900460ff1660ff16826020015161082f91906132d4565b6108399190613345565b816060015160000181815250506064601060000160009054906101000a900460ff1660ff16826040015161086d91906132d4565b6108779190613345565b8160600151602001818152505060006064600f60000160019054906101000a900460ff1660ff1683602001516108ad91906132d4565b6108b79190613345565b905060006064601060000160019054906101000a900460ff1660ff1684604001516108e291906132d4565b6108ec9190613345565b90506002826108fb9190613345565b836080015160000181815250506002816109159190613345565b83608001516020018181525050826080015160000151826109369190613376565b8360a001516000018181525050826080015160200151816109579190613376565b8360a0015160200181815250506064600f60000160029054906101000a900460ff1660ff16846020015161098b91906132d4565b6109959190613345565b8360c0015160000181815250506064601060000160029054906101000a900460ff1660ff1684604001516109c991906132d4565b6109d39190613345565b8360c0015160200181815250506000600a60009054906101000a900473ffffffffffffffffffffffffffffffffffffffff1673ffffffffffffffffffffffffffffffffffffffff16638dfa43638560600151600001518660600151602001516040518363ffffffff1660e01b8152600401610a4f9291906133b9565b61024060405180830381865afa158015610a6d573d6000803e3d6000fd5b505050506040513d601f19601f82011682018060405250810190610a9191906135b5565b90506000600b60009054906101000a900473ffffffffffffffffffffffffffffffffffffffff1673ffffffffffffffffffffffffffffffffffffffff16638dfa43638660800151600001518760800151602001516040518363ffffffff1660e01b8152600401610b029291906133b9565b61024060405180830381865afa158015610b20573d6000803e3d6000fd5b505050506040513d601f19601f82011682018060405250810190610b4491906135b5565b90506000600d60009054906101000a900473ffffffffffffffffffffffffffffffffffffffff1673ffffffffffffffffffffffffffffffffffffffff16638dfa43638760a00151600001518860a00151602001516040518363ffffffff1660e01b8152600401610bb59291906133b9565b61024060405180830381865afa158015610bd3573d6000803e3d6000fd5b505050506040513d601f19601f82011682018060405250810190610bf791906135b5565b90506000826040015160000151604001518460400151600001516040015184602001516000015160400151866020015160000151604001518660000151600001516040015188600001516000015160400151610c5391906135e3565b610c5d91906135e3565b610c6791906135e3565b610c7191906135e3565b610c7b91906135e3565b905060008360000151600001516060015185600001516000015160600151610ca391906135e3565b905060008460200151600001516060015186602001516000015160600151610ccb91906135e3565b905060008560400151600001516060015187604001516000015160600151610cf391906135e3565b90506000600c60009054906101000a900473ffffffffffffffffffffffffffffffffffffffff1673ffffffffffffffffffffffffffffffffffffffff16636ce35d3b8c60c0015160000151878e60c00151602001518888886040518763ffffffff1660e01b8152600401610d6c96959493929190613617565b608060405180830381865afa158015610d89573d6000803e3d6000fd5b505050506040513d601f19601f82011682018060405250810190610dad91906136f0565b9050600460009054906101000a900473ffffffffffffffffffffffffffffffffffffffff1673ffffffffffffffffffffffffffffffffffffffff166340c10f19308a60000151604001516040518363ffffffff1660e01b8152600401610e1492919061371d565b600060405180830381600087803b158015610e2e57600080fd5b505af1158015610e42573d6000803e3d6000fd5b50505050600560009054906101000a900473ffffffffffffffffffffffffffffffffffffffff1673ffffffffffffffffffffffffffffffffffffffff166340c10f19308a60200151604001516040518363ffffffff1660e01b8152600401610eab92919061371d565b600060405180830381600087803b158015610ec557600080fd5b505af1158015610ed9573d6000803e3d6000fd5b50505050600660009054906101000a900473ffffffffffffffffffffffffffffffffffffffff1673ffffffffffffffffffffffffffffffffffffffff166340c10f19308a60400151604001516040518363ffffffff1660e01b8152600401610f4292919061371d565b600060405180830381600087803b158015610f5c57600080fd5b505af1158015610f70573d6000803e3d6000fd5b505050506007600081548110610f8957610f88613746565b5b9060005260206000200160009054906101000a900473ffffffffffffffffffffffffffffffffffffffff1673ffffffffffffffffffffffffffffffffffffffff1663df6c39fb8960000151602001518a60000151604001516040518363ffffffff1660e01b8152600401610ffe9291906133b9565b600060405180830381600087803b15801561101857600080fd5b505af115801561102c573d6000803e3d6000fd5b50505050600760018154811061104557611044613746565b5b9060005260206000200160009054906101000a900473ffffffffffffffffffffffffffffffffffffffff1673ffffffffffffffffffffffffffffffffffffffff1663df6c39fb8960200151602001518a60200151604001516040518363ffffffff1660e01b81526004016110ba9291906133b9565b600060405180830381600087803b1580156110d457600080fd5b505af11580156110e8573d6000803e3d6000fd5b50505050600760028154811061110157611100613746565b5b9060005260206000200160009054906101000a900473ffffffffffffffffffffffffffffffffffffffff1673ffffffffffffffffffffffffffffffffffffffff1663df6c39fb8960400151602001518a60400151604001516040518363ffffffff1660e01b81526004016111769291906133b9565b600060405180830381600087803b15801561119057600080fd5b505af11580156111a4573d6000803e3d6000fd5b50505050600460009054906101000a900473ffffffffffffffffffffffffffffffffffffffff1673ffffffffffffffffffffffffffffffffffffffff166340c10f19308960000151604001516040518363ffffffff1660e01b815260040161120d92919061371d565b600060405180830381600087803b15801561122757600080fd5b505af115801561123b573d6000803e3d6000fd5b50505050600560009054906101000a900473ffffffffffffffffffffffffffffffffffffffff1673ffffffffffffffffffffffffffffffffffffffff166340c10f19308960200151604001516040518363ffffffff1660e01b81526004016112a492919061371d565b600060405180830381600087803b1580156112be57600080fd5b505af11580156112d2573d6000803e3d6000fd5b50505050600660009054906101000a900473ffffffffffffffffffffffffffffffffffffffff1673ffffffffffffffffffffffffffffffffffffffff166340c10f19308960400151604001516040518363ffffffff1660e01b815260040161133b92919061371d565b600060405180830381600087803b15801561135557600080fd5b505af1158015611369573d6000803e3d6000fd5b50505050600860008154811061138257611381613746565b5b9060005260206000200160009054906101000a900473ffffffffffffffffffffffffffffffffffffffff1673ffffffffffffffffffffffffffffffffffffffff1663df6c39fb8860000151602001518960000151604001516040518363ffffffff1660e01b81526004016113f79291906133b9565b600060405180830381600087803b15801561141157600080fd5b505af1158015611425573d6000803e3d6000fd5b50505050600860018154811061143e5761143d613746565b5b9060005260206000200160009054906101000a900473ffffffffffffffffffffffffffffffffffffffff1673ffffffffffffffffffffffffffffffffffffffff1663df6c39fb8860200151602001518960200151604001516040518363ffffffff1660e01b81526004016114b39291906133b9565b600060405180830381600087803b1580156114cd57600080fd5b505af11580156114e1573d6000803e3d6000fd5b5050505060086002815481106114fa576114f9613746565b5b9060005260206000200160009054906101000a900473ffffffffffffffffffffffffffffffffffffffff1673ffffffffffffffffffffffffffffffffffffffff1663df6c39fb8860400151602001518960400151604001516040518363ffffffff1660e01b815260040161156f9291906133b9565b600060405180830381600087803b15801561158957600080fd5b505af115801561159d573d6000803e3d6000fd5b5050505060008660000151602001511180156115c157506000866000015160400151115b1561171a57600460009054906101000a900473ffffffffffffffffffffffffffffffffffffffff1673ffffffffffffffffffffffffffffffffffffffff166340c10f19308860000151604001516040518363ffffffff1660e01b815260040161162b92919061371d565b600060405180830381600087803b15801561164557600080fd5b505af1158015611659573d6000803e3d6000fd5b50505050600960008154811061167257611671613746565b5b9060005260206000200160009054906101000a900473ffffffffffffffffffffffffffffffffffffffff1673ffffffffffffffffffffffffffffffffffffffff1663df6c39fb8760000151602001518860000151604001516040518363ffffffff1660e01b81526004016116e79291906133b9565b600060405180830381600087803b15801561170157600080fd5b505af1158015611715573d6000803e3d6000fd5b505050505b600086602001516020015111801561173a57506000866020015160400151115b1561189357600560009054906101000a900473ffffffffffffffffffffffffffffffffffffffff1673ffffffffffffffffffffffffffffffffffffffff166340c10f19308860200151604001516040518363ffffffff1660e01b81526004016117a492919061371d565b600060405180830381600087803b1580156117be57600080fd5b505af11580156117d2573d6000803e3d6000fd5b5050505060096001815481106117eb576117ea613746565b5b9060005260206000200160009054906101000a900473ffffffffffffffffffffffffffffffffffffffff1673ffffffffffffffffffffffffffffffffffffffff1663df6c39fb8760200151602001518860200151604001516040518363ffffffff1660e01b81526004016118609291906133b9565b600060405180830381600087803b15801561187a57600080fd5b505af115801561188e573d6000803e3d6000fd5b505050505b60008660400151602001511180156118b357506000866040015160400151115b15611a0c57600660009054906101000a900473ffffffffffffffffffffffffffffffffffffffff1673ffffffffffffffffffffffffffffffffffffffff166340c10f19308860400151604001516040518363ffffffff1660e01b815260040161191d92919061371d565b600060405180830381600087803b15801561193757600080fd5b505af115801561194b573d6000803e3d6000fd5b50505050600960028154811061196457611963613746565b5b9060005260206000200160009054906101000a900473ffffffffffffffffffffffffffffffffffffffff1673ffffffffffffffffffffffffffffffffffffffff1663df6c39fb8760400151602001518860400151604001516040518363ffffffff1660e01b81526004016119d99291906133b9565b600060405180830381600087803b1580156119f357600080fd5b505af1158015611a07573d6000803e3d6000fd5b505050505b600360009054906101000a900473ffffffffffffffffffffffffffffffffffffffff1673ffffffffffffffffffffffffffffffffffffffff1663a9059cbb600e60009054906101000a900473ffffffffffffffffffffffffffffffffffffffff1683600001516040518363ffffffff1660e01b8152600401611a8f92919061371d565b6020604051808303816000875af1158015611aae573d6000803e3d6000fd5b505050506040513d601f19601f82011682018060405250810190611ad291906137ad565b50600460009054906101000a900473ffffffffffffffffffffffffffffffffffffffff1673ffffffffffffffffffffffffffffffffffffffff166340c10f19600e60009054906101000a900473ffffffffffffffffffffffffffffffffffffffff1683602001516040518363ffffffff1660e01b8152600401611b5692919061371d565b600060405180830381600087803b158015611b7057600080fd5b505af1158015611b84573d6000803e3d6000fd5b50505050600560009054906101000a900473ffffffffffffffffffffffffffffffffffffffff1673ffffffffffffffffffffffffffffffffffffffff166340c10f19600e60009054906101000a900473ffffffffffffffffffffffffffffffffffffffff1683604001516040518363ffffffff1660e01b8152600401611c0b92919061371d565b600060405180830381600087803b158015611c2557600080fd5b505af1158015611c39573d6000803e3d6000fd5b50505050600660009054906101000a900473ffffffffffffffffffffffffffffffffffffffff1673ffffffffffffffffffffffffffffffffffffffff166340c10f19600e60009054906101000a900473ffffffffffffffffffffffffffffffffffffffff1683606001516040518363ffffffff1660e01b8152600401611cc092919061371d565b600060405180830381600087803b158015611cda57600080fd5b505af1158015611cee573d6000803e3d6000fd5b505050506000600360009054906101000a900473ffffffffffffffffffffffffffffffffffffffff1673ffffffffffffffffffffffffffffffffffffffff166370a08231306040518263ffffffff1660e01b8152600401611d4f9190613076565b602060405180830381865afa158015611d6c573d6000803e3d6000fd5b505050506040513d601f19601f82011682018060405250810190611d909190613278565b1115611ef557600360009054906101000a900473ffffffffffffffffffffffffffffffffffffffff1673ffffffffffffffffffffffffffffffffffffffff1663a9059cbb600260009054906101000a900473ffffffffffffffffffffffffffffffffffffffff16600360009054906101000a900473ffffffffffffffffffffffffffffffffffffffff1673ffffffffffffffffffffffffffffffffffffffff166370a08231306040518263ffffffff1660e01b8152600401611e529190613076565b602060405180830381865afa158015611e6f573d6000803e3d6000fd5b505050506040513d601f19601f82011682018060405250810190611e939190613278565b6040518363ffffffff1660e01b8152600401611eb092919061371d565b6020604051808303816000875af1158015611ecf573d6000803e3d6000fd5b505050506040513d601f19601f82011682018060405250810190611ef391906137ad565b505b7f0f41298dd61b4fdff224f14a8bde24760d3e18cd4e91a2a072f29d882d17f10888604051611f2491906138c4565b60405180910390a17f686de475d8cf02a731287d163936d70c522d2d4dff8f07048dc5476e251d6f6787604051611f5b91906138c4565b60405180910390a17f4a573778a3a39ae90551df4d0fcd5e5cf0e18fd1f406eaad36df0e6c7b1b286586604051611f9291906138c4565b60405180910390a17f2c6c1fe2cebdc992e4374cc537bd49223d9903f1be112f6d9dd455d1d14210f581604051611fc99190613935565b60405180910390a17f5578432bef88b16bac0877a12038c7d09ab8630c4bbf78e123e67bf6becaf8ad8b6040516120009190613a0f565b60405180910390a15050505050505050505050565b6009818154811061202557600080fd5b906000526020600020016000915054906101000a900473ffffffffffffffffffffffffffffffffffffffff1681565b600e60149054906101000a900460ff1681565b61206f612d9f565b6120796000612e26565b565b6000612085612e57565b90508073ffffffffffffffffffffffffffffffffffffffff166120a6612417565b73ffffffffffffffffffffffffffffffffffffffff16146120fe57806040517f118cdaa70000000000000000000000000000000000000000000000000000000081526004016120f59190613076565b60405180910390fd5b61210781612e26565b50565b6007818154811061211a57600080fd5b906000526020600020016000915054906101000a900473ffffffffffffffffffffffffffffffffffffffff1681565b600660009054906101000a900473ffffffffffffffffffffffffffffffffffffffff1681565b600a60009054906101000a900473ffffffffffffffffffffffffffffffffffffffff1681565b600e60009054906101000a900473ffffffffffffffffffffffffffffffffffffffff1681565b60008060009054906101000a900473ffffffffffffffffffffffffffffffffffffffff16905090565b600560009054906101000a900473ffffffffffffffffffffffffffffffffffffffff1681565b600f8060000160009054906101000a900460ff16908060000160019054906101000a900460ff16908060000160029054906101000a900460ff16908060000160039054906101000a900460ff16908060000160049054906101000a900460ff16908060000160059054906101000a900460ff16908060000160069054906101000a900460ff16905087565b60108060000160009054906101000a900460ff16908060000160019054906101000a900460ff16908060000160029054906101000a900460ff16908060000160039054906101000a900460ff16908060000160049054906101000a900460ff16908060000160059054906101000a900460ff16905086565b612315612d9f565b80600c60006101000a81548173ffffffffffffffffffffffffffffffffffffffff021916908373ffffffffffffffffffffffffffffffffffffffff16021790555050565b600d60009054906101000a900473ffffffffffffffffffffffffffffffffffffffff1681565b600260009054906101000a900473ffffffffffffffffffffffffffffffffffffffff1681565b6123ad612d9f565b80600a60006101000a81548173ffffffffffffffffffffffffffffffffffffffff021916908373ffffffffffffffffffffffffffffffffffffffff16021790555050565b600b60009054906101000a900473ffffffffffffffffffffffffffffffffffffffff1681565b6000600160009054906101000a900473ffffffffffffffffffffffffffffffffffffffff16905090565b612449612d9f565b80600160006101000a81548173ffffffffffffffffffffffffffffffffffffffff021916908373ffffffffffffffffffffffffffffffffffffffff1602179055508073ffffffffffffffffffffffffffffffffffffffff166124a96121bb565b73ffffffffffffffffffffffffffffffffffffffff167f38d16b8cac22d99fc7c124b9cd0de2d3fa1faef420bfe791d8c362d765e2270060405160405180910390a350565b600881815481106124fe57600080fd5b906000526020600020016000915054906101000a900473ffffffffffffffffffffffffffffffffffffffff1681565b61257b600360009054906101000a900473ffffffffffffffffffffffffffffffffffffffff16600460009054906101000a900473ffffffffffffffffffffffffffffffffffffffff16612e5f565b6125c9600360009054906101000a900473ffffffffffffffffffffffffffffffffffffffff16600560009054906101000a900473ffffffffffffffffffffffffffffffffffffffff16612e5f565b612617600360009054906101000a900473ffffffffffffffffffffffffffffffffffffffff16600660009054906101000a900473ffffffffffffffffffffffffffffffffffffffff16612e5f565b612682600360009054906101000a900473ffffffffffffffffffffffffffffffffffffffff16600760008154811061265257612651613746565b5b9060005260206000200160009054906101000a900473ffffffffffffffffffffffffffffffffffffffff16612e5f565b6126ed600460009054906101000a900473ffffffffffffffffffffffffffffffffffffffff1660076000815481106126bd576126bc613746565b5b9060005260206000200160009054906101000a900473ffffffffffffffffffffffffffffffffffffffff16612e5f565b612758600360009054906101000a900473ffffffffffffffffffffffffffffffffffffffff16600860008154811061272857612727613746565b5b9060005260206000200160009054906101000a900473ffffffffffffffffffffffffffffffffffffffff16612e5f565b6127c3600460009054906101000a900473ffffffffffffffffffffffffffffffffffffffff16600860008154811061279357612792613746565b5b9060005260206000200160009054906101000a900473ffffffffffffffffffffffffffffffffffffffff16612e5f565b61282e600360009054906101000a900473ffffffffffffffffffffffffffffffffffffffff1660096000815481106127fe576127fd613746565b5b9060005260206000200160009054906101000a900473ffffffffffffffffffffffffffffffffffffffff16612e5f565b612899600460009054906101000a900473ffffffffffffffffffffffffffffffffffffffff16600960008154811061286957612868613746565b5b9060005260206000200160009054906101000a900473ffffffffffffffffffffffffffffffffffffffff16612e5f565b612904600360009054906101000a900473ffffffffffffffffffffffffffffffffffffffff1660076001815481106128d4576128d3613746565b5b9060005260206000200160009054906101000a900473ffffffffffffffffffffffffffffffffffffffff16612e5f565b61296f600560009054906101000a900473ffffffffffffffffffffffffffffffffffffffff16600760018154811061293f5761293e613746565b5b9060005260206000200160009054906101000a900473ffffffffffffffffffffffffffffffffffffffff16612e5f565b6129da600360009054906101000a900473ffffffffffffffffffffffffffffffffffffffff1660086001815481106129aa576129a9613746565b5b9060005260206000200160009054906101000a900473ffffffffffffffffffffffffffffffffffffffff16612e5f565b612a45600560009054906101000a900473ffffffffffffffffffffffffffffffffffffffff166008600181548110612a1557612a14613746565b5b9060005260206000200160009054906101000a900473ffffffffffffffffffffffffffffffffffffffff16612e5f565b612ab0600360009054906101000a900473ffffffffffffffffffffffffffffffffffffffff166009600181548110612a8057612a7f613746565b5b9060005260206000200160009054906101000a900473ffffffffffffffffffffffffffffffffffffffff16612e5f565b612b1b600560009054906101000a900473ffffffffffffffffffffffffffffffffffffffff166009600181548110612aeb57612aea613746565b5b9060005260206000200160009054906101000a900473ffffffffffffffffffffffffffffffffffffffff16612e5f565b612b86600360009054906101000a900473ffffffffffffffffffffffffffffffffffffffff166007600281548110612b5657612b55613746565b5b9060005260206000200160009054906101000a900473ffffffffffffffffffffffffffffffffffffffff16612e5f565b612bf1600660009054906101000a900473ffffffffffffffffffffffffffffffffffffffff166007600281548110612bc157612bc0613746565b5b9060005260206000200160009054906101000a900473ffffffffffffffffffffffffffffffffffffffff16612e5f565b612c5c600360009054906101000a900473ffffffffffffffffffffffffffffffffffffffff166008600281548110612c2c57612c2b613746565b5b9060005260206000200160009054906101000a900473ffffffffffffffffffffffffffffffffffffffff16612e5f565b612cc7600660009054906101000a900473ffffffffffffffffffffffffffffffffffffffff166008600281548110612c9757612c96613746565b5b9060005260206000200160009054906101000a900473ffffffffffffffffffffffffffffffffffffffff16612e5f565b612d32600360009054906101000a900473ffffffffffffffffffffffffffffffffffffffff166009600281548110612d0257612d01613746565b5b9060005260206000200160009054906101000a900473ffffffffffffffffffffffffffffffffffffffff16612e5f565b612d9d600660009054906101000a900473ffffffffffffffffffffffffffffffffffffffff166009600281548110612d6d57612d6c613746565b5b9060005260206000200160009054906101000a900473ffffffffffffffffffffffffffffffffffffffff16612e5f565b565b612da7612e57565b73ffffffffffffffffffffffffffffffffffffffff16612dc56121bb565b73ffffffffffffffffffffffffffffffffffffffff1614612e2457612de8612e57565b6040517f118cdaa7000000000000000000000000000000000000000000000000000000008152600401612e1b9190613076565b60405180910390fd5b565b600160006101000a81549073ffffffffffffffffffffffffffffffffffffffff0219169055612e5481612f02565b50565b600033905090565b8173ffffffffffffffffffffffffffffffffffffffff1663095ea7b3827fffffffffffffffffffffffffffffffffffffffffffffffffffffffffffffffff6040518363ffffffff1660e01b8152600401612eba92919061371d565b6020604051808303816000875af1158015612ed9573d6000803e3d6000fd5b505050506040513d601f19601f82011682018060405250810190612efd91906137ad565b505050565b60008060009054906101000a900473ffffffffffffffffffffffffffffffffffffffff169050816000806101000a81548173ffffffffffffffffffffffffffffffffffffffff021916908373ffffffffffffffffffffffffffffffffffffffff1602179055508173ffffffffffffffffffffffffffffffffffffffff168173ffffffffffffffffffffffffffffffffffffffff167f8be0079c531659141344cd1fd0a4f28419497f9722a3daafe3b4186f6b6457e060405160405180910390a35050565b6040518060e00160405280600081526020016000815260200160008152602001612fee61301b565b8152602001612ffb61301b565b815260200161300861301b565b815260200161301561301b565b81525090565b604051806040016040528060008152602001600081525090565b600073ffffffffffffffffffffffffffffffffffffffff82169050919050565b600061306082613035565b9050919050565b61307081613055565b82525050565b600060208201905061308b6000830184613067565b92915050565b6000604051905090565b600080fd5b6130a981613055565b81146130b457600080fd5b50565b6000813590506130c6816130a0565b92915050565b6000602082840312156130e2576130e161309b565b5b60006130f0848285016130b7565b91505092915050565b6000819050919050565b61310c816130f9565b811461311757600080fd5b50565b60008135905061312981613103565b92915050565b6000602082840312156131455761314461309b565b5b60006131538482850161311a565b91505092915050565b600060ff82169050919050565b6131728161315c565b82525050565b600060208201905061318d6000830184613169565b92915050565b600060e0820190506131a8600083018a613169565b6131b56020830189613169565b6131c26040830188613169565b6131cf6060830187613169565b6131dc6080830186613169565b6131e960a0830185613169565b6131f660c0830184613169565b98975050505050505050565b600060c0820190506132176000830189613169565b6132246020830188613169565b6132316040830187613169565b61323e6060830186613169565b61324b6080830185613169565b61325860a0830184613169565b979650505050505050565b60008151905061327281613103565b92915050565b60006020828403121561328e5761328d61309b565b5b600061329c84828501613263565b91505092915050565b7f4e487b7100000000000000000000000000000000000000000000000000000000600052601160045260246000fd5b60006132df826130f9565b91506132ea836130f9565b92508282026132f8816130f9565b9150828204841483151761330f5761330e6132a5565b5b5092915050565b7f4e487b7100000000000000000000000000000000000000000000000000000000600052601260045260246000fd5b6000613350826130f9565b915061335b836130f9565b92508261336b5761336a613316565b5b828204905092915050565b6000613381826130f9565b915061338c836130f9565b92508282039050818111156133a4576133a36132a5565b5b92915050565b6133b3816130f9565b82525050565b60006040820190506133ce60008301856133aa565b6133db60208301846133aa565b9392505050565b600080fd5b6000601f19601f8301169050919050565b7f4e487b7100000000000000000000000000000000000000000000000000000000600052604160045260246000fd5b613430826133e7565b810181811067ffffffffffffffff8211171561344f5761344e6133f8565b5b80604052505050565b6000613462613091565b905061346e8282613427565b919050565b600060808284031215613489576134886133e2565b5b6134936080613458565b905060006134a384828501613263565b60008301525060206134b784828501613263565b60208301525060406134cb84828501613263565b60408301525060606134df84828501613263565b60608301525092915050565b600060c08284031215613501576135006133e2565b5b61350b6060613458565b9050600061351b84828501613473565b600083015250608061352f84828501613263565b60208301525060a061354384828501613263565b60408301525092915050565b60006102408284031215613566576135656133e2565b5b6135706060613458565b90506000613580848285016134eb565b60008301525060c0613594848285016134eb565b6020830152506101806135a9848285016134eb565b60408301525092915050565b600061024082840312156135cc576135cb61309b565b5b60006135da8482850161354f565b91505092915050565b60006135ee826130f9565b91506135f9836130f9565b9250828201905080821115613611576136106132a5565b5b92915050565b600060c08201905061362c60008301896133aa565b61363960208301886133aa565b61364660408301876133aa565b61365360608301866133aa565b61366060808301856133aa565b61366d60a08301846133aa565b979650505050505050565b60006080828403121561368e5761368d6133e2565b5b6136986080613458565b905060006136a884828501613263565b60008301525060206136bc84828501613263565b60208301525060406136d084828501613263565b60408301525060606136e484828501613263565b60608301525092915050565b6000608082840312156137065761370561309b565b5b600061371484828501613678565b91505092915050565b60006040820190506137326000830185613067565b61373f60208301846133aa565b9392505050565b7f4e487b7100000000000000000000000000000000000000000000000000000000600052603260045260246000fd5b60008115159050919050565b61378a81613775565b811461379557600080fd5b50565b6000815190506137a781613781565b92915050565b6000602082840312156137c3576137c261309b565b5b60006137d184828501613798565b91505092915050565b6137e3816130f9565b82525050565b6080820160008201516137ff60008501826137da565b50602082015161381260208501826137da565b50604082015161382560408501826137da565b50606082015161383860608501826137da565b50505050565b60c08201600082015161385460008501826137e9565b50602082015161386760808501826137da565b50604082015161387a60a08501826137da565b50505050565b61024082016000820151613897600085018261383e565b5060208201516138aa60c085018261383e565b5060408201516138be61018085018261383e565b50505050565b6000610240820190506138da6000830184613880565b92915050565b6080820160008201516138f660008501826137da565b50602082015161390960208501826137da565b50604082015161391c60408501826137da565b50606082015161392f60608501826137da565b50505050565b600060808201905061394a60008301846138e0565b92915050565b60408201600082015161396660008501826137da565b50602082015161397960208501826137da565b50505050565b6101608201600082015161399660008501826137da565b5060208201516139a960208501826137da565b5060408201516139bc60408501826137da565b5060608201516139cf6060850182613950565b5060808201516139e260a0850182613950565b5060a08201516139f560e0850182613950565b5060c0820151613a09610120850182613950565b50505050565b600061016082019050613a25600083018461397f565b9291505056fea2646970667358221220f5909e9b6b1cf5c07b9ad33de08596da8b97310393a924b892e0f2d4cf85d5c664736f6c63430008180033",
  "linkReferences": {},
  "deployedLinkReferences": {}
}