{
  "_format": "hh-sol-artifact-1",
  "contractName": "TeamSplitter",
  "sourceName": "contracts/TeamSplitter.sol",
  "abi": [
    {
      "inputs": [
        {
          "internalType": "address",
          "name": "_tbb",
          "type": "address"
        },
        {
          "internalType": "address",
          "name": "_tbs",
          "type": "address"
        },
        {
          "internalType": "address",
          "name": "_tbg",
          "type": "address"
        }
      ],
      "stateMutability": "nonpayable",
      "type": "constructor"
    },
    {
      "inputs": [
        {
          "internalType": "address",
          "name": "owner",
          "type": "address"
        }
      ],
      "name": "OwnableInvalidOwner",
      "type": "error"
    },
    {
      "inputs": [
        {
          "internalType": "address",
          "name": "account",
          "type": "address"
        }
      ],
      "name": "OwnableUnauthorizedAccount",
      "type": "error"
    },
    {
      "anonymous": false,
      "inputs": [
        {
          "indexed": true,
          "internalType": "address",
          "name": "previousOwner",
          "type": "address"
        },
        {
          "indexed": true,
          "internalType": "address",
          "name": "newOwner",
          "type": "address"
        }
      ],
      "name": "OwnershipTransferStarted",
      "type": "event"
    },
    {
      "anonymous": false,
      "inputs": [
        {
          "indexed": true,
          "internalType": "address",
          "name": "previousOwner",
          "type": "address"
        },
        {
          "indexed": true,
          "internalType": "address",
          "name": "newOwner",
          "type": "address"
        }
      ],
      "name": "OwnershipTransferred",
      "type": "event"
    },
    {
      "inputs": [],
      "name": "MAX_RATE",
      "outputs": [
        {
          "internalType": "uint256",
          "name": "",
          "type": "uint256"
        }
      ],
      "stateMutability": "view",
      "type": "function"
    },
    {
      "inputs": [],
      "name": "MIN_RATE",
      "outputs": [
        {
          "internalType": "uint256",
          "name": "",
          "type": "uint256"
        }
      ],
      "stateMutability": "view",
      "type": "function"
    },
    {
      "inputs": [],
      "name": "acceptOwnership",
      "outputs": [],
      "stateMutability": "nonpayable",
      "type": "function"
    },
    {
      "inputs": [
        {
          "internalType": "uint256",
          "name": "_ldt",
          "type": "uint256"
        },
        {
          "internalType": "uint256",
          "name": "_ldtLiquidity",
          "type": "uint256"
        },
        {
          "internalType": "uint256",
          "name": "_tb",
          "type": "uint256"
        },
        {
          "internalType": "uint256",
          "name": "_tbbLiquidity",
          "type": "uint256"
        },
        {
          "internalType": "uint256",
          "name": "_tbsLiquidity",
          "type": "uint256"
        },
        {
          "internalType": "uint256",
          "name": "_tbgLiquidity",
          "type": "uint256"
        }
      ],
      "name": "calculate",
      "outputs": [
        {
          "components": [
            {
              "internalType": "uint256",
              "name": "ldt",
              "type": "uint256"
            },
            {
              "internalType": "uint256",
              "name": "tbb",
              "type": "uint256"
            },
            {
              "internalType": "uint256",
              "name": "tbs",
              "type": "uint256"
            },
            {
              "internalType": "uint256",
              "name": "tbg",
              "type": "uint256"
            }
          ],
          "internalType": "struct RewardsLibrary.TeamRewardsAmounts",
          "name": "rewards",
          "type": "tuple"
        }
      ],
      "stateMutability": "nonpayable",
      "type": "function"
    },
    {
      "inputs": [],
      "name": "owner",
      "outputs": [
        {
          "internalType": "address",
          "name": "",
          "type": "address"
        }
      ],
      "stateMutability": "view",
      "type": "function"
    },
    {
      "inputs": [],
      "name": "pendingOwner",
      "outputs": [
        {
          "internalType": "address",
          "name": "",
          "type": "address"
        }
      ],
      "stateMutability": "view",
      "type": "function"
    },
    {
      "inputs": [],
      "name": "renounceOwnership",
      "outputs": [],
      "stateMutability": "nonpayable",
      "type": "function"
    },
    {
      "inputs": [],
      "name": "rewardRate",
      "outputs": [
        {
          "internalType": "uint256",
          "name": "ldt",
          "type": "uint256"
        },
        {
          "internalType": "uint256",
          "name": "tb",
          "type": "uint256"
        }
      ],
      "stateMutability": "view",
      "type": "function"
    },
    {
      "inputs": [
        {
          "components": [
            {
              "internalType": "uint256",
              "name": "ldt",
              "type": "uint256"
            },
            {
              "internalType": "uint256",
              "name": "tb",
              "type": "uint256"
            }
          ],
          "internalType": "struct RewardsLibrary.RewardRate",
          "name": "_rewardRate",
          "type": "tuple"
        }
      ],
      "name": "setRewardRate",
      "outputs": [],
      "stateMutability": "nonpayable",
      "type": "function"
    },
    {
      "inputs": [],
      "name": "tbb",
      "outputs": [
        {
          "internalType": "address",
          "name": "",
          "type": "address"
        }
      ],
      "stateMutability": "view",
      "type": "function"
    },
    {
      "inputs": [],
      "name": "tbg",
      "outputs": [
        {
          "internalType": "address",
          "name": "",
          "type": "address"
        }
      ],
      "stateMutability": "view",
      "type": "function"
    },
    {
      "inputs": [],
      "name": "tbs",
      "outputs": [
        {
          "internalType": "address",
          "name": "",
          "type": "address"
        }
      ],
      "stateMutability": "view",
      "type": "function"
    },
    {
      "inputs": [
        {
          "internalType": "address",
          "name": "newOwner",
          "type": "address"
        }
      ],
      "name": "transferOwnership",
      "outputs": [],
      "stateMutability": "nonpayable",
      "type": "function"
    }
  ],
  "bytecode": "0x608060405260405180604001604052806103e881526020016103e88152506005600082015181600001556020820151816001015550503480156200004257600080fd5b506040516200145238038062001452833981810160405281019062000068919062000323565b33600073ffffffffffffffffffffffffffffffffffffffff168173ffffffffffffffffffffffffffffffffffffffff1603620000de5760006040517f1e4fbdf7000000000000000000000000000000000000000000000000000000008152600401620000d5919062000390565b60405180910390fd5b620000ef81620001bc60201b60201c565b5082600260006101000a81548173ffffffffffffffffffffffffffffffffffffffff021916908373ffffffffffffffffffffffffffffffffffffffff16021790555081600360006101000a81548173ffffffffffffffffffffffffffffffffffffffff021916908373ffffffffffffffffffffffffffffffffffffffff16021790555080600460006101000a81548173ffffffffffffffffffffffffffffffffffffffff021916908373ffffffffffffffffffffffffffffffffffffffff160217905550505050620003ad565b600160006101000a81549073ffffffffffffffffffffffffffffffffffffffff0219169055620001f281620001f560201b60201c565b50565b60008060009054906101000a900473ffffffffffffffffffffffffffffffffffffffff169050816000806101000a81548173ffffffffffffffffffffffffffffffffffffffff021916908373ffffffffffffffffffffffffffffffffffffffff1602179055508173ffffffffffffffffffffffffffffffffffffffff168173ffffffffffffffffffffffffffffffffffffffff167f8be0079c531659141344cd1fd0a4f28419497f9722a3daafe3b4186f6b6457e060405160405180910390a35050565b600080fd5b600073ffffffffffffffffffffffffffffffffffffffff82169050919050565b6000620002eb82620002be565b9050919050565b620002fd81620002de565b81146200030957600080fd5b50565b6000815190506200031d81620002f2565b92915050565b6000806000606084860312156200033f576200033e620002b9565b5b60006200034f868287016200030c565b935050602062000362868287016200030c565b925050604062000375868287016200030c565b9150509250925092565b6200038a81620002de565b82525050565b6000602082019050620003a760008301846200037f565b92915050565b61109580620003bd6000396000f3fe608060405234801561001057600080fd5b50600436106100cf5760003560e01c80638da5cb5b1161008c578063d819bfef11610066578063d819bfef146101cd578063debfb961146101eb578063e30c397814610207578063f2fde38b14610225576100cf565b80638da5cb5b14610173578063903bf98b14610191578063c24dbebd146101af576100cf565b80632c246501146100d45780636ce35d3b146100f2578063715018a61461012257806379ba50971461012c5780637b0a47ee146101365780637dad911514610155575b600080fd5b6100dc610241565b6040516100e99190610bf2565b60405180910390f35b61010c60048036038101906101079190610c52565b610267565b6040516101199190610d43565b60405180910390f35b61012a6107d3565b005b6101346107e7565b005b61013e610876565b60405161014c929190610d6d565b60405180910390f35b61015d610888565b60405161016a9190610bf2565b60405180910390f35b61017b6108ae565b6040516101889190610bf2565b60405180910390f35b6101996108d7565b6040516101a69190610bf2565b60405180910390f35b6101b76108fd565b6040516101c49190610d96565b60405180910390f35b6101d5610904565b6040516101e29190610d96565b60405180910390f35b61020560048036038101906102009190610e92565b610909565b005b61020f61092e565b60405161021c9190610bf2565b60405180910390f35b61023f600480360381019061023a9190610eeb565b610958565b005b600260009054906101000a900473ffffffffffffffffffffffffffffffffffffffff1681565b61026f610b89565b600060646014876102809190610f47565b61028a9190610fb8565b905060006064601e8861029d9190610f47565b6102a79190610fb8565b905060008183896102b89190610fe9565b6102c29190610fe9565b90506000620186a06005600001548b6102db9190610f47565b6102e59190610fb8565b90508a8110156102fe5780856000018181525050610309565b8a8560000181815250505b600260009054906101000a900473ffffffffffffffffffffffffffffffffffffffff1673ffffffffffffffffffffffffffffffffffffffff16632c4e722e6040518163ffffffff1660e01b8152600401602060405180830381865afa158015610376573d6000803e3d6000fd5b505050506040513d601f19601f8201168201806040525081019061039a9190611032565b846103a59190610fb8565b620186a06005600101548a6103ba9190610f47565b6103c49190610fb8565b111561047457600260009054906101000a900473ffffffffffffffffffffffffffffffffffffffff1673ffffffffffffffffffffffffffffffffffffffff16632c4e722e6040518163ffffffff1660e01b8152600401602060405180830381865afa158015610437573d6000803e3d6000fd5b505050506040513d601f19601f8201168201806040525081019061045b9190611032565b846104669190610fb8565b85602001818152505061049d565b620186a0600560010154896104899190610f47565b6104939190610fb8565b8560200181815250505b600360009054906101000a900473ffffffffffffffffffffffffffffffffffffffff1673ffffffffffffffffffffffffffffffffffffffff16632c4e722e6040518163ffffffff1660e01b8152600401602060405180830381865afa15801561050a573d6000803e3d6000fd5b505050506040513d601f19601f8201168201806040525081019061052e9190611032565b836105399190610fb8565b620186a06005600101548961054e9190610f47565b6105589190610fb8565b111561060857600360009054906101000a900473ffffffffffffffffffffffffffffffffffffffff1673ffffffffffffffffffffffffffffffffffffffff16632c4e722e6040518163ffffffff1660e01b8152600401602060405180830381865afa1580156105cb573d6000803e3d6000fd5b505050506040513d601f19601f820116820180604052508101906105ef9190611032565b836105fa9190610fb8565b856040018181525050610631565b620186a06005600101548861061d9190610f47565b6106279190610fb8565b8560400181815250505b600460009054906101000a900473ffffffffffffffffffffffffffffffffffffffff1673ffffffffffffffffffffffffffffffffffffffff16632c4e722e6040518163ffffffff1660e01b8152600401602060405180830381865afa15801561069e573d6000803e3d6000fd5b505050506040513d601f19601f820116820180604052508101906106c29190611032565b826106cd9190610fb8565b620186a0600560010154886106e29190610f47565b6106ec9190610fb8565b111561079c57600460009054906101000a900473ffffffffffffffffffffffffffffffffffffffff1673ffffffffffffffffffffffffffffffffffffffff16632c4e722e6040518163ffffffff1660e01b8152600401602060405180830381865afa15801561075f573d6000803e3d6000fd5b505050506040513d601f19601f820116820180604052508101906107839190611032565b8261078e9190610fb8565b8560600181815250506107c5565b620186a0600560010154876107b19190610f47565b6107bb9190610fb8565b8560600181815250505b505050509695505050505050565b6107db610a05565b6107e56000610a8c565b565b60006107f1610abd565b90508073ffffffffffffffffffffffffffffffffffffffff1661081261092e565b73ffffffffffffffffffffffffffffffffffffffff161461086a57806040517f118cdaa70000000000000000000000000000000000000000000000000000000081526004016108619190610bf2565b60405180910390fd5b61087381610a8c565b50565b60058060000154908060010154905082565b600460009054906101000a900473ffffffffffffffffffffffffffffffffffffffff1681565b60008060009054906101000a900473ffffffffffffffffffffffffffffffffffffffff16905090565b600360009054906101000a900473ffffffffffffffffffffffffffffffffffffffff1681565b620186a081565b600181565b610911610a05565b806005600082015181600001556020820151816001015590505050565b6000600160009054906101000a900473ffffffffffffffffffffffffffffffffffffffff16905090565b610960610a05565b80600160006101000a81548173ffffffffffffffffffffffffffffffffffffffff021916908373ffffffffffffffffffffffffffffffffffffffff1602179055508073ffffffffffffffffffffffffffffffffffffffff166109c06108ae565b73ffffffffffffffffffffffffffffffffffffffff167f38d16b8cac22d99fc7c124b9cd0de2d3fa1faef420bfe791d8c362d765e2270060405160405180910390a350565b610a0d610abd565b73ffffffffffffffffffffffffffffffffffffffff16610a2b6108ae565b73ffffffffffffffffffffffffffffffffffffffff1614610a8a57610a4e610abd565b6040517f118cdaa7000000000000000000000000000000000000000000000000000000008152600401610a819190610bf2565b60405180910390fd5b565b600160006101000a81549073ffffffffffffffffffffffffffffffffffffffff0219169055610aba81610ac5565b50565b600033905090565b60008060009054906101000a900473ffffffffffffffffffffffffffffffffffffffff169050816000806101000a81548173ffffffffffffffffffffffffffffffffffffffff021916908373ffffffffffffffffffffffffffffffffffffffff1602179055508173ffffffffffffffffffffffffffffffffffffffff168173ffffffffffffffffffffffffffffffffffffffff167f8be0079c531659141344cd1fd0a4f28419497f9722a3daafe3b4186f6b6457e060405160405180910390a35050565b6040518060800160405280600081526020016000815260200160008152602001600081525090565b600073ffffffffffffffffffffffffffffffffffffffff82169050919050565b6000610bdc82610bb1565b9050919050565b610bec81610bd1565b82525050565b6000602082019050610c076000830184610be3565b92915050565b6000604051905090565b600080fd5b6000819050919050565b610c2f81610c1c565b8114610c3a57600080fd5b50565b600081359050610c4c81610c26565b92915050565b60008060008060008060c08789031215610c6f57610c6e610c17565b5b6000610c7d89828a01610c3d565b9650506020610c8e89828a01610c3d565b9550506040610c9f89828a01610c3d565b9450506060610cb089828a01610c3d565b9350506080610cc189828a01610c3d565b92505060a0610cd289828a01610c3d565b9150509295509295509295565b610ce881610c1c565b82525050565b608082016000820151610d046000850182610cdf565b506020820151610d176020850182610cdf565b506040820151610d2a6040850182610cdf565b506060820151610d3d6060850182610cdf565b50505050565b6000608082019050610d586000830184610cee565b92915050565b610d6781610c1c565b82525050565b6000604082019050610d826000830185610d5e565b610d8f6020830184610d5e565b9392505050565b6000602082019050610dab6000830184610d5e565b92915050565b600080fd5b6000601f19601f8301169050919050565b7f4e487b7100000000000000000000000000000000000000000000000000000000600052604160045260246000fd5b610dff82610db6565b810181811067ffffffffffffffff82111715610e1e57610e1d610dc7565b5b80604052505050565b6000610e31610c0d565b9050610e3d8282610df6565b919050565b600060408284031215610e5857610e57610db1565b5b610e626040610e27565b90506000610e7284828501610c3d565b6000830152506020610e8684828501610c3d565b60208301525092915050565b600060408284031215610ea857610ea7610c17565b5b6000610eb684828501610e42565b91505092915050565b610ec881610bd1565b8114610ed357600080fd5b50565b600081359050610ee581610ebf565b92915050565b600060208284031215610f0157610f00610c17565b5b6000610f0f84828501610ed6565b91505092915050565b7f4e487b7100000000000000000000000000000000000000000000000000000000600052601160045260246000fd5b6000610f5282610c1c565b9150610f5d83610c1c565b9250828202610f6b81610c1c565b91508282048414831517610f8257610f81610f18565b5b5092915050565b7f4e487b7100000000000000000000000000000000000000000000000000000000600052601260045260246000fd5b6000610fc382610c1c565b9150610fce83610c1c565b925082610fde57610fdd610f89565b5b828204905092915050565b6000610ff482610c1c565b9150610fff83610c1c565b925082820390508181111561101757611016610f18565b5b92915050565b60008151905061102c81610c26565b92915050565b60006020828403121561104857611047610c17565b5b60006110568482850161101d565b9150509291505056fea2646970667358221220952a9193e176eb30ad173fb1fd04994fd30d4c7b4356da8be2b5d4ab08aba9fe64736f6c63430008180033",
  "linkReferences": {},
  "deployedLinkReferences": {}
}