{
  "_format": "hh-sol-artifact-1",
  "contractName": "TeamSplitter",
  "sourceName": "contracts/TeamSplitter.sol",
  "abi": [
    {
      "inputs": [
        {
          "internalType": "address",
          "name": "_tbb",
          "type": "address"
        },
        {
          "internalType": "address",
          "name": "_tbs",
          "type": "address"
        },
        {
          "internalType": "address",
          "name": "_tbg",
          "type": "address"
        }
      ],
      "stateMutability": "nonpayable",
      "type": "constructor"
    },
    {
      "inputs": [
        {
          "internalType": "address",
          "name": "owner",
          "type": "address"
        }
      ],
      "name": "OwnableInvalidOwner",
      "type": "error"
    },
    {
      "inputs": [
        {
          "internalType": "address",
          "name": "account",
          "type": "address"
        }
      ],
      "name": "OwnableUnauthorizedAccount",
      "type": "error"
    },
    {
      "anonymous": false,
      "inputs": [
        {
          "indexed": true,
          "internalType": "address",
          "name": "previousOwner",
          "type": "address"
        },
        {
          "indexed": true,
          "internalType": "address",
          "name": "newOwner",
          "type": "address"
        }
      ],
      "name": "OwnershipTransferStarted",
      "type": "event"
    },
    {
      "anonymous": false,
      "inputs": [
        {
          "indexed": true,
          "internalType": "address",
          "name": "previousOwner",
          "type": "address"
        },
        {
          "indexed": true,
          "internalType": "address",
          "name": "newOwner",
          "type": "address"
        }
      ],
      "name": "OwnershipTransferred",
      "type": "event"
    },
    {
      "inputs": [],
      "name": "MAX_RATE",
      "outputs": [
        {
          "internalType": "uint256",
          "name": "",
          "type": "uint256"
        }
      ],
      "stateMutability": "view",
      "type": "function"
    },
    {
      "inputs": [],
      "name": "MIN_RATE",
      "outputs": [
        {
          "internalType": "uint256",
          "name": "",
          "type": "uint256"
        }
      ],
      "stateMutability": "view",
      "type": "function"
    },
    {
      "inputs": [],
      "name": "acceptOwnership",
      "outputs": [],
      "stateMutability": "nonpayable",
      "type": "function"
    },
    {
      "inputs": [
        {
          "internalType": "uint256",
          "name": "_ldt",
          "type": "uint256"
        },
        {
          "internalType": "uint256",
          "name": "_ldtLiquidity",
          "type": "uint256"
        },
        {
          "internalType": "uint256",
          "name": "_tb",
          "type": "uint256"
        },
        {
          "internalType": "uint256",
          "name": "_tbbLiquidity",
          "type": "uint256"
        },
        {
          "internalType": "uint256",
          "name": "_tbsLiquidity",
          "type": "uint256"
        },
        {
          "internalType": "uint256",
          "name": "_tbgLiquidity",
          "type": "uint256"
        }
      ],
      "name": "calculate",
      "outputs": [
        {
          "components": [
            {
              "internalType": "uint256",
              "name": "ldt",
              "type": "uint256"
            },
            {
              "internalType": "uint256",
              "name": "tbb",
              "type": "uint256"
            },
            {
              "internalType": "uint256",
              "name": "tbs",
              "type": "uint256"
            },
            {
              "internalType": "uint256",
              "name": "tbg",
              "type": "uint256"
            }
          ],
          "internalType": "struct RewardsLibrary.TeamRewardsAmounts",
          "name": "rewards",
          "type": "tuple"
        }
      ],
      "stateMutability": "nonpayable",
      "type": "function"
    },
    {
      "inputs": [],
      "name": "owner",
      "outputs": [
        {
          "internalType": "address",
          "name": "",
          "type": "address"
        }
      ],
      "stateMutability": "view",
      "type": "function"
    },
    {
      "inputs": [],
      "name": "pendingOwner",
      "outputs": [
        {
          "internalType": "address",
          "name": "",
          "type": "address"
        }
      ],
      "stateMutability": "view",
      "type": "function"
    },
    {
      "inputs": [],
      "name": "renounceOwnership",
      "outputs": [],
      "stateMutability": "nonpayable",
      "type": "function"
    },
    {
      "inputs": [],
      "name": "rewardRate",
      "outputs": [
        {
          "internalType": "uint256",
          "name": "ldt",
          "type": "uint256"
        },
        {
          "internalType": "uint256",
          "name": "tb",
          "type": "uint256"
        }
      ],
      "stateMutability": "view",
      "type": "function"
    },
    {
      "inputs": [
        {
          "components": [
            {
              "internalType": "uint256",
              "name": "ldt",
              "type": "uint256"
            },
            {
              "internalType": "uint256",
              "name": "tb",
              "type": "uint256"
            }
          ],
          "internalType": "struct RewardsLibrary.RewardRate",
          "name": "_rewardRate",
          "type": "tuple"
        }
      ],
      "name": "setRewardRate",
      "outputs": [],
      "stateMutability": "nonpayable",
      "type": "function"
    },
    {
      "inputs": [],
      "name": "tbb",
      "outputs": [
        {
          "internalType": "address",
          "name": "",
          "type": "address"
        }
      ],
      "stateMutability": "view",
      "type": "function"
    },
    {
      "inputs": [],
      "name": "tbg",
      "outputs": [
        {
          "internalType": "address",
          "name": "",
          "type": "address"
        }
      ],
      "stateMutability": "view",
      "type": "function"
    },
    {
      "inputs": [],
      "name": "tbs",
      "outputs": [
        {
          "internalType": "address",
          "name": "",
          "type": "address"
        }
      ],
      "stateMutability": "view",
      "type": "function"
    },
    {
      "inputs": [
        {
          "internalType": "address",
          "name": "newOwner",
          "type": "address"
        }
      ],
      "name": "transferOwnership",
      "outputs": [],
      "stateMutability": "nonpayable",
      "type": "function"
    }
  ],
  "bytecode": "0x608060405260405180604001604052806103e881526020016103e88152506005600082015181600001556020820151816001015550503480156200004257600080fd5b506040516200145e3803806200145e833981810160405281019062000068919062000323565b33600073ffffffffffffffffffffffffffffffffffffffff168173ffffffffffffffffffffffffffffffffffffffff1603620000de5760006040517f1e4fbdf7000000000000000000000000000000000000000000000000000000008152600401620000d5919062000390565b60405180910390fd5b620000ef81620001bc60201b60201c565b5082600260006101000a81548173ffffffffffffffffffffffffffffffffffffffff021916908373ffffffffffffffffffffffffffffffffffffffff16021790555081600360006101000a81548173ffffffffffffffffffffffffffffffffffffffff021916908373ffffffffffffffffffffffffffffffffffffffff16021790555080600460006101000a81548173ffffffffffffffffffffffffffffffffffffffff021916908373ffffffffffffffffffffffffffffffffffffffff160217905550505050620003ad565b600160006101000a81549073ffffffffffffffffffffffffffffffffffffffff0219169055620001f281620001f560201b60201c565b50565b60008060009054906101000a900473ffffffffffffffffffffffffffffffffffffffff169050816000806101000a81548173ffffffffffffffffffffffffffffffffffffffff021916908373ffffffffffffffffffffffffffffffffffffffff1602179055508173ffffffffffffffffffffffffffffffffffffffff168173ffffffffffffffffffffffffffffffffffffffff167f8be0079c531659141344cd1fd0a4f28419497f9722a3daafe3b4186f6b6457e060405160405180910390a35050565b600080fd5b600073ffffffffffffffffffffffffffffffffffffffff82169050919050565b6000620002eb82620002be565b9050919050565b620002fd81620002de565b81146200030957600080fd5b50565b6000815190506200031d81620002f2565b92915050565b6000806000606084860312156200033f576200033e620002b9565b5b60006200034f868287016200030c565b935050602062000362868287016200030c565b925050604062000375868287016200030c565b9150509250925092565b6200038a81620002de565b82525050565b6000602082019050620003a760008301846200037f565b92915050565b6110a180620003bd6000396000f3fe608060405234801561001057600080fd5b50600436106100cf5760003560e01c80638da5cb5b1161008c578063d819bfef11610066578063d819bfef146101cd578063debfb961146101eb578063e30c397814610207578063f2fde38b14610225576100cf565b80638da5cb5b14610173578063903bf98b14610191578063c24dbebd146101af576100cf565b80632c246501146100d45780636ce35d3b146100f2578063715018a61461012257806379ba50971461012c5780637b0a47ee146101365780637dad911514610155575b600080fd5b6100dc610241565b6040516100e99190610bfe565b60405180910390f35b61010c60048036038101906101079190610c5e565b610267565b6040516101199190610d4f565b60405180910390f35b61012a6107df565b005b6101346107f3565b005b61013e610882565b60405161014c929190610d79565b60405180910390f35b61015d610894565b60405161016a9190610bfe565b60405180910390f35b61017b6108ba565b6040516101889190610bfe565b60405180910390f35b6101996108e3565b6040516101a69190610bfe565b60405180910390f35b6101b7610909565b6040516101c49190610da2565b60405180910390f35b6101d5610910565b6040516101e29190610da2565b60405180910390f35b61020560048036038101906102009190610e9e565b610915565b005b61020f61093a565b60405161021c9190610bfe565b60405180910390f35b61023f600480360381019061023a9190610ef7565b610964565b005b600260009054906101000a900473ffffffffffffffffffffffffffffffffffffffff1681565b61026f610b95565b600060646014876102809190610f53565b61028a9190610fc4565b905060006064601e8861029d9190610f53565b6102a79190610fc4565b905060008183896102b89190610ff5565b6102c29190610ff5565b90506000620186a06005600001548b6102db9190610f53565b6102e59190610fc4565b90508a8110156102fe5780856000018181525050610309565b8a8560000181815250505b600260009054906101000a900473ffffffffffffffffffffffffffffffffffffffff1673ffffffffffffffffffffffffffffffffffffffff16632c4e722e6040518163ffffffff1660e01b81526004016020604051808303816000875af1158015610378573d6000803e3d6000fd5b505050506040513d601f19601f8201168201806040525081019061039c919061103e565b846103a79190610fc4565b620186a06005600101548a6103bc9190610f53565b6103c69190610fc4565b111561047857600260009054906101000a900473ffffffffffffffffffffffffffffffffffffffff1673ffffffffffffffffffffffffffffffffffffffff16632c4e722e6040518163ffffffff1660e01b81526004016020604051808303816000875af115801561043b573d6000803e3d6000fd5b505050506040513d601f19601f8201168201806040525081019061045f919061103e565b8461046a9190610fc4565b8560200181815250506104a1565b620186a06005600101548961048d9190610f53565b6104979190610fc4565b8560200181815250505b600360009054906101000a900473ffffffffffffffffffffffffffffffffffffffff1673ffffffffffffffffffffffffffffffffffffffff16632c4e722e6040518163ffffffff1660e01b81526004016020604051808303816000875af1158015610510573d6000803e3d6000fd5b505050506040513d601f19601f82011682018060405250810190610534919061103e565b8361053f9190610fc4565b620186a0600560010154896105549190610f53565b61055e9190610fc4565b111561061057600360009054906101000a900473ffffffffffffffffffffffffffffffffffffffff1673ffffffffffffffffffffffffffffffffffffffff16632c4e722e6040518163ffffffff1660e01b81526004016020604051808303816000875af11580156105d3573d6000803e3d6000fd5b505050506040513d601f19601f820116820180604052508101906105f7919061103e565b836106029190610fc4565b856040018181525050610639565b620186a0600560010154886106259190610f53565b61062f9190610fc4565b8560400181815250505b600460009054906101000a900473ffffffffffffffffffffffffffffffffffffffff1673ffffffffffffffffffffffffffffffffffffffff16632c4e722e6040518163ffffffff1660e01b81526004016020604051808303816000875af11580156106a8573d6000803e3d6000fd5b505050506040513d601f19601f820116820180604052508101906106cc919061103e565b826106d79190610fc4565b620186a0600560010154886106ec9190610f53565b6106f69190610fc4565b11156107a857600460009054906101000a900473ffffffffffffffffffffffffffffffffffffffff1673ffffffffffffffffffffffffffffffffffffffff16632c4e722e6040518163ffffffff1660e01b81526004016020604051808303816000875af115801561076b573d6000803e3d6000fd5b505050506040513d601f19601f8201168201806040525081019061078f919061103e565b8261079a9190610fc4565b8560600181815250506107d1565b620186a0600560010154876107bd9190610f53565b6107c79190610fc4565b8560600181815250505b505050509695505050505050565b6107e7610a11565b6107f16000610a98565b565b60006107fd610ac9565b90508073ffffffffffffffffffffffffffffffffffffffff1661081e61093a565b73ffffffffffffffffffffffffffffffffffffffff161461087657806040517f118cdaa700000000000000000000000000000000000000000000000000000000815260040161086d9190610bfe565b60405180910390fd5b61087f81610a98565b50565b60058060000154908060010154905082565b600460009054906101000a900473ffffffffffffffffffffffffffffffffffffffff1681565b60008060009054906101000a900473ffffffffffffffffffffffffffffffffffffffff16905090565b600360009054906101000a900473ffffffffffffffffffffffffffffffffffffffff1681565b620186a081565b600181565b61091d610a11565b806005600082015181600001556020820151816001015590505050565b6000600160009054906101000a900473ffffffffffffffffffffffffffffffffffffffff16905090565b61096c610a11565b80600160006101000a81548173ffffffffffffffffffffffffffffffffffffffff021916908373ffffffffffffffffffffffffffffffffffffffff1602179055508073ffffffffffffffffffffffffffffffffffffffff166109cc6108ba565b73ffffffffffffffffffffffffffffffffffffffff167f38d16b8cac22d99fc7c124b9cd0de2d3fa1faef420bfe791d8c362d765e2270060405160405180910390a350565b610a19610ac9565b73ffffffffffffffffffffffffffffffffffffffff16610a376108ba565b73ffffffffffffffffffffffffffffffffffffffff1614610a9657610a5a610ac9565b6040517f118cdaa7000000000000000000000000000000000000000000000000000000008152600401610a8d9190610bfe565b60405180910390fd5b565b600160006101000a81549073ffffffffffffffffffffffffffffffffffffffff0219169055610ac681610ad1565b50565b600033905090565b60008060009054906101000a900473ffffffffffffffffffffffffffffffffffffffff169050816000806101000a81548173ffffffffffffffffffffffffffffffffffffffff021916908373ffffffffffffffffffffffffffffffffffffffff1602179055508173ffffffffffffffffffffffffffffffffffffffff168173ffffffffffffffffffffffffffffffffffffffff167f8be0079c531659141344cd1fd0a4f28419497f9722a3daafe3b4186f6b6457e060405160405180910390a35050565b6040518060800160405280600081526020016000815260200160008152602001600081525090565b600073ffffffffffffffffffffffffffffffffffffffff82169050919050565b6000610be882610bbd565b9050919050565b610bf881610bdd565b82525050565b6000602082019050610c136000830184610bef565b92915050565b6000604051905090565b600080fd5b6000819050919050565b610c3b81610c28565b8114610c4657600080fd5b50565b600081359050610c5881610c32565b92915050565b60008060008060008060c08789031215610c7b57610c7a610c23565b5b6000610c8989828a01610c49565b9650506020610c9a89828a01610c49565b9550506040610cab89828a01610c49565b9450506060610cbc89828a01610c49565b9350506080610ccd89828a01610c49565b92505060a0610cde89828a01610c49565b9150509295509295509295565b610cf481610c28565b82525050565b608082016000820151610d106000850182610ceb565b506020820151610d236020850182610ceb565b506040820151610d366040850182610ceb565b506060820151610d496060850182610ceb565b50505050565b6000608082019050610d646000830184610cfa565b92915050565b610d7381610c28565b82525050565b6000604082019050610d8e6000830185610d6a565b610d9b6020830184610d6a565b9392505050565b6000602082019050610db76000830184610d6a565b92915050565b600080fd5b6000601f19601f8301169050919050565b7f4e487b7100000000000000000000000000000000000000000000000000000000600052604160045260246000fd5b610e0b82610dc2565b810181811067ffffffffffffffff82111715610e2a57610e29610dd3565b5b80604052505050565b6000610e3d610c19565b9050610e498282610e02565b919050565b600060408284031215610e6457610e63610dbd565b5b610e6e6040610e33565b90506000610e7e84828501610c49565b6000830152506020610e9284828501610c49565b60208301525092915050565b600060408284031215610eb457610eb3610c23565b5b6000610ec284828501610e4e565b91505092915050565b610ed481610bdd565b8114610edf57600080fd5b50565b600081359050610ef181610ecb565b92915050565b600060208284031215610f0d57610f0c610c23565b5b6000610f1b84828501610ee2565b91505092915050565b7f4e487b7100000000000000000000000000000000000000000000000000000000600052601160045260246000fd5b6000610f5e82610c28565b9150610f6983610c28565b9250828202610f7781610c28565b91508282048414831517610f8e57610f8d610f24565b5b5092915050565b7f4e487b7100000000000000000000000000000000000000000000000000000000600052601260045260246000fd5b6000610fcf82610c28565b9150610fda83610c28565b925082610fea57610fe9610f95565b5b828204905092915050565b600061100082610c28565b915061100b83610c28565b925082820390508181111561102357611022610f24565b5b92915050565b60008151905061103881610c32565b92915050565b60006020828403121561105457611053610c23565b5b600061106284828501611029565b9150509291505056fea2646970667358221220e5eb13232de0a19acea829b8d0a6d06bfbfd0f479e6cb0583ad60d7bd1f4635664736f6c63430008180033",
  "linkReferences": {},
  "deployedLinkReferences": {}
}