{
  "_format": "hh-sol-artifact-1",
  "contractName": "TokenStaker",
  "sourceName": "contracts/TokenStaker.sol",
  "abi": [
    {
      "inputs": [
        {
          "internalType": "contract IERC20",
          "name": "_token",
          "type": "address"
        },
        {
          "internalType": "contract IERC20",
          "name": "_rewardToken1",
          "type": "address"
        },
        {
          "internalType": "contract IERC20",
          "name": "_rewardToken2",
          "type": "address"
        }
      ],
      "stateMutability": "nonpayable",
      "type": "constructor"
    },
    {
      "inputs": [
        {
          "internalType": "address",
          "name": "target",
          "type": "address"
        }
      ],
      "name": "AddressEmptyCode",
      "type": "error"
    },
    {
      "inputs": [
        {
          "internalType": "address",
          "name": "account",
          "type": "address"
        }
      ],
      "name": "AddressInsufficientBalance",
      "type": "error"
    },
    {
      "inputs": [],
      "name": "FailedInnerCall",
      "type": "error"
    },
    {
      "inputs": [
        {
          "internalType": "address",
          "name": "owner",
          "type": "address"
        }
      ],
      "name": "OwnableInvalidOwner",
      "type": "error"
    },
    {
      "inputs": [
        {
          "internalType": "address",
          "name": "account",
          "type": "address"
        }
      ],
      "name": "OwnableUnauthorizedAccount",
      "type": "error"
    },
    {
      "inputs": [],
      "name": "ReentrancyGuardReentrantCall",
      "type": "error"
    },
    {
      "inputs": [
        {
          "internalType": "address",
          "name": "token",
          "type": "address"
        }
      ],
      "name": "SafeERC20FailedOperation",
      "type": "error"
    },
    {
      "anonymous": false,
      "inputs": [
        {
          "indexed": false,
          "internalType": "address",
          "name": "wallet",
          "type": "address"
        },
        {
          "indexed": false,
          "internalType": "uint256",
          "name": "amountToken1",
          "type": "uint256"
        },
        {
          "indexed": false,
          "internalType": "uint256",
          "name": "amountToken2",
          "type": "uint256"
        }
      ],
      "name": "Harvest",
      "type": "event"
    },
    {
      "anonymous": false,
      "inputs": [
        {
          "indexed": true,
          "internalType": "address",
          "name": "previousOwner",
          "type": "address"
        },
        {
          "indexed": true,
          "internalType": "address",
          "name": "newOwner",
          "type": "address"
        }
      ],
      "name": "OwnershipTransferred",
      "type": "event"
    },
    {
      "anonymous": false,
      "inputs": [
        {
          "indexed": false,
          "internalType": "address",
          "name": "wallet",
          "type": "address"
        },
        {
          "indexed": false,
          "internalType": "uint256",
          "name": "amount",
          "type": "uint256"
        }
      ],
      "name": "Stake",
      "type": "event"
    },
    {
      "anonymous": false,
      "inputs": [
        {
          "indexed": false,
          "internalType": "address",
          "name": "wallet",
          "type": "address"
        },
        {
          "indexed": false,
          "internalType": "uint256",
          "name": "amount",
          "type": "uint256"
        }
      ],
      "name": "Unstake",
      "type": "event"
    },
    {
      "inputs": [],
      "name": "boosterAddress",
      "outputs": [
        {
          "internalType": "address",
          "name": "",
          "type": "address"
        }
      ],
      "stateMutability": "view",
      "type": "function"
    },
    {
      "inputs": [
        {
          "internalType": "uint256",
          "name": "rewardAmount1",
          "type": "uint256"
        },
        {
          "internalType": "uint256",
          "name": "rewardAmount2",
          "type": "uint256"
        }
      ],
      "name": "distributeRewards",
      "outputs": [],
      "stateMutability": "nonpayable",
      "type": "function"
    },
    {
      "inputs": [
        {
          "internalType": "contract IERC20",
          "name": "tokenAddress",
          "type": "address"
        }
      ],
      "name": "emergencyWithdraw",
      "outputs": [],
      "stateMutability": "nonpayable",
      "type": "function"
    },
    {
      "inputs": [],
      "name": "empty",
      "outputs": [],
      "stateMutability": "nonpayable",
      "type": "function"
    },
    {
      "inputs": [],
      "name": "harvest",
      "outputs": [],
      "stateMutability": "nonpayable",
      "type": "function"
    },
    {
      "inputs": [],
      "name": "owner",
      "outputs": [
        {
          "internalType": "address",
          "name": "",
          "type": "address"
        }
      ],
      "stateMutability": "view",
      "type": "function"
    },
    {
      "inputs": [
        {
          "internalType": "address",
          "name": "_address",
          "type": "address"
        }
      ],
      "name": "pendingRewards",
      "outputs": [
        {
          "internalType": "uint256",
          "name": "",
          "type": "uint256"
        },
        {
          "internalType": "uint256",
          "name": "",
          "type": "uint256"
        }
      ],
      "stateMutability": "view",
      "type": "function"
    },
    {
      "inputs": [],
      "name": "renounceOwnership",
      "outputs": [],
      "stateMutability": "nonpayable",
      "type": "function"
    },
    {
      "inputs": [
        {
          "internalType": "uint256",
          "name": "",
          "type": "uint256"
        },
        {
          "internalType": "uint256",
          "name": "",
          "type": "uint256"
        }
      ],
      "name": "rewardRounds",
      "outputs": [
        {
          "internalType": "uint256",
          "name": "",
          "type": "uint256"
        }
      ],
      "stateMutability": "view",
      "type": "function"
    },
    {
      "inputs": [],
      "name": "rewardToken1",
      "outputs": [
        {
          "internalType": "contract IERC20",
          "name": "",
          "type": "address"
        }
      ],
      "stateMutability": "view",
      "type": "function"
    },
    {
      "inputs": [],
      "name": "rewardToken2",
      "outputs": [
        {
          "internalType": "contract IERC20",
          "name": "",
          "type": "address"
        }
      ],
      "stateMutability": "view",
      "type": "function"
    },
    {
      "inputs": [
        {
          "internalType": "address",
          "name": "_boosterAddress",
          "type": "address"
        }
      ],
      "name": "setBoosterAddress",
      "outputs": [],
      "stateMutability": "nonpayable",
      "type": "function"
    },
    {
      "inputs": [
        {
          "internalType": "uint256",
          "name": "_amount",
          "type": "uint256"
        }
      ],
      "name": "stake",
      "outputs": [],
      "stateMutability": "nonpayable",
      "type": "function"
    },
    {
      "inputs": [
        {
          "internalType": "address",
          "name": "",
          "type": "address"
        }
      ],
      "name": "stakers",
      "outputs": [
        {
          "internalType": "uint256",
          "name": "amount",
          "type": "uint256"
        },
        {
          "internalType": "uint256",
          "name": "lastRewardRound",
          "type": "uint256"
        }
      ],
      "stateMutability": "view",
      "type": "function"
    },
    {
      "inputs": [],
      "name": "token",
      "outputs": [
        {
          "internalType": "contract IERC20",
          "name": "",
          "type": "address"
        }
      ],
      "stateMutability": "view",
      "type": "function"
    },
    {
      "inputs": [],
      "name": "totalStaked",
      "outputs": [
        {
          "internalType": "uint256",
          "name": "",
          "type": "uint256"
        }
      ],
      "stateMutability": "view",
      "type": "function"
    },
    {
      "inputs": [
        {
          "internalType": "address",
          "name": "newOwner",
          "type": "address"
        }
      ],
      "name": "transferOwnership",
      "outputs": [],
      "stateMutability": "nonpayable",
      "type": "function"
    },
    {
      "inputs": [
        {
          "internalType": "uint256",
          "name": "_amount",
          "type": "uint256"
        }
      ],
      "name": "unstake",
      "outputs": [],
      "stateMutability": "nonpayable",
      "type": "function"
    }
  ],
  "bytecode": "0x60806040523480156200001157600080fd5b50604051620029d1380380620029d18339818101604052810190620000379190620002d4565b33600073ffffffffffffffffffffffffffffffffffffffff168173ffffffffffffffffffffffffffffffffffffffff1603620000ad5760006040517f1e4fbdf7000000000000000000000000000000000000000000000000000000008152600401620000a4919062000341565b60405180910390fd5b620000be816200019260201b60201c565b506001808190555082600260006101000a81548173ffffffffffffffffffffffffffffffffffffffff021916908373ffffffffffffffffffffffffffffffffffffffff16021790555081600360006101000a81548173ffffffffffffffffffffffffffffffffffffffff021916908373ffffffffffffffffffffffffffffffffffffffff16021790555080600460006101000a81548173ffffffffffffffffffffffffffffffffffffffff021916908373ffffffffffffffffffffffffffffffffffffffff1602179055505050506200035e565b60008060009054906101000a900473ffffffffffffffffffffffffffffffffffffffff169050816000806101000a81548173ffffffffffffffffffffffffffffffffffffffff021916908373ffffffffffffffffffffffffffffffffffffffff1602179055508173ffffffffffffffffffffffffffffffffffffffff168173ffffffffffffffffffffffffffffffffffffffff167f8be0079c531659141344cd1fd0a4f28419497f9722a3daafe3b4186f6b6457e060405160405180910390a35050565b600080fd5b600073ffffffffffffffffffffffffffffffffffffffff82169050919050565b600062000288826200025b565b9050919050565b60006200029c826200027b565b9050919050565b620002ae816200028f565b8114620002ba57600080fd5b50565b600081519050620002ce81620002a3565b92915050565b600080600060608486031215620002f057620002ef62000256565b5b60006200030086828701620002bd565b93505060206200031386828701620002bd565b92505060406200032686828701620002bd565b9150509250925092565b6200033b816200027b565b82525050565b600060208201905062000358600083018462000330565b92915050565b612663806200036e6000396000f3fe608060405234801561001057600080fd5b50600436106101165760003560e01c80639168ae72116100a2578063df6c39fb11610071578063df6c39fb14610297578063e6975964146102b3578063f2a75fe4146102e3578063f2fde38b146102ed578063fc0c546a1461030957610116565b80639168ae721461020e578063a694fc3a1461023f578063a99c308b1461025b578063d61a47f11461027957610116565b80636f28d688116100e95780636f28d6881461018e5780636ff1c9bc146101ac578063715018a6146101c8578063817b1cd2146101d25780638da5cb5b146101f057610116565b8063134928b01461011b5780632e17de781461013757806331d7a262146101535780634641257d14610184575b600080fd5b61013560048036038101906101309190611d26565b610327565b005b610151600480360381019061014c9190611d89565b610373565b005b61016d60048036038101906101689190611d26565b61076b565b60405161017b929190611dc5565b60405180910390f35b61018c610944565b005b610196610c3e565b6040516101a39190611e4d565b60405180910390f35b6101c660048036038101906101c19190611ea6565b610c64565b005b6101d0610eca565b005b6101da610ede565b6040516101e79190611ed3565b60405180910390f35b6101f8610ee4565b6040516102059190611efd565b60405180910390f35b61022860048036038101906102239190611d26565b610f0d565b604051610236929190611dc5565b60405180910390f35b61025960048036038101906102549190611d89565b610f31565b005b6102636110f7565b6040516102709190611efd565b60405180910390f35b61028161111d565b60405161028e9190611e4d565b60405180910390f35b6102b160048036038101906102ac9190611f18565b611143565b005b6102cd60048036038101906102c89190611f18565b6112b4565b6040516102da9190611ed3565b60405180910390f35b6102eb6112ec565b005b61030760048036038101906103029190611d26565b6116bf565b005b610311611745565b60405161031e9190611e4d565b60405180910390f35b61032f61176b565b80600860006101000a81548173ffffffffffffffffffffffffffffffffffffffff021916908373ffffffffffffffffffffffffffffffffffffffff16021790555050565b61037b6117f2565b6000600560003373ffffffffffffffffffffffffffffffffffffffff1673ffffffffffffffffffffffffffffffffffffffff1681526020019081526020016000209050600680549050816001015414610409576040517f08c379a000000000000000000000000000000000000000000000000000000000815260040161040090611fb5565b60405180910390fd5b8060000154821115610450576040517f08c379a000000000000000000000000000000000000000000000000000000000815260040161044790612021565b60405180910390fd5b600860009054906101000a900473ffffffffffffffffffffffffffffffffffffffff1673ffffffffffffffffffffffffffffffffffffffff16637f2bfc646040518163ffffffff1660e01b8152600401602060405180830381865afa1580156104bd573d6000803e3d6000fd5b505050506040513d601f19601f820116820180604052508101906104e19190612056565b600860009054906101000a900473ffffffffffffffffffffffffffffffffffffffff1673ffffffffffffffffffffffffffffffffffffffff16639168ae72336040518263ffffffff1660e01b815260040161053c9190611efd565b60408051808303816000875af115801561055a573d6000803e3d6000fd5b505050506040513d601f19601f8201168201806040525081019061057e9190612164565b60200151146105c2576040517f08c379a00000000000000000000000000000000000000000000000000000000081526004016105b9906121dd565b60405180910390fd5b6000600860009054906101000a900473ffffffffffffffffffffffffffffffffffffffff1673ffffffffffffffffffffffffffffffffffffffff16639168ae72336040518263ffffffff1660e01b815260040161061f9190611efd565b60408051808303816000875af115801561063d573d6000803e3d6000fd5b505050506040513d601f19601f820116820180604052508101906106619190612164565b60000151146106a5576040517f08c379a000000000000000000000000000000000000000000000000000000000815260040161069c90612249565b60405180910390fd5b818160000160008282546106b99190612298565b9250508190555081600760008282546106d29190612298565b925050819055506107263383600260009054906101000a900473ffffffffffffffffffffffffffffffffffffffff1673ffffffffffffffffffffffffffffffffffffffff166118389092919063ffffffff16565b7f85082129d87b2fe11527cb1b3b7a520aeb5aa6913f88a3d8757fe40d1db02fdd33836040516107579291906122cc565b60405180910390a1506107686118b7565b50565b6000806000600560008573ffffffffffffffffffffffffffffffffffffffff1673ffffffffffffffffffffffffffffffffffffffff16815260200190815260200160002090506000806000836001015490505b600680549050811015610935576ec097ce7bc90715b34b9f1000000000600682815481106107ef576107ee6122f5565b5b90600052602060002090600202016000600281106108105761080f6122f5565b5b0154600560008a73ffffffffffffffffffffffffffffffffffffffff1673ffffffffffffffffffffffffffffffffffffffff1681526020019081526020016000206000015461085f9190612324565b6108699190612395565b8361087491906123c6565b92506ec097ce7bc90715b34b9f10000000006006828154811061089a576108996122f5565b5b90600052602060002090600202016001600281106108bb576108ba6122f5565b5b0154600560008a73ffffffffffffffffffffffffffffffffffffffff1673ffffffffffffffffffffffffffffffffffffffff1681526020019081526020016000206000015461090a9190612324565b6109149190612395565b8261091f91906123c6565b915060018161092e91906123c6565b90506107be565b82829550955050505050915091565b61094c6117f2565b6000600560003373ffffffffffffffffffffffffffffffffffffffff1673ffffffffffffffffffffffffffffffffffffffff1681526020019081526020016000206000015490506000600560003373ffffffffffffffffffffffffffffffffffffffff1673ffffffffffffffffffffffffffffffffffffffff16815260200190815260200160002060010154905060008060005a905060006064600a836109f39190612324565b6109fd9190612395565b90505b60068054905085108015610a135750805a115b15610afe576ec097ce7bc90715b34b9f100000000060068681548110610a3c57610a3b6122f5565b5b9060005260206000209060020201600060028110610a5d57610a5c6122f5565b5b015487610a6a9190612324565b610a749190612395565b84610a7f91906123c6565b93506ec097ce7bc90715b34b9f100000000060068681548110610aa557610aa46122f5565b5b9060005260206000209060020201600160028110610ac657610ac56122f5565b5b015487610ad39190612324565b610add9190612395565b83610ae891906123c6565b9250600185610af791906123c6565b9450610a00565b84600560003373ffffffffffffffffffffffffffffffffffffffff1673ffffffffffffffffffffffffffffffffffffffff168152602001908152602001600020600101819055506000841115610b9c57610b9b3385600360009054906101000a900473ffffffffffffffffffffffffffffffffffffffff1673ffffffffffffffffffffffffffffffffffffffff166118389092919063ffffffff16565b5b6000831115610bf357610bf23384600460009054906101000a900473ffffffffffffffffffffffffffffffffffffffff1673ffffffffffffffffffffffffffffffffffffffff166118389092919063ffffffff16565b5b7f71bab65ced2e5750775a0613be067df48ef06cf92a496ebf7663ae0660924954338585604051610c26939291906123fa565b60405180910390a1505050505050610c3c6118b7565b565b600360009054906101000a900473ffffffffffffffffffffffffffffffffffffffff1681565b610c6c61176b565b600260009054906101000a900473ffffffffffffffffffffffffffffffffffffffff1673ffffffffffffffffffffffffffffffffffffffff168173ffffffffffffffffffffffffffffffffffffffff1603610cfc576040517f08c379a0000000000000000000000000000000000000000000000000000000008152600401610cf39061247d565b60405180910390fd5b600360009054906101000a900473ffffffffffffffffffffffffffffffffffffffff1673ffffffffffffffffffffffffffffffffffffffff168173ffffffffffffffffffffffffffffffffffffffff1603610d8c576040517f08c379a0000000000000000000000000000000000000000000000000000000008152600401610d839061247d565b60405180910390fd5b600460009054906101000a900473ffffffffffffffffffffffffffffffffffffffff1673ffffffffffffffffffffffffffffffffffffffff168173ffffffffffffffffffffffffffffffffffffffff1603610e1c576040517f08c379a0000000000000000000000000000000000000000000000000000000008152600401610e139061247d565b60405180910390fd5b610ec7610e27610ee4565b8273ffffffffffffffffffffffffffffffffffffffff166370a08231306040518263ffffffff1660e01b8152600401610e609190611efd565b602060405180830381865afa158015610e7d573d6000803e3d6000fd5b505050506040513d601f19601f82011682018060405250810190610ea19190612056565b8373ffffffffffffffffffffffffffffffffffffffff166118389092919063ffffffff16565b50565b610ed261176b565b610edc60006118c0565b565b60075481565b60008060009054906101000a900473ffffffffffffffffffffffffffffffffffffffff16905090565b60056020528060005260406000206000915090508060000154908060010154905082565b610f396117f2565b670de0b6b3a7640000811015610f84576040517f08c379a0000000000000000000000000000000000000000000000000000000008152600401610f7b906124e9565b60405180910390fd5b6000600560003373ffffffffffffffffffffffffffffffffffffffff1673ffffffffffffffffffffffffffffffffffffffff1681526020019081526020016000209050600081600001541480610fe257506006805490508160010154145b611021576040517f08c379a000000000000000000000000000000000000000000000000000000000815260040161101890611fb5565b60405180910390fd5b8181600001600082825461103591906123c6565b925050819055506006805490508160010181905550816007600082825461105c91906123c6565b925050819055506110b2333084600260009054906101000a900473ffffffffffffffffffffffffffffffffffffffff1673ffffffffffffffffffffffffffffffffffffffff16611984909392919063ffffffff16565b7febedb8b3c678666e7f36970bc8f57abf6d8fa2e828c0da91ea5b75bf68ed101a33836040516110e39291906122cc565b60405180910390a1506110f46118b7565b50565b600860009054906101000a900473ffffffffffffffffffffffffffffffffffffffff1681565b600460009054906101000a900473ffffffffffffffffffffffffffffffffffffffff1681565b61114b61176b565b6111536117f2565b60006007546ec097ce7bc90715b34b9f1000000000846111739190612324565b61117d9190612395565b905060006007546ec097ce7bc90715b34b9f10000000008461119f9190612324565b6111a99190612395565b9050600660405180604001604052808481526020018381525090806001815401808255809150506001900390600052602060002090600202016000909190919091509060026111f9929190611c5c565b50611250611205610ee4565b3086600360009054906101000a900473ffffffffffffffffffffffffffffffffffffffff1673ffffffffffffffffffffffffffffffffffffffff16611984909392919063ffffffff16565b6112a661125b610ee4565b3085600460009054906101000a900473ffffffffffffffffffffffffffffffffffffffff1673ffffffffffffffffffffffffffffffffffffffff16611984909392919063ffffffff16565b50506112b06118b7565b5050565b600682815481106112c457600080fd5b906000526020600020906002020181600281106112e057600080fd5b01600091509150505481565b6112f461176b565b600260009054906101000a900473ffffffffffffffffffffffffffffffffffffffff1673ffffffffffffffffffffffffffffffffffffffff1663a9059cbb61133a610ee4565b600260009054906101000a900473ffffffffffffffffffffffffffffffffffffffff1673ffffffffffffffffffffffffffffffffffffffff166370a08231306040518263ffffffff1660e01b81526004016113959190611efd565b602060405180830381865afa1580156113b2573d6000803e3d6000fd5b505050506040513d601f19601f820116820180604052508101906113d69190612056565b6040518363ffffffff1660e01b81526004016113f39291906122cc565b6020604051808303816000875af1158015611412573d6000803e3d6000fd5b505050506040513d601f19601f820116820180604052508101906114369190612541565b50600360009054906101000a900473ffffffffffffffffffffffffffffffffffffffff1673ffffffffffffffffffffffffffffffffffffffff1663a9059cbb61147d610ee4565b600360009054906101000a900473ffffffffffffffffffffffffffffffffffffffff1673ffffffffffffffffffffffffffffffffffffffff166370a08231306040518263ffffffff1660e01b81526004016114d89190611efd565b602060405180830381865afa1580156114f5573d6000803e3d6000fd5b505050506040513d601f19601f820116820180604052508101906115199190612056565b6040518363ffffffff1660e01b81526004016115369291906122cc565b6020604051808303816000875af1158015611555573d6000803e3d6000fd5b505050506040513d601f19601f820116820180604052508101906115799190612541565b50600460009054906101000a900473ffffffffffffffffffffffffffffffffffffffff1673ffffffffffffffffffffffffffffffffffffffff1663a9059cbb6115c0610ee4565b600460009054906101000a900473ffffffffffffffffffffffffffffffffffffffff1673ffffffffffffffffffffffffffffffffffffffff166370a08231306040518263ffffffff1660e01b815260040161161b9190611efd565b602060405180830381865afa158015611638573d6000803e3d6000fd5b505050506040513d601f19601f8201168201806040525081019061165c9190612056565b6040518363ffffffff1660e01b81526004016116799291906122cc565b6020604051808303816000875af1158015611698573d6000803e3d6000fd5b505050506040513d601f19601f820116820180604052508101906116bc9190612541565b50565b6116c761176b565b600073ffffffffffffffffffffffffffffffffffffffff168173ffffffffffffffffffffffffffffffffffffffff16036117395760006040517f1e4fbdf70000000000000000000000000000000000000000000000000000000081526004016117309190611efd565b60405180910390fd5b611742816118c0565b50565b600260009054906101000a900473ffffffffffffffffffffffffffffffffffffffff1681565b611773611a06565b73ffffffffffffffffffffffffffffffffffffffff16611791610ee4565b73ffffffffffffffffffffffffffffffffffffffff16146117f0576117b4611a06565b6040517f118cdaa70000000000000000000000000000000000000000000000000000000081526004016117e79190611efd565b60405180910390fd5b565b60026001540361182e576040517f3ee5aeb500000000000000000000000000000000000000000000000000000000815260040160405180910390fd5b6002600181905550565b6118b2838473ffffffffffffffffffffffffffffffffffffffff1663a9059cbb858560405160240161186b9291906122cc565b604051602081830303815290604052915060e01b6020820180517bffffffffffffffffffffffffffffffffffffffffffffffffffffffff8381831617835250505050611a0e565b505050565b60018081905550565b60008060009054906101000a900473ffffffffffffffffffffffffffffffffffffffff169050816000806101000a81548173ffffffffffffffffffffffffffffffffffffffff021916908373ffffffffffffffffffffffffffffffffffffffff1602179055508173ffffffffffffffffffffffffffffffffffffffff168173ffffffffffffffffffffffffffffffffffffffff167f8be0079c531659141344cd1fd0a4f28419497f9722a3daafe3b4186f6b6457e060405160405180910390a35050565b611a00848573ffffffffffffffffffffffffffffffffffffffff166323b872dd8686866040516024016119b99392919061256e565b604051602081830303815290604052915060e01b6020820180517bffffffffffffffffffffffffffffffffffffffffffffffffffffffff8381831617835250505050611a0e565b50505050565b600033905090565b6000611a39828473ffffffffffffffffffffffffffffffffffffffff16611aa590919063ffffffff16565b90506000815114158015611a5e575080806020019051810190611a5c9190612541565b155b15611aa057826040517f5274afe7000000000000000000000000000000000000000000000000000000008152600401611a979190611efd565b60405180910390fd5b505050565b6060611ab383836000611abb565b905092915050565b606081471015611b0257306040517fcd786059000000000000000000000000000000000000000000000000000000008152600401611af99190611efd565b60405180910390fd5b6000808573ffffffffffffffffffffffffffffffffffffffff168486604051611b2b9190612616565b60006040518083038185875af1925050503d8060008114611b68576040519150601f19603f3d011682016040523d82523d6000602084013e611b6d565b606091505b5091509150611b7d868383611b88565b925050509392505050565b606082611b9d57611b9882611c17565b611c0f565b60008251148015611bc5575060008473ffffffffffffffffffffffffffffffffffffffff163b145b15611c0757836040517f9996b315000000000000000000000000000000000000000000000000000000008152600401611bfe9190611efd565b60405180910390fd5b819050611c10565b5b9392505050565b600081511115611c2a5780518082602001fd5b6040517f1425ea4200000000000000000000000000000000000000000000000000000000815260040160405180910390fd5b8260028101928215611c8b579160200282015b82811115611c8a578251825591602001919060010190611c6f565b5b509050611c989190611c9c565b5090565b5b80821115611cb5576000816000905550600101611c9d565b5090565b6000604051905090565b600080fd5b600073ffffffffffffffffffffffffffffffffffffffff82169050919050565b6000611cf382611cc8565b9050919050565b611d0381611ce8565b8114611d0e57600080fd5b50565b600081359050611d2081611cfa565b92915050565b600060208284031215611d3c57611d3b611cc3565b5b6000611d4a84828501611d11565b91505092915050565b6000819050919050565b611d6681611d53565b8114611d7157600080fd5b50565b600081359050611d8381611d5d565b92915050565b600060208284031215611d9f57611d9e611cc3565b5b6000611dad84828501611d74565b91505092915050565b611dbf81611d53565b82525050565b6000604082019050611dda6000830185611db6565b611de76020830184611db6565b9392505050565b6000819050919050565b6000611e13611e0e611e0984611cc8565b611dee565b611cc8565b9050919050565b6000611e2582611df8565b9050919050565b6000611e3782611e1a565b9050919050565b611e4781611e2c565b82525050565b6000602082019050611e626000830184611e3e565b92915050565b6000611e7382611ce8565b9050919050565b611e8381611e68565b8114611e8e57600080fd5b50565b600081359050611ea081611e7a565b92915050565b600060208284031215611ebc57611ebb611cc3565b5b6000611eca84828501611e91565b91505092915050565b6000602082019050611ee86000830184611db6565b92915050565b611ef781611ce8565b82525050565b6000602082019050611f126000830184611eee565b92915050565b60008060408385031215611f2f57611f2e611cc3565b5b6000611f3d85828601611d74565b9250506020611f4e85828601611d74565b9150509250929050565b600082825260208201905092915050565b7f50454e44494e475f524557415244530000000000000000000000000000000000600082015250565b6000611f9f600f83611f58565b9150611faa82611f69565b602082019050919050565b60006020820190508181036000830152611fce81611f92565b9050919050565b7f494e56414c49445f414d4f554e54000000000000000000000000000000000000600082015250565b600061200b600e83611f58565b915061201682611fd5565b602082019050919050565b6000602082019050818103600083015261203a81611ffe565b9050919050565b60008151905061205081611d5d565b92915050565b60006020828403121561206c5761206b611cc3565b5b600061207a84828501612041565b91505092915050565b600080fd5b6000601f19601f8301169050919050565b7f4e487b7100000000000000000000000000000000000000000000000000000000600052604160045260246000fd5b6120d182612088565b810181811067ffffffffffffffff821117156120f0576120ef612099565b5b80604052505050565b6000612103611cb9565b905061210f82826120c8565b919050565b60006040828403121561212a57612129612083565b5b61213460406120f9565b9050600061214484828501612041565b600083015250602061215884828501612041565b60208301525092915050565b60006040828403121561217a57612179611cc3565b5b600061218884828501612114565b91505092915050565b7f50454e44494e475f424f4f53545f524557415244530000000000000000000000600082015250565b60006121c7601583611f58565b91506121d282612191565b602082019050919050565b600060208201905081810360008301526121f6816121ba565b9050919050565b7f424f4f53545f4143544956450000000000000000000000000000000000000000600082015250565b6000612233600c83611f58565b915061223e826121fd565b602082019050919050565b6000602082019050818103600083015261226281612226565b9050919050565b7f4e487b7100000000000000000000000000000000000000000000000000000000600052601160045260246000fd5b60006122a382611d53565b91506122ae83611d53565b92508282039050818111156122c6576122c5612269565b5b92915050565b60006040820190506122e16000830185611eee565b6122ee6020830184611db6565b9392505050565b7f4e487b7100000000000000000000000000000000000000000000000000000000600052603260045260246000fd5b600061232f82611d53565b915061233a83611d53565b925082820261234881611d53565b9150828204841483151761235f5761235e612269565b5b5092915050565b7f4e487b7100000000000000000000000000000000000000000000000000000000600052601260045260246000fd5b60006123a082611d53565b91506123ab83611d53565b9250826123bb576123ba612366565b5b828204905092915050565b60006123d182611d53565b91506123dc83611d53565b92508282019050808211156123f4576123f3612269565b5b92915050565b600060608201905061240f6000830186611eee565b61241c6020830185611db6565b6124296040830184611db6565b949350505050565b7f43414e4e4f545f57495448445241575f4c4f434b45445f544f4b454e00000000600082015250565b6000612467601c83611f58565b915061247282612431565b602082019050919050565b600060208201905081810360008301526124968161245a565b9050919050565b7f4d494e494d554d5f5354414b455f414d4f554e54000000000000000000000000600082015250565b60006124d3601483611f58565b91506124de8261249d565b602082019050919050565b60006020820190508181036000830152612502816124c6565b9050919050565b60008115159050919050565b61251e81612509565b811461252957600080fd5b50565b60008151905061253b81612515565b92915050565b60006020828403121561255757612556611cc3565b5b60006125658482850161252c565b91505092915050565b60006060820190506125836000830186611eee565b6125906020830185611eee565b61259d6040830184611db6565b949350505050565b600081519050919050565b600081905092915050565b60005b838110156125d95780820151818401526020810190506125be565b60008484015250505050565b60006125f0826125a5565b6125fa81856125b0565b935061260a8185602086016125bb565b80840191505092915050565b600061262282846125e5565b91508190509291505056fea2646970667358221220e18cdcd657a40e2828b6c83d632de5aca4f797d1519cf29ecc16de3c50948a3764736f6c63430008180033",
  "linkReferences": {},
  "deployedLinkReferences": {}
}