{
  "_format": "hh-sol-artifact-1",
  "contractName": "TokenStaker",
  "sourceName": "contracts/TokenStaker.sol",
  "abi": [
    {
      "inputs": [
        {
          "internalType": "address",
          "name": "_token",
          "type": "address"
        },
        {
          "internalType": "contract IERC20",
          "name": "_rewardToken1",
          "type": "address"
        },
        {
          "internalType": "contract IERC20",
          "name": "_rewardToken2",
          "type": "address"
        }
      ],
      "stateMutability": "nonpayable",
      "type": "constructor"
    },
    {
      "inputs": [
        {
          "internalType": "address",
          "name": "target",
          "type": "address"
        }
      ],
      "name": "AddressEmptyCode",
      "type": "error"
    },
    {
      "inputs": [
        {
          "internalType": "address",
          "name": "account",
          "type": "address"
        }
      ],
      "name": "AddressInsufficientBalance",
      "type": "error"
    },
    {
      "inputs": [],
      "name": "FailedInnerCall",
      "type": "error"
    },
    {
      "inputs": [
        {
          "internalType": "address",
          "name": "owner",
          "type": "address"
        }
      ],
      "name": "OwnableInvalidOwner",
      "type": "error"
    },
    {
      "inputs": [
        {
          "internalType": "address",
          "name": "account",
          "type": "address"
        }
      ],
      "name": "OwnableUnauthorizedAccount",
      "type": "error"
    },
    {
      "inputs": [],
      "name": "ReentrancyGuardReentrantCall",
      "type": "error"
    },
    {
      "inputs": [
        {
          "internalType": "address",
          "name": "token",
          "type": "address"
        }
      ],
      "name": "SafeERC20FailedOperation",
      "type": "error"
    },
    {
      "anonymous": false,
      "inputs": [
        {
          "indexed": false,
          "internalType": "address",
          "name": "wallet",
          "type": "address"
        },
        {
          "indexed": false,
          "internalType": "uint256",
          "name": "amountToken1",
          "type": "uint256"
        },
        {
          "indexed": false,
          "internalType": "uint256",
          "name": "amountToken2",
          "type": "uint256"
        }
      ],
      "name": "Harvest",
      "type": "event"
    },
    {
      "anonymous": false,
      "inputs": [
        {
          "indexed": true,
          "internalType": "address",
          "name": "previousOwner",
          "type": "address"
        },
        {
          "indexed": true,
          "internalType": "address",
          "name": "newOwner",
          "type": "address"
        }
      ],
      "name": "OwnershipTransferred",
      "type": "event"
    },
    {
      "anonymous": false,
      "inputs": [
        {
          "indexed": false,
          "internalType": "address",
          "name": "wallet",
          "type": "address"
        },
        {
          "indexed": false,
          "internalType": "uint256",
          "name": "amount",
          "type": "uint256"
        }
      ],
      "name": "Stake",
      "type": "event"
    },
    {
      "anonymous": false,
      "inputs": [
        {
          "indexed": false,
          "internalType": "address",
          "name": "wallet",
          "type": "address"
        },
        {
          "indexed": false,
          "internalType": "uint256",
          "name": "amount",
          "type": "uint256"
        }
      ],
      "name": "Unstake",
      "type": "event"
    },
    {
      "inputs": [],
      "name": "boosterAddress",
      "outputs": [
        {
          "internalType": "address",
          "name": "",
          "type": "address"
        }
      ],
      "stateMutability": "view",
      "type": "function"
    },
    {
      "inputs": [
        {
          "internalType": "uint256",
          "name": "rewardAmount1",
          "type": "uint256"
        },
        {
          "internalType": "uint256",
          "name": "rewardAmount2",
          "type": "uint256"
        }
      ],
      "name": "distributeRewards",
      "outputs": [],
      "stateMutability": "nonpayable",
      "type": "function"
    },
    {
      "inputs": [
        {
          "internalType": "contract IERC20",
          "name": "tokenAddress",
          "type": "address"
        }
      ],
      "name": "emergencyWithdraw",
      "outputs": [],
      "stateMutability": "nonpayable",
      "type": "function"
    },
    {
      "inputs": [],
      "name": "harvest",
      "outputs": [],
      "stateMutability": "nonpayable",
      "type": "function"
    },
    {
      "inputs": [],
      "name": "owner",
      "outputs": [
        {
          "internalType": "address",
          "name": "",
          "type": "address"
        }
      ],
      "stateMutability": "view",
      "type": "function"
    },
    {
      "inputs": [
        {
          "internalType": "address",
          "name": "_address",
          "type": "address"
        }
      ],
      "name": "pendingRewards",
      "outputs": [
        {
          "internalType": "uint256",
          "name": "",
          "type": "uint256"
        },
        {
          "internalType": "uint256",
          "name": "",
          "type": "uint256"
        }
      ],
      "stateMutability": "view",
      "type": "function"
    },
    {
      "inputs": [],
      "name": "renounceOwnership",
      "outputs": [],
      "stateMutability": "nonpayable",
      "type": "function"
    },
    {
      "inputs": [
        {
          "internalType": "uint256",
          "name": "",
          "type": "uint256"
        },
        {
          "internalType": "uint256",
          "name": "",
          "type": "uint256"
        }
      ],
      "name": "rewardRounds",
      "outputs": [
        {
          "internalType": "uint256",
          "name": "",
          "type": "uint256"
        }
      ],
      "stateMutability": "view",
      "type": "function"
    },
    {
      "inputs": [],
      "name": "rewardToken1",
      "outputs": [
        {
          "internalType": "contract IERC20",
          "name": "",
          "type": "address"
        }
      ],
      "stateMutability": "view",
      "type": "function"
    },
    {
      "inputs": [],
      "name": "rewardToken2",
      "outputs": [
        {
          "internalType": "contract IERC20",
          "name": "",
          "type": "address"
        }
      ],
      "stateMutability": "view",
      "type": "function"
    },
    {
      "inputs": [
        {
          "internalType": "address",
          "name": "_boosterAddress",
          "type": "address"
        }
      ],
      "name": "setBoosterAddress",
      "outputs": [],
      "stateMutability": "nonpayable",
      "type": "function"
    },
    {
      "inputs": [
        {
          "internalType": "uint256",
          "name": "_amount",
          "type": "uint256"
        }
      ],
      "name": "stake",
      "outputs": [],
      "stateMutability": "nonpayable",
      "type": "function"
    },
    {
      "inputs": [
        {
          "internalType": "address",
          "name": "",
          "type": "address"
        }
      ],
      "name": "stakers",
      "outputs": [
        {
          "internalType": "uint256",
          "name": "amount",
          "type": "uint256"
        },
        {
          "internalType": "uint256",
          "name": "lastRewardRound",
          "type": "uint256"
        }
      ],
      "stateMutability": "view",
      "type": "function"
    },
    {
      "inputs": [],
      "name": "token",
      "outputs": [
        {
          "internalType": "address",
          "name": "",
          "type": "address"
        }
      ],
      "stateMutability": "view",
      "type": "function"
    },
    {
      "inputs": [],
      "name": "totalStaked",
      "outputs": [
        {
          "internalType": "uint256",
          "name": "",
          "type": "uint256"
        }
      ],
      "stateMutability": "view",
      "type": "function"
    },
    {
      "inputs": [
        {
          "internalType": "address",
          "name": "newOwner",
          "type": "address"
        }
      ],
      "name": "transferOwnership",
      "outputs": [],
      "stateMutability": "nonpayable",
      "type": "function"
    },
    {
      "inputs": [
        {
          "internalType": "uint256",
          "name": "_amount",
          "type": "uint256"
        }
      ],
      "name": "unstake",
      "outputs": [],
      "stateMutability": "nonpayable",
      "type": "function"
    }
  ],
  "bytecode": "0x60806040523480156200001157600080fd5b506040516200268338038062002683833981810160405281019062000037919062000305565b33600073ffffffffffffffffffffffffffffffffffffffff168173ffffffffffffffffffffffffffffffffffffffff1603620000ad5760006040517f1e4fbdf7000000000000000000000000000000000000000000000000000000008152600401620000a4919062000372565b60405180910390fd5b620000be816200019260201b60201c565b506001808190555082600260006101000a81548173ffffffffffffffffffffffffffffffffffffffff021916908373ffffffffffffffffffffffffffffffffffffffff16021790555081600360006101000a81548173ffffffffffffffffffffffffffffffffffffffff021916908373ffffffffffffffffffffffffffffffffffffffff16021790555080600460006101000a81548173ffffffffffffffffffffffffffffffffffffffff021916908373ffffffffffffffffffffffffffffffffffffffff1602179055505050506200038f565b60008060009054906101000a900473ffffffffffffffffffffffffffffffffffffffff169050816000806101000a81548173ffffffffffffffffffffffffffffffffffffffff021916908373ffffffffffffffffffffffffffffffffffffffff1602179055508173ffffffffffffffffffffffffffffffffffffffff168173ffffffffffffffffffffffffffffffffffffffff167f8be0079c531659141344cd1fd0a4f28419497f9722a3daafe3b4186f6b6457e060405160405180910390a35050565b600080fd5b600073ffffffffffffffffffffffffffffffffffffffff82169050919050565b600062000288826200025b565b9050919050565b6200029a816200027b565b8114620002a657600080fd5b50565b600081519050620002ba816200028f565b92915050565b6000620002cd826200027b565b9050919050565b620002df81620002c0565b8114620002eb57600080fd5b50565b600081519050620002ff81620002d4565b92915050565b60008060006060848603121562000321576200032062000256565b5b60006200033186828701620002a9565b93505060206200034486828701620002ee565b92505060406200035786828701620002ee565b9150509250925092565b6200036c816200027b565b82525050565b600060208201905062000389600083018462000361565b92915050565b6122e4806200039f6000396000f3fe608060405234801561001057600080fd5b506004361061010b5760003560e01c80638da5cb5b116100a2578063d61a47f111610071578063d61a47f11461026e578063df6c39fb1461028c578063e6975964146102a8578063f2fde38b146102d8578063fc0c546a146102f45761010b565b80638da5cb5b146101e55780639168ae7214610203578063a694fc3a14610234578063a99c308b146102505761010b565b80636f28d688116100de5780636f28d688146101835780636ff1c9bc146101a1578063715018a6146101bd578063817b1cd2146101c75761010b565b8063134928b0146101105780632e17de781461012c57806331d7a262146101485780634641257d14610179575b600080fd5b61012a60048036038101906101259190611967565b610312565b005b610146600480360381019061014191906119ca565b61035e565b005b610162600480360381019061015d9190611967565b610789565b604051610170929190611a06565b60405180910390f35b610181610962565b005b61018b610c5c565b6040516101989190611a8e565b60405180910390f35b6101bb60048036038101906101b69190611ae7565b610c82565b005b6101c5610ee8565b005b6101cf610efc565b6040516101dc9190611b14565b60405180910390f35b6101ed610f02565b6040516101fa9190611b3e565b60405180910390f35b61021d60048036038101906102189190611967565b610f2b565b60405161022b929190611a06565b60405180910390f35b61024e600480360381019061024991906119ca565b610f4f565b005b61025861110b565b6040516102659190611b3e565b60405180910390f35b610276611131565b6040516102839190611a8e565b60405180910390f35b6102a660048036038101906102a19190611b59565b611157565b005b6102c260048036038101906102bd9190611b59565b6112c8565b6040516102cf9190611b14565b60405180910390f35b6102f260048036038101906102ed9190611967565b611300565b005b6102fc611386565b6040516103099190611b3e565b60405180910390f35b61031a6113ac565b80600860006101000a81548173ffffffffffffffffffffffffffffffffffffffff021916908373ffffffffffffffffffffffffffffffffffffffff16021790555050565b610366611433565b6000600560003373ffffffffffffffffffffffffffffffffffffffff1673ffffffffffffffffffffffffffffffffffffffff16815260200190815260200160002090506006805490508160010154146103f4576040517f08c379a00000000000000000000000000000000000000000000000000000000081526004016103eb90611bf6565b60405180910390fd5b806000015482111561043b576040517f08c379a000000000000000000000000000000000000000000000000000000000815260040161043290611c62565b60405180910390fd5b600080600860009054906101000a900473ffffffffffffffffffffffffffffffffffffffff1673ffffffffffffffffffffffffffffffffffffffff166331d7a262336040518263ffffffff1660e01b81526004016104999190611b3e565b6040805180830381865afa1580156104b5573d6000803e3d6000fd5b505050506040513d601f19601f820116820180604052508101906104d99190611c97565b91509150600081836104eb9190611d06565b1461052b576040517f08c379a000000000000000000000000000000000000000000000000000000000815260040161052290611d86565b60405180910390fd5b60028060009054906101000a900473ffffffffffffffffffffffffffffffffffffffff1673ffffffffffffffffffffffffffffffffffffffff16632c4e722e6040518163ffffffff1660e01b8152600401602060405180830381865afa158015610599573d6000803e3d6000fd5b505050506040513d601f19601f820116820180604052508101906105bd9190611da6565b6105c79190611e02565b8484600001546105d79190611e33565b6105e19190611e67565b600860009054906101000a900473ffffffffffffffffffffffffffffffffffffffff1673ffffffffffffffffffffffffffffffffffffffff16639168ae72336040518263ffffffff1660e01b815260040161063c9190611b3e565b6040805180830381865afa158015610658573d6000803e3d6000fd5b505050506040513d601f19601f8201168201806040525081019061067c9190611f8a565b6000015111156106c1576040517f08c379a00000000000000000000000000000000000000000000000000000000081526004016106b890612003565b60405180910390fd5b838360000160008282546106d59190611e33565b9250508190555083600760008282546106ee9190611e33565b925050819055506107423385600260009054906101000a900473ffffffffffffffffffffffffffffffffffffffff1673ffffffffffffffffffffffffffffffffffffffff166114799092919063ffffffff16565b7f85082129d87b2fe11527cb1b3b7a520aeb5aa6913f88a3d8757fe40d1db02fdd3385604051610773929190612023565b60405180910390a15050506107866114f8565b50565b6000806000600560008573ffffffffffffffffffffffffffffffffffffffff1673ffffffffffffffffffffffffffffffffffffffff16815260200190815260200160002090506000806000836001015490505b600680549050811015610953576ec097ce7bc90715b34b9f10000000006006828154811061080d5761080c61204c565b5b906000526020600020906002020160006002811061082e5761082d61204c565b5b0154600560008a73ffffffffffffffffffffffffffffffffffffffff1673ffffffffffffffffffffffffffffffffffffffff1681526020019081526020016000206000015461087d9190611e67565b6108879190611e02565b836108929190611d06565b92506ec097ce7bc90715b34b9f1000000000600682815481106108b8576108b761204c565b5b90600052602060002090600202016001600281106108d9576108d861204c565b5b0154600560008a73ffffffffffffffffffffffffffffffffffffffff1673ffffffffffffffffffffffffffffffffffffffff168152602001908152602001600020600001546109289190611e67565b6109329190611e02565b8261093d9190611d06565b915060018161094c9190611d06565b90506107dc565b82829550955050505050915091565b61096a611433565b6000600560003373ffffffffffffffffffffffffffffffffffffffff1673ffffffffffffffffffffffffffffffffffffffff1681526020019081526020016000206000015490506000600560003373ffffffffffffffffffffffffffffffffffffffff1673ffffffffffffffffffffffffffffffffffffffff16815260200190815260200160002060010154905060008060005a905060006064600a83610a119190611e67565b610a1b9190611e02565b90505b60068054905085108015610a315750805a115b15610b1c576ec097ce7bc90715b34b9f100000000060068681548110610a5a57610a5961204c565b5b9060005260206000209060020201600060028110610a7b57610a7a61204c565b5b015487610a889190611e67565b610a929190611e02565b84610a9d9190611d06565b93506ec097ce7bc90715b34b9f100000000060068681548110610ac357610ac261204c565b5b9060005260206000209060020201600160028110610ae457610ae361204c565b5b015487610af19190611e67565b610afb9190611e02565b83610b069190611d06565b9250600185610b159190611d06565b9450610a1e565b84600560003373ffffffffffffffffffffffffffffffffffffffff1673ffffffffffffffffffffffffffffffffffffffff168152602001908152602001600020600101819055506000841115610bba57610bb93385600360009054906101000a900473ffffffffffffffffffffffffffffffffffffffff1673ffffffffffffffffffffffffffffffffffffffff166114799092919063ffffffff16565b5b6000831115610c1157610c103384600460009054906101000a900473ffffffffffffffffffffffffffffffffffffffff1673ffffffffffffffffffffffffffffffffffffffff166114799092919063ffffffff16565b5b7f71bab65ced2e5750775a0613be067df48ef06cf92a496ebf7663ae0660924954338585604051610c449392919061207b565b60405180910390a1505050505050610c5a6114f8565b565b600360009054906101000a900473ffffffffffffffffffffffffffffffffffffffff1681565b610c8a6113ac565b600260009054906101000a900473ffffffffffffffffffffffffffffffffffffffff1673ffffffffffffffffffffffffffffffffffffffff168173ffffffffffffffffffffffffffffffffffffffff1603610d1a576040517f08c379a0000000000000000000000000000000000000000000000000000000008152600401610d11906120fe565b60405180910390fd5b600360009054906101000a900473ffffffffffffffffffffffffffffffffffffffff1673ffffffffffffffffffffffffffffffffffffffff168173ffffffffffffffffffffffffffffffffffffffff1603610daa576040517f08c379a0000000000000000000000000000000000000000000000000000000008152600401610da1906120fe565b60405180910390fd5b600460009054906101000a900473ffffffffffffffffffffffffffffffffffffffff1673ffffffffffffffffffffffffffffffffffffffff168173ffffffffffffffffffffffffffffffffffffffff1603610e3a576040517f08c379a0000000000000000000000000000000000000000000000000000000008152600401610e31906120fe565b60405180910390fd5b610ee5610e45610f02565b8273ffffffffffffffffffffffffffffffffffffffff166370a08231306040518263ffffffff1660e01b8152600401610e7e9190611b3e565b602060405180830381865afa158015610e9b573d6000803e3d6000fd5b505050506040513d601f19601f82011682018060405250810190610ebf9190611da6565b8373ffffffffffffffffffffffffffffffffffffffff166114799092919063ffffffff16565b50565b610ef06113ac565b610efa6000611501565b565b60075481565b60008060009054906101000a900473ffffffffffffffffffffffffffffffffffffffff16905090565b60056020528060005260406000206000915090508060000154908060010154905082565b610f57611433565b6000600560003373ffffffffffffffffffffffffffffffffffffffff1673ffffffffffffffffffffffffffffffffffffffff1681526020019081526020016000209050600081600001541480610fb557506006805490508160010154145b610ff4576040517f08c379a0000000000000000000000000000000000000000000000000000000008152600401610feb90611bf6565b60405180910390fd5b818160000160008282546110089190611d06565b9250508190555081600760008282546110219190611d06565b92505081905550670de0b6b3a764000081600001541015611077576040517f08c379a000000000000000000000000000000000000000000000000000000000815260040161106e9061216a565b60405180910390fd5b6110c6333084600260009054906101000a900473ffffffffffffffffffffffffffffffffffffffff1673ffffffffffffffffffffffffffffffffffffffff166115c5909392919063ffffffff16565b7febedb8b3c678666e7f36970bc8f57abf6d8fa2e828c0da91ea5b75bf68ed101a33836040516110f7929190612023565b60405180910390a1506111086114f8565b50565b600860009054906101000a900473ffffffffffffffffffffffffffffffffffffffff1681565b600460009054906101000a900473ffffffffffffffffffffffffffffffffffffffff1681565b61115f6113ac565b611167611433565b60006007546ec097ce7bc90715b34b9f1000000000846111879190611e67565b6111919190611e02565b905060006007546ec097ce7bc90715b34b9f1000000000846111b39190611e67565b6111bd9190611e02565b90506006604051806040016040528084815260200183815250908060018154018082558091505060019003906000526020600020906002020160009091909190915090600261120d92919061189d565b50611264611219610f02565b3086600360009054906101000a900473ffffffffffffffffffffffffffffffffffffffff1673ffffffffffffffffffffffffffffffffffffffff166115c5909392919063ffffffff16565b6112ba61126f610f02565b3085600460009054906101000a900473ffffffffffffffffffffffffffffffffffffffff1673ffffffffffffffffffffffffffffffffffffffff166115c5909392919063ffffffff16565b50506112c46114f8565b5050565b600682815481106112d857600080fd5b906000526020600020906002020181600281106112f457600080fd5b01600091509150505481565b6113086113ac565b600073ffffffffffffffffffffffffffffffffffffffff168173ffffffffffffffffffffffffffffffffffffffff160361137a5760006040517f1e4fbdf70000000000000000000000000000000000000000000000000000000081526004016113719190611b3e565b60405180910390fd5b61138381611501565b50565b600260009054906101000a900473ffffffffffffffffffffffffffffffffffffffff1681565b6113b4611647565b73ffffffffffffffffffffffffffffffffffffffff166113d2610f02565b73ffffffffffffffffffffffffffffffffffffffff1614611431576113f5611647565b6040517f118cdaa70000000000000000000000000000000000000000000000000000000081526004016114289190611b3e565b60405180910390fd5b565b60026001540361146f576040517f3ee5aeb500000000000000000000000000000000000000000000000000000000815260040160405180910390fd5b6002600181905550565b6114f3838473ffffffffffffffffffffffffffffffffffffffff1663a9059cbb85856040516024016114ac929190612023565b604051602081830303815290604052915060e01b6020820180517bffffffffffffffffffffffffffffffffffffffffffffffffffffffff838183161783525050505061164f565b505050565b60018081905550565b60008060009054906101000a900473ffffffffffffffffffffffffffffffffffffffff169050816000806101000a81548173ffffffffffffffffffffffffffffffffffffffff021916908373ffffffffffffffffffffffffffffffffffffffff1602179055508173ffffffffffffffffffffffffffffffffffffffff168173ffffffffffffffffffffffffffffffffffffffff167f8be0079c531659141344cd1fd0a4f28419497f9722a3daafe3b4186f6b6457e060405160405180910390a35050565b611641848573ffffffffffffffffffffffffffffffffffffffff166323b872dd8686866040516024016115fa9392919061218a565b604051602081830303815290604052915060e01b6020820180517bffffffffffffffffffffffffffffffffffffffffffffffffffffffff838183161783525050505061164f565b50505050565b600033905090565b600061167a828473ffffffffffffffffffffffffffffffffffffffff166116e690919063ffffffff16565b9050600081511415801561169f57508080602001905181019061169d91906121f9565b155b156116e157826040517f5274afe70000000000000000000000000000000000000000000000000000000081526004016116d89190611b3e565b60405180910390fd5b505050565b60606116f4838360006116fc565b905092915050565b60608147101561174357306040517fcd78605900000000000000000000000000000000000000000000000000000000815260040161173a9190611b3e565b60405180910390fd5b6000808573ffffffffffffffffffffffffffffffffffffffff16848660405161176c9190612297565b60006040518083038185875af1925050503d80600081146117a9576040519150601f19603f3d011682016040523d82523d6000602084013e6117ae565b606091505b50915091506117be8683836117c9565b925050509392505050565b6060826117de576117d982611858565b611850565b60008251148015611806575060008473ffffffffffffffffffffffffffffffffffffffff163b145b1561184857836040517f9996b31500000000000000000000000000000000000000000000000000000000815260040161183f9190611b3e565b60405180910390fd5b819050611851565b5b9392505050565b60008151111561186b5780518082602001fd5b6040517f1425ea4200000000000000000000000000000000000000000000000000000000815260040160405180910390fd5b82600281019282156118cc579160200282015b828111156118cb5782518255916020019190600101906118b0565b5b5090506118d991906118dd565b5090565b5b808211156118f65760008160009055506001016118de565b5090565b6000604051905090565b600080fd5b600073ffffffffffffffffffffffffffffffffffffffff82169050919050565b600061193482611909565b9050919050565b61194481611929565b811461194f57600080fd5b50565b6000813590506119618161193b565b92915050565b60006020828403121561197d5761197c611904565b5b600061198b84828501611952565b91505092915050565b6000819050919050565b6119a781611994565b81146119b257600080fd5b50565b6000813590506119c48161199e565b92915050565b6000602082840312156119e0576119df611904565b5b60006119ee848285016119b5565b91505092915050565b611a0081611994565b82525050565b6000604082019050611a1b60008301856119f7565b611a2860208301846119f7565b9392505050565b6000819050919050565b6000611a54611a4f611a4a84611909565b611a2f565b611909565b9050919050565b6000611a6682611a39565b9050919050565b6000611a7882611a5b565b9050919050565b611a8881611a6d565b82525050565b6000602082019050611aa36000830184611a7f565b92915050565b6000611ab482611929565b9050919050565b611ac481611aa9565b8114611acf57600080fd5b50565b600081359050611ae181611abb565b92915050565b600060208284031215611afd57611afc611904565b5b6000611b0b84828501611ad2565b91505092915050565b6000602082019050611b2960008301846119f7565b92915050565b611b3881611929565b82525050565b6000602082019050611b536000830184611b2f565b92915050565b60008060408385031215611b7057611b6f611904565b5b6000611b7e858286016119b5565b9250506020611b8f858286016119b5565b9150509250929050565b600082825260208201905092915050565b7f50454e44494e475f524557415244530000000000000000000000000000000000600082015250565b6000611be0600f83611b99565b9150611beb82611baa565b602082019050919050565b60006020820190508181036000830152611c0f81611bd3565b9050919050565b7f494e56414c49445f414d4f554e54000000000000000000000000000000000000600082015250565b6000611c4c600e83611b99565b9150611c5782611c16565b602082019050919050565b60006020820190508181036000830152611c7b81611c3f565b9050919050565b600081519050611c918161199e565b92915050565b60008060408385031215611cae57611cad611904565b5b6000611cbc85828601611c82565b9250506020611ccd85828601611c82565b9150509250929050565b7f4e487b7100000000000000000000000000000000000000000000000000000000600052601160045260246000fd5b6000611d1182611994565b9150611d1c83611994565b9250828201905080821115611d3457611d33611cd7565b5b92915050565b7f50454e44494e475f424f4f53545f524557415244530000000000000000000000600082015250565b6000611d70601583611b99565b9150611d7b82611d3a565b602082019050919050565b60006020820190508181036000830152611d9f81611d63565b9050919050565b600060208284031215611dbc57611dbb611904565b5b6000611dca84828501611c82565b91505092915050565b7f4e487b7100000000000000000000000000000000000000000000000000000000600052601260045260246000fd5b6000611e0d82611994565b9150611e1883611994565b925082611e2857611e27611dd3565b5b828204905092915050565b6000611e3e82611994565b9150611e4983611994565b9250828203905081811115611e6157611e60611cd7565b5b92915050565b6000611e7282611994565b9150611e7d83611994565b9250828202611e8b81611994565b91508282048414831517611ea257611ea1611cd7565b5b5092915050565b600080fd5b6000601f19601f8301169050919050565b7f4e487b7100000000000000000000000000000000000000000000000000000000600052604160045260246000fd5b611ef782611eae565b810181811067ffffffffffffffff82111715611f1657611f15611ebf565b5b80604052505050565b6000611f296118fa565b9050611f358282611eee565b919050565b600060408284031215611f5057611f4f611ea9565b5b611f5a6040611f1f565b90506000611f6a84828501611c82565b6000830152506020611f7e84828501611c82565b60208301525092915050565b600060408284031215611fa057611f9f611904565b5b6000611fae84828501611f3a565b91505092915050565b7f494e56414c49445f424f4f53545f414d4f554e54000000000000000000000000600082015250565b6000611fed601483611b99565b9150611ff882611fb7565b602082019050919050565b6000602082019050818103600083015261201c81611fe0565b9050919050565b60006040820190506120386000830185611b2f565b61204560208301846119f7565b9392505050565b7f4e487b7100000000000000000000000000000000000000000000000000000000600052603260045260246000fd5b60006060820190506120906000830186611b2f565b61209d60208301856119f7565b6120aa60408301846119f7565b949350505050565b7f43414e4e4f545f57495448445241575f4c4f434b45445f544f4b454e00000000600082015250565b60006120e8601c83611b99565b91506120f3826120b2565b602082019050919050565b60006020820190508181036000830152612117816120db565b9050919050565b7f4d494e494d554d5f5354414b455f414d4f554e54000000000000000000000000600082015250565b6000612154601483611b99565b915061215f8261211e565b602082019050919050565b6000602082019050818103600083015261218381612147565b9050919050565b600060608201905061219f6000830186611b2f565b6121ac6020830185611b2f565b6121b960408301846119f7565b949350505050565b60008115159050919050565b6121d6816121c1565b81146121e157600080fd5b50565b6000815190506121f3816121cd565b92915050565b60006020828403121561220f5761220e611904565b5b600061221d848285016121e4565b91505092915050565b600081519050919050565b600081905092915050565b60005b8381101561225a57808201518184015260208101905061223f565b60008484015250505050565b600061227182612226565b61227b8185612231565b935061228b81856020860161223c565b80840191505092915050565b60006122a38284612266565b91508190509291505056fea26469706673582212205e514f8fc60bfb5a7045d0b3d249012aa236654d9ced25611155e9211001e5ec64736f6c63430008180033",
  "linkReferences": {},
  "deployedLinkReferences": {}
}