{
  "_format": "hh-sol-artifact-1",
  "contractName": "TokenStaker",
  "sourceName": "contracts/TokenStaker.sol",
  "abi": [
    {
      "inputs": [
        {
          "internalType": "contract IERC20",
          "name": "_token",
          "type": "address"
        },
        {
          "internalType": "contract IERC20",
          "name": "_rewardToken1",
          "type": "address"
        },
        {
          "internalType": "contract IERC20",
          "name": "_rewardToken2",
          "type": "address"
        }
      ],
      "stateMutability": "nonpayable",
      "type": "constructor"
    },
    {
      "inputs": [
        {
          "internalType": "address",
          "name": "target",
          "type": "address"
        }
      ],
      "name": "AddressEmptyCode",
      "type": "error"
    },
    {
      "inputs": [
        {
          "internalType": "address",
          "name": "account",
          "type": "address"
        }
      ],
      "name": "AddressInsufficientBalance",
      "type": "error"
    },
    {
      "inputs": [],
      "name": "FailedInnerCall",
      "type": "error"
    },
    {
      "inputs": [
        {
          "internalType": "address",
          "name": "owner",
          "type": "address"
        }
      ],
      "name": "OwnableInvalidOwner",
      "type": "error"
    },
    {
      "inputs": [
        {
          "internalType": "address",
          "name": "account",
          "type": "address"
        }
      ],
      "name": "OwnableUnauthorizedAccount",
      "type": "error"
    },
    {
      "inputs": [],
      "name": "ReentrancyGuardReentrantCall",
      "type": "error"
    },
    {
      "inputs": [
        {
          "internalType": "address",
          "name": "token",
          "type": "address"
        }
      ],
      "name": "SafeERC20FailedOperation",
      "type": "error"
    },
    {
      "anonymous": false,
      "inputs": [
        {
          "indexed": false,
          "internalType": "address",
          "name": "wallet",
          "type": "address"
        },
        {
          "indexed": false,
          "internalType": "uint256",
          "name": "amountToken1",
          "type": "uint256"
        },
        {
          "indexed": false,
          "internalType": "uint256",
          "name": "amountToken2",
          "type": "uint256"
        }
      ],
      "name": "Harvest",
      "type": "event"
    },
    {
      "anonymous": false,
      "inputs": [
        {
          "indexed": true,
          "internalType": "address",
          "name": "previousOwner",
          "type": "address"
        },
        {
          "indexed": true,
          "internalType": "address",
          "name": "newOwner",
          "type": "address"
        }
      ],
      "name": "OwnershipTransferred",
      "type": "event"
    },
    {
      "anonymous": false,
      "inputs": [
        {
          "indexed": false,
          "internalType": "address",
          "name": "wallet",
          "type": "address"
        },
        {
          "indexed": false,
          "internalType": "uint256",
          "name": "amount",
          "type": "uint256"
        }
      ],
      "name": "Stake",
      "type": "event"
    },
    {
      "anonymous": false,
      "inputs": [
        {
          "indexed": false,
          "internalType": "address",
          "name": "wallet",
          "type": "address"
        },
        {
          "indexed": false,
          "internalType": "uint256",
          "name": "amount",
          "type": "uint256"
        }
      ],
      "name": "Unstake",
      "type": "event"
    },
    {
      "inputs": [],
      "name": "boosterAddress",
      "outputs": [
        {
          "internalType": "address",
          "name": "",
          "type": "address"
        }
      ],
      "stateMutability": "view",
      "type": "function"
    },
    {
      "inputs": [
        {
          "internalType": "uint256",
          "name": "rewardAmount1",
          "type": "uint256"
        },
        {
          "internalType": "uint256",
          "name": "rewardAmount2",
          "type": "uint256"
        }
      ],
      "name": "distributeRewards",
      "outputs": [],
      "stateMutability": "nonpayable",
      "type": "function"
    },
    {
      "inputs": [
        {
          "internalType": "contract IERC20",
          "name": "tokenAddress",
          "type": "address"
        }
      ],
      "name": "emergencyWithdraw",
      "outputs": [],
      "stateMutability": "nonpayable",
      "type": "function"
    },
    {
      "inputs": [],
      "name": "empty",
      "outputs": [],
      "stateMutability": "nonpayable",
      "type": "function"
    },
    {
      "inputs": [],
      "name": "harvest",
      "outputs": [],
      "stateMutability": "nonpayable",
      "type": "function"
    },
    {
      "inputs": [],
      "name": "owner",
      "outputs": [
        {
          "internalType": "address",
          "name": "",
          "type": "address"
        }
      ],
      "stateMutability": "view",
      "type": "function"
    },
    {
      "inputs": [
        {
          "internalType": "address",
          "name": "_address",
          "type": "address"
        }
      ],
      "name": "pendingRewards",
      "outputs": [
        {
          "internalType": "uint256",
          "name": "",
          "type": "uint256"
        },
        {
          "internalType": "uint256",
          "name": "",
          "type": "uint256"
        }
      ],
      "stateMutability": "view",
      "type": "function"
    },
    {
      "inputs": [],
      "name": "renounceOwnership",
      "outputs": [],
      "stateMutability": "nonpayable",
      "type": "function"
    },
    {
      "inputs": [
        {
          "internalType": "uint256",
          "name": "",
          "type": "uint256"
        },
        {
          "internalType": "uint256",
          "name": "",
          "type": "uint256"
        }
      ],
      "name": "rewardRounds",
      "outputs": [
        {
          "internalType": "uint256",
          "name": "",
          "type": "uint256"
        }
      ],
      "stateMutability": "view",
      "type": "function"
    },
    {
      "inputs": [],
      "name": "rewardToken1",
      "outputs": [
        {
          "internalType": "contract IERC20",
          "name": "",
          "type": "address"
        }
      ],
      "stateMutability": "view",
      "type": "function"
    },
    {
      "inputs": [],
      "name": "rewardToken2",
      "outputs": [
        {
          "internalType": "contract IERC20",
          "name": "",
          "type": "address"
        }
      ],
      "stateMutability": "view",
      "type": "function"
    },
    {
      "inputs": [
        {
          "internalType": "address",
          "name": "_boosterAddress",
          "type": "address"
        }
      ],
      "name": "setBoosterAddress",
      "outputs": [],
      "stateMutability": "nonpayable",
      "type": "function"
    },
    {
      "inputs": [
        {
          "internalType": "uint256",
          "name": "_amount",
          "type": "uint256"
        }
      ],
      "name": "stake",
      "outputs": [],
      "stateMutability": "nonpayable",
      "type": "function"
    },
    {
      "inputs": [
        {
          "internalType": "address",
          "name": "",
          "type": "address"
        }
      ],
      "name": "stakers",
      "outputs": [
        {
          "internalType": "uint256",
          "name": "amount",
          "type": "uint256"
        },
        {
          "internalType": "uint256",
          "name": "lastRewardRound",
          "type": "uint256"
        }
      ],
      "stateMutability": "view",
      "type": "function"
    },
    {
      "inputs": [],
      "name": "token",
      "outputs": [
        {
          "internalType": "contract IERC20",
          "name": "",
          "type": "address"
        }
      ],
      "stateMutability": "view",
      "type": "function"
    },
    {
      "inputs": [],
      "name": "totalStaked",
      "outputs": [
        {
          "internalType": "uint256",
          "name": "",
          "type": "uint256"
        }
      ],
      "stateMutability": "view",
      "type": "function"
    },
    {
      "inputs": [
        {
          "internalType": "address",
          "name": "newOwner",
          "type": "address"
        }
      ],
      "name": "transferOwnership",
      "outputs": [],
      "stateMutability": "nonpayable",
      "type": "function"
    },
    {
      "inputs": [
        {
          "internalType": "uint256",
          "name": "_amount",
          "type": "uint256"
        }
      ],
      "name": "unstake",
      "outputs": [],
      "stateMutability": "nonpayable",
      "type": "function"
    }
  ],
  "bytecode": "0x60806040523480156200001157600080fd5b5060405162002828380380620028288339818101604052810190620000379190620002d4565b33600073ffffffffffffffffffffffffffffffffffffffff168173ffffffffffffffffffffffffffffffffffffffff1603620000ad5760006040517f1e4fbdf7000000000000000000000000000000000000000000000000000000008152600401620000a4919062000341565b60405180910390fd5b620000be816200019260201b60201c565b506001808190555082600260006101000a81548173ffffffffffffffffffffffffffffffffffffffff021916908373ffffffffffffffffffffffffffffffffffffffff16021790555081600360006101000a81548173ffffffffffffffffffffffffffffffffffffffff021916908373ffffffffffffffffffffffffffffffffffffffff16021790555080600460006101000a81548173ffffffffffffffffffffffffffffffffffffffff021916908373ffffffffffffffffffffffffffffffffffffffff1602179055505050506200035e565b60008060009054906101000a900473ffffffffffffffffffffffffffffffffffffffff169050816000806101000a81548173ffffffffffffffffffffffffffffffffffffffff021916908373ffffffffffffffffffffffffffffffffffffffff1602179055508173ffffffffffffffffffffffffffffffffffffffff168173ffffffffffffffffffffffffffffffffffffffff167f8be0079c531659141344cd1fd0a4f28419497f9722a3daafe3b4186f6b6457e060405160405180910390a35050565b600080fd5b600073ffffffffffffffffffffffffffffffffffffffff82169050919050565b600062000288826200025b565b9050919050565b60006200029c826200027b565b9050919050565b620002ae816200028f565b8114620002ba57600080fd5b50565b600081519050620002ce81620002a3565b92915050565b600080600060608486031215620002f057620002ef62000256565b5b60006200030086828701620002bd565b93505060206200031386828701620002bd565b92505060406200032686828701620002bd565b9150509250925092565b6200033b816200027b565b82525050565b600060208201905062000358600083018462000330565b92915050565b6124ba806200036e6000396000f3fe608060405234801561001057600080fd5b50600436106101165760003560e01c80639168ae72116100a2578063df6c39fb11610071578063df6c39fb14610297578063e6975964146102b3578063f2a75fe4146102e3578063f2fde38b146102ed578063fc0c546a1461030957610116565b80639168ae721461020e578063a694fc3a1461023f578063a99c308b1461025b578063d61a47f11461027957610116565b80636f28d688116100e95780636f28d6881461018e5780636ff1c9bc146101ac578063715018a6146101c8578063817b1cd2146101d25780638da5cb5b146101f057610116565b8063134928b01461011b5780632e17de781461013757806331d7a262146101535780634641257d14610184575b600080fd5b61013560048036038101906101309190611c55565b610327565b005b610151600480360381019061014c9190611cb8565b610373565b005b61016d60048036038101906101689190611c55565b61069a565b60405161017b929190611cf4565b60405180910390f35b61018c610873565b005b610196610b6d565b6040516101a39190611d7c565b60405180910390f35b6101c660048036038101906101c19190611dd5565b610b93565b005b6101d0610df9565b005b6101da610e0d565b6040516101e79190611e02565b60405180910390f35b6101f8610e13565b6040516102059190611e2c565b60405180910390f35b61022860048036038101906102239190611c55565b610e3c565b604051610236929190611cf4565b60405180910390f35b61025960048036038101906102549190611cb8565b610e60565b005b610263611026565b6040516102709190611e2c565b60405180910390f35b61028161104c565b60405161028e9190611d7c565b60405180910390f35b6102b160048036038101906102ac9190611e47565b611072565b005b6102cd60048036038101906102c89190611e47565b6111e3565b6040516102da9190611e02565b60405180910390f35b6102eb61121b565b005b61030760048036038101906103029190611c55565b6115ee565b005b610311611674565b60405161031e9190611d7c565b60405180910390f35b61032f61169a565b80600860006101000a81548173ffffffffffffffffffffffffffffffffffffffff021916908373ffffffffffffffffffffffffffffffffffffffff16021790555050565b61037b611721565b6000600560003373ffffffffffffffffffffffffffffffffffffffff1673ffffffffffffffffffffffffffffffffffffffff1681526020019081526020016000209050600680549050816001015414610409576040517f08c379a000000000000000000000000000000000000000000000000000000000815260040161040090611ee4565b60405180910390fd5b8060000154821115610450576040517f08c379a000000000000000000000000000000000000000000000000000000000815260040161044790611f50565b60405180910390fd5b600073ffffffffffffffffffffffffffffffffffffffff16600860009054906101000a900473ffffffffffffffffffffffffffffffffffffffff1673ffffffffffffffffffffffffffffffffffffffff16146105d457600860009054906101000a900473ffffffffffffffffffffffffffffffffffffffff1673ffffffffffffffffffffffffffffffffffffffff16632e17de78600860009054906101000a900473ffffffffffffffffffffffffffffffffffffffff1673ffffffffffffffffffffffffffffffffffffffff16639168ae72336040518263ffffffff1660e01b815260040161053f9190611e2c565b60408051808303816000875af115801561055d573d6000803e3d6000fd5b505050506040513d601f19601f820116820180604052508101906105819190612066565b600001516040518263ffffffff1660e01b81526004016105a19190611e02565b600060405180830381600087803b1580156105bb57600080fd5b505af11580156105cf573d6000803e3d6000fd5b505050505b818160000160008282546105e891906120c2565b92505081905550816007600082825461060191906120c2565b925050819055506106553383600260009054906101000a900473ffffffffffffffffffffffffffffffffffffffff1673ffffffffffffffffffffffffffffffffffffffff166117679092919063ffffffff16565b7f85082129d87b2fe11527cb1b3b7a520aeb5aa6913f88a3d8757fe40d1db02fdd33836040516106869291906120f6565b60405180910390a1506106976117e6565b50565b6000806000600560008573ffffffffffffffffffffffffffffffffffffffff1673ffffffffffffffffffffffffffffffffffffffff16815260200190815260200160002090506000806000836001015490505b600680549050811015610864576ec097ce7bc90715b34b9f10000000006006828154811061071e5761071d61211f565b5b906000526020600020906002020160006002811061073f5761073e61211f565b5b0154600560008a73ffffffffffffffffffffffffffffffffffffffff1673ffffffffffffffffffffffffffffffffffffffff1681526020019081526020016000206000015461078e919061214e565b61079891906121bf565b836107a391906121f0565b92506ec097ce7bc90715b34b9f1000000000600682815481106107c9576107c861211f565b5b90600052602060002090600202016001600281106107ea576107e961211f565b5b0154600560008a73ffffffffffffffffffffffffffffffffffffffff1673ffffffffffffffffffffffffffffffffffffffff16815260200190815260200160002060000154610839919061214e565b61084391906121bf565b8261084e91906121f0565b915060018161085d91906121f0565b90506106ed565b82829550955050505050915091565b61087b611721565b6000600560003373ffffffffffffffffffffffffffffffffffffffff1673ffffffffffffffffffffffffffffffffffffffff1681526020019081526020016000206000015490506000600560003373ffffffffffffffffffffffffffffffffffffffff1673ffffffffffffffffffffffffffffffffffffffff16815260200190815260200160002060010154905060008060005a905060006064600a83610922919061214e565b61092c91906121bf565b90505b600680549050851080156109425750805a115b15610a2d576ec097ce7bc90715b34b9f10000000006006868154811061096b5761096a61211f565b5b906000526020600020906002020160006002811061098c5761098b61211f565b5b015487610999919061214e565b6109a391906121bf565b846109ae91906121f0565b93506ec097ce7bc90715b34b9f1000000000600686815481106109d4576109d361211f565b5b90600052602060002090600202016001600281106109f5576109f461211f565b5b015487610a02919061214e565b610a0c91906121bf565b83610a1791906121f0565b9250600185610a2691906121f0565b945061092f565b84600560003373ffffffffffffffffffffffffffffffffffffffff1673ffffffffffffffffffffffffffffffffffffffff168152602001908152602001600020600101819055506000841115610acb57610aca3385600360009054906101000a900473ffffffffffffffffffffffffffffffffffffffff1673ffffffffffffffffffffffffffffffffffffffff166117679092919063ffffffff16565b5b6000831115610b2257610b213384600460009054906101000a900473ffffffffffffffffffffffffffffffffffffffff1673ffffffffffffffffffffffffffffffffffffffff166117679092919063ffffffff16565b5b7f71bab65ced2e5750775a0613be067df48ef06cf92a496ebf7663ae0660924954338585604051610b5593929190612224565b60405180910390a1505050505050610b6b6117e6565b565b600360009054906101000a900473ffffffffffffffffffffffffffffffffffffffff1681565b610b9b61169a565b600260009054906101000a900473ffffffffffffffffffffffffffffffffffffffff1673ffffffffffffffffffffffffffffffffffffffff168173ffffffffffffffffffffffffffffffffffffffff1603610c2b576040517f08c379a0000000000000000000000000000000000000000000000000000000008152600401610c22906122a7565b60405180910390fd5b600360009054906101000a900473ffffffffffffffffffffffffffffffffffffffff1673ffffffffffffffffffffffffffffffffffffffff168173ffffffffffffffffffffffffffffffffffffffff1603610cbb576040517f08c379a0000000000000000000000000000000000000000000000000000000008152600401610cb2906122a7565b60405180910390fd5b600460009054906101000a900473ffffffffffffffffffffffffffffffffffffffff1673ffffffffffffffffffffffffffffffffffffffff168173ffffffffffffffffffffffffffffffffffffffff1603610d4b576040517f08c379a0000000000000000000000000000000000000000000000000000000008152600401610d42906122a7565b60405180910390fd5b610df6610d56610e13565b8273ffffffffffffffffffffffffffffffffffffffff166370a08231306040518263ffffffff1660e01b8152600401610d8f9190611e2c565b602060405180830381865afa158015610dac573d6000803e3d6000fd5b505050506040513d601f19601f82011682018060405250810190610dd091906122c7565b8373ffffffffffffffffffffffffffffffffffffffff166117679092919063ffffffff16565b50565b610e0161169a565b610e0b60006117ef565b565b60075481565b60008060009054906101000a900473ffffffffffffffffffffffffffffffffffffffff16905090565b60056020528060005260406000206000915090508060000154908060010154905082565b610e68611721565b670de0b6b3a7640000811015610eb3576040517f08c379a0000000000000000000000000000000000000000000000000000000008152600401610eaa90612340565b60405180910390fd5b6000600560003373ffffffffffffffffffffffffffffffffffffffff1673ffffffffffffffffffffffffffffffffffffffff1681526020019081526020016000209050600081600001541480610f1157506006805490508160010154145b610f50576040517f08c379a0000000000000000000000000000000000000000000000000000000008152600401610f4790611ee4565b60405180910390fd5b81816000016000828254610f6491906121f0565b9250508190555060068054905081600101819055508160076000828254610f8b91906121f0565b92505081905550610fe1333084600260009054906101000a900473ffffffffffffffffffffffffffffffffffffffff1673ffffffffffffffffffffffffffffffffffffffff166118b3909392919063ffffffff16565b7febedb8b3c678666e7f36970bc8f57abf6d8fa2e828c0da91ea5b75bf68ed101a33836040516110129291906120f6565b60405180910390a1506110236117e6565b50565b600860009054906101000a900473ffffffffffffffffffffffffffffffffffffffff1681565b600460009054906101000a900473ffffffffffffffffffffffffffffffffffffffff1681565b61107a61169a565b611082611721565b60006007546ec097ce7bc90715b34b9f1000000000846110a2919061214e565b6110ac91906121bf565b905060006007546ec097ce7bc90715b34b9f1000000000846110ce919061214e565b6110d891906121bf565b905060066040518060400160405280848152602001838152509080600181540180825580915050600190039060005260206000209060020201600090919091909150906002611128929190611b8b565b5061117f611134610e13565b3086600360009054906101000a900473ffffffffffffffffffffffffffffffffffffffff1673ffffffffffffffffffffffffffffffffffffffff166118b3909392919063ffffffff16565b6111d561118a610e13565b3085600460009054906101000a900473ffffffffffffffffffffffffffffffffffffffff1673ffffffffffffffffffffffffffffffffffffffff166118b3909392919063ffffffff16565b50506111df6117e6565b5050565b600682815481106111f357600080fd5b9060005260206000209060020201816002811061120f57600080fd5b01600091509150505481565b61122361169a565b600260009054906101000a900473ffffffffffffffffffffffffffffffffffffffff1673ffffffffffffffffffffffffffffffffffffffff1663a9059cbb611269610e13565b600260009054906101000a900473ffffffffffffffffffffffffffffffffffffffff1673ffffffffffffffffffffffffffffffffffffffff166370a08231306040518263ffffffff1660e01b81526004016112c49190611e2c565b602060405180830381865afa1580156112e1573d6000803e3d6000fd5b505050506040513d601f19601f8201168201806040525081019061130591906122c7565b6040518363ffffffff1660e01b81526004016113229291906120f6565b6020604051808303816000875af1158015611341573d6000803e3d6000fd5b505050506040513d601f19601f820116820180604052508101906113659190612398565b50600360009054906101000a900473ffffffffffffffffffffffffffffffffffffffff1673ffffffffffffffffffffffffffffffffffffffff1663a9059cbb6113ac610e13565b600360009054906101000a900473ffffffffffffffffffffffffffffffffffffffff1673ffffffffffffffffffffffffffffffffffffffff166370a08231306040518263ffffffff1660e01b81526004016114079190611e2c565b602060405180830381865afa158015611424573d6000803e3d6000fd5b505050506040513d601f19601f8201168201806040525081019061144891906122c7565b6040518363ffffffff1660e01b81526004016114659291906120f6565b6020604051808303816000875af1158015611484573d6000803e3d6000fd5b505050506040513d601f19601f820116820180604052508101906114a89190612398565b50600460009054906101000a900473ffffffffffffffffffffffffffffffffffffffff1673ffffffffffffffffffffffffffffffffffffffff1663a9059cbb6114ef610e13565b600460009054906101000a900473ffffffffffffffffffffffffffffffffffffffff1673ffffffffffffffffffffffffffffffffffffffff166370a08231306040518263ffffffff1660e01b815260040161154a9190611e2c565b602060405180830381865afa158015611567573d6000803e3d6000fd5b505050506040513d601f19601f8201168201806040525081019061158b91906122c7565b6040518363ffffffff1660e01b81526004016115a89291906120f6565b6020604051808303816000875af11580156115c7573d6000803e3d6000fd5b505050506040513d601f19601f820116820180604052508101906115eb9190612398565b50565b6115f661169a565b600073ffffffffffffffffffffffffffffffffffffffff168173ffffffffffffffffffffffffffffffffffffffff16036116685760006040517f1e4fbdf700000000000000000000000000000000000000000000000000000000815260040161165f9190611e2c565b60405180910390fd5b611671816117ef565b50565b600260009054906101000a900473ffffffffffffffffffffffffffffffffffffffff1681565b6116a2611935565b73ffffffffffffffffffffffffffffffffffffffff166116c0610e13565b73ffffffffffffffffffffffffffffffffffffffff161461171f576116e3611935565b6040517f118cdaa70000000000000000000000000000000000000000000000000000000081526004016117169190611e2c565b60405180910390fd5b565b60026001540361175d576040517f3ee5aeb500000000000000000000000000000000000000000000000000000000815260040160405180910390fd5b6002600181905550565b6117e1838473ffffffffffffffffffffffffffffffffffffffff1663a9059cbb858560405160240161179a9291906120f6565b604051602081830303815290604052915060e01b6020820180517bffffffffffffffffffffffffffffffffffffffffffffffffffffffff838183161783525050505061193d565b505050565b60018081905550565b60008060009054906101000a900473ffffffffffffffffffffffffffffffffffffffff169050816000806101000a81548173ffffffffffffffffffffffffffffffffffffffff021916908373ffffffffffffffffffffffffffffffffffffffff1602179055508173ffffffffffffffffffffffffffffffffffffffff168173ffffffffffffffffffffffffffffffffffffffff167f8be0079c531659141344cd1fd0a4f28419497f9722a3daafe3b4186f6b6457e060405160405180910390a35050565b61192f848573ffffffffffffffffffffffffffffffffffffffff166323b872dd8686866040516024016118e8939291906123c5565b604051602081830303815290604052915060e01b6020820180517bffffffffffffffffffffffffffffffffffffffffffffffffffffffff838183161783525050505061193d565b50505050565b600033905090565b6000611968828473ffffffffffffffffffffffffffffffffffffffff166119d490919063ffffffff16565b9050600081511415801561198d57508080602001905181019061198b9190612398565b155b156119cf57826040517f5274afe70000000000000000000000000000000000000000000000000000000081526004016119c69190611e2c565b60405180910390fd5b505050565b60606119e2838360006119ea565b905092915050565b606081471015611a3157306040517fcd786059000000000000000000000000000000000000000000000000000000008152600401611a289190611e2c565b60405180910390fd5b6000808573ffffffffffffffffffffffffffffffffffffffff168486604051611a5a919061246d565b60006040518083038185875af1925050503d8060008114611a97576040519150601f19603f3d011682016040523d82523d6000602084013e611a9c565b606091505b5091509150611aac868383611ab7565b925050509392505050565b606082611acc57611ac782611b46565b611b3e565b60008251148015611af4575060008473ffffffffffffffffffffffffffffffffffffffff163b145b15611b3657836040517f9996b315000000000000000000000000000000000000000000000000000000008152600401611b2d9190611e2c565b60405180910390fd5b819050611b3f565b5b9392505050565b600081511115611b595780518082602001fd5b6040517f1425ea4200000000000000000000000000000000000000000000000000000000815260040160405180910390fd5b8260028101928215611bba579160200282015b82811115611bb9578251825591602001919060010190611b9e565b5b509050611bc79190611bcb565b5090565b5b80821115611be4576000816000905550600101611bcc565b5090565b6000604051905090565b600080fd5b600073ffffffffffffffffffffffffffffffffffffffff82169050919050565b6000611c2282611bf7565b9050919050565b611c3281611c17565b8114611c3d57600080fd5b50565b600081359050611c4f81611c29565b92915050565b600060208284031215611c6b57611c6a611bf2565b5b6000611c7984828501611c40565b91505092915050565b6000819050919050565b611c9581611c82565b8114611ca057600080fd5b50565b600081359050611cb281611c8c565b92915050565b600060208284031215611cce57611ccd611bf2565b5b6000611cdc84828501611ca3565b91505092915050565b611cee81611c82565b82525050565b6000604082019050611d096000830185611ce5565b611d166020830184611ce5565b9392505050565b6000819050919050565b6000611d42611d3d611d3884611bf7565b611d1d565b611bf7565b9050919050565b6000611d5482611d27565b9050919050565b6000611d6682611d49565b9050919050565b611d7681611d5b565b82525050565b6000602082019050611d916000830184611d6d565b92915050565b6000611da282611c17565b9050919050565b611db281611d97565b8114611dbd57600080fd5b50565b600081359050611dcf81611da9565b92915050565b600060208284031215611deb57611dea611bf2565b5b6000611df984828501611dc0565b91505092915050565b6000602082019050611e176000830184611ce5565b92915050565b611e2681611c17565b82525050565b6000602082019050611e416000830184611e1d565b92915050565b60008060408385031215611e5e57611e5d611bf2565b5b6000611e6c85828601611ca3565b9250506020611e7d85828601611ca3565b9150509250929050565b600082825260208201905092915050565b7f50454e44494e475f524557415244530000000000000000000000000000000000600082015250565b6000611ece600f83611e87565b9150611ed982611e98565b602082019050919050565b60006020820190508181036000830152611efd81611ec1565b9050919050565b7f494e56414c49445f414d4f554e54000000000000000000000000000000000000600082015250565b6000611f3a600e83611e87565b9150611f4582611f04565b602082019050919050565b60006020820190508181036000830152611f6981611f2d565b9050919050565b600080fd5b6000601f19601f8301169050919050565b7f4e487b7100000000000000000000000000000000000000000000000000000000600052604160045260246000fd5b611fbe82611f75565b810181811067ffffffffffffffff82111715611fdd57611fdc611f86565b5b80604052505050565b6000611ff0611be8565b9050611ffc8282611fb5565b919050565b60008151905061201081611c8c565b92915050565b60006040828403121561202c5761202b611f70565b5b6120366040611fe6565b9050600061204684828501612001565b600083015250602061205a84828501612001565b60208301525092915050565b60006040828403121561207c5761207b611bf2565b5b600061208a84828501612016565b91505092915050565b7f4e487b7100000000000000000000000000000000000000000000000000000000600052601160045260246000fd5b60006120cd82611c82565b91506120d883611c82565b92508282039050818111156120f0576120ef612093565b5b92915050565b600060408201905061210b6000830185611e1d565b6121186020830184611ce5565b9392505050565b7f4e487b7100000000000000000000000000000000000000000000000000000000600052603260045260246000fd5b600061215982611c82565b915061216483611c82565b925082820261217281611c82565b9150828204841483151761218957612188612093565b5b5092915050565b7f4e487b7100000000000000000000000000000000000000000000000000000000600052601260045260246000fd5b60006121ca82611c82565b91506121d583611c82565b9250826121e5576121e4612190565b5b828204905092915050565b60006121fb82611c82565b915061220683611c82565b925082820190508082111561221e5761221d612093565b5b92915050565b60006060820190506122396000830186611e1d565b6122466020830185611ce5565b6122536040830184611ce5565b949350505050565b7f43414e4e4f545f57495448445241575f4c4f434b45445f544f4b454e00000000600082015250565b6000612291601c83611e87565b915061229c8261225b565b602082019050919050565b600060208201905081810360008301526122c081612284565b9050919050565b6000602082840312156122dd576122dc611bf2565b5b60006122eb84828501612001565b91505092915050565b7f4d494e494d554d5f5354414b455f414d4f554e54000000000000000000000000600082015250565b600061232a601483611e87565b9150612335826122f4565b602082019050919050565b600060208201905081810360008301526123598161231d565b9050919050565b60008115159050919050565b61237581612360565b811461238057600080fd5b50565b6000815190506123928161236c565b92915050565b6000602082840312156123ae576123ad611bf2565b5b60006123bc84828501612383565b91505092915050565b60006060820190506123da6000830186611e1d565b6123e76020830185611e1d565b6123f46040830184611ce5565b949350505050565b600081519050919050565b600081905092915050565b60005b83811015612430578082015181840152602081019050612415565b60008484015250505050565b6000612447826123fc565b6124518185612407565b9350612461818560208601612412565b80840191505092915050565b6000612479828461243c565b91508190509291505056fea2646970667358221220fdb1494a923345f395ecc12d5f44c502ed4d256485f3de2f8495fd8a39744f7064736f6c63430008180033",
  "linkReferences": {},
  "deployedLinkReferences": {}
}