{
  "_format": "hh-sol-artifact-1",
  "contractName": "LiraDaoPresale",
  "sourceName": "contracts/LiraDaoPresale.sol",
  "abi": [
    {
      "inputs": [
        {
          "internalType": "address",
          "name": "_token",
          "type": "address"
        }
      ],
      "stateMutability": "nonpayable",
      "type": "constructor"
    },
    {
      "anonymous": false,
      "inputs": [
        {
          "indexed": true,
          "internalType": "address",
          "name": "previousOwner",
          "type": "address"
        },
        {
          "indexed": true,
          "internalType": "address",
          "name": "newOwner",
          "type": "address"
        }
      ],
      "name": "OwnershipTransferred",
      "type": "event"
    },
    {
      "anonymous": false,
      "inputs": [
        {
          "indexed": false,
          "internalType": "address",
          "name": "to_",
          "type": "address"
        },
        {
          "indexed": false,
          "internalType": "uint256",
          "name": "input_",
          "type": "uint256"
        },
        {
          "indexed": false,
          "internalType": "uint256",
          "name": "amount_",
          "type": "uint256"
        },
        {
          "indexed": false,
          "internalType": "uint256",
          "name": "bonus_",
          "type": "uint256"
        }
      ],
      "name": "Sell",
      "type": "event"
    },
    {
      "inputs": [
        {
          "internalType": "uint256",
          "name": "",
          "type": "uint256"
        }
      ],
      "name": "_rounds",
      "outputs": [
        {
          "internalType": "uint256",
          "name": "start",
          "type": "uint256"
        },
        {
          "internalType": "uint256",
          "name": "end",
          "type": "uint256"
        },
        {
          "internalType": "uint256",
          "name": "bonus",
          "type": "uint256"
        },
        {
          "internalType": "uint256",
          "name": "number",
          "type": "uint256"
        }
      ],
      "stateMutability": "view",
      "type": "function"
    },
    {
      "inputs": [],
      "name": "buy",
      "outputs": [],
      "stateMutability": "payable",
      "type": "function"
    },
    {
      "inputs": [],
      "name": "owner",
      "outputs": [
        {
          "internalType": "address",
          "name": "",
          "type": "address"
        }
      ],
      "stateMutability": "view",
      "type": "function"
    },
    {
      "inputs": [
        {
          "internalType": "uint256",
          "name": "amount_",
          "type": "uint256"
        }
      ],
      "name": "quoteBuy",
      "outputs": [
        {
          "internalType": "uint256",
          "name": "",
          "type": "uint256"
        }
      ],
      "stateMutability": "view",
      "type": "function"
    },
    {
      "inputs": [],
      "name": "renounceOwnership",
      "outputs": [],
      "stateMutability": "nonpayable",
      "type": "function"
    },
    {
      "inputs": [],
      "name": "round",
      "outputs": [
        {
          "components": [
            {
              "internalType": "uint256",
              "name": "start",
              "type": "uint256"
            },
            {
              "internalType": "uint256",
              "name": "end",
              "type": "uint256"
            },
            {
              "internalType": "uint256",
              "name": "bonus",
              "type": "uint256"
            },
            {
              "internalType": "uint256",
              "name": "number",
              "type": "uint256"
            }
          ],
          "internalType": "struct LiraDaoPresale.Round",
          "name": "round_",
          "type": "tuple"
        }
      ],
      "stateMutability": "view",
      "type": "function"
    },
    {
      "inputs": [
        {
          "internalType": "uint256[]",
          "name": "bonuses_",
          "type": "uint256[]"
        },
        {
          "internalType": "uint256",
          "name": "duration_",
          "type": "uint256"
        }
      ],
      "name": "start",
      "outputs": [],
      "stateMutability": "nonpayable",
      "type": "function"
    },
    {
      "inputs": [],
      "name": "started",
      "outputs": [
        {
          "internalType": "bool",
          "name": "started_",
          "type": "bool"
        }
      ],
      "stateMutability": "view",
      "type": "function"
    },
    {
      "inputs": [],
      "name": "token",
      "outputs": [
        {
          "internalType": "contract IERC20",
          "name": "",
          "type": "address"
        }
      ],
      "stateMutability": "view",
      "type": "function"
    },
    {
      "inputs": [
        {
          "internalType": "address",
          "name": "newOwner",
          "type": "address"
        }
      ],
      "name": "transferOwnership",
      "outputs": [],
      "stateMutability": "nonpayable",
      "type": "function"
    },
    {
      "inputs": [],
      "name": "withdraw",
      "outputs": [],
      "stateMutability": "payable",
      "type": "function"
    },
    {
      "inputs": [],
      "name": "withdrawToken",
      "outputs": [],
      "stateMutability": "nonpayable",
      "type": "function"
    }
  ],
  "bytecode": "0x60a06040523480156200001157600080fd5b5060405162002191380380620021918339818101604052810190620000379190620001c8565b620000576200004b6200009260201b60201c565b6200009a60201b60201c565b8073ffffffffffffffffffffffffffffffffffffffff1660808173ffffffffffffffffffffffffffffffffffffffff168152505050620001fa565b600033905090565b60008060009054906101000a900473ffffffffffffffffffffffffffffffffffffffff169050816000806101000a81548173ffffffffffffffffffffffffffffffffffffffff021916908373ffffffffffffffffffffffffffffffffffffffff1602179055508173ffffffffffffffffffffffffffffffffffffffff168173ffffffffffffffffffffffffffffffffffffffff167f8be0079c531659141344cd1fd0a4f28419497f9722a3daafe3b4186f6b6457e060405160405180910390a35050565b600080fd5b600073ffffffffffffffffffffffffffffffffffffffff82169050919050565b6000620001908262000163565b9050919050565b620001a28162000183565b8114620001ae57600080fd5b50565b600081519050620001c28162000197565b92915050565b600060208284031215620001e157620001e06200015e565b5b6000620001f184828501620001b1565b91505092915050565b608051611f5f620002326000396000818161093b01528181610a3401528181610b9301528181610c2d0152610cf80152611f5f6000f3fe6080604052600436106100a75760003560e01c806383cbc5d41161006457806383cbc5d4146101895780638da5cb5b146101c9578063a6f2ae3a146101f4578063ca628c78146101fe578063f2fde38b14610215578063fc0c546a1461023e576100a7565b8063146ca531146100ac5780631f2698ab146100d75780633ccfd60b146101025780634beb394c1461010c5780635783826814610149578063715018a614610172575b600080fd5b3480156100b857600080fd5b506100c1610269565b6040516100ce9190611257565b60405180910390f35b3480156100e357600080fd5b506100ec61040e565b6040516100f9919061128d565b60405180910390f35b61010a61045d565b005b34801561011857600080fd5b50610133600480360381019061012e91906112e8565b61051e565b6040516101409190611324565b60405180910390f35b34801561015557600080fd5b50610170600480360381019061016b9190611498565b6105e6565b005b34801561017e57600080fd5b50610187610740565b005b34801561019557600080fd5b506101b060048036038101906101ab91906112e8565b610754565b6040516101c094939291906114f4565b60405180910390f35b3480156101d557600080fd5b506101de610794565b6040516101eb919061157a565b60405180910390f35b6101fc6107bd565b005b34801561020a57600080fd5b50610213610ac0565b005b34801561022157600080fd5b5061023c600480360381019061023791906115c1565b610c73565b005b34801561024a57600080fd5b50610253610cf6565b604051610260919061164d565b60405180910390f35b6102716111c1565b6000600180549050116102b9576040517f08c379a00000000000000000000000000000000000000000000000000000000081526004016102b0906116c5565b60405180910390fd5b60018080805490506102cb9190611714565b815481106102dc576102db611748565b5b906000526020600020906004020160010154421115610330576040517f08c379a0000000000000000000000000000000000000000000000000000000008152600401610327906117c3565b60405180910390fd5b60005b600180549050811015610409576001818154811061035457610353611748565b5b906000526020600020906004020160000154421015801561039a57506001818154811061038457610383611748565b5b9060005260206000209060040201600101544211155b156103fc57600181815481106103b3576103b2611748565b5b906000526020600020906004020160405180608001604052908160008201548152602001600182015481526020016002820154815260200160038201548152505091505061040b565b8080600101915050610333565b505b90565b600080600180549050118015610458575060018080805490506104319190611714565b8154811061044257610441611748565b5b9060005260206000209060040201600101544211155b905090565b610465610d1a565b600080610470610794565b73ffffffffffffffffffffffffffffffffffffffff164760405161049390611814565b60006040518083038185875af1925050503d80600081146104d0576040519150601f19603f3d011682016040523d82523d6000602084013e6104d5565b606091505b50915091508161051a576040517f08c379a000000000000000000000000000000000000000000000000000000000815260040161051190611875565b60405180910390fd5b5050565b600064e8d4a51000821015610568576040517f08c379a000000000000000000000000000000000000000000000000000000000815260040161055f906118e1565b60405180910390fd5b6000610593620f4240610585600486610d9890919063ffffffff16565b610dae90919063ffffffff16565b905060006105c86105a2610269565b604001516105ba606485610d9890919063ffffffff16565b610dae90919063ffffffff16565b90506105dd8183610dc490919063ffffffff16565b92505050919050565b6105ee610d1a565b600060018054905014610636576040517f08c379a000000000000000000000000000000000000000000000000000000000815260040161062d906116c5565b60405180910390fd5b60005b825181101561073b57600082826106509190611901565b4261065b9190611943565b9050600060018484600161066f9190611943565b6106799190611901565b426106849190611943565b61068e9190611714565b9050600160405180608001604052808481526020018381526020018786815181106106bc576106bb611748565b5b602002602001015181526020016001866106d69190611943565b815250908060018154018082558091505060019003906000526020600020906004020160009091909190915060008201518160000155602082015181600101556040820151816002015560608201518160030155505050508080600101915050610639565b505050565b610748610d1a565b6107526000610dda565b565b6001818154811061076457600080fd5b90600052602060002090600402016000915090508060000154908060010154908060020154908060030154905084565b60008060009054906101000a900473ffffffffffffffffffffffffffffffffffffffff16905090565b600060018054905011610805576040517f08c379a00000000000000000000000000000000000000000000000000000000081526004016107fc906116c5565b60405180910390fd5b60018080805490506108179190611714565b8154811061082857610827611748565b5b90600052602060002090600402016001015442111561087c576040517f08c379a0000000000000000000000000000000000000000000000000000000008152600401610873906117c3565b60405180910390fd5b64e8d4a510003410156108c4576040517f08c379a00000000000000000000000000000000000000000000000000000000081526004016108bb906118e1565b60405180910390fd5b60006108ef620f42406108e1600434610d9890919063ffffffff16565b610dae90919063ffffffff16565b905060006109246108fe610269565b60400151610916606485610d9890919063ffffffff16565b610dae90919063ffffffff16565b90506109398183610dc490919063ffffffff16565b7f000000000000000000000000000000000000000000000000000000000000000073ffffffffffffffffffffffffffffffffffffffff166370a08231306040518263ffffffff1660e01b8152600401610992919061157a565b602060405180830381865afa1580156109af573d6000803e3d6000fd5b505050506040513d601f19601f820116820180604052508101906109d3919061198c565b1015610a14576040517f08c379a0000000000000000000000000000000000000000000000000000000008152600401610a0b90611a05565b60405180910390fd5b610a78610a1f610e9e565b610a328385610dc490919063ffffffff16565b7f000000000000000000000000000000000000000000000000000000000000000073ffffffffffffffffffffffffffffffffffffffff16610ea69092919063ffffffff16565b7f846c37eef631e0943682d87352ec117c20008eb7f425c9b85ac011a6d4774cc0610aa1610e9e565b348484604051610ab49493929190611a25565b60405180910390a15050565b610ac8610d1a565b600060018054905011610b10576040517f08c379a0000000000000000000000000000000000000000000000000000000008152600401610b07906116c5565b60405180910390fd5b6001808080549050610b229190611714565b81548110610b3357610b32611748565b5b9060005260206000209060040201600101544211610b86576040517f08c379a0000000000000000000000000000000000000000000000000000000008152600401610b7d90611ab6565b60405180910390fd5b610c71610b91610794565b7f000000000000000000000000000000000000000000000000000000000000000073ffffffffffffffffffffffffffffffffffffffff166370a08231306040518263ffffffff1660e01b8152600401610bea919061157a565b602060405180830381865afa158015610c07573d6000803e3d6000fd5b505050506040513d601f19601f82011682018060405250810190610c2b919061198c565b7f000000000000000000000000000000000000000000000000000000000000000073ffffffffffffffffffffffffffffffffffffffff16610ea69092919063ffffffff16565b565b610c7b610d1a565b600073ffffffffffffffffffffffffffffffffffffffff168173ffffffffffffffffffffffffffffffffffffffff1603610cea576040517f08c379a0000000000000000000000000000000000000000000000000000000008152600401610ce190611b48565b60405180910390fd5b610cf381610dda565b50565b7f000000000000000000000000000000000000000000000000000000000000000081565b610d22610e9e565b73ffffffffffffffffffffffffffffffffffffffff16610d40610794565b73ffffffffffffffffffffffffffffffffffffffff1614610d96576040517f08c379a0000000000000000000000000000000000000000000000000000000008152600401610d8d90611bb4565b60405180910390fd5b565b60008183610da69190611c03565b905092915050565b60008183610dbc9190611901565b905092915050565b60008183610dd29190611943565b905092915050565b60008060009054906101000a900473ffffffffffffffffffffffffffffffffffffffff169050816000806101000a81548173ffffffffffffffffffffffffffffffffffffffff021916908373ffffffffffffffffffffffffffffffffffffffff1602179055508173ffffffffffffffffffffffffffffffffffffffff168173ffffffffffffffffffffffffffffffffffffffff167f8be0079c531659141344cd1fd0a4f28419497f9722a3daafe3b4186f6b6457e060405160405180910390a35050565b600033905090565b610f278363a9059cbb60e01b8484604051602401610ec5929190611c34565b604051602081830303815290604052907bffffffffffffffffffffffffffffffffffffffffffffffffffffffff19166020820180517bffffffffffffffffffffffffffffffffffffffffffffffffffffffff8381831617835250505050610f2c565b505050565b6000610f8e826040518060400160405280602081526020017f5361666545524332303a206c6f772d6c6576656c2063616c6c206661696c65648152508573ffffffffffffffffffffffffffffffffffffffff16610ff49092919063ffffffff16565b9050600081511480610fb0575080806020019051810190610faf9190611c89565b5b610fef576040517f08c379a0000000000000000000000000000000000000000000000000000000008152600401610fe690611d28565b60405180910390fd5b505050565b6060611003848460008561100c565b90509392505050565b606082471015611051576040517f08c379a000000000000000000000000000000000000000000000000000000000815260040161104890611dba565b60405180910390fd5b6000808673ffffffffffffffffffffffffffffffffffffffff16858760405161107a9190611e40565b60006040518083038185875af1925050503d80600081146110b7576040519150601f19603f3d011682016040523d82523d6000602084013e6110bc565b606091505b50915091506110cd878383876110d9565b92505050949350505050565b6060831561113b576000835103611133576110f38561114e565b611132576040517f08c379a000000000000000000000000000000000000000000000000000000000815260040161112990611ea3565b60405180910390fd5b5b829050611146565b6111458383611171565b5b949350505050565b6000808273ffffffffffffffffffffffffffffffffffffffff163b119050919050565b6000825111156111845781518083602001fd5b806040517f08c379a00000000000000000000000000000000000000000000000000000000081526004016111b89190611f07565b60405180910390fd5b6040518060800160405280600081526020016000815260200160008152602001600081525090565b6000819050919050565b6111fc816111e9565b82525050565b60808201600082015161121860008501826111f3565b50602082015161122b60208501826111f3565b50604082015161123e60408501826111f3565b50606082015161125160608501826111f3565b50505050565b600060808201905061126c6000830184611202565b92915050565b60008115159050919050565b61128781611272565b82525050565b60006020820190506112a2600083018461127e565b92915050565b6000604051905090565b600080fd5b600080fd5b6112c5816111e9565b81146112d057600080fd5b50565b6000813590506112e2816112bc565b92915050565b6000602082840312156112fe576112fd6112b2565b5b600061130c848285016112d3565b91505092915050565b61131e816111e9565b82525050565b60006020820190506113396000830184611315565b92915050565b600080fd5b6000601f19601f8301169050919050565b7f4e487b7100000000000000000000000000000000000000000000000000000000600052604160045260246000fd5b61138d82611344565b810181811067ffffffffffffffff821117156113ac576113ab611355565b5b80604052505050565b60006113bf6112a8565b90506113cb8282611384565b919050565b600067ffffffffffffffff8211156113eb576113ea611355565b5b602082029050602081019050919050565b600080fd5b600061141461140f846113d0565b6113b5565b90508083825260208201905060208402830185811115611437576114366113fc565b5b835b81811015611460578061144c88826112d3565b845260208401935050602081019050611439565b5050509392505050565b600082601f83011261147f5761147e61133f565b5b813561148f848260208601611401565b91505092915050565b600080604083850312156114af576114ae6112b2565b5b600083013567ffffffffffffffff8111156114cd576114cc6112b7565b5b6114d98582860161146a565b92505060206114ea858286016112d3565b9150509250929050565b60006080820190506115096000830187611315565b6115166020830186611315565b6115236040830185611315565b6115306060830184611315565b95945050505050565b600073ffffffffffffffffffffffffffffffffffffffff82169050919050565b600061156482611539565b9050919050565b61157481611559565b82525050565b600060208201905061158f600083018461156b565b92915050565b61159e81611559565b81146115a957600080fd5b50565b6000813590506115bb81611595565b92915050565b6000602082840312156115d7576115d66112b2565b5b60006115e5848285016115ac565b91505092915050565b6000819050919050565b600061161361160e61160984611539565b6115ee565b611539565b9050919050565b6000611625826115f8565b9050919050565b60006116378261161a565b9050919050565b6116478161162c565b82525050565b6000602082019050611662600083018461163e565b92915050565b600082825260208201905092915050565b7f4c44545f50524553414c455f4e4f545f53544152544544000000000000000000600082015250565b60006116af601783611668565b91506116ba82611679565b602082019050919050565b600060208201905081810360008301526116de816116a2565b9050919050565b7f4e487b7100000000000000000000000000000000000000000000000000000000600052601160045260246000fd5b600061171f826111e9565b915061172a836111e9565b9250828203905081811115611742576117416116e5565b5b92915050565b7f4e487b7100000000000000000000000000000000000000000000000000000000600052603260045260246000fd5b7f4c44545f50524553414c455f454e444544000000000000000000000000000000600082015250565b60006117ad601183611668565b91506117b882611777565b602082019050919050565b600060208201905081810360008301526117dc816117a0565b9050919050565b600081905092915050565b50565b60006117fe6000836117e3565b9150611809826117ee565b600082019050919050565b600061181f826117f1565b9150819050919050565b7f4661696c656420746f2073656e64204574686572000000000000000000000000600082015250565b600061185f601483611668565b915061186a82611829565b602082019050919050565b6000602082019050818103600083015261188e81611852565b9050919050565b7f4c44545f50524553414c455f4d494e5f42555900000000000000000000000000600082015250565b60006118cb601383611668565b91506118d682611895565b602082019050919050565b600060208201905081810360008301526118fa816118be565b9050919050565b600061190c826111e9565b9150611917836111e9565b9250828202611925816111e9565b9150828204841483151761193c5761193b6116e5565b5b5092915050565b600061194e826111e9565b9150611959836111e9565b9250828201905080821115611971576119706116e5565b5b92915050565b600081519050611986816112bc565b92915050565b6000602082840312156119a2576119a16112b2565b5b60006119b084828501611977565b91505092915050565b7f4c44545f50524553414c455f494e53554646494349454e545f535550504c5900600082015250565b60006119ef601f83611668565b91506119fa826119b9565b602082019050919050565b60006020820190508181036000830152611a1e816119e2565b9050919050565b6000608082019050611a3a600083018761156b565b611a476020830186611315565b611a546040830185611315565b611a616060830184611315565b95945050505050565b7f4c44545f50524553414c455f4e4f545f454e4445440000000000000000000000600082015250565b6000611aa0601583611668565b9150611aab82611a6a565b602082019050919050565b60006020820190508181036000830152611acf81611a93565b9050919050565b7f4f776e61626c653a206e6577206f776e657220697320746865207a65726f206160008201527f6464726573730000000000000000000000000000000000000000000000000000602082015250565b6000611b32602683611668565b9150611b3d82611ad6565b604082019050919050565b60006020820190508181036000830152611b6181611b25565b9050919050565b7f4f776e61626c653a2063616c6c6572206973206e6f7420746865206f776e6572600082015250565b6000611b9e602083611668565b9150611ba982611b68565b602082019050919050565b60006020820190508181036000830152611bcd81611b91565b9050919050565b7f4e487b7100000000000000000000000000000000000000000000000000000000600052601260045260246000fd5b6000611c0e826111e9565b9150611c19836111e9565b925082611c2957611c28611bd4565b5b828204905092915050565b6000604082019050611c49600083018561156b565b611c566020830184611315565b9392505050565b611c6681611272565b8114611c7157600080fd5b50565b600081519050611c8381611c5d565b92915050565b600060208284031215611c9f57611c9e6112b2565b5b6000611cad84828501611c74565b91505092915050565b7f5361666545524332303a204552433230206f7065726174696f6e20646964206e60008201527f6f74207375636365656400000000000000000000000000000000000000000000602082015250565b6000611d12602a83611668565b9150611d1d82611cb6565b604082019050919050565b60006020820190508181036000830152611d4181611d05565b9050919050565b7f416464726573733a20696e73756666696369656e742062616c616e636520666f60008201527f722063616c6c0000000000000000000000000000000000000000000000000000602082015250565b6000611da4602683611668565b9150611daf82611d48565b604082019050919050565b60006020820190508181036000830152611dd381611d97565b9050919050565b600081519050919050565b60005b83811015611e03578082015181840152602081019050611de8565b60008484015250505050565b6000611e1a82611dda565b611e2481856117e3565b9350611e34818560208601611de5565b80840191505092915050565b6000611e4c8284611e0f565b915081905092915050565b7f416464726573733a2063616c6c20746f206e6f6e2d636f6e7472616374000000600082015250565b6000611e8d601d83611668565b9150611e9882611e57565b602082019050919050565b60006020820190508181036000830152611ebc81611e80565b9050919050565b600081519050919050565b6000611ed982611ec3565b611ee38185611668565b9350611ef3818560208601611de5565b611efc81611344565b840191505092915050565b60006020820190508181036000830152611f218184611ece565b90509291505056fea26469706673582212202648f6fa4f2ea8e66945086aea6de4133234497007c44e5b61549fa0c9da444964736f6c63430008180033",
  "linkReferences": {},
  "deployedLinkReferences": {}
}