{
  "_format": "hh-sol-artifact-1",
  "contractName": "TokenDistributor",
  "sourceName": "contracts/TokenDistributor.sol",
  "abi": [
    {
      "inputs": [
        {
          "internalType": "address",
          "name": "_token",
          "type": "address"
        }
      ],
      "stateMutability": "nonpayable",
      "type": "constructor"
    },
    {
      "inputs": [
        {
          "internalType": "address",
          "name": "owner",
          "type": "address"
        }
      ],
      "name": "OwnableInvalidOwner",
      "type": "error"
    },
    {
      "inputs": [
        {
          "internalType": "address",
          "name": "account",
          "type": "address"
        }
      ],
      "name": "OwnableUnauthorizedAccount",
      "type": "error"
    },
    {
      "anonymous": false,
      "inputs": [
        {
          "indexed": true,
          "internalType": "address",
          "name": "previousOwner",
          "type": "address"
        },
        {
          "indexed": true,
          "internalType": "address",
          "name": "newOwner",
          "type": "address"
        }
      ],
      "name": "OwnershipTransferStarted",
      "type": "event"
    },
    {
      "anonymous": false,
      "inputs": [
        {
          "indexed": true,
          "internalType": "address",
          "name": "previousOwner",
          "type": "address"
        },
        {
          "indexed": true,
          "internalType": "address",
          "name": "newOwner",
          "type": "address"
        }
      ],
      "name": "OwnershipTransferred",
      "type": "event"
    },
    {
      "inputs": [],
      "name": "acceptOwnership",
      "outputs": [],
      "stateMutability": "nonpayable",
      "type": "function"
    },
    {
      "inputs": [],
      "name": "currentDistribution",
      "outputs": [
        {
          "internalType": "uint256",
          "name": "",
          "type": "uint256"
        }
      ],
      "stateMutability": "view",
      "type": "function"
    },
    {
      "inputs": [
        {
          "components": [
            {
              "internalType": "uint256",
              "name": "amount",
              "type": "uint256"
            },
            {
              "internalType": "uint256",
              "name": "emitted",
              "type": "uint256"
            },
            {
              "internalType": "uint256",
              "name": "rate",
              "type": "uint256"
            },
            {
              "internalType": "uint256",
              "name": "cadence",
              "type": "uint256"
            }
          ],
          "internalType": "struct TokenDistributor.Distribution[]",
          "name": "_distributions",
          "type": "tuple[]"
        }
      ],
      "name": "deposit",
      "outputs": [],
      "stateMutability": "nonpayable",
      "type": "function"
    },
    {
      "inputs": [],
      "name": "distribute",
      "outputs": [],
      "stateMutability": "nonpayable",
      "type": "function"
    },
    {
      "inputs": [
        {
          "internalType": "uint256",
          "name": "",
          "type": "uint256"
        }
      ],
      "name": "distributions",
      "outputs": [
        {
          "internalType": "uint256",
          "name": "amount",
          "type": "uint256"
        },
        {
          "internalType": "uint256",
          "name": "emitted",
          "type": "uint256"
        },
        {
          "internalType": "uint256",
          "name": "rate",
          "type": "uint256"
        },
        {
          "internalType": "uint256",
          "name": "cadence",
          "type": "uint256"
        }
      ],
      "stateMutability": "view",
      "type": "function"
    },
    {
      "inputs": [],
      "name": "distributor",
      "outputs": [
        {
          "internalType": "address",
          "name": "",
          "type": "address"
        }
      ],
      "stateMutability": "view",
      "type": "function"
    },
    {
      "inputs": [],
      "name": "empty",
      "outputs": [],
      "stateMutability": "nonpayable",
      "type": "function"
    },
    {
      "inputs": [],
      "name": "lastBalance",
      "outputs": [
        {
          "internalType": "uint256",
          "name": "",
          "type": "uint256"
        }
      ],
      "stateMutability": "view",
      "type": "function"
    },
    {
      "inputs": [],
      "name": "nextDistribution",
      "outputs": [
        {
          "internalType": "uint256",
          "name": "",
          "type": "uint256"
        }
      ],
      "stateMutability": "view",
      "type": "function"
    },
    {
      "inputs": [],
      "name": "owner",
      "outputs": [
        {
          "internalType": "address",
          "name": "",
          "type": "address"
        }
      ],
      "stateMutability": "view",
      "type": "function"
    },
    {
      "inputs": [],
      "name": "pendingOwner",
      "outputs": [
        {
          "internalType": "address",
          "name": "",
          "type": "address"
        }
      ],
      "stateMutability": "view",
      "type": "function"
    },
    {
      "inputs": [],
      "name": "renounceOwnership",
      "outputs": [],
      "stateMutability": "nonpayable",
      "type": "function"
    },
    {
      "inputs": [
        {
          "internalType": "address",
          "name": "_distributor",
          "type": "address"
        }
      ],
      "name": "setDistributor",
      "outputs": [],
      "stateMutability": "nonpayable",
      "type": "function"
    },
    {
      "inputs": [],
      "name": "token",
      "outputs": [
        {
          "internalType": "contract IERC20",
          "name": "",
          "type": "address"
        }
      ],
      "stateMutability": "view",
      "type": "function"
    },
    {
      "inputs": [
        {
          "internalType": "address",
          "name": "newOwner",
          "type": "address"
        }
      ],
      "name": "transferOwnership",
      "outputs": [],
      "stateMutability": "nonpayable",
      "type": "function"
    }
  ],
  "bytecode": "0x6080604052600060065560006007553480156200001b57600080fd5b5060405162001a4238038062001a428339818101604052810190620000419190620002b9565b33600073ffffffffffffffffffffffffffffffffffffffff168173ffffffffffffffffffffffffffffffffffffffff1603620000b75760006040517f1e4fbdf7000000000000000000000000000000000000000000000000000000008152600401620000ae9190620002fc565b60405180910390fd5b620000c8816200015260201b60201c565b5080600260006101000a81548173ffffffffffffffffffffffffffffffffffffffff021916908373ffffffffffffffffffffffffffffffffffffffff16021790555033600360006101000a81548173ffffffffffffffffffffffffffffffffffffffff021916908373ffffffffffffffffffffffffffffffffffffffff1602179055505062000319565b600160006101000a81549073ffffffffffffffffffffffffffffffffffffffff021916905562000188816200018b60201b60201c565b50565b60008060009054906101000a900473ffffffffffffffffffffffffffffffffffffffff169050816000806101000a81548173ffffffffffffffffffffffffffffffffffffffff021916908373ffffffffffffffffffffffffffffffffffffffff1602179055508173ffffffffffffffffffffffffffffffffffffffff168173ffffffffffffffffffffffffffffffffffffffff167f8be0079c531659141344cd1fd0a4f28419497f9722a3daafe3b4186f6b6457e060405160405180910390a35050565b600080fd5b600073ffffffffffffffffffffffffffffffffffffffff82169050919050565b6000620002818262000254565b9050919050565b620002938162000274565b81146200029f57600080fd5b50565b600081519050620002b38162000288565b92915050565b600060208284031215620002d257620002d16200024f565b5b6000620002e284828501620002a2565b91505092915050565b620002f68162000274565b82525050565b6000602082019050620003136000830184620002eb565b92915050565b61171980620003296000396000f3fe608060405234801561001057600080fd5b50600436106100f55760003560e01c80638da5cb5b11610097578063e4fc6b6d11610066578063e4fc6b6d1461022d578063f2a75fe414610237578063f2fde38b14610241578063fc0c546a1461025d576100f5565b80638da5cb5b146101b55780638f1c56bd146101d3578063bfe10928146101f1578063e30c39781461020f576100f5565b806348ced6a7116100d357806348ced6a714610167578063715018a61461018557806375619ab51461018f57806379ba5097146101ab576100f5565b8063295a7109146100fa57806338b0789d146101165780634487d3df14610134575b600080fd5b610114600480360381019061010f91906111ad565b61027b565b005b61011e610428565b60405161012b9190611205565b60405180910390f35b61014e60048036038101906101499190611220565b61042e565b60405161015e949392919061124d565b60405180910390f35b61016f61046e565b60405161017c9190611205565b60405180910390f35b61018d610474565b005b6101a960048036038101906101a491906112f0565b610488565b005b6101b36104d4565b005b6101bd610563565b6040516101ca919061132c565b60405180910390f35b6101db61058c565b6040516101e89190611205565b60405180910390f35b6101f9610592565b604051610206919061132c565b60405180910390f35b6102176105b8565b604051610224919061132c565b60405180910390f35b6102356105e2565b005b61023f610bf0565b005b61025b600480360381019061025691906112f0565b610d36565b005b610265610de3565b60405161027291906113a6565b60405180910390f35b6000600480549050146102c3576040517f08c379a00000000000000000000000000000000000000000000000000000000081526004016102ba9061141e565b60405180910390fd5b6000805b8251811015610379578281815181106102e3576102e261143e565b5b602002602001015160000151826102fa919061149c565b915060048382815181106103115761031061143e565b5b6020026020010151908060018154018082558091505060019003906000526020600020906004020160009091909190915060008201518160000155602082015181600101556040820151816002015560608201518160030155505080806001019150506102c7565b50600260009054906101000a900473ffffffffffffffffffffffffffffffffffffffff1673ffffffffffffffffffffffffffffffffffffffff166323b872dd3330846040518463ffffffff1660e01b81526004016103d9939291906114d0565b6020604051808303816000875af11580156103f8573d6000803e3d6000fd5b505050506040513d601f19601f8201168201806040525081019061041c919061153f565b50426007819055505050565b60075481565b6004818154811061043e57600080fd5b90600052602060002090600402016000915090508060000154908060010154908060020154908060030154905084565b60065481565b61047c610e09565b6104866000610e90565b565b610490610e09565b80600360006101000a81548173ffffffffffffffffffffffffffffffffffffffff021916908373ffffffffffffffffffffffffffffffffffffffff16021790555050565b60006104de610ec1565b90508073ffffffffffffffffffffffffffffffffffffffff166104ff6105b8565b73ffffffffffffffffffffffffffffffffffffffff161461055757806040517f118cdaa700000000000000000000000000000000000000000000000000000000815260040161054e919061132c565b60405180910390fd5b61056081610e90565b50565b60008060009054906101000a900473ffffffffffffffffffffffffffffffffffffffff16905090565b60055481565b600360009054906101000a900473ffffffffffffffffffffffffffffffffffffffff1681565b6000600160009054906101000a900473ffffffffffffffffffffffffffffffffffffffff16905090565b600360009054906101000a9050506007544211610634576040517f08c379a000000000000000000000000000000000000000000000000000000000815260040161062b906115b8565b60405180910390fd5b6000600260009054906101000a900473ffffffffffffffffffffffffffffffffffffffff1673ffffffffffffffffffffffffffffffffffffffff166370a08231306040518263ffffffff1660e01b8152600401610691919061132c565b602060405180830381865afa1580156106ae573d6000803e3d6000fd5b505050506040513d601f19601f820116820180604052508101906106d291906115ed565b905060006004600654815481106106ec576106eb61143e565b5b9060005260206000209060040201600101541115610811576000600554600260009054906101000a900473ffffffffffffffffffffffffffffffffffffffff1673ffffffffffffffffffffffffffffffffffffffff166370a08231306040518263ffffffff1660e01b8152600401610764919061132c565b602060405180830381865afa158015610781573d6000803e3d6000fd5b505050506040513d601f19601f820116820180604052508101906107a591906115ed565b6107af919061161a565b9050806004600654815481106107c8576107c761143e565b5b9060005260206000209060040201600101546107e4919061161a565b6004600654815481106107fa576107f961143e565b5b906000526020600020906004020160010181905550505b60006004600654815481106108295761082861143e565b5b90600052602060002090600402016002015490506004600654815481106108535761085261143e565b5b90600052602060002090600402016002015482101561090f57600260009054906101000a900473ffffffffffffffffffffffffffffffffffffffff1673ffffffffffffffffffffffffffffffffffffffff166370a08231306040518263ffffffff1660e01b81526004016108c7919061132c565b602060405180830381865afa1580156108e4573d6000803e3d6000fd5b505050506040513d601f19601f8201168201806040525081019061090891906115ed565b905061093a565b6004600654815481106109255761092461143e565b5b90600052602060002090600402016002015490505b6000811161097d576040517f08c379a00000000000000000000000000000000000000000000000000000000081526004016109749061169a565b60405180910390fd5b600260009054906101000a900473ffffffffffffffffffffffffffffffffffffffff1673ffffffffffffffffffffffffffffffffffffffff1663a9059cbb600360009054906101000a900473ffffffffffffffffffffffffffffffffffffffff16836040518363ffffffff1660e01b81526004016109fc9291906116ba565b6020604051808303816000875af1158015610a1b573d6000803e3d6000fd5b505050506040513d601f19601f82011682018060405250810190610a3f919061153f565b5080600460065481548110610a5757610a5661143e565b5b906000526020600020906004020160010154610a73919061149c565b600460065481548110610a8957610a8861143e565b5b906000526020600020906004020160010181905550600260009054906101000a900473ffffffffffffffffffffffffffffffffffffffff1673ffffffffffffffffffffffffffffffffffffffff166370a08231306040518263ffffffff1660e01b8152600401610af9919061132c565b602060405180830381865afa158015610b16573d6000803e3d6000fd5b505050506040513d601f19601f82011682018060405250810190610b3a91906115ed565b600581905550600460065481548110610b5657610b5561143e565b5b90600052602060002090600402016003015460076000828254610b79919061149c565b92505081905550600460065481548110610b9657610b9561143e565b5b906000526020600020906004020160000154600460065481548110610bbe57610bbd61143e565b5b9060005260206000209060040201600101541115610bec576001600654610be5919061149c565b6006819055505b5050565b610bf8610e09565b600260009054906101000a900473ffffffffffffffffffffffffffffffffffffffff1673ffffffffffffffffffffffffffffffffffffffff1663a9059cbb33600260009054906101000a900473ffffffffffffffffffffffffffffffffffffffff1673ffffffffffffffffffffffffffffffffffffffff166370a08231306040518263ffffffff1660e01b8152600401610c92919061132c565b602060405180830381865afa158015610caf573d6000803e3d6000fd5b505050506040513d601f19601f82011682018060405250810190610cd391906115ed565b6040518363ffffffff1660e01b8152600401610cf09291906116ba565b6020604051808303816000875af1158015610d0f573d6000803e3d6000fd5b505050506040513d601f19601f82011682018060405250810190610d33919061153f565b50565b610d3e610e09565b80600160006101000a81548173ffffffffffffffffffffffffffffffffffffffff021916908373ffffffffffffffffffffffffffffffffffffffff1602179055508073ffffffffffffffffffffffffffffffffffffffff16610d9e610563565b73ffffffffffffffffffffffffffffffffffffffff167f38d16b8cac22d99fc7c124b9cd0de2d3fa1faef420bfe791d8c362d765e2270060405160405180910390a350565b600260009054906101000a900473ffffffffffffffffffffffffffffffffffffffff1681565b610e11610ec1565b73ffffffffffffffffffffffffffffffffffffffff16610e2f610563565b73ffffffffffffffffffffffffffffffffffffffff1614610e8e57610e52610ec1565b6040517f118cdaa7000000000000000000000000000000000000000000000000000000008152600401610e85919061132c565b60405180910390fd5b565b600160006101000a81549073ffffffffffffffffffffffffffffffffffffffff0219169055610ebe81610ec9565b50565b600033905090565b60008060009054906101000a900473ffffffffffffffffffffffffffffffffffffffff169050816000806101000a81548173ffffffffffffffffffffffffffffffffffffffff021916908373ffffffffffffffffffffffffffffffffffffffff1602179055508173ffffffffffffffffffffffffffffffffffffffff168173ffffffffffffffffffffffffffffffffffffffff167f8be0079c531659141344cd1fd0a4f28419497f9722a3daafe3b4186f6b6457e060405160405180910390a35050565b6000604051905090565b600080fd5b600080fd5b600080fd5b6000601f19601f8301169050919050565b7f4e487b7100000000000000000000000000000000000000000000000000000000600052604160045260246000fd5b610fef82610fa6565b810181811067ffffffffffffffff8211171561100e5761100d610fb7565b5b80604052505050565b6000611021610f8d565b905061102d8282610fe6565b919050565b600067ffffffffffffffff82111561104d5761104c610fb7565b5b602082029050602081019050919050565b600080fd5b600080fd5b6000819050919050565b61107b81611068565b811461108657600080fd5b50565b60008135905061109881611072565b92915050565b6000608082840312156110b4576110b3611063565b5b6110be6080611017565b905060006110ce84828501611089565b60008301525060206110e284828501611089565b60208301525060406110f684828501611089565b604083015250606061110a84828501611089565b60608301525092915050565b600061112961112484611032565b611017565b9050808382526020820190506080840283018581111561114c5761114b61105e565b5b835b818110156111755780611161888261109e565b84526020840193505060808101905061114e565b5050509392505050565b600082601f83011261119457611193610fa1565b5b81356111a4848260208601611116565b91505092915050565b6000602082840312156111c3576111c2610f97565b5b600082013567ffffffffffffffff8111156111e1576111e0610f9c565b5b6111ed8482850161117f565b91505092915050565b6111ff81611068565b82525050565b600060208201905061121a60008301846111f6565b92915050565b60006020828403121561123657611235610f97565b5b600061124484828501611089565b91505092915050565b600060808201905061126260008301876111f6565b61126f60208301866111f6565b61127c60408301856111f6565b61128960608301846111f6565b95945050505050565b600073ffffffffffffffffffffffffffffffffffffffff82169050919050565b60006112bd82611292565b9050919050565b6112cd816112b2565b81146112d857600080fd5b50565b6000813590506112ea816112c4565b92915050565b60006020828403121561130657611305610f97565b5b6000611314848285016112db565b91505092915050565b611326816112b2565b82525050565b6000602082019050611341600083018461131d565b92915050565b6000819050919050565b600061136c61136761136284611292565b611347565b611292565b9050919050565b600061137e82611351565b9050919050565b600061139082611373565b9050919050565b6113a081611385565b82525050565b60006020820190506113bb6000830184611397565b92915050565b600082825260208201905092915050565b7f414c52454144595f535441525445440000000000000000000000000000000000600082015250565b6000611408600f836113c1565b9150611413826113d2565b602082019050919050565b60006020820190508181036000830152611437816113fb565b9050919050565b7f4e487b7100000000000000000000000000000000000000000000000000000000600052603260045260246000fd5b7f4e487b7100000000000000000000000000000000000000000000000000000000600052601160045260246000fd5b60006114a782611068565b91506114b283611068565b92508282019050808211156114ca576114c961146d565b5b92915050565b60006060820190506114e5600083018661131d565b6114f2602083018561131d565b6114ff60408301846111f6565b949350505050565b60008115159050919050565b61151c81611507565b811461152757600080fd5b50565b60008151905061153981611513565b92915050565b60006020828403121561155557611554610f97565b5b60006115638482850161152a565b91505092915050565b7f434144454e434500000000000000000000000000000000000000000000000000600082015250565b60006115a26007836113c1565b91506115ad8261156c565b602082019050919050565b600060208201905081810360008301526115d181611595565b9050919050565b6000815190506115e781611072565b92915050565b60006020828403121561160357611602610f97565b5b6000611611848285016115d8565b91505092915050565b600061162582611068565b915061163083611068565b92508282039050818111156116485761164761146d565b5b92915050565b7f4449535452494255544544000000000000000000000000000000000000000000600082015250565b6000611684600b836113c1565b915061168f8261164e565b602082019050919050565b600060208201905081810360008301526116b381611677565b9050919050565b60006040820190506116cf600083018561131d565b6116dc60208301846111f6565b939250505056fea264697066735822122098132477c1564e5521b8c60967c05ffe011bee765b50251185e9d10b0505172564736f6c63430008180033",
  "linkReferences": {},
  "deployedLinkReferences": {}
}