{
  "_format": "hh-sol-artifact-1",
  "contractName": "TokenDistributor",
  "sourceName": "contracts/TokenDistributor.sol",
  "abi": [
    {
      "inputs": [
        {
          "internalType": "address",
          "name": "_token",
          "type": "address"
        }
      ],
      "stateMutability": "nonpayable",
      "type": "constructor"
    },
    {
      "inputs": [
        {
          "internalType": "address",
          "name": "owner",
          "type": "address"
        }
      ],
      "name": "OwnableInvalidOwner",
      "type": "error"
    },
    {
      "inputs": [
        {
          "internalType": "address",
          "name": "account",
          "type": "address"
        }
      ],
      "name": "OwnableUnauthorizedAccount",
      "type": "error"
    },
    {
      "anonymous": false,
      "inputs": [
        {
          "indexed": true,
          "internalType": "address",
          "name": "previousOwner",
          "type": "address"
        },
        {
          "indexed": true,
          "internalType": "address",
          "name": "newOwner",
          "type": "address"
        }
      ],
      "name": "OwnershipTransferStarted",
      "type": "event"
    },
    {
      "anonymous": false,
      "inputs": [
        {
          "indexed": true,
          "internalType": "address",
          "name": "previousOwner",
          "type": "address"
        },
        {
          "indexed": true,
          "internalType": "address",
          "name": "newOwner",
          "type": "address"
        }
      ],
      "name": "OwnershipTransferred",
      "type": "event"
    },
    {
      "inputs": [],
      "name": "acceptOwnership",
      "outputs": [],
      "stateMutability": "nonpayable",
      "type": "function"
    },
    {
      "inputs": [],
      "name": "currentDistribution",
      "outputs": [
        {
          "internalType": "uint256",
          "name": "",
          "type": "uint256"
        }
      ],
      "stateMutability": "view",
      "type": "function"
    },
    {
      "inputs": [
        {
          "components": [
            {
              "internalType": "uint256",
              "name": "amount",
              "type": "uint256"
            },
            {
              "internalType": "uint256",
              "name": "emitted",
              "type": "uint256"
            },
            {
              "internalType": "uint256",
              "name": "rate",
              "type": "uint256"
            },
            {
              "internalType": "uint256",
              "name": "cadence",
              "type": "uint256"
            }
          ],
          "internalType": "struct TokenDistributor.Distribution[]",
          "name": "_distributions",
          "type": "tuple[]"
        }
      ],
      "name": "deposit",
      "outputs": [],
      "stateMutability": "nonpayable",
      "type": "function"
    },
    {
      "inputs": [],
      "name": "distribute",
      "outputs": [],
      "stateMutability": "nonpayable",
      "type": "function"
    },
    {
      "inputs": [
        {
          "internalType": "uint256",
          "name": "",
          "type": "uint256"
        }
      ],
      "name": "distributions",
      "outputs": [
        {
          "internalType": "uint256",
          "name": "amount",
          "type": "uint256"
        },
        {
          "internalType": "uint256",
          "name": "emitted",
          "type": "uint256"
        },
        {
          "internalType": "uint256",
          "name": "rate",
          "type": "uint256"
        },
        {
          "internalType": "uint256",
          "name": "cadence",
          "type": "uint256"
        }
      ],
      "stateMutability": "view",
      "type": "function"
    },
    {
      "inputs": [],
      "name": "empty",
      "outputs": [],
      "stateMutability": "nonpayable",
      "type": "function"
    },
    {
      "inputs": [],
      "name": "lastBalance",
      "outputs": [
        {
          "internalType": "uint256",
          "name": "",
          "type": "uint256"
        }
      ],
      "stateMutability": "view",
      "type": "function"
    },
    {
      "inputs": [],
      "name": "nextDistribution",
      "outputs": [
        {
          "internalType": "uint256",
          "name": "",
          "type": "uint256"
        }
      ],
      "stateMutability": "view",
      "type": "function"
    },
    {
      "inputs": [],
      "name": "owner",
      "outputs": [
        {
          "internalType": "address",
          "name": "",
          "type": "address"
        }
      ],
      "stateMutability": "view",
      "type": "function"
    },
    {
      "inputs": [],
      "name": "pendingOwner",
      "outputs": [
        {
          "internalType": "address",
          "name": "",
          "type": "address"
        }
      ],
      "stateMutability": "view",
      "type": "function"
    },
    {
      "inputs": [],
      "name": "renounceOwnership",
      "outputs": [],
      "stateMutability": "nonpayable",
      "type": "function"
    },
    {
      "inputs": [
        {
          "internalType": "address",
          "name": "_splitter",
          "type": "address"
        }
      ],
      "name": "setSplitter",
      "outputs": [],
      "stateMutability": "nonpayable",
      "type": "function"
    },
    {
      "inputs": [],
      "name": "splitter",
      "outputs": [
        {
          "internalType": "address",
          "name": "",
          "type": "address"
        }
      ],
      "stateMutability": "view",
      "type": "function"
    },
    {
      "inputs": [],
      "name": "token",
      "outputs": [
        {
          "internalType": "contract IERC20",
          "name": "",
          "type": "address"
        }
      ],
      "stateMutability": "view",
      "type": "function"
    },
    {
      "inputs": [
        {
          "internalType": "address",
          "name": "newOwner",
          "type": "address"
        }
      ],
      "name": "transferOwnership",
      "outputs": [],
      "stateMutability": "nonpayable",
      "type": "function"
    }
  ],
  "bytecode": "0x6080604052600060065560006007553480156200001b57600080fd5b5060405162001c9938038062001c998339818101604052810190620000419190620002b9565b33600073ffffffffffffffffffffffffffffffffffffffff168173ffffffffffffffffffffffffffffffffffffffff1603620000b75760006040517f1e4fbdf7000000000000000000000000000000000000000000000000000000008152600401620000ae9190620002fc565b60405180910390fd5b620000c8816200015260201b60201c565b5080600260006101000a81548173ffffffffffffffffffffffffffffffffffffffff021916908373ffffffffffffffffffffffffffffffffffffffff16021790555033600360006101000a81548173ffffffffffffffffffffffffffffffffffffffff021916908373ffffffffffffffffffffffffffffffffffffffff1602179055505062000319565b600160006101000a81549073ffffffffffffffffffffffffffffffffffffffff021916905562000188816200018b60201b60201c565b50565b60008060009054906101000a900473ffffffffffffffffffffffffffffffffffffffff169050816000806101000a81548173ffffffffffffffffffffffffffffffffffffffff021916908373ffffffffffffffffffffffffffffffffffffffff1602179055508173ffffffffffffffffffffffffffffffffffffffff168173ffffffffffffffffffffffffffffffffffffffff167f8be0079c531659141344cd1fd0a4f28419497f9722a3daafe3b4186f6b6457e060405160405180910390a35050565b600080fd5b600073ffffffffffffffffffffffffffffffffffffffff82169050919050565b6000620002818262000254565b9050919050565b620002938162000274565b81146200029f57600080fd5b50565b600081519050620002b38162000288565b92915050565b600060208284031215620002d257620002d16200024f565b5b6000620002e284828501620002a2565b91505092915050565b620002f68162000274565b82525050565b6000602082019050620003136000830184620002eb565b92915050565b61197080620003296000396000f3fe608060405234801561001057600080fd5b50600436106100f55760003560e01c80638da5cb5b11610097578063e4fc6b6d11610066578063e4fc6b6d1461022d578063f2a75fe414610237578063f2fde38b14610241578063fc0c546a1461025d576100f5565b80638da5cb5b146101b75780638f1c56bd146101d5578063c93fc83d146101f3578063e30c39781461020f576100f5565b80634487d3df116100d35780634487d3df1461015257806348ced6a714610185578063715018a6146101a357806379ba5097146101ad576100f5565b8063295a7109146100fa57806338b0789d146101165780633cd8045e14610134575b600080fd5b610114600480360381019061010f9190611329565b61027b565b005b61011e610430565b60405161012b9190611381565b60405180910390f35b61013c610436565b60405161014991906113dd565b60405180910390f35b61016c600480360381019061016791906113f8565b61045c565b60405161017c9493929190611425565b60405180910390f35b61018d61049c565b60405161019a9190611381565b60405180910390f35b6101ab6104a2565b005b6101b56104b6565b005b6101bf610545565b6040516101cc91906113dd565b60405180910390f35b6101dd61056e565b6040516101ea9190611381565b60405180910390f35b61020d60048036038101906102089190611496565b610574565b005b6102176105c0565b60405161022491906113dd565b60405180910390f35b6102356105ea565b005b61023f610c7d565b005b61025b60048036038101906102569190611496565b610dc3565b005b610265610e70565b6040516102729190611522565b60405180910390f35b610283610e96565b6000600480549050146102cb576040517f08c379a00000000000000000000000000000000000000000000000000000000081526004016102c29061159a565b60405180910390fd5b6000805b8251811015610381578281815181106102eb576102ea6115ba565b5b602002602001015160000151826103029190611618565b91506004838281518110610319576103186115ba565b5b6020026020010151908060018154018082558091505060019003906000526020600020906004020160009091909190915060008201518160000155602082015181600101556040820151816002015560608201518160030155505080806001019150506102cf565b50600260009054906101000a900473ffffffffffffffffffffffffffffffffffffffff1673ffffffffffffffffffffffffffffffffffffffff166323b872dd3330846040518463ffffffff1660e01b81526004016103e19392919061164c565b6020604051808303816000875af1158015610400573d6000803e3d6000fd5b505050506040513d601f19601f8201168201806040525081019061042491906116bb565b50426007819055505050565b60075481565b600360009054906101000a900473ffffffffffffffffffffffffffffffffffffffff1681565b6004818154811061046c57600080fd5b90600052602060002090600402016000915090508060000154908060010154908060020154908060030154905084565b60065481565b6104aa610e96565b6104b46000610f1d565b565b60006104c0610f4e565b90508073ffffffffffffffffffffffffffffffffffffffff166104e16105c0565b73ffffffffffffffffffffffffffffffffffffffff161461053957806040517f118cdaa700000000000000000000000000000000000000000000000000000000815260040161053091906113dd565b60405180910390fd5b61054281610f1d565b50565b60008060009054906101000a900473ffffffffffffffffffffffffffffffffffffffff16905090565b60055481565b61057c610e96565b80600360006101000a81548173ffffffffffffffffffffffffffffffffffffffff021916908373ffffffffffffffffffffffffffffffffffffffff16021790555050565b6000600160009054906101000a900473ffffffffffffffffffffffffffffffffffffffff16905090565b600360009054906101000a905050600754421161063c576040517f08c379a000000000000000000000000000000000000000000000000000000000815260040161063390611734565b60405180910390fd5b6000600260009054906101000a900473ffffffffffffffffffffffffffffffffffffffff1673ffffffffffffffffffffffffffffffffffffffff166370a08231306040518263ffffffff1660e01b815260040161069991906113dd565b602060405180830381865afa1580156106b6573d6000803e3d6000fd5b505050506040513d601f19601f820116820180604052508101906106da9190611769565b905060006004600654815481106106f4576106f36115ba565b5b9060005260206000209060040201600101541115610880576000600554600260009054906101000a900473ffffffffffffffffffffffffffffffffffffffff1673ffffffffffffffffffffffffffffffffffffffff166370a08231306040518263ffffffff1660e01b815260040161076c91906113dd565b602060405180830381865afa158015610789573d6000803e3d6000fd5b505050506040513d601f19601f820116820180604052508101906107ad9190611769565b6107b79190611796565b90506108206040518060400160405280600f81526020017f6e6f742064697374726962757465640000000000000000000000000000000000815250600460065481548110610808576108076115ba565b5b90600052602060002090600402016001015483610f56565b80600460065481548110610837576108366115ba565b5b9060005260206000209060040201600101546108539190611796565b600460065481548110610869576108686115ba565b5b906000526020600020906004020160010181905550505b6000600460065481548110610898576108976115ba565b5b90600052602060002090600402016002015490506004600654815481106108c2576108c16115ba565b5b90600052602060002090600402016002015482101561097e57600260009054906101000a900473ffffffffffffffffffffffffffffffffffffffff1673ffffffffffffffffffffffffffffffffffffffff166370a08231306040518263ffffffff1660e01b815260040161093691906113dd565b602060405180830381865afa158015610953573d6000803e3d6000fd5b505050506040513d601f19601f820116820180604052508101906109779190611769565b90506109a9565b600460065481548110610994576109936115ba565b5b90600052602060002090600402016002015490505b600081116109ec576040517f08c379a00000000000000000000000000000000000000000000000000000000081526004016109e390611816565b60405180910390fd5b600260009054906101000a900473ffffffffffffffffffffffffffffffffffffffff1673ffffffffffffffffffffffffffffffffffffffff1663a9059cbb600360009054906101000a900473ffffffffffffffffffffffffffffffffffffffff16836040518363ffffffff1660e01b8152600401610a6b929190611836565b6020604051808303816000875af1158015610a8a573d6000803e3d6000fd5b505050506040513d601f19601f82011682018060405250810190610aae91906116bb565b5080600460065481548110610ac657610ac56115ba565b5b906000526020600020906004020160010154610ae29190611618565b600460065481548110610af857610af76115ba565b5b906000526020600020906004020160010181905550600260009054906101000a900473ffffffffffffffffffffffffffffffffffffffff1673ffffffffffffffffffffffffffffffffffffffff166370a08231306040518263ffffffff1660e01b8152600401610b6891906113dd565b602060405180830381865afa158015610b85573d6000803e3d6000fd5b505050506040513d601f19601f82011682018060405250810190610ba99190611769565b6005819055506001600480549050610bc19190611796565b600654108015610c1e5750600460065481548110610be257610be16115ba565b5b906000526020600020906004020160000154600460065481548110610c0a57610c096115ba565b5b906000526020600020906004020160010154115b15610c39576001600654610c329190611618565b6006819055505b600460065481548110610c4f57610c4e6115ba565b5b90600052602060002090600402016003015460076000828254610c729190611618565b925050819055505050565b610c85610e96565b600260009054906101000a900473ffffffffffffffffffffffffffffffffffffffff1673ffffffffffffffffffffffffffffffffffffffff1663a9059cbb33600260009054906101000a900473ffffffffffffffffffffffffffffffffffffffff1673ffffffffffffffffffffffffffffffffffffffff166370a08231306040518263ffffffff1660e01b8152600401610d1f91906113dd565b602060405180830381865afa158015610d3c573d6000803e3d6000fd5b505050506040513d601f19601f82011682018060405250810190610d609190611769565b6040518363ffffffff1660e01b8152600401610d7d929190611836565b6020604051808303816000875af1158015610d9c573d6000803e3d6000fd5b505050506040513d601f19601f82011682018060405250810190610dc091906116bb565b50565b610dcb610e96565b80600160006101000a81548173ffffffffffffffffffffffffffffffffffffffff021916908373ffffffffffffffffffffffffffffffffffffffff1602179055508073ffffffffffffffffffffffffffffffffffffffff16610e2b610545565b73ffffffffffffffffffffffffffffffffffffffff167f38d16b8cac22d99fc7c124b9cd0de2d3fa1faef420bfe791d8c362d765e2270060405160405180910390a350565b600260009054906101000a900473ffffffffffffffffffffffffffffffffffffffff1681565b610e9e610f4e565b73ffffffffffffffffffffffffffffffffffffffff16610ebc610545565b73ffffffffffffffffffffffffffffffffffffffff1614610f1b57610edf610f4e565b6040517f118cdaa7000000000000000000000000000000000000000000000000000000008152600401610f1291906113dd565b60405180910390fd5b565b600160006101000a81549073ffffffffffffffffffffffffffffffffffffffff0219169055610f4b81610ff5565b50565b600033905090565b610ff0838383604051602401610f6e939291906118cd565b6040516020818303038152906040527fca47c4eb000000000000000000000000000000000000000000000000000000007bffffffffffffffffffffffffffffffffffffffffffffffffffffffff19166020820180517bffffffffffffffffffffffffffffffffffffffffffffffffffffffff83818316178352505050506110b9565b505050565b60008060009054906101000a900473ffffffffffffffffffffffffffffffffffffffff169050816000806101000a81548173ffffffffffffffffffffffffffffffffffffffff021916908373ffffffffffffffffffffffffffffffffffffffff1602179055508173ffffffffffffffffffffffffffffffffffffffff168173ffffffffffffffffffffffffffffffffffffffff167f8be0079c531659141344cd1fd0a4f28419497f9722a3daafe3b4186f6b6457e060405160405180910390a35050565b6110d0816110c86110d36110f4565b63ffffffff16565b50565b60006a636f6e736f6c652e6c6f679050600080835160208501845afa505050565b6110ff819050919050565b61110761190b565b565b6000604051905090565b600080fd5b600080fd5b600080fd5b6000601f19601f8301169050919050565b7f4e487b7100000000000000000000000000000000000000000000000000000000600052604160045260246000fd5b61116b82611122565b810181811067ffffffffffffffff8211171561118a57611189611133565b5b80604052505050565b600061119d611109565b90506111a98282611162565b919050565b600067ffffffffffffffff8211156111c9576111c8611133565b5b602082029050602081019050919050565b600080fd5b600080fd5b6000819050919050565b6111f7816111e4565b811461120257600080fd5b50565b600081359050611214816111ee565b92915050565b6000608082840312156112305761122f6111df565b5b61123a6080611193565b9050600061124a84828501611205565b600083015250602061125e84828501611205565b602083015250604061127284828501611205565b604083015250606061128684828501611205565b60608301525092915050565b60006112a56112a0846111ae565b611193565b905080838252602082019050608084028301858111156112c8576112c76111da565b5b835b818110156112f157806112dd888261121a565b8452602084019350506080810190506112ca565b5050509392505050565b600082601f8301126113105761130f61111d565b5b8135611320848260208601611292565b91505092915050565b60006020828403121561133f5761133e611113565b5b600082013567ffffffffffffffff81111561135d5761135c611118565b5b611369848285016112fb565b91505092915050565b61137b816111e4565b82525050565b60006020820190506113966000830184611372565b92915050565b600073ffffffffffffffffffffffffffffffffffffffff82169050919050565b60006113c78261139c565b9050919050565b6113d7816113bc565b82525050565b60006020820190506113f260008301846113ce565b92915050565b60006020828403121561140e5761140d611113565b5b600061141c84828501611205565b91505092915050565b600060808201905061143a6000830187611372565b6114476020830186611372565b6114546040830185611372565b6114616060830184611372565b95945050505050565b611473816113bc565b811461147e57600080fd5b50565b6000813590506114908161146a565b92915050565b6000602082840312156114ac576114ab611113565b5b60006114ba84828501611481565b91505092915050565b6000819050919050565b60006114e86114e36114de8461139c565b6114c3565b61139c565b9050919050565b60006114fa826114cd565b9050919050565b600061150c826114ef565b9050919050565b61151c81611501565b82525050565b60006020820190506115376000830184611513565b92915050565b600082825260208201905092915050565b7f414c52454144595f535441525445440000000000000000000000000000000000600082015250565b6000611584600f8361153d565b915061158f8261154e565b602082019050919050565b600060208201905081810360008301526115b381611577565b9050919050565b7f4e487b7100000000000000000000000000000000000000000000000000000000600052603260045260246000fd5b7f4e487b7100000000000000000000000000000000000000000000000000000000600052601160045260246000fd5b6000611623826111e4565b915061162e836111e4565b9250828201905080821115611646576116456115e9565b5b92915050565b600060608201905061166160008301866113ce565b61166e60208301856113ce565b61167b6040830184611372565b949350505050565b60008115159050919050565b61169881611683565b81146116a357600080fd5b50565b6000815190506116b58161168f565b92915050565b6000602082840312156116d1576116d0611113565b5b60006116df848285016116a6565b91505092915050565b7f434144454e434500000000000000000000000000000000000000000000000000600082015250565b600061171e60078361153d565b9150611729826116e8565b602082019050919050565b6000602082019050818103600083015261174d81611711565b9050919050565b600081519050611763816111ee565b92915050565b60006020828403121561177f5761177e611113565b5b600061178d84828501611754565b91505092915050565b60006117a1826111e4565b91506117ac836111e4565b92508282039050818111156117c4576117c36115e9565b5b92915050565b7f4449535452494255544544000000000000000000000000000000000000000000600082015250565b6000611800600b8361153d565b915061180b826117ca565b602082019050919050565b6000602082019050818103600083015261182f816117f3565b9050919050565b600060408201905061184b60008301856113ce565b6118586020830184611372565b9392505050565b600081519050919050565b60005b8381101561188857808201518184015260208101905061186d565b60008484015250505050565b600061189f8261185f565b6118a9818561153d565b93506118b981856020860161186a565b6118c281611122565b840191505092915050565b600060608201905081810360008301526118e78186611894565b90506118f66020830185611372565b6119036040830184611372565b949350505050565b7f4e487b7100000000000000000000000000000000000000000000000000000000600052605160045260246000fdfea26469706673582212205c8b3f9535d57c51b5b3a905e6ed4438a71c2a1ad35f8fef27a9a4c91971b80264736f6c63430008180033",
  "linkReferences": {},
  "deployedLinkReferences": {}
}