{
  "_format": "hh-sol-artifact-1",
  "contractName": "ReferralsRewards",
  "sourceName": "contracts/ReferralsRewards.sol",
  "abi": [
    {
      "inputs": [
        {
          "internalType": "address",
          "name": "_ldt",
          "type": "address"
        },
        {
          "internalType": "address",
          "name": "_tbb",
          "type": "address"
        },
        {
          "internalType": "address",
          "name": "_tbs",
          "type": "address"
        },
        {
          "internalType": "address",
          "name": "_tbg",
          "type": "address"
        }
      ],
      "stateMutability": "nonpayable",
      "type": "constructor"
    },
    {
      "inputs": [
        {
          "internalType": "address",
          "name": "target",
          "type": "address"
        }
      ],
      "name": "AddressEmptyCode",
      "type": "error"
    },
    {
      "inputs": [
        {
          "internalType": "address",
          "name": "account",
          "type": "address"
        }
      ],
      "name": "AddressInsufficientBalance",
      "type": "error"
    },
    {
      "inputs": [],
      "name": "FailedInnerCall",
      "type": "error"
    },
    {
      "inputs": [
        {
          "internalType": "address",
          "name": "owner",
          "type": "address"
        }
      ],
      "name": "OwnableInvalidOwner",
      "type": "error"
    },
    {
      "inputs": [
        {
          "internalType": "address",
          "name": "account",
          "type": "address"
        }
      ],
      "name": "OwnableUnauthorizedAccount",
      "type": "error"
    },
    {
      "inputs": [
        {
          "internalType": "address",
          "name": "token",
          "type": "address"
        }
      ],
      "name": "SafeERC20FailedOperation",
      "type": "error"
    },
    {
      "anonymous": false,
      "inputs": [
        {
          "indexed": false,
          "internalType": "uint256",
          "name": "ldt",
          "type": "uint256"
        },
        {
          "indexed": false,
          "internalType": "uint256",
          "name": "tbb",
          "type": "uint256"
        },
        {
          "indexed": false,
          "internalType": "uint256",
          "name": "tbs",
          "type": "uint256"
        },
        {
          "indexed": false,
          "internalType": "uint256",
          "name": "tbg",
          "type": "uint256"
        }
      ],
      "name": "DistributeRewards",
      "type": "event"
    },
    {
      "anonymous": false,
      "inputs": [
        {
          "indexed": true,
          "internalType": "address",
          "name": "wallet",
          "type": "address"
        },
        {
          "components": [
            {
              "internalType": "uint256",
              "name": "ldt",
              "type": "uint256"
            },
            {
              "internalType": "uint256",
              "name": "tbb",
              "type": "uint256"
            },
            {
              "internalType": "uint256",
              "name": "tbs",
              "type": "uint256"
            },
            {
              "internalType": "uint256",
              "name": "tbg",
              "type": "uint256"
            }
          ],
          "indexed": false,
          "internalType": "struct ReferralsRewards.Reward",
          "name": "amount",
          "type": "tuple"
        }
      ],
      "name": "Harvest",
      "type": "event"
    },
    {
      "anonymous": false,
      "inputs": [
        {
          "indexed": true,
          "internalType": "address",
          "name": "previousOwner",
          "type": "address"
        },
        {
          "indexed": true,
          "internalType": "address",
          "name": "newOwner",
          "type": "address"
        }
      ],
      "name": "OwnershipTransferStarted",
      "type": "event"
    },
    {
      "anonymous": false,
      "inputs": [
        {
          "indexed": true,
          "internalType": "address",
          "name": "previousOwner",
          "type": "address"
        },
        {
          "indexed": true,
          "internalType": "address",
          "name": "newOwner",
          "type": "address"
        }
      ],
      "name": "OwnershipTransferred",
      "type": "event"
    },
    {
      "inputs": [],
      "name": "acceptOwnership",
      "outputs": [],
      "stateMutability": "nonpayable",
      "type": "function"
    },
    {
      "inputs": [
        {
          "components": [
            {
              "internalType": "address",
              "name": "wallet",
              "type": "address"
            },
            {
              "internalType": "uint256",
              "name": "ldt",
              "type": "uint256"
            },
            {
              "internalType": "uint256",
              "name": "tbb",
              "type": "uint256"
            },
            {
              "internalType": "uint256",
              "name": "tbs",
              "type": "uint256"
            },
            {
              "internalType": "uint256",
              "name": "tbg",
              "type": "uint256"
            }
          ],
          "internalType": "struct ReferralsRewards.RewardItem[]",
          "name": "_rewards",
          "type": "tuple[]"
        }
      ],
      "name": "distributeRewards",
      "outputs": [],
      "stateMutability": "nonpayable",
      "type": "function"
    },
    {
      "inputs": [],
      "name": "harvest",
      "outputs": [],
      "stateMutability": "nonpayable",
      "type": "function"
    },
    {
      "inputs": [
        {
          "internalType": "address",
          "name": "",
          "type": "address"
        }
      ],
      "name": "lastWithdraw",
      "outputs": [
        {
          "internalType": "uint256",
          "name": "",
          "type": "uint256"
        }
      ],
      "stateMutability": "view",
      "type": "function"
    },
    {
      "inputs": [],
      "name": "ldt",
      "outputs": [
        {
          "internalType": "address",
          "name": "",
          "type": "address"
        }
      ],
      "stateMutability": "view",
      "type": "function"
    },
    {
      "inputs": [],
      "name": "maxWithdraw",
      "outputs": [
        {
          "internalType": "uint256",
          "name": "",
          "type": "uint256"
        }
      ],
      "stateMutability": "view",
      "type": "function"
    },
    {
      "inputs": [],
      "name": "owner",
      "outputs": [
        {
          "internalType": "address",
          "name": "",
          "type": "address"
        }
      ],
      "stateMutability": "view",
      "type": "function"
    },
    {
      "inputs": [],
      "name": "pendingOwner",
      "outputs": [
        {
          "internalType": "address",
          "name": "",
          "type": "address"
        }
      ],
      "stateMutability": "view",
      "type": "function"
    },
    {
      "inputs": [],
      "name": "renounceOwnership",
      "outputs": [],
      "stateMutability": "nonpayable",
      "type": "function"
    },
    {
      "inputs": [
        {
          "internalType": "address",
          "name": "",
          "type": "address"
        }
      ],
      "name": "rewards",
      "outputs": [
        {
          "internalType": "uint256",
          "name": "ldt",
          "type": "uint256"
        },
        {
          "internalType": "uint256",
          "name": "tbb",
          "type": "uint256"
        },
        {
          "internalType": "uint256",
          "name": "tbs",
          "type": "uint256"
        },
        {
          "internalType": "uint256",
          "name": "tbg",
          "type": "uint256"
        }
      ],
      "stateMutability": "view",
      "type": "function"
    },
    {
      "inputs": [
        {
          "internalType": "uint256",
          "name": "_maxWithdraw",
          "type": "uint256"
        }
      ],
      "name": "setMaxWithdraw",
      "outputs": [],
      "stateMutability": "nonpayable",
      "type": "function"
    },
    {
      "inputs": [
        {
          "internalType": "uint256",
          "name": "_withdrawInterval",
          "type": "uint256"
        }
      ],
      "name": "setWithdrawInterval",
      "outputs": [],
      "stateMutability": "nonpayable",
      "type": "function"
    },
    {
      "inputs": [],
      "name": "tbb",
      "outputs": [
        {
          "internalType": "address",
          "name": "",
          "type": "address"
        }
      ],
      "stateMutability": "view",
      "type": "function"
    },
    {
      "inputs": [],
      "name": "tbg",
      "outputs": [
        {
          "internalType": "address",
          "name": "",
          "type": "address"
        }
      ],
      "stateMutability": "view",
      "type": "function"
    },
    {
      "inputs": [],
      "name": "tbs",
      "outputs": [
        {
          "internalType": "address",
          "name": "",
          "type": "address"
        }
      ],
      "stateMutability": "view",
      "type": "function"
    },
    {
      "inputs": [
        {
          "internalType": "address",
          "name": "newOwner",
          "type": "address"
        }
      ],
      "name": "transferOwnership",
      "outputs": [],
      "stateMutability": "nonpayable",
      "type": "function"
    },
    {
      "inputs": [],
      "name": "withdrawInterval",
      "outputs": [
        {
          "internalType": "uint256",
          "name": "",
          "type": "uint256"
        }
      ],
      "stateMutability": "view",
      "type": "function"
    },
    {
      "stateMutability": "payable",
      "type": "receive"
    }
  ],
  "bytecode": "0x608060405268056bc75e2d6310000060065562093a806007553480156200002557600080fd5b5060405162001f8d38038062001f8d83398181016040528101906200004b919062000348565b33600073ffffffffffffffffffffffffffffffffffffffff168173ffffffffffffffffffffffffffffffffffffffff1603620000c15760006040517f1e4fbdf7000000000000000000000000000000000000000000000000000000008152600401620000b89190620003cb565b60405180910390fd5b620000d281620001e160201b60201c565b5083600260006101000a81548173ffffffffffffffffffffffffffffffffffffffff021916908373ffffffffffffffffffffffffffffffffffffffff16021790555082600360006101000a81548173ffffffffffffffffffffffffffffffffffffffff021916908373ffffffffffffffffffffffffffffffffffffffff16021790555081600460006101000a81548173ffffffffffffffffffffffffffffffffffffffff021916908373ffffffffffffffffffffffffffffffffffffffff16021790555080600560006101000a81548173ffffffffffffffffffffffffffffffffffffffff021916908373ffffffffffffffffffffffffffffffffffffffff16021790555050505050620003e8565b600160006101000a81549073ffffffffffffffffffffffffffffffffffffffff021916905562000217816200021a60201b60201c565b50565b60008060009054906101000a900473ffffffffffffffffffffffffffffffffffffffff169050816000806101000a81548173ffffffffffffffffffffffffffffffffffffffff021916908373ffffffffffffffffffffffffffffffffffffffff1602179055508173ffffffffffffffffffffffffffffffffffffffff168173ffffffffffffffffffffffffffffffffffffffff167f8be0079c531659141344cd1fd0a4f28419497f9722a3daafe3b4186f6b6457e060405160405180910390a35050565b600080fd5b600073ffffffffffffffffffffffffffffffffffffffff82169050919050565b60006200031082620002e3565b9050919050565b620003228162000303565b81146200032e57600080fd5b50565b600081519050620003428162000317565b92915050565b60008060008060808587031215620003655762000364620002de565b5b6000620003758782880162000331565b9450506020620003888782880162000331565b93505060406200039b8782880162000331565b9250506060620003ae8782880162000331565b91505092959194509250565b620003c58162000303565b82525050565b6000602082019050620003e26000830184620003ba565b92915050565b611b9580620003f86000396000f3fe6080604052600436106101025760003560e01c8063715018a611610095578063903bf98b11610064578063903bf98b14610332578063ac7a1b5b1461035d578063dcd9bb4214610388578063e30c3978146103b1578063f2fde38b146103dc57610142565b8063715018a6146102ae57806379ba5097146102c55780637dad9115146102dc5780638da5cb5b1461030757610142565b8063320a66e6116100d1578063320a66e6146102065780634641257d1461022f57806350c2161b14610246578063624d7b721461027157610142565b80630700037d14610147578063162075d81461018757806327450cc9146101b25780632c246501146101db57610142565b36610142576040517f08c379a000000000000000000000000000000000000000000000000000000000815260040161013990611406565b60405180910390fd5b600080fd5b34801561015357600080fd5b5061016e60048036038101906101699190611498565b610405565b60405161017e94939291906114de565b60405180910390f35b34801561019357600080fd5b5061019c610435565b6040516101a99190611523565b60405180910390f35b3480156101be57600080fd5b506101d960048036038101906101d4919061156a565b61043b565b005b3480156101e757600080fd5b506101f0610490565b6040516101fd91906115a6565b60405180910390f35b34801561021257600080fd5b5061022d600480360381019061022891906117ab565b6104b6565b005b34801561023b57600080fd5b506102446108b3565b005b34801561025257600080fd5b5061025b610cce565b60405161026891906115a6565b60405180910390f35b34801561027d57600080fd5b5061029860048036038101906102939190611498565b610cf4565b6040516102a59190611523565b60405180910390f35b3480156102ba57600080fd5b506102c3610d0c565b005b3480156102d157600080fd5b506102da610d20565b005b3480156102e857600080fd5b506102f1610daf565b6040516102fe91906115a6565b60405180910390f35b34801561031357600080fd5b5061031c610dd5565b60405161032991906115a6565b60405180910390f35b34801561033e57600080fd5b50610347610dfe565b60405161035491906115a6565b60405180910390f35b34801561036957600080fd5b50610372610e24565b60405161037f9190611523565b60405180910390f35b34801561039457600080fd5b506103af60048036038101906103aa919061156a565b610e2a565b005b3480156103bd57600080fd5b506103c6610e81565b6040516103d391906115a6565b60405180910390f35b3480156103e857600080fd5b5061040360048036038101906103fe9190611498565b610eab565b005b60086020528060005260406000206000915090508060000154908060010154908060020154908060030154905084565b60075481565b610443610f58565b60008111610486576040517f08c379a000000000000000000000000000000000000000000000000000000000815260040161047d90611840565b60405180910390fd5b8060078190555050565b600360009054906101000a900473ffffffffffffffffffffffffffffffffffffffff1681565b6104be610f58565b60008060008060005b855181101561086e57600073ffffffffffffffffffffffffffffffffffffffff168682815181106104fb576104fa611860565b5b60200260200101516000015173ffffffffffffffffffffffffffffffffffffffff160361055d576040517f08c379a0000000000000000000000000000000000000000000000000000000008152600401610554906118db565b60405180910390fd5b8581815181106105705761056f611860565b5b60200260200101516020015185610587919061192a565b945085818151811061059c5761059b611860565b5b602002602001015160400151846105b3919061192a565b93508581815181106105c8576105c7611860565b5b602002602001015160600151836105df919061192a565b92508581815181106105f4576105f3611860565b5b6020026020010151608001518261060b919061192a565b91508581815181106106205761061f611860565b5b6020026020010151602001516008600088848151811061064357610642611860565b5b60200260200101516000015173ffffffffffffffffffffffffffffffffffffffff1673ffffffffffffffffffffffffffffffffffffffff168152602001908152602001600020600001600082825461069b919061192a565b925050819055508581815181106106b5576106b4611860565b5b602002602001015160400151600860008884815181106106d8576106d7611860565b5b60200260200101516000015173ffffffffffffffffffffffffffffffffffffffff1673ffffffffffffffffffffffffffffffffffffffff1681526020019081526020016000206001016000828254610730919061192a565b9250508190555085818151811061074a57610749611860565b5b6020026020010151606001516008600088848151811061076d5761076c611860565b5b60200260200101516000015173ffffffffffffffffffffffffffffffffffffffff1673ffffffffffffffffffffffffffffffffffffffff16815260200190815260200160002060020160008282546107c5919061192a565b925050819055508581815181106107df576107de611860565b5b6020026020010151608001516008600088848151811061080257610801611860565b5b60200260200101516000015173ffffffffffffffffffffffffffffffffffffffff1673ffffffffffffffffffffffffffffffffffffffff168152602001908152602001600020600301600082825461085a919061192a565b9250508190555080806001019150506104c7565b507f5e9b5cd9152c1606f9dffe759fe4a8b9375b8ece80486afc71749726cd5a9974848484846040516108a494939291906114de565b60405180910390a15050505050565b6000600860003373ffffffffffffffffffffffffffffffffffffffff1673ffffffffffffffffffffffffffffffffffffffff168152602001908152602001600020604051806080016040529081600082015481526020016001820154815260200160028201548152602001600382015481525050905060008160600151826040015183602001518460000151610949919061192a565b610953919061192a565b61095d919061192a565b1161099d576040517f08c379a0000000000000000000000000000000000000000000000000000000008152600401610994906119aa565b60405180910390fd5b6000816000015111156109fc576109fb338260000151600260009054906101000a900473ffffffffffffffffffffffffffffffffffffffff1673ffffffffffffffffffffffffffffffffffffffff16610fdf9092919063ffffffff16565b5b600081602001511115610a5b57610a5a338260200151600360009054906101000a900473ffffffffffffffffffffffffffffffffffffffff1673ffffffffffffffffffffffffffffffffffffffff16610fdf9092919063ffffffff16565b5b600081604001511115610aba57610ab9338260400151600460009054906101000a900473ffffffffffffffffffffffffffffffffffffffff1673ffffffffffffffffffffffffffffffffffffffff16610fdf9092919063ffffffff16565b5b600081606001511115610b1957610b18338260600151600560009054906101000a900473ffffffffffffffffffffffffffffffffffffffff1673ffffffffffffffffffffffffffffffffffffffff16610fdf9092919063ffffffff16565b5b6000600860003373ffffffffffffffffffffffffffffffffffffffff1673ffffffffffffffffffffffffffffffffffffffff168152602001908152602001600020600001819055506000600860003373ffffffffffffffffffffffffffffffffffffffff1673ffffffffffffffffffffffffffffffffffffffff168152602001908152602001600020600101819055506000600860003373ffffffffffffffffffffffffffffffffffffffff1673ffffffffffffffffffffffffffffffffffffffff168152602001908152602001600020600201819055506000600860003373ffffffffffffffffffffffffffffffffffffffff1673ffffffffffffffffffffffffffffffffffffffff1681526020019081526020016000206003018190555042600960003373ffffffffffffffffffffffffffffffffffffffff1673ffffffffffffffffffffffffffffffffffffffff168152602001908152602001600020819055503373ffffffffffffffffffffffffffffffffffffffff167f6169dbacaf02f544ffb0d6c51248f61dac5d1dc4268a47c0c4a9908982849ff282604051610cc39190611a2e565b60405180910390a250565b600260009054906101000a900473ffffffffffffffffffffffffffffffffffffffff1681565b60096020528060005260406000206000915090505481565b610d14610f58565b610d1e600061105e565b565b6000610d2a61108f565b90508073ffffffffffffffffffffffffffffffffffffffff16610d4b610e81565b73ffffffffffffffffffffffffffffffffffffffff1614610da357806040517f118cdaa7000000000000000000000000000000000000000000000000000000008152600401610d9a91906115a6565b60405180910390fd5b610dac8161105e565b50565b600560009054906101000a900473ffffffffffffffffffffffffffffffffffffffff1681565b60008060009054906101000a900473ffffffffffffffffffffffffffffffffffffffff16905090565b600460009054906101000a900473ffffffffffffffffffffffffffffffffffffffff1681565b60065481565b610e32610f58565b60008111610e75576040517f08c379a0000000000000000000000000000000000000000000000000000000008152600401610e6c90611840565b60405180910390fd5b60065460068190555050565b6000600160009054906101000a900473ffffffffffffffffffffffffffffffffffffffff16905090565b610eb3610f58565b80600160006101000a81548173ffffffffffffffffffffffffffffffffffffffff021916908373ffffffffffffffffffffffffffffffffffffffff1602179055508073ffffffffffffffffffffffffffffffffffffffff16610f13610dd5565b73ffffffffffffffffffffffffffffffffffffffff167f38d16b8cac22d99fc7c124b9cd0de2d3fa1faef420bfe791d8c362d765e2270060405160405180910390a350565b610f6061108f565b73ffffffffffffffffffffffffffffffffffffffff16610f7e610dd5565b73ffffffffffffffffffffffffffffffffffffffff1614610fdd57610fa161108f565b6040517f118cdaa7000000000000000000000000000000000000000000000000000000008152600401610fd491906115a6565b60405180910390fd5b565b611059838473ffffffffffffffffffffffffffffffffffffffff1663a9059cbb8585604051602401611012929190611a49565b604051602081830303815290604052915060e01b6020820180517bffffffffffffffffffffffffffffffffffffffffffffffffffffffff8381831617835250505050611097565b505050565b600160006101000a81549073ffffffffffffffffffffffffffffffffffffffff021916905561108c8161112e565b50565b600033905090565b60006110c2828473ffffffffffffffffffffffffffffffffffffffff166111f290919063ffffffff16565b905060008151141580156110e75750808060200190518101906110e59190611aaa565b155b1561112957826040517f5274afe700000000000000000000000000000000000000000000000000000000815260040161112091906115a6565b60405180910390fd5b505050565b60008060009054906101000a900473ffffffffffffffffffffffffffffffffffffffff169050816000806101000a81548173ffffffffffffffffffffffffffffffffffffffff021916908373ffffffffffffffffffffffffffffffffffffffff1602179055508173ffffffffffffffffffffffffffffffffffffffff168173ffffffffffffffffffffffffffffffffffffffff167f8be0079c531659141344cd1fd0a4f28419497f9722a3daafe3b4186f6b6457e060405160405180910390a35050565b606061120083836000611208565b905092915050565b60608147101561124f57306040517fcd78605900000000000000000000000000000000000000000000000000000000815260040161124691906115a6565b60405180910390fd5b6000808573ffffffffffffffffffffffffffffffffffffffff1684866040516112789190611b48565b60006040518083038185875af1925050503d80600081146112b5576040519150601f19603f3d011682016040523d82523d6000602084013e6112ba565b606091505b50915091506112ca8683836112d5565b925050509392505050565b6060826112ea576112e582611364565b61135c565b60008251148015611312575060008473ffffffffffffffffffffffffffffffffffffffff163b145b1561135457836040517f9996b31500000000000000000000000000000000000000000000000000000000815260040161134b91906115a6565b60405180910390fd5b81905061135d565b5b9392505050565b6000815111156113775780518082602001fd5b6040517f1425ea4200000000000000000000000000000000000000000000000000000000815260040160405180910390fd5b600082825260208201905092915050565b7f4e4f545f50415941424c45000000000000000000000000000000000000000000600082015250565b60006113f0600b836113a9565b91506113fb826113ba565b602082019050919050565b6000602082019050818103600083015261141f816113e3565b9050919050565b6000604051905090565b600080fd5b600080fd5b600073ffffffffffffffffffffffffffffffffffffffff82169050919050565b60006114658261143a565b9050919050565b6114758161145a565b811461148057600080fd5b50565b6000813590506114928161146c565b92915050565b6000602082840312156114ae576114ad611430565b5b60006114bc84828501611483565b91505092915050565b6000819050919050565b6114d8816114c5565b82525050565b60006080820190506114f360008301876114cf565b61150060208301866114cf565b61150d60408301856114cf565b61151a60608301846114cf565b95945050505050565b600060208201905061153860008301846114cf565b92915050565b611547816114c5565b811461155257600080fd5b50565b6000813590506115648161153e565b92915050565b6000602082840312156115805761157f611430565b5b600061158e84828501611555565b91505092915050565b6115a08161145a565b82525050565b60006020820190506115bb6000830184611597565b92915050565b600080fd5b6000601f19601f8301169050919050565b7f4e487b7100000000000000000000000000000000000000000000000000000000600052604160045260246000fd5b61160f826115c6565b810181811067ffffffffffffffff8211171561162e5761162d6115d7565b5b80604052505050565b6000611641611426565b905061164d8282611606565b919050565b600067ffffffffffffffff82111561166d5761166c6115d7565b5b602082029050602081019050919050565b600080fd5b600080fd5b600060a0828403121561169e5761169d611683565b5b6116a860a0611637565b905060006116b884828501611483565b60008301525060206116cc84828501611555565b60208301525060406116e084828501611555565b60408301525060606116f484828501611555565b606083015250608061170884828501611555565b60808301525092915050565b600061172761172284611652565b611637565b90508083825260208201905060a0840283018581111561174a5761174961167e565b5b835b81811015611773578061175f8882611688565b84526020840193505060a08101905061174c565b5050509392505050565b600082601f830112611792576117916115c1565b5b81356117a2848260208601611714565b91505092915050565b6000602082840312156117c1576117c0611430565b5b600082013567ffffffffffffffff8111156117df576117de611435565b5b6117eb8482850161177d565b91505092915050565b7f494e56414c49445f56414c554500000000000000000000000000000000000000600082015250565b600061182a600d836113a9565b9150611835826117f4565b602082019050919050565b600060208201905081810360008301526118598161181d565b9050919050565b7f4e487b7100000000000000000000000000000000000000000000000000000000600052603260045260246000fd5b7f494e56414c49445f414444524553530000000000000000000000000000000000600082015250565b60006118c5600f836113a9565b91506118d08261188f565b602082019050919050565b600060208201905081810360008301526118f4816118b8565b9050919050565b7f4e487b7100000000000000000000000000000000000000000000000000000000600052601160045260246000fd5b6000611935826114c5565b9150611940836114c5565b9250828201905080821115611958576119576118fb565b5b92915050565b7f5a45524f5f524557415244530000000000000000000000000000000000000000600082015250565b6000611994600c836113a9565b915061199f8261195e565b602082019050919050565b600060208201905081810360008301526119c381611987565b9050919050565b6119d3816114c5565b82525050565b6080820160008201516119ef60008501826119ca565b506020820151611a0260208501826119ca565b506040820151611a1560408501826119ca565b506060820151611a2860608501826119ca565b50505050565b6000608082019050611a4360008301846119d9565b92915050565b6000604082019050611a5e6000830185611597565b611a6b60208301846114cf565b9392505050565b60008115159050919050565b611a8781611a72565b8114611a9257600080fd5b50565b600081519050611aa481611a7e565b92915050565b600060208284031215611ac057611abf611430565b5b6000611ace84828501611a95565b91505092915050565b600081519050919050565b600081905092915050565b60005b83811015611b0b578082015181840152602081019050611af0565b60008484015250505050565b6000611b2282611ad7565b611b2c8185611ae2565b9350611b3c818560208601611aed565b80840191505092915050565b6000611b548284611b17565b91508190509291505056fea264697066735822122047ca51380a991ada0a296fe7f4af7a9b28a5ee8912097ea51673cae9262e6d3964736f6c63430008180033",
  "linkReferences": {},
  "deployedLinkReferences": {}
}