{
  "_format": "hh-sol-artifact-1",
  "contractName": "Referrals",
  "sourceName": "contracts/Referrals.sol",
  "abi": [
    {
      "inputs": [
        {
          "internalType": "address",
          "name": "_ldt",
          "type": "address"
        },
        {
          "internalType": "address",
          "name": "_tbb",
          "type": "address"
        },
        {
          "internalType": "address",
          "name": "_tbs",
          "type": "address"
        },
        {
          "internalType": "address",
          "name": "_tbg",
          "type": "address"
        }
      ],
      "stateMutability": "nonpayable",
      "type": "constructor"
    },
    {
      "inputs": [
        {
          "internalType": "address",
          "name": "target",
          "type": "address"
        }
      ],
      "name": "AddressEmptyCode",
      "type": "error"
    },
    {
      "inputs": [
        {
          "internalType": "address",
          "name": "account",
          "type": "address"
        }
      ],
      "name": "AddressInsufficientBalance",
      "type": "error"
    },
    {
      "inputs": [],
      "name": "FailedInnerCall",
      "type": "error"
    },
    {
      "inputs": [
        {
          "internalType": "address",
          "name": "owner",
          "type": "address"
        }
      ],
      "name": "OwnableInvalidOwner",
      "type": "error"
    },
    {
      "inputs": [
        {
          "internalType": "address",
          "name": "account",
          "type": "address"
        }
      ],
      "name": "OwnableUnauthorizedAccount",
      "type": "error"
    },
    {
      "inputs": [
        {
          "internalType": "address",
          "name": "token",
          "type": "address"
        }
      ],
      "name": "SafeERC20FailedOperation",
      "type": "error"
    },
    {
      "anonymous": false,
      "inputs": [
        {
          "indexed": false,
          "internalType": "uint256",
          "name": "ldt",
          "type": "uint256"
        },
        {
          "indexed": false,
          "internalType": "uint256",
          "name": "tbb",
          "type": "uint256"
        },
        {
          "indexed": false,
          "internalType": "uint256",
          "name": "tbs",
          "type": "uint256"
        },
        {
          "indexed": false,
          "internalType": "uint256",
          "name": "tbg",
          "type": "uint256"
        }
      ],
      "name": "DistributeRewards",
      "type": "event"
    },
    {
      "anonymous": false,
      "inputs": [
        {
          "indexed": true,
          "internalType": "address",
          "name": "wallet",
          "type": "address"
        },
        {
          "components": [
            {
              "internalType": "uint256",
              "name": "ldt",
              "type": "uint256"
            },
            {
              "internalType": "uint256",
              "name": "tbb",
              "type": "uint256"
            },
            {
              "internalType": "uint256",
              "name": "tbs",
              "type": "uint256"
            },
            {
              "internalType": "uint256",
              "name": "tbg",
              "type": "uint256"
            }
          ],
          "indexed": false,
          "internalType": "struct Referrals.Reward",
          "name": "amount",
          "type": "tuple"
        }
      ],
      "name": "Harvest",
      "type": "event"
    },
    {
      "anonymous": false,
      "inputs": [
        {
          "indexed": true,
          "internalType": "address",
          "name": "previousOwner",
          "type": "address"
        },
        {
          "indexed": true,
          "internalType": "address",
          "name": "newOwner",
          "type": "address"
        }
      ],
      "name": "OwnershipTransferStarted",
      "type": "event"
    },
    {
      "anonymous": false,
      "inputs": [
        {
          "indexed": true,
          "internalType": "address",
          "name": "previousOwner",
          "type": "address"
        },
        {
          "indexed": true,
          "internalType": "address",
          "name": "newOwner",
          "type": "address"
        }
      ],
      "name": "OwnershipTransferred",
      "type": "event"
    },
    {
      "anonymous": false,
      "inputs": [
        {
          "indexed": true,
          "internalType": "address",
          "name": "referrer",
          "type": "address"
        },
        {
          "indexed": true,
          "internalType": "address",
          "name": "referee",
          "type": "address"
        }
      ],
      "name": "ReferralRegistered",
      "type": "event"
    },
    {
      "inputs": [],
      "name": "acceptOwnership",
      "outputs": [],
      "stateMutability": "nonpayable",
      "type": "function"
    },
    {
      "inputs": [
        {
          "components": [
            {
              "internalType": "address",
              "name": "wallet",
              "type": "address"
            },
            {
              "internalType": "uint256",
              "name": "ldt",
              "type": "uint256"
            },
            {
              "internalType": "uint256",
              "name": "tbb",
              "type": "uint256"
            },
            {
              "internalType": "uint256",
              "name": "tbs",
              "type": "uint256"
            },
            {
              "internalType": "uint256",
              "name": "tbg",
              "type": "uint256"
            }
          ],
          "internalType": "struct Referrals.RewardItem[]",
          "name": "_rewards",
          "type": "tuple[]"
        }
      ],
      "name": "distributeRewards",
      "outputs": [],
      "stateMutability": "nonpayable",
      "type": "function"
    },
    {
      "inputs": [],
      "name": "harvest",
      "outputs": [],
      "stateMutability": "nonpayable",
      "type": "function"
    },
    {
      "inputs": [
        {
          "internalType": "address",
          "name": "",
          "type": "address"
        }
      ],
      "name": "lastWithdraw",
      "outputs": [
        {
          "internalType": "uint256",
          "name": "",
          "type": "uint256"
        }
      ],
      "stateMutability": "view",
      "type": "function"
    },
    {
      "inputs": [],
      "name": "ldt",
      "outputs": [
        {
          "internalType": "address",
          "name": "",
          "type": "address"
        }
      ],
      "stateMutability": "view",
      "type": "function"
    },
    {
      "inputs": [],
      "name": "maxWithdraw",
      "outputs": [
        {
          "internalType": "uint256",
          "name": "",
          "type": "uint256"
        }
      ],
      "stateMutability": "view",
      "type": "function"
    },
    {
      "inputs": [],
      "name": "owner",
      "outputs": [
        {
          "internalType": "address",
          "name": "",
          "type": "address"
        }
      ],
      "stateMutability": "view",
      "type": "function"
    },
    {
      "inputs": [],
      "name": "pendingOwner",
      "outputs": [
        {
          "internalType": "address",
          "name": "",
          "type": "address"
        }
      ],
      "stateMutability": "view",
      "type": "function"
    },
    {
      "inputs": [
        {
          "internalType": "address",
          "name": "",
          "type": "address"
        }
      ],
      "name": "referrers",
      "outputs": [
        {
          "internalType": "address",
          "name": "",
          "type": "address"
        }
      ],
      "stateMutability": "view",
      "type": "function"
    },
    {
      "inputs": [
        {
          "internalType": "address",
          "name": "referrer",
          "type": "address"
        }
      ],
      "name": "registerReferral",
      "outputs": [],
      "stateMutability": "nonpayable",
      "type": "function"
    },
    {
      "inputs": [],
      "name": "renounceOwnership",
      "outputs": [],
      "stateMutability": "nonpayable",
      "type": "function"
    },
    {
      "inputs": [
        {
          "internalType": "address",
          "name": "",
          "type": "address"
        }
      ],
      "name": "rewards",
      "outputs": [
        {
          "internalType": "uint256",
          "name": "ldt",
          "type": "uint256"
        },
        {
          "internalType": "uint256",
          "name": "tbb",
          "type": "uint256"
        },
        {
          "internalType": "uint256",
          "name": "tbs",
          "type": "uint256"
        },
        {
          "internalType": "uint256",
          "name": "tbg",
          "type": "uint256"
        }
      ],
      "stateMutability": "view",
      "type": "function"
    },
    {
      "inputs": [
        {
          "internalType": "uint256",
          "name": "_maxWithdraw",
          "type": "uint256"
        }
      ],
      "name": "setMaxWithdraw",
      "outputs": [],
      "stateMutability": "nonpayable",
      "type": "function"
    },
    {
      "inputs": [
        {
          "internalType": "uint256",
          "name": "_withdrawInterval",
          "type": "uint256"
        }
      ],
      "name": "setWithdrawInterval",
      "outputs": [],
      "stateMutability": "nonpayable",
      "type": "function"
    },
    {
      "inputs": [],
      "name": "tbb",
      "outputs": [
        {
          "internalType": "address",
          "name": "",
          "type": "address"
        }
      ],
      "stateMutability": "view",
      "type": "function"
    },
    {
      "inputs": [],
      "name": "tbg",
      "outputs": [
        {
          "internalType": "address",
          "name": "",
          "type": "address"
        }
      ],
      "stateMutability": "view",
      "type": "function"
    },
    {
      "inputs": [],
      "name": "tbs",
      "outputs": [
        {
          "internalType": "address",
          "name": "",
          "type": "address"
        }
      ],
      "stateMutability": "view",
      "type": "function"
    },
    {
      "inputs": [
        {
          "internalType": "address",
          "name": "newOwner",
          "type": "address"
        }
      ],
      "name": "transferOwnership",
      "outputs": [],
      "stateMutability": "nonpayable",
      "type": "function"
    },
    {
      "inputs": [],
      "name": "withdrawInterval",
      "outputs": [
        {
          "internalType": "uint256",
          "name": "",
          "type": "uint256"
        }
      ],
      "stateMutability": "view",
      "type": "function"
    },
    {
      "stateMutability": "payable",
      "type": "receive"
    }
  ],
  "bytecode": "0x608060405268056bc75e2d6310000060065562093a806007553480156200002557600080fd5b50604051620026373803806200263783398181016040528101906200004b919062000348565b33600073ffffffffffffffffffffffffffffffffffffffff168173ffffffffffffffffffffffffffffffffffffffff1603620000c15760006040517f1e4fbdf7000000000000000000000000000000000000000000000000000000008152600401620000b89190620003cb565b60405180910390fd5b620000d281620001e160201b60201c565b5083600260006101000a81548173ffffffffffffffffffffffffffffffffffffffff021916908373ffffffffffffffffffffffffffffffffffffffff16021790555082600360006101000a81548173ffffffffffffffffffffffffffffffffffffffff021916908373ffffffffffffffffffffffffffffffffffffffff16021790555081600460006101000a81548173ffffffffffffffffffffffffffffffffffffffff021916908373ffffffffffffffffffffffffffffffffffffffff16021790555080600560006101000a81548173ffffffffffffffffffffffffffffffffffffffff021916908373ffffffffffffffffffffffffffffffffffffffff16021790555050505050620003e8565b600160006101000a81549073ffffffffffffffffffffffffffffffffffffffff021916905562000217816200021a60201b60201c565b50565b60008060009054906101000a900473ffffffffffffffffffffffffffffffffffffffff169050816000806101000a81548173ffffffffffffffffffffffffffffffffffffffff021916908373ffffffffffffffffffffffffffffffffffffffff1602179055508173ffffffffffffffffffffffffffffffffffffffff168173ffffffffffffffffffffffffffffffffffffffff167f8be0079c531659141344cd1fd0a4f28419497f9722a3daafe3b4186f6b6457e060405160405180910390a35050565b600080fd5b600073ffffffffffffffffffffffffffffffffffffffff82169050919050565b60006200031082620002e3565b9050919050565b620003228162000303565b81146200032e57600080fd5b50565b600081519050620003428162000317565b92915050565b60008060008060808587031215620003655762000364620002de565b5b6000620003758782880162000331565b9450506020620003888782880162000331565b93505060406200039b8782880162000331565b9250506060620003ae8782880162000331565b91505092959194509250565b620003c58162000303565b82525050565b6000602082019050620003e26000830184620003ba565b92915050565b61223f80620003f86000396000f3fe6080604052600436106101185760003560e01c8063624d7b72116100a0578063903bf98b11610064578063903bf98b146103ae578063ac7a1b5b146103d9578063dcd9bb4214610404578063e30c39781461042d578063f2fde38b1461045857610158565b8063624d7b72146102ed578063715018a61461032a57806379ba5097146103415780637dad9115146103585780638da5cb5b1461038357610158565b80632c246501116100e75780632c2465011461021a578063320a66e6146102455780634641257d1461026e5780634a3b68cc1461028557806350c2161b146102c257610158565b80630700037d1461015d578063162075d81461019d578063209ab711146101c857806327450cc9146101f157610158565b36610158576040517f08c379a000000000000000000000000000000000000000000000000000000000815260040161014f90611935565b60405180910390fd5b600080fd5b34801561016957600080fd5b50610184600480360381019061017f91906119c7565b610481565b6040516101949493929190611a0d565b60405180910390f35b3480156101a957600080fd5b506101b26104b1565b6040516101bf9190611a52565b60405180910390f35b3480156101d457600080fd5b506101ef60048036038101906101ea91906119c7565b6104b7565b005b3480156101fd57600080fd5b5061021860048036038101906102139190611a99565b6106ce565b005b34801561022657600080fd5b5061022f610723565b60405161023c9190611ad5565b60405180910390f35b34801561025157600080fd5b5061026c60048036038101906102679190611cda565b610749565b005b34801561027a57600080fd5b50610283610c9e565b005b34801561029157600080fd5b506102ac60048036038101906102a791906119c7565b611148565b6040516102b99190611ad5565b60405180910390f35b3480156102ce57600080fd5b506102d761117b565b6040516102e49190611ad5565b60405180910390f35b3480156102f957600080fd5b50610314600480360381019061030f91906119c7565b6111a1565b6040516103219190611a52565b60405180910390f35b34801561033657600080fd5b5061033f6111b9565b005b34801561034d57600080fd5b506103566111cd565b005b34801561036457600080fd5b5061036d61125c565b60405161037a9190611ad5565b60405180910390f35b34801561038f57600080fd5b50610398611282565b6040516103a59190611ad5565b60405180910390f35b3480156103ba57600080fd5b506103c36112ab565b6040516103d09190611ad5565b60405180910390f35b3480156103e557600080fd5b506103ee6112d1565b6040516103fb9190611a52565b60405180910390f35b34801561041057600080fd5b5061042b60048036038101906104269190611a99565b6112d7565b005b34801561043957600080fd5b5061044261132e565b60405161044f9190611ad5565b60405180910390f35b34801561046457600080fd5b5061047f600480360381019061047a91906119c7565b611358565b005b60096020528060005260406000206000915090508060000154908060010154908060020154908060030154905084565b60075481565b3373ffffffffffffffffffffffffffffffffffffffff168173ffffffffffffffffffffffffffffffffffffffff1603610525576040517f08c379a000000000000000000000000000000000000000000000000000000000815260040161051c90611d6f565b60405180910390fd5b600073ffffffffffffffffffffffffffffffffffffffff16600860003373ffffffffffffffffffffffffffffffffffffffff1673ffffffffffffffffffffffffffffffffffffffff16815260200190815260200160002060009054906101000a900473ffffffffffffffffffffffffffffffffffffffff1673ffffffffffffffffffffffffffffffffffffffff16146105f3576040517f08c379a00000000000000000000000000000000000000000000000000000000081526004016105ea90611ddb565b60405180910390fd5b80600860003373ffffffffffffffffffffffffffffffffffffffff1673ffffffffffffffffffffffffffffffffffffffff16815260200190815260200160002060006101000a81548173ffffffffffffffffffffffffffffffffffffffff021916908373ffffffffffffffffffffffffffffffffffffffff1602179055503373ffffffffffffffffffffffffffffffffffffffff168173ffffffffffffffffffffffffffffffffffffffff167f5f1ca2fcc108b751843a763e60d2201f593516109d7dbb1b700468f2d4190bb760405160405180910390a350565b6106d6611405565b60008111610719576040517f08c379a000000000000000000000000000000000000000000000000000000000815260040161071090611e47565b60405180910390fd5b8060078190555050565b600360009054906101000a900473ffffffffffffffffffffffffffffffffffffffff1681565b610751611405565b60008060008060005b8551811015610b0157600073ffffffffffffffffffffffffffffffffffffffff1686828151811061078e5761078d611e67565b5b60200260200101516000015173ffffffffffffffffffffffffffffffffffffffff16036107f0576040517f08c379a00000000000000000000000000000000000000000000000000000000081526004016107e790611ee2565b60405180910390fd5b85818151811061080357610802611e67565b5b6020026020010151602001518561081a9190611f31565b945085818151811061082f5761082e611e67565b5b602002602001015160400151846108469190611f31565b935085818151811061085b5761085a611e67565b5b602002602001015160600151836108729190611f31565b925085818151811061088757610886611e67565b5b6020026020010151608001518261089e9190611f31565b91508581815181106108b3576108b2611e67565b5b602002602001015160200151600960008884815181106108d6576108d5611e67565b5b60200260200101516000015173ffffffffffffffffffffffffffffffffffffffff1673ffffffffffffffffffffffffffffffffffffffff168152602001908152602001600020600001600082825461092e9190611f31565b9250508190555085818151811061094857610947611e67565b5b6020026020010151604001516009600088848151811061096b5761096a611e67565b5b60200260200101516000015173ffffffffffffffffffffffffffffffffffffffff1673ffffffffffffffffffffffffffffffffffffffff16815260200190815260200160002060010160008282546109c39190611f31565b925050819055508581815181106109dd576109dc611e67565b5b60200260200101516060015160096000888481518110610a00576109ff611e67565b5b60200260200101516000015173ffffffffffffffffffffffffffffffffffffffff1673ffffffffffffffffffffffffffffffffffffffff1681526020019081526020016000206002016000828254610a589190611f31565b92505081905550858181518110610a7257610a71611e67565b5b60200260200101516080015160096000888481518110610a9557610a94611e67565b5b60200260200101516000015173ffffffffffffffffffffffffffffffffffffffff1673ffffffffffffffffffffffffffffffffffffffff1681526020019081526020016000206003016000828254610aed9190611f31565b92505081905550808060010191505061075a565b50610b58610b0d611282565b3086600260009054906101000a900473ffffffffffffffffffffffffffffffffffffffff1673ffffffffffffffffffffffffffffffffffffffff1661148c909392919063ffffffff16565b610bae610b63611282565b3085600360009054906101000a900473ffffffffffffffffffffffffffffffffffffffff1673ffffffffffffffffffffffffffffffffffffffff1661148c909392919063ffffffff16565b610c04610bb9611282565b3084600460009054906101000a900473ffffffffffffffffffffffffffffffffffffffff1673ffffffffffffffffffffffffffffffffffffffff1661148c909392919063ffffffff16565b610c5a610c0f611282565b3083600560009054906101000a900473ffffffffffffffffffffffffffffffffffffffff1673ffffffffffffffffffffffffffffffffffffffff1661148c909392919063ffffffff16565b7f5e9b5cd9152c1606f9dffe759fe4a8b9375b8ece80486afc71749726cd5a997484848484604051610c8f9493929190611a0d565b60405180910390a15050505050565b600754600a60003373ffffffffffffffffffffffffffffffffffffffff1673ffffffffffffffffffffffffffffffffffffffff16815260200190815260200160002054610ceb9190611f31565b421015610d2d576040517f08c379a0000000000000000000000000000000000000000000000000000000008152600401610d2490611fb1565b60405180910390fd5b6000600960003373ffffffffffffffffffffffffffffffffffffffff1673ffffffffffffffffffffffffffffffffffffffff168152602001908152602001600020604051806080016040529081600082015481526020016001820154815260200160028201548152602001600382015481525050905060008160600151826040015183602001518460000151610dc39190611f31565b610dcd9190611f31565b610dd79190611f31565b11610e17576040517f08c379a0000000000000000000000000000000000000000000000000000000008152600401610e0e9061201d565b60405180910390fd5b600081600001511115610e7657610e75338260000151600260009054906101000a900473ffffffffffffffffffffffffffffffffffffffff1673ffffffffffffffffffffffffffffffffffffffff1661150e9092919063ffffffff16565b5b600081602001511115610ed557610ed4338260200151600360009054906101000a900473ffffffffffffffffffffffffffffffffffffffff1673ffffffffffffffffffffffffffffffffffffffff1661150e9092919063ffffffff16565b5b600081604001511115610f3457610f33338260400151600460009054906101000a900473ffffffffffffffffffffffffffffffffffffffff1673ffffffffffffffffffffffffffffffffffffffff1661150e9092919063ffffffff16565b5b600081606001511115610f9357610f92338260600151600560009054906101000a900473ffffffffffffffffffffffffffffffffffffffff1673ffffffffffffffffffffffffffffffffffffffff1661150e9092919063ffffffff16565b5b6000600960003373ffffffffffffffffffffffffffffffffffffffff1673ffffffffffffffffffffffffffffffffffffffff168152602001908152602001600020600001819055506000600960003373ffffffffffffffffffffffffffffffffffffffff1673ffffffffffffffffffffffffffffffffffffffff168152602001908152602001600020600101819055506000600960003373ffffffffffffffffffffffffffffffffffffffff1673ffffffffffffffffffffffffffffffffffffffff168152602001908152602001600020600201819055506000600960003373ffffffffffffffffffffffffffffffffffffffff1673ffffffffffffffffffffffffffffffffffffffff1681526020019081526020016000206003018190555042600a60003373ffffffffffffffffffffffffffffffffffffffff1673ffffffffffffffffffffffffffffffffffffffff168152602001908152602001600020819055503373ffffffffffffffffffffffffffffffffffffffff167f6169dbacaf02f544ffb0d6c51248f61dac5d1dc4268a47c0c4a9908982849ff28260405161113d91906120a1565b60405180910390a250565b60086020528060005260406000206000915054906101000a900473ffffffffffffffffffffffffffffffffffffffff1681565b600260009054906101000a900473ffffffffffffffffffffffffffffffffffffffff1681565b600a6020528060005260406000206000915090505481565b6111c1611405565b6111cb600061158d565b565b60006111d76115be565b90508073ffffffffffffffffffffffffffffffffffffffff166111f861132e565b73ffffffffffffffffffffffffffffffffffffffff161461125057806040517f118cdaa70000000000000000000000000000000000000000000000000000000081526004016112479190611ad5565b60405180910390fd5b6112598161158d565b50565b600560009054906101000a900473ffffffffffffffffffffffffffffffffffffffff1681565b60008060009054906101000a900473ffffffffffffffffffffffffffffffffffffffff16905090565b600460009054906101000a900473ffffffffffffffffffffffffffffffffffffffff1681565b60065481565b6112df611405565b60008111611322576040517f08c379a000000000000000000000000000000000000000000000000000000000815260040161131990611e47565b60405180910390fd5b60065460068190555050565b6000600160009054906101000a900473ffffffffffffffffffffffffffffffffffffffff16905090565b611360611405565b80600160006101000a81548173ffffffffffffffffffffffffffffffffffffffff021916908373ffffffffffffffffffffffffffffffffffffffff1602179055508073ffffffffffffffffffffffffffffffffffffffff166113c0611282565b73ffffffffffffffffffffffffffffffffffffffff167f38d16b8cac22d99fc7c124b9cd0de2d3fa1faef420bfe791d8c362d765e2270060405160405180910390a350565b61140d6115be565b73ffffffffffffffffffffffffffffffffffffffff1661142b611282565b73ffffffffffffffffffffffffffffffffffffffff161461148a5761144e6115be565b6040517f118cdaa70000000000000000000000000000000000000000000000000000000081526004016114819190611ad5565b60405180910390fd5b565b611508848573ffffffffffffffffffffffffffffffffffffffff166323b872dd8686866040516024016114c1939291906120bc565b604051602081830303815290604052915060e01b6020820180517bffffffffffffffffffffffffffffffffffffffffffffffffffffffff83818316178352505050506115c6565b50505050565b611588838473ffffffffffffffffffffffffffffffffffffffff1663a9059cbb85856040516024016115419291906120f3565b604051602081830303815290604052915060e01b6020820180517bffffffffffffffffffffffffffffffffffffffffffffffffffffffff83818316178352505050506115c6565b505050565b600160006101000a81549073ffffffffffffffffffffffffffffffffffffffff02191690556115bb8161165d565b50565b600033905090565b60006115f1828473ffffffffffffffffffffffffffffffffffffffff1661172190919063ffffffff16565b905060008151141580156116165750808060200190518101906116149190612154565b155b1561165857826040517f5274afe700000000000000000000000000000000000000000000000000000000815260040161164f9190611ad5565b60405180910390fd5b505050565b60008060009054906101000a900473ffffffffffffffffffffffffffffffffffffffff169050816000806101000a81548173ffffffffffffffffffffffffffffffffffffffff021916908373ffffffffffffffffffffffffffffffffffffffff1602179055508173ffffffffffffffffffffffffffffffffffffffff168173ffffffffffffffffffffffffffffffffffffffff167f8be0079c531659141344cd1fd0a4f28419497f9722a3daafe3b4186f6b6457e060405160405180910390a35050565b606061172f83836000611737565b905092915050565b60608147101561177e57306040517fcd7860590000000000000000000000000000000000000000000000000000000081526004016117759190611ad5565b60405180910390fd5b6000808573ffffffffffffffffffffffffffffffffffffffff1684866040516117a791906121f2565b60006040518083038185875af1925050503d80600081146117e4576040519150601f19603f3d011682016040523d82523d6000602084013e6117e9565b606091505b50915091506117f9868383611804565b925050509392505050565b6060826118195761181482611893565b61188b565b60008251148015611841575060008473ffffffffffffffffffffffffffffffffffffffff163b145b1561188357836040517f9996b31500000000000000000000000000000000000000000000000000000000815260040161187a9190611ad5565b60405180910390fd5b81905061188c565b5b9392505050565b6000815111156118a65780518082602001fd5b6040517f1425ea4200000000000000000000000000000000000000000000000000000000815260040160405180910390fd5b600082825260208201905092915050565b7f4e4f545f50415941424c45000000000000000000000000000000000000000000600082015250565b600061191f600b836118d8565b915061192a826118e9565b602082019050919050565b6000602082019050818103600083015261194e81611912565b9050919050565b6000604051905090565b600080fd5b600080fd5b600073ffffffffffffffffffffffffffffffffffffffff82169050919050565b600061199482611969565b9050919050565b6119a481611989565b81146119af57600080fd5b50565b6000813590506119c18161199b565b92915050565b6000602082840312156119dd576119dc61195f565b5b60006119eb848285016119b2565b91505092915050565b6000819050919050565b611a07816119f4565b82525050565b6000608082019050611a2260008301876119fe565b611a2f60208301866119fe565b611a3c60408301856119fe565b611a4960608301846119fe565b95945050505050565b6000602082019050611a6760008301846119fe565b92915050565b611a76816119f4565b8114611a8157600080fd5b50565b600081359050611a9381611a6d565b92915050565b600060208284031215611aaf57611aae61195f565b5b6000611abd84828501611a84565b91505092915050565b611acf81611989565b82525050565b6000602082019050611aea6000830184611ac6565b92915050565b600080fd5b6000601f19601f8301169050919050565b7f4e487b7100000000000000000000000000000000000000000000000000000000600052604160045260246000fd5b611b3e82611af5565b810181811067ffffffffffffffff82111715611b5d57611b5c611b06565b5b80604052505050565b6000611b70611955565b9050611b7c8282611b35565b919050565b600067ffffffffffffffff821115611b9c57611b9b611b06565b5b602082029050602081019050919050565b600080fd5b600080fd5b600060a08284031215611bcd57611bcc611bb2565b5b611bd760a0611b66565b90506000611be7848285016119b2565b6000830152506020611bfb84828501611a84565b6020830152506040611c0f84828501611a84565b6040830152506060611c2384828501611a84565b6060830152506080611c3784828501611a84565b60808301525092915050565b6000611c56611c5184611b81565b611b66565b90508083825260208201905060a08402830185811115611c7957611c78611bad565b5b835b81811015611ca25780611c8e8882611bb7565b84526020840193505060a081019050611c7b565b5050509392505050565b600082601f830112611cc157611cc0611af0565b5b8135611cd1848260208601611c43565b91505092915050565b600060208284031215611cf057611cef61195f565b5b600082013567ffffffffffffffff811115611d0e57611d0d611964565b5b611d1a84828501611cac565b91505092915050565b7f494e56414c49445f524546455252455200000000000000000000000000000000600082015250565b6000611d596010836118d8565b9150611d6482611d23565b602082019050919050565b60006020820190508181036000830152611d8881611d4c565b9050919050565b7f414c52454144595f524546455252454400000000000000000000000000000000600082015250565b6000611dc56010836118d8565b9150611dd082611d8f565b602082019050919050565b60006020820190508181036000830152611df481611db8565b9050919050565b7f494e56414c49445f56414c554500000000000000000000000000000000000000600082015250565b6000611e31600d836118d8565b9150611e3c82611dfb565b602082019050919050565b60006020820190508181036000830152611e6081611e24565b9050919050565b7f4e487b7100000000000000000000000000000000000000000000000000000000600052603260045260246000fd5b7f494e56414c49445f414444524553530000000000000000000000000000000000600082015250565b6000611ecc600f836118d8565b9150611ed782611e96565b602082019050919050565b60006020820190508181036000830152611efb81611ebf565b9050919050565b7f4e487b7100000000000000000000000000000000000000000000000000000000600052601160045260246000fd5b6000611f3c826119f4565b9150611f47836119f4565b9250828201905080821115611f5f57611f5e611f02565b5b92915050565b7f54494d455f4c4f434b0000000000000000000000000000000000000000000000600082015250565b6000611f9b6009836118d8565b9150611fa682611f65565b602082019050919050565b60006020820190508181036000830152611fca81611f8e565b9050919050565b7f5a45524f5f524557415244530000000000000000000000000000000000000000600082015250565b6000612007600c836118d8565b915061201282611fd1565b602082019050919050565b6000602082019050818103600083015261203681611ffa565b9050919050565b612046816119f4565b82525050565b608082016000820151612062600085018261203d565b506020820151612075602085018261203d565b506040820151612088604085018261203d565b50606082015161209b606085018261203d565b50505050565b60006080820190506120b6600083018461204c565b92915050565b60006060820190506120d16000830186611ac6565b6120de6020830185611ac6565b6120eb60408301846119fe565b949350505050565b60006040820190506121086000830185611ac6565b61211560208301846119fe565b9392505050565b60008115159050919050565b6121318161211c565b811461213c57600080fd5b50565b60008151905061214e81612128565b92915050565b60006020828403121561216a5761216961195f565b5b60006121788482850161213f565b91505092915050565b600081519050919050565b600081905092915050565b60005b838110156121b557808201518184015260208101905061219a565b60008484015250505050565b60006121cc82612181565b6121d6818561218c565b93506121e6818560208601612197565b80840191505092915050565b60006121fe82846121c1565b91508190509291505056fea264697066735822122029d4936b6f8d2bdd30bce2c70956f1c1b55b82cc5db6b899470586ed6b312d5b64736f6c63430008180033",
  "linkReferences": {},
  "deployedLinkReferences": {}
}