{
  "_format": "hh-sol-artifact-1",
  "contractName": "Referrals",
  "sourceName": "contracts/Referrals.sol",
  "abi": [
    {
      "inputs": [],
      "stateMutability": "nonpayable",
      "type": "constructor"
    },
    {
      "inputs": [
        {
          "internalType": "address",
          "name": "owner",
          "type": "address"
        }
      ],
      "name": "OwnableInvalidOwner",
      "type": "error"
    },
    {
      "inputs": [
        {
          "internalType": "address",
          "name": "account",
          "type": "address"
        }
      ],
      "name": "OwnableUnauthorizedAccount",
      "type": "error"
    },
    {
      "anonymous": false,
      "inputs": [
        {
          "indexed": true,
          "internalType": "address",
          "name": "previousOwner",
          "type": "address"
        },
        {
          "indexed": true,
          "internalType": "address",
          "name": "newOwner",
          "type": "address"
        }
      ],
      "name": "OwnershipTransferStarted",
      "type": "event"
    },
    {
      "anonymous": false,
      "inputs": [
        {
          "indexed": true,
          "internalType": "address",
          "name": "previousOwner",
          "type": "address"
        },
        {
          "indexed": true,
          "internalType": "address",
          "name": "newOwner",
          "type": "address"
        }
      ],
      "name": "OwnershipTransferred",
      "type": "event"
    },
    {
      "anonymous": false,
      "inputs": [
        {
          "indexed": true,
          "internalType": "address",
          "name": "referrer",
          "type": "address"
        },
        {
          "indexed": true,
          "internalType": "address",
          "name": "referral",
          "type": "address"
        }
      ],
      "name": "ReferralRegistered",
      "type": "event"
    },
    {
      "inputs": [],
      "name": "acceptOwnership",
      "outputs": [],
      "stateMutability": "nonpayable",
      "type": "function"
    },
    {
      "inputs": [],
      "name": "owner",
      "outputs": [
        {
          "internalType": "address",
          "name": "",
          "type": "address"
        }
      ],
      "stateMutability": "view",
      "type": "function"
    },
    {
      "inputs": [],
      "name": "pendingOwner",
      "outputs": [
        {
          "internalType": "address",
          "name": "",
          "type": "address"
        }
      ],
      "stateMutability": "view",
      "type": "function"
    },
    {
      "inputs": [
        {
          "internalType": "address",
          "name": "_referral",
          "type": "address"
        }
      ],
      "name": "referred",
      "outputs": [
        {
          "internalType": "bool",
          "name": "",
          "type": "bool"
        }
      ],
      "stateMutability": "view",
      "type": "function"
    },
    {
      "inputs": [
        {
          "internalType": "address",
          "name": "",
          "type": "address"
        }
      ],
      "name": "referrers",
      "outputs": [
        {
          "internalType": "address",
          "name": "",
          "type": "address"
        }
      ],
      "stateMutability": "view",
      "type": "function"
    },
    {
      "inputs": [
        {
          "internalType": "address",
          "name": "referrer",
          "type": "address"
        }
      ],
      "name": "register",
      "outputs": [],
      "stateMutability": "nonpayable",
      "type": "function"
    },
    {
      "inputs": [],
      "name": "renounceOwnership",
      "outputs": [],
      "stateMutability": "nonpayable",
      "type": "function"
    },
    {
      "inputs": [
        {
          "internalType": "address",
          "name": "newOwner",
          "type": "address"
        }
      ],
      "name": "transferOwnership",
      "outputs": [],
      "stateMutability": "nonpayable",
      "type": "function"
    },
    {
      "stateMutability": "payable",
      "type": "receive"
    }
  ],
  "bytecode": "0x608060405234801561001057600080fd5b5033600073ffffffffffffffffffffffffffffffffffffffff168173ffffffffffffffffffffffffffffffffffffffff16036100845760006040517f1e4fbdf700000000000000000000000000000000000000000000000000000000815260040161007b91906101d5565b60405180910390fd5b6100938161009960201b60201c565b506101f0565b600160006101000a81549073ffffffffffffffffffffffffffffffffffffffff02191690556100cd816100d060201b60201c565b50565b60008060009054906101000a900473ffffffffffffffffffffffffffffffffffffffff169050816000806101000a81548173ffffffffffffffffffffffffffffffffffffffff021916908373ffffffffffffffffffffffffffffffffffffffff1602179055508173ffffffffffffffffffffffffffffffffffffffff168173ffffffffffffffffffffffffffffffffffffffff167f8be0079c531659141344cd1fd0a4f28419497f9722a3daafe3b4186f6b6457e060405160405180910390a35050565b600073ffffffffffffffffffffffffffffffffffffffff82169050919050565b60006101bf82610194565b9050919050565b6101cf816101b4565b82525050565b60006020820190506101ea60008301846101c6565b92915050565b610a98806101ff6000396000f3fe60806040526004361061007f5760003560e01c80638da5cb5b1161004e5780638da5cb5b14610158578063a0388ca614610183578063e30c3978146101c0578063f2fde38b146101eb576100bf565b80634420e486146100c45780634a3b68cc146100ed578063715018a61461012a57806379ba509714610141576100bf565b366100bf576040517f08c379a00000000000000000000000000000000000000000000000000000000081526004016100b69061087a565b60405180910390fd5b600080fd5b3480156100d057600080fd5b506100eb60048036038101906100e691906108fd565b610214565b005b3480156100f957600080fd5b50610114600480360381019061010f91906108fd565b61042b565b6040516101219190610939565b60405180910390f35b34801561013657600080fd5b5061013f61045e565b005b34801561014d57600080fd5b50610156610472565b005b34801561016457600080fd5b5061016d610501565b60405161017a9190610939565b60405180910390f35b34801561018f57600080fd5b506101aa60048036038101906101a591906108fd565b61052a565b6040516101b7919061096f565b60405180910390f35b3480156101cc57600080fd5b506101d56105c2565b6040516101e29190610939565b60405180910390f35b3480156101f757600080fd5b50610212600480360381019061020d91906108fd565b6105ec565b005b3373ffffffffffffffffffffffffffffffffffffffff168173ffffffffffffffffffffffffffffffffffffffff1603610282576040517f08c379a0000000000000000000000000000000000000000000000000000000008152600401610279906109d6565b60405180910390fd5b600073ffffffffffffffffffffffffffffffffffffffff16600260003373ffffffffffffffffffffffffffffffffffffffff1673ffffffffffffffffffffffffffffffffffffffff16815260200190815260200160002060009054906101000a900473ffffffffffffffffffffffffffffffffffffffff1673ffffffffffffffffffffffffffffffffffffffff1614610350576040517f08c379a000000000000000000000000000000000000000000000000000000000815260040161034790610a42565b60405180910390fd5b80600260003373ffffffffffffffffffffffffffffffffffffffff1673ffffffffffffffffffffffffffffffffffffffff16815260200190815260200160002060006101000a81548173ffffffffffffffffffffffffffffffffffffffff021916908373ffffffffffffffffffffffffffffffffffffffff1602179055503373ffffffffffffffffffffffffffffffffffffffff168173ffffffffffffffffffffffffffffffffffffffff167f5f1ca2fcc108b751843a763e60d2201f593516109d7dbb1b700468f2d4190bb760405160405180910390a350565b60026020528060005260406000206000915054906101000a900473ffffffffffffffffffffffffffffffffffffffff1681565b610466610699565b6104706000610720565b565b600061047c610751565b90508073ffffffffffffffffffffffffffffffffffffffff1661049d6105c2565b73ffffffffffffffffffffffffffffffffffffffff16146104f557806040517f118cdaa70000000000000000000000000000000000000000000000000000000081526004016104ec9190610939565b60405180910390fd5b6104fe81610720565b50565b60008060009054906101000a900473ffffffffffffffffffffffffffffffffffffffff16905090565b60008073ffffffffffffffffffffffffffffffffffffffff16600260008473ffffffffffffffffffffffffffffffffffffffff1673ffffffffffffffffffffffffffffffffffffffff16815260200190815260200160002060009054906101000a900473ffffffffffffffffffffffffffffffffffffffff1673ffffffffffffffffffffffffffffffffffffffff1614159050919050565b6000600160009054906101000a900473ffffffffffffffffffffffffffffffffffffffff16905090565b6105f4610699565b80600160006101000a81548173ffffffffffffffffffffffffffffffffffffffff021916908373ffffffffffffffffffffffffffffffffffffffff1602179055508073ffffffffffffffffffffffffffffffffffffffff16610654610501565b73ffffffffffffffffffffffffffffffffffffffff167f38d16b8cac22d99fc7c124b9cd0de2d3fa1faef420bfe791d8c362d765e2270060405160405180910390a350565b6106a1610751565b73ffffffffffffffffffffffffffffffffffffffff166106bf610501565b73ffffffffffffffffffffffffffffffffffffffff161461071e576106e2610751565b6040517f118cdaa70000000000000000000000000000000000000000000000000000000081526004016107159190610939565b60405180910390fd5b565b600160006101000a81549073ffffffffffffffffffffffffffffffffffffffff021916905561074e81610759565b50565b600033905090565b60008060009054906101000a900473ffffffffffffffffffffffffffffffffffffffff169050816000806101000a81548173ffffffffffffffffffffffffffffffffffffffff021916908373ffffffffffffffffffffffffffffffffffffffff1602179055508173ffffffffffffffffffffffffffffffffffffffff168173ffffffffffffffffffffffffffffffffffffffff167f8be0079c531659141344cd1fd0a4f28419497f9722a3daafe3b4186f6b6457e060405160405180910390a35050565b600082825260208201905092915050565b7f4e4f545f50415941424c45000000000000000000000000000000000000000000600082015250565b6000610864600b8361081d565b915061086f8261082e565b602082019050919050565b6000602082019050818103600083015261089381610857565b9050919050565b600080fd5b600073ffffffffffffffffffffffffffffffffffffffff82169050919050565b60006108ca8261089f565b9050919050565b6108da816108bf565b81146108e557600080fd5b50565b6000813590506108f7816108d1565b92915050565b6000602082840312156109135761091261089a565b5b6000610921848285016108e8565b91505092915050565b610933816108bf565b82525050565b600060208201905061094e600083018461092a565b92915050565b60008115159050919050565b61096981610954565b82525050565b60006020820190506109846000830184610960565b92915050565b7f494e56414c49445f524546455252455200000000000000000000000000000000600082015250565b60006109c060108361081d565b91506109cb8261098a565b602082019050919050565b600060208201905081810360008301526109ef816109b3565b9050919050565b7f414c52454144595f524546455252454400000000000000000000000000000000600082015250565b6000610a2c60108361081d565b9150610a37826109f6565b602082019050919050565b60006020820190508181036000830152610a5b81610a1f565b905091905056fea26469706673582212204d53b38d5f01f01c5f7c5987133695b9053c1da28fe363e18eac7c85941da73a64736f6c63430008180033",
  "linkReferences": {},
  "deployedLinkReferences": {}
}