{
  "_format": "hh-sol-artifact-1",
  "contractName": "RewardSplitter",
  "sourceName": "contracts/RewardSplitter.sol",
  "abi": [
    {
      "inputs": [
        {
          "internalType": "address",
          "name": "_rewardToken",
          "type": "address"
        },
        {
          "internalType": "address",
          "name": "_distributor",
          "type": "address"
        },
        {
          "internalType": "address",
          "name": "_tbbAddress",
          "type": "address"
        },
        {
          "internalType": "address",
          "name": "_tbbFarmAddress",
          "type": "address"
        },
        {
          "internalType": "address",
          "name": "_tbsAddress",
          "type": "address"
        },
        {
          "internalType": "address",
          "name": "_tbsFarmAddress",
          "type": "address"
        },
        {
          "internalType": "address",
          "name": "_tbgAddress",
          "type": "address"
        },
        {
          "internalType": "address",
          "name": "_tbgFarmAddress",
          "type": "address"
        }
      ],
      "stateMutability": "nonpayable",
      "type": "constructor"
    },
    {
      "inputs": [
        {
          "internalType": "address",
          "name": "owner",
          "type": "address"
        }
      ],
      "name": "OwnableInvalidOwner",
      "type": "error"
    },
    {
      "inputs": [
        {
          "internalType": "address",
          "name": "account",
          "type": "address"
        }
      ],
      "name": "OwnableUnauthorizedAccount",
      "type": "error"
    },
    {
      "anonymous": false,
      "inputs": [
        {
          "indexed": true,
          "internalType": "address",
          "name": "previousOwner",
          "type": "address"
        },
        {
          "indexed": true,
          "internalType": "address",
          "name": "newOwner",
          "type": "address"
        }
      ],
      "name": "OwnershipTransferStarted",
      "type": "event"
    },
    {
      "anonymous": false,
      "inputs": [
        {
          "indexed": true,
          "internalType": "address",
          "name": "previousOwner",
          "type": "address"
        },
        {
          "indexed": true,
          "internalType": "address",
          "name": "newOwner",
          "type": "address"
        }
      ],
      "name": "OwnershipTransferred",
      "type": "event"
    },
    {
      "inputs": [],
      "name": "acceptOwnership",
      "outputs": [],
      "stateMutability": "nonpayable",
      "type": "function"
    },
    {
      "inputs": [],
      "name": "approveTb",
      "outputs": [],
      "stateMutability": "nonpayable",
      "type": "function"
    },
    {
      "inputs": [
        {
          "internalType": "address",
          "name": "_farm",
          "type": "address"
        },
        {
          "components": [
            {
              "internalType": "uint256",
              "name": "ldt",
              "type": "uint256"
            },
            {
              "internalType": "uint256",
              "name": "tb",
              "type": "uint256"
            }
          ],
          "internalType": "struct RewardSplitter.RewardRate",
          "name": "_rate",
          "type": "tuple"
        }
      ],
      "name": "calculateStakingLiquidity",
      "outputs": [
        {
          "internalType": "uint256",
          "name": "",
          "type": "uint256"
        },
        {
          "internalType": "uint256",
          "name": "",
          "type": "uint256"
        }
      ],
      "stateMutability": "view",
      "type": "function"
    },
    {
      "inputs": [],
      "name": "distributor",
      "outputs": [
        {
          "internalType": "address",
          "name": "",
          "type": "address"
        }
      ],
      "stateMutability": "view",
      "type": "function"
    },
    {
      "inputs": [
        {
          "internalType": "address",
          "name": "_farm",
          "type": "address"
        }
      ],
      "name": "getLdtLiquidity",
      "outputs": [
        {
          "internalType": "uint256",
          "name": "liquidity",
          "type": "uint256"
        }
      ],
      "stateMutability": "view",
      "type": "function"
    },
    {
      "inputs": [],
      "name": "ldtAmbassadorIncentiveReward",
      "outputs": [
        {
          "internalType": "uint8",
          "name": "",
          "type": "uint8"
        }
      ],
      "stateMutability": "view",
      "type": "function"
    },
    {
      "inputs": [],
      "name": "ldtDaoFundReward",
      "outputs": [
        {
          "internalType": "uint8",
          "name": "",
          "type": "uint8"
        }
      ],
      "stateMutability": "view",
      "type": "function"
    },
    {
      "inputs": [],
      "name": "ldtFarmingReward",
      "outputs": [
        {
          "internalType": "uint8",
          "name": "",
          "type": "uint8"
        }
      ],
      "stateMutability": "view",
      "type": "function"
    },
    {
      "inputs": [],
      "name": "ldtGreenEnergyProducersReward",
      "outputs": [
        {
          "internalType": "uint8",
          "name": "",
          "type": "uint8"
        }
      ],
      "stateMutability": "view",
      "type": "function"
    },
    {
      "inputs": [],
      "name": "ldtMarketingReward",
      "outputs": [
        {
          "internalType": "uint8",
          "name": "",
          "type": "uint8"
        }
      ],
      "stateMutability": "view",
      "type": "function"
    },
    {
      "inputs": [],
      "name": "ldtStakingReward",
      "outputs": [
        {
          "internalType": "uint8",
          "name": "",
          "type": "uint8"
        }
      ],
      "stateMutability": "view",
      "type": "function"
    },
    {
      "inputs": [],
      "name": "ldtTeamReward",
      "outputs": [
        {
          "internalType": "uint8",
          "name": "",
          "type": "uint8"
        }
      ],
      "stateMutability": "view",
      "type": "function"
    },
    {
      "inputs": [],
      "name": "owner",
      "outputs": [
        {
          "internalType": "address",
          "name": "",
          "type": "address"
        }
      ],
      "stateMutability": "view",
      "type": "function"
    },
    {
      "inputs": [],
      "name": "pendingOwner",
      "outputs": [
        {
          "internalType": "address",
          "name": "",
          "type": "address"
        }
      ],
      "stateMutability": "view",
      "type": "function"
    },
    {
      "inputs": [],
      "name": "recoverOwnershipTbb",
      "outputs": [],
      "stateMutability": "nonpayable",
      "type": "function"
    },
    {
      "inputs": [],
      "name": "recoverOwnershipTbbFarm",
      "outputs": [],
      "stateMutability": "nonpayable",
      "type": "function"
    },
    {
      "inputs": [],
      "name": "recoverOwnershipTbg",
      "outputs": [],
      "stateMutability": "nonpayable",
      "type": "function"
    },
    {
      "inputs": [],
      "name": "recoverOwnershipTbgFarm",
      "outputs": [],
      "stateMutability": "nonpayable",
      "type": "function"
    },
    {
      "inputs": [],
      "name": "recoverOwnershipTbs",
      "outputs": [],
      "stateMutability": "nonpayable",
      "type": "function"
    },
    {
      "inputs": [],
      "name": "recoverOwnershipTbsFarm",
      "outputs": [],
      "stateMutability": "nonpayable",
      "type": "function"
    },
    {
      "inputs": [],
      "name": "renounceOwnership",
      "outputs": [],
      "stateMutability": "nonpayable",
      "type": "function"
    },
    {
      "inputs": [],
      "name": "requestDistribution",
      "outputs": [],
      "stateMutability": "nonpayable",
      "type": "function"
    },
    {
      "inputs": [],
      "name": "rewardToken",
      "outputs": [
        {
          "internalType": "address",
          "name": "",
          "type": "address"
        }
      ],
      "stateMutability": "view",
      "type": "function"
    },
    {
      "inputs": [
        {
          "internalType": "uint256",
          "name": "_ldtRate",
          "type": "uint256"
        },
        {
          "internalType": "uint256",
          "name": "_tbbRate",
          "type": "uint256"
        }
      ],
      "name": "setTbbRewardRate",
      "outputs": [],
      "stateMutability": "nonpayable",
      "type": "function"
    },
    {
      "inputs": [
        {
          "internalType": "uint256",
          "name": "_ldtRate",
          "type": "uint256"
        },
        {
          "internalType": "uint256",
          "name": "_tbgRate",
          "type": "uint256"
        }
      ],
      "name": "setTbgRewardRate",
      "outputs": [],
      "stateMutability": "nonpayable",
      "type": "function"
    },
    {
      "inputs": [
        {
          "internalType": "uint256",
          "name": "_ldtRate",
          "type": "uint256"
        },
        {
          "internalType": "uint256",
          "name": "_tbsRate",
          "type": "uint256"
        }
      ],
      "name": "setTbsRewardRate",
      "outputs": [],
      "stateMutability": "nonpayable",
      "type": "function"
    },
    {
      "inputs": [],
      "name": "tbAmbassadorIncentiveReward",
      "outputs": [
        {
          "internalType": "uint8",
          "name": "",
          "type": "uint8"
        }
      ],
      "stateMutability": "view",
      "type": "function"
    },
    {
      "inputs": [],
      "name": "tbDaoFundReward",
      "outputs": [
        {
          "internalType": "uint8",
          "name": "",
          "type": "uint8"
        }
      ],
      "stateMutability": "view",
      "type": "function"
    },
    {
      "inputs": [],
      "name": "tbFarmingReward",
      "outputs": [
        {
          "internalType": "uint8",
          "name": "",
          "type": "uint8"
        }
      ],
      "stateMutability": "view",
      "type": "function"
    },
    {
      "inputs": [],
      "name": "tbGreenEnergyProducersReward",
      "outputs": [
        {
          "internalType": "uint8",
          "name": "",
          "type": "uint8"
        }
      ],
      "stateMutability": "view",
      "type": "function"
    },
    {
      "inputs": [],
      "name": "tbRate",
      "outputs": [
        {
          "internalType": "uint8",
          "name": "",
          "type": "uint8"
        }
      ],
      "stateMutability": "view",
      "type": "function"
    },
    {
      "inputs": [],
      "name": "tbStakingReward",
      "outputs": [
        {
          "internalType": "uint8",
          "name": "",
          "type": "uint8"
        }
      ],
      "stateMutability": "view",
      "type": "function"
    },
    {
      "inputs": [],
      "name": "tbTeamReward",
      "outputs": [
        {
          "internalType": "uint8",
          "name": "",
          "type": "uint8"
        }
      ],
      "stateMutability": "view",
      "type": "function"
    },
    {
      "inputs": [],
      "name": "tbbAddress",
      "outputs": [
        {
          "internalType": "address",
          "name": "",
          "type": "address"
        }
      ],
      "stateMutability": "view",
      "type": "function"
    },
    {
      "inputs": [],
      "name": "tbbFarmAddress",
      "outputs": [
        {
          "internalType": "address",
          "name": "",
          "type": "address"
        }
      ],
      "stateMutability": "view",
      "type": "function"
    },
    {
      "inputs": [],
      "name": "tbbRewardRate",
      "outputs": [
        {
          "internalType": "uint256",
          "name": "ldt",
          "type": "uint256"
        },
        {
          "internalType": "uint256",
          "name": "tb",
          "type": "uint256"
        }
      ],
      "stateMutability": "view",
      "type": "function"
    },
    {
      "inputs": [],
      "name": "tbgAddress",
      "outputs": [
        {
          "internalType": "address",
          "name": "",
          "type": "address"
        }
      ],
      "stateMutability": "view",
      "type": "function"
    },
    {
      "inputs": [],
      "name": "tbgFarmAddress",
      "outputs": [
        {
          "internalType": "address",
          "name": "",
          "type": "address"
        }
      ],
      "stateMutability": "view",
      "type": "function"
    },
    {
      "inputs": [],
      "name": "tbgRewardRate",
      "outputs": [
        {
          "internalType": "uint256",
          "name": "ldt",
          "type": "uint256"
        },
        {
          "internalType": "uint256",
          "name": "tb",
          "type": "uint256"
        }
      ],
      "stateMutability": "view",
      "type": "function"
    },
    {
      "inputs": [],
      "name": "tbsAddress",
      "outputs": [
        {
          "internalType": "address",
          "name": "",
          "type": "address"
        }
      ],
      "stateMutability": "view",
      "type": "function"
    },
    {
      "inputs": [],
      "name": "tbsFarmAddress",
      "outputs": [
        {
          "internalType": "address",
          "name": "",
          "type": "address"
        }
      ],
      "stateMutability": "view",
      "type": "function"
    },
    {
      "inputs": [],
      "name": "tbsRewardRate",
      "outputs": [
        {
          "internalType": "uint256",
          "name": "ldt",
          "type": "uint256"
        },
        {
          "internalType": "uint256",
          "name": "tb",
          "type": "uint256"
        }
      ],
      "stateMutability": "view",
      "type": "function"
    },
    {
      "inputs": [
        {
          "internalType": "address",
          "name": "newOwner",
          "type": "address"
        }
      ],
      "name": "transferOwnership",
      "outputs": [],
      "stateMutability": "nonpayable",
      "type": "function"
    }
  ],
  "bytecode": "0x60806040526050600960146101000a81548160ff021916908360ff1602179055506028600960156101000a81548160ff021916908360ff1602179055506019600960166101000a81548160ff021916908360ff160217905550600a600960176101000a81548160ff021916908360ff160217905550600a600960186101000a81548160ff021916908360ff160217905550600a600960196101000a81548160ff021916908360ff16021790555060056009601a6101000a81548160ff021916908360ff16021790555060286009601b6101000a81548160ff021916908360ff16021790555060146009601c6101000a81548160ff021916908360ff160217905550600e6009601d6101000a81548160ff021916908360ff160217905550600a6009601e6101000a81548160ff021916908360ff160217905550600a6009601f6101000a81548160ff021916908360ff1602179055506005600a60006101000a81548160ff021916908360ff1602179055506001600a60016101000a81548160ff021916908360ff1602179055506040518060400160405280600a8152602001600a815250600b600082015181600001556020820151816001015550506040518060400160405280600a8152602001600a815250600d600082015181600001556020820151816001015550506040518060400160405280600a8152602001600a815250600f600082015181600001556020820151816001015550503480156200022657600080fd5b50604051620041223803806200412283398181016040528101906200024c919062000651565b33600073ffffffffffffffffffffffffffffffffffffffff168173ffffffffffffffffffffffffffffffffffffffff1603620002c25760006040517f1e4fbdf7000000000000000000000000000000000000000000000000000000008152600401620002b991906200072b565b60405180910390fd5b620002d381620004ea60201b60201c565b5087600260006101000a81548173ffffffffffffffffffffffffffffffffffffffff021916908373ffffffffffffffffffffffffffffffffffffffff16021790555086600960006101000a81548173ffffffffffffffffffffffffffffffffffffffff021916908373ffffffffffffffffffffffffffffffffffffffff16021790555085600360006101000a81548173ffffffffffffffffffffffffffffffffffffffff021916908373ffffffffffffffffffffffffffffffffffffffff16021790555084600660006101000a81548173ffffffffffffffffffffffffffffffffffffffff021916908373ffffffffffffffffffffffffffffffffffffffff16021790555083600460006101000a81548173ffffffffffffffffffffffffffffffffffffffff021916908373ffffffffffffffffffffffffffffffffffffffff16021790555082600760006101000a81548173ffffffffffffffffffffffffffffffffffffffff021916908373ffffffffffffffffffffffffffffffffffffffff16021790555081600560006101000a81548173ffffffffffffffffffffffffffffffffffffffff021916908373ffffffffffffffffffffffffffffffffffffffff16021790555080600860006101000a81548173ffffffffffffffffffffffffffffffffffffffff021916908373ffffffffffffffffffffffffffffffffffffffff160217905550505050505050505062000748565b600160006101000a81549073ffffffffffffffffffffffffffffffffffffffff021916905562000520816200052360201b60201c565b50565b60008060009054906101000a900473ffffffffffffffffffffffffffffffffffffffff169050816000806101000a81548173ffffffffffffffffffffffffffffffffffffffff021916908373ffffffffffffffffffffffffffffffffffffffff1602179055508173ffffffffffffffffffffffffffffffffffffffff168173ffffffffffffffffffffffffffffffffffffffff167f8be0079c531659141344cd1fd0a4f28419497f9722a3daafe3b4186f6b6457e060405160405180910390a35050565b600080fd5b600073ffffffffffffffffffffffffffffffffffffffff82169050919050565b60006200061982620005ec565b9050919050565b6200062b816200060c565b81146200063757600080fd5b50565b6000815190506200064b8162000620565b92915050565b600080600080600080600080610100898b031215620006755762000674620005e7565b5b6000620006858b828c016200063a565b9850506020620006988b828c016200063a565b9750506040620006ab8b828c016200063a565b9650506060620006be8b828c016200063a565b9550506080620006d18b828c016200063a565b94505060a0620006e48b828c016200063a565b93505060c0620006f78b828c016200063a565b92505060e06200070a8b828c016200063a565b9150509295985092959890939650565b62000725816200060c565b82525050565b60006020820190506200074260008301846200071a565b92915050565b6139ca80620007586000396000f3fe608060405234801561001057600080fd5b50600436106102685760003560e01c80638ec244f111610151578063d2449407116100c3578063ee120c2511610087578063ee120c2514610631578063f2fce7241461063b578063f2fde38b14610659578063f7c618c114610675578063fa27c5bd14610693578063feeffcd6146106b157610268565b8063d2449407146105d7578063d72bd287146105e1578063d77374bd146105eb578063e24ac8e014610609578063e30c39781461061357610268565b8063ba2b4c9911610115578063ba2b4c9914610510578063bbb186b51461052e578063bfe109281461055f578063c64c595d1461057d578063c8ae163c1461059b578063d036f612146105b957610268565b80638ec244f11461048e578063912eb70b146104ac578063a34a9182146104b6578063a6964c07146104d4578063b0027235146104f257610268565b806347b018e2116101ea57806371080ec4116101ae57806371080ec4146103f2578063715018a61461041057806379ba50971461041a5780637e3ba83d1461042457806381720c08146104405780638da5cb5b1461047057610268565b806347b018e2146103705780634eecf1fd1461038c57806359c52a8c146103ab5780636e2da631146103b557806370a53926146103d357610268565b806326a1cea91161023157806326a1cea9146103035780632954ef84146103215780632a2b662c1461032b57806338cd6c0f14610347578063427186dd1461036657610268565b806205d2f91461026d57806312f512031461028b5780631561bca5146102a95780631c8c7a1c146102c757806322a00f3b146102e5575b600080fd5b6102756106cf565b604051610282919061332b565b60405180910390f35b6102936106e2565b6040516102a0919061332b565b60405180910390f35b6102b16106f5565b6040516102be919061332b565b60405180910390f35b6102cf610708565b6040516102dc9190613387565b60405180910390f35b6102ed61072e565b6040516102fa919061332b565b60405180910390f35b61030b610741565b6040516103189190613387565b60405180910390f35b610329610767565b005b610345600480360381019061034091906133e7565b610f6c565b005b61034f611030565b60405161035d929190613436565b60405180910390f35b61036e611042565b005b61038a600480360381019061038591906133e7565b6110e0565b005b6103946111a4565b6040516103a2929190613436565b60405180910390f35b6103b36111b6565b005b6103bd612488565b6040516103ca919061332b565b60405180910390f35b6103db61249b565b6040516103e9929190613436565b60405180910390f35b6103fa6124ad565b604051610407919061332b565b60405180910390f35b6104186124c0565b005b6104226124d4565b005b61043e600480360381019061043991906133e7565b612563565b005b61045a6004803603810190610455919061348b565b612627565b60405161046791906134b8565b60405180910390f35b61047861273f565b6040516104859190613387565b60405180910390f35b610496612768565b6040516104a39190613387565b60405180910390f35b6104b461278e565b005b6104be61282c565b6040516104cb919061332b565b60405180910390f35b6104dc61283f565b6040516104e9919061332b565b60405180910390f35b6104fa612852565b604051610507919061332b565b60405180910390f35b610518612865565b604051610525919061332b565b60405180910390f35b610548600480360381019061054391906135b4565b612878565b604051610556929190613436565b60405180910390f35b610567612d32565b6040516105749190613387565b60405180910390f35b610585612d58565b604051610592919061332b565b60405180910390f35b6105a3612d6b565b6040516105b0919061332b565b60405180910390f35b6105c1612d7e565b6040516105ce9190613387565b60405180910390f35b6105df612da4565b005b6105e9612e42565b005b6105f3612ee0565b604051610600919061332b565b60405180910390f35b610611612ef3565b005b61061b612f91565b6040516106289190613387565b60405180910390f35b610639612fbb565b005b610643613059565b604051610650919061332b565b60405180910390f35b610673600480360381019061066e919061348b565b61306c565b005b61067d613119565b60405161068a9190613387565b60405180910390f35b61069b61313f565b6040516106a89190613387565b60405180910390f35b6106b9613165565b6040516106c69190613387565b60405180910390f35b600960199054906101000a900460ff1681565b6009601e9054906101000a900460ff1681565b6009601f9054906101000a900460ff1681565b600760009054906101000a900473ffffffffffffffffffffffffffffffffffffffff1681565b600a60009054906101000a900460ff1681565b600460009054906101000a900473ffffffffffffffffffffffffffffffffffffffff1681565b61076f61318b565b600260009054906101000a900473ffffffffffffffffffffffffffffffffffffffff1673ffffffffffffffffffffffffffffffffffffffff1663095ea7b3600360009054906101000a900473ffffffffffffffffffffffffffffffffffffffff167fffffffffffffffffffffffffffffffffffffffffffffffffffffffffffffffff6040518363ffffffff1660e01b815260040161080e9291906135f4565b6020604051808303816000875af115801561082d573d6000803e3d6000fd5b505050506040513d601f19601f820116820180604052508101906108519190613655565b50600260009054906101000a900473ffffffffffffffffffffffffffffffffffffffff1673ffffffffffffffffffffffffffffffffffffffff1663095ea7b3600460009054906101000a900473ffffffffffffffffffffffffffffffffffffffff167fffffffffffffffffffffffffffffffffffffffffffffffffffffffffffffffff6040518363ffffffff1660e01b81526004016108f19291906135f4565b6020604051808303816000875af1158015610910573d6000803e3d6000fd5b505050506040513d601f19601f820116820180604052508101906109349190613655565b50600260009054906101000a900473ffffffffffffffffffffffffffffffffffffffff1673ffffffffffffffffffffffffffffffffffffffff1663095ea7b3600560009054906101000a900473ffffffffffffffffffffffffffffffffffffffff167fffffffffffffffffffffffffffffffffffffffffffffffffffffffffffffffff6040518363ffffffff1660e01b81526004016109d49291906135f4565b6020604051808303816000875af11580156109f3573d6000803e3d6000fd5b505050506040513d601f19601f82011682018060405250810190610a179190613655565b50600360009054906101000a900473ffffffffffffffffffffffffffffffffffffffff1673ffffffffffffffffffffffffffffffffffffffff1663095ea7b3600660009054906101000a900473ffffffffffffffffffffffffffffffffffffffff167fffffffffffffffffffffffffffffffffffffffffffffffffffffffffffffffff6040518363ffffffff1660e01b8152600401610ab79291906135f4565b6020604051808303816000875af1158015610ad6573d6000803e3d6000fd5b505050506040513d601f19601f82011682018060405250810190610afa9190613655565b50600260009054906101000a900473ffffffffffffffffffffffffffffffffffffffff1673ffffffffffffffffffffffffffffffffffffffff1663095ea7b3600660009054906101000a900473ffffffffffffffffffffffffffffffffffffffff167fffffffffffffffffffffffffffffffffffffffffffffffffffffffffffffffff6040518363ffffffff1660e01b8152600401610b9a9291906135f4565b6020604051808303816000875af1158015610bb9573d6000803e3d6000fd5b505050506040513d601f19601f82011682018060405250810190610bdd9190613655565b50600460009054906101000a900473ffffffffffffffffffffffffffffffffffffffff1673ffffffffffffffffffffffffffffffffffffffff1663095ea7b3600760009054906101000a900473ffffffffffffffffffffffffffffffffffffffff167fffffffffffffffffffffffffffffffffffffffffffffffffffffffffffffffff6040518363ffffffff1660e01b8152600401610c7d9291906135f4565b6020604051808303816000875af1158015610c9c573d6000803e3d6000fd5b505050506040513d601f19601f82011682018060405250810190610cc09190613655565b50600260009054906101000a900473ffffffffffffffffffffffffffffffffffffffff1673ffffffffffffffffffffffffffffffffffffffff1663095ea7b3600760009054906101000a900473ffffffffffffffffffffffffffffffffffffffff167fffffffffffffffffffffffffffffffffffffffffffffffffffffffffffffffff6040518363ffffffff1660e01b8152600401610d609291906135f4565b6020604051808303816000875af1158015610d7f573d6000803e3d6000fd5b505050506040513d601f19601f82011682018060405250810190610da39190613655565b50600560009054906101000a900473ffffffffffffffffffffffffffffffffffffffff1673ffffffffffffffffffffffffffffffffffffffff1663095ea7b3600860009054906101000a900473ffffffffffffffffffffffffffffffffffffffff167fffffffffffffffffffffffffffffffffffffffffffffffffffffffffffffffff6040518363ffffffff1660e01b8152600401610e439291906135f4565b6020604051808303816000875af1158015610e62573d6000803e3d6000fd5b505050506040513d601f19601f82011682018060405250810190610e869190613655565b50600260009054906101000a900473ffffffffffffffffffffffffffffffffffffffff1673ffffffffffffffffffffffffffffffffffffffff1663095ea7b3600860009054906101000a900473ffffffffffffffffffffffffffffffffffffffff167fffffffffffffffffffffffffffffffffffffffffffffffffffffffffffffffff6040518363ffffffff1660e01b8152600401610f269291906135f4565b6020604051808303816000875af1158015610f45573d6000803e3d6000fd5b505050506040513d601f19601f82011682018060405250810190610f699190613655565b50565b610f7461318b565b60018210158015610f8757506127108211155b610fc6576040517f08c379a0000000000000000000000000000000000000000000000000000000008152600401610fbd906136df565b60405180910390fd5b60018110158015610fd957506127108111155b611018576040517f08c379a000000000000000000000000000000000000000000000000000000000815260040161100f9061374b565b60405180910390fd5b81600f6000018190555080600f600101819055505050565b600f8060000154908060010154905082565b61104a61318b565b600560009054906101000a900473ffffffffffffffffffffffffffffffffffffffff1673ffffffffffffffffffffffffffffffffffffffff1663f2fde38b61109061273f565b6040518263ffffffff1660e01b81526004016110ac9190613387565b600060405180830381600087803b1580156110c657600080fd5b505af11580156110da573d6000803e3d6000fd5b50505050565b6110e861318b565b600182101580156110fb57506127108211155b61113a576040517f08c379a0000000000000000000000000000000000000000000000000000000008152600401611131906136df565b60405180910390fd5b6001811015801561114d57506127108111155b61118c576040517f08c379a00000000000000000000000000000000000000000000000000000000081526004016111839061374b565b60405180910390fd5b81600d6000018190555080600d600101819055505050565b600b8060000154908060010154905082565b6111be61318b565b600060405180610200016040528060008152602001600081526020016000815260200160008152602001600081526020016000815260200160008152602001600081526020016000815260200160008152602001600081526020016000815260200160008152602001600081526020016000815260200160008152509050600960009054906101000a900473ffffffffffffffffffffffffffffffffffffffff1673ffffffffffffffffffffffffffffffffffffffff1663e4fc6b6d6040518163ffffffff1660e01b8152600401600060405180830381600087803b1580156112a657600080fd5b505af11580156112ba573d6000803e3d6000fd5b50505050600260009054906101000a900473ffffffffffffffffffffffffffffffffffffffff1673ffffffffffffffffffffffffffffffffffffffff166370a08231306040518263ffffffff1660e01b81526004016113199190613387565b602060405180830381865afa158015611336573d6000803e3d6000fd5b505050506040513d601f19601f8201168201806040525081019061135a9190613780565b8160000181815250506064600960149054906101000a900460ff1660ff16826000015161138791906137dc565b611391919061384d565b816040018181525050806040015181600001516113ae919061387e565b81602001818152505060646009601b9054906101000a900460ff1660ff1682602001516113db91906137dc565b6113e5919061384d565b81606001818152505060646009601d9054906101000a900460ff1660ff16826020015161141291906137dc565b61141c919061384d565b8160800181815250506064600960159054906101000a900460ff1660ff16826040015161144991906137dc565b611453919061384d565b8160a00181815250506064600960179054906101000a900460ff1660ff16826040015161148091906137dc565b61148a919061384d565b8160c0018181525050606460148260a001516114a691906137dc565b6114b0919061384d565b8160e00181815250506064601e8260a001516114cc91906137dc565b6114d6919061384d565b816101000181815250508061010001518160e001518260a001516114fa919061387e565b611504919061387e565b8161012001818152505060008061155d600660009054906101000a900473ffffffffffffffffffffffffffffffffffffffff16600b60405180604001604052908160008201548152602001600182015481525050612878565b915091506000806115b0600760009054906101000a900473ffffffffffffffffffffffffffffffffffffffff16600d60405180604001604052908160008201548152602001600182015481525050612878565b91509150600080611603600860009054906101000a900473ffffffffffffffffffffffffffffffffffffffff16600f60405180604001604052908160008201548152602001600182015481525050612878565b91509150600082858861161691906138b2565b61162091906138b2565b9050876060015181111561174e57600061165b600660009054906101000a900473ffffffffffffffffffffffffffffffffffffffff16612627565b9050600061168a600760009054906101000a900473ffffffffffffffffffffffffffffffffffffffff16612627565b905060006116b9600860009054906101000a900473ffffffffffffffffffffffffffffffffffffffff16612627565b905060008183856116ca91906138b2565b6116d491906138b2565b9050808c60600151856116e791906137dc565b6116f1919061384d565b8c610160018181525050808c606001518461170c91906137dc565b611716919061384d565b8c6101a0018181525050808c606001518361173191906137dc565b61173b919061384d565b8c6101e001818152505050505050611770565b868861016001818152505084886101a001818152505082886101e00181815250505b600360009054906101000a900473ffffffffffffffffffffffffffffffffffffffff1673ffffffffffffffffffffffffffffffffffffffff16632c4e722e6040518163ffffffff1660e01b81526004016020604051808303816000875af11580156117df573d6000803e3d6000fd5b505050506040513d601f19601f820116820180604052508101906118039190613780565b8860e00151611812919061384d565b86111561194e57600360009054906101000a900473ffffffffffffffffffffffffffffffffffffffff1673ffffffffffffffffffffffffffffffffffffffff166340c10f1930600360009054906101000a900473ffffffffffffffffffffffffffffffffffffffff1673ffffffffffffffffffffffffffffffffffffffff16632c4e722e6040518163ffffffff1660e01b81526004016020604051808303816000875af11580156118c7573d6000803e3d6000fd5b505050506040513d601f19601f820116820180604052508101906118eb9190613780565b8b60e001516118fa919061384d565b6040518363ffffffff1660e01b81526004016119179291906135f4565b600060405180830381600087803b15801561193157600080fd5b505af1158015611945573d6000803e3d6000fd5b505050506119de565b600360009054906101000a900473ffffffffffffffffffffffffffffffffffffffff1673ffffffffffffffffffffffffffffffffffffffff166340c10f1930886040518363ffffffff1660e01b81526004016119ab9291906135f4565b600060405180830381600087803b1580156119c557600080fd5b505af11580156119d9573d6000803e3d6000fd5b505050505b600460009054906101000a900473ffffffffffffffffffffffffffffffffffffffff1673ffffffffffffffffffffffffffffffffffffffff16632c4e722e6040518163ffffffff1660e01b81526004016020604051808303816000875af1158015611a4d573d6000803e3d6000fd5b505050506040513d601f19601f82011682018060405250810190611a719190613780565b886101000151611a81919061384d565b841115611bbe57600460009054906101000a900473ffffffffffffffffffffffffffffffffffffffff1673ffffffffffffffffffffffffffffffffffffffff166340c10f1930600460009054906101000a900473ffffffffffffffffffffffffffffffffffffffff1673ffffffffffffffffffffffffffffffffffffffff16632c4e722e6040518163ffffffff1660e01b81526004016020604051808303816000875af1158015611b36573d6000803e3d6000fd5b505050506040513d601f19601f82011682018060405250810190611b5a9190613780565b8b6101000151611b6a919061384d565b6040518363ffffffff1660e01b8152600401611b879291906135f4565b600060405180830381600087803b158015611ba157600080fd5b505af1158015611bb5573d6000803e3d6000fd5b50505050611c4e565b600460009054906101000a900473ffffffffffffffffffffffffffffffffffffffff1673ffffffffffffffffffffffffffffffffffffffff166340c10f1930866040518363ffffffff1660e01b8152600401611c1b9291906135f4565b600060405180830381600087803b158015611c3557600080fd5b505af1158015611c49573d6000803e3d6000fd5b505050505b600560009054906101000a900473ffffffffffffffffffffffffffffffffffffffff1673ffffffffffffffffffffffffffffffffffffffff16632c4e722e6040518163ffffffff1660e01b81526004016020604051808303816000875af1158015611cbd573d6000803e3d6000fd5b505050506040513d601f19601f82011682018060405250810190611ce19190613780565b886101200151611cf1919061384d565b821115611e2e57600560009054906101000a900473ffffffffffffffffffffffffffffffffffffffff1673ffffffffffffffffffffffffffffffffffffffff166340c10f1930600560009054906101000a900473ffffffffffffffffffffffffffffffffffffffff1673ffffffffffffffffffffffffffffffffffffffff16632c4e722e6040518163ffffffff1660e01b81526004016020604051808303816000875af1158015611da6573d6000803e3d6000fd5b505050506040513d601f19601f82011682018060405250810190611dca9190613780565b8b6101200151611dda919061384d565b6040518363ffffffff1660e01b8152600401611df79291906135f4565b600060405180830381600087803b158015611e1157600080fd5b505af1158015611e25573d6000803e3d6000fd5b50505050611ebe565b600560009054906101000a900473ffffffffffffffffffffffffffffffffffffffff1673ffffffffffffffffffffffffffffffffffffffff166340c10f1930846040518363ffffffff1660e01b8152600401611e8b9291906135f4565b600060405180830381600087803b158015611ea557600080fd5b505af1158015611eb9573d6000803e3d6000fd5b505050505b600360009054906101000a900473ffffffffffffffffffffffffffffffffffffffff1673ffffffffffffffffffffffffffffffffffffffff166370a08231306040518263ffffffff1660e01b8152600401611f199190613387565b602060405180830381865afa158015611f36573d6000803e3d6000fd5b505050506040513d601f19601f82011682018060405250810190611f5a9190613780565b88610140018181525050600460009054906101000a900473ffffffffffffffffffffffffffffffffffffffff1673ffffffffffffffffffffffffffffffffffffffff166370a08231306040518263ffffffff1660e01b8152600401611fbf9190613387565b602060405180830381865afa158015611fdc573d6000803e3d6000fd5b505050506040513d601f19601f820116820180604052508101906120009190613780565b88610180018181525050600560009054906101000a900473ffffffffffffffffffffffffffffffffffffffff1673ffffffffffffffffffffffffffffffffffffffff166370a08231306040518263ffffffff1660e01b81526004016120659190613387565b602060405180830381865afa158015612082573d6000803e3d6000fd5b505050506040513d601f19601f820116820180604052508101906120a69190613780565b886101c0018181525050600660009054906101000a900473ffffffffffffffffffffffffffffffffffffffff1673ffffffffffffffffffffffffffffffffffffffff1663df6c39fb8961016001518a61014001516040518363ffffffff1660e01b8152600401612117929190613436565b600060405180830381600087803b15801561213157600080fd5b505af1158015612145573d6000803e3d6000fd5b50505050600760009054906101000a900473ffffffffffffffffffffffffffffffffffffffff1673ffffffffffffffffffffffffffffffffffffffff1663df6c39fb896101a001518a61018001516040518363ffffffff1660e01b81526004016121b0929190613436565b600060405180830381600087803b1580156121ca57600080fd5b505af11580156121de573d6000803e3d6000fd5b50505050600860009054906101000a900473ffffffffffffffffffffffffffffffffffffffff1673ffffffffffffffffffffffffffffffffffffffff1663df6c39fb896101e001518a6101c001516040518363ffffffff1660e01b8152600401612249929190613436565b600060405180830381600087803b15801561226357600080fd5b505af1158015612277573d6000803e3d6000fd5b505050506000600260009054906101000a900473ffffffffffffffffffffffffffffffffffffffff1673ffffffffffffffffffffffffffffffffffffffff166370a08231306040518263ffffffff1660e01b81526004016122d89190613387565b602060405180830381865afa1580156122f5573d6000803e3d6000fd5b505050506040513d601f19601f820116820180604052508101906123199190613780565b111561247e57600260009054906101000a900473ffffffffffffffffffffffffffffffffffffffff1673ffffffffffffffffffffffffffffffffffffffff1663a9059cbb600960009054906101000a900473ffffffffffffffffffffffffffffffffffffffff16600260009054906101000a900473ffffffffffffffffffffffffffffffffffffffff1673ffffffffffffffffffffffffffffffffffffffff166370a08231306040518263ffffffff1660e01b81526004016123db9190613387565b602060405180830381865afa1580156123f8573d6000803e3d6000fd5b505050506040513d601f19601f8201168201806040525081019061241c9190613780565b6040518363ffffffff1660e01b81526004016124399291906135f4565b6020604051808303816000875af1158015612458573d6000803e3d6000fd5b505050506040513d601f19601f8201168201806040525081019061247c9190613655565b505b5050505050505050565b600a60019054906101000a900460ff1681565b600d8060000154908060010154905082565b600960149054906101000a900460ff1681565b6124c861318b565b6124d26000613212565b565b60006124de613243565b90508073ffffffffffffffffffffffffffffffffffffffff166124ff612f91565b73ffffffffffffffffffffffffffffffffffffffff161461255757806040517f118cdaa700000000000000000000000000000000000000000000000000000000815260040161254e9190613387565b60405180910390fd5b61256081613212565b50565b61256b61318b565b6001821015801561257e57506127108211155b6125bd576040517f08c379a00000000000000000000000000000000000000000000000000000000081526004016125b4906136df565b60405180910390fd5b600181101580156125d057506127108111155b61260f576040517f08c379a00000000000000000000000000000000000000000000000000000000081526004016126069061374b565b60405180910390fd5b81600b6000018190555080600b600101819055505050565b6000808273ffffffffffffffffffffffffffffffffffffffff16635fcbd2856040518163ffffffff1660e01b8152600401602060405180830381865afa158015612675573d6000803e3d6000fd5b505050506040513d601f19601f8201168201806040525081019061269991906138fb565b9050600260009054906101000a900473ffffffffffffffffffffffffffffffffffffffff1673ffffffffffffffffffffffffffffffffffffffff166370a08231826040518263ffffffff1660e01b81526004016126f69190613387565b602060405180830381865afa158015612713573d6000803e3d6000fd5b505050506040513d601f19601f820116820180604052508101906127379190613780565b915050919050565b60008060009054906101000a900473ffffffffffffffffffffffffffffffffffffffff16905090565b600360009054906101000a900473ffffffffffffffffffffffffffffffffffffffff1681565b61279661318b565b600760009054906101000a900473ffffffffffffffffffffffffffffffffffffffff1673ffffffffffffffffffffffffffffffffffffffff1663f2fde38b6127dc61273f565b6040518263ffffffff1660e01b81526004016127f89190613387565b600060405180830381600087803b15801561281257600080fd5b505af1158015612826573d6000803e3d6000fd5b50505050565b6009601a9054906101000a900460ff1681565b6009601b9054906101000a900460ff1681565b6009601d9054906101000a900460ff1681565b600960159054906101000a900460ff1681565b60008060008473ffffffffffffffffffffffffffffffffffffffff1663817b1cd26040518163ffffffff1660e01b8152600401602060405180830381865afa1580156128c8573d6000803e3d6000fd5b505050506040513d601f19601f820116820180604052508101906128ec9190613780565b905060008573ffffffffffffffffffffffffffffffffffffffff16635fcbd2856040518163ffffffff1660e01b8152600401602060405180830381865afa15801561293b573d6000803e3d6000fd5b505050506040513d601f19601f8201168201806040525081019061295f91906138fb565b905060008173ffffffffffffffffffffffffffffffffffffffff166318160ddd6040518163ffffffff1660e01b8152600401602060405180830381865afa1580156129ae573d6000803e3d6000fd5b505050506040513d601f19601f820116820180604052508101906129d29190613780565b905060008273ffffffffffffffffffffffffffffffffffffffff16630dfe16816040518163ffffffff1660e01b8152600401602060405180830381865afa158015612a21573d6000803e3d6000fd5b505050506040513d601f19601f82011682018060405250810190612a4591906138fb565b905060008373ffffffffffffffffffffffffffffffffffffffff1663d21220a76040518163ffffffff1660e01b8152600401602060405180830381865afa158015612a94573d6000803e3d6000fd5b505050506040513d601f19601f82011682018060405250810190612ab891906138fb565b9050600080600260009054906101000a900473ffffffffffffffffffffffffffffffffffffffff1673ffffffffffffffffffffffffffffffffffffffff168473ffffffffffffffffffffffffffffffffffffffff1614612b19578284612b1c565b83835b91509150600260009054906101000a900473ffffffffffffffffffffffffffffffffffffffff1673ffffffffffffffffffffffffffffffffffffffff168273ffffffffffffffffffffffffffffffffffffffff1614612bb0576040517f08c379a0000000000000000000000000000000000000000000000000000000008152600401612ba790613974565b60405180910390fd5b60008273ffffffffffffffffffffffffffffffffffffffff166370a08231886040518263ffffffff1660e01b8152600401612beb9190613387565b602060405180830381865afa158015612c08573d6000803e3d6000fd5b505050506040513d601f19601f82011682018060405250810190612c2c9190613780565b905060008273ffffffffffffffffffffffffffffffffffffffff166370a08231896040518263ffffffff1660e01b8152600401612c699190613387565b602060405180830381865afa158015612c86573d6000803e3d6000fd5b505050506040513d601f19601f82011682018060405250810190612caa9190613780565b9050600087838b612cbb91906137dc565b612cc5919061384d565b9050600088838c612cd691906137dc565b612ce0919061384d565b90506127108e6000015183612cf591906137dc565b612cff919061384d565b6127108f6020015183612d1291906137dc565b612d1c919061384d565b9c509c5050505050505050505050509250929050565b600960009054906101000a900473ffffffffffffffffffffffffffffffffffffffff1681565b6009601c9054906101000a900460ff1681565b600960169054906101000a900460ff1681565b600560009054906101000a900473ffffffffffffffffffffffffffffffffffffffff1681565b612dac61318b565b600860009054906101000a900473ffffffffffffffffffffffffffffffffffffffff1673ffffffffffffffffffffffffffffffffffffffff1663f2fde38b612df261273f565b6040518263ffffffff1660e01b8152600401612e0e9190613387565b600060405180830381600087803b158015612e2857600080fd5b505af1158015612e3c573d6000803e3d6000fd5b50505050565b612e4a61318b565b600660009054906101000a900473ffffffffffffffffffffffffffffffffffffffff1673ffffffffffffffffffffffffffffffffffffffff1663f2fde38b612e9061273f565b6040518263ffffffff1660e01b8152600401612eac9190613387565b600060405180830381600087803b158015612ec657600080fd5b505af1158015612eda573d6000803e3d6000fd5b50505050565b600960189054906101000a900460ff1681565b612efb61318b565b600460009054906101000a900473ffffffffffffffffffffffffffffffffffffffff1673ffffffffffffffffffffffffffffffffffffffff1663f2fde38b612f4161273f565b6040518263ffffffff1660e01b8152600401612f5d9190613387565b600060405180830381600087803b158015612f7757600080fd5b505af1158015612f8b573d6000803e3d6000fd5b50505050565b6000600160009054906101000a900473ffffffffffffffffffffffffffffffffffffffff16905090565b612fc361318b565b600360009054906101000a900473ffffffffffffffffffffffffffffffffffffffff1673ffffffffffffffffffffffffffffffffffffffff1663f2fde38b61300961273f565b6040518263ffffffff1660e01b81526004016130259190613387565b600060405180830381600087803b15801561303f57600080fd5b505af1158015613053573d6000803e3d6000fd5b50505050565b600960179054906101000a900460ff1681565b61307461318b565b80600160006101000a81548173ffffffffffffffffffffffffffffffffffffffff021916908373ffffffffffffffffffffffffffffffffffffffff1602179055508073ffffffffffffffffffffffffffffffffffffffff166130d461273f565b73ffffffffffffffffffffffffffffffffffffffff167f38d16b8cac22d99fc7c124b9cd0de2d3fa1faef420bfe791d8c362d765e2270060405160405180910390a350565b600260009054906101000a900473ffffffffffffffffffffffffffffffffffffffff1681565b600860009054906101000a900473ffffffffffffffffffffffffffffffffffffffff1681565b600660009054906101000a900473ffffffffffffffffffffffffffffffffffffffff1681565b613193613243565b73ffffffffffffffffffffffffffffffffffffffff166131b161273f565b73ffffffffffffffffffffffffffffffffffffffff1614613210576131d4613243565b6040517f118cdaa70000000000000000000000000000000000000000000000000000000081526004016132079190613387565b60405180910390fd5b565b600160006101000a81549073ffffffffffffffffffffffffffffffffffffffff02191690556132408161324b565b50565b600033905090565b60008060009054906101000a900473ffffffffffffffffffffffffffffffffffffffff169050816000806101000a81548173ffffffffffffffffffffffffffffffffffffffff021916908373ffffffffffffffffffffffffffffffffffffffff1602179055508173ffffffffffffffffffffffffffffffffffffffff168173ffffffffffffffffffffffffffffffffffffffff167f8be0079c531659141344cd1fd0a4f28419497f9722a3daafe3b4186f6b6457e060405160405180910390a35050565b600060ff82169050919050565b6133258161330f565b82525050565b6000602082019050613340600083018461331c565b92915050565b600073ffffffffffffffffffffffffffffffffffffffff82169050919050565b600061337182613346565b9050919050565b61338181613366565b82525050565b600060208201905061339c6000830184613378565b92915050565b6000604051905090565b600080fd5b6000819050919050565b6133c4816133b1565b81146133cf57600080fd5b50565b6000813590506133e1816133bb565b92915050565b600080604083850312156133fe576133fd6133ac565b5b600061340c858286016133d2565b925050602061341d858286016133d2565b9150509250929050565b613430816133b1565b82525050565b600060408201905061344b6000830185613427565b6134586020830184613427565b9392505050565b61346881613366565b811461347357600080fd5b50565b6000813590506134858161345f565b92915050565b6000602082840312156134a1576134a06133ac565b5b60006134af84828501613476565b91505092915050565b60006020820190506134cd6000830184613427565b92915050565b600080fd5b6000601f19601f8301169050919050565b7f4e487b7100000000000000000000000000000000000000000000000000000000600052604160045260246000fd5b613521826134d8565b810181811067ffffffffffffffff821117156135405761353f6134e9565b5b80604052505050565b60006135536133a2565b905061355f8282613518565b919050565b60006040828403121561357a576135796134d3565b5b6135846040613549565b90506000613594848285016133d2565b60008301525060206135a8848285016133d2565b60208301525092915050565b600080606083850312156135cb576135ca6133ac565b5b60006135d985828601613476565b92505060206135ea85828601613564565b9150509250929050565b60006040820190506136096000830185613378565b6136166020830184613427565b9392505050565b60008115159050919050565b6136328161361d565b811461363d57600080fd5b50565b60008151905061364f81613629565b92915050565b60006020828403121561366b5761366a6133ac565b5b600061367984828501613640565b91505092915050565b600082825260208201905092915050565b7f494e56414c49445f4c44545f5241544500000000000000000000000000000000600082015250565b60006136c9601083613682565b91506136d482613693565b602082019050919050565b600060208201905081810360008301526136f8816136bc565b9050919050565b7f494e56414c49445f54425f524154450000000000000000000000000000000000600082015250565b6000613735600f83613682565b9150613740826136ff565b602082019050919050565b6000602082019050818103600083015261376481613728565b9050919050565b60008151905061377a816133bb565b92915050565b600060208284031215613796576137956133ac565b5b60006137a48482850161376b565b91505092915050565b7f4e487b7100000000000000000000000000000000000000000000000000000000600052601160045260246000fd5b60006137e7826133b1565b91506137f2836133b1565b9250828202613800816133b1565b91508282048414831517613817576138166137ad565b5b5092915050565b7f4e487b7100000000000000000000000000000000000000000000000000000000600052601260045260246000fd5b6000613858826133b1565b9150613863836133b1565b9250826138735761387261381e565b5b828204905092915050565b6000613889826133b1565b9150613894836133b1565b92508282039050818111156138ac576138ab6137ad565b5b92915050565b60006138bd826133b1565b91506138c8836133b1565b92508282019050808211156138e0576138df6137ad565b5b92915050565b6000815190506138f58161345f565b92915050565b600060208284031215613911576139106133ac565b5b600061391f848285016138e6565b91505092915050565b7f494e56414c49445f5245574152445f544f4b454e000000000000000000000000600082015250565b600061395e601483613682565b915061396982613928565b602082019050919050565b6000602082019050818103600083015261398d81613951565b905091905056fea26469706673582212204554c935cf9cfdf2b4164aa34020da9a27c5dd6835f23a8a35756ac27b08b5e064736f6c63430008180033",
  "linkReferences": {},
  "deployedLinkReferences": {}
}