{
  "_format": "hh-sol-artifact-1",
  "contractName": "TokenStaker",
  "sourceName": "contracts/TokenStaker.sol",
  "abi": [
    {
      "inputs": [
        {
          "internalType": "address",
          "name": "_token",
          "type": "address"
        },
        {
          "internalType": "contract IERC20",
          "name": "_rewardToken1",
          "type": "address"
        },
        {
          "internalType": "contract IERC20",
          "name": "_rewardToken2",
          "type": "address"
        }
      ],
      "stateMutability": "nonpayable",
      "type": "constructor"
    },
    {
      "inputs": [
        {
          "internalType": "address",
          "name": "target",
          "type": "address"
        }
      ],
      "name": "AddressEmptyCode",
      "type": "error"
    },
    {
      "inputs": [
        {
          "internalType": "address",
          "name": "account",
          "type": "address"
        }
      ],
      "name": "AddressInsufficientBalance",
      "type": "error"
    },
    {
      "inputs": [],
      "name": "FailedInnerCall",
      "type": "error"
    },
    {
      "inputs": [
        {
          "internalType": "address",
          "name": "owner",
          "type": "address"
        }
      ],
      "name": "OwnableInvalidOwner",
      "type": "error"
    },
    {
      "inputs": [
        {
          "internalType": "address",
          "name": "account",
          "type": "address"
        }
      ],
      "name": "OwnableUnauthorizedAccount",
      "type": "error"
    },
    {
      "inputs": [],
      "name": "ReentrancyGuardReentrantCall",
      "type": "error"
    },
    {
      "inputs": [
        {
          "internalType": "address",
          "name": "token",
          "type": "address"
        }
      ],
      "name": "SafeERC20FailedOperation",
      "type": "error"
    },
    {
      "anonymous": false,
      "inputs": [
        {
          "indexed": false,
          "internalType": "address",
          "name": "wallet",
          "type": "address"
        },
        {
          "indexed": false,
          "internalType": "uint256",
          "name": "amountToken1",
          "type": "uint256"
        },
        {
          "indexed": false,
          "internalType": "uint256",
          "name": "amountToken2",
          "type": "uint256"
        }
      ],
      "name": "Harvest",
      "type": "event"
    },
    {
      "anonymous": false,
      "inputs": [
        {
          "indexed": true,
          "internalType": "address",
          "name": "previousOwner",
          "type": "address"
        },
        {
          "indexed": true,
          "internalType": "address",
          "name": "newOwner",
          "type": "address"
        }
      ],
      "name": "OwnershipTransferred",
      "type": "event"
    },
    {
      "anonymous": false,
      "inputs": [
        {
          "indexed": false,
          "internalType": "address",
          "name": "wallet",
          "type": "address"
        },
        {
          "indexed": false,
          "internalType": "uint256",
          "name": "amount",
          "type": "uint256"
        }
      ],
      "name": "Stake",
      "type": "event"
    },
    {
      "anonymous": false,
      "inputs": [
        {
          "indexed": false,
          "internalType": "address",
          "name": "wallet",
          "type": "address"
        },
        {
          "indexed": false,
          "internalType": "uint256",
          "name": "amount",
          "type": "uint256"
        }
      ],
      "name": "Unstake",
      "type": "event"
    },
    {
      "inputs": [],
      "name": "boosterAddress",
      "outputs": [
        {
          "internalType": "address",
          "name": "",
          "type": "address"
        }
      ],
      "stateMutability": "view",
      "type": "function"
    },
    {
      "inputs": [
        {
          "internalType": "uint256",
          "name": "rewardAmount1",
          "type": "uint256"
        },
        {
          "internalType": "uint256",
          "name": "rewardAmount2",
          "type": "uint256"
        }
      ],
      "name": "distributeRewards",
      "outputs": [],
      "stateMutability": "nonpayable",
      "type": "function"
    },
    {
      "inputs": [
        {
          "internalType": "contract IERC20",
          "name": "tokenAddress",
          "type": "address"
        }
      ],
      "name": "emergencyWithdraw",
      "outputs": [],
      "stateMutability": "nonpayable",
      "type": "function"
    },
    {
      "inputs": [],
      "name": "harvest",
      "outputs": [],
      "stateMutability": "nonpayable",
      "type": "function"
    },
    {
      "inputs": [],
      "name": "owner",
      "outputs": [
        {
          "internalType": "address",
          "name": "",
          "type": "address"
        }
      ],
      "stateMutability": "view",
      "type": "function"
    },
    {
      "inputs": [
        {
          "internalType": "address",
          "name": "_address",
          "type": "address"
        }
      ],
      "name": "pendingRewards",
      "outputs": [
        {
          "internalType": "uint256",
          "name": "",
          "type": "uint256"
        },
        {
          "internalType": "uint256",
          "name": "",
          "type": "uint256"
        }
      ],
      "stateMutability": "view",
      "type": "function"
    },
    {
      "inputs": [],
      "name": "renounceOwnership",
      "outputs": [],
      "stateMutability": "nonpayable",
      "type": "function"
    },
    {
      "inputs": [
        {
          "internalType": "uint256",
          "name": "",
          "type": "uint256"
        },
        {
          "internalType": "uint256",
          "name": "",
          "type": "uint256"
        }
      ],
      "name": "rewardRounds",
      "outputs": [
        {
          "internalType": "uint256",
          "name": "",
          "type": "uint256"
        }
      ],
      "stateMutability": "view",
      "type": "function"
    },
    {
      "inputs": [],
      "name": "rewardToken1",
      "outputs": [
        {
          "internalType": "contract IERC20",
          "name": "",
          "type": "address"
        }
      ],
      "stateMutability": "view",
      "type": "function"
    },
    {
      "inputs": [],
      "name": "rewardToken2",
      "outputs": [
        {
          "internalType": "contract IERC20",
          "name": "",
          "type": "address"
        }
      ],
      "stateMutability": "view",
      "type": "function"
    },
    {
      "inputs": [
        {
          "internalType": "address",
          "name": "_boosterAddress",
          "type": "address"
        }
      ],
      "name": "setBoosterAddress",
      "outputs": [],
      "stateMutability": "nonpayable",
      "type": "function"
    },
    {
      "inputs": [
        {
          "internalType": "uint256",
          "name": "_amount",
          "type": "uint256"
        }
      ],
      "name": "stake",
      "outputs": [],
      "stateMutability": "nonpayable",
      "type": "function"
    },
    {
      "inputs": [
        {
          "internalType": "address",
          "name": "",
          "type": "address"
        }
      ],
      "name": "stakers",
      "outputs": [
        {
          "internalType": "uint256",
          "name": "amount",
          "type": "uint256"
        },
        {
          "internalType": "uint256",
          "name": "lastRewardRound",
          "type": "uint256"
        }
      ],
      "stateMutability": "view",
      "type": "function"
    },
    {
      "inputs": [],
      "name": "token",
      "outputs": [
        {
          "internalType": "address",
          "name": "",
          "type": "address"
        }
      ],
      "stateMutability": "view",
      "type": "function"
    },
    {
      "inputs": [],
      "name": "totalStaked",
      "outputs": [
        {
          "internalType": "uint256",
          "name": "",
          "type": "uint256"
        }
      ],
      "stateMutability": "view",
      "type": "function"
    },
    {
      "inputs": [
        {
          "internalType": "address",
          "name": "newOwner",
          "type": "address"
        }
      ],
      "name": "transferOwnership",
      "outputs": [],
      "stateMutability": "nonpayable",
      "type": "function"
    },
    {
      "inputs": [
        {
          "internalType": "uint256",
          "name": "_amount",
          "type": "uint256"
        }
      ],
      "name": "unstake",
      "outputs": [],
      "stateMutability": "nonpayable",
      "type": "function"
    }
  ],
  "bytecode": "0x60806040523480156200001157600080fd5b506040516200271738038062002717833981810160405281019062000037919062000305565b33600073ffffffffffffffffffffffffffffffffffffffff168173ffffffffffffffffffffffffffffffffffffffff1603620000ad5760006040517f1e4fbdf7000000000000000000000000000000000000000000000000000000008152600401620000a4919062000372565b60405180910390fd5b620000be816200019260201b60201c565b506001808190555082600260006101000a81548173ffffffffffffffffffffffffffffffffffffffff021916908373ffffffffffffffffffffffffffffffffffffffff16021790555081600360006101000a81548173ffffffffffffffffffffffffffffffffffffffff021916908373ffffffffffffffffffffffffffffffffffffffff16021790555080600460006101000a81548173ffffffffffffffffffffffffffffffffffffffff021916908373ffffffffffffffffffffffffffffffffffffffff1602179055505050506200038f565b60008060009054906101000a900473ffffffffffffffffffffffffffffffffffffffff169050816000806101000a81548173ffffffffffffffffffffffffffffffffffffffff021916908373ffffffffffffffffffffffffffffffffffffffff1602179055508173ffffffffffffffffffffffffffffffffffffffff168173ffffffffffffffffffffffffffffffffffffffff167f8be0079c531659141344cd1fd0a4f28419497f9722a3daafe3b4186f6b6457e060405160405180910390a35050565b600080fd5b600073ffffffffffffffffffffffffffffffffffffffff82169050919050565b600062000288826200025b565b9050919050565b6200029a816200027b565b8114620002a657600080fd5b50565b600081519050620002ba816200028f565b92915050565b6000620002cd826200027b565b9050919050565b620002df81620002c0565b8114620002eb57600080fd5b50565b600081519050620002ff81620002d4565b92915050565b60008060006060848603121562000321576200032062000256565b5b60006200033186828701620002a9565b93505060206200034486828701620002ee565b92505060406200035786828701620002ee565b9150509250925092565b6200036c816200027b565b82525050565b600060208201905062000389600083018462000361565b92915050565b612378806200039f6000396000f3fe608060405234801561001057600080fd5b506004361061010b5760003560e01c80638da5cb5b116100a2578063d61a47f111610071578063d61a47f11461026e578063df6c39fb1461028c578063e6975964146102a8578063f2fde38b146102d8578063fc0c546a146102f45761010b565b80638da5cb5b146101e55780639168ae7214610203578063a694fc3a14610234578063a99c308b146102505761010b565b80636f28d688116100de5780636f28d688146101835780636ff1c9bc146101a1578063715018a6146101bd578063817b1cd2146101c75761010b565b8063134928b0146101105780632e17de781461012c57806331d7a262146101485780634641257d14610179575b600080fd5b61012a600480360381019061012591906119fb565b610312565b005b61014660048036038101906101419190611a5e565b61035e565b005b610162600480360381019061015d91906119fb565b6107cc565b604051610170929190611a9a565b60405180910390f35b6101816109a5565b005b61018b610c9f565b6040516101989190611b22565b60405180910390f35b6101bb60048036038101906101b69190611b7b565b610cc5565b005b6101c5610f2b565b005b6101cf610f3f565b6040516101dc9190611ba8565b60405180910390f35b6101ed610f45565b6040516101fa9190611bd2565b60405180910390f35b61021d600480360381019061021891906119fb565b610f6e565b60405161022b929190611a9a565b60405180910390f35b61024e60048036038101906102499190611a5e565b610f92565b005b61025861119f565b6040516102659190611bd2565b60405180910390f35b6102766111c5565b6040516102839190611b22565b60405180910390f35b6102a660048036038101906102a19190611bed565b6111eb565b005b6102c260048036038101906102bd9190611bed565b61135c565b6040516102cf9190611ba8565b60405180910390f35b6102f260048036038101906102ed91906119fb565b611394565b005b6102fc61141a565b6040516103099190611bd2565b60405180910390f35b61031a611440565b80600860006101000a81548173ffffffffffffffffffffffffffffffffffffffff021916908373ffffffffffffffffffffffffffffffffffffffff16021790555050565b6103666114c7565b600081116103a9576040517f08c379a00000000000000000000000000000000000000000000000000000000081526004016103a090611c8a565b60405180910390fd5b6000600560003373ffffffffffffffffffffffffffffffffffffffff1673ffffffffffffffffffffffffffffffffffffffff1681526020019081526020016000209050600680549050816001015414610437576040517f08c379a000000000000000000000000000000000000000000000000000000000815260040161042e90611cf6565b60405180910390fd5b806000015482111561047e576040517f08c379a000000000000000000000000000000000000000000000000000000000815260040161047590611c8a565b60405180910390fd5b600080600860009054906101000a900473ffffffffffffffffffffffffffffffffffffffff1673ffffffffffffffffffffffffffffffffffffffff166331d7a262336040518263ffffffff1660e01b81526004016104dc9190611bd2565b6040805180830381865afa1580156104f8573d6000803e3d6000fd5b505050506040513d601f19601f8201168201806040525081019061051c9190611d2b565b915091506000818361052e9190611d9a565b1461056e576040517f08c379a000000000000000000000000000000000000000000000000000000000815260040161056590611e1a565b60405180910390fd5b60028060009054906101000a900473ffffffffffffffffffffffffffffffffffffffff1673ffffffffffffffffffffffffffffffffffffffff16632c4e722e6040518163ffffffff1660e01b8152600401602060405180830381865afa1580156105dc573d6000803e3d6000fd5b505050506040513d601f19601f820116820180604052508101906106009190611e3a565b61060a9190611e96565b84846000015461061a9190611ec7565b6106249190611efb565b600860009054906101000a900473ffffffffffffffffffffffffffffffffffffffff1673ffffffffffffffffffffffffffffffffffffffff16639168ae72336040518263ffffffff1660e01b815260040161067f9190611bd2565b6040805180830381865afa15801561069b573d6000803e3d6000fd5b505050506040513d601f19601f820116820180604052508101906106bf919061201e565b600001511115610704576040517f08c379a00000000000000000000000000000000000000000000000000000000081526004016106fb90612097565b60405180910390fd5b838360000160008282546107189190611ec7565b9250508190555083600760008282546107319190611ec7565b925050819055506107853385600260009054906101000a900473ffffffffffffffffffffffffffffffffffffffff1673ffffffffffffffffffffffffffffffffffffffff1661150d9092919063ffffffff16565b7f85082129d87b2fe11527cb1b3b7a520aeb5aa6913f88a3d8757fe40d1db02fdd33856040516107b69291906120b7565b60405180910390a15050506107c961158c565b50565b6000806000600560008573ffffffffffffffffffffffffffffffffffffffff1673ffffffffffffffffffffffffffffffffffffffff16815260200190815260200160002090506000806000836001015490505b600680549050811015610996576ec097ce7bc90715b34b9f1000000000600682815481106108505761084f6120e0565b5b9060005260206000209060020201600060028110610871576108706120e0565b5b0154600560008a73ffffffffffffffffffffffffffffffffffffffff1673ffffffffffffffffffffffffffffffffffffffff168152602001908152602001600020600001546108c09190611efb565b6108ca9190611e96565b836108d59190611d9a565b92506ec097ce7bc90715b34b9f1000000000600682815481106108fb576108fa6120e0565b5b906000526020600020906002020160016002811061091c5761091b6120e0565b5b0154600560008a73ffffffffffffffffffffffffffffffffffffffff1673ffffffffffffffffffffffffffffffffffffffff1681526020019081526020016000206000015461096b9190611efb565b6109759190611e96565b826109809190611d9a565b915060018161098f9190611d9a565b905061081f565b82829550955050505050915091565b6109ad6114c7565b6000600560003373ffffffffffffffffffffffffffffffffffffffff1673ffffffffffffffffffffffffffffffffffffffff1681526020019081526020016000206000015490506000600560003373ffffffffffffffffffffffffffffffffffffffff1673ffffffffffffffffffffffffffffffffffffffff16815260200190815260200160002060010154905060008060005a905060006064600a83610a549190611efb565b610a5e9190611e96565b90505b60068054905085108015610a745750805a115b15610b5f576ec097ce7bc90715b34b9f100000000060068681548110610a9d57610a9c6120e0565b5b9060005260206000209060020201600060028110610abe57610abd6120e0565b5b015487610acb9190611efb565b610ad59190611e96565b84610ae09190611d9a565b93506ec097ce7bc90715b34b9f100000000060068681548110610b0657610b056120e0565b5b9060005260206000209060020201600160028110610b2757610b266120e0565b5b015487610b349190611efb565b610b3e9190611e96565b83610b499190611d9a565b9250600185610b589190611d9a565b9450610a61565b84600560003373ffffffffffffffffffffffffffffffffffffffff1673ffffffffffffffffffffffffffffffffffffffff168152602001908152602001600020600101819055506000841115610bfd57610bfc3385600360009054906101000a900473ffffffffffffffffffffffffffffffffffffffff1673ffffffffffffffffffffffffffffffffffffffff1661150d9092919063ffffffff16565b5b6000831115610c5457610c533384600460009054906101000a900473ffffffffffffffffffffffffffffffffffffffff1673ffffffffffffffffffffffffffffffffffffffff1661150d9092919063ffffffff16565b5b7f71bab65ced2e5750775a0613be067df48ef06cf92a496ebf7663ae0660924954338585604051610c879392919061210f565b60405180910390a1505050505050610c9d61158c565b565b600360009054906101000a900473ffffffffffffffffffffffffffffffffffffffff1681565b610ccd611440565b600260009054906101000a900473ffffffffffffffffffffffffffffffffffffffff1673ffffffffffffffffffffffffffffffffffffffff168173ffffffffffffffffffffffffffffffffffffffff1603610d5d576040517f08c379a0000000000000000000000000000000000000000000000000000000008152600401610d5490612192565b60405180910390fd5b600360009054906101000a900473ffffffffffffffffffffffffffffffffffffffff1673ffffffffffffffffffffffffffffffffffffffff168173ffffffffffffffffffffffffffffffffffffffff1603610ded576040517f08c379a0000000000000000000000000000000000000000000000000000000008152600401610de490612192565b60405180910390fd5b600460009054906101000a900473ffffffffffffffffffffffffffffffffffffffff1673ffffffffffffffffffffffffffffffffffffffff168173ffffffffffffffffffffffffffffffffffffffff1603610e7d576040517f08c379a0000000000000000000000000000000000000000000000000000000008152600401610e7490612192565b60405180910390fd5b610f28610e88610f45565b8273ffffffffffffffffffffffffffffffffffffffff166370a08231306040518263ffffffff1660e01b8152600401610ec19190611bd2565b602060405180830381865afa158015610ede573d6000803e3d6000fd5b505050506040513d601f19601f82011682018060405250810190610f029190611e3a565b8373ffffffffffffffffffffffffffffffffffffffff1661150d9092919063ffffffff16565b50565b610f33611440565b610f3d6000611595565b565b60075481565b60008060009054906101000a900473ffffffffffffffffffffffffffffffffffffffff16905090565b60056020528060005260406000206000915090508060000154908060010154905082565b610f9a6114c7565b60008111610fdd576040517f08c379a0000000000000000000000000000000000000000000000000000000008152600401610fd490611c8a565b60405180910390fd5b6000600560003373ffffffffffffffffffffffffffffffffffffffff1673ffffffffffffffffffffffffffffffffffffffff168152602001908152602001600020905060008160000154148061103b57506006805490508160010154145b61107a576040517f08c379a000000000000000000000000000000000000000000000000000000000815260040161107190611cf6565b60405180910390fd5b60068054905081600101819055508181600001600082825461109c9190611d9a565b9250508190555081600760008282546110b59190611d9a565b92505081905550670de0b6b3a76400008160000154101561110b576040517f08c379a0000000000000000000000000000000000000000000000000000000008152600401611102906121fe565b60405180910390fd5b61115a333084600260009054906101000a900473ffffffffffffffffffffffffffffffffffffffff1673ffffffffffffffffffffffffffffffffffffffff16611659909392919063ffffffff16565b7febedb8b3c678666e7f36970bc8f57abf6d8fa2e828c0da91ea5b75bf68ed101a338360405161118b9291906120b7565b60405180910390a15061119c61158c565b50565b600860009054906101000a900473ffffffffffffffffffffffffffffffffffffffff1681565b600460009054906101000a900473ffffffffffffffffffffffffffffffffffffffff1681565b6111f3611440565b6111fb6114c7565b60006007546ec097ce7bc90715b34b9f10000000008461121b9190611efb565b6112259190611e96565b905060006007546ec097ce7bc90715b34b9f1000000000846112479190611efb565b6112519190611e96565b9050600660405180604001604052808481526020018381525090806001815401808255809150506001900390600052602060002090600202016000909190919091509060026112a1929190611931565b506112f86112ad610f45565b3086600360009054906101000a900473ffffffffffffffffffffffffffffffffffffffff1673ffffffffffffffffffffffffffffffffffffffff16611659909392919063ffffffff16565b61134e611303610f45565b3085600460009054906101000a900473ffffffffffffffffffffffffffffffffffffffff1673ffffffffffffffffffffffffffffffffffffffff16611659909392919063ffffffff16565b505061135861158c565b5050565b6006828154811061136c57600080fd5b9060005260206000209060020201816002811061138857600080fd5b01600091509150505481565b61139c611440565b600073ffffffffffffffffffffffffffffffffffffffff168173ffffffffffffffffffffffffffffffffffffffff160361140e5760006040517f1e4fbdf70000000000000000000000000000000000000000000000000000000081526004016114059190611bd2565b60405180910390fd5b61141781611595565b50565b600260009054906101000a900473ffffffffffffffffffffffffffffffffffffffff1681565b6114486116db565b73ffffffffffffffffffffffffffffffffffffffff16611466610f45565b73ffffffffffffffffffffffffffffffffffffffff16146114c5576114896116db565b6040517f118cdaa70000000000000000000000000000000000000000000000000000000081526004016114bc9190611bd2565b60405180910390fd5b565b600260015403611503576040517f3ee5aeb500000000000000000000000000000000000000000000000000000000815260040160405180910390fd5b6002600181905550565b611587838473ffffffffffffffffffffffffffffffffffffffff1663a9059cbb85856040516024016115409291906120b7565b604051602081830303815290604052915060e01b6020820180517bffffffffffffffffffffffffffffffffffffffffffffffffffffffff83818316178352505050506116e3565b505050565b60018081905550565b60008060009054906101000a900473ffffffffffffffffffffffffffffffffffffffff169050816000806101000a81548173ffffffffffffffffffffffffffffffffffffffff021916908373ffffffffffffffffffffffffffffffffffffffff1602179055508173ffffffffffffffffffffffffffffffffffffffff168173ffffffffffffffffffffffffffffffffffffffff167f8be0079c531659141344cd1fd0a4f28419497f9722a3daafe3b4186f6b6457e060405160405180910390a35050565b6116d5848573ffffffffffffffffffffffffffffffffffffffff166323b872dd86868660405160240161168e9392919061221e565b604051602081830303815290604052915060e01b6020820180517bffffffffffffffffffffffffffffffffffffffffffffffffffffffff83818316178352505050506116e3565b50505050565b600033905090565b600061170e828473ffffffffffffffffffffffffffffffffffffffff1661177a90919063ffffffff16565b90506000815114158015611733575080806020019051810190611731919061228d565b155b1561177557826040517f5274afe700000000000000000000000000000000000000000000000000000000815260040161176c9190611bd2565b60405180910390fd5b505050565b606061178883836000611790565b905092915050565b6060814710156117d757306040517fcd7860590000000000000000000000000000000000000000000000000000000081526004016117ce9190611bd2565b60405180910390fd5b6000808573ffffffffffffffffffffffffffffffffffffffff168486604051611800919061232b565b60006040518083038185875af1925050503d806000811461183d576040519150601f19603f3d011682016040523d82523d6000602084013e611842565b606091505b509150915061185286838361185d565b925050509392505050565b6060826118725761186d826118ec565b6118e4565b6000825114801561189a575060008473ffffffffffffffffffffffffffffffffffffffff163b145b156118dc57836040517f9996b3150000000000000000000000000000000000000000000000000000000081526004016118d39190611bd2565b60405180910390fd5b8190506118e5565b5b9392505050565b6000815111156118ff5780518082602001fd5b6040517f1425ea4200000000000000000000000000000000000000000000000000000000815260040160405180910390fd5b8260028101928215611960579160200282015b8281111561195f578251825591602001919060010190611944565b5b50905061196d9190611971565b5090565b5b8082111561198a576000816000905550600101611972565b5090565b6000604051905090565b600080fd5b600073ffffffffffffffffffffffffffffffffffffffff82169050919050565b60006119c88261199d565b9050919050565b6119d8816119bd565b81146119e357600080fd5b50565b6000813590506119f5816119cf565b92915050565b600060208284031215611a1157611a10611998565b5b6000611a1f848285016119e6565b91505092915050565b6000819050919050565b611a3b81611a28565b8114611a4657600080fd5b50565b600081359050611a5881611a32565b92915050565b600060208284031215611a7457611a73611998565b5b6000611a8284828501611a49565b91505092915050565b611a9481611a28565b82525050565b6000604082019050611aaf6000830185611a8b565b611abc6020830184611a8b565b9392505050565b6000819050919050565b6000611ae8611ae3611ade8461199d565b611ac3565b61199d565b9050919050565b6000611afa82611acd565b9050919050565b6000611b0c82611aef565b9050919050565b611b1c81611b01565b82525050565b6000602082019050611b376000830184611b13565b92915050565b6000611b48826119bd565b9050919050565b611b5881611b3d565b8114611b6357600080fd5b50565b600081359050611b7581611b4f565b92915050565b600060208284031215611b9157611b90611998565b5b6000611b9f84828501611b66565b91505092915050565b6000602082019050611bbd6000830184611a8b565b92915050565b611bcc816119bd565b82525050565b6000602082019050611be76000830184611bc3565b92915050565b60008060408385031215611c0457611c03611998565b5b6000611c1285828601611a49565b9250506020611c2385828601611a49565b9150509250929050565b600082825260208201905092915050565b7f494e56414c49445f414d4f554e54000000000000000000000000000000000000600082015250565b6000611c74600e83611c2d565b9150611c7f82611c3e565b602082019050919050565b60006020820190508181036000830152611ca381611c67565b9050919050565b7f50454e44494e475f524557415244530000000000000000000000000000000000600082015250565b6000611ce0600f83611c2d565b9150611ceb82611caa565b602082019050919050565b60006020820190508181036000830152611d0f81611cd3565b9050919050565b600081519050611d2581611a32565b92915050565b60008060408385031215611d4257611d41611998565b5b6000611d5085828601611d16565b9250506020611d6185828601611d16565b9150509250929050565b7f4e487b7100000000000000000000000000000000000000000000000000000000600052601160045260246000fd5b6000611da582611a28565b9150611db083611a28565b9250828201905080821115611dc857611dc7611d6b565b5b92915050565b7f50454e44494e475f424f4f53545f524557415244530000000000000000000000600082015250565b6000611e04601583611c2d565b9150611e0f82611dce565b602082019050919050565b60006020820190508181036000830152611e3381611df7565b9050919050565b600060208284031215611e5057611e4f611998565b5b6000611e5e84828501611d16565b91505092915050565b7f4e487b7100000000000000000000000000000000000000000000000000000000600052601260045260246000fd5b6000611ea182611a28565b9150611eac83611a28565b925082611ebc57611ebb611e67565b5b828204905092915050565b6000611ed282611a28565b9150611edd83611a28565b9250828203905081811115611ef557611ef4611d6b565b5b92915050565b6000611f0682611a28565b9150611f1183611a28565b9250828202611f1f81611a28565b91508282048414831517611f3657611f35611d6b565b5b5092915050565b600080fd5b6000601f19601f8301169050919050565b7f4e487b7100000000000000000000000000000000000000000000000000000000600052604160045260246000fd5b611f8b82611f42565b810181811067ffffffffffffffff82111715611faa57611fa9611f53565b5b80604052505050565b6000611fbd61198e565b9050611fc98282611f82565b919050565b600060408284031215611fe457611fe3611f3d565b5b611fee6040611fb3565b90506000611ffe84828501611d16565b600083015250602061201284828501611d16565b60208301525092915050565b60006040828403121561203457612033611998565b5b600061204284828501611fce565b91505092915050565b7f494e56414c49445f424f4f53545f414d4f554e54000000000000000000000000600082015250565b6000612081601483611c2d565b915061208c8261204b565b602082019050919050565b600060208201905081810360008301526120b081612074565b9050919050565b60006040820190506120cc6000830185611bc3565b6120d96020830184611a8b565b9392505050565b7f4e487b7100000000000000000000000000000000000000000000000000000000600052603260045260246000fd5b60006060820190506121246000830186611bc3565b6121316020830185611a8b565b61213e6040830184611a8b565b949350505050565b7f43414e4e4f545f57495448445241575f4c4f434b45445f544f4b454e00000000600082015250565b600061217c601c83611c2d565b915061218782612146565b602082019050919050565b600060208201905081810360008301526121ab8161216f565b9050919050565b7f4d494e494d554d5f5354414b455f414d4f554e54000000000000000000000000600082015250565b60006121e8601483611c2d565b91506121f3826121b2565b602082019050919050565b60006020820190508181036000830152612217816121db565b9050919050565b60006060820190506122336000830186611bc3565b6122406020830185611bc3565b61224d6040830184611a8b565b949350505050565b60008115159050919050565b61226a81612255565b811461227557600080fd5b50565b60008151905061228781612261565b92915050565b6000602082840312156122a3576122a2611998565b5b60006122b184828501612278565b91505092915050565b600081519050919050565b600081905092915050565b60005b838110156122ee5780820151818401526020810190506122d3565b60008484015250505050565b6000612305826122ba565b61230f81856122c5565b935061231f8185602086016122d0565b80840191505092915050565b600061233782846122fa565b91508190509291505056fea26469706673582212200bcd3011dd19ef4e220f56a000a80d8d1a9e2f35bb2a90e893f4434c4ecc678364736f6c63430008180033",
  "linkReferences": {},
  "deployedLinkReferences": {}
}