{
  "contracts/RewardSplitterV3.sol": {
    "RewardSplitterV3": {
      "abi": [
        {
          "inputs": [
            {
              "internalType": "address",
              "name": "_ldt",
              "type": "address"
            },
            {
              "internalType": "address",
              "name": "_tbb",
              "type": "address"
            },
            {
              "internalType": "address",
              "name": "_tbs",
              "type": "address"
            },
            {
              "internalType": "address",
              "name": "_tbg",
              "type": "address"
            },
            {
              "internalType": "address",
              "name": "_distributor",
              "type": "address"
            },
            {
              "internalType": "address",
              "name": "_farmSplitter",
              "type": "address"
            },
            {
              "internalType": "address",
              "name": "_stakingSplitter",
              "type": "address"
            },
            {
              "internalType": "address",
              "name": "_boostingSplitter",
              "type": "address"
            },
            {
              "internalType": "address",
              "name": "_teamSplitter",
              "type": "address"
            },
            {
              "internalType": "address",
              "name": "_teamVault",
              "type": "address"
            },
            {
              "components": [
                {
                  "internalType": "address[]",
                  "name": "farms",
                  "type": "address[]"
                },
                {
                  "internalType": "address[]",
                  "name": "stakers",
                  "type": "address[]"
                },
                {
                  "internalType": "address[]",
                  "name": "boosters",
                  "type": "address[]"
                }
              ],
              "internalType": "struct RewardSplitterV3.StakerAddresses",
              "name": "_addresses",
              "type": "tuple"
            }
          ],
          "stateMutability": "nonpayable",
          "type": "constructor"
        },
        {
          "inputs": [
            {
              "internalType": "address",
              "name": "owner",
              "type": "address"
            }
          ],
          "name": "OwnableInvalidOwner",
          "type": "error"
        },
        {
          "inputs": [
            {
              "internalType": "address",
              "name": "account",
              "type": "address"
            }
          ],
          "name": "OwnableUnauthorizedAccount",
          "type": "error"
        },
        {
          "anonymous": false,
          "inputs": [
            {
              "components": [
                {
                  "components": [
                    {
                      "components": [
                        {
                          "internalType": "uint256",
                          "name": "ldt",
                          "type": "uint256"
                        },
                        {
                          "internalType": "uint256",
                          "name": "tb",
                          "type": "uint256"
                        },
                        {
                          "internalType": "uint256",
                          "name": "ldtLiquidity",
                          "type": "uint256"
                        },
                        {
                          "internalType": "uint256",
                          "name": "tbLiquidity",
                          "type": "uint256"
                        }
                      ],
                      "internalType": "struct RewardsLibrary.Reward",
                      "name": "liquidity",
                      "type": "tuple"
                    },
                    {
                      "internalType": "uint256",
                      "name": "ldt",
                      "type": "uint256"
                    },
                    {
                      "internalType": "uint256",
                      "name": "tb",
                      "type": "uint256"
                    }
                  ],
                  "internalType": "struct RewardsLibrary.Farm",
                  "name": "tbb",
                  "type": "tuple"
                },
                {
                  "components": [
                    {
                      "components": [
                        {
                          "internalType": "uint256",
                          "name": "ldt",
                          "type": "uint256"
                        },
                        {
                          "internalType": "uint256",
                          "name": "tb",
                          "type": "uint256"
                        },
                        {
                          "internalType": "uint256",
                          "name": "ldtLiquidity",
                          "type": "uint256"
                        },
                        {
                          "internalType": "uint256",
                          "name": "tbLiquidity",
                          "type": "uint256"
                        }
                      ],
                      "internalType": "struct RewardsLibrary.Reward",
                      "name": "liquidity",
                      "type": "tuple"
                    },
                    {
                      "internalType": "uint256",
                      "name": "ldt",
                      "type": "uint256"
                    },
                    {
                      "internalType": "uint256",
                      "name": "tb",
                      "type": "uint256"
                    }
                  ],
                  "internalType": "struct RewardsLibrary.Farm",
                  "name": "tbs",
                  "type": "tuple"
                },
                {
                  "components": [
                    {
                      "components": [
                        {
                          "internalType": "uint256",
                          "name": "ldt",
                          "type": "uint256"
                        },
                        {
                          "internalType": "uint256",
                          "name": "tb",
                          "type": "uint256"
                        },
                        {
                          "internalType": "uint256",
                          "name": "ldtLiquidity",
                          "type": "uint256"
                        },
                        {
                          "internalType": "uint256",
                          "name": "tbLiquidity",
                          "type": "uint256"
                        }
                      ],
                      "internalType": "struct RewardsLibrary.Reward",
                      "name": "liquidity",
                      "type": "tuple"
                    },
                    {
                      "internalType": "uint256",
                      "name": "ldt",
                      "type": "uint256"
                    },
                    {
                      "internalType": "uint256",
                      "name": "tb",
                      "type": "uint256"
                    }
                  ],
                  "internalType": "struct RewardsLibrary.Farm",
                  "name": "tbg",
                  "type": "tuple"
                }
              ],
              "indexed": false,
              "internalType": "struct RewardsLibrary.RewardsAmounts",
              "name": "rewards",
              "type": "tuple"
            }
          ],
          "name": "DistributeBoostingRewards",
          "type": "event"
        },
        {
          "anonymous": false,
          "inputs": [
            {
              "components": [
                {
                  "components": [
                    {
                      "components": [
                        {
                          "internalType": "uint256",
                          "name": "ldt",
                          "type": "uint256"
                        },
                        {
                          "internalType": "uint256",
                          "name": "tb",
                          "type": "uint256"
                        },
                        {
                          "internalType": "uint256",
                          "name": "ldtLiquidity",
                          "type": "uint256"
                        },
                        {
                          "internalType": "uint256",
                          "name": "tbLiquidity",
                          "type": "uint256"
                        }
                      ],
                      "internalType": "struct RewardsLibrary.Reward",
                      "name": "liquidity",
                      "type": "tuple"
                    },
                    {
                      "internalType": "uint256",
                      "name": "ldt",
                      "type": "uint256"
                    },
                    {
                      "internalType": "uint256",
                      "name": "tb",
                      "type": "uint256"
                    }
                  ],
                  "internalType": "struct RewardsLibrary.Farm",
                  "name": "tbb",
                  "type": "tuple"
                },
                {
                  "components": [
                    {
                      "components": [
                        {
                          "internalType": "uint256",
                          "name": "ldt",
                          "type": "uint256"
                        },
                        {
                          "internalType": "uint256",
                          "name": "tb",
                          "type": "uint256"
                        },
                        {
                          "internalType": "uint256",
                          "name": "ldtLiquidity",
                          "type": "uint256"
                        },
                        {
                          "internalType": "uint256",
                          "name": "tbLiquidity",
                          "type": "uint256"
                        }
                      ],
                      "internalType": "struct RewardsLibrary.Reward",
                      "name": "liquidity",
                      "type": "tuple"
                    },
                    {
                      "internalType": "uint256",
                      "name": "ldt",
                      "type": "uint256"
                    },
                    {
                      "internalType": "uint256",
                      "name": "tb",
                      "type": "uint256"
                    }
                  ],
                  "internalType": "struct RewardsLibrary.Farm",
                  "name": "tbs",
                  "type": "tuple"
                },
                {
                  "components": [
                    {
                      "components": [
                        {
                          "internalType": "uint256",
                          "name": "ldt",
                          "type": "uint256"
                        },
                        {
                          "internalType": "uint256",
                          "name": "tb",
                          "type": "uint256"
                        },
                        {
                          "internalType": "uint256",
                          "name": "ldtLiquidity",
                          "type": "uint256"
                        },
                        {
                          "internalType": "uint256",
                          "name": "tbLiquidity",
                          "type": "uint256"
                        }
                      ],
                      "internalType": "struct RewardsLibrary.Reward",
                      "name": "liquidity",
                      "type": "tuple"
                    },
                    {
                      "internalType": "uint256",
                      "name": "ldt",
                      "type": "uint256"
                    },
                    {
                      "internalType": "uint256",
                      "name": "tb",
                      "type": "uint256"
                    }
                  ],
                  "internalType": "struct RewardsLibrary.Farm",
                  "name": "tbg",
                  "type": "tuple"
                }
              ],
              "indexed": false,
              "internalType": "struct RewardsLibrary.RewardsAmounts",
              "name": "rewards",
              "type": "tuple"
            }
          ],
          "name": "DistributeFarmingRewards",
          "type": "event"
        },
        {
          "anonymous": false,
          "inputs": [
            {
              "components": [
                {
                  "internalType": "uint256",
                  "name": "total",
                  "type": "uint256"
                },
                {
                  "internalType": "uint256",
                  "name": "ldt",
                  "type": "uint256"
                },
                {
                  "internalType": "uint256",
                  "name": "tb",
                  "type": "uint256"
                },
                {
                  "components": [
                    {
                      "internalType": "uint256",
                      "name": "ldt",
                      "type": "uint256"
                    },
                    {
                      "internalType": "uint256",
                      "name": "tb",
                      "type": "uint256"
                    }
                  ],
                  "internalType": "struct RewardSplitterV3.DoubleReward",
                  "name": "farming",
                  "type": "tuple"
                },
                {
                  "components": [
                    {
                      "internalType": "uint256",
                      "name": "ldt",
                      "type": "uint256"
                    },
                    {
                      "internalType": "uint256",
                      "name": "tb",
                      "type": "uint256"
                    }
                  ],
                  "internalType": "struct RewardSplitterV3.DoubleReward",
                  "name": "staking",
                  "type": "tuple"
                },
                {
                  "components": [
                    {
                      "internalType": "uint256",
                      "name": "ldt",
                      "type": "uint256"
                    },
                    {
                      "internalType": "uint256",
                      "name": "tb",
                      "type": "uint256"
                    }
                  ],
                  "internalType": "struct RewardSplitterV3.DoubleReward",
                  "name": "boosting",
                  "type": "tuple"
                },
                {
                  "components": [
                    {
                      "internalType": "uint256",
                      "name": "ldt",
                      "type": "uint256"
                    },
                    {
                      "internalType": "uint256",
                      "name": "tb",
                      "type": "uint256"
                    }
                  ],
                  "internalType": "struct RewardSplitterV3.DoubleReward",
                  "name": "team",
                  "type": "tuple"
                }
              ],
              "indexed": false,
              "internalType": "struct RewardSplitterV3.Rewards",
              "name": "rewards",
              "type": "tuple"
            }
          ],
          "name": "DistributeRewards",
          "type": "event"
        },
        {
          "anonymous": false,
          "inputs": [
            {
              "components": [
                {
                  "components": [
                    {
                      "components": [
                        {
                          "internalType": "uint256",
                          "name": "ldt",
                          "type": "uint256"
                        },
                        {
                          "internalType": "uint256",
                          "name": "tb",
                          "type": "uint256"
                        },
                        {
                          "internalType": "uint256",
                          "name": "ldtLiquidity",
                          "type": "uint256"
                        },
                        {
                          "internalType": "uint256",
                          "name": "tbLiquidity",
                          "type": "uint256"
                        }
                      ],
                      "internalType": "struct RewardsLibrary.Reward",
                      "name": "liquidity",
                      "type": "tuple"
                    },
                    {
                      "internalType": "uint256",
                      "name": "ldt",
                      "type": "uint256"
                    },
                    {
                      "internalType": "uint256",
                      "name": "tb",
                      "type": "uint256"
                    }
                  ],
                  "internalType": "struct RewardsLibrary.Farm",
                  "name": "tbb",
                  "type": "tuple"
                },
                {
                  "components": [
                    {
                      "components": [
                        {
                          "internalType": "uint256",
                          "name": "ldt",
                          "type": "uint256"
                        },
                        {
                          "internalType": "uint256",
                          "name": "tb",
                          "type": "uint256"
                        },
                        {
                          "internalType": "uint256",
                          "name": "ldtLiquidity",
                          "type": "uint256"
                        },
                        {
                          "internalType": "uint256",
                          "name": "tbLiquidity",
                          "type": "uint256"
                        }
                      ],
                      "internalType": "struct RewardsLibrary.Reward",
                      "name": "liquidity",
                      "type": "tuple"
                    },
                    {
                      "internalType": "uint256",
                      "name": "ldt",
                      "type": "uint256"
                    },
                    {
                      "internalType": "uint256",
                      "name": "tb",
                      "type": "uint256"
                    }
                  ],
                  "internalType": "struct RewardsLibrary.Farm",
                  "name": "tbs",
                  "type": "tuple"
                },
                {
                  "components": [
                    {
                      "components": [
                        {
                          "internalType": "uint256",
                          "name": "ldt",
                          "type": "uint256"
                        },
                        {
                          "internalType": "uint256",
                          "name": "tb",
                          "type": "uint256"
                        },
                        {
                          "internalType": "uint256",
                          "name": "ldtLiquidity",
                          "type": "uint256"
                        },
                        {
                          "internalType": "uint256",
                          "name": "tbLiquidity",
                          "type": "uint256"
                        }
                      ],
                      "internalType": "struct RewardsLibrary.Reward",
                      "name": "liquidity",
                      "type": "tuple"
                    },
                    {
                      "internalType": "uint256",
                      "name": "ldt",
                      "type": "uint256"
                    },
                    {
                      "internalType": "uint256",
                      "name": "tb",
                      "type": "uint256"
                    }
                  ],
                  "internalType": "struct RewardsLibrary.Farm",
                  "name": "tbg",
                  "type": "tuple"
                }
              ],
              "indexed": false,
              "internalType": "struct RewardsLibrary.RewardsAmounts",
              "name": "rewards",
              "type": "tuple"
            }
          ],
          "name": "DistributeStakingRewards",
          "type": "event"
        },
        {
          "anonymous": false,
          "inputs": [
            {
              "components": [
                {
                  "internalType": "uint256",
                  "name": "ldt",
                  "type": "uint256"
                },
                {
                  "internalType": "uint256",
                  "name": "tbb",
                  "type": "uint256"
                },
                {
                  "internalType": "uint256",
                  "name": "tbs",
                  "type": "uint256"
                },
                {
                  "internalType": "uint256",
                  "name": "tbg",
                  "type": "uint256"
                }
              ],
              "indexed": false,
              "internalType": "struct RewardsLibrary.TeamRewardsAmounts",
              "name": "rewards",
              "type": "tuple"
            }
          ],
          "name": "DistributeTeamRewards",
          "type": "event"
        },
        {
          "anonymous": false,
          "inputs": [
            {
              "indexed": true,
              "internalType": "address",
              "name": "previousOwner",
              "type": "address"
            },
            {
              "indexed": true,
              "internalType": "address",
              "name": "newOwner",
              "type": "address"
            }
          ],
          "name": "OwnershipTransferStarted",
          "type": "event"
        },
        {
          "anonymous": false,
          "inputs": [
            {
              "indexed": true,
              "internalType": "address",
              "name": "previousOwner",
              "type": "address"
            },
            {
              "indexed": true,
              "internalType": "address",
              "name": "newOwner",
              "type": "address"
            }
          ],
          "name": "OwnershipTransferred",
          "type": "event"
        },
        {
          "inputs": [],
          "name": "acceptOwnership",
          "outputs": [],
          "stateMutability": "nonpayable",
          "type": "function"
        },
        {
          "inputs": [],
          "name": "approveTokens",
          "outputs": [],
          "stateMutability": "nonpayable",
          "type": "function"
        },
        {
          "inputs": [
            {
              "internalType": "uint256",
              "name": "",
              "type": "uint256"
            }
          ],
          "name": "boosters",
          "outputs": [
            {
              "internalType": "address",
              "name": "",
              "type": "address"
            }
          ],
          "stateMutability": "view",
          "type": "function"
        },
        {
          "inputs": [],
          "name": "boostingSplitter",
          "outputs": [
            {
              "internalType": "address",
              "name": "",
              "type": "address"
            }
          ],
          "stateMutability": "view",
          "type": "function"
        },
        {
          "inputs": [],
          "name": "distributeRewards",
          "outputs": [],
          "stateMutability": "nonpayable",
          "type": "function"
        },
        {
          "inputs": [],
          "name": "distributor",
          "outputs": [
            {
              "internalType": "address",
              "name": "",
              "type": "address"
            }
          ],
          "stateMutability": "view",
          "type": "function"
        },
        {
          "inputs": [],
          "name": "farmSplitter",
          "outputs": [
            {
              "internalType": "address",
              "name": "",
              "type": "address"
            }
          ],
          "stateMutability": "view",
          "type": "function"
        },
        {
          "inputs": [
            {
              "internalType": "uint256",
              "name": "",
              "type": "uint256"
            }
          ],
          "name": "farms",
          "outputs": [
            {
              "internalType": "address",
              "name": "",
              "type": "address"
            }
          ],
          "stateMutability": "view",
          "type": "function"
        },
        {
          "inputs": [],
          "name": "ldt",
          "outputs": [
            {
              "internalType": "address",
              "name": "",
              "type": "address"
            }
          ],
          "stateMutability": "view",
          "type": "function"
        },
        {
          "inputs": [],
          "name": "ldtRewards",
          "outputs": [
            {
              "internalType": "uint8",
              "name": "farming",
              "type": "uint8"
            },
            {
              "internalType": "uint8",
              "name": "staking",
              "type": "uint8"
            },
            {
              "internalType": "uint8",
              "name": "team",
              "type": "uint8"
            },
            {
              "internalType": "uint8",
              "name": "daoFund",
              "type": "uint8"
            },
            {
              "internalType": "uint8",
              "name": "ambassadorIncentive",
              "type": "uint8"
            },
            {
              "internalType": "uint8",
              "name": "greenEnergy",
              "type": "uint8"
            },
            {
              "internalType": "uint8",
              "name": "marketing",
              "type": "uint8"
            }
          ],
          "stateMutability": "view",
          "type": "function"
        },
        {
          "inputs": [],
          "name": "owner",
          "outputs": [
            {
              "internalType": "address",
              "name": "",
              "type": "address"
            }
          ],
          "stateMutability": "view",
          "type": "function"
        },
        {
          "inputs": [],
          "name": "pendingOwner",
          "outputs": [
            {
              "internalType": "address",
              "name": "",
              "type": "address"
            }
          ],
          "stateMutability": "view",
          "type": "function"
        },
        {
          "inputs": [
            {
              "internalType": "address",
              "name": "_address",
              "type": "address"
            }
          ],
          "name": "recoverOwnership",
          "outputs": [],
          "stateMutability": "nonpayable",
          "type": "function"
        },
        {
          "inputs": [],
          "name": "renounceOwnership",
          "outputs": [],
          "stateMutability": "nonpayable",
          "type": "function"
        },
        {
          "inputs": [
            {
              "internalType": "address",
              "name": "_boostingSplitter",
              "type": "address"
            }
          ],
          "name": "setBoostingSplitter",
          "outputs": [],
          "stateMutability": "nonpayable",
          "type": "function"
        },
        {
          "inputs": [
            {
              "internalType": "address",
              "name": "_farmSplitter",
              "type": "address"
            }
          ],
          "name": "setFarmSplitter",
          "outputs": [],
          "stateMutability": "nonpayable",
          "type": "function"
        },
        {
          "inputs": [
            {
              "internalType": "address",
              "name": "_stakingSplitter",
              "type": "address"
            }
          ],
          "name": "setStakingSplitter",
          "outputs": [],
          "stateMutability": "nonpayable",
          "type": "function"
        },
        {
          "inputs": [
            {
              "internalType": "address",
              "name": "_teamSplitter",
              "type": "address"
            }
          ],
          "name": "setTeamSplitter",
          "outputs": [],
          "stateMutability": "nonpayable",
          "type": "function"
        },
        {
          "inputs": [
            {
              "internalType": "address",
              "name": "_trigger",
              "type": "address"
            }
          ],
          "name": "setTrigger",
          "outputs": [],
          "stateMutability": "nonpayable",
          "type": "function"
        },
        {
          "inputs": [
            {
              "internalType": "uint256",
              "name": "",
              "type": "uint256"
            }
          ],
          "name": "stakers",
          "outputs": [
            {
              "internalType": "address",
              "name": "",
              "type": "address"
            }
          ],
          "stateMutability": "view",
          "type": "function"
        },
        {
          "inputs": [],
          "name": "stakingSplitter",
          "outputs": [
            {
              "internalType": "address",
              "name": "",
              "type": "address"
            }
          ],
          "stateMutability": "view",
          "type": "function"
        },
        {
          "inputs": [],
          "name": "tbRate",
          "outputs": [
            {
              "internalType": "uint8",
              "name": "",
              "type": "uint8"
            }
          ],
          "stateMutability": "view",
          "type": "function"
        },
        {
          "inputs": [],
          "name": "tbRewards",
          "outputs": [
            {
              "internalType": "uint8",
              "name": "farming",
              "type": "uint8"
            },
            {
              "internalType": "uint8",
              "name": "staking",
              "type": "uint8"
            },
            {
              "internalType": "uint8",
              "name": "team",
              "type": "uint8"
            },
            {
              "internalType": "uint8",
              "name": "daoFund",
              "type": "uint8"
            },
            {
              "internalType": "uint8",
              "name": "ambassadorIncentive",
              "type": "uint8"
            },
            {
              "internalType": "uint8",
              "name": "greenEnergy",
              "type": "uint8"
            }
          ],
          "stateMutability": "view",
          "type": "function"
        },
        {
          "inputs": [],
          "name": "tbb",
          "outputs": [
            {
              "internalType": "address",
              "name": "",
              "type": "address"
            }
          ],
          "stateMutability": "view",
          "type": "function"
        },
        {
          "inputs": [],
          "name": "tbg",
          "outputs": [
            {
              "internalType": "address",
              "name": "",
              "type": "address"
            }
          ],
          "stateMutability": "view",
          "type": "function"
        },
        {
          "inputs": [],
          "name": "tbs",
          "outputs": [
            {
              "internalType": "address",
              "name": "",
              "type": "address"
            }
          ],
          "stateMutability": "view",
          "type": "function"
        },
        {
          "inputs": [],
          "name": "teamSplitter",
          "outputs": [
            {
              "internalType": "address",
              "name": "",
              "type": "address"
            }
          ],
          "stateMutability": "view",
          "type": "function"
        },
        {
          "inputs": [],
          "name": "teamVault",
          "outputs": [
            {
              "internalType": "address",
              "name": "",
              "type": "address"
            }
          ],
          "stateMutability": "view",
          "type": "function"
        },
        {
          "inputs": [
            {
              "internalType": "address",
              "name": "newOwner",
              "type": "address"
            }
          ],
          "name": "transferOwnership",
          "outputs": [],
          "stateMutability": "nonpayable",
          "type": "function"
        },
        {
          "inputs": [],
          "name": "trigger",
          "outputs": [
            {
              "internalType": "address",
              "name": "",
              "type": "address"
            }
          ],
          "stateMutability": "view",
          "type": "function"
        }
      ],
      "evm": {
        "bytecode": {
          "linkReferences": {},
          "object": "60806040526050600f60146101000a81548160ff021916908360ff1602179055506040518060e00160405280601460ff168152602001602860ff168152602001600a60ff168152602001600e60ff168152602001600a60ff168152602001600560ff168152602001600160ff16815250601060008201518160000160006101000a81548160ff021916908360ff16021790555060208201518160000160016101000a81548160ff021916908360ff16021790555060408201518160000160026101000a81548160ff021916908360ff16021790555060608201518160000160036101000a81548160ff021916908360ff16021790555060808201518160000160046101000a81548160ff021916908360ff16021790555060a08201518160000160056101000a81548160ff021916908360ff16021790555060c08201518160000160066101000a81548160ff021916908360ff16021790555050506040518060c00160405280602860ff168152602001601960ff168152602001600a60ff168152602001600a60ff168152602001600a60ff168152602001600560ff16815250601160008201518160000160006101000a81548160ff021916908360ff16021790555060208201518160000160016101000a81548160ff021916908360ff16021790555060408201518160000160026101000a81548160ff021916908360ff16021790555060608201518160000160036101000a81548160ff021916908360ff16021790555060808201518160000160046101000a81548160ff021916908360ff16021790555060a08201518160000160056101000a81548160ff021916908360ff16021790555050503480156200027657600080fd5b506040516200493c3803806200493c83398181016040528101906200029c919062000ac6565b33600073ffffffffffffffffffffffffffffffffffffffff168173ffffffffffffffffffffffffffffffffffffffff1603620003125760006040517f1e4fbdf700000000000000000000000000000000000000000000000000000000815260040162000309919062000c03565b60405180910390fd5b62000323816200065760201b60201c565b508a600460006101000a81548173ffffffffffffffffffffffffffffffffffffffff021916908373ffffffffffffffffffffffffffffffffffffffff16021790555089600560006101000a81548173ffffffffffffffffffffffffffffffffffffffff021916908373ffffffffffffffffffffffffffffffffffffffff16021790555088600660006101000a81548173ffffffffffffffffffffffffffffffffffffffff021916908373ffffffffffffffffffffffffffffffffffffffff16021790555087600760006101000a81548173ffffffffffffffffffffffffffffffffffffffff021916908373ffffffffffffffffffffffffffffffffffffffff16021790555086600260006101000a81548173ffffffffffffffffffffffffffffffffffffffff021916908373ffffffffffffffffffffffffffffffffffffffff16021790555085600b60006101000a81548173ffffffffffffffffffffffffffffffffffffffff021916908373ffffffffffffffffffffffffffffffffffffffff16021790555084600c60006101000a81548173ffffffffffffffffffffffffffffffffffffffff021916908373ffffffffffffffffffffffffffffffffffffffff16021790555083600e60006101000a81548173ffffffffffffffffffffffffffffffffffffffff021916908373ffffffffffffffffffffffffffffffffffffffff16021790555082600d60006101000a81548173ffffffffffffffffffffffffffffffffffffffff021916908373ffffffffffffffffffffffffffffffffffffffff16021790555081600f60006101000a81548173ffffffffffffffffffffffffffffffffffffffff021916908373ffffffffffffffffffffffffffffffffffffffff160217905550806000015160089080519060200190620005ca92919062000754565b50806020015160099080519060200190620005e792919062000754565b508060400151600a90805190602001906200060492919062000754565b5033600360006101000a81548173ffffffffffffffffffffffffffffffffffffffff021916908373ffffffffffffffffffffffffffffffffffffffff160217905550505050505050505050505062000c20565b600160006101000a81549073ffffffffffffffffffffffffffffffffffffffff02191690556200068d816200069060201b60201c565b50565b60008060009054906101000a900473ffffffffffffffffffffffffffffffffffffffff169050816000806101000a81548173ffffffffffffffffffffffffffffffffffffffff021916908373ffffffffffffffffffffffffffffffffffffffff1602179055508173ffffffffffffffffffffffffffffffffffffffff168173ffffffffffffffffffffffffffffffffffffffff167f8be0079c531659141344cd1fd0a4f28419497f9722a3daafe3b4186f6b6457e060405160405180910390a35050565b828054828255906000526020600020908101928215620007d0579160200282015b82811115620007cf5782518260006101000a81548173ffffffffffffffffffffffffffffffffffffffff021916908373ffffffffffffffffffffffffffffffffffffffff1602179055509160200191906001019062000775565b5b509050620007df9190620007e3565b5090565b5b80821115620007fe576000816000905550600101620007e4565b5090565b6000604051905090565b600080fd5b600080fd5b600073ffffffffffffffffffffffffffffffffffffffff82169050919050565b6000620008438262000816565b9050919050565b620008558162000836565b81146200086157600080fd5b50565b60008151905062000875816200084a565b92915050565b600080fd5b6000601f19601f8301169050919050565b7f4e487b7100000000000000000000000000000000000000000000000000000000600052604160045260246000fd5b620008cb8262000880565b810181811067ffffffffffffffff82111715620008ed57620008ec62000891565b5b80604052505050565b60006200090262000802565b9050620009108282620008c0565b919050565b600080fd5b600080fd5b600067ffffffffffffffff8211156200093d576200093c62000891565b5b602082029050602081019050919050565b600080fd5b60006200096a62000964846200091f565b620008f6565b9050808382526020820190506020840283018581111562000990576200098f6200094e565b5b835b81811015620009bd5780620009a8888262000864565b84526020840193505060208101905062000992565b5050509392505050565b600082601f830112620009df57620009de6200091a565b5b8151620009f184826020860162000953565b91505092915050565b60006060828403121562000a135762000a126200087b565b5b62000a1f6060620008f6565b9050600082015167ffffffffffffffff81111562000a425762000a4162000915565b5b62000a5084828501620009c7565b600083015250602082015167ffffffffffffffff81111562000a775762000a7662000915565b5b62000a8584828501620009c7565b602083015250604082015167ffffffffffffffff81111562000aac5762000aab62000915565b5b62000aba84828501620009c7565b60408301525092915050565b60008060008060008060008060008060006101608c8e03121562000aef5762000aee6200080c565b5b600062000aff8e828f0162000864565b9b5050602062000b128e828f0162000864565b9a5050604062000b258e828f0162000864565b995050606062000b388e828f0162000864565b985050608062000b4b8e828f0162000864565b97505060a062000b5e8e828f0162000864565b96505060c062000b718e828f0162000864565b95505060e062000b848e828f0162000864565b94505061010062000b988e828f0162000864565b93505061012062000bac8e828f0162000864565b9250506101408c015167ffffffffffffffff81111562000bd15762000bd062000811565b5b62000bdf8e828f01620009fa565b9150509295989b509295989b9093969950565b62000bfd8162000836565b82525050565b600060208201905062000c1a600083018462000bf2565b92915050565b613d0c8062000c306000396000f3fe608060405234801561001057600080fd5b50600436106101da5760003560e01c806389f4b48d11610104578063b754ae8a116100a2578063e30c397811610071578063e30c3978146104d2578063f2fde38b146104f0578063fd5e6dd11461050c578063fd68f2231461053c576101da565b8063b754ae8a1461045c578063bfe109281461047a578063d525564314610498578063e129200e146104b4576101da565b8063903bf98b116100de578063903bf98b146103db578063a1a8c312146103f9578063a9ea9db01461041d578063aed6e30614610440576101da565b806389f4b48d146103815780638ab5212b1461039f5780638da5cb5b146103bd576101da565b80636f4a2cd01161017c57806379ba50971161014b57806379ba50971461030b5780637da470ea146103155780637dad9115146103455780637fec8d3814610363576101da565b80636f4a2cd0146102a957806370cd22ae146102b357806371080ec4146102e3578063715018a614610301576101da565b80632c246501116101b85780632c2465011461023557806332fc28401461025357806333a2ed3b1461026f57806350c2161b1461028b576101da565b80630a53c61c146101df5780630b699abe146101fd57806315b242a114610219575b600080fd5b6101e7610546565b6040516101f491906132a4565b60405180910390f35b610217600480360381019061021291906132fa565b61056c565b005b610233600480360381019061022e91906132fa565b6105e9565b005b61023d610635565b60405161024a91906132a4565b60405180910390f35b61026d600480360381019061026891906132fa565b61065b565b005b610289600480360381019061028491906132fa565b6106a7565b005b6102936106f3565b6040516102a091906132a4565b60405180910390f35b6102b1610719565b005b6102cd60048036038101906102c8919061335d565b61221d565b6040516102da91906132a4565b60405180910390f35b6102eb61225c565b6040516102f891906133a6565b60405180910390f35b61030961226f565b005b610313612283565b005b61032f600480360381019061032a919061335d565b612312565b60405161033c91906132a4565b60405180910390f35b61034d612351565b60405161035a91906132a4565b60405180910390f35b61036b612377565b60405161037891906132a4565b60405180910390f35b61038961239d565b60405161039691906132a4565b60405180910390f35b6103a76123c3565b6040516103b491906132a4565b60405180910390f35b6103c56123e9565b6040516103d291906132a4565b60405180910390f35b6103e3612412565b6040516103f091906132a4565b60405180910390f35b610401612438565b60405161041497969594939291906133c1565b60405180910390f35b6104256124c3565b60405161043796959493929190613430565b60405180910390f35b61045a600480360381019061045591906132fa565b61253b565b005b610464612587565b60405161047191906132a4565b60405180910390f35b6104826125ad565b60405161048f91906132a4565b60405180910390f35b6104b260048036038101906104ad91906132fa565b6125d3565b005b6104bc61261f565b6040516104c991906132a4565b60405180910390f35b6104da612645565b6040516104e791906132a4565b60405180910390f35b61050a600480360381019061050591906132fa565b61266f565b005b6105266004803603810190610521919061335d565b61271c565b60405161053391906132a4565b60405180910390f35b61054461275b565b005b600d60009054906101000a900473ffffffffffffffffffffffffffffffffffffffff1681565b610574612fcd565b8073ffffffffffffffffffffffffffffffffffffffff1663f2fde38b6105986123e9565b6040518263ffffffff1660e01b81526004016105b491906132a4565b600060405180830381600087803b1580156105ce57600080fd5b505af11580156105e2573d6000803e3d6000fd5b5050505050565b6105f1612fcd565b80600c60006101000a81548173ffffffffffffffffffffffffffffffffffffffff021916908373ffffffffffffffffffffffffffffffffffffffff16021790555050565b600560009054906101000a900473ffffffffffffffffffffffffffffffffffffffff1681565b610663612fcd565b80600e60006101000a81548173ffffffffffffffffffffffffffffffffffffffff021916908373ffffffffffffffffffffffffffffffffffffffff16021790555050565b6106af612fcd565b80600360006101000a81548173ffffffffffffffffffffffffffffffffffffffff021916908373ffffffffffffffffffffffffffffffffffffffff16021790555050565b600460009054906101000a900473ffffffffffffffffffffffffffffffffffffffff1681565b600360009054906101000a900473ffffffffffffffffffffffffffffffffffffffff1673ffffffffffffffffffffffffffffffffffffffff163373ffffffffffffffffffffffffffffffffffffffff16146107a9576040517f08c379a00000000000000000000000000000000000000000000000000000000081526004016107a0906134ee565b60405180910390fd5b600260009054906101000a900473ffffffffffffffffffffffffffffffffffffffff1673ffffffffffffffffffffffffffffffffffffffff1663e4fc6b6d6040518163ffffffff1660e01b8152600401600060405180830381600087803b15801561081357600080fd5b505af1158015610827573d6000803e3d6000fd5b505050506108336131f4565b600460009054906101000a900473ffffffffffffffffffffffffffffffffffffffff1673ffffffffffffffffffffffffffffffffffffffff166370a08231306040518263ffffffff1660e01b815260040161088e91906132a4565b602060405180830381865afa1580156108ab573d6000803e3d6000fd5b505050506040513d601f19601f820116820180604052508101906108cf9190613523565b8160000181815250506064600f60149054906101000a900460ff1660ff1682600001516108fc919061357f565b61090691906135f0565b816040018181525050806040015181600001516109239190613621565b8160200181815250506064601060000160009054906101000a900460ff1660ff168260200151610953919061357f565b61095d91906135f0565b816060015160000181815250506064601160000160009054906101000a900460ff1660ff168260400151610991919061357f565b61099b91906135f0565b8160600151602001818152505060006064601060000160019054906101000a900460ff1660ff1683602001516109d1919061357f565b6109db91906135f0565b905060006064601160000160019054906101000a900460ff1660ff168460400151610a06919061357f565b610a1091906135f0565b9050600282610a1f91906135f0565b83608001516000018181525050600281610a3991906135f0565b8360800151602001818152505082608001516000015182610a5a9190613621565b8360a00151600001818152505082608001516020015181610a7b9190613621565b8360a0015160200181815250506064601060000160029054906101000a900460ff1660ff168460200151610aaf919061357f565b610ab991906135f0565b8360c0015160000181815250506064601160000160029054906101000a900460ff1660ff168460400151610aed919061357f565b610af791906135f0565b8360c0015160200181815250506000600b60009054906101000a900473ffffffffffffffffffffffffffffffffffffffff1673ffffffffffffffffffffffffffffffffffffffff16638dfa43638560600151600001518660600151602001516040518363ffffffff1660e01b8152600401610b73929190613664565b61024060405180830381865afa158015610b91573d6000803e3d6000fd5b505050506040513d601f19601f82011682018060405250810190610bb59190613860565b90506000600c60009054906101000a900473ffffffffffffffffffffffffffffffffffffffff1673ffffffffffffffffffffffffffffffffffffffff16638dfa43638660800151600001518760800151602001516040518363ffffffff1660e01b8152600401610c26929190613664565b61024060405180830381865afa158015610c44573d6000803e3d6000fd5b505050506040513d601f19601f82011682018060405250810190610c689190613860565b90506000600e60009054906101000a900473ffffffffffffffffffffffffffffffffffffffff1673ffffffffffffffffffffffffffffffffffffffff16638dfa43638760a00151600001518860a00151602001516040518363ffffffff1660e01b8152600401610cd9929190613664565b61024060405180830381865afa158015610cf7573d6000803e3d6000fd5b505050506040513d601f19601f82011682018060405250810190610d1b9190613860565b90506000826040015160000151604001518460400151600001516040015184602001516000015160400151866020015160000151604001518660000151600001516040015188600001516000015160400151610d77919061388e565b610d81919061388e565b610d8b919061388e565b610d95919061388e565b610d9f919061388e565b905060008360000151600001516060015185600001516000015160600151610dc7919061388e565b905060008460200151600001516060015186602001516000015160600151610def919061388e565b905060008560400151600001516060015187604001516000015160600151610e17919061388e565b90506000600d60009054906101000a900473ffffffffffffffffffffffffffffffffffffffff1673ffffffffffffffffffffffffffffffffffffffff16636ce35d3b8c60c0015160000151878e60c00151602001518888886040518763ffffffff1660e01b8152600401610e90969594939291906138c2565b608060405180830381865afa158015610ead573d6000803e3d6000fd5b505050506040513d601f19601f82011682018060405250810190610ed1919061399b565b90506000886000015160200151118015610ef357506000886000015160400151115b1561104c57600560009054906101000a900473ffffffffffffffffffffffffffffffffffffffff1673ffffffffffffffffffffffffffffffffffffffff166340c10f19308a60000151604001516040518363ffffffff1660e01b8152600401610f5d9291906139c8565b600060405180830381600087803b158015610f7757600080fd5b505af1158015610f8b573d6000803e3d6000fd5b505050506008600081548110610fa457610fa36139f1565b5b9060005260206000200160009054906101000a900473ffffffffffffffffffffffffffffffffffffffff1673ffffffffffffffffffffffffffffffffffffffff1663df6c39fb8960000151602001518a60000151604001516040518363ffffffff1660e01b8152600401611019929190613664565b600060405180830381600087803b15801561103357600080fd5b505af1158015611047573d6000803e3d6000fd5b505050505b600088602001516020015111801561106c57506000886020015160400151115b156111c557600660009054906101000a900473ffffffffffffffffffffffffffffffffffffffff1673ffffffffffffffffffffffffffffffffffffffff166340c10f19308a60200151604001516040518363ffffffff1660e01b81526004016110d69291906139c8565b600060405180830381600087803b1580156110f057600080fd5b505af1158015611104573d6000803e3d6000fd5b50505050600860018154811061111d5761111c6139f1565b5b9060005260206000200160009054906101000a900473ffffffffffffffffffffffffffffffffffffffff1673ffffffffffffffffffffffffffffffffffffffff1663df6c39fb8960200151602001518a60200151604001516040518363ffffffff1660e01b8152600401611192929190613664565b600060405180830381600087803b1580156111ac57600080fd5b505af11580156111c0573d6000803e3d6000fd5b505050505b60008860400151602001511180156111e557506000886040015160400151115b1561133e57600760009054906101000a900473ffffffffffffffffffffffffffffffffffffffff1673ffffffffffffffffffffffffffffffffffffffff166340c10f19308a60400151604001516040518363ffffffff1660e01b815260040161124f9291906139c8565b600060405180830381600087803b15801561126957600080fd5b505af115801561127d573d6000803e3d6000fd5b505050506008600281548110611296576112956139f1565b5b9060005260206000200160009054906101000a900473ffffffffffffffffffffffffffffffffffffffff1673ffffffffffffffffffffffffffffffffffffffff1663df6c39fb8960400151602001518a60400151604001516040518363ffffffff1660e01b815260040161130b929190613664565b600060405180830381600087803b15801561132557600080fd5b505af1158015611339573d6000803e3d6000fd5b505050505b600087600001516020015111801561135e57506000876000015160400151115b156114b757600560009054906101000a900473ffffffffffffffffffffffffffffffffffffffff1673ffffffffffffffffffffffffffffffffffffffff166340c10f19308960000151604001516040518363ffffffff1660e01b81526004016113c89291906139c8565b600060405180830381600087803b1580156113e257600080fd5b505af11580156113f6573d6000803e3d6000fd5b50505050600960008154811061140f5761140e6139f1565b5b9060005260206000200160009054906101000a900473ffffffffffffffffffffffffffffffffffffffff1673ffffffffffffffffffffffffffffffffffffffff1663df6c39fb8860000151602001518960000151604001516040518363ffffffff1660e01b8152600401611484929190613664565b600060405180830381600087803b15801561149e57600080fd5b505af11580156114b2573d6000803e3d6000fd5b505050505b60008760200151602001511180156114d757506000876020015160400151115b1561163057600660009054906101000a900473ffffffffffffffffffffffffffffffffffffffff1673ffffffffffffffffffffffffffffffffffffffff166340c10f19308960200151604001516040518363ffffffff1660e01b81526004016115419291906139c8565b600060405180830381600087803b15801561155b57600080fd5b505af115801561156f573d6000803e3d6000fd5b505050506009600181548110611588576115876139f1565b5b9060005260206000200160009054906101000a900473ffffffffffffffffffffffffffffffffffffffff1673ffffffffffffffffffffffffffffffffffffffff1663df6c39fb8860200151602001518960200151604001516040518363ffffffff1660e01b81526004016115fd929190613664565b600060405180830381600087803b15801561161757600080fd5b505af115801561162b573d6000803e3d6000fd5b505050505b600087604001516020015111801561165057506000876040015160400151115b156117a957600760009054906101000a900473ffffffffffffffffffffffffffffffffffffffff1673ffffffffffffffffffffffffffffffffffffffff166340c10f19308960400151604001516040518363ffffffff1660e01b81526004016116ba9291906139c8565b600060405180830381600087803b1580156116d457600080fd5b505af11580156116e8573d6000803e3d6000fd5b505050506009600281548110611701576117006139f1565b5b9060005260206000200160009054906101000a900473ffffffffffffffffffffffffffffffffffffffff1673ffffffffffffffffffffffffffffffffffffffff1663df6c39fb8860400151602001518960400151604001516040518363ffffffff1660e01b8152600401611776929190613664565b600060405180830381600087803b15801561179057600080fd5b505af11580156117a4573d6000803e3d6000fd5b505050505b60008660000151602001511180156117c957506000866000015160400151115b1561192257600560009054906101000a900473ffffffffffffffffffffffffffffffffffffffff1673ffffffffffffffffffffffffffffffffffffffff166340c10f19308860000151604001516040518363ffffffff1660e01b81526004016118339291906139c8565b600060405180830381600087803b15801561184d57600080fd5b505af1158015611861573d6000803e3d6000fd5b50505050600a60008154811061187a576118796139f1565b5b9060005260206000200160009054906101000a900473ffffffffffffffffffffffffffffffffffffffff1673ffffffffffffffffffffffffffffffffffffffff1663df6c39fb8760000151602001518860000151604001516040518363ffffffff1660e01b81526004016118ef929190613664565b600060405180830381600087803b15801561190957600080fd5b505af115801561191d573d6000803e3d6000fd5b505050505b600086602001516020015111801561194257506000866020015160400151115b15611a9b57600660009054906101000a900473ffffffffffffffffffffffffffffffffffffffff1673ffffffffffffffffffffffffffffffffffffffff166340c10f19308860200151604001516040518363ffffffff1660e01b81526004016119ac9291906139c8565b600060405180830381600087803b1580156119c657600080fd5b505af11580156119da573d6000803e3d6000fd5b50505050600a6001815481106119f3576119f26139f1565b5b9060005260206000200160009054906101000a900473ffffffffffffffffffffffffffffffffffffffff1673ffffffffffffffffffffffffffffffffffffffff1663df6c39fb8760200151602001518860200151604001516040518363ffffffff1660e01b8152600401611a68929190613664565b600060405180830381600087803b158015611a8257600080fd5b505af1158015611a96573d6000803e3d6000fd5b505050505b6000866040015160200151118015611abb57506000866040015160400151115b15611c1457600760009054906101000a900473ffffffffffffffffffffffffffffffffffffffff1673ffffffffffffffffffffffffffffffffffffffff166340c10f19308860400151604001516040518363ffffffff1660e01b8152600401611b259291906139c8565b600060405180830381600087803b158015611b3f57600080fd5b505af1158015611b53573d6000803e3d6000fd5b50505050600a600281548110611b6c57611b6b6139f1565b5b9060005260206000200160009054906101000a900473ffffffffffffffffffffffffffffffffffffffff1673ffffffffffffffffffffffffffffffffffffffff1663df6c39fb8760400151602001518860400151604001516040518363ffffffff1660e01b8152600401611be1929190613664565b600060405180830381600087803b158015611bfb57600080fd5b505af1158015611c0f573d6000803e3d6000fd5b505050505b600460009054906101000a900473ffffffffffffffffffffffffffffffffffffffff1673ffffffffffffffffffffffffffffffffffffffff1663a9059cbb600f60009054906101000a900473ffffffffffffffffffffffffffffffffffffffff1683600001516040518363ffffffff1660e01b8152600401611c979291906139c8565b6020604051808303816000875af1158015611cb6573d6000803e3d6000fd5b505050506040513d601f19601f82011682018060405250810190611cda9190613a58565b50600560009054906101000a900473ffffffffffffffffffffffffffffffffffffffff1673ffffffffffffffffffffffffffffffffffffffff166340c10f19600f60009054906101000a900473ffffffffffffffffffffffffffffffffffffffff1683602001516040518363ffffffff1660e01b8152600401611d5e9291906139c8565b600060405180830381600087803b158015611d7857600080fd5b505af1158015611d8c573d6000803e3d6000fd5b50505050600660009054906101000a900473ffffffffffffffffffffffffffffffffffffffff1673ffffffffffffffffffffffffffffffffffffffff166340c10f19600f60009054906101000a900473ffffffffffffffffffffffffffffffffffffffff1683604001516040518363ffffffff1660e01b8152600401611e139291906139c8565b600060405180830381600087803b158015611e2d57600080fd5b505af1158015611e41573d6000803e3d6000fd5b50505050600760009054906101000a900473ffffffffffffffffffffffffffffffffffffffff1673ffffffffffffffffffffffffffffffffffffffff166340c10f19600f60009054906101000a900473ffffffffffffffffffffffffffffffffffffffff1683606001516040518363ffffffff1660e01b8152600401611ec89291906139c8565b600060405180830381600087803b158015611ee257600080fd5b505af1158015611ef6573d6000803e3d6000fd5b505050506000600460009054906101000a900473ffffffffffffffffffffffffffffffffffffffff1673ffffffffffffffffffffffffffffffffffffffff166370a08231306040518263ffffffff1660e01b8152600401611f5791906132a4565b602060405180830381865afa158015611f74573d6000803e3d6000fd5b505050506040513d601f19601f82011682018060405250810190611f989190613523565b11156120fd57600460009054906101000a900473ffffffffffffffffffffffffffffffffffffffff1673ffffffffffffffffffffffffffffffffffffffff1663a9059cbb600260009054906101000a900473ffffffffffffffffffffffffffffffffffffffff16600460009054906101000a900473ffffffffffffffffffffffffffffffffffffffff1673ffffffffffffffffffffffffffffffffffffffff166370a08231306040518263ffffffff1660e01b815260040161205a91906132a4565b602060405180830381865afa158015612077573d6000803e3d6000fd5b505050506040513d601f19601f8201168201806040525081019061209b9190613523565b6040518363ffffffff1660e01b81526004016120b89291906139c8565b6020604051808303816000875af11580156120d7573d6000803e3d6000fd5b505050506040513d601f19601f820116820180604052508101906120fb9190613a58565b505b7f0f41298dd61b4fdff224f14a8bde24760d3e18cd4e91a2a072f29d882d17f1088860405161212c9190613b6f565b60405180910390a17f686de475d8cf02a731287d163936d70c522d2d4dff8f07048dc5476e251d6f67876040516121639190613b6f565b60405180910390a17f4a573778a3a39ae90551df4d0fcd5e5cf0e18fd1f406eaad36df0e6c7b1b28658660405161219a9190613b6f565b60405180910390a17f2c6c1fe2cebdc992e4374cc537bd49223d9903f1be112f6d9dd455d1d14210f5816040516121d19190613be0565b60405180910390a17f5578432bef88b16bac0877a12038c7d09ab8630c4bbf78e123e67bf6becaf8ad8b6040516122089190613cba565b60405180910390a15050505050505050505050565b600a818154811061222d57600080fd5b906000526020600020016000915054906101000a900473ffffffffffffffffffffffffffffffffffffffff1681565b600f60149054906101000a900460ff1681565b612277612fcd565b6122816000613054565b565b600061228d613085565b90508073ffffffffffffffffffffffffffffffffffffffff166122ae612645565b73ffffffffffffffffffffffffffffffffffffffff161461230657806040517f118cdaa70000000000000000000000000000000000000000000000000000000081526004016122fd91906132a4565b60405180910390fd5b61230f81613054565b50565b6008818154811061232257600080fd5b906000526020600020016000915054906101000a900473ffffffffffffffffffffffffffffffffffffffff1681565b600760009054906101000a900473ffffffffffffffffffffffffffffffffffffffff1681565b600360009054906101000a900473ffffffffffffffffffffffffffffffffffffffff1681565b600b60009054906101000a900473ffffffffffffffffffffffffffffffffffffffff1681565b600f60009054906101000a900473ffffffffffffffffffffffffffffffffffffffff1681565b60008060009054906101000a900473ffffffffffffffffffffffffffffffffffffffff16905090565b600660009054906101000a900473ffffffffffffffffffffffffffffffffffffffff1681565b60108060000160009054906101000a900460ff16908060000160019054906101000a900460ff16908060000160029054906101000a900460ff16908060000160039054906101000a900460ff16908060000160049054906101000a900460ff16908060000160059054906101000a900460ff16908060000160069054906101000a900460ff16905087565b60118060000160009054906101000a900460ff16908060000160019054906101000a900460ff16908060000160029054906101000a900460ff16908060000160039054906101000a900460ff16908060000160049054906101000a900460ff16908060000160059054906101000a900460ff16905086565b612543612fcd565b80600d60006101000a81548173ffffffffffffffffffffffffffffffffffffffff021916908373ffffffffffffffffffffffffffffffffffffffff16021790555050565b600e60009054906101000a900473ffffffffffffffffffffffffffffffffffffffff1681565b600260009054906101000a900473ffffffffffffffffffffffffffffffffffffffff1681565b6125db612fcd565b80600b60006101000a81548173ffffffffffffffffffffffffffffffffffffffff021916908373ffffffffffffffffffffffffffffffffffffffff16021790555050565b600c60009054906101000a900473ffffffffffffffffffffffffffffffffffffffff1681565b6000600160009054906101000a900473ffffffffffffffffffffffffffffffffffffffff16905090565b612677612fcd565b80600160006101000a81548173ffffffffffffffffffffffffffffffffffffffff021916908373ffffffffffffffffffffffffffffffffffffffff1602179055508073ffffffffffffffffffffffffffffffffffffffff166126d76123e9565b73ffffffffffffffffffffffffffffffffffffffff167f38d16b8cac22d99fc7c124b9cd0de2d3fa1faef420bfe791d8c362d765e2270060405160405180910390a350565b6009818154811061272c57600080fd5b906000526020600020016000915054906101000a900473ffffffffffffffffffffffffffffffffffffffff1681565b6127a9600460009054906101000a900473ffffffffffffffffffffffffffffffffffffffff16600560009054906101000a900473ffffffffffffffffffffffffffffffffffffffff1661308d565b6127f7600460009054906101000a900473ffffffffffffffffffffffffffffffffffffffff16600660009054906101000a900473ffffffffffffffffffffffffffffffffffffffff1661308d565b612845600460009054906101000a900473ffffffffffffffffffffffffffffffffffffffff16600760009054906101000a900473ffffffffffffffffffffffffffffffffffffffff1661308d565b6128b0600460009054906101000a900473ffffffffffffffffffffffffffffffffffffffff1660086000815481106128805761287f6139f1565b5b9060005260206000200160009054906101000a900473ffffffffffffffffffffffffffffffffffffffff1661308d565b61291b600560009054906101000a900473ffffffffffffffffffffffffffffffffffffffff1660086000815481106128eb576128ea6139f1565b5b9060005260206000200160009054906101000a900473ffffffffffffffffffffffffffffffffffffffff1661308d565b612986600460009054906101000a900473ffffffffffffffffffffffffffffffffffffffff166009600081548110612956576129556139f1565b5b9060005260206000200160009054906101000a900473ffffffffffffffffffffffffffffffffffffffff1661308d565b6129f1600560009054906101000a900473ffffffffffffffffffffffffffffffffffffffff1660096000815481106129c1576129c06139f1565b5b9060005260206000200160009054906101000a900473ffffffffffffffffffffffffffffffffffffffff1661308d565b612a5c600460009054906101000a900473ffffffffffffffffffffffffffffffffffffffff16600a600081548110612a2c57612a2b6139f1565b5b9060005260206000200160009054906101000a900473ffffffffffffffffffffffffffffffffffffffff1661308d565b612ac7600560009054906101000a900473ffffffffffffffffffffffffffffffffffffffff16600a600081548110612a9757612a966139f1565b5b9060005260206000200160009054906101000a900473ffffffffffffffffffffffffffffffffffffffff1661308d565b612b32600460009054906101000a900473ffffffffffffffffffffffffffffffffffffffff166008600181548110612b0257612b016139f1565b5b9060005260206000200160009054906101000a900473ffffffffffffffffffffffffffffffffffffffff1661308d565b612b9d600660009054906101000a900473ffffffffffffffffffffffffffffffffffffffff166008600181548110612b6d57612b6c6139f1565b5b9060005260206000200160009054906101000a900473ffffffffffffffffffffffffffffffffffffffff1661308d565b612c08600460009054906101000a900473ffffffffffffffffffffffffffffffffffffffff166009600181548110612bd857612bd76139f1565b5b9060005260206000200160009054906101000a900473ffffffffffffffffffffffffffffffffffffffff1661308d565b612c73600660009054906101000a900473ffffffffffffffffffffffffffffffffffffffff166009600181548110612c4357612c426139f1565b5b9060005260206000200160009054906101000a900473ffffffffffffffffffffffffffffffffffffffff1661308d565b612cde600460009054906101000a900473ffffffffffffffffffffffffffffffffffffffff16600a600181548110612cae57612cad6139f1565b5b9060005260206000200160009054906101000a900473ffffffffffffffffffffffffffffffffffffffff1661308d565b612d49600660009054906101000a900473ffffffffffffffffffffffffffffffffffffffff16600a600181548110612d1957612d186139f1565b5b9060005260206000200160009054906101000a900473ffffffffffffffffffffffffffffffffffffffff1661308d565b612db4600460009054906101000a900473ffffffffffffffffffffffffffffffffffffffff166008600281548110612d8457612d836139f1565b5b9060005260206000200160009054906101000a900473ffffffffffffffffffffffffffffffffffffffff1661308d565b612e1f600760009054906101000a900473ffffffffffffffffffffffffffffffffffffffff166008600281548110612def57612dee6139f1565b5b9060005260206000200160009054906101000a900473ffffffffffffffffffffffffffffffffffffffff1661308d565b612e8a600460009054906101000a900473ffffffffffffffffffffffffffffffffffffffff166009600281548110612e5a57612e596139f1565b5b9060005260206000200160009054906101000a900473ffffffffffffffffffffffffffffffffffffffff1661308d565b612ef5600760009054906101000a900473ffffffffffffffffffffffffffffffffffffffff166009600281548110612ec557612ec46139f1565b5b9060005260206000200160009054906101000a900473ffffffffffffffffffffffffffffffffffffffff1661308d565b612f60600460009054906101000a900473ffffffffffffffffffffffffffffffffffffffff16600a600281548110612f3057612f2f6139f1565b5b9060005260206000200160009054906101000a900473ffffffffffffffffffffffffffffffffffffffff1661308d565b612fcb600760009054906101000a900473ffffffffffffffffffffffffffffffffffffffff16600a600281548110612f9b57612f9a6139f1565b5b9060005260206000200160009054906101000a900473ffffffffffffffffffffffffffffffffffffffff1661308d565b565b612fd5613085565b73ffffffffffffffffffffffffffffffffffffffff16612ff36123e9565b73ffffffffffffffffffffffffffffffffffffffff161461305257613016613085565b6040517f118cdaa700000000000000000000000000000000000000000000000000000000815260040161304991906132a4565b60405180910390fd5b565b600160006101000a81549073ffffffffffffffffffffffffffffffffffffffff021916905561308281613130565b50565b600033905090565b8173ffffffffffffffffffffffffffffffffffffffff1663095ea7b3827fffffffffffffffffffffffffffffffffffffffffffffffffffffffffffffffff6040518363ffffffff1660e01b81526004016130e89291906139c8565b6020604051808303816000875af1158015613107573d6000803e3d6000fd5b505050506040513d601f19601f8201168201806040525081019061312b9190613a58565b505050565b60008060009054906101000a900473ffffffffffffffffffffffffffffffffffffffff169050816000806101000a81548173ffffffffffffffffffffffffffffffffffffffff021916908373ffffffffffffffffffffffffffffffffffffffff1602179055508173ffffffffffffffffffffffffffffffffffffffff168173ffffffffffffffffffffffffffffffffffffffff167f8be0079c531659141344cd1fd0a4f28419497f9722a3daafe3b4186f6b6457e060405160405180910390a35050565b6040518060e0016040528060008152602001600081526020016000815260200161321c613249565b8152602001613229613249565b8152602001613236613249565b8152602001613243613249565b81525090565b604051806040016040528060008152602001600081525090565b600073ffffffffffffffffffffffffffffffffffffffff82169050919050565b600061328e82613263565b9050919050565b61329e81613283565b82525050565b60006020820190506132b96000830184613295565b92915050565b6000604051905090565b600080fd5b6132d781613283565b81146132e257600080fd5b50565b6000813590506132f4816132ce565b92915050565b6000602082840312156133105761330f6132c9565b5b600061331e848285016132e5565b91505092915050565b6000819050919050565b61333a81613327565b811461334557600080fd5b50565b60008135905061335781613331565b92915050565b600060208284031215613373576133726132c9565b5b600061338184828501613348565b91505092915050565b600060ff82169050919050565b6133a08161338a565b82525050565b60006020820190506133bb6000830184613397565b92915050565b600060e0820190506133d6600083018a613397565b6133e36020830189613397565b6133f06040830188613397565b6133fd6060830187613397565b61340a6080830186613397565b61341760a0830185613397565b61342460c0830184613397565b98975050505050505050565b600060c0820190506134456000830189613397565b6134526020830188613397565b61345f6040830187613397565b61346c6060830186613397565b6134796080830185613397565b61348660a0830184613397565b979650505050505050565b600082825260208201905092915050565b7f545249474745525f554e415554484f52495a4544000000000000000000000000600082015250565b60006134d8601483613491565b91506134e3826134a2565b602082019050919050565b60006020820190508181036000830152613507816134cb565b9050919050565b60008151905061351d81613331565b92915050565b600060208284031215613539576135386132c9565b5b60006135478482850161350e565b91505092915050565b7f4e487b7100000000000000000000000000000000000000000000000000000000600052601160045260246000fd5b600061358a82613327565b915061359583613327565b92508282026135a381613327565b915082820484148315176135ba576135b9613550565b5b5092915050565b7f4e487b7100000000000000000000000000000000000000000000000000000000600052601260045260246000fd5b60006135fb82613327565b915061360683613327565b925082613616576136156135c1565b5b828204905092915050565b600061362c82613327565b915061363783613327565b925082820390508181111561364f5761364e613550565b5b92915050565b61365e81613327565b82525050565b60006040820190506136796000830185613655565b6136866020830184613655565b9392505050565b600080fd5b6000601f19601f8301169050919050565b7f4e487b7100000000000000000000000000000000000000000000000000000000600052604160045260246000fd5b6136db82613692565b810181811067ffffffffffffffff821117156136fa576136f96136a3565b5b80604052505050565b600061370d6132bf565b905061371982826136d2565b919050565b6000608082840312156137345761373361368d565b5b61373e6080613703565b9050600061374e8482850161350e565b60008301525060206137628482850161350e565b60208301525060406137768482850161350e565b604083015250606061378a8482850161350e565b60608301525092915050565b600060c082840312156137ac576137ab61368d565b5b6137b66060613703565b905060006137c68482850161371e565b60008301525060806137da8482850161350e565b60208301525060a06137ee8482850161350e565b60408301525092915050565b600061024082840312156138115761381061368d565b5b61381b6060613703565b9050600061382b84828501613796565b60008301525060c061383f84828501613796565b60208301525061018061385484828501613796565b60408301525092915050565b60006102408284031215613877576138766132c9565b5b6000613885848285016137fa565b91505092915050565b600061389982613327565b91506138a483613327565b92508282019050808211156138bc576138bb613550565b5b92915050565b600060c0820190506138d76000830189613655565b6138e46020830188613655565b6138f16040830187613655565b6138fe6060830186613655565b61390b6080830185613655565b61391860a0830184613655565b979650505050505050565b6000608082840312156139395761393861368d565b5b6139436080613703565b905060006139538482850161350e565b60008301525060206139678482850161350e565b602083015250604061397b8482850161350e565b604083015250606061398f8482850161350e565b60608301525092915050565b6000608082840312156139b1576139b06132c9565b5b60006139bf84828501613923565b91505092915050565b60006040820190506139dd6000830185613295565b6139ea6020830184613655565b9392505050565b7f4e487b7100000000000000000000000000000000000000000000000000000000600052603260045260246000fd5b60008115159050919050565b613a3581613a20565b8114613a4057600080fd5b50565b600081519050613a5281613a2c565b92915050565b600060208284031215613a6e57613a6d6132c9565b5b6000613a7c84828501613a43565b91505092915050565b613a8e81613327565b82525050565b608082016000820151613aaa6000850182613a85565b506020820151613abd6020850182613a85565b506040820151613ad06040850182613a85565b506060820151613ae36060850182613a85565b50505050565b60c082016000820151613aff6000850182613a94565b506020820151613b126080850182613a85565b506040820151613b2560a0850182613a85565b50505050565b61024082016000820151613b426000850182613ae9565b506020820151613b5560c0850182613ae9565b506040820151613b69610180850182613ae9565b50505050565b600061024082019050613b856000830184613b2b565b92915050565b608082016000820151613ba16000850182613a85565b506020820151613bb46020850182613a85565b506040820151613bc76040850182613a85565b506060820151613bda6060850182613a85565b50505050565b6000608082019050613bf56000830184613b8b565b92915050565b604082016000820151613c116000850182613a85565b506020820151613c246020850182613a85565b50505050565b61016082016000820151613c416000850182613a85565b506020820151613c546020850182613a85565b506040820151613c676040850182613a85565b506060820151613c7a6060850182613bfb565b506080820151613c8d60a0850182613bfb565b5060a0820151613ca060e0850182613bfb565b5060c0820151613cb4610120850182613bfb565b50505050565b600061016082019050613cd06000830184613c2a565b9291505056fea2646970667358221220762e692aef1a8d30dd0d017e7331ad027098d635d3a20b0f833ba58ba1fd9f9264736f6c63430008180033",
          "opcodes": "PUSH1 0x80 PUSH1 0x40 MSTORE PUSH1 0x50 PUSH1 0xF PUSH1 0x14 PUSH2 0x100 EXP DUP2 SLOAD DUP2 PUSH1 0xFF MUL NOT AND SWAP1 DUP4 PUSH1 0xFF AND MUL OR SWAP1 SSTORE POP PUSH1 0x40 MLOAD DUP1 PUSH1 0xE0 ADD PUSH1 0x40 MSTORE DUP1 PUSH1 0x14 PUSH1 0xFF AND DUP2 MSTORE PUSH1 0x20 ADD PUSH1 0x28 PUSH1 0xFF AND DUP2 MSTORE PUSH1 0x20 ADD PUSH1 0xA PUSH1 0xFF AND DUP2 MSTORE PUSH1 0x20 ADD PUSH1 0xE PUSH1 0xFF AND DUP2 MSTORE PUSH1 0x20 ADD PUSH1 0xA PUSH1 0xFF AND DUP2 MSTORE PUSH1 0x20 ADD PUSH1 0x5 PUSH1 0xFF AND DUP2 MSTORE PUSH1 0x20 ADD PUSH1 0x1 PUSH1 0xFF AND DUP2 MSTORE POP PUSH1 0x10 PUSH1 0x0 DUP3 ADD MLOAD DUP2 PUSH1 0x0 ADD PUSH1 0x0 PUSH2 0x100 EXP DUP2 SLOAD DUP2 PUSH1 0xFF MUL NOT AND SWAP1 DUP4 PUSH1 0xFF AND MUL OR SWAP1 SSTORE POP PUSH1 0x20 DUP3 ADD MLOAD DUP2 PUSH1 0x0 ADD PUSH1 0x1 PUSH2 0x100 EXP DUP2 SLOAD DUP2 PUSH1 0xFF MUL NOT AND SWAP1 DUP4 PUSH1 0xFF AND MUL OR SWAP1 SSTORE POP PUSH1 0x40 DUP3 ADD MLOAD DUP2 PUSH1 0x0 ADD PUSH1 0x2 PUSH2 0x100 EXP DUP2 SLOAD DUP2 PUSH1 0xFF MUL NOT AND SWAP1 DUP4 PUSH1 0xFF AND MUL OR SWAP1 SSTORE POP PUSH1 0x60 DUP3 ADD MLOAD DUP2 PUSH1 0x0 ADD PUSH1 0x3 PUSH2 0x100 EXP DUP2 SLOAD DUP2 PUSH1 0xFF MUL NOT AND SWAP1 DUP4 PUSH1 0xFF AND MUL OR SWAP1 SSTORE POP PUSH1 0x80 DUP3 ADD MLOAD DUP2 PUSH1 0x0 ADD PUSH1 0x4 PUSH2 0x100 EXP DUP2 SLOAD DUP2 PUSH1 0xFF MUL NOT AND SWAP1 DUP4 PUSH1 0xFF AND MUL OR SWAP1 SSTORE POP PUSH1 0xA0 DUP3 ADD MLOAD DUP2 PUSH1 0x0 ADD PUSH1 0x5 PUSH2 0x100 EXP DUP2 SLOAD DUP2 PUSH1 0xFF MUL NOT AND SWAP1 DUP4 PUSH1 0xFF AND MUL OR SWAP1 SSTORE POP PUSH1 0xC0 DUP3 ADD MLOAD DUP2 PUSH1 0x0 ADD PUSH1 0x6 PUSH2 0x100 EXP DUP2 SLOAD DUP2 PUSH1 0xFF MUL NOT AND SWAP1 DUP4 PUSH1 0xFF AND MUL OR SWAP1 SSTORE POP POP POP PUSH1 0x40 MLOAD DUP1 PUSH1 0xC0 ADD PUSH1 0x40 MSTORE DUP1 PUSH1 0x28 PUSH1 0xFF AND DUP2 MSTORE PUSH1 0x20 ADD PUSH1 0x19 PUSH1 0xFF AND DUP2 MSTORE PUSH1 0x20 ADD PUSH1 0xA PUSH1 0xFF AND DUP2 MSTORE PUSH1 0x20 ADD PUSH1 0xA PUSH1 0xFF AND DUP2 MSTORE PUSH1 0x20 ADD PUSH1 0xA PUSH1 0xFF AND DUP2 MSTORE PUSH1 0x20 ADD PUSH1 0x5 PUSH1 0xFF AND DUP2 MSTORE POP PUSH1 0x11 PUSH1 0x0 DUP3 ADD MLOAD DUP2 PUSH1 0x0 ADD PUSH1 0x0 PUSH2 0x100 EXP DUP2 SLOAD DUP2 PUSH1 0xFF MUL NOT AND SWAP1 DUP4 PUSH1 0xFF AND MUL OR SWAP1 SSTORE POP PUSH1 0x20 DUP3 ADD MLOAD DUP2 PUSH1 0x0 ADD PUSH1 0x1 PUSH2 0x100 EXP DUP2 SLOAD DUP2 PUSH1 0xFF MUL NOT AND SWAP1 DUP4 PUSH1 0xFF AND MUL OR SWAP1 SSTORE POP PUSH1 0x40 DUP3 ADD MLOAD DUP2 PUSH1 0x0 ADD PUSH1 0x2 PUSH2 0x100 EXP DUP2 SLOAD DUP2 PUSH1 0xFF MUL NOT AND SWAP1 DUP4 PUSH1 0xFF AND MUL OR SWAP1 SSTORE POP PUSH1 0x60 DUP3 ADD MLOAD DUP2 PUSH1 0x0 ADD PUSH1 0x3 PUSH2 0x100 EXP DUP2 SLOAD DUP2 PUSH1 0xFF MUL NOT AND SWAP1 DUP4 PUSH1 0xFF AND MUL OR SWAP1 SSTORE POP PUSH1 0x80 DUP3 ADD MLOAD DUP2 PUSH1 0x0 ADD PUSH1 0x4 PUSH2 0x100 EXP DUP2 SLOAD DUP2 PUSH1 0xFF MUL NOT AND SWAP1 DUP4 PUSH1 0xFF AND MUL OR SWAP1 SSTORE POP PUSH1 0xA0 DUP3 ADD MLOAD DUP2 PUSH1 0x0 ADD PUSH1 0x5 PUSH2 0x100 EXP DUP2 SLOAD DUP2 PUSH1 0xFF MUL NOT AND SWAP1 DUP4 PUSH1 0xFF AND MUL OR SWAP1 SSTORE POP POP POP CALLVALUE DUP1 ISZERO PUSH3 0x276 JUMPI PUSH1 0x0 DUP1 REVERT JUMPDEST POP PUSH1 0x40 MLOAD PUSH3 0x493C CODESIZE SUB DUP1 PUSH3 0x493C DUP4 CODECOPY DUP2 DUP2 ADD PUSH1 0x40 MSTORE DUP2 ADD SWAP1 PUSH3 0x29C SWAP2 SWAP1 PUSH3 0xAC6 JUMP JUMPDEST CALLER PUSH1 0x0 PUSH20 0xFFFFFFFFFFFFFFFFFFFFFFFFFFFFFFFFFFFFFFFF AND DUP2 PUSH20 0xFFFFFFFFFFFFFFFFFFFFFFFFFFFFFFFFFFFFFFFF AND SUB PUSH3 0x312 JUMPI PUSH1 0x0 PUSH1 0x40 MLOAD PUSH32 0x1E4FBDF700000000000000000000000000000000000000000000000000000000 DUP2 MSTORE PUSH1 0x4 ADD PUSH3 0x309 SWAP2 SWAP1 PUSH3 0xC03 JUMP JUMPDEST PUSH1 0x40 MLOAD DUP1 SWAP2 SUB SWAP1 REVERT JUMPDEST PUSH3 0x323 DUP2 PUSH3 0x657 PUSH1 0x20 SHL PUSH1 0x20 SHR JUMP JUMPDEST POP DUP11 PUSH1 0x4 PUSH1 0x0 PUSH2 0x100 EXP DUP2 SLOAD DUP2 PUSH20 0xFFFFFFFFFFFFFFFFFFFFFFFFFFFFFFFFFFFFFFFF MUL NOT AND SWAP1 DUP4 PUSH20 0xFFFFFFFFFFFFFFFFFFFFFFFFFFFFFFFFFFFFFFFF AND MUL OR SWAP1 SSTORE POP DUP10 PUSH1 0x5 PUSH1 0x0 PUSH2 0x100 EXP DUP2 SLOAD DUP2 PUSH20 0xFFFFFFFFFFFFFFFFFFFFFFFFFFFFFFFFFFFFFFFF MUL NOT AND SWAP1 DUP4 PUSH20 0xFFFFFFFFFFFFFFFFFFFFFFFFFFFFFFFFFFFFFFFF AND MUL OR SWAP1 SSTORE POP DUP9 PUSH1 0x6 PUSH1 0x0 PUSH2 0x100 EXP DUP2 SLOAD DUP2 PUSH20 0xFFFFFFFFFFFFFFFFFFFFFFFFFFFFFFFFFFFFFFFF MUL NOT AND SWAP1 DUP4 PUSH20 0xFFFFFFFFFFFFFFFFFFFFFFFFFFFFFFFFFFFFFFFF AND MUL OR SWAP1 SSTORE POP DUP8 PUSH1 0x7 PUSH1 0x0 PUSH2 0x100 EXP DUP2 SLOAD DUP2 PUSH20 0xFFFFFFFFFFFFFFFFFFFFFFFFFFFFFFFFFFFFFFFF MUL NOT AND SWAP1 DUP4 PUSH20 0xFFFFFFFFFFFFFFFFFFFFFFFFFFFFFFFFFFFFFFFF AND MUL OR SWAP1 SSTORE POP DUP7 PUSH1 0x2 PUSH1 0x0 PUSH2 0x100 EXP DUP2 SLOAD DUP2 PUSH20 0xFFFFFFFFFFFFFFFFFFFFFFFFFFFFFFFFFFFFFFFF MUL NOT AND SWAP1 DUP4 PUSH20 0xFFFFFFFFFFFFFFFFFFFFFFFFFFFFFFFFFFFFFFFF AND MUL OR SWAP1 SSTORE POP DUP6 PUSH1 0xB PUSH1 0x0 PUSH2 0x100 EXP DUP2 SLOAD DUP2 PUSH20 0xFFFFFFFFFFFFFFFFFFFFFFFFFFFFFFFFFFFFFFFF MUL NOT AND SWAP1 DUP4 PUSH20 0xFFFFFFFFFFFFFFFFFFFFFFFFFFFFFFFFFFFFFFFF AND MUL OR SWAP1 SSTORE POP DUP5 PUSH1 0xC PUSH1 0x0 PUSH2 0x100 EXP DUP2 SLOAD DUP2 PUSH20 0xFFFFFFFFFFFFFFFFFFFFFFFFFFFFFFFFFFFFFFFF MUL NOT AND SWAP1 DUP4 PUSH20 0xFFFFFFFFFFFFFFFFFFFFFFFFFFFFFFFFFFFFFFFF AND MUL OR SWAP1 SSTORE POP DUP4 PUSH1 0xE PUSH1 0x0 PUSH2 0x100 EXP DUP2 SLOAD DUP2 PUSH20 0xFFFFFFFFFFFFFFFFFFFFFFFFFFFFFFFFFFFFFFFF MUL NOT AND SWAP1 DUP4 PUSH20 0xFFFFFFFFFFFFFFFFFFFFFFFFFFFFFFFFFFFFFFFF AND MUL OR SWAP1 SSTORE POP DUP3 PUSH1 0xD PUSH1 0x0 PUSH2 0x100 EXP DUP2 SLOAD DUP2 PUSH20 0xFFFFFFFFFFFFFFFFFFFFFFFFFFFFFFFFFFFFFFFF MUL NOT AND SWAP1 DUP4 PUSH20 0xFFFFFFFFFFFFFFFFFFFFFFFFFFFFFFFFFFFFFFFF AND MUL OR SWAP1 SSTORE POP DUP2 PUSH1 0xF PUSH1 0x0 PUSH2 0x100 EXP DUP2 SLOAD DUP2 PUSH20 0xFFFFFFFFFFFFFFFFFFFFFFFFFFFFFFFFFFFFFFFF MUL NOT AND SWAP1 DUP4 PUSH20 0xFFFFFFFFFFFFFFFFFFFFFFFFFFFFFFFFFFFFFFFF AND MUL OR SWAP1 SSTORE POP DUP1 PUSH1 0x0 ADD MLOAD PUSH1 0x8 SWAP1 DUP1 MLOAD SWAP1 PUSH1 0x20 ADD SWAP1 PUSH3 0x5CA SWAP3 SWAP2 SWAP1 PUSH3 0x754 JUMP JUMPDEST POP DUP1 PUSH1 0x20 ADD MLOAD PUSH1 0x9 SWAP1 DUP1 MLOAD SWAP1 PUSH1 0x20 ADD SWAP1 PUSH3 0x5E7 SWAP3 SWAP2 SWAP1 PUSH3 0x754 JUMP JUMPDEST POP DUP1 PUSH1 0x40 ADD MLOAD PUSH1 0xA SWAP1 DUP1 MLOAD SWAP1 PUSH1 0x20 ADD SWAP1 PUSH3 0x604 SWAP3 SWAP2 SWAP1 PUSH3 0x754 JUMP JUMPDEST POP CALLER PUSH1 0x3 PUSH1 0x0 PUSH2 0x100 EXP DUP2 SLOAD DUP2 PUSH20 0xFFFFFFFFFFFFFFFFFFFFFFFFFFFFFFFFFFFFFFFF MUL NOT AND SWAP1 DUP4 PUSH20 0xFFFFFFFFFFFFFFFFFFFFFFFFFFFFFFFFFFFFFFFF AND MUL OR SWAP1 SSTORE POP POP POP POP POP POP POP POP POP POP POP POP PUSH3 0xC20 JUMP JUMPDEST PUSH1 0x1 PUSH1 0x0 PUSH2 0x100 EXP DUP2 SLOAD SWAP1 PUSH20 0xFFFFFFFFFFFFFFFFFFFFFFFFFFFFFFFFFFFFFFFF MUL NOT AND SWAP1 SSTORE PUSH3 0x68D DUP2 PUSH3 0x690 PUSH1 0x20 SHL PUSH1 0x20 SHR JUMP JUMPDEST POP JUMP JUMPDEST PUSH1 0x0 DUP1 PUSH1 0x0 SWAP1 SLOAD SWAP1 PUSH2 0x100 EXP SWAP1 DIV PUSH20 0xFFFFFFFFFFFFFFFFFFFFFFFFFFFFFFFFFFFFFFFF AND SWAP1 POP DUP2 PUSH1 0x0 DUP1 PUSH2 0x100 EXP DUP2 SLOAD DUP2 PUSH20 0xFFFFFFFFFFFFFFFFFFFFFFFFFFFFFFFFFFFFFFFF MUL NOT AND SWAP1 DUP4 PUSH20 0xFFFFFFFFFFFFFFFFFFFFFFFFFFFFFFFFFFFFFFFF AND MUL OR SWAP1 SSTORE POP DUP2 PUSH20 0xFFFFFFFFFFFFFFFFFFFFFFFFFFFFFFFFFFFFFFFF AND DUP2 PUSH20 0xFFFFFFFFFFFFFFFFFFFFFFFFFFFFFFFFFFFFFFFF AND PUSH32 0x8BE0079C531659141344CD1FD0A4F28419497F9722A3DAAFE3B4186F6B6457E0 PUSH1 0x40 MLOAD PUSH1 0x40 MLOAD DUP1 SWAP2 SUB SWAP1 LOG3 POP POP JUMP JUMPDEST DUP3 DUP1 SLOAD DUP3 DUP3 SSTORE SWAP1 PUSH1 0x0 MSTORE PUSH1 0x20 PUSH1 0x0 KECCAK256 SWAP1 DUP2 ADD SWAP3 DUP3 ISZERO PUSH3 0x7D0 JUMPI SWAP2 PUSH1 0x20 MUL DUP3 ADD JUMPDEST DUP3 DUP2 GT ISZERO PUSH3 0x7CF JUMPI DUP3 MLOAD DUP3 PUSH1 0x0 PUSH2 0x100 EXP DUP2 SLOAD DUP2 PUSH20 0xFFFFFFFFFFFFFFFFFFFFFFFFFFFFFFFFFFFFFFFF MUL NOT AND SWAP1 DUP4 PUSH20 0xFFFFFFFFFFFFFFFFFFFFFFFFFFFFFFFFFFFFFFFF AND MUL OR SWAP1 SSTORE POP SWAP2 PUSH1 0x20 ADD SWAP2 SWAP1 PUSH1 0x1 ADD SWAP1 PUSH3 0x775 JUMP JUMPDEST JUMPDEST POP SWAP1 POP PUSH3 0x7DF SWAP2 SWAP1 PUSH3 0x7E3 JUMP JUMPDEST POP SWAP1 JUMP JUMPDEST JUMPDEST DUP1 DUP3 GT ISZERO PUSH3 0x7FE JUMPI PUSH1 0x0 DUP2 PUSH1 0x0 SWAP1 SSTORE POP PUSH1 0x1 ADD PUSH3 0x7E4 JUMP JUMPDEST POP SWAP1 JUMP JUMPDEST PUSH1 0x0 PUSH1 0x40 MLOAD SWAP1 POP SWAP1 JUMP JUMPDEST PUSH1 0x0 DUP1 REVERT JUMPDEST PUSH1 0x0 DUP1 REVERT JUMPDEST PUSH1 0x0 PUSH20 0xFFFFFFFFFFFFFFFFFFFFFFFFFFFFFFFFFFFFFFFF DUP3 AND SWAP1 POP SWAP2 SWAP1 POP JUMP JUMPDEST PUSH1 0x0 PUSH3 0x843 DUP3 PUSH3 0x816 JUMP JUMPDEST SWAP1 POP SWAP2 SWAP1 POP JUMP JUMPDEST PUSH3 0x855 DUP2 PUSH3 0x836 JUMP JUMPDEST DUP2 EQ PUSH3 0x861 JUMPI PUSH1 0x0 DUP1 REVERT JUMPDEST POP JUMP JUMPDEST PUSH1 0x0 DUP2 MLOAD SWAP1 POP PUSH3 0x875 DUP2 PUSH3 0x84A JUMP JUMPDEST SWAP3 SWAP2 POP POP JUMP JUMPDEST PUSH1 0x0 DUP1 REVERT JUMPDEST PUSH1 0x0 PUSH1 0x1F NOT PUSH1 0x1F DUP4 ADD AND SWAP1 POP SWAP2 SWAP1 POP JUMP JUMPDEST PUSH32 0x4E487B7100000000000000000000000000000000000000000000000000000000 PUSH1 0x0 MSTORE PUSH1 0x41 PUSH1 0x4 MSTORE PUSH1 0x24 PUSH1 0x0 REVERT JUMPDEST PUSH3 0x8CB DUP3 PUSH3 0x880 JUMP JUMPDEST DUP2 ADD DUP2 DUP2 LT PUSH8 0xFFFFFFFFFFFFFFFF DUP3 GT OR ISZERO PUSH3 0x8ED JUMPI PUSH3 0x8EC PUSH3 0x891 JUMP JUMPDEST JUMPDEST DUP1 PUSH1 0x40 MSTORE POP POP POP JUMP JUMPDEST PUSH1 0x0 PUSH3 0x902 PUSH3 0x802 JUMP JUMPDEST SWAP1 POP PUSH3 0x910 DUP3 DUP3 PUSH3 0x8C0 JUMP JUMPDEST SWAP2 SWAP1 POP JUMP JUMPDEST PUSH1 0x0 DUP1 REVERT JUMPDEST PUSH1 0x0 DUP1 REVERT JUMPDEST PUSH1 0x0 PUSH8 0xFFFFFFFFFFFFFFFF DUP3 GT ISZERO PUSH3 0x93D JUMPI PUSH3 0x93C PUSH3 0x891 JUMP JUMPDEST JUMPDEST PUSH1 0x20 DUP3 MUL SWAP1 POP PUSH1 0x20 DUP2 ADD SWAP1 POP SWAP2 SWAP1 POP JUMP JUMPDEST PUSH1 0x0 DUP1 REVERT JUMPDEST PUSH1 0x0 PUSH3 0x96A PUSH3 0x964 DUP5 PUSH3 0x91F JUMP JUMPDEST PUSH3 0x8F6 JUMP JUMPDEST SWAP1 POP DUP1 DUP4 DUP3 MSTORE PUSH1 0x20 DUP3 ADD SWAP1 POP PUSH1 0x20 DUP5 MUL DUP4 ADD DUP6 DUP2 GT ISZERO PUSH3 0x990 JUMPI PUSH3 0x98F PUSH3 0x94E JUMP JUMPDEST JUMPDEST DUP4 JUMPDEST DUP2 DUP2 LT ISZERO PUSH3 0x9BD JUMPI DUP1 PUSH3 0x9A8 DUP9 DUP3 PUSH3 0x864 JUMP JUMPDEST DUP5 MSTORE PUSH1 0x20 DUP5 ADD SWAP4 POP POP PUSH1 0x20 DUP2 ADD SWAP1 POP PUSH3 0x992 JUMP JUMPDEST POP POP POP SWAP4 SWAP3 POP POP POP JUMP JUMPDEST PUSH1 0x0 DUP3 PUSH1 0x1F DUP4 ADD SLT PUSH3 0x9DF JUMPI PUSH3 0x9DE PUSH3 0x91A JUMP JUMPDEST JUMPDEST DUP2 MLOAD PUSH3 0x9F1 DUP5 DUP3 PUSH1 0x20 DUP7 ADD PUSH3 0x953 JUMP JUMPDEST SWAP2 POP POP SWAP3 SWAP2 POP POP JUMP JUMPDEST PUSH1 0x0 PUSH1 0x60 DUP3 DUP5 SUB SLT ISZERO PUSH3 0xA13 JUMPI PUSH3 0xA12 PUSH3 0x87B JUMP JUMPDEST JUMPDEST PUSH3 0xA1F PUSH1 0x60 PUSH3 0x8F6 JUMP JUMPDEST SWAP1 POP PUSH1 0x0 DUP3 ADD MLOAD PUSH8 0xFFFFFFFFFFFFFFFF DUP2 GT ISZERO PUSH3 0xA42 JUMPI PUSH3 0xA41 PUSH3 0x915 JUMP JUMPDEST JUMPDEST PUSH3 0xA50 DUP5 DUP3 DUP6 ADD PUSH3 0x9C7 JUMP JUMPDEST PUSH1 0x0 DUP4 ADD MSTORE POP PUSH1 0x20 DUP3 ADD MLOAD PUSH8 0xFFFFFFFFFFFFFFFF DUP2 GT ISZERO PUSH3 0xA77 JUMPI PUSH3 0xA76 PUSH3 0x915 JUMP JUMPDEST JUMPDEST PUSH3 0xA85 DUP5 DUP3 DUP6 ADD PUSH3 0x9C7 JUMP JUMPDEST PUSH1 0x20 DUP4 ADD MSTORE POP PUSH1 0x40 DUP3 ADD MLOAD PUSH8 0xFFFFFFFFFFFFFFFF DUP2 GT ISZERO PUSH3 0xAAC JUMPI PUSH3 0xAAB PUSH3 0x915 JUMP JUMPDEST JUMPDEST PUSH3 0xABA DUP5 DUP3 DUP6 ADD PUSH3 0x9C7 JUMP JUMPDEST PUSH1 0x40 DUP4 ADD MSTORE POP SWAP3 SWAP2 POP POP JUMP JUMPDEST PUSH1 0x0 DUP1 PUSH1 0x0 DUP1 PUSH1 0x0 DUP1 PUSH1 0x0 DUP1 PUSH1 0x0 DUP1 PUSH1 0x0 PUSH2 0x160 DUP13 DUP15 SUB SLT ISZERO PUSH3 0xAEF JUMPI PUSH3 0xAEE PUSH3 0x80C JUMP JUMPDEST JUMPDEST PUSH1 0x0 PUSH3 0xAFF DUP15 DUP3 DUP16 ADD PUSH3 0x864 JUMP JUMPDEST SWAP12 POP POP PUSH1 0x20 PUSH3 0xB12 DUP15 DUP3 DUP16 ADD PUSH3 0x864 JUMP JUMPDEST SWAP11 POP POP PUSH1 0x40 PUSH3 0xB25 DUP15 DUP3 DUP16 ADD PUSH3 0x864 JUMP JUMPDEST SWAP10 POP POP PUSH1 0x60 PUSH3 0xB38 DUP15 DUP3 DUP16 ADD PUSH3 0x864 JUMP JUMPDEST SWAP9 POP POP PUSH1 0x80 PUSH3 0xB4B DUP15 DUP3 DUP16 ADD PUSH3 0x864 JUMP JUMPDEST SWAP8 POP POP PUSH1 0xA0 PUSH3 0xB5E DUP15 DUP3 DUP16 ADD PUSH3 0x864 JUMP JUMPDEST SWAP7 POP POP PUSH1 0xC0 PUSH3 0xB71 DUP15 DUP3 DUP16 ADD PUSH3 0x864 JUMP JUMPDEST SWAP6 POP POP PUSH1 0xE0 PUSH3 0xB84 DUP15 DUP3 DUP16 ADD PUSH3 0x864 JUMP JUMPDEST SWAP5 POP POP PUSH2 0x100 PUSH3 0xB98 DUP15 DUP3 DUP16 ADD PUSH3 0x864 JUMP JUMPDEST SWAP4 POP POP PUSH2 0x120 PUSH3 0xBAC DUP15 DUP3 DUP16 ADD PUSH3 0x864 JUMP JUMPDEST SWAP3 POP POP PUSH2 0x140 DUP13 ADD MLOAD PUSH8 0xFFFFFFFFFFFFFFFF DUP2 GT ISZERO PUSH3 0xBD1 JUMPI PUSH3 0xBD0 PUSH3 0x811 JUMP JUMPDEST JUMPDEST PUSH3 0xBDF DUP15 DUP3 DUP16 ADD PUSH3 0x9FA JUMP JUMPDEST SWAP2 POP POP SWAP3 SWAP6 SWAP9 SWAP12 POP SWAP3 SWAP6 SWAP9 SWAP12 SWAP1 SWAP4 SWAP7 SWAP10 POP JUMP JUMPDEST PUSH3 0xBFD DUP2 PUSH3 0x836 JUMP JUMPDEST DUP3 MSTORE POP POP JUMP JUMPDEST PUSH1 0x0 PUSH1 0x20 DUP3 ADD SWAP1 POP PUSH3 0xC1A PUSH1 0x0 DUP4 ADD DUP5 PUSH3 0xBF2 JUMP JUMPDEST SWAP3 SWAP2 POP POP JUMP JUMPDEST PUSH2 0x3D0C DUP1 PUSH3 0xC30 PUSH1 0x0 CODECOPY PUSH1 0x0 RETURN INVALID PUSH1 0x80 PUSH1 0x40 MSTORE CALLVALUE DUP1 ISZERO PUSH2 0x10 JUMPI PUSH1 0x0 DUP1 REVERT JUMPDEST POP PUSH1 0x4 CALLDATASIZE LT PUSH2 0x1DA JUMPI PUSH1 0x0 CALLDATALOAD PUSH1 0xE0 SHR DUP1 PUSH4 0x89F4B48D GT PUSH2 0x104 JUMPI DUP1 PUSH4 0xB754AE8A GT PUSH2 0xA2 JUMPI DUP1 PUSH4 0xE30C3978 GT PUSH2 0x71 JUMPI DUP1 PUSH4 0xE30C3978 EQ PUSH2 0x4D2 JUMPI DUP1 PUSH4 0xF2FDE38B EQ PUSH2 0x4F0 JUMPI DUP1 PUSH4 0xFD5E6DD1 EQ PUSH2 0x50C JUMPI DUP1 PUSH4 0xFD68F223 EQ PUSH2 0x53C JUMPI PUSH2 0x1DA JUMP JUMPDEST DUP1 PUSH4 0xB754AE8A EQ PUSH2 0x45C JUMPI DUP1 PUSH4 0xBFE10928 EQ PUSH2 0x47A JUMPI DUP1 PUSH4 0xD5255643 EQ PUSH2 0x498 JUMPI DUP1 PUSH4 0xE129200E EQ PUSH2 0x4B4 JUMPI PUSH2 0x1DA JUMP JUMPDEST DUP1 PUSH4 0x903BF98B GT PUSH2 0xDE JUMPI DUP1 PUSH4 0x903BF98B EQ PUSH2 0x3DB JUMPI DUP1 PUSH4 0xA1A8C312 EQ PUSH2 0x3F9 JUMPI DUP1 PUSH4 0xA9EA9DB0 EQ PUSH2 0x41D JUMPI DUP1 PUSH4 0xAED6E306 EQ PUSH2 0x440 JUMPI PUSH2 0x1DA JUMP JUMPDEST DUP1 PUSH4 0x89F4B48D EQ PUSH2 0x381 JUMPI DUP1 PUSH4 0x8AB5212B EQ PUSH2 0x39F JUMPI DUP1 PUSH4 0x8DA5CB5B EQ PUSH2 0x3BD JUMPI PUSH2 0x1DA JUMP JUMPDEST DUP1 PUSH4 0x6F4A2CD0 GT PUSH2 0x17C JUMPI DUP1 PUSH4 0x79BA5097 GT PUSH2 0x14B JUMPI DUP1 PUSH4 0x79BA5097 EQ PUSH2 0x30B JUMPI DUP1 PUSH4 0x7DA470EA EQ PUSH2 0x315 JUMPI DUP1 PUSH4 0x7DAD9115 EQ PUSH2 0x345 JUMPI DUP1 PUSH4 0x7FEC8D38 EQ PUSH2 0x363 JUMPI PUSH2 0x1DA JUMP JUMPDEST DUP1 PUSH4 0x6F4A2CD0 EQ PUSH2 0x2A9 JUMPI DUP1 PUSH4 0x70CD22AE EQ PUSH2 0x2B3 JUMPI DUP1 PUSH4 0x71080EC4 EQ PUSH2 0x2E3 JUMPI DUP1 PUSH4 0x715018A6 EQ PUSH2 0x301 JUMPI PUSH2 0x1DA JUMP JUMPDEST DUP1 PUSH4 0x2C246501 GT PUSH2 0x1B8 JUMPI DUP1 PUSH4 0x2C246501 EQ PUSH2 0x235 JUMPI DUP1 PUSH4 0x32FC2840 EQ PUSH2 0x253 JUMPI DUP1 PUSH4 0x33A2ED3B EQ PUSH2 0x26F JUMPI DUP1 PUSH4 0x50C2161B EQ PUSH2 0x28B JUMPI PUSH2 0x1DA JUMP JUMPDEST DUP1 PUSH4 0xA53C61C EQ PUSH2 0x1DF JUMPI DUP1 PUSH4 0xB699ABE EQ PUSH2 0x1FD JUMPI DUP1 PUSH4 0x15B242A1 EQ PUSH2 0x219 JUMPI JUMPDEST PUSH1 0x0 DUP1 REVERT JUMPDEST PUSH2 0x1E7 PUSH2 0x546 JUMP JUMPDEST PUSH1 0x40 MLOAD PUSH2 0x1F4 SWAP2 SWAP1 PUSH2 0x32A4 JUMP JUMPDEST PUSH1 0x40 MLOAD DUP1 SWAP2 SUB SWAP1 RETURN JUMPDEST PUSH2 0x217 PUSH1 0x4 DUP1 CALLDATASIZE SUB DUP2 ADD SWAP1 PUSH2 0x212 SWAP2 SWAP1 PUSH2 0x32FA JUMP JUMPDEST PUSH2 0x56C JUMP JUMPDEST STOP JUMPDEST PUSH2 0x233 PUSH1 0x4 DUP1 CALLDATASIZE SUB DUP2 ADD SWAP1 PUSH2 0x22E SWAP2 SWAP1 PUSH2 0x32FA JUMP JUMPDEST PUSH2 0x5E9 JUMP JUMPDEST STOP JUMPDEST PUSH2 0x23D PUSH2 0x635 JUMP JUMPDEST PUSH1 0x40 MLOAD PUSH2 0x24A SWAP2 SWAP1 PUSH2 0x32A4 JUMP JUMPDEST PUSH1 0x40 MLOAD DUP1 SWAP2 SUB SWAP1 RETURN JUMPDEST PUSH2 0x26D PUSH1 0x4 DUP1 CALLDATASIZE SUB DUP2 ADD SWAP1 PUSH2 0x268 SWAP2 SWAP1 PUSH2 0x32FA JUMP JUMPDEST PUSH2 0x65B JUMP JUMPDEST STOP JUMPDEST PUSH2 0x289 PUSH1 0x4 DUP1 CALLDATASIZE SUB DUP2 ADD SWAP1 PUSH2 0x284 SWAP2 SWAP1 PUSH2 0x32FA JUMP JUMPDEST PUSH2 0x6A7 JUMP JUMPDEST STOP JUMPDEST PUSH2 0x293 PUSH2 0x6F3 JUMP JUMPDEST PUSH1 0x40 MLOAD PUSH2 0x2A0 SWAP2 SWAP1 PUSH2 0x32A4 JUMP JUMPDEST PUSH1 0x40 MLOAD DUP1 SWAP2 SUB SWAP1 RETURN JUMPDEST PUSH2 0x2B1 PUSH2 0x719 JUMP JUMPDEST STOP JUMPDEST PUSH2 0x2CD PUSH1 0x4 DUP1 CALLDATASIZE SUB DUP2 ADD SWAP1 PUSH2 0x2C8 SWAP2 SWAP1 PUSH2 0x335D JUMP JUMPDEST PUSH2 0x221D JUMP JUMPDEST PUSH1 0x40 MLOAD PUSH2 0x2DA SWAP2 SWAP1 PUSH2 0x32A4 JUMP JUMPDEST PUSH1 0x40 MLOAD DUP1 SWAP2 SUB SWAP1 RETURN JUMPDEST PUSH2 0x2EB PUSH2 0x225C JUMP JUMPDEST PUSH1 0x40 MLOAD PUSH2 0x2F8 SWAP2 SWAP1 PUSH2 0x33A6 JUMP JUMPDEST PUSH1 0x40 MLOAD DUP1 SWAP2 SUB SWAP1 RETURN JUMPDEST PUSH2 0x309 PUSH2 0x226F JUMP JUMPDEST STOP JUMPDEST PUSH2 0x313 PUSH2 0x2283 JUMP JUMPDEST STOP JUMPDEST PUSH2 0x32F PUSH1 0x4 DUP1 CALLDATASIZE SUB DUP2 ADD SWAP1 PUSH2 0x32A SWAP2 SWAP1 PUSH2 0x335D JUMP JUMPDEST PUSH2 0x2312 JUMP JUMPDEST PUSH1 0x40 MLOAD PUSH2 0x33C SWAP2 SWAP1 PUSH2 0x32A4 JUMP JUMPDEST PUSH1 0x40 MLOAD DUP1 SWAP2 SUB SWAP1 RETURN JUMPDEST PUSH2 0x34D PUSH2 0x2351 JUMP JUMPDEST PUSH1 0x40 MLOAD PUSH2 0x35A SWAP2 SWAP1 PUSH2 0x32A4 JUMP JUMPDEST PUSH1 0x40 MLOAD DUP1 SWAP2 SUB SWAP1 RETURN JUMPDEST PUSH2 0x36B PUSH2 0x2377 JUMP JUMPDEST PUSH1 0x40 MLOAD PUSH2 0x378 SWAP2 SWAP1 PUSH2 0x32A4 JUMP JUMPDEST PUSH1 0x40 MLOAD DUP1 SWAP2 SUB SWAP1 RETURN JUMPDEST PUSH2 0x389 PUSH2 0x239D JUMP JUMPDEST PUSH1 0x40 MLOAD PUSH2 0x396 SWAP2 SWAP1 PUSH2 0x32A4 JUMP JUMPDEST PUSH1 0x40 MLOAD DUP1 SWAP2 SUB SWAP1 RETURN JUMPDEST PUSH2 0x3A7 PUSH2 0x23C3 JUMP JUMPDEST PUSH1 0x40 MLOAD PUSH2 0x3B4 SWAP2 SWAP1 PUSH2 0x32A4 JUMP JUMPDEST PUSH1 0x40 MLOAD DUP1 SWAP2 SUB SWAP1 RETURN JUMPDEST PUSH2 0x3C5 PUSH2 0x23E9 JUMP JUMPDEST PUSH1 0x40 MLOAD PUSH2 0x3D2 SWAP2 SWAP1 PUSH2 0x32A4 JUMP JUMPDEST PUSH1 0x40 MLOAD DUP1 SWAP2 SUB SWAP1 RETURN JUMPDEST PUSH2 0x3E3 PUSH2 0x2412 JUMP JUMPDEST PUSH1 0x40 MLOAD PUSH2 0x3F0 SWAP2 SWAP1 PUSH2 0x32A4 JUMP JUMPDEST PUSH1 0x40 MLOAD DUP1 SWAP2 SUB SWAP1 RETURN JUMPDEST PUSH2 0x401 PUSH2 0x2438 JUMP JUMPDEST PUSH1 0x40 MLOAD PUSH2 0x414 SWAP8 SWAP7 SWAP6 SWAP5 SWAP4 SWAP3 SWAP2 SWAP1 PUSH2 0x33C1 JUMP JUMPDEST PUSH1 0x40 MLOAD DUP1 SWAP2 SUB SWAP1 RETURN JUMPDEST PUSH2 0x425 PUSH2 0x24C3 JUMP JUMPDEST PUSH1 0x40 MLOAD PUSH2 0x437 SWAP7 SWAP6 SWAP5 SWAP4 SWAP3 SWAP2 SWAP1 PUSH2 0x3430 JUMP JUMPDEST PUSH1 0x40 MLOAD DUP1 SWAP2 SUB SWAP1 RETURN JUMPDEST PUSH2 0x45A PUSH1 0x4 DUP1 CALLDATASIZE SUB DUP2 ADD SWAP1 PUSH2 0x455 SWAP2 SWAP1 PUSH2 0x32FA JUMP JUMPDEST PUSH2 0x253B JUMP JUMPDEST STOP JUMPDEST PUSH2 0x464 PUSH2 0x2587 JUMP JUMPDEST PUSH1 0x40 MLOAD PUSH2 0x471 SWAP2 SWAP1 PUSH2 0x32A4 JUMP JUMPDEST PUSH1 0x40 MLOAD DUP1 SWAP2 SUB SWAP1 RETURN JUMPDEST PUSH2 0x482 PUSH2 0x25AD JUMP JUMPDEST PUSH1 0x40 MLOAD PUSH2 0x48F SWAP2 SWAP1 PUSH2 0x32A4 JUMP JUMPDEST PUSH1 0x40 MLOAD DUP1 SWAP2 SUB SWAP1 RETURN JUMPDEST PUSH2 0x4B2 PUSH1 0x4 DUP1 CALLDATASIZE SUB DUP2 ADD SWAP1 PUSH2 0x4AD SWAP2 SWAP1 PUSH2 0x32FA JUMP JUMPDEST PUSH2 0x25D3 JUMP JUMPDEST STOP JUMPDEST PUSH2 0x4BC PUSH2 0x261F JUMP JUMPDEST PUSH1 0x40 MLOAD PUSH2 0x4C9 SWAP2 SWAP1 PUSH2 0x32A4 JUMP JUMPDEST PUSH1 0x40 MLOAD DUP1 SWAP2 SUB SWAP1 RETURN JUMPDEST PUSH2 0x4DA PUSH2 0x2645 JUMP JUMPDEST PUSH1 0x40 MLOAD PUSH2 0x4E7 SWAP2 SWAP1 PUSH2 0x32A4 JUMP JUMPDEST PUSH1 0x40 MLOAD DUP1 SWAP2 SUB SWAP1 RETURN JUMPDEST PUSH2 0x50A PUSH1 0x4 DUP1 CALLDATASIZE SUB DUP2 ADD SWAP1 PUSH2 0x505 SWAP2 SWAP1 PUSH2 0x32FA JUMP JUMPDEST PUSH2 0x266F JUMP JUMPDEST STOP JUMPDEST PUSH2 0x526 PUSH1 0x4 DUP1 CALLDATASIZE SUB DUP2 ADD SWAP1 PUSH2 0x521 SWAP2 SWAP1 PUSH2 0x335D JUMP JUMPDEST PUSH2 0x271C JUMP JUMPDEST PUSH1 0x40 MLOAD PUSH2 0x533 SWAP2 SWAP1 PUSH2 0x32A4 JUMP JUMPDEST PUSH1 0x40 MLOAD DUP1 SWAP2 SUB SWAP1 RETURN JUMPDEST PUSH2 0x544 PUSH2 0x275B JUMP JUMPDEST STOP JUMPDEST PUSH1 0xD PUSH1 0x0 SWAP1 SLOAD SWAP1 PUSH2 0x100 EXP SWAP1 DIV PUSH20 0xFFFFFFFFFFFFFFFFFFFFFFFFFFFFFFFFFFFFFFFF AND DUP2 JUMP JUMPDEST PUSH2 0x574 PUSH2 0x2FCD JUMP JUMPDEST DUP1 PUSH20 0xFFFFFFFFFFFFFFFFFFFFFFFFFFFFFFFFFFFFFFFF AND PUSH4 0xF2FDE38B PUSH2 0x598 PUSH2 0x23E9 JUMP JUMPDEST PUSH1 0x40 MLOAD DUP3 PUSH4 0xFFFFFFFF AND PUSH1 0xE0 SHL DUP2 MSTORE PUSH1 0x4 ADD PUSH2 0x5B4 SWAP2 SWAP1 PUSH2 0x32A4 JUMP JUMPDEST PUSH1 0x0 PUSH1 0x40 MLOAD DUP1 DUP4 SUB DUP2 PUSH1 0x0 DUP8 DUP1 EXTCODESIZE ISZERO DUP1 ISZERO PUSH2 0x5CE JUMPI PUSH1 0x0 DUP1 REVERT JUMPDEST POP GAS CALL ISZERO DUP1 ISZERO PUSH2 0x5E2 JUMPI RETURNDATASIZE PUSH1 0x0 DUP1 RETURNDATACOPY RETURNDATASIZE PUSH1 0x0 REVERT JUMPDEST POP POP POP POP POP JUMP JUMPDEST PUSH2 0x5F1 PUSH2 0x2FCD JUMP JUMPDEST DUP1 PUSH1 0xC PUSH1 0x0 PUSH2 0x100 EXP DUP2 SLOAD DUP2 PUSH20 0xFFFFFFFFFFFFFFFFFFFFFFFFFFFFFFFFFFFFFFFF MUL NOT AND SWAP1 DUP4 PUSH20 0xFFFFFFFFFFFFFFFFFFFFFFFFFFFFFFFFFFFFFFFF AND MUL OR SWAP1 SSTORE POP POP JUMP JUMPDEST PUSH1 0x5 PUSH1 0x0 SWAP1 SLOAD SWAP1 PUSH2 0x100 EXP SWAP1 DIV PUSH20 0xFFFFFFFFFFFFFFFFFFFFFFFFFFFFFFFFFFFFFFFF AND DUP2 JUMP JUMPDEST PUSH2 0x663 PUSH2 0x2FCD JUMP JUMPDEST DUP1 PUSH1 0xE PUSH1 0x0 PUSH2 0x100 EXP DUP2 SLOAD DUP2 PUSH20 0xFFFFFFFFFFFFFFFFFFFFFFFFFFFFFFFFFFFFFFFF MUL NOT AND SWAP1 DUP4 PUSH20 0xFFFFFFFFFFFFFFFFFFFFFFFFFFFFFFFFFFFFFFFF AND MUL OR SWAP1 SSTORE POP POP JUMP JUMPDEST PUSH2 0x6AF PUSH2 0x2FCD JUMP JUMPDEST DUP1 PUSH1 0x3 PUSH1 0x0 PUSH2 0x100 EXP DUP2 SLOAD DUP2 PUSH20 0xFFFFFFFFFFFFFFFFFFFFFFFFFFFFFFFFFFFFFFFF MUL NOT AND SWAP1 DUP4 PUSH20 0xFFFFFFFFFFFFFFFFFFFFFFFFFFFFFFFFFFFFFFFF AND MUL OR SWAP1 SSTORE POP POP JUMP JUMPDEST PUSH1 0x4 PUSH1 0x0 SWAP1 SLOAD SWAP1 PUSH2 0x100 EXP SWAP1 DIV PUSH20 0xFFFFFFFFFFFFFFFFFFFFFFFFFFFFFFFFFFFFFFFF AND DUP2 JUMP JUMPDEST PUSH1 0x3 PUSH1 0x0 SWAP1 SLOAD SWAP1 PUSH2 0x100 EXP SWAP1 DIV PUSH20 0xFFFFFFFFFFFFFFFFFFFFFFFFFFFFFFFFFFFFFFFF AND PUSH20 0xFFFFFFFFFFFFFFFFFFFFFFFFFFFFFFFFFFFFFFFF AND CALLER PUSH20 0xFFFFFFFFFFFFFFFFFFFFFFFFFFFFFFFFFFFFFFFF AND EQ PUSH2 0x7A9 JUMPI PUSH1 0x40 MLOAD PUSH32 0x8C379A000000000000000000000000000000000000000000000000000000000 DUP2 MSTORE PUSH1 0x4 ADD PUSH2 0x7A0 SWAP1 PUSH2 0x34EE JUMP JUMPDEST PUSH1 0x40 MLOAD DUP1 SWAP2 SUB SWAP1 REVERT JUMPDEST PUSH1 0x2 PUSH1 0x0 SWAP1 SLOAD SWAP1 PUSH2 0x100 EXP SWAP1 DIV PUSH20 0xFFFFFFFFFFFFFFFFFFFFFFFFFFFFFFFFFFFFFFFF AND PUSH20 0xFFFFFFFFFFFFFFFFFFFFFFFFFFFFFFFFFFFFFFFF AND PUSH4 0xE4FC6B6D PUSH1 0x40 MLOAD DUP2 PUSH4 0xFFFFFFFF AND PUSH1 0xE0 SHL DUP2 MSTORE PUSH1 0x4 ADD PUSH1 0x0 PUSH1 0x40 MLOAD DUP1 DUP4 SUB DUP2 PUSH1 0x0 DUP8 DUP1 EXTCODESIZE ISZERO DUP1 ISZERO PUSH2 0x813 JUMPI PUSH1 0x0 DUP1 REVERT JUMPDEST POP GAS CALL ISZERO DUP1 ISZERO PUSH2 0x827 JUMPI RETURNDATASIZE PUSH1 0x0 DUP1 RETURNDATACOPY RETURNDATASIZE PUSH1 0x0 REVERT JUMPDEST POP POP POP POP PUSH2 0x833 PUSH2 0x31F4 JUMP JUMPDEST PUSH1 0x4 PUSH1 0x0 SWAP1 SLOAD SWAP1 PUSH2 0x100 EXP SWAP1 DIV PUSH20 0xFFFFFFFFFFFFFFFFFFFFFFFFFFFFFFFFFFFFFFFF AND PUSH20 0xFFFFFFFFFFFFFFFFFFFFFFFFFFFFFFFFFFFFFFFF AND PUSH4 0x70A08231 ADDRESS PUSH1 0x40 MLOAD DUP3 PUSH4 0xFFFFFFFF AND PUSH1 0xE0 SHL DUP2 MSTORE PUSH1 0x4 ADD PUSH2 0x88E SWAP2 SWAP1 PUSH2 0x32A4 JUMP JUMPDEST PUSH1 0x20 PUSH1 0x40 MLOAD DUP1 DUP4 SUB DUP2 DUP7 GAS STATICCALL ISZERO DUP1 ISZERO PUSH2 0x8AB JUMPI RETURNDATASIZE PUSH1 0x0 DUP1 RETURNDATACOPY RETURNDATASIZE PUSH1 0x0 REVERT JUMPDEST POP POP POP POP PUSH1 0x40 MLOAD RETURNDATASIZE PUSH1 0x1F NOT PUSH1 0x1F DUP3 ADD AND DUP3 ADD DUP1 PUSH1 0x40 MSTORE POP DUP2 ADD SWAP1 PUSH2 0x8CF SWAP2 SWAP1 PUSH2 0x3523 JUMP JUMPDEST DUP2 PUSH1 0x0 ADD DUP2 DUP2 MSTORE POP POP PUSH1 0x64 PUSH1 0xF PUSH1 0x14 SWAP1 SLOAD SWAP1 PUSH2 0x100 EXP SWAP1 DIV PUSH1 0xFF AND PUSH1 0xFF AND DUP3 PUSH1 0x0 ADD MLOAD PUSH2 0x8FC SWAP2 SWAP1 PUSH2 0x357F JUMP JUMPDEST PUSH2 0x906 SWAP2 SWAP1 PUSH2 0x35F0 JUMP JUMPDEST DUP2 PUSH1 0x40 ADD DUP2 DUP2 MSTORE POP POP DUP1 PUSH1 0x40 ADD MLOAD DUP2 PUSH1 0x0 ADD MLOAD PUSH2 0x923 SWAP2 SWAP1 PUSH2 0x3621 JUMP JUMPDEST DUP2 PUSH1 0x20 ADD DUP2 DUP2 MSTORE POP POP PUSH1 0x64 PUSH1 0x10 PUSH1 0x0 ADD PUSH1 0x0 SWAP1 SLOAD SWAP1 PUSH2 0x100 EXP SWAP1 DIV PUSH1 0xFF AND PUSH1 0xFF AND DUP3 PUSH1 0x20 ADD MLOAD PUSH2 0x953 SWAP2 SWAP1 PUSH2 0x357F JUMP JUMPDEST PUSH2 0x95D SWAP2 SWAP1 PUSH2 0x35F0 JUMP JUMPDEST DUP2 PUSH1 0x60 ADD MLOAD PUSH1 0x0 ADD DUP2 DUP2 MSTORE POP POP PUSH1 0x64 PUSH1 0x11 PUSH1 0x0 ADD PUSH1 0x0 SWAP1 SLOAD SWAP1 PUSH2 0x100 EXP SWAP1 DIV PUSH1 0xFF AND PUSH1 0xFF AND DUP3 PUSH1 0x40 ADD MLOAD PUSH2 0x991 SWAP2 SWAP1 PUSH2 0x357F JUMP JUMPDEST PUSH2 0x99B SWAP2 SWAP1 PUSH2 0x35F0 JUMP JUMPDEST DUP2 PUSH1 0x60 ADD MLOAD PUSH1 0x20 ADD DUP2 DUP2 MSTORE POP POP PUSH1 0x0 PUSH1 0x64 PUSH1 0x10 PUSH1 0x0 ADD PUSH1 0x1 SWAP1 SLOAD SWAP1 PUSH2 0x100 EXP SWAP1 DIV PUSH1 0xFF AND PUSH1 0xFF AND DUP4 PUSH1 0x20 ADD MLOAD PUSH2 0x9D1 SWAP2 SWAP1 PUSH2 0x357F JUMP JUMPDEST PUSH2 0x9DB SWAP2 SWAP1 PUSH2 0x35F0 JUMP JUMPDEST SWAP1 POP PUSH1 0x0 PUSH1 0x64 PUSH1 0x11 PUSH1 0x0 ADD PUSH1 0x1 SWAP1 SLOAD SWAP1 PUSH2 0x100 EXP SWAP1 DIV PUSH1 0xFF AND PUSH1 0xFF AND DUP5 PUSH1 0x40 ADD MLOAD PUSH2 0xA06 SWAP2 SWAP1 PUSH2 0x357F JUMP JUMPDEST PUSH2 0xA10 SWAP2 SWAP1 PUSH2 0x35F0 JUMP JUMPDEST SWAP1 POP PUSH1 0x2 DUP3 PUSH2 0xA1F SWAP2 SWAP1 PUSH2 0x35F0 JUMP JUMPDEST DUP4 PUSH1 0x80 ADD MLOAD PUSH1 0x0 ADD DUP2 DUP2 MSTORE POP POP PUSH1 0x2 DUP2 PUSH2 0xA39 SWAP2 SWAP1 PUSH2 0x35F0 JUMP JUMPDEST DUP4 PUSH1 0x80 ADD MLOAD PUSH1 0x20 ADD DUP2 DUP2 MSTORE POP POP DUP3 PUSH1 0x80 ADD MLOAD PUSH1 0x0 ADD MLOAD DUP3 PUSH2 0xA5A SWAP2 SWAP1 PUSH2 0x3621 JUMP JUMPDEST DUP4 PUSH1 0xA0 ADD MLOAD PUSH1 0x0 ADD DUP2 DUP2 MSTORE POP POP DUP3 PUSH1 0x80 ADD MLOAD PUSH1 0x20 ADD MLOAD DUP2 PUSH2 0xA7B SWAP2 SWAP1 PUSH2 0x3621 JUMP JUMPDEST DUP4 PUSH1 0xA0 ADD MLOAD PUSH1 0x20 ADD DUP2 DUP2 MSTORE POP POP PUSH1 0x64 PUSH1 0x10 PUSH1 0x0 ADD PUSH1 0x2 SWAP1 SLOAD SWAP1 PUSH2 0x100 EXP SWAP1 DIV PUSH1 0xFF AND PUSH1 0xFF AND DUP5 PUSH1 0x20 ADD MLOAD PUSH2 0xAAF SWAP2 SWAP1 PUSH2 0x357F JUMP JUMPDEST PUSH2 0xAB9 SWAP2 SWAP1 PUSH2 0x35F0 JUMP JUMPDEST DUP4 PUSH1 0xC0 ADD MLOAD PUSH1 0x0 ADD DUP2 DUP2 MSTORE POP POP PUSH1 0x64 PUSH1 0x11 PUSH1 0x0 ADD PUSH1 0x2 SWAP1 SLOAD SWAP1 PUSH2 0x100 EXP SWAP1 DIV PUSH1 0xFF AND PUSH1 0xFF AND DUP5 PUSH1 0x40 ADD MLOAD PUSH2 0xAED SWAP2 SWAP1 PUSH2 0x357F JUMP JUMPDEST PUSH2 0xAF7 SWAP2 SWAP1 PUSH2 0x35F0 JUMP JUMPDEST DUP4 PUSH1 0xC0 ADD MLOAD PUSH1 0x20 ADD DUP2 DUP2 MSTORE POP POP PUSH1 0x0 PUSH1 0xB PUSH1 0x0 SWAP1 SLOAD SWAP1 PUSH2 0x100 EXP SWAP1 DIV PUSH20 0xFFFFFFFFFFFFFFFFFFFFFFFFFFFFFFFFFFFFFFFF AND PUSH20 0xFFFFFFFFFFFFFFFFFFFFFFFFFFFFFFFFFFFFFFFF AND PUSH4 0x8DFA4363 DUP6 PUSH1 0x60 ADD MLOAD PUSH1 0x0 ADD MLOAD DUP7 PUSH1 0x60 ADD MLOAD PUSH1 0x20 ADD MLOAD PUSH1 0x40 MLOAD DUP4 PUSH4 0xFFFFFFFF AND PUSH1 0xE0 SHL DUP2 MSTORE PUSH1 0x4 ADD PUSH2 0xB73 SWAP3 SWAP2 SWAP1 PUSH2 0x3664 JUMP JUMPDEST PUSH2 0x240 PUSH1 0x40 MLOAD DUP1 DUP4 SUB DUP2 DUP7 GAS STATICCALL ISZERO DUP1 ISZERO PUSH2 0xB91 JUMPI RETURNDATASIZE PUSH1 0x0 DUP1 RETURNDATACOPY RETURNDATASIZE PUSH1 0x0 REVERT JUMPDEST POP POP POP POP PUSH1 0x40 MLOAD RETURNDATASIZE PUSH1 0x1F NOT PUSH1 0x1F DUP3 ADD AND DUP3 ADD DUP1 PUSH1 0x40 MSTORE POP DUP2 ADD SWAP1 PUSH2 0xBB5 SWAP2 SWAP1 PUSH2 0x3860 JUMP JUMPDEST SWAP1 POP PUSH1 0x0 PUSH1 0xC PUSH1 0x0 SWAP1 SLOAD SWAP1 PUSH2 0x100 EXP SWAP1 DIV PUSH20 0xFFFFFFFFFFFFFFFFFFFFFFFFFFFFFFFFFFFFFFFF AND PUSH20 0xFFFFFFFFFFFFFFFFFFFFFFFFFFFFFFFFFFFFFFFF AND PUSH4 0x8DFA4363 DUP7 PUSH1 0x80 ADD MLOAD PUSH1 0x0 ADD MLOAD DUP8 PUSH1 0x80 ADD MLOAD PUSH1 0x20 ADD MLOAD PUSH1 0x40 MLOAD DUP4 PUSH4 0xFFFFFFFF AND PUSH1 0xE0 SHL DUP2 MSTORE PUSH1 0x4 ADD PUSH2 0xC26 SWAP3 SWAP2 SWAP1 PUSH2 0x3664 JUMP JUMPDEST PUSH2 0x240 PUSH1 0x40 MLOAD DUP1 DUP4 SUB DUP2 DUP7 GAS STATICCALL ISZERO DUP1 ISZERO PUSH2 0xC44 JUMPI RETURNDATASIZE PUSH1 0x0 DUP1 RETURNDATACOPY RETURNDATASIZE PUSH1 0x0 REVERT JUMPDEST POP POP POP POP PUSH1 0x40 MLOAD RETURNDATASIZE PUSH1 0x1F NOT PUSH1 0x1F DUP3 ADD AND DUP3 ADD DUP1 PUSH1 0x40 MSTORE POP DUP2 ADD SWAP1 PUSH2 0xC68 SWAP2 SWAP1 PUSH2 0x3860 JUMP JUMPDEST SWAP1 POP PUSH1 0x0 PUSH1 0xE PUSH1 0x0 SWAP1 SLOAD SWAP1 PUSH2 0x100 EXP SWAP1 DIV PUSH20 0xFFFFFFFFFFFFFFFFFFFFFFFFFFFFFFFFFFFFFFFF AND PUSH20 0xFFFFFFFFFFFFFFFFFFFFFFFFFFFFFFFFFFFFFFFF AND PUSH4 0x8DFA4363 DUP8 PUSH1 0xA0 ADD MLOAD PUSH1 0x0 ADD MLOAD DUP9 PUSH1 0xA0 ADD MLOAD PUSH1 0x20 ADD MLOAD PUSH1 0x40 MLOAD DUP4 PUSH4 0xFFFFFFFF AND PUSH1 0xE0 SHL DUP2 MSTORE PUSH1 0x4 ADD PUSH2 0xCD9 SWAP3 SWAP2 SWAP1 PUSH2 0x3664 JUMP JUMPDEST PUSH2 0x240 PUSH1 0x40 MLOAD DUP1 DUP4 SUB DUP2 DUP7 GAS STATICCALL ISZERO DUP1 ISZERO PUSH2 0xCF7 JUMPI RETURNDATASIZE PUSH1 0x0 DUP1 RETURNDATACOPY RETURNDATASIZE PUSH1 0x0 REVERT JUMPDEST POP POP POP POP PUSH1 0x40 MLOAD RETURNDATASIZE PUSH1 0x1F NOT PUSH1 0x1F DUP3 ADD AND DUP3 ADD DUP1 PUSH1 0x40 MSTORE POP DUP2 ADD SWAP1 PUSH2 0xD1B SWAP2 SWAP1 PUSH2 0x3860 JUMP JUMPDEST SWAP1 POP PUSH1 0x0 DUP3 PUSH1 0x40 ADD MLOAD PUSH1 0x0 ADD MLOAD PUSH1 0x40 ADD MLOAD DUP5 PUSH1 0x40 ADD MLOAD PUSH1 0x0 ADD MLOAD PUSH1 0x40 ADD MLOAD DUP5 PUSH1 0x20 ADD MLOAD PUSH1 0x0 ADD MLOAD PUSH1 0x40 ADD MLOAD DUP7 PUSH1 0x20 ADD MLOAD PUSH1 0x0 ADD MLOAD PUSH1 0x40 ADD MLOAD DUP7 PUSH1 0x0 ADD MLOAD PUSH1 0x0 ADD MLOAD PUSH1 0x40 ADD MLOAD DUP9 PUSH1 0x0 ADD MLOAD PUSH1 0x0 ADD MLOAD PUSH1 0x40 ADD MLOAD PUSH2 0xD77 SWAP2 SWAP1 PUSH2 0x388E JUMP JUMPDEST PUSH2 0xD81 SWAP2 SWAP1 PUSH2 0x388E JUMP JUMPDEST PUSH2 0xD8B SWAP2 SWAP1 PUSH2 0x388E JUMP JUMPDEST PUSH2 0xD95 SWAP2 SWAP1 PUSH2 0x388E JUMP JUMPDEST PUSH2 0xD9F SWAP2 SWAP1 PUSH2 0x388E JUMP JUMPDEST SWAP1 POP PUSH1 0x0 DUP4 PUSH1 0x0 ADD MLOAD PUSH1 0x0 ADD MLOAD PUSH1 0x60 ADD MLOAD DUP6 PUSH1 0x0 ADD MLOAD PUSH1 0x0 ADD MLOAD PUSH1 0x60 ADD MLOAD PUSH2 0xDC7 SWAP2 SWAP1 PUSH2 0x388E JUMP JUMPDEST SWAP1 POP PUSH1 0x0 DUP5 PUSH1 0x20 ADD MLOAD PUSH1 0x0 ADD MLOAD PUSH1 0x60 ADD MLOAD DUP7 PUSH1 0x20 ADD MLOAD PUSH1 0x0 ADD MLOAD PUSH1 0x60 ADD MLOAD PUSH2 0xDEF SWAP2 SWAP1 PUSH2 0x388E JUMP JUMPDEST SWAP1 POP PUSH1 0x0 DUP6 PUSH1 0x40 ADD MLOAD PUSH1 0x0 ADD MLOAD PUSH1 0x60 ADD MLOAD DUP8 PUSH1 0x40 ADD MLOAD PUSH1 0x0 ADD MLOAD PUSH1 0x60 ADD MLOAD PUSH2 0xE17 SWAP2 SWAP1 PUSH2 0x388E JUMP JUMPDEST SWAP1 POP PUSH1 0x0 PUSH1 0xD PUSH1 0x0 SWAP1 SLOAD SWAP1 PUSH2 0x100 EXP SWAP1 DIV PUSH20 0xFFFFFFFFFFFFFFFFFFFFFFFFFFFFFFFFFFFFFFFF AND PUSH20 0xFFFFFFFFFFFFFFFFFFFFFFFFFFFFFFFFFFFFFFFF AND PUSH4 0x6CE35D3B DUP13 PUSH1 0xC0 ADD MLOAD PUSH1 0x0 ADD MLOAD DUP8 DUP15 PUSH1 0xC0 ADD MLOAD PUSH1 0x20 ADD MLOAD DUP9 DUP9 DUP9 PUSH1 0x40 MLOAD DUP8 PUSH4 0xFFFFFFFF AND PUSH1 0xE0 SHL DUP2 MSTORE PUSH1 0x4 ADD PUSH2 0xE90 SWAP7 SWAP6 SWAP5 SWAP4 SWAP3 SWAP2 SWAP1 PUSH2 0x38C2 JUMP JUMPDEST PUSH1 0x80 PUSH1 0x40 MLOAD DUP1 DUP4 SUB DUP2 DUP7 GAS STATICCALL ISZERO DUP1 ISZERO PUSH2 0xEAD JUMPI RETURNDATASIZE PUSH1 0x0 DUP1 RETURNDATACOPY RETURNDATASIZE PUSH1 0x0 REVERT JUMPDEST POP POP POP POP PUSH1 0x40 MLOAD RETURNDATASIZE PUSH1 0x1F NOT PUSH1 0x1F DUP3 ADD AND DUP3 ADD DUP1 PUSH1 0x40 MSTORE POP DUP2 ADD SWAP1 PUSH2 0xED1 SWAP2 SWAP1 PUSH2 0x399B JUMP JUMPDEST SWAP1 POP PUSH1 0x0 DUP9 PUSH1 0x0 ADD MLOAD PUSH1 0x20 ADD MLOAD GT DUP1 ISZERO PUSH2 0xEF3 JUMPI POP PUSH1 0x0 DUP9 PUSH1 0x0 ADD MLOAD PUSH1 0x40 ADD MLOAD GT JUMPDEST ISZERO PUSH2 0x104C JUMPI PUSH1 0x5 PUSH1 0x0 SWAP1 SLOAD SWAP1 PUSH2 0x100 EXP SWAP1 DIV PUSH20 0xFFFFFFFFFFFFFFFFFFFFFFFFFFFFFFFFFFFFFFFF AND PUSH20 0xFFFFFFFFFFFFFFFFFFFFFFFFFFFFFFFFFFFFFFFF AND PUSH4 0x40C10F19 ADDRESS DUP11 PUSH1 0x0 ADD MLOAD PUSH1 0x40 ADD MLOAD PUSH1 0x40 MLOAD DUP4 PUSH4 0xFFFFFFFF AND PUSH1 0xE0 SHL DUP2 MSTORE PUSH1 0x4 ADD PUSH2 0xF5D SWAP3 SWAP2 SWAP1 PUSH2 0x39C8 JUMP JUMPDEST PUSH1 0x0 PUSH1 0x40 MLOAD DUP1 DUP4 SUB DUP2 PUSH1 0x0 DUP8 DUP1 EXTCODESIZE ISZERO DUP1 ISZERO PUSH2 0xF77 JUMPI PUSH1 0x0 DUP1 REVERT JUMPDEST POP GAS CALL ISZERO DUP1 ISZERO PUSH2 0xF8B JUMPI RETURNDATASIZE PUSH1 0x0 DUP1 RETURNDATACOPY RETURNDATASIZE PUSH1 0x0 REVERT JUMPDEST POP POP POP POP PUSH1 0x8 PUSH1 0x0 DUP2 SLOAD DUP2 LT PUSH2 0xFA4 JUMPI PUSH2 0xFA3 PUSH2 0x39F1 JUMP JUMPDEST JUMPDEST SWAP1 PUSH1 0x0 MSTORE PUSH1 0x20 PUSH1 0x0 KECCAK256 ADD PUSH1 0x0 SWAP1 SLOAD SWAP1 PUSH2 0x100 EXP SWAP1 DIV PUSH20 0xFFFFFFFFFFFFFFFFFFFFFFFFFFFFFFFFFFFFFFFF AND PUSH20 0xFFFFFFFFFFFFFFFFFFFFFFFFFFFFFFFFFFFFFFFF AND PUSH4 0xDF6C39FB DUP10 PUSH1 0x0 ADD MLOAD PUSH1 0x20 ADD MLOAD DUP11 PUSH1 0x0 ADD MLOAD PUSH1 0x40 ADD MLOAD PUSH1 0x40 MLOAD DUP4 PUSH4 0xFFFFFFFF AND PUSH1 0xE0 SHL DUP2 MSTORE PUSH1 0x4 ADD PUSH2 0x1019 SWAP3 SWAP2 SWAP1 PUSH2 0x3664 JUMP JUMPDEST PUSH1 0x0 PUSH1 0x40 MLOAD DUP1 DUP4 SUB DUP2 PUSH1 0x0 DUP8 DUP1 EXTCODESIZE ISZERO DUP1 ISZERO PUSH2 0x1033 JUMPI PUSH1 0x0 DUP1 REVERT JUMPDEST POP GAS CALL ISZERO DUP1 ISZERO PUSH2 0x1047 JUMPI RETURNDATASIZE PUSH1 0x0 DUP1 RETURNDATACOPY RETURNDATASIZE PUSH1 0x0 REVERT JUMPDEST POP POP POP POP JUMPDEST PUSH1 0x0 DUP9 PUSH1 0x20 ADD MLOAD PUSH1 0x20 ADD MLOAD GT DUP1 ISZERO PUSH2 0x106C JUMPI POP PUSH1 0x0 DUP9 PUSH1 0x20 ADD MLOAD PUSH1 0x40 ADD MLOAD GT JUMPDEST ISZERO PUSH2 0x11C5 JUMPI PUSH1 0x6 PUSH1 0x0 SWAP1 SLOAD SWAP1 PUSH2 0x100 EXP SWAP1 DIV PUSH20 0xFFFFFFFFFFFFFFFFFFFFFFFFFFFFFFFFFFFFFFFF AND PUSH20 0xFFFFFFFFFFFFFFFFFFFFFFFFFFFFFFFFFFFFFFFF AND PUSH4 0x40C10F19 ADDRESS DUP11 PUSH1 0x20 ADD MLOAD PUSH1 0x40 ADD MLOAD PUSH1 0x40 MLOAD DUP4 PUSH4 0xFFFFFFFF AND PUSH1 0xE0 SHL DUP2 MSTORE PUSH1 0x4 ADD PUSH2 0x10D6 SWAP3 SWAP2 SWAP1 PUSH2 0x39C8 JUMP JUMPDEST PUSH1 0x0 PUSH1 0x40 MLOAD DUP1 DUP4 SUB DUP2 PUSH1 0x0 DUP8 DUP1 EXTCODESIZE ISZERO DUP1 ISZERO PUSH2 0x10F0 JUMPI PUSH1 0x0 DUP1 REVERT JUMPDEST POP GAS CALL ISZERO DUP1 ISZERO PUSH2 0x1104 JUMPI RETURNDATASIZE PUSH1 0x0 DUP1 RETURNDATACOPY RETURNDATASIZE PUSH1 0x0 REVERT JUMPDEST POP POP POP POP PUSH1 0x8 PUSH1 0x1 DUP2 SLOAD DUP2 LT PUSH2 0x111D JUMPI PUSH2 0x111C PUSH2 0x39F1 JUMP JUMPDEST JUMPDEST SWAP1 PUSH1 0x0 MSTORE PUSH1 0x20 PUSH1 0x0 KECCAK256 ADD PUSH1 0x0 SWAP1 SLOAD SWAP1 PUSH2 0x100 EXP SWAP1 DIV PUSH20 0xFFFFFFFFFFFFFFFFFFFFFFFFFFFFFFFFFFFFFFFF AND PUSH20 0xFFFFFFFFFFFFFFFFFFFFFFFFFFFFFFFFFFFFFFFF AND PUSH4 0xDF6C39FB DUP10 PUSH1 0x20 ADD MLOAD PUSH1 0x20 ADD MLOAD DUP11 PUSH1 0x20 ADD MLOAD PUSH1 0x40 ADD MLOAD PUSH1 0x40 MLOAD DUP4 PUSH4 0xFFFFFFFF AND PUSH1 0xE0 SHL DUP2 MSTORE PUSH1 0x4 ADD PUSH2 0x1192 SWAP3 SWAP2 SWAP1 PUSH2 0x3664 JUMP JUMPDEST PUSH1 0x0 PUSH1 0x40 MLOAD DUP1 DUP4 SUB DUP2 PUSH1 0x0 DUP8 DUP1 EXTCODESIZE ISZERO DUP1 ISZERO PUSH2 0x11AC JUMPI PUSH1 0x0 DUP1 REVERT JUMPDEST POP GAS CALL ISZERO DUP1 ISZERO PUSH2 0x11C0 JUMPI RETURNDATASIZE PUSH1 0x0 DUP1 RETURNDATACOPY RETURNDATASIZE PUSH1 0x0 REVERT JUMPDEST POP POP POP POP JUMPDEST PUSH1 0x0 DUP9 PUSH1 0x40 ADD MLOAD PUSH1 0x20 ADD MLOAD GT DUP1 ISZERO PUSH2 0x11E5 JUMPI POP PUSH1 0x0 DUP9 PUSH1 0x40 ADD MLOAD PUSH1 0x40 ADD MLOAD GT JUMPDEST ISZERO PUSH2 0x133E JUMPI PUSH1 0x7 PUSH1 0x0 SWAP1 SLOAD SWAP1 PUSH2 0x100 EXP SWAP1 DIV PUSH20 0xFFFFFFFFFFFFFFFFFFFFFFFFFFFFFFFFFFFFFFFF AND PUSH20 0xFFFFFFFFFFFFFFFFFFFFFFFFFFFFFFFFFFFFFFFF AND PUSH4 0x40C10F19 ADDRESS DUP11 PUSH1 0x40 ADD MLOAD PUSH1 0x40 ADD MLOAD PUSH1 0x40 MLOAD DUP4 PUSH4 0xFFFFFFFF AND PUSH1 0xE0 SHL DUP2 MSTORE PUSH1 0x4 ADD PUSH2 0x124F SWAP3 SWAP2 SWAP1 PUSH2 0x39C8 JUMP JUMPDEST PUSH1 0x0 PUSH1 0x40 MLOAD DUP1 DUP4 SUB DUP2 PUSH1 0x0 DUP8 DUP1 EXTCODESIZE ISZERO DUP1 ISZERO PUSH2 0x1269 JUMPI PUSH1 0x0 DUP1 REVERT JUMPDEST POP GAS CALL ISZERO DUP1 ISZERO PUSH2 0x127D JUMPI RETURNDATASIZE PUSH1 0x0 DUP1 RETURNDATACOPY RETURNDATASIZE PUSH1 0x0 REVERT JUMPDEST POP POP POP POP PUSH1 0x8 PUSH1 0x2 DUP2 SLOAD DUP2 LT PUSH2 0x1296 JUMPI PUSH2 0x1295 PUSH2 0x39F1 JUMP JUMPDEST JUMPDEST SWAP1 PUSH1 0x0 MSTORE PUSH1 0x20 PUSH1 0x0 KECCAK256 ADD PUSH1 0x0 SWAP1 SLOAD SWAP1 PUSH2 0x100 EXP SWAP1 DIV PUSH20 0xFFFFFFFFFFFFFFFFFFFFFFFFFFFFFFFFFFFFFFFF AND PUSH20 0xFFFFFFFFFFFFFFFFFFFFFFFFFFFFFFFFFFFFFFFF AND PUSH4 0xDF6C39FB DUP10 PUSH1 0x40 ADD MLOAD PUSH1 0x20 ADD MLOAD DUP11 PUSH1 0x40 ADD MLOAD PUSH1 0x40 ADD MLOAD PUSH1 0x40 MLOAD DUP4 PUSH4 0xFFFFFFFF AND PUSH1 0xE0 SHL DUP2 MSTORE PUSH1 0x4 ADD PUSH2 0x130B SWAP3 SWAP2 SWAP1 PUSH2 0x3664 JUMP JUMPDEST PUSH1 0x0 PUSH1 0x40 MLOAD DUP1 DUP4 SUB DUP2 PUSH1 0x0 DUP8 DUP1 EXTCODESIZE ISZERO DUP1 ISZERO PUSH2 0x1325 JUMPI PUSH1 0x0 DUP1 REVERT JUMPDEST POP GAS CALL ISZERO DUP1 ISZERO PUSH2 0x1339 JUMPI RETURNDATASIZE PUSH1 0x0 DUP1 RETURNDATACOPY RETURNDATASIZE PUSH1 0x0 REVERT JUMPDEST POP POP POP POP JUMPDEST PUSH1 0x0 DUP8 PUSH1 0x0 ADD MLOAD PUSH1 0x20 ADD MLOAD GT DUP1 ISZERO PUSH2 0x135E JUMPI POP PUSH1 0x0 DUP8 PUSH1 0x0 ADD MLOAD PUSH1 0x40 ADD MLOAD GT JUMPDEST ISZERO PUSH2 0x14B7 JUMPI PUSH1 0x5 PUSH1 0x0 SWAP1 SLOAD SWAP1 PUSH2 0x100 EXP SWAP1 DIV PUSH20 0xFFFFFFFFFFFFFFFFFFFFFFFFFFFFFFFFFFFFFFFF AND PUSH20 0xFFFFFFFFFFFFFFFFFFFFFFFFFFFFFFFFFFFFFFFF AND PUSH4 0x40C10F19 ADDRESS DUP10 PUSH1 0x0 ADD MLOAD PUSH1 0x40 ADD MLOAD PUSH1 0x40 MLOAD DUP4 PUSH4 0xFFFFFFFF AND PUSH1 0xE0 SHL DUP2 MSTORE PUSH1 0x4 ADD PUSH2 0x13C8 SWAP3 SWAP2 SWAP1 PUSH2 0x39C8 JUMP JUMPDEST PUSH1 0x0 PUSH1 0x40 MLOAD DUP1 DUP4 SUB DUP2 PUSH1 0x0 DUP8 DUP1 EXTCODESIZE ISZERO DUP1 ISZERO PUSH2 0x13E2 JUMPI PUSH1 0x0 DUP1 REVERT JUMPDEST POP GAS CALL ISZERO DUP1 ISZERO PUSH2 0x13F6 JUMPI RETURNDATASIZE PUSH1 0x0 DUP1 RETURNDATACOPY RETURNDATASIZE PUSH1 0x0 REVERT JUMPDEST POP POP POP POP PUSH1 0x9 PUSH1 0x0 DUP2 SLOAD DUP2 LT PUSH2 0x140F JUMPI PUSH2 0x140E PUSH2 0x39F1 JUMP JUMPDEST JUMPDEST SWAP1 PUSH1 0x0 MSTORE PUSH1 0x20 PUSH1 0x0 KECCAK256 ADD PUSH1 0x0 SWAP1 SLOAD SWAP1 PUSH2 0x100 EXP SWAP1 DIV PUSH20 0xFFFFFFFFFFFFFFFFFFFFFFFFFFFFFFFFFFFFFFFF AND PUSH20 0xFFFFFFFFFFFFFFFFFFFFFFFFFFFFFFFFFFFFFFFF AND PUSH4 0xDF6C39FB DUP9 PUSH1 0x0 ADD MLOAD PUSH1 0x20 ADD MLOAD DUP10 PUSH1 0x0 ADD MLOAD PUSH1 0x40 ADD MLOAD PUSH1 0x40 MLOAD DUP4 PUSH4 0xFFFFFFFF AND PUSH1 0xE0 SHL DUP2 MSTORE PUSH1 0x4 ADD PUSH2 0x1484 SWAP3 SWAP2 SWAP1 PUSH2 0x3664 JUMP JUMPDEST PUSH1 0x0 PUSH1 0x40 MLOAD DUP1 DUP4 SUB DUP2 PUSH1 0x0 DUP8 DUP1 EXTCODESIZE ISZERO DUP1 ISZERO PUSH2 0x149E JUMPI PUSH1 0x0 DUP1 REVERT JUMPDEST POP GAS CALL ISZERO DUP1 ISZERO PUSH2 0x14B2 JUMPI RETURNDATASIZE PUSH1 0x0 DUP1 RETURNDATACOPY RETURNDATASIZE PUSH1 0x0 REVERT JUMPDEST POP POP POP POP JUMPDEST PUSH1 0x0 DUP8 PUSH1 0x20 ADD MLOAD PUSH1 0x20 ADD MLOAD GT DUP1 ISZERO PUSH2 0x14D7 JUMPI POP PUSH1 0x0 DUP8 PUSH1 0x20 ADD MLOAD PUSH1 0x40 ADD MLOAD GT JUMPDEST ISZERO PUSH2 0x1630 JUMPI PUSH1 0x6 PUSH1 0x0 SWAP1 SLOAD SWAP1 PUSH2 0x100 EXP SWAP1 DIV PUSH20 0xFFFFFFFFFFFFFFFFFFFFFFFFFFFFFFFFFFFFFFFF AND PUSH20 0xFFFFFFFFFFFFFFFFFFFFFFFFFFFFFFFFFFFFFFFF AND PUSH4 0x40C10F19 ADDRESS DUP10 PUSH1 0x20 ADD MLOAD PUSH1 0x40 ADD MLOAD PUSH1 0x40 MLOAD DUP4 PUSH4 0xFFFFFFFF AND PUSH1 0xE0 SHL DUP2 MSTORE PUSH1 0x4 ADD PUSH2 0x1541 SWAP3 SWAP2 SWAP1 PUSH2 0x39C8 JUMP JUMPDEST PUSH1 0x0 PUSH1 0x40 MLOAD DUP1 DUP4 SUB DUP2 PUSH1 0x0 DUP8 DUP1 EXTCODESIZE ISZERO DUP1 ISZERO PUSH2 0x155B JUMPI PUSH1 0x0 DUP1 REVERT JUMPDEST POP GAS CALL ISZERO DUP1 ISZERO PUSH2 0x156F JUMPI RETURNDATASIZE PUSH1 0x0 DUP1 RETURNDATACOPY RETURNDATASIZE PUSH1 0x0 REVERT JUMPDEST POP POP POP POP PUSH1 0x9 PUSH1 0x1 DUP2 SLOAD DUP2 LT PUSH2 0x1588 JUMPI PUSH2 0x1587 PUSH2 0x39F1 JUMP JUMPDEST JUMPDEST SWAP1 PUSH1 0x0 MSTORE PUSH1 0x20 PUSH1 0x0 KECCAK256 ADD PUSH1 0x0 SWAP1 SLOAD SWAP1 PUSH2 0x100 EXP SWAP1 DIV PUSH20 0xFFFFFFFFFFFFFFFFFFFFFFFFFFFFFFFFFFFFFFFF AND PUSH20 0xFFFFFFFFFFFFFFFFFFFFFFFFFFFFFFFFFFFFFFFF AND PUSH4 0xDF6C39FB DUP9 PUSH1 0x20 ADD MLOAD PUSH1 0x20 ADD MLOAD DUP10 PUSH1 0x20 ADD MLOAD PUSH1 0x40 ADD MLOAD PUSH1 0x40 MLOAD DUP4 PUSH4 0xFFFFFFFF AND PUSH1 0xE0 SHL DUP2 MSTORE PUSH1 0x4 ADD PUSH2 0x15FD SWAP3 SWAP2 SWAP1 PUSH2 0x3664 JUMP JUMPDEST PUSH1 0x0 PUSH1 0x40 MLOAD DUP1 DUP4 SUB DUP2 PUSH1 0x0 DUP8 DUP1 EXTCODESIZE ISZERO DUP1 ISZERO PUSH2 0x1617 JUMPI PUSH1 0x0 DUP1 REVERT JUMPDEST POP GAS CALL ISZERO DUP1 ISZERO PUSH2 0x162B JUMPI RETURNDATASIZE PUSH1 0x0 DUP1 RETURNDATACOPY RETURNDATASIZE PUSH1 0x0 REVERT JUMPDEST POP POP POP POP JUMPDEST PUSH1 0x0 DUP8 PUSH1 0x40 ADD MLOAD PUSH1 0x20 ADD MLOAD GT DUP1 ISZERO PUSH2 0x1650 JUMPI POP PUSH1 0x0 DUP8 PUSH1 0x40 ADD MLOAD PUSH1 0x40 ADD MLOAD GT JUMPDEST ISZERO PUSH2 0x17A9 JUMPI PUSH1 0x7 PUSH1 0x0 SWAP1 SLOAD SWAP1 PUSH2 0x100 EXP SWAP1 DIV PUSH20 0xFFFFFFFFFFFFFFFFFFFFFFFFFFFFFFFFFFFFFFFF AND PUSH20 0xFFFFFFFFFFFFFFFFFFFFFFFFFFFFFFFFFFFFFFFF AND PUSH4 0x40C10F19 ADDRESS DUP10 PUSH1 0x40 ADD MLOAD PUSH1 0x40 ADD MLOAD PUSH1 0x40 MLOAD DUP4 PUSH4 0xFFFFFFFF AND PUSH1 0xE0 SHL DUP2 MSTORE PUSH1 0x4 ADD PUSH2 0x16BA SWAP3 SWAP2 SWAP1 PUSH2 0x39C8 JUMP JUMPDEST PUSH1 0x0 PUSH1 0x40 MLOAD DUP1 DUP4 SUB DUP2 PUSH1 0x0 DUP8 DUP1 EXTCODESIZE ISZERO DUP1 ISZERO PUSH2 0x16D4 JUMPI PUSH1 0x0 DUP1 REVERT JUMPDEST POP GAS CALL ISZERO DUP1 ISZERO PUSH2 0x16E8 JUMPI RETURNDATASIZE PUSH1 0x0 DUP1 RETURNDATACOPY RETURNDATASIZE PUSH1 0x0 REVERT JUMPDEST POP POP POP POP PUSH1 0x9 PUSH1 0x2 DUP2 SLOAD DUP2 LT PUSH2 0x1701 JUMPI PUSH2 0x1700 PUSH2 0x39F1 JUMP JUMPDEST JUMPDEST SWAP1 PUSH1 0x0 MSTORE PUSH1 0x20 PUSH1 0x0 KECCAK256 ADD PUSH1 0x0 SWAP1 SLOAD SWAP1 PUSH2 0x100 EXP SWAP1 DIV PUSH20 0xFFFFFFFFFFFFFFFFFFFFFFFFFFFFFFFFFFFFFFFF AND PUSH20 0xFFFFFFFFFFFFFFFFFFFFFFFFFFFFFFFFFFFFFFFF AND PUSH4 0xDF6C39FB DUP9 PUSH1 0x40 ADD MLOAD PUSH1 0x20 ADD MLOAD DUP10 PUSH1 0x40 ADD MLOAD PUSH1 0x40 ADD MLOAD PUSH1 0x40 MLOAD DUP4 PUSH4 0xFFFFFFFF AND PUSH1 0xE0 SHL DUP2 MSTORE PUSH1 0x4 ADD PUSH2 0x1776 SWAP3 SWAP2 SWAP1 PUSH2 0x3664 JUMP JUMPDEST PUSH1 0x0 PUSH1 0x40 MLOAD DUP1 DUP4 SUB DUP2 PUSH1 0x0 DUP8 DUP1 EXTCODESIZE ISZERO DUP1 ISZERO PUSH2 0x1790 JUMPI PUSH1 0x0 DUP1 REVERT JUMPDEST POP GAS CALL ISZERO DUP1 ISZERO PUSH2 0x17A4 JUMPI RETURNDATASIZE PUSH1 0x0 DUP1 RETURNDATACOPY RETURNDATASIZE PUSH1 0x0 REVERT JUMPDEST POP POP POP POP JUMPDEST PUSH1 0x0 DUP7 PUSH1 0x0 ADD MLOAD PUSH1 0x20 ADD MLOAD GT DUP1 ISZERO PUSH2 0x17C9 JUMPI POP PUSH1 0x0 DUP7 PUSH1 0x0 ADD MLOAD PUSH1 0x40 ADD MLOAD GT JUMPDEST ISZERO PUSH2 0x1922 JUMPI PUSH1 0x5 PUSH1 0x0 SWAP1 SLOAD SWAP1 PUSH2 0x100 EXP SWAP1 DIV PUSH20 0xFFFFFFFFFFFFFFFFFFFFFFFFFFFFFFFFFFFFFFFF AND PUSH20 0xFFFFFFFFFFFFFFFFFFFFFFFFFFFFFFFFFFFFFFFF AND PUSH4 0x40C10F19 ADDRESS DUP9 PUSH1 0x0 ADD MLOAD PUSH1 0x40 ADD MLOAD PUSH1 0x40 MLOAD DUP4 PUSH4 0xFFFFFFFF AND PUSH1 0xE0 SHL DUP2 MSTORE PUSH1 0x4 ADD PUSH2 0x1833 SWAP3 SWAP2 SWAP1 PUSH2 0x39C8 JUMP JUMPDEST PUSH1 0x0 PUSH1 0x40 MLOAD DUP1 DUP4 SUB DUP2 PUSH1 0x0 DUP8 DUP1 EXTCODESIZE ISZERO DUP1 ISZERO PUSH2 0x184D JUMPI PUSH1 0x0 DUP1 REVERT JUMPDEST POP GAS CALL ISZERO DUP1 ISZERO PUSH2 0x1861 JUMPI RETURNDATASIZE PUSH1 0x0 DUP1 RETURNDATACOPY RETURNDATASIZE PUSH1 0x0 REVERT JUMPDEST POP POP POP POP PUSH1 0xA PUSH1 0x0 DUP2 SLOAD DUP2 LT PUSH2 0x187A JUMPI PUSH2 0x1879 PUSH2 0x39F1 JUMP JUMPDEST JUMPDEST SWAP1 PUSH1 0x0 MSTORE PUSH1 0x20 PUSH1 0x0 KECCAK256 ADD PUSH1 0x0 SWAP1 SLOAD SWAP1 PUSH2 0x100 EXP SWAP1 DIV PUSH20 0xFFFFFFFFFFFFFFFFFFFFFFFFFFFFFFFFFFFFFFFF AND PUSH20 0xFFFFFFFFFFFFFFFFFFFFFFFFFFFFFFFFFFFFFFFF AND PUSH4 0xDF6C39FB DUP8 PUSH1 0x0 ADD MLOAD PUSH1 0x20 ADD MLOAD DUP9 PUSH1 0x0 ADD MLOAD PUSH1 0x40 ADD MLOAD PUSH1 0x40 MLOAD DUP4 PUSH4 0xFFFFFFFF AND PUSH1 0xE0 SHL DUP2 MSTORE PUSH1 0x4 ADD PUSH2 0x18EF SWAP3 SWAP2 SWAP1 PUSH2 0x3664 JUMP JUMPDEST PUSH1 0x0 PUSH1 0x40 MLOAD DUP1 DUP4 SUB DUP2 PUSH1 0x0 DUP8 DUP1 EXTCODESIZE ISZERO DUP1 ISZERO PUSH2 0x1909 JUMPI PUSH1 0x0 DUP1 REVERT JUMPDEST POP GAS CALL ISZERO DUP1 ISZERO PUSH2 0x191D JUMPI RETURNDATASIZE PUSH1 0x0 DUP1 RETURNDATACOPY RETURNDATASIZE PUSH1 0x0 REVERT JUMPDEST POP POP POP POP JUMPDEST PUSH1 0x0 DUP7 PUSH1 0x20 ADD MLOAD PUSH1 0x20 ADD MLOAD GT DUP1 ISZERO PUSH2 0x1942 JUMPI POP PUSH1 0x0 DUP7 PUSH1 0x20 ADD MLOAD PUSH1 0x40 ADD MLOAD GT JUMPDEST ISZERO PUSH2 0x1A9B JUMPI PUSH1 0x6 PUSH1 0x0 SWAP1 SLOAD SWAP1 PUSH2 0x100 EXP SWAP1 DIV PUSH20 0xFFFFFFFFFFFFFFFFFFFFFFFFFFFFFFFFFFFFFFFF AND PUSH20 0xFFFFFFFFFFFFFFFFFFFFFFFFFFFFFFFFFFFFFFFF AND PUSH4 0x40C10F19 ADDRESS DUP9 PUSH1 0x20 ADD MLOAD PUSH1 0x40 ADD MLOAD PUSH1 0x40 MLOAD DUP4 PUSH4 0xFFFFFFFF AND PUSH1 0xE0 SHL DUP2 MSTORE PUSH1 0x4 ADD PUSH2 0x19AC SWAP3 SWAP2 SWAP1 PUSH2 0x39C8 JUMP JUMPDEST PUSH1 0x0 PUSH1 0x40 MLOAD DUP1 DUP4 SUB DUP2 PUSH1 0x0 DUP8 DUP1 EXTCODESIZE ISZERO DUP1 ISZERO PUSH2 0x19C6 JUMPI PUSH1 0x0 DUP1 REVERT JUMPDEST POP GAS CALL ISZERO DUP1 ISZERO PUSH2 0x19DA JUMPI RETURNDATASIZE PUSH1 0x0 DUP1 RETURNDATACOPY RETURNDATASIZE PUSH1 0x0 REVERT JUMPDEST POP POP POP POP PUSH1 0xA PUSH1 0x1 DUP2 SLOAD DUP2 LT PUSH2 0x19F3 JUMPI PUSH2 0x19F2 PUSH2 0x39F1 JUMP JUMPDEST JUMPDEST SWAP1 PUSH1 0x0 MSTORE PUSH1 0x20 PUSH1 0x0 KECCAK256 ADD PUSH1 0x0 SWAP1 SLOAD SWAP1 PUSH2 0x100 EXP SWAP1 DIV PUSH20 0xFFFFFFFFFFFFFFFFFFFFFFFFFFFFFFFFFFFFFFFF AND PUSH20 0xFFFFFFFFFFFFFFFFFFFFFFFFFFFFFFFFFFFFFFFF AND PUSH4 0xDF6C39FB DUP8 PUSH1 0x20 ADD MLOAD PUSH1 0x20 ADD MLOAD DUP9 PUSH1 0x20 ADD MLOAD PUSH1 0x40 ADD MLOAD PUSH1 0x40 MLOAD DUP4 PUSH4 0xFFFFFFFF AND PUSH1 0xE0 SHL DUP2 MSTORE PUSH1 0x4 ADD PUSH2 0x1A68 SWAP3 SWAP2 SWAP1 PUSH2 0x3664 JUMP JUMPDEST PUSH1 0x0 PUSH1 0x40 MLOAD DUP1 DUP4 SUB DUP2 PUSH1 0x0 DUP8 DUP1 EXTCODESIZE ISZERO DUP1 ISZERO PUSH2 0x1A82 JUMPI PUSH1 0x0 DUP1 REVERT JUMPDEST POP GAS CALL ISZERO DUP1 ISZERO PUSH2 0x1A96 JUMPI RETURNDATASIZE PUSH1 0x0 DUP1 RETURNDATACOPY RETURNDATASIZE PUSH1 0x0 REVERT JUMPDEST POP POP POP POP JUMPDEST PUSH1 0x0 DUP7 PUSH1 0x40 ADD MLOAD PUSH1 0x20 ADD MLOAD GT DUP1 ISZERO PUSH2 0x1ABB JUMPI POP PUSH1 0x0 DUP7 PUSH1 0x40 ADD MLOAD PUSH1 0x40 ADD MLOAD GT JUMPDEST ISZERO PUSH2 0x1C14 JUMPI PUSH1 0x7 PUSH1 0x0 SWAP1 SLOAD SWAP1 PUSH2 0x100 EXP SWAP1 DIV PUSH20 0xFFFFFFFFFFFFFFFFFFFFFFFFFFFFFFFFFFFFFFFF AND PUSH20 0xFFFFFFFFFFFFFFFFFFFFFFFFFFFFFFFFFFFFFFFF AND PUSH4 0x40C10F19 ADDRESS DUP9 PUSH1 0x40 ADD MLOAD PUSH1 0x40 ADD MLOAD PUSH1 0x40 MLOAD DUP4 PUSH4 0xFFFFFFFF AND PUSH1 0xE0 SHL DUP2 MSTORE PUSH1 0x4 ADD PUSH2 0x1B25 SWAP3 SWAP2 SWAP1 PUSH2 0x39C8 JUMP JUMPDEST PUSH1 0x0 PUSH1 0x40 MLOAD DUP1 DUP4 SUB DUP2 PUSH1 0x0 DUP8 DUP1 EXTCODESIZE ISZERO DUP1 ISZERO PUSH2 0x1B3F JUMPI PUSH1 0x0 DUP1 REVERT JUMPDEST POP GAS CALL ISZERO DUP1 ISZERO PUSH2 0x1B53 JUMPI RETURNDATASIZE PUSH1 0x0 DUP1 RETURNDATACOPY RETURNDATASIZE PUSH1 0x0 REVERT JUMPDEST POP POP POP POP PUSH1 0xA PUSH1 0x2 DUP2 SLOAD DUP2 LT PUSH2 0x1B6C JUMPI PUSH2 0x1B6B PUSH2 0x39F1 JUMP JUMPDEST JUMPDEST SWAP1 PUSH1 0x0 MSTORE PUSH1 0x20 PUSH1 0x0 KECCAK256 ADD PUSH1 0x0 SWAP1 SLOAD SWAP1 PUSH2 0x100 EXP SWAP1 DIV PUSH20 0xFFFFFFFFFFFFFFFFFFFFFFFFFFFFFFFFFFFFFFFF AND PUSH20 0xFFFFFFFFFFFFFFFFFFFFFFFFFFFFFFFFFFFFFFFF AND PUSH4 0xDF6C39FB DUP8 PUSH1 0x40 ADD MLOAD PUSH1 0x20 ADD MLOAD DUP9 PUSH1 0x40 ADD MLOAD PUSH1 0x40 ADD MLOAD PUSH1 0x40 MLOAD DUP4 PUSH4 0xFFFFFFFF AND PUSH1 0xE0 SHL DUP2 MSTORE PUSH1 0x4 ADD PUSH2 0x1BE1 SWAP3 SWAP2 SWAP1 PUSH2 0x3664 JUMP JUMPDEST PUSH1 0x0 PUSH1 0x40 MLOAD DUP1 DUP4 SUB DUP2 PUSH1 0x0 DUP8 DUP1 EXTCODESIZE ISZERO DUP1 ISZERO PUSH2 0x1BFB JUMPI PUSH1 0x0 DUP1 REVERT JUMPDEST POP GAS CALL ISZERO DUP1 ISZERO PUSH2 0x1C0F JUMPI RETURNDATASIZE PUSH1 0x0 DUP1 RETURNDATACOPY RETURNDATASIZE PUSH1 0x0 REVERT JUMPDEST POP POP POP POP JUMPDEST PUSH1 0x4 PUSH1 0x0 SWAP1 SLOAD SWAP1 PUSH2 0x100 EXP SWAP1 DIV PUSH20 0xFFFFFFFFFFFFFFFFFFFFFFFFFFFFFFFFFFFFFFFF AND PUSH20 0xFFFFFFFFFFFFFFFFFFFFFFFFFFFFFFFFFFFFFFFF AND PUSH4 0xA9059CBB PUSH1 0xF PUSH1 0x0 SWAP1 SLOAD SWAP1 PUSH2 0x100 EXP SWAP1 DIV PUSH20 0xFFFFFFFFFFFFFFFFFFFFFFFFFFFFFFFFFFFFFFFF AND DUP4 PUSH1 0x0 ADD MLOAD PUSH1 0x40 MLOAD DUP4 PUSH4 0xFFFFFFFF AND PUSH1 0xE0 SHL DUP2 MSTORE PUSH1 0x4 ADD PUSH2 0x1C97 SWAP3 SWAP2 SWAP1 PUSH2 0x39C8 JUMP JUMPDEST PUSH1 0x20 PUSH1 0x40 MLOAD DUP1 DUP4 SUB DUP2 PUSH1 0x0 DUP8 GAS CALL ISZERO DUP1 ISZERO PUSH2 0x1CB6 JUMPI RETURNDATASIZE PUSH1 0x0 DUP1 RETURNDATACOPY RETURNDATASIZE PUSH1 0x0 REVERT JUMPDEST POP POP POP POP PUSH1 0x40 MLOAD RETURNDATASIZE PUSH1 0x1F NOT PUSH1 0x1F DUP3 ADD AND DUP3 ADD DUP1 PUSH1 0x40 MSTORE POP DUP2 ADD SWAP1 PUSH2 0x1CDA SWAP2 SWAP1 PUSH2 0x3A58 JUMP JUMPDEST POP PUSH1 0x5 PUSH1 0x0 SWAP1 SLOAD SWAP1 PUSH2 0x100 EXP SWAP1 DIV PUSH20 0xFFFFFFFFFFFFFFFFFFFFFFFFFFFFFFFFFFFFFFFF AND PUSH20 0xFFFFFFFFFFFFFFFFFFFFFFFFFFFFFFFFFFFFFFFF AND PUSH4 0x40C10F19 PUSH1 0xF PUSH1 0x0 SWAP1 SLOAD SWAP1 PUSH2 0x100 EXP SWAP1 DIV PUSH20 0xFFFFFFFFFFFFFFFFFFFFFFFFFFFFFFFFFFFFFFFF AND DUP4 PUSH1 0x20 ADD MLOAD PUSH1 0x40 MLOAD DUP4 PUSH4 0xFFFFFFFF AND PUSH1 0xE0 SHL DUP2 MSTORE PUSH1 0x4 ADD PUSH2 0x1D5E SWAP3 SWAP2 SWAP1 PUSH2 0x39C8 JUMP JUMPDEST PUSH1 0x0 PUSH1 0x40 MLOAD DUP1 DUP4 SUB DUP2 PUSH1 0x0 DUP8 DUP1 EXTCODESIZE ISZERO DUP1 ISZERO PUSH2 0x1D78 JUMPI PUSH1 0x0 DUP1 REVERT JUMPDEST POP GAS CALL ISZERO DUP1 ISZERO PUSH2 0x1D8C JUMPI RETURNDATASIZE PUSH1 0x0 DUP1 RETURNDATACOPY RETURNDATASIZE PUSH1 0x0 REVERT JUMPDEST POP POP POP POP PUSH1 0x6 PUSH1 0x0 SWAP1 SLOAD SWAP1 PUSH2 0x100 EXP SWAP1 DIV PUSH20 0xFFFFFFFFFFFFFFFFFFFFFFFFFFFFFFFFFFFFFFFF AND PUSH20 0xFFFFFFFFFFFFFFFFFFFFFFFFFFFFFFFFFFFFFFFF AND PUSH4 0x40C10F19 PUSH1 0xF PUSH1 0x0 SWAP1 SLOAD SWAP1 PUSH2 0x100 EXP SWAP1 DIV PUSH20 0xFFFFFFFFFFFFFFFFFFFFFFFFFFFFFFFFFFFFFFFF AND DUP4 PUSH1 0x40 ADD MLOAD PUSH1 0x40 MLOAD DUP4 PUSH4 0xFFFFFFFF AND PUSH1 0xE0 SHL DUP2 MSTORE PUSH1 0x4 ADD PUSH2 0x1E13 SWAP3 SWAP2 SWAP1 PUSH2 0x39C8 JUMP JUMPDEST PUSH1 0x0 PUSH1 0x40 MLOAD DUP1 DUP4 SUB DUP2 PUSH1 0x0 DUP8 DUP1 EXTCODESIZE ISZERO DUP1 ISZERO PUSH2 0x1E2D JUMPI PUSH1 0x0 DUP1 REVERT JUMPDEST POP GAS CALL ISZERO DUP1 ISZERO PUSH2 0x1E41 JUMPI RETURNDATASIZE PUSH1 0x0 DUP1 RETURNDATACOPY RETURNDATASIZE PUSH1 0x0 REVERT JUMPDEST POP POP POP POP PUSH1 0x7 PUSH1 0x0 SWAP1 SLOAD SWAP1 PUSH2 0x100 EXP SWAP1 DIV PUSH20 0xFFFFFFFFFFFFFFFFFFFFFFFFFFFFFFFFFFFFFFFF AND PUSH20 0xFFFFFFFFFFFFFFFFFFFFFFFFFFFFFFFFFFFFFFFF AND PUSH4 0x40C10F19 PUSH1 0xF PUSH1 0x0 SWAP1 SLOAD SWAP1 PUSH2 0x100 EXP SWAP1 DIV PUSH20 0xFFFFFFFFFFFFFFFFFFFFFFFFFFFFFFFFFFFFFFFF AND DUP4 PUSH1 0x60 ADD MLOAD PUSH1 0x40 MLOAD DUP4 PUSH4 0xFFFFFFFF AND PUSH1 0xE0 SHL DUP2 MSTORE PUSH1 0x4 ADD PUSH2 0x1EC8 SWAP3 SWAP2 SWAP1 PUSH2 0x39C8 JUMP JUMPDEST PUSH1 0x0 PUSH1 0x40 MLOAD DUP1 DUP4 SUB DUP2 PUSH1 0x0 DUP8 DUP1 EXTCODESIZE ISZERO DUP1 ISZERO PUSH2 0x1EE2 JUMPI PUSH1 0x0 DUP1 REVERT JUMPDEST POP GAS CALL ISZERO DUP1 ISZERO PUSH2 0x1EF6 JUMPI RETURNDATASIZE PUSH1 0x0 DUP1 RETURNDATACOPY RETURNDATASIZE PUSH1 0x0 REVERT JUMPDEST POP POP POP POP PUSH1 0x0 PUSH1 0x4 PUSH1 0x0 SWAP1 SLOAD SWAP1 PUSH2 0x100 EXP SWAP1 DIV PUSH20 0xFFFFFFFFFFFFFFFFFFFFFFFFFFFFFFFFFFFFFFFF AND PUSH20 0xFFFFFFFFFFFFFFFFFFFFFFFFFFFFFFFFFFFFFFFF AND PUSH4 0x70A08231 ADDRESS PUSH1 0x40 MLOAD DUP3 PUSH4 0xFFFFFFFF AND PUSH1 0xE0 SHL DUP2 MSTORE PUSH1 0x4 ADD PUSH2 0x1F57 SWAP2 SWAP1 PUSH2 0x32A4 JUMP JUMPDEST PUSH1 0x20 PUSH1 0x40 MLOAD DUP1 DUP4 SUB DUP2 DUP7 GAS STATICCALL ISZERO DUP1 ISZERO PUSH2 0x1F74 JUMPI RETURNDATASIZE PUSH1 0x0 DUP1 RETURNDATACOPY RETURNDATASIZE PUSH1 0x0 REVERT JUMPDEST POP POP POP POP PUSH1 0x40 MLOAD RETURNDATASIZE PUSH1 0x1F NOT PUSH1 0x1F DUP3 ADD AND DUP3 ADD DUP1 PUSH1 0x40 MSTORE POP DUP2 ADD SWAP1 PUSH2 0x1F98 SWAP2 SWAP1 PUSH2 0x3523 JUMP JUMPDEST GT ISZERO PUSH2 0x20FD JUMPI PUSH1 0x4 PUSH1 0x0 SWAP1 SLOAD SWAP1 PUSH2 0x100 EXP SWAP1 DIV PUSH20 0xFFFFFFFFFFFFFFFFFFFFFFFFFFFFFFFFFFFFFFFF AND PUSH20 0xFFFFFFFFFFFFFFFFFFFFFFFFFFFFFFFFFFFFFFFF AND PUSH4 0xA9059CBB PUSH1 0x2 PUSH1 0x0 SWAP1 SLOAD SWAP1 PUSH2 0x100 EXP SWAP1 DIV PUSH20 0xFFFFFFFFFFFFFFFFFFFFFFFFFFFFFFFFFFFFFFFF AND PUSH1 0x4 PUSH1 0x0 SWAP1 SLOAD SWAP1 PUSH2 0x100 EXP SWAP1 DIV PUSH20 0xFFFFFFFFFFFFFFFFFFFFFFFFFFFFFFFFFFFFFFFF AND PUSH20 0xFFFFFFFFFFFFFFFFFFFFFFFFFFFFFFFFFFFFFFFF AND PUSH4 0x70A08231 ADDRESS PUSH1 0x40 MLOAD DUP3 PUSH4 0xFFFFFFFF AND PUSH1 0xE0 SHL DUP2 MSTORE PUSH1 0x4 ADD PUSH2 0x205A SWAP2 SWAP1 PUSH2 0x32A4 JUMP JUMPDEST PUSH1 0x20 PUSH1 0x40 MLOAD DUP1 DUP4 SUB DUP2 DUP7 GAS STATICCALL ISZERO DUP1 ISZERO PUSH2 0x2077 JUMPI RETURNDATASIZE PUSH1 0x0 DUP1 RETURNDATACOPY RETURNDATASIZE PUSH1 0x0 REVERT JUMPDEST POP POP POP POP PUSH1 0x40 MLOAD RETURNDATASIZE PUSH1 0x1F NOT PUSH1 0x1F DUP3 ADD AND DUP3 ADD DUP1 PUSH1 0x40 MSTORE POP DUP2 ADD SWAP1 PUSH2 0x209B SWAP2 SWAP1 PUSH2 0x3523 JUMP JUMPDEST PUSH1 0x40 MLOAD DUP4 PUSH4 0xFFFFFFFF AND PUSH1 0xE0 SHL DUP2 MSTORE PUSH1 0x4 ADD PUSH2 0x20B8 SWAP3 SWAP2 SWAP1 PUSH2 0x39C8 JUMP JUMPDEST PUSH1 0x20 PUSH1 0x40 MLOAD DUP1 DUP4 SUB DUP2 PUSH1 0x0 DUP8 GAS CALL ISZERO DUP1 ISZERO PUSH2 0x20D7 JUMPI RETURNDATASIZE PUSH1 0x0 DUP1 RETURNDATACOPY RETURNDATASIZE PUSH1 0x0 REVERT JUMPDEST POP POP POP POP PUSH1 0x40 MLOAD RETURNDATASIZE PUSH1 0x1F NOT PUSH1 0x1F DUP3 ADD AND DUP3 ADD DUP1 PUSH1 0x40 MSTORE POP DUP2 ADD SWAP1 PUSH2 0x20FB SWAP2 SWAP1 PUSH2 0x3A58 JUMP JUMPDEST POP JUMPDEST PUSH32 0xF41298DD61B4FDFF224F14A8BDE24760D3E18CD4E91A2A072F29D882D17F108 DUP9 PUSH1 0x40 MLOAD PUSH2 0x212C SWAP2 SWAP1 PUSH2 0x3B6F JUMP JUMPDEST PUSH1 0x40 MLOAD DUP1 SWAP2 SUB SWAP1 LOG1 PUSH32 0x686DE475D8CF02A731287D163936D70C522D2D4DFF8F07048DC5476E251D6F67 DUP8 PUSH1 0x40 MLOAD PUSH2 0x2163 SWAP2 SWAP1 PUSH2 0x3B6F JUMP JUMPDEST PUSH1 0x40 MLOAD DUP1 SWAP2 SUB SWAP1 LOG1 PUSH32 0x4A573778A3A39AE90551DF4D0FCD5E5CF0E18FD1F406EAAD36DF0E6C7B1B2865 DUP7 PUSH1 0x40 MLOAD PUSH2 0x219A SWAP2 SWAP1 PUSH2 0x3B6F JUMP JUMPDEST PUSH1 0x40 MLOAD DUP1 SWAP2 SUB SWAP1 LOG1 PUSH32 0x2C6C1FE2CEBDC992E4374CC537BD49223D9903F1BE112F6D9DD455D1D14210F5 DUP2 PUSH1 0x40 MLOAD PUSH2 0x21D1 SWAP2 SWAP1 PUSH2 0x3BE0 JUMP JUMPDEST PUSH1 0x40 MLOAD DUP1 SWAP2 SUB SWAP1 LOG1 PUSH32 0x5578432BEF88B16BAC0877A12038C7D09AB8630C4BBF78E123E67BF6BECAF8AD DUP12 PUSH1 0x40 MLOAD PUSH2 0x2208 SWAP2 SWAP1 PUSH2 0x3CBA JUMP JUMPDEST PUSH1 0x40 MLOAD DUP1 SWAP2 SUB SWAP1 LOG1 POP POP POP POP POP POP POP POP POP POP POP JUMP JUMPDEST PUSH1 0xA DUP2 DUP2 SLOAD DUP2 LT PUSH2 0x222D JUMPI PUSH1 0x0 DUP1 REVERT JUMPDEST SWAP1 PUSH1 0x0 MSTORE PUSH1 0x20 PUSH1 0x0 KECCAK256 ADD PUSH1 0x0 SWAP2 POP SLOAD SWAP1 PUSH2 0x100 EXP SWAP1 DIV PUSH20 0xFFFFFFFFFFFFFFFFFFFFFFFFFFFFFFFFFFFFFFFF AND DUP2 JUMP JUMPDEST PUSH1 0xF PUSH1 0x14 SWAP1 SLOAD SWAP1 PUSH2 0x100 EXP SWAP1 DIV PUSH1 0xFF AND DUP2 JUMP JUMPDEST PUSH2 0x2277 PUSH2 0x2FCD JUMP JUMPDEST PUSH2 0x2281 PUSH1 0x0 PUSH2 0x3054 JUMP JUMPDEST JUMP JUMPDEST PUSH1 0x0 PUSH2 0x228D PUSH2 0x3085 JUMP JUMPDEST SWAP1 POP DUP1 PUSH20 0xFFFFFFFFFFFFFFFFFFFFFFFFFFFFFFFFFFFFFFFF AND PUSH2 0x22AE PUSH2 0x2645 JUMP JUMPDEST PUSH20 0xFFFFFFFFFFFFFFFFFFFFFFFFFFFFFFFFFFFFFFFF AND EQ PUSH2 0x2306 JUMPI DUP1 PUSH1 0x40 MLOAD PUSH32 0x118CDAA700000000000000000000000000000000000000000000000000000000 DUP2 MSTORE PUSH1 0x4 ADD PUSH2 0x22FD SWAP2 SWAP1 PUSH2 0x32A4 JUMP JUMPDEST PUSH1 0x40 MLOAD DUP1 SWAP2 SUB SWAP1 REVERT JUMPDEST PUSH2 0x230F DUP2 PUSH2 0x3054 JUMP JUMPDEST POP JUMP JUMPDEST PUSH1 0x8 DUP2 DUP2 SLOAD DUP2 LT PUSH2 0x2322 JUMPI PUSH1 0x0 DUP1 REVERT JUMPDEST SWAP1 PUSH1 0x0 MSTORE PUSH1 0x20 PUSH1 0x0 KECCAK256 ADD PUSH1 0x0 SWAP2 POP SLOAD SWAP1 PUSH2 0x100 EXP SWAP1 DIV PUSH20 0xFFFFFFFFFFFFFFFFFFFFFFFFFFFFFFFFFFFFFFFF AND DUP2 JUMP JUMPDEST PUSH1 0x7 PUSH1 0x0 SWAP1 SLOAD SWAP1 PUSH2 0x100 EXP SWAP1 DIV PUSH20 0xFFFFFFFFFFFFFFFFFFFFFFFFFFFFFFFFFFFFFFFF AND DUP2 JUMP JUMPDEST PUSH1 0x3 PUSH1 0x0 SWAP1 SLOAD SWAP1 PUSH2 0x100 EXP SWAP1 DIV PUSH20 0xFFFFFFFFFFFFFFFFFFFFFFFFFFFFFFFFFFFFFFFF AND DUP2 JUMP JUMPDEST PUSH1 0xB PUSH1 0x0 SWAP1 SLOAD SWAP1 PUSH2 0x100 EXP SWAP1 DIV PUSH20 0xFFFFFFFFFFFFFFFFFFFFFFFFFFFFFFFFFFFFFFFF AND DUP2 JUMP JUMPDEST PUSH1 0xF PUSH1 0x0 SWAP1 SLOAD SWAP1 PUSH2 0x100 EXP SWAP1 DIV PUSH20 0xFFFFFFFFFFFFFFFFFFFFFFFFFFFFFFFFFFFFFFFF AND DUP2 JUMP JUMPDEST PUSH1 0x0 DUP1 PUSH1 0x0 SWAP1 SLOAD SWAP1 PUSH2 0x100 EXP SWAP1 DIV PUSH20 0xFFFFFFFFFFFFFFFFFFFFFFFFFFFFFFFFFFFFFFFF AND SWAP1 POP SWAP1 JUMP JUMPDEST PUSH1 0x6 PUSH1 0x0 SWAP1 SLOAD SWAP1 PUSH2 0x100 EXP SWAP1 DIV PUSH20 0xFFFFFFFFFFFFFFFFFFFFFFFFFFFFFFFFFFFFFFFF AND DUP2 JUMP JUMPDEST PUSH1 0x10 DUP1 PUSH1 0x0 ADD PUSH1 0x0 SWAP1 SLOAD SWAP1 PUSH2 0x100 EXP SWAP1 DIV PUSH1 0xFF AND SWAP1 DUP1 PUSH1 0x0 ADD PUSH1 0x1 SWAP1 SLOAD SWAP1 PUSH2 0x100 EXP SWAP1 DIV PUSH1 0xFF AND SWAP1 DUP1 PUSH1 0x0 ADD PUSH1 0x2 SWAP1 SLOAD SWAP1 PUSH2 0x100 EXP SWAP1 DIV PUSH1 0xFF AND SWAP1 DUP1 PUSH1 0x0 ADD PUSH1 0x3 SWAP1 SLOAD SWAP1 PUSH2 0x100 EXP SWAP1 DIV PUSH1 0xFF AND SWAP1 DUP1 PUSH1 0x0 ADD PUSH1 0x4 SWAP1 SLOAD SWAP1 PUSH2 0x100 EXP SWAP1 DIV PUSH1 0xFF AND SWAP1 DUP1 PUSH1 0x0 ADD PUSH1 0x5 SWAP1 SLOAD SWAP1 PUSH2 0x100 EXP SWAP1 DIV PUSH1 0xFF AND SWAP1 DUP1 PUSH1 0x0 ADD PUSH1 0x6 SWAP1 SLOAD SWAP1 PUSH2 0x100 EXP SWAP1 DIV PUSH1 0xFF AND SWAP1 POP DUP8 JUMP JUMPDEST PUSH1 0x11 DUP1 PUSH1 0x0 ADD PUSH1 0x0 SWAP1 SLOAD SWAP1 PUSH2 0x100 EXP SWAP1 DIV PUSH1 0xFF AND SWAP1 DUP1 PUSH1 0x0 ADD PUSH1 0x1 SWAP1 SLOAD SWAP1 PUSH2 0x100 EXP SWAP1 DIV PUSH1 0xFF AND SWAP1 DUP1 PUSH1 0x0 ADD PUSH1 0x2 SWAP1 SLOAD SWAP1 PUSH2 0x100 EXP SWAP1 DIV PUSH1 0xFF AND SWAP1 DUP1 PUSH1 0x0 ADD PUSH1 0x3 SWAP1 SLOAD SWAP1 PUSH2 0x100 EXP SWAP1 DIV PUSH1 0xFF AND SWAP1 DUP1 PUSH1 0x0 ADD PUSH1 0x4 SWAP1 SLOAD SWAP1 PUSH2 0x100 EXP SWAP1 DIV PUSH1 0xFF AND SWAP1 DUP1 PUSH1 0x0 ADD PUSH1 0x5 SWAP1 SLOAD SWAP1 PUSH2 0x100 EXP SWAP1 DIV PUSH1 0xFF AND SWAP1 POP DUP7 JUMP JUMPDEST PUSH2 0x2543 PUSH2 0x2FCD JUMP JUMPDEST DUP1 PUSH1 0xD PUSH1 0x0 PUSH2 0x100 EXP DUP2 SLOAD DUP2 PUSH20 0xFFFFFFFFFFFFFFFFFFFFFFFFFFFFFFFFFFFFFFFF MUL NOT AND SWAP1 DUP4 PUSH20 0xFFFFFFFFFFFFFFFFFFFFFFFFFFFFFFFFFFFFFFFF AND MUL OR SWAP1 SSTORE POP POP JUMP JUMPDEST PUSH1 0xE PUSH1 0x0 SWAP1 SLOAD SWAP1 PUSH2 0x100 EXP SWAP1 DIV PUSH20 0xFFFFFFFFFFFFFFFFFFFFFFFFFFFFFFFFFFFFFFFF AND DUP2 JUMP JUMPDEST PUSH1 0x2 PUSH1 0x0 SWAP1 SLOAD SWAP1 PUSH2 0x100 EXP SWAP1 DIV PUSH20 0xFFFFFFFFFFFFFFFFFFFFFFFFFFFFFFFFFFFFFFFF AND DUP2 JUMP JUMPDEST PUSH2 0x25DB PUSH2 0x2FCD JUMP JUMPDEST DUP1 PUSH1 0xB PUSH1 0x0 PUSH2 0x100 EXP DUP2 SLOAD DUP2 PUSH20 0xFFFFFFFFFFFFFFFFFFFFFFFFFFFFFFFFFFFFFFFF MUL NOT AND SWAP1 DUP4 PUSH20 0xFFFFFFFFFFFFFFFFFFFFFFFFFFFFFFFFFFFFFFFF AND MUL OR SWAP1 SSTORE POP POP JUMP JUMPDEST PUSH1 0xC PUSH1 0x0 SWAP1 SLOAD SWAP1 PUSH2 0x100 EXP SWAP1 DIV PUSH20 0xFFFFFFFFFFFFFFFFFFFFFFFFFFFFFFFFFFFFFFFF AND DUP2 JUMP JUMPDEST PUSH1 0x0 PUSH1 0x1 PUSH1 0x0 SWAP1 SLOAD SWAP1 PUSH2 0x100 EXP SWAP1 DIV PUSH20 0xFFFFFFFFFFFFFFFFFFFFFFFFFFFFFFFFFFFFFFFF AND SWAP1 POP SWAP1 JUMP JUMPDEST PUSH2 0x2677 PUSH2 0x2FCD JUMP JUMPDEST DUP1 PUSH1 0x1 PUSH1 0x0 PUSH2 0x100 EXP DUP2 SLOAD DUP2 PUSH20 0xFFFFFFFFFFFFFFFFFFFFFFFFFFFFFFFFFFFFFFFF MUL NOT AND SWAP1 DUP4 PUSH20 0xFFFFFFFFFFFFFFFFFFFFFFFFFFFFFFFFFFFFFFFF AND MUL OR SWAP1 SSTORE POP DUP1 PUSH20 0xFFFFFFFFFFFFFFFFFFFFFFFFFFFFFFFFFFFFFFFF AND PUSH2 0x26D7 PUSH2 0x23E9 JUMP JUMPDEST PUSH20 0xFFFFFFFFFFFFFFFFFFFFFFFFFFFFFFFFFFFFFFFF AND PUSH32 0x38D16B8CAC22D99FC7C124B9CD0DE2D3FA1FAEF420BFE791D8C362D765E22700 PUSH1 0x40 MLOAD PUSH1 0x40 MLOAD DUP1 SWAP2 SUB SWAP1 LOG3 POP JUMP JUMPDEST PUSH1 0x9 DUP2 DUP2 SLOAD DUP2 LT PUSH2 0x272C JUMPI PUSH1 0x0 DUP1 REVERT JUMPDEST SWAP1 PUSH1 0x0 MSTORE PUSH1 0x20 PUSH1 0x0 KECCAK256 ADD PUSH1 0x0 SWAP2 POP SLOAD SWAP1 PUSH2 0x100 EXP SWAP1 DIV PUSH20 0xFFFFFFFFFFFFFFFFFFFFFFFFFFFFFFFFFFFFFFFF AND DUP2 JUMP JUMPDEST PUSH2 0x27A9 PUSH1 0x4 PUSH1 0x0 SWAP1 SLOAD SWAP1 PUSH2 0x100 EXP SWAP1 DIV PUSH20 0xFFFFFFFFFFFFFFFFFFFFFFFFFFFFFFFFFFFFFFFF AND PUSH1 0x5 PUSH1 0x0 SWAP1 SLOAD SWAP1 PUSH2 0x100 EXP SWAP1 DIV PUSH20 0xFFFFFFFFFFFFFFFFFFFFFFFFFFFFFFFFFFFFFFFF AND PUSH2 0x308D JUMP JUMPDEST PUSH2 0x27F7 PUSH1 0x4 PUSH1 0x0 SWAP1 SLOAD SWAP1 PUSH2 0x100 EXP SWAP1 DIV PUSH20 0xFFFFFFFFFFFFFFFFFFFFFFFFFFFFFFFFFFFFFFFF AND PUSH1 0x6 PUSH1 0x0 SWAP1 SLOAD SWAP1 PUSH2 0x100 EXP SWAP1 DIV PUSH20 0xFFFFFFFFFFFFFFFFFFFFFFFFFFFFFFFFFFFFFFFF AND PUSH2 0x308D JUMP JUMPDEST PUSH2 0x2845 PUSH1 0x4 PUSH1 0x0 SWAP1 SLOAD SWAP1 PUSH2 0x100 EXP SWAP1 DIV PUSH20 0xFFFFFFFFFFFFFFFFFFFFFFFFFFFFFFFFFFFFFFFF AND PUSH1 0x7 PUSH1 0x0 SWAP1 SLOAD SWAP1 PUSH2 0x100 EXP SWAP1 DIV PUSH20 0xFFFFFFFFFFFFFFFFFFFFFFFFFFFFFFFFFFFFFFFF AND PUSH2 0x308D JUMP JUMPDEST PUSH2 0x28B0 PUSH1 0x4 PUSH1 0x0 SWAP1 SLOAD SWAP1 PUSH2 0x100 EXP SWAP1 DIV PUSH20 0xFFFFFFFFFFFFFFFFFFFFFFFFFFFFFFFFFFFFFFFF AND PUSH1 0x8 PUSH1 0x0 DUP2 SLOAD DUP2 LT PUSH2 0x2880 JUMPI PUSH2 0x287F PUSH2 0x39F1 JUMP JUMPDEST JUMPDEST SWAP1 PUSH1 0x0 MSTORE PUSH1 0x20 PUSH1 0x0 KECCAK256 ADD PUSH1 0x0 SWAP1 SLOAD SWAP1 PUSH2 0x100 EXP SWAP1 DIV PUSH20 0xFFFFFFFFFFFFFFFFFFFFFFFFFFFFFFFFFFFFFFFF AND PUSH2 0x308D JUMP JUMPDEST PUSH2 0x291B PUSH1 0x5 PUSH1 0x0 SWAP1 SLOAD SWAP1 PUSH2 0x100 EXP SWAP1 DIV PUSH20 0xFFFFFFFFFFFFFFFFFFFFFFFFFFFFFFFFFFFFFFFF AND PUSH1 0x8 PUSH1 0x0 DUP2 SLOAD DUP2 LT PUSH2 0x28EB JUMPI PUSH2 0x28EA PUSH2 0x39F1 JUMP JUMPDEST JUMPDEST SWAP1 PUSH1 0x0 MSTORE PUSH1 0x20 PUSH1 0x0 KECCAK256 ADD PUSH1 0x0 SWAP1 SLOAD SWAP1 PUSH2 0x100 EXP SWAP1 DIV PUSH20 0xFFFFFFFFFFFFFFFFFFFFFFFFFFFFFFFFFFFFFFFF AND PUSH2 0x308D JUMP JUMPDEST PUSH2 0x2986 PUSH1 0x4 PUSH1 0x0 SWAP1 SLOAD SWAP1 PUSH2 0x100 EXP SWAP1 DIV PUSH20 0xFFFFFFFFFFFFFFFFFFFFFFFFFFFFFFFFFFFFFFFF AND PUSH1 0x9 PUSH1 0x0 DUP2 SLOAD DUP2 LT PUSH2 0x2956 JUMPI PUSH2 0x2955 PUSH2 0x39F1 JUMP JUMPDEST JUMPDEST SWAP1 PUSH1 0x0 MSTORE PUSH1 0x20 PUSH1 0x0 KECCAK256 ADD PUSH1 0x0 SWAP1 SLOAD SWAP1 PUSH2 0x100 EXP SWAP1 DIV PUSH20 0xFFFFFFFFFFFFFFFFFFFFFFFFFFFFFFFFFFFFFFFF AND PUSH2 0x308D JUMP JUMPDEST PUSH2 0x29F1 PUSH1 0x5 PUSH1 0x0 SWAP1 SLOAD SWAP1 PUSH2 0x100 EXP SWAP1 DIV PUSH20 0xFFFFFFFFFFFFFFFFFFFFFFFFFFFFFFFFFFFFFFFF AND PUSH1 0x9 PUSH1 0x0 DUP2 SLOAD DUP2 LT PUSH2 0x29C1 JUMPI PUSH2 0x29C0 PUSH2 0x39F1 JUMP JUMPDEST JUMPDEST SWAP1 PUSH1 0x0 MSTORE PUSH1 0x20 PUSH1 0x0 KECCAK256 ADD PUSH1 0x0 SWAP1 SLOAD SWAP1 PUSH2 0x100 EXP SWAP1 DIV PUSH20 0xFFFFFFFFFFFFFFFFFFFFFFFFFFFFFFFFFFFFFFFF AND PUSH2 0x308D JUMP JUMPDEST PUSH2 0x2A5C PUSH1 0x4 PUSH1 0x0 SWAP1 SLOAD SWAP1 PUSH2 0x100 EXP SWAP1 DIV PUSH20 0xFFFFFFFFFFFFFFFFFFFFFFFFFFFFFFFFFFFFFFFF AND PUSH1 0xA PUSH1 0x0 DUP2 SLOAD DUP2 LT PUSH2 0x2A2C JUMPI PUSH2 0x2A2B PUSH2 0x39F1 JUMP JUMPDEST JUMPDEST SWAP1 PUSH1 0x0 MSTORE PUSH1 0x20 PUSH1 0x0 KECCAK256 ADD PUSH1 0x0 SWAP1 SLOAD SWAP1 PUSH2 0x100 EXP SWAP1 DIV PUSH20 0xFFFFFFFFFFFFFFFFFFFFFFFFFFFFFFFFFFFFFFFF AND PUSH2 0x308D JUMP JUMPDEST PUSH2 0x2AC7 PUSH1 0x5 PUSH1 0x0 SWAP1 SLOAD SWAP1 PUSH2 0x100 EXP SWAP1 DIV PUSH20 0xFFFFFFFFFFFFFFFFFFFFFFFFFFFFFFFFFFFFFFFF AND PUSH1 0xA PUSH1 0x0 DUP2 SLOAD DUP2 LT PUSH2 0x2A97 JUMPI PUSH2 0x2A96 PUSH2 0x39F1 JUMP JUMPDEST JUMPDEST SWAP1 PUSH1 0x0 MSTORE PUSH1 0x20 PUSH1 0x0 KECCAK256 ADD PUSH1 0x0 SWAP1 SLOAD SWAP1 PUSH2 0x100 EXP SWAP1 DIV PUSH20 0xFFFFFFFFFFFFFFFFFFFFFFFFFFFFFFFFFFFFFFFF AND PUSH2 0x308D JUMP JUMPDEST PUSH2 0x2B32 PUSH1 0x4 PUSH1 0x0 SWAP1 SLOAD SWAP1 PUSH2 0x100 EXP SWAP1 DIV PUSH20 0xFFFFFFFFFFFFFFFFFFFFFFFFFFFFFFFFFFFFFFFF AND PUSH1 0x8 PUSH1 0x1 DUP2 SLOAD DUP2 LT PUSH2 0x2B02 JUMPI PUSH2 0x2B01 PUSH2 0x39F1 JUMP JUMPDEST JUMPDEST SWAP1 PUSH1 0x0 MSTORE PUSH1 0x20 PUSH1 0x0 KECCAK256 ADD PUSH1 0x0 SWAP1 SLOAD SWAP1 PUSH2 0x100 EXP SWAP1 DIV PUSH20 0xFFFFFFFFFFFFFFFFFFFFFFFFFFFFFFFFFFFFFFFF AND PUSH2 0x308D JUMP JUMPDEST PUSH2 0x2B9D PUSH1 0x6 PUSH1 0x0 SWAP1 SLOAD SWAP1 PUSH2 0x100 EXP SWAP1 DIV PUSH20 0xFFFFFFFFFFFFFFFFFFFFFFFFFFFFFFFFFFFFFFFF AND PUSH1 0x8 PUSH1 0x1 DUP2 SLOAD DUP2 LT PUSH2 0x2B6D JUMPI PUSH2 0x2B6C PUSH2 0x39F1 JUMP JUMPDEST JUMPDEST SWAP1 PUSH1 0x0 MSTORE PUSH1 0x20 PUSH1 0x0 KECCAK256 ADD PUSH1 0x0 SWAP1 SLOAD SWAP1 PUSH2 0x100 EXP SWAP1 DIV PUSH20 0xFFFFFFFFFFFFFFFFFFFFFFFFFFFFFFFFFFFFFFFF AND PUSH2 0x308D JUMP JUMPDEST PUSH2 0x2C08 PUSH1 0x4 PUSH1 0x0 SWAP1 SLOAD SWAP1 PUSH2 0x100 EXP SWAP1 DIV PUSH20 0xFFFFFFFFFFFFFFFFFFFFFFFFFFFFFFFFFFFFFFFF AND PUSH1 0x9 PUSH1 0x1 DUP2 SLOAD DUP2 LT PUSH2 0x2BD8 JUMPI PUSH2 0x2BD7 PUSH2 0x39F1 JUMP JUMPDEST JUMPDEST SWAP1 PUSH1 0x0 MSTORE PUSH1 0x20 PUSH1 0x0 KECCAK256 ADD PUSH1 0x0 SWAP1 SLOAD SWAP1 PUSH2 0x100 EXP SWAP1 DIV PUSH20 0xFFFFFFFFFFFFFFFFFFFFFFFFFFFFFFFFFFFFFFFF AND PUSH2 0x308D JUMP JUMPDEST PUSH2 0x2C73 PUSH1 0x6 PUSH1 0x0 SWAP1 SLOAD SWAP1 PUSH2 0x100 EXP SWAP1 DIV PUSH20 0xFFFFFFFFFFFFFFFFFFFFFFFFFFFFFFFFFFFFFFFF AND PUSH1 0x9 PUSH1 0x1 DUP2 SLOAD DUP2 LT PUSH2 0x2C43 JUMPI PUSH2 0x2C42 PUSH2 0x39F1 JUMP JUMPDEST JUMPDEST SWAP1 PUSH1 0x0 MSTORE PUSH1 0x20 PUSH1 0x0 KECCAK256 ADD PUSH1 0x0 SWAP1 SLOAD SWAP1 PUSH2 0x100 EXP SWAP1 DIV PUSH20 0xFFFFFFFFFFFFFFFFFFFFFFFFFFFFFFFFFFFFFFFF AND PUSH2 0x308D JUMP JUMPDEST PUSH2 0x2CDE PUSH1 0x4 PUSH1 0x0 SWAP1 SLOAD SWAP1 PUSH2 0x100 EXP SWAP1 DIV PUSH20 0xFFFFFFFFFFFFFFFFFFFFFFFFFFFFFFFFFFFFFFFF AND PUSH1 0xA PUSH1 0x1 DUP2 SLOAD DUP2 LT PUSH2 0x2CAE JUMPI PUSH2 0x2CAD PUSH2 0x39F1 JUMP JUMPDEST JUMPDEST SWAP1 PUSH1 0x0 MSTORE PUSH1 0x20 PUSH1 0x0 KECCAK256 ADD PUSH1 0x0 SWAP1 SLOAD SWAP1 PUSH2 0x100 EXP SWAP1 DIV PUSH20 0xFFFFFFFFFFFFFFFFFFFFFFFFFFFFFFFFFFFFFFFF AND PUSH2 0x308D JUMP JUMPDEST PUSH2 0x2D49 PUSH1 0x6 PUSH1 0x0 SWAP1 SLOAD SWAP1 PUSH2 0x100 EXP SWAP1 DIV PUSH20 0xFFFFFFFFFFFFFFFFFFFFFFFFFFFFFFFFFFFFFFFF AND PUSH1 0xA PUSH1 0x1 DUP2 SLOAD DUP2 LT PUSH2 0x2D19 JUMPI PUSH2 0x2D18 PUSH2 0x39F1 JUMP JUMPDEST JUMPDEST SWAP1 PUSH1 0x0 MSTORE PUSH1 0x20 PUSH1 0x0 KECCAK256 ADD PUSH1 0x0 SWAP1 SLOAD SWAP1 PUSH2 0x100 EXP SWAP1 DIV PUSH20 0xFFFFFFFFFFFFFFFFFFFFFFFFFFFFFFFFFFFFFFFF AND PUSH2 0x308D JUMP JUMPDEST PUSH2 0x2DB4 PUSH1 0x4 PUSH1 0x0 SWAP1 SLOAD SWAP1 PUSH2 0x100 EXP SWAP1 DIV PUSH20 0xFFFFFFFFFFFFFFFFFFFFFFFFFFFFFFFFFFFFFFFF AND PUSH1 0x8 PUSH1 0x2 DUP2 SLOAD DUP2 LT PUSH2 0x2D84 JUMPI PUSH2 0x2D83 PUSH2 0x39F1 JUMP JUMPDEST JUMPDEST SWAP1 PUSH1 0x0 MSTORE PUSH1 0x20 PUSH1 0x0 KECCAK256 ADD PUSH1 0x0 SWAP1 SLOAD SWAP1 PUSH2 0x100 EXP SWAP1 DIV PUSH20 0xFFFFFFFFFFFFFFFFFFFFFFFFFFFFFFFFFFFFFFFF AND PUSH2 0x308D JUMP JUMPDEST PUSH2 0x2E1F PUSH1 0x7 PUSH1 0x0 SWAP1 SLOAD SWAP1 PUSH2 0x100 EXP SWAP1 DIV PUSH20 0xFFFFFFFFFFFFFFFFFFFFFFFFFFFFFFFFFFFFFFFF AND PUSH1 0x8 PUSH1 0x2 DUP2 SLOAD DUP2 LT PUSH2 0x2DEF JUMPI PUSH2 0x2DEE PUSH2 0x39F1 JUMP JUMPDEST JUMPDEST SWAP1 PUSH1 0x0 MSTORE PUSH1 0x20 PUSH1 0x0 KECCAK256 ADD PUSH1 0x0 SWAP1 SLOAD SWAP1 PUSH2 0x100 EXP SWAP1 DIV PUSH20 0xFFFFFFFFFFFFFFFFFFFFFFFFFFFFFFFFFFFFFFFF AND PUSH2 0x308D JUMP JUMPDEST PUSH2 0x2E8A PUSH1 0x4 PUSH1 0x0 SWAP1 SLOAD SWAP1 PUSH2 0x100 EXP SWAP1 DIV PUSH20 0xFFFFFFFFFFFFFFFFFFFFFFFFFFFFFFFFFFFFFFFF AND PUSH1 0x9 PUSH1 0x2 DUP2 SLOAD DUP2 LT PUSH2 0x2E5A JUMPI PUSH2 0x2E59 PUSH2 0x39F1 JUMP JUMPDEST JUMPDEST SWAP1 PUSH1 0x0 MSTORE PUSH1 0x20 PUSH1 0x0 KECCAK256 ADD PUSH1 0x0 SWAP1 SLOAD SWAP1 PUSH2 0x100 EXP SWAP1 DIV PUSH20 0xFFFFFFFFFFFFFFFFFFFFFFFFFFFFFFFFFFFFFFFF AND PUSH2 0x308D JUMP JUMPDEST PUSH2 0x2EF5 PUSH1 0x7 PUSH1 0x0 SWAP1 SLOAD SWAP1 PUSH2 0x100 EXP SWAP1 DIV PUSH20 0xFFFFFFFFFFFFFFFFFFFFFFFFFFFFFFFFFFFFFFFF AND PUSH1 0x9 PUSH1 0x2 DUP2 SLOAD DUP2 LT PUSH2 0x2EC5 JUMPI PUSH2 0x2EC4 PUSH2 0x39F1 JUMP JUMPDEST JUMPDEST SWAP1 PUSH1 0x0 MSTORE PUSH1 0x20 PUSH1 0x0 KECCAK256 ADD PUSH1 0x0 SWAP1 SLOAD SWAP1 PUSH2 0x100 EXP SWAP1 DIV PUSH20 0xFFFFFFFFFFFFFFFFFFFFFFFFFFFFFFFFFFFFFFFF AND PUSH2 0x308D JUMP JUMPDEST PUSH2 0x2F60 PUSH1 0x4 PUSH1 0x0 SWAP1 SLOAD SWAP1 PUSH2 0x100 EXP SWAP1 DIV PUSH20 0xFFFFFFFFFFFFFFFFFFFFFFFFFFFFFFFFFFFFFFFF AND PUSH1 0xA PUSH1 0x2 DUP2 SLOAD DUP2 LT PUSH2 0x2F30 JUMPI PUSH2 0x2F2F PUSH2 0x39F1 JUMP JUMPDEST JUMPDEST SWAP1 PUSH1 0x0 MSTORE PUSH1 0x20 PUSH1 0x0 KECCAK256 ADD PUSH1 0x0 SWAP1 SLOAD SWAP1 PUSH2 0x100 EXP SWAP1 DIV PUSH20 0xFFFFFFFFFFFFFFFFFFFFFFFFFFFFFFFFFFFFFFFF AND PUSH2 0x308D JUMP JUMPDEST PUSH2 0x2FCB PUSH1 0x7 PUSH1 0x0 SWAP1 SLOAD SWAP1 PUSH2 0x100 EXP SWAP1 DIV PUSH20 0xFFFFFFFFFFFFFFFFFFFFFFFFFFFFFFFFFFFFFFFF AND PUSH1 0xA PUSH1 0x2 DUP2 SLOAD DUP2 LT PUSH2 0x2F9B JUMPI PUSH2 0x2F9A PUSH2 0x39F1 JUMP JUMPDEST JUMPDEST SWAP1 PUSH1 0x0 MSTORE PUSH1 0x20 PUSH1 0x0 KECCAK256 ADD PUSH1 0x0 SWAP1 SLOAD SWAP1 PUSH2 0x100 EXP SWAP1 DIV PUSH20 0xFFFFFFFFFFFFFFFFFFFFFFFFFFFFFFFFFFFFFFFF AND PUSH2 0x308D JUMP JUMPDEST JUMP JUMPDEST PUSH2 0x2FD5 PUSH2 0x3085 JUMP JUMPDEST PUSH20 0xFFFFFFFFFFFFFFFFFFFFFFFFFFFFFFFFFFFFFFFF AND PUSH2 0x2FF3 PUSH2 0x23E9 JUMP JUMPDEST PUSH20 0xFFFFFFFFFFFFFFFFFFFFFFFFFFFFFFFFFFFFFFFF AND EQ PUSH2 0x3052 JUMPI PUSH2 0x3016 PUSH2 0x3085 JUMP JUMPDEST PUSH1 0x40 MLOAD PUSH32 0x118CDAA700000000000000000000000000000000000000000000000000000000 DUP2 MSTORE PUSH1 0x4 ADD PUSH2 0x3049 SWAP2 SWAP1 PUSH2 0x32A4 JUMP JUMPDEST PUSH1 0x40 MLOAD DUP1 SWAP2 SUB SWAP1 REVERT JUMPDEST JUMP JUMPDEST PUSH1 0x1 PUSH1 0x0 PUSH2 0x100 EXP DUP2 SLOAD SWAP1 PUSH20 0xFFFFFFFFFFFFFFFFFFFFFFFFFFFFFFFFFFFFFFFF MUL NOT AND SWAP1 SSTORE PUSH2 0x3082 DUP2 PUSH2 0x3130 JUMP JUMPDEST POP JUMP JUMPDEST PUSH1 0x0 CALLER SWAP1 POP SWAP1 JUMP JUMPDEST DUP2 PUSH20 0xFFFFFFFFFFFFFFFFFFFFFFFFFFFFFFFFFFFFFFFF AND PUSH4 0x95EA7B3 DUP3 PUSH32 0xFFFFFFFFFFFFFFFFFFFFFFFFFFFFFFFFFFFFFFFFFFFFFFFFFFFFFFFFFFFFFFFF PUSH1 0x40 MLOAD DUP4 PUSH4 0xFFFFFFFF AND PUSH1 0xE0 SHL DUP2 MSTORE PUSH1 0x4 ADD PUSH2 0x30E8 SWAP3 SWAP2 SWAP1 PUSH2 0x39C8 JUMP JUMPDEST PUSH1 0x20 PUSH1 0x40 MLOAD DUP1 DUP4 SUB DUP2 PUSH1 0x0 DUP8 GAS CALL ISZERO DUP1 ISZERO PUSH2 0x3107 JUMPI RETURNDATASIZE PUSH1 0x0 DUP1 RETURNDATACOPY RETURNDATASIZE PUSH1 0x0 REVERT JUMPDEST POP POP POP POP PUSH1 0x40 MLOAD RETURNDATASIZE PUSH1 0x1F NOT PUSH1 0x1F DUP3 ADD AND DUP3 ADD DUP1 PUSH1 0x40 MSTORE POP DUP2 ADD SWAP1 PUSH2 0x312B SWAP2 SWAP1 PUSH2 0x3A58 JUMP JUMPDEST POP POP POP JUMP JUMPDEST PUSH1 0x0 DUP1 PUSH1 0x0 SWAP1 SLOAD SWAP1 PUSH2 0x100 EXP SWAP1 DIV PUSH20 0xFFFFFFFFFFFFFFFFFFFFFFFFFFFFFFFFFFFFFFFF AND SWAP1 POP DUP2 PUSH1 0x0 DUP1 PUSH2 0x100 EXP DUP2 SLOAD DUP2 PUSH20 0xFFFFFFFFFFFFFFFFFFFFFFFFFFFFFFFFFFFFFFFF MUL NOT AND SWAP1 DUP4 PUSH20 0xFFFFFFFFFFFFFFFFFFFFFFFFFFFFFFFFFFFFFFFF AND MUL OR SWAP1 SSTORE POP DUP2 PUSH20 0xFFFFFFFFFFFFFFFFFFFFFFFFFFFFFFFFFFFFFFFF AND DUP2 PUSH20 0xFFFFFFFFFFFFFFFFFFFFFFFFFFFFFFFFFFFFFFFF AND PUSH32 0x8BE0079C531659141344CD1FD0A4F28419497F9722A3DAAFE3B4186F6B6457E0 PUSH1 0x40 MLOAD PUSH1 0x40 MLOAD DUP1 SWAP2 SUB SWAP1 LOG3 POP POP JUMP JUMPDEST PUSH1 0x40 MLOAD DUP1 PUSH1 0xE0 ADD PUSH1 0x40 MSTORE DUP1 PUSH1 0x0 DUP2 MSTORE PUSH1 0x20 ADD PUSH1 0x0 DUP2 MSTORE PUSH1 0x20 ADD PUSH1 0x0 DUP2 MSTORE PUSH1 0x20 ADD PUSH2 0x321C PUSH2 0x3249 JUMP JUMPDEST DUP2 MSTORE PUSH1 0x20 ADD PUSH2 0x3229 PUSH2 0x3249 JUMP JUMPDEST DUP2 MSTORE PUSH1 0x20 ADD PUSH2 0x3236 PUSH2 0x3249 JUMP JUMPDEST DUP2 MSTORE PUSH1 0x20 ADD PUSH2 0x3243 PUSH2 0x3249 JUMP JUMPDEST DUP2 MSTORE POP SWAP1 JUMP JUMPDEST PUSH1 0x40 MLOAD DUP1 PUSH1 0x40 ADD PUSH1 0x40 MSTORE DUP1 PUSH1 0x0 DUP2 MSTORE PUSH1 0x20 ADD PUSH1 0x0 DUP2 MSTORE POP SWAP1 JUMP JUMPDEST PUSH1 0x0 PUSH20 0xFFFFFFFFFFFFFFFFFFFFFFFFFFFFFFFFFFFFFFFF DUP3 AND SWAP1 POP SWAP2 SWAP1 POP JUMP JUMPDEST PUSH1 0x0 PUSH2 0x328E DUP3 PUSH2 0x3263 JUMP JUMPDEST SWAP1 POP SWAP2 SWAP1 POP JUMP JUMPDEST PUSH2 0x329E DUP2 PUSH2 0x3283 JUMP JUMPDEST DUP3 MSTORE POP POP JUMP JUMPDEST PUSH1 0x0 PUSH1 0x20 DUP3 ADD SWAP1 POP PUSH2 0x32B9 PUSH1 0x0 DUP4 ADD DUP5 PUSH2 0x3295 JUMP JUMPDEST SWAP3 SWAP2 POP POP JUMP JUMPDEST PUSH1 0x0 PUSH1 0x40 MLOAD SWAP1 POP SWAP1 JUMP JUMPDEST PUSH1 0x0 DUP1 REVERT JUMPDEST PUSH2 0x32D7 DUP2 PUSH2 0x3283 JUMP JUMPDEST DUP2 EQ PUSH2 0x32E2 JUMPI PUSH1 0x0 DUP1 REVERT JUMPDEST POP JUMP JUMPDEST PUSH1 0x0 DUP2 CALLDATALOAD SWAP1 POP PUSH2 0x32F4 DUP2 PUSH2 0x32CE JUMP JUMPDEST SWAP3 SWAP2 POP POP JUMP JUMPDEST PUSH1 0x0 PUSH1 0x20 DUP3 DUP5 SUB SLT ISZERO PUSH2 0x3310 JUMPI PUSH2 0x330F PUSH2 0x32C9 JUMP JUMPDEST JUMPDEST PUSH1 0x0 PUSH2 0x331E DUP5 DUP3 DUP6 ADD PUSH2 0x32E5 JUMP JUMPDEST SWAP2 POP POP SWAP3 SWAP2 POP POP JUMP JUMPDEST PUSH1 0x0 DUP2 SWAP1 POP SWAP2 SWAP1 POP JUMP JUMPDEST PUSH2 0x333A DUP2 PUSH2 0x3327 JUMP JUMPDEST DUP2 EQ PUSH2 0x3345 JUMPI PUSH1 0x0 DUP1 REVERT JUMPDEST POP JUMP JUMPDEST PUSH1 0x0 DUP2 CALLDATALOAD SWAP1 POP PUSH2 0x3357 DUP2 PUSH2 0x3331 JUMP JUMPDEST SWAP3 SWAP2 POP POP JUMP JUMPDEST PUSH1 0x0 PUSH1 0x20 DUP3 DUP5 SUB SLT ISZERO PUSH2 0x3373 JUMPI PUSH2 0x3372 PUSH2 0x32C9 JUMP JUMPDEST JUMPDEST PUSH1 0x0 PUSH2 0x3381 DUP5 DUP3 DUP6 ADD PUSH2 0x3348 JUMP JUMPDEST SWAP2 POP POP SWAP3 SWAP2 POP POP JUMP JUMPDEST PUSH1 0x0 PUSH1 0xFF DUP3 AND SWAP1 POP SWAP2 SWAP1 POP JUMP JUMPDEST PUSH2 0x33A0 DUP2 PUSH2 0x338A JUMP JUMPDEST DUP3 MSTORE POP POP JUMP JUMPDEST PUSH1 0x0 PUSH1 0x20 DUP3 ADD SWAP1 POP PUSH2 0x33BB PUSH1 0x0 DUP4 ADD DUP5 PUSH2 0x3397 JUMP JUMPDEST SWAP3 SWAP2 POP POP JUMP JUMPDEST PUSH1 0x0 PUSH1 0xE0 DUP3 ADD SWAP1 POP PUSH2 0x33D6 PUSH1 0x0 DUP4 ADD DUP11 PUSH2 0x3397 JUMP JUMPDEST PUSH2 0x33E3 PUSH1 0x20 DUP4 ADD DUP10 PUSH2 0x3397 JUMP JUMPDEST PUSH2 0x33F0 PUSH1 0x40 DUP4 ADD DUP9 PUSH2 0x3397 JUMP JUMPDEST PUSH2 0x33FD PUSH1 0x60 DUP4 ADD DUP8 PUSH2 0x3397 JUMP JUMPDEST PUSH2 0x340A PUSH1 0x80 DUP4 ADD DUP7 PUSH2 0x3397 JUMP JUMPDEST PUSH2 0x3417 PUSH1 0xA0 DUP4 ADD DUP6 PUSH2 0x3397 JUMP JUMPDEST PUSH2 0x3424 PUSH1 0xC0 DUP4 ADD DUP5 PUSH2 0x3397 JUMP JUMPDEST SWAP9 SWAP8 POP POP POP POP POP POP POP POP JUMP JUMPDEST PUSH1 0x0 PUSH1 0xC0 DUP3 ADD SWAP1 POP PUSH2 0x3445 PUSH1 0x0 DUP4 ADD DUP10 PUSH2 0x3397 JUMP JUMPDEST PUSH2 0x3452 PUSH1 0x20 DUP4 ADD DUP9 PUSH2 0x3397 JUMP JUMPDEST PUSH2 0x345F PUSH1 0x40 DUP4 ADD DUP8 PUSH2 0x3397 JUMP JUMPDEST PUSH2 0x346C PUSH1 0x60 DUP4 ADD DUP7 PUSH2 0x3397 JUMP JUMPDEST PUSH2 0x3479 PUSH1 0x80 DUP4 ADD DUP6 PUSH2 0x3397 JUMP JUMPDEST PUSH2 0x3486 PUSH1 0xA0 DUP4 ADD DUP5 PUSH2 0x3397 JUMP JUMPDEST SWAP8 SWAP7 POP POP POP POP POP POP POP JUMP JUMPDEST PUSH1 0x0 DUP3 DUP3 MSTORE PUSH1 0x20 DUP3 ADD SWAP1 POP SWAP3 SWAP2 POP POP JUMP JUMPDEST PUSH32 0x545249474745525F554E415554484F52495A4544000000000000000000000000 PUSH1 0x0 DUP3 ADD MSTORE POP JUMP JUMPDEST PUSH1 0x0 PUSH2 0x34D8 PUSH1 0x14 DUP4 PUSH2 0x3491 JUMP JUMPDEST SWAP2 POP PUSH2 0x34E3 DUP3 PUSH2 0x34A2 JUMP JUMPDEST PUSH1 0x20 DUP3 ADD SWAP1 POP SWAP2 SWAP1 POP JUMP JUMPDEST PUSH1 0x0 PUSH1 0x20 DUP3 ADD SWAP1 POP DUP2 DUP2 SUB PUSH1 0x0 DUP4 ADD MSTORE PUSH2 0x3507 DUP2 PUSH2 0x34CB JUMP JUMPDEST SWAP1 POP SWAP2 SWAP1 POP JUMP JUMPDEST PUSH1 0x0 DUP2 MLOAD SWAP1 POP PUSH2 0x351D DUP2 PUSH2 0x3331 JUMP JUMPDEST SWAP3 SWAP2 POP POP JUMP JUMPDEST PUSH1 0x0 PUSH1 0x20 DUP3 DUP5 SUB SLT ISZERO PUSH2 0x3539 JUMPI PUSH2 0x3538 PUSH2 0x32C9 JUMP JUMPDEST JUMPDEST PUSH1 0x0 PUSH2 0x3547 DUP5 DUP3 DUP6 ADD PUSH2 0x350E JUMP JUMPDEST SWAP2 POP POP SWAP3 SWAP2 POP POP JUMP JUMPDEST PUSH32 0x4E487B7100000000000000000000000000000000000000000000000000000000 PUSH1 0x0 MSTORE PUSH1 0x11 PUSH1 0x4 MSTORE PUSH1 0x24 PUSH1 0x0 REVERT JUMPDEST PUSH1 0x0 PUSH2 0x358A DUP3 PUSH2 0x3327 JUMP JUMPDEST SWAP2 POP PUSH2 0x3595 DUP4 PUSH2 0x3327 JUMP JUMPDEST SWAP3 POP DUP3 DUP3 MUL PUSH2 0x35A3 DUP2 PUSH2 0x3327 JUMP JUMPDEST SWAP2 POP DUP3 DUP3 DIV DUP5 EQ DUP4 ISZERO OR PUSH2 0x35BA JUMPI PUSH2 0x35B9 PUSH2 0x3550 JUMP JUMPDEST JUMPDEST POP SWAP3 SWAP2 POP POP JUMP JUMPDEST PUSH32 0x4E487B7100000000000000000000000000000000000000000000000000000000 PUSH1 0x0 MSTORE PUSH1 0x12 PUSH1 0x4 MSTORE PUSH1 0x24 PUSH1 0x0 REVERT JUMPDEST PUSH1 0x0 PUSH2 0x35FB DUP3 PUSH2 0x3327 JUMP JUMPDEST SWAP2 POP PUSH2 0x3606 DUP4 PUSH2 0x3327 JUMP JUMPDEST SWAP3 POP DUP3 PUSH2 0x3616 JUMPI PUSH2 0x3615 PUSH2 0x35C1 JUMP JUMPDEST JUMPDEST DUP3 DUP3 DIV SWAP1 POP SWAP3 SWAP2 POP POP JUMP JUMPDEST PUSH1 0x0 PUSH2 0x362C DUP3 PUSH2 0x3327 JUMP JUMPDEST SWAP2 POP PUSH2 0x3637 DUP4 PUSH2 0x3327 JUMP JUMPDEST SWAP3 POP DUP3 DUP3 SUB SWAP1 POP DUP2 DUP2 GT ISZERO PUSH2 0x364F JUMPI PUSH2 0x364E PUSH2 0x3550 JUMP JUMPDEST JUMPDEST SWAP3 SWAP2 POP POP JUMP JUMPDEST PUSH2 0x365E DUP2 PUSH2 0x3327 JUMP JUMPDEST DUP3 MSTORE POP POP JUMP JUMPDEST PUSH1 0x0 PUSH1 0x40 DUP3 ADD SWAP1 POP PUSH2 0x3679 PUSH1 0x0 DUP4 ADD DUP6 PUSH2 0x3655 JUMP JUMPDEST PUSH2 0x3686 PUSH1 0x20 DUP4 ADD DUP5 PUSH2 0x3655 JUMP JUMPDEST SWAP4 SWAP3 POP POP POP JUMP JUMPDEST PUSH1 0x0 DUP1 REVERT JUMPDEST PUSH1 0x0 PUSH1 0x1F NOT PUSH1 0x1F DUP4 ADD AND SWAP1 POP SWAP2 SWAP1 POP JUMP JUMPDEST PUSH32 0x4E487B7100000000000000000000000000000000000000000000000000000000 PUSH1 0x0 MSTORE PUSH1 0x41 PUSH1 0x4 MSTORE PUSH1 0x24 PUSH1 0x0 REVERT JUMPDEST PUSH2 0x36DB DUP3 PUSH2 0x3692 JUMP JUMPDEST DUP2 ADD DUP2 DUP2 LT PUSH8 0xFFFFFFFFFFFFFFFF DUP3 GT OR ISZERO PUSH2 0x36FA JUMPI PUSH2 0x36F9 PUSH2 0x36A3 JUMP JUMPDEST JUMPDEST DUP1 PUSH1 0x40 MSTORE POP POP POP JUMP JUMPDEST PUSH1 0x0 PUSH2 0x370D PUSH2 0x32BF JUMP JUMPDEST SWAP1 POP PUSH2 0x3719 DUP3 DUP3 PUSH2 0x36D2 JUMP JUMPDEST SWAP2 SWAP1 POP JUMP JUMPDEST PUSH1 0x0 PUSH1 0x80 DUP3 DUP5 SUB SLT ISZERO PUSH2 0x3734 JUMPI PUSH2 0x3733 PUSH2 0x368D JUMP JUMPDEST JUMPDEST PUSH2 0x373E PUSH1 0x80 PUSH2 0x3703 JUMP JUMPDEST SWAP1 POP PUSH1 0x0 PUSH2 0x374E DUP5 DUP3 DUP6 ADD PUSH2 0x350E JUMP JUMPDEST PUSH1 0x0 DUP4 ADD MSTORE POP PUSH1 0x20 PUSH2 0x3762 DUP5 DUP3 DUP6 ADD PUSH2 0x350E JUMP JUMPDEST PUSH1 0x20 DUP4 ADD MSTORE POP PUSH1 0x40 PUSH2 0x3776 DUP5 DUP3 DUP6 ADD PUSH2 0x350E JUMP JUMPDEST PUSH1 0x40 DUP4 ADD MSTORE POP PUSH1 0x60 PUSH2 0x378A DUP5 DUP3 DUP6 ADD PUSH2 0x350E JUMP JUMPDEST PUSH1 0x60 DUP4 ADD MSTORE POP SWAP3 SWAP2 POP POP JUMP JUMPDEST PUSH1 0x0 PUSH1 0xC0 DUP3 DUP5 SUB SLT ISZERO PUSH2 0x37AC JUMPI PUSH2 0x37AB PUSH2 0x368D JUMP JUMPDEST JUMPDEST PUSH2 0x37B6 PUSH1 0x60 PUSH2 0x3703 JUMP JUMPDEST SWAP1 POP PUSH1 0x0 PUSH2 0x37C6 DUP5 DUP3 DUP6 ADD PUSH2 0x371E JUMP JUMPDEST PUSH1 0x0 DUP4 ADD MSTORE POP PUSH1 0x80 PUSH2 0x37DA DUP5 DUP3 DUP6 ADD PUSH2 0x350E JUMP JUMPDEST PUSH1 0x20 DUP4 ADD MSTORE POP PUSH1 0xA0 PUSH2 0x37EE DUP5 DUP3 DUP6 ADD PUSH2 0x350E JUMP JUMPDEST PUSH1 0x40 DUP4 ADD MSTORE POP SWAP3 SWAP2 POP POP JUMP JUMPDEST PUSH1 0x0 PUSH2 0x240 DUP3 DUP5 SUB SLT ISZERO PUSH2 0x3811 JUMPI PUSH2 0x3810 PUSH2 0x368D JUMP JUMPDEST JUMPDEST PUSH2 0x381B PUSH1 0x60 PUSH2 0x3703 JUMP JUMPDEST SWAP1 POP PUSH1 0x0 PUSH2 0x382B DUP5 DUP3 DUP6 ADD PUSH2 0x3796 JUMP JUMPDEST PUSH1 0x0 DUP4 ADD MSTORE POP PUSH1 0xC0 PUSH2 0x383F DUP5 DUP3 DUP6 ADD PUSH2 0x3796 JUMP JUMPDEST PUSH1 0x20 DUP4 ADD MSTORE POP PUSH2 0x180 PUSH2 0x3854 DUP5 DUP3 DUP6 ADD PUSH2 0x3796 JUMP JUMPDEST PUSH1 0x40 DUP4 ADD MSTORE POP SWAP3 SWAP2 POP POP JUMP JUMPDEST PUSH1 0x0 PUSH2 0x240 DUP3 DUP5 SUB SLT ISZERO PUSH2 0x3877 JUMPI PUSH2 0x3876 PUSH2 0x32C9 JUMP JUMPDEST JUMPDEST PUSH1 0x0 PUSH2 0x3885 DUP5 DUP3 DUP6 ADD PUSH2 0x37FA JUMP JUMPDEST SWAP2 POP POP SWAP3 SWAP2 POP POP JUMP JUMPDEST PUSH1 0x0 PUSH2 0x3899 DUP3 PUSH2 0x3327 JUMP JUMPDEST SWAP2 POP PUSH2 0x38A4 DUP4 PUSH2 0x3327 JUMP JUMPDEST SWAP3 POP DUP3 DUP3 ADD SWAP1 POP DUP1 DUP3 GT ISZERO PUSH2 0x38BC JUMPI PUSH2 0x38BB PUSH2 0x3550 JUMP JUMPDEST JUMPDEST SWAP3 SWAP2 POP POP JUMP JUMPDEST PUSH1 0x0 PUSH1 0xC0 DUP3 ADD SWAP1 POP PUSH2 0x38D7 PUSH1 0x0 DUP4 ADD DUP10 PUSH2 0x3655 JUMP JUMPDEST PUSH2 0x38E4 PUSH1 0x20 DUP4 ADD DUP9 PUSH2 0x3655 JUMP JUMPDEST PUSH2 0x38F1 PUSH1 0x40 DUP4 ADD DUP8 PUSH2 0x3655 JUMP JUMPDEST PUSH2 0x38FE PUSH1 0x60 DUP4 ADD DUP7 PUSH2 0x3655 JUMP JUMPDEST PUSH2 0x390B PUSH1 0x80 DUP4 ADD DUP6 PUSH2 0x3655 JUMP JUMPDEST PUSH2 0x3918 PUSH1 0xA0 DUP4 ADD DUP5 PUSH2 0x3655 JUMP JUMPDEST SWAP8 SWAP7 POP POP POP POP POP POP POP JUMP JUMPDEST PUSH1 0x0 PUSH1 0x80 DUP3 DUP5 SUB SLT ISZERO PUSH2 0x3939 JUMPI PUSH2 0x3938 PUSH2 0x368D JUMP JUMPDEST JUMPDEST PUSH2 0x3943 PUSH1 0x80 PUSH2 0x3703 JUMP JUMPDEST SWAP1 POP PUSH1 0x0 PUSH2 0x3953 DUP5 DUP3 DUP6 ADD PUSH2 0x350E JUMP JUMPDEST PUSH1 0x0 DUP4 ADD MSTORE POP PUSH1 0x20 PUSH2 0x3967 DUP5 DUP3 DUP6 ADD PUSH2 0x350E JUMP JUMPDEST PUSH1 0x20 DUP4 ADD MSTORE POP PUSH1 0x40 PUSH2 0x397B DUP5 DUP3 DUP6 ADD PUSH2 0x350E JUMP JUMPDEST PUSH1 0x40 DUP4 ADD MSTORE POP PUSH1 0x60 PUSH2 0x398F DUP5 DUP3 DUP6 ADD PUSH2 0x350E JUMP JUMPDEST PUSH1 0x60 DUP4 ADD MSTORE POP SWAP3 SWAP2 POP POP JUMP JUMPDEST PUSH1 0x0 PUSH1 0x80 DUP3 DUP5 SUB SLT ISZERO PUSH2 0x39B1 JUMPI PUSH2 0x39B0 PUSH2 0x32C9 JUMP JUMPDEST JUMPDEST PUSH1 0x0 PUSH2 0x39BF DUP5 DUP3 DUP6 ADD PUSH2 0x3923 JUMP JUMPDEST SWAP2 POP POP SWAP3 SWAP2 POP POP JUMP JUMPDEST PUSH1 0x0 PUSH1 0x40 DUP3 ADD SWAP1 POP PUSH2 0x39DD PUSH1 0x0 DUP4 ADD DUP6 PUSH2 0x3295 JUMP JUMPDEST PUSH2 0x39EA PUSH1 0x20 DUP4 ADD DUP5 PUSH2 0x3655 JUMP JUMPDEST SWAP4 SWAP3 POP POP POP JUMP JUMPDEST PUSH32 0x4E487B7100000000000000000000000000000000000000000000000000000000 PUSH1 0x0 MSTORE PUSH1 0x32 PUSH1 0x4 MSTORE PUSH1 0x24 PUSH1 0x0 REVERT JUMPDEST PUSH1 0x0 DUP2 ISZERO ISZERO SWAP1 POP SWAP2 SWAP1 POP JUMP JUMPDEST PUSH2 0x3A35 DUP2 PUSH2 0x3A20 JUMP JUMPDEST DUP2 EQ PUSH2 0x3A40 JUMPI PUSH1 0x0 DUP1 REVERT JUMPDEST POP JUMP JUMPDEST PUSH1 0x0 DUP2 MLOAD SWAP1 POP PUSH2 0x3A52 DUP2 PUSH2 0x3A2C JUMP JUMPDEST SWAP3 SWAP2 POP POP JUMP JUMPDEST PUSH1 0x0 PUSH1 0x20 DUP3 DUP5 SUB SLT ISZERO PUSH2 0x3A6E JUMPI PUSH2 0x3A6D PUSH2 0x32C9 JUMP JUMPDEST JUMPDEST PUSH1 0x0 PUSH2 0x3A7C DUP5 DUP3 DUP6 ADD PUSH2 0x3A43 JUMP JUMPDEST SWAP2 POP POP SWAP3 SWAP2 POP POP JUMP JUMPDEST PUSH2 0x3A8E DUP2 PUSH2 0x3327 JUMP JUMPDEST DUP3 MSTORE POP POP JUMP JUMPDEST PUSH1 0x80 DUP3 ADD PUSH1 0x0 DUP3 ADD MLOAD PUSH2 0x3AAA PUSH1 0x0 DUP6 ADD DUP3 PUSH2 0x3A85 JUMP JUMPDEST POP PUSH1 0x20 DUP3 ADD MLOAD PUSH2 0x3ABD PUSH1 0x20 DUP6 ADD DUP3 PUSH2 0x3A85 JUMP JUMPDEST POP PUSH1 0x40 DUP3 ADD MLOAD PUSH2 0x3AD0 PUSH1 0x40 DUP6 ADD DUP3 PUSH2 0x3A85 JUMP JUMPDEST POP PUSH1 0x60 DUP3 ADD MLOAD PUSH2 0x3AE3 PUSH1 0x60 DUP6 ADD DUP3 PUSH2 0x3A85 JUMP JUMPDEST POP POP POP POP JUMP JUMPDEST PUSH1 0xC0 DUP3 ADD PUSH1 0x0 DUP3 ADD MLOAD PUSH2 0x3AFF PUSH1 0x0 DUP6 ADD DUP3 PUSH2 0x3A94 JUMP JUMPDEST POP PUSH1 0x20 DUP3 ADD MLOAD PUSH2 0x3B12 PUSH1 0x80 DUP6 ADD DUP3 PUSH2 0x3A85 JUMP JUMPDEST POP PUSH1 0x40 DUP3 ADD MLOAD PUSH2 0x3B25 PUSH1 0xA0 DUP6 ADD DUP3 PUSH2 0x3A85 JUMP JUMPDEST POP POP POP POP JUMP JUMPDEST PUSH2 0x240 DUP3 ADD PUSH1 0x0 DUP3 ADD MLOAD PUSH2 0x3B42 PUSH1 0x0 DUP6 ADD DUP3 PUSH2 0x3AE9 JUMP JUMPDEST POP PUSH1 0x20 DUP3 ADD MLOAD PUSH2 0x3B55 PUSH1 0xC0 DUP6 ADD DUP3 PUSH2 0x3AE9 JUMP JUMPDEST POP PUSH1 0x40 DUP3 ADD MLOAD PUSH2 0x3B69 PUSH2 0x180 DUP6 ADD DUP3 PUSH2 0x3AE9 JUMP JUMPDEST POP POP POP POP JUMP JUMPDEST PUSH1 0x0 PUSH2 0x240 DUP3 ADD SWAP1 POP PUSH2 0x3B85 PUSH1 0x0 DUP4 ADD DUP5 PUSH2 0x3B2B JUMP JUMPDEST SWAP3 SWAP2 POP POP JUMP JUMPDEST PUSH1 0x80 DUP3 ADD PUSH1 0x0 DUP3 ADD MLOAD PUSH2 0x3BA1 PUSH1 0x0 DUP6 ADD DUP3 PUSH2 0x3A85 JUMP JUMPDEST POP PUSH1 0x20 DUP3 ADD MLOAD PUSH2 0x3BB4 PUSH1 0x20 DUP6 ADD DUP3 PUSH2 0x3A85 JUMP JUMPDEST POP PUSH1 0x40 DUP3 ADD MLOAD PUSH2 0x3BC7 PUSH1 0x40 DUP6 ADD DUP3 PUSH2 0x3A85 JUMP JUMPDEST POP PUSH1 0x60 DUP3 ADD MLOAD PUSH2 0x3BDA PUSH1 0x60 DUP6 ADD DUP3 PUSH2 0x3A85 JUMP JUMPDEST POP POP POP POP JUMP JUMPDEST PUSH1 0x0 PUSH1 0x80 DUP3 ADD SWAP1 POP PUSH2 0x3BF5 PUSH1 0x0 DUP4 ADD DUP5 PUSH2 0x3B8B JUMP JUMPDEST SWAP3 SWAP2 POP POP JUMP JUMPDEST PUSH1 0x40 DUP3 ADD PUSH1 0x0 DUP3 ADD MLOAD PUSH2 0x3C11 PUSH1 0x0 DUP6 ADD DUP3 PUSH2 0x3A85 JUMP JUMPDEST POP PUSH1 0x20 DUP3 ADD MLOAD PUSH2 0x3C24 PUSH1 0x20 DUP6 ADD DUP3 PUSH2 0x3A85 JUMP JUMPDEST POP POP POP POP JUMP JUMPDEST PUSH2 0x160 DUP3 ADD PUSH1 0x0 DUP3 ADD MLOAD PUSH2 0x3C41 PUSH1 0x0 DUP6 ADD DUP3 PUSH2 0x3A85 JUMP JUMPDEST POP PUSH1 0x20 DUP3 ADD MLOAD PUSH2 0x3C54 PUSH1 0x20 DUP6 ADD DUP3 PUSH2 0x3A85 JUMP JUMPDEST POP PUSH1 0x40 DUP3 ADD MLOAD PUSH2 0x3C67 PUSH1 0x40 DUP6 ADD DUP3 PUSH2 0x3A85 JUMP JUMPDEST POP PUSH1 0x60 DUP3 ADD MLOAD PUSH2 0x3C7A PUSH1 0x60 DUP6 ADD DUP3 PUSH2 0x3BFB JUMP JUMPDEST POP PUSH1 0x80 DUP3 ADD MLOAD PUSH2 0x3C8D PUSH1 0xA0 DUP6 ADD DUP3 PUSH2 0x3BFB JUMP JUMPDEST POP PUSH1 0xA0 DUP3 ADD MLOAD PUSH2 0x3CA0 PUSH1 0xE0 DUP6 ADD DUP3 PUSH2 0x3BFB JUMP JUMPDEST POP PUSH1 0xC0 DUP3 ADD MLOAD PUSH2 0x3CB4 PUSH2 0x120 DUP6 ADD DUP3 PUSH2 0x3BFB JUMP JUMPDEST POP POP POP POP JUMP JUMPDEST PUSH1 0x0 PUSH2 0x160 DUP3 ADD SWAP1 POP PUSH2 0x3CD0 PUSH1 0x0 DUP4 ADD DUP5 PUSH2 0x3C2A JUMP JUMPDEST SWAP3 SWAP2 POP POP JUMP INVALID LOG2 PUSH5 0x6970667358 0x22 SLT KECCAK256 PUSH23 0x2E692AEF1A8D30DD0D017E7331AD027098D635D3A20B0F DUP4 EXTCODESIZE 0xA5 DUP12 LOG1 REVERT SWAP16 SWAP3 PUSH5 0x736F6C6343 STOP ADDMOD XOR STOP CALLER "
        },
        "methodIdentifiers": {
          "acceptOwnership()": "79ba5097",
          "approveTokens()": "fd68f223",
          "boosters(uint256)": "70cd22ae",
          "boostingSplitter()": "b754ae8a",
          "distributeRewards()": "6f4a2cd0",
          "distributor()": "bfe10928",
          "farmSplitter()": "89f4b48d",
          "farms(uint256)": "7da470ea",
          "ldt()": "50c2161b",
          "ldtRewards()": "a1a8c312",
          "owner()": "8da5cb5b",
          "pendingOwner()": "e30c3978",
          "recoverOwnership(address)": "0b699abe",
          "renounceOwnership()": "715018a6",
          "setBoostingSplitter(address)": "32fc2840",
          "setFarmSplitter(address)": "d5255643",
          "setStakingSplitter(address)": "15b242a1",
          "setTeamSplitter(address)": "aed6e306",
          "setTrigger(address)": "33a2ed3b",
          "stakers(uint256)": "fd5e6dd1",
          "stakingSplitter()": "e129200e",
          "tbRate()": "71080ec4",
          "tbRewards()": "a9ea9db0",
          "tbb()": "2c246501",
          "tbg()": "7dad9115",
          "tbs()": "903bf98b",
          "teamSplitter()": "0a53c61c",
          "teamVault()": "8ab5212b",
          "transferOwnership(address)": "f2fde38b",
          "trigger()": "7fec8d38"
        }
      }
    }
  }
}