{
  "contracts/StakingSplitter.sol": {
    "StakingSplitter": {
      "abi": [
        {
          "inputs": [
            {
              "internalType": "address",
              "name": "_ldt",
              "type": "address"
            },
            {
              "internalType": "address",
              "name": "_tbb",
              "type": "address"
            },
            {
              "internalType": "address",
              "name": "_tbs",
              "type": "address"
            },
            {
              "internalType": "address",
              "name": "_tbg",
              "type": "address"
            },
            {
              "internalType": "address[]",
              "name": "_stakers",
              "type": "address[]"
            }
          ],
          "stateMutability": "nonpayable",
          "type": "constructor"
        },
        {
          "inputs": [
            {
              "internalType": "address",
              "name": "owner",
              "type": "address"
            }
          ],
          "name": "OwnableInvalidOwner",
          "type": "error"
        },
        {
          "inputs": [
            {
              "internalType": "address",
              "name": "account",
              "type": "address"
            }
          ],
          "name": "OwnableUnauthorizedAccount",
          "type": "error"
        },
        {
          "anonymous": false,
          "inputs": [
            {
              "indexed": true,
              "internalType": "address",
              "name": "previousOwner",
              "type": "address"
            },
            {
              "indexed": true,
              "internalType": "address",
              "name": "newOwner",
              "type": "address"
            }
          ],
          "name": "OwnershipTransferStarted",
          "type": "event"
        },
        {
          "anonymous": false,
          "inputs": [
            {
              "indexed": true,
              "internalType": "address",
              "name": "previousOwner",
              "type": "address"
            },
            {
              "indexed": true,
              "internalType": "address",
              "name": "newOwner",
              "type": "address"
            }
          ],
          "name": "OwnershipTransferred",
          "type": "event"
        },
        {
          "inputs": [],
          "name": "MAX_RATE",
          "outputs": [
            {
              "internalType": "uint256",
              "name": "",
              "type": "uint256"
            }
          ],
          "stateMutability": "view",
          "type": "function"
        },
        {
          "inputs": [],
          "name": "MIN_RATE",
          "outputs": [
            {
              "internalType": "uint256",
              "name": "",
              "type": "uint256"
            }
          ],
          "stateMutability": "view",
          "type": "function"
        },
        {
          "inputs": [],
          "name": "acceptOwnership",
          "outputs": [],
          "stateMutability": "nonpayable",
          "type": "function"
        },
        {
          "inputs": [
            {
              "internalType": "uint256",
              "name": "_ldt",
              "type": "uint256"
            },
            {
              "internalType": "uint256",
              "name": "_tb",
              "type": "uint256"
            }
          ],
          "name": "calculate",
          "outputs": [
            {
              "components": [
                {
                  "components": [
                    {
                      "components": [
                        {
                          "internalType": "uint256",
                          "name": "ldt",
                          "type": "uint256"
                        },
                        {
                          "internalType": "uint256",
                          "name": "tb",
                          "type": "uint256"
                        },
                        {
                          "internalType": "uint256",
                          "name": "ldtLiquidity",
                          "type": "uint256"
                        },
                        {
                          "internalType": "uint256",
                          "name": "tbLiquidity",
                          "type": "uint256"
                        }
                      ],
                      "internalType": "struct RewardsLibrary.Reward",
                      "name": "liquidity",
                      "type": "tuple"
                    },
                    {
                      "internalType": "uint256",
                      "name": "ldt",
                      "type": "uint256"
                    },
                    {
                      "internalType": "uint256",
                      "name": "tb",
                      "type": "uint256"
                    }
                  ],
                  "internalType": "struct RewardsLibrary.Farm",
                  "name": "tbb",
                  "type": "tuple"
                },
                {
                  "components": [
                    {
                      "components": [
                        {
                          "internalType": "uint256",
                          "name": "ldt",
                          "type": "uint256"
                        },
                        {
                          "internalType": "uint256",
                          "name": "tb",
                          "type": "uint256"
                        },
                        {
                          "internalType": "uint256",
                          "name": "ldtLiquidity",
                          "type": "uint256"
                        },
                        {
                          "internalType": "uint256",
                          "name": "tbLiquidity",
                          "type": "uint256"
                        }
                      ],
                      "internalType": "struct RewardsLibrary.Reward",
                      "name": "liquidity",
                      "type": "tuple"
                    },
                    {
                      "internalType": "uint256",
                      "name": "ldt",
                      "type": "uint256"
                    },
                    {
                      "internalType": "uint256",
                      "name": "tb",
                      "type": "uint256"
                    }
                  ],
                  "internalType": "struct RewardsLibrary.Farm",
                  "name": "tbs",
                  "type": "tuple"
                },
                {
                  "components": [
                    {
                      "components": [
                        {
                          "internalType": "uint256",
                          "name": "ldt",
                          "type": "uint256"
                        },
                        {
                          "internalType": "uint256",
                          "name": "tb",
                          "type": "uint256"
                        },
                        {
                          "internalType": "uint256",
                          "name": "ldtLiquidity",
                          "type": "uint256"
                        },
                        {
                          "internalType": "uint256",
                          "name": "tbLiquidity",
                          "type": "uint256"
                        }
                      ],
                      "internalType": "struct RewardsLibrary.Reward",
                      "name": "liquidity",
                      "type": "tuple"
                    },
                    {
                      "internalType": "uint256",
                      "name": "ldt",
                      "type": "uint256"
                    },
                    {
                      "internalType": "uint256",
                      "name": "tb",
                      "type": "uint256"
                    }
                  ],
                  "internalType": "struct RewardsLibrary.Farm",
                  "name": "tbg",
                  "type": "tuple"
                }
              ],
              "internalType": "struct RewardsLibrary.RewardsAmounts",
              "name": "rewards",
              "type": "tuple"
            }
          ],
          "stateMutability": "nonpayable",
          "type": "function"
        },
        {
          "inputs": [],
          "name": "ldt",
          "outputs": [
            {
              "internalType": "address",
              "name": "",
              "type": "address"
            }
          ],
          "stateMutability": "view",
          "type": "function"
        },
        {
          "inputs": [],
          "name": "owner",
          "outputs": [
            {
              "internalType": "address",
              "name": "",
              "type": "address"
            }
          ],
          "stateMutability": "view",
          "type": "function"
        },
        {
          "inputs": [],
          "name": "pendingOwner",
          "outputs": [
            {
              "internalType": "address",
              "name": "",
              "type": "address"
            }
          ],
          "stateMutability": "view",
          "type": "function"
        },
        {
          "inputs": [],
          "name": "renounceOwnership",
          "outputs": [],
          "stateMutability": "nonpayable",
          "type": "function"
        },
        {
          "inputs": [
            {
              "components": [
                {
                  "internalType": "uint256",
                  "name": "ldt",
                  "type": "uint256"
                },
                {
                  "internalType": "uint256",
                  "name": "tb",
                  "type": "uint256"
                }
              ],
              "internalType": "struct RewardsLibrary.RewardRate",
              "name": "_tbbRewardRate",
              "type": "tuple"
            }
          ],
          "name": "setTbbRewardRate",
          "outputs": [],
          "stateMutability": "nonpayable",
          "type": "function"
        },
        {
          "inputs": [
            {
              "components": [
                {
                  "internalType": "uint256",
                  "name": "ldt",
                  "type": "uint256"
                },
                {
                  "internalType": "uint256",
                  "name": "tb",
                  "type": "uint256"
                }
              ],
              "internalType": "struct RewardsLibrary.RewardRate",
              "name": "_tbgRewardRate",
              "type": "tuple"
            }
          ],
          "name": "setTbgRewardRate",
          "outputs": [],
          "stateMutability": "nonpayable",
          "type": "function"
        },
        {
          "inputs": [
            {
              "components": [
                {
                  "internalType": "uint256",
                  "name": "ldt",
                  "type": "uint256"
                },
                {
                  "internalType": "uint256",
                  "name": "tb",
                  "type": "uint256"
                }
              ],
              "internalType": "struct RewardsLibrary.RewardRate",
              "name": "_tbsRewardRate",
              "type": "tuple"
            }
          ],
          "name": "setTbsRewardRate",
          "outputs": [],
          "stateMutability": "nonpayable",
          "type": "function"
        },
        {
          "inputs": [
            {
              "internalType": "uint256",
              "name": "",
              "type": "uint256"
            }
          ],
          "name": "stakers",
          "outputs": [
            {
              "internalType": "address",
              "name": "",
              "type": "address"
            }
          ],
          "stateMutability": "view",
          "type": "function"
        },
        {
          "inputs": [],
          "name": "tbb",
          "outputs": [
            {
              "internalType": "address",
              "name": "",
              "type": "address"
            }
          ],
          "stateMutability": "view",
          "type": "function"
        },
        {
          "inputs": [],
          "name": "tbbRewardRate",
          "outputs": [
            {
              "internalType": "uint256",
              "name": "ldt",
              "type": "uint256"
            },
            {
              "internalType": "uint256",
              "name": "tb",
              "type": "uint256"
            }
          ],
          "stateMutability": "view",
          "type": "function"
        },
        {
          "inputs": [],
          "name": "tbg",
          "outputs": [
            {
              "internalType": "address",
              "name": "",
              "type": "address"
            }
          ],
          "stateMutability": "view",
          "type": "function"
        },
        {
          "inputs": [],
          "name": "tbgRewardRate",
          "outputs": [
            {
              "internalType": "uint256",
              "name": "ldt",
              "type": "uint256"
            },
            {
              "internalType": "uint256",
              "name": "tb",
              "type": "uint256"
            }
          ],
          "stateMutability": "view",
          "type": "function"
        },
        {
          "inputs": [],
          "name": "tbs",
          "outputs": [
            {
              "internalType": "address",
              "name": "",
              "type": "address"
            }
          ],
          "stateMutability": "view",
          "type": "function"
        },
        {
          "inputs": [],
          "name": "tbsRewardRate",
          "outputs": [
            {
              "internalType": "uint256",
              "name": "ldt",
              "type": "uint256"
            },
            {
              "internalType": "uint256",
              "name": "tb",
              "type": "uint256"
            }
          ],
          "stateMutability": "view",
          "type": "function"
        },
        {
          "inputs": [
            {
              "internalType": "address",
              "name": "newOwner",
              "type": "address"
            }
          ],
          "name": "transferOwnership",
          "outputs": [],
          "stateMutability": "nonpayable",
          "type": "function"
        }
      ],
      "evm": {
        "bytecode": {
          "linkReferences": {},
          "object": "6080604052604051806040016040528060c8815260200160c881525060076000820151816000015560208201518160010155505060405180604001604052806101f481526020016101f481525060096000820151816000015560208201518160010155505060405180604001604052806103e881526020016103e8815250600b60008201518160000155602082015181600101555050348015620000a257600080fd5b5060405162001f7a38038062001f7a8339818101604052810190620000c8919062000611565b33600073ffffffffffffffffffffffffffffffffffffffff168173ffffffffffffffffffffffffffffffffffffffff16036200013e5760006040517f1e4fbdf7000000000000000000000000000000000000000000000000000000008152600401620001359190620006c9565b60405180910390fd5b6200014f816200027860201b60201c565b5084600260006101000a81548173ffffffffffffffffffffffffffffffffffffffff021916908373ffffffffffffffffffffffffffffffffffffffff16021790555083600360006101000a81548173ffffffffffffffffffffffffffffffffffffffff021916908373ffffffffffffffffffffffffffffffffffffffff16021790555082600460006101000a81548173ffffffffffffffffffffffffffffffffffffffff021916908373ffffffffffffffffffffffffffffffffffffffff16021790555081600560006101000a81548173ffffffffffffffffffffffffffffffffffffffff021916908373ffffffffffffffffffffffffffffffffffffffff16021790555080600690805190602001906200026c92919062000375565b505050505050620006e6565b600160006101000a81549073ffffffffffffffffffffffffffffffffffffffff0219169055620002ae81620002b160201b60201c565b50565b60008060009054906101000a900473ffffffffffffffffffffffffffffffffffffffff169050816000806101000a81548173ffffffffffffffffffffffffffffffffffffffff021916908373ffffffffffffffffffffffffffffffffffffffff1602179055508173ffffffffffffffffffffffffffffffffffffffff168173ffffffffffffffffffffffffffffffffffffffff167f8be0079c531659141344cd1fd0a4f28419497f9722a3daafe3b4186f6b6457e060405160405180910390a35050565b828054828255906000526020600020908101928215620003f1579160200282015b82811115620003f05782518260006101000a81548173ffffffffffffffffffffffffffffffffffffffff021916908373ffffffffffffffffffffffffffffffffffffffff1602179055509160200191906001019062000396565b5b50905062000400919062000404565b5090565b5b808211156200041f57600081600090555060010162000405565b5090565b6000604051905090565b600080fd5b600080fd5b600073ffffffffffffffffffffffffffffffffffffffff82169050919050565b6000620004648262000437565b9050919050565b620004768162000457565b81146200048257600080fd5b50565b60008151905062000496816200046b565b92915050565b600080fd5b6000601f19601f8301169050919050565b7f4e487b7100000000000000000000000000000000000000000000000000000000600052604160045260246000fd5b620004ec82620004a1565b810181811067ffffffffffffffff821117156200050e576200050d620004b2565b5b80604052505050565b60006200052362000423565b9050620005318282620004e1565b919050565b600067ffffffffffffffff821115620005545762000553620004b2565b5b602082029050602081019050919050565b600080fd5b6000620005816200057b8462000536565b62000517565b90508083825260208201905060208402830185811115620005a757620005a662000565565b5b835b81811015620005d45780620005bf888262000485565b845260208401935050602081019050620005a9565b5050509392505050565b600082601f830112620005f657620005f56200049c565b5b8151620006088482602086016200056a565b91505092915050565b600080600080600060a0868803121562000630576200062f6200042d565b5b6000620006408882890162000485565b9550506020620006538882890162000485565b9450506040620006668882890162000485565b9350506060620006798882890162000485565b925050608086015167ffffffffffffffff8111156200069d576200069c62000432565b5b620006ab88828901620005de565b9150509295509295909350565b620006c38162000457565b82525050565b6000602082019050620006e06000830184620006b8565b92915050565b61188480620006f66000396000f3fe608060405234801561001057600080fd5b50600436106101215760003560e01c80638dfa4363116100ad578063d819bfef11610071578063d819bfef146102b3578063e30c3978146102d1578063eb607586146102ef578063f2fde38b1461030b578063fd5e6dd11461032757610121565b80638dfa43631461020f578063903bf98b1461023f578063a45667f41461025d578063b7f7de1614610279578063c24dbebd1461029557610121565b806370a53926116100f457806370a53926146101a0578063715018a6146101bf57806379ba5097146101c95780637dad9115146101d35780638da5cb5b146101f157610121565b80632c2465011461012657806338cd6c0f146101445780634eecf1fd1461016357806350c2161b14610182575b600080fd5b61012e610357565b60405161013b9190611317565b60405180910390f35b61014c61037d565b60405161015a92919061134b565b60405180910390f35b61016b61038f565b60405161017992919061134b565b60405180910390f35b61018a6103a1565b6040516101979190611317565b60405180910390f35b6101a86103c7565b6040516101b692919061134b565b60405180910390f35b6101c76103d9565b005b6101d16103ed565b005b6101db61047c565b6040516101e89190611317565b60405180910390f35b6101f96104a2565b6040516102069190611317565b60405180910390f35b610229600480360381019061022491906113af565b6104cb565b60405161023691906114d9565b60405180910390f35b610247610e17565b6040516102549190611317565b60405180910390f35b610277600480360381019061027291906115d6565b610e3d565b005b610293600480360381019061028e91906115d6565b610e62565b005b61029d610e87565b6040516102aa9190611603565b60405180910390f35b6102bb610e8e565b6040516102c89190611603565b60405180910390f35b6102d9610e93565b6040516102e69190611317565b60405180910390f35b610309600480360381019061030491906115d6565b610ebd565b005b6103256004803603810190610320919061164a565b610ee2565b005b610341600480360381019061033c9190611677565b610f8f565b60405161034e9190611317565b60405180910390f35b600360009054906101000a900473ffffffffffffffffffffffffffffffffffffffff1681565b600b8060000154908060010154905082565b60078060000154908060010154905082565b600260009054906101000a900473ffffffffffffffffffffffffffffffffffffffff1681565b60098060000154908060010154905082565b6103e1610fce565b6103eb6000611055565b565b60006103f7611086565b90508073ffffffffffffffffffffffffffffffffffffffff16610418610e93565b73ffffffffffffffffffffffffffffffffffffffff161461047057806040517f118cdaa70000000000000000000000000000000000000000000000000000000081526004016104679190611317565b60405180910390fd5b61047981611055565b50565b600560009054906101000a900473ffffffffffffffffffffffffffffffffffffffff1681565b60008060009054906101000a900473ffffffffffffffffffffffffffffffffffffffff16905090565b6104d3611254565b600060646014846104e491906116d3565b6104ee9190611744565b905060006064601e8561050191906116d3565b61050b9190611744565b9050600081838661051c9190611775565b6105269190611775565b905061062460066000815481106105405761053f6117a9565b5b9060005260206000200160009054906101000a900473ffffffffffffffffffffffffffffffffffffffff16600360009054906101000a900473ffffffffffffffffffffffffffffffffffffffff1673ffffffffffffffffffffffffffffffffffffffff16632c4e722e6040518163ffffffff1660e01b81526004016020604051808303816000875af11580156105da573d6000803e3d6000fd5b505050506040513d601f19601f820116820180604052508101906105fe91906117ed565b60076040518060400160405290816000820154815260200160018201548152505061108e565b84600001516000018190525061072c6006600181548110610648576106476117a9565b5b9060005260206000200160009054906101000a900473ffffffffffffffffffffffffffffffffffffffff16600460009054906101000a900473ffffffffffffffffffffffffffffffffffffffff1673ffffffffffffffffffffffffffffffffffffffff16632c4e722e6040518163ffffffff1660e01b81526004016020604051808303816000875af11580156106e2573d6000803e3d6000fd5b505050506040513d601f19601f8201168201806040525081019061070691906117ed565b60096040518060400160405290816000820154815260200160018201548152505061108e565b84602001516000018190525061083460066002815481106107505761074f6117a9565b5b9060005260206000200160009054906101000a900473ffffffffffffffffffffffffffffffffffffffff16600560009054906101000a900473ffffffffffffffffffffffffffffffffffffffff1673ffffffffffffffffffffffffffffffffffffffff16632c4e722e6040518163ffffffff1660e01b81526004016020604051808303816000875af11580156107ea573d6000803e3d6000fd5b505050506040513d601f19601f8201168201806040525081019061080e91906117ed565b600b6040518060400160405290816000820154815260200160018201548152505061108e565b8460400151600001819052506000846040015160000151600001518560200151600001516000015186600001516000015160000151610873919061181a565b61087d919061181a565b90508681111561094a5760008560000151600001516040015190506000866020015160000151604001519050600087604001516000015160400151905060008183856108c9919061181a565b6108d3919061181a565b9050808b856108e291906116d3565b6108ec9190611744565b89600001516020018181525050808b8461090691906116d3565b6109109190611744565b89602001516020018181525050808b8361092a91906116d3565b6109349190611744565b8960400151602001818152505050505050610999565b8460000151600001516000015185600001516020018181525050846020015160000151600001518560200151602001818152505084604001516000015160000151856040015160200181815250505b600360009054906101000a900473ffffffffffffffffffffffffffffffffffffffff1673ffffffffffffffffffffffffffffffffffffffff16632c4e722e6040518163ffffffff1660e01b81526004016020604051808303816000875af1158015610a08573d6000803e3d6000fd5b505050506040513d601f19601f82011682018060405250810190610a2c91906117ed565b84610a379190611744565b856000015160000151602001511115610afa57600360009054906101000a900473ffffffffffffffffffffffffffffffffffffffff1673ffffffffffffffffffffffffffffffffffffffff16632c4e722e6040518163ffffffff1660e01b81526004016020604051808303816000875af1158015610ab9573d6000803e3d6000fd5b505050506040513d601f19601f82011682018060405250810190610add91906117ed565b84610ae89190611744565b85600001516040018181525050610b15565b84600001516000015160200151856000015160400181815250505b600460009054906101000a900473ffffffffffffffffffffffffffffffffffffffff1673ffffffffffffffffffffffffffffffffffffffff16632c4e722e6040518163ffffffff1660e01b81526004016020604051808303816000875af1158015610b84573d6000803e3d6000fd5b505050506040513d601f19601f82011682018060405250810190610ba891906117ed565b83610bb39190611744565b856020015160000151602001511115610c7657600460009054906101000a900473ffffffffffffffffffffffffffffffffffffffff1673ffffffffffffffffffffffffffffffffffffffff16632c4e722e6040518163ffffffff1660e01b81526004016020604051808303816000875af1158015610c35573d6000803e3d6000fd5b505050506040513d601f19601f82011682018060405250810190610c5991906117ed565b83610c649190611744565b85602001516040018181525050610c91565b84602001516000015160200151856020015160400181815250505b600560009054906101000a900473ffffffffffffffffffffffffffffffffffffffff1673ffffffffffffffffffffffffffffffffffffffff16632c4e722e6040518163ffffffff1660e01b81526004016020604051808303816000875af1158015610d00573d6000803e3d6000fd5b505050506040513d601f19601f82011682018060405250810190610d2491906117ed565b82610d2f9190611744565b856040015160000151602001511115610df257600560009054906101000a900473ffffffffffffffffffffffffffffffffffffffff1673ffffffffffffffffffffffffffffffffffffffff16632c4e722e6040518163ffffffff1660e01b81526004016020604051808303816000875af1158015610db1573d6000803e3d6000fd5b505050506040513d601f19601f82011682018060405250810190610dd591906117ed565b82610de09190611744565b85604001516040018181525050610e0d565b84604001516000015160200151856040015160400181815250505b5050505092915050565b600460009054906101000a900473ffffffffffffffffffffffffffffffffffffffff1681565b610e45610fce565b80600b600082015181600001556020820151816001015590505050565b610e6a610fce565b806007600082015181600001556020820151816001015590505050565b620186a081565b600181565b6000600160009054906101000a900473ffffffffffffffffffffffffffffffffffffffff16905090565b610ec5610fce565b806009600082015181600001556020820151816001015590505050565b610eea610fce565b80600160006101000a81548173ffffffffffffffffffffffffffffffffffffffff021916908373ffffffffffffffffffffffffffffffffffffffff1602179055508073ffffffffffffffffffffffffffffffffffffffff16610f4a6104a2565b73ffffffffffffffffffffffffffffffffffffffff167f38d16b8cac22d99fc7c124b9cd0de2d3fa1faef420bfe791d8c362d765e2270060405160405180910390a350565b60068181548110610f9f57600080fd5b906000526020600020016000915054906101000a900473ffffffffffffffffffffffffffffffffffffffff1681565b610fd6611086565b73ffffffffffffffffffffffffffffffffffffffff16610ff46104a2565b73ffffffffffffffffffffffffffffffffffffffff161461105357611017611086565b6040517f118cdaa700000000000000000000000000000000000000000000000000000000815260040161104a9190611317565b60405180910390fd5b565b600160006101000a81549073ffffffffffffffffffffffffffffffffffffffff021916905561108381611190565b50565b600033905090565b611096611287565b600060028573ffffffffffffffffffffffffffffffffffffffff1663817b1cd26040518163ffffffff1660e01b8152600401602060405180830381865afa1580156110e5573d6000803e3d6000fd5b505050506040513d601f19601f8201168201806040525081019061110991906117ed565b6111139190611744565b90506040518060800160405280620186a08560000151878561113591906116d3565b61113f91906116d3565b6111499190611744565b8152602001620186a085602001518461116291906116d3565b61116c9190611744565b8152602001858361117d91906116d3565b8152602001828152509150509392505050565b60008060009054906101000a900473ffffffffffffffffffffffffffffffffffffffff169050816000806101000a81548173ffffffffffffffffffffffffffffffffffffffff021916908373ffffffffffffffffffffffffffffffffffffffff1602179055508173ffffffffffffffffffffffffffffffffffffffff168173ffffffffffffffffffffffffffffffffffffffff167f8be0079c531659141344cd1fd0a4f28419497f9722a3daafe3b4186f6b6457e060405160405180910390a35050565b60405180606001604052806112676112af565b81526020016112746112af565b81526020016112816112af565b81525090565b6040518060800160405280600081526020016000815260200160008152602001600081525090565b60405180606001604052806112c2611287565b815260200160008152602001600081525090565b600073ffffffffffffffffffffffffffffffffffffffff82169050919050565b6000611301826112d6565b9050919050565b611311816112f6565b82525050565b600060208201905061132c6000830184611308565b92915050565b6000819050919050565b61134581611332565b82525050565b6000604082019050611360600083018561133c565b61136d602083018461133c565b9392505050565b6000604051905090565b600080fd5b61138c81611332565b811461139757600080fd5b50565b6000813590506113a981611383565b92915050565b600080604083850312156113c6576113c561137e565b5b60006113d48582860161139a565b92505060206113e58582860161139a565b9150509250929050565b6113f881611332565b82525050565b60808201600082015161141460008501826113ef565b50602082015161142760208501826113ef565b50604082015161143a60408501826113ef565b50606082015161144d60608501826113ef565b50505050565b60c08201600082015161146960008501826113fe565b50602082015161147c60808501826113ef565b50604082015161148f60a08501826113ef565b50505050565b610240820160008201516114ac6000850182611453565b5060208201516114bf60c0850182611453565b5060408201516114d3610180850182611453565b50505050565b6000610240820190506114ef6000830184611495565b92915050565b600080fd5b6000601f19601f8301169050919050565b7f4e487b7100000000000000000000000000000000000000000000000000000000600052604160045260246000fd5b611543826114fa565b810181811067ffffffffffffffff821117156115625761156161150b565b5b80604052505050565b6000611575611374565b9050611581828261153a565b919050565b60006040828403121561159c5761159b6114f5565b5b6115a6604061156b565b905060006115b68482850161139a565b60008301525060206115ca8482850161139a565b60208301525092915050565b6000604082840312156115ec576115eb61137e565b5b60006115fa84828501611586565b91505092915050565b6000602082019050611618600083018461133c565b92915050565b611627816112f6565b811461163257600080fd5b50565b6000813590506116448161161e565b92915050565b6000602082840312156116605761165f61137e565b5b600061166e84828501611635565b91505092915050565b60006020828403121561168d5761168c61137e565b5b600061169b8482850161139a565b91505092915050565b7f4e487b7100000000000000000000000000000000000000000000000000000000600052601160045260246000fd5b60006116de82611332565b91506116e983611332565b92508282026116f781611332565b9150828204841483151761170e5761170d6116a4565b5b5092915050565b7f4e487b7100000000000000000000000000000000000000000000000000000000600052601260045260246000fd5b600061174f82611332565b915061175a83611332565b92508261176a57611769611715565b5b828204905092915050565b600061178082611332565b915061178b83611332565b92508282039050818111156117a3576117a26116a4565b5b92915050565b7f4e487b7100000000000000000000000000000000000000000000000000000000600052603260045260246000fd5b6000815190506117e781611383565b92915050565b6000602082840312156118035761180261137e565b5b6000611811848285016117d8565b91505092915050565b600061182582611332565b915061183083611332565b9250828201905080821115611848576118476116a4565b5b9291505056fea2646970667358221220960e67c3e3d00e5945fdbe8dff38ef825037915270947157d1c02a1cfb243cfe64736f6c63430008180033",
          "opcodes": "PUSH1 0x80 PUSH1 0x40 MSTORE PUSH1 0x40 MLOAD DUP1 PUSH1 0x40 ADD PUSH1 0x40 MSTORE DUP1 PUSH1 0xC8 DUP2 MSTORE PUSH1 0x20 ADD PUSH1 0xC8 DUP2 MSTORE POP PUSH1 0x7 PUSH1 0x0 DUP3 ADD MLOAD DUP2 PUSH1 0x0 ADD SSTORE PUSH1 0x20 DUP3 ADD MLOAD DUP2 PUSH1 0x1 ADD SSTORE POP POP PUSH1 0x40 MLOAD DUP1 PUSH1 0x40 ADD PUSH1 0x40 MSTORE DUP1 PUSH2 0x1F4 DUP2 MSTORE PUSH1 0x20 ADD PUSH2 0x1F4 DUP2 MSTORE POP PUSH1 0x9 PUSH1 0x0 DUP3 ADD MLOAD DUP2 PUSH1 0x0 ADD SSTORE PUSH1 0x20 DUP3 ADD MLOAD DUP2 PUSH1 0x1 ADD SSTORE POP POP PUSH1 0x40 MLOAD DUP1 PUSH1 0x40 ADD PUSH1 0x40 MSTORE DUP1 PUSH2 0x3E8 DUP2 MSTORE PUSH1 0x20 ADD PUSH2 0x3E8 DUP2 MSTORE POP PUSH1 0xB PUSH1 0x0 DUP3 ADD MLOAD DUP2 PUSH1 0x0 ADD SSTORE PUSH1 0x20 DUP3 ADD MLOAD DUP2 PUSH1 0x1 ADD SSTORE POP POP CALLVALUE DUP1 ISZERO PUSH3 0xA2 JUMPI PUSH1 0x0 DUP1 REVERT JUMPDEST POP PUSH1 0x40 MLOAD PUSH3 0x1F7A CODESIZE SUB DUP1 PUSH3 0x1F7A DUP4 CODECOPY DUP2 DUP2 ADD PUSH1 0x40 MSTORE DUP2 ADD SWAP1 PUSH3 0xC8 SWAP2 SWAP1 PUSH3 0x611 JUMP JUMPDEST CALLER PUSH1 0x0 PUSH20 0xFFFFFFFFFFFFFFFFFFFFFFFFFFFFFFFFFFFFFFFF AND DUP2 PUSH20 0xFFFFFFFFFFFFFFFFFFFFFFFFFFFFFFFFFFFFFFFF AND SUB PUSH3 0x13E JUMPI PUSH1 0x0 PUSH1 0x40 MLOAD PUSH32 0x1E4FBDF700000000000000000000000000000000000000000000000000000000 DUP2 MSTORE PUSH1 0x4 ADD PUSH3 0x135 SWAP2 SWAP1 PUSH3 0x6C9 JUMP JUMPDEST PUSH1 0x40 MLOAD DUP1 SWAP2 SUB SWAP1 REVERT JUMPDEST PUSH3 0x14F DUP2 PUSH3 0x278 PUSH1 0x20 SHL PUSH1 0x20 SHR JUMP JUMPDEST POP DUP5 PUSH1 0x2 PUSH1 0x0 PUSH2 0x100 EXP DUP2 SLOAD DUP2 PUSH20 0xFFFFFFFFFFFFFFFFFFFFFFFFFFFFFFFFFFFFFFFF MUL NOT AND SWAP1 DUP4 PUSH20 0xFFFFFFFFFFFFFFFFFFFFFFFFFFFFFFFFFFFFFFFF AND MUL OR SWAP1 SSTORE POP DUP4 PUSH1 0x3 PUSH1 0x0 PUSH2 0x100 EXP DUP2 SLOAD DUP2 PUSH20 0xFFFFFFFFFFFFFFFFFFFFFFFFFFFFFFFFFFFFFFFF MUL NOT AND SWAP1 DUP4 PUSH20 0xFFFFFFFFFFFFFFFFFFFFFFFFFFFFFFFFFFFFFFFF AND MUL OR SWAP1 SSTORE POP DUP3 PUSH1 0x4 PUSH1 0x0 PUSH2 0x100 EXP DUP2 SLOAD DUP2 PUSH20 0xFFFFFFFFFFFFFFFFFFFFFFFFFFFFFFFFFFFFFFFF MUL NOT AND SWAP1 DUP4 PUSH20 0xFFFFFFFFFFFFFFFFFFFFFFFFFFFFFFFFFFFFFFFF AND MUL OR SWAP1 SSTORE POP DUP2 PUSH1 0x5 PUSH1 0x0 PUSH2 0x100 EXP DUP2 SLOAD DUP2 PUSH20 0xFFFFFFFFFFFFFFFFFFFFFFFFFFFFFFFFFFFFFFFF MUL NOT AND SWAP1 DUP4 PUSH20 0xFFFFFFFFFFFFFFFFFFFFFFFFFFFFFFFFFFFFFFFF AND MUL OR SWAP1 SSTORE POP DUP1 PUSH1 0x6 SWAP1 DUP1 MLOAD SWAP1 PUSH1 0x20 ADD SWAP1 PUSH3 0x26C SWAP3 SWAP2 SWAP1 PUSH3 0x375 JUMP JUMPDEST POP POP POP POP POP POP PUSH3 0x6E6 JUMP JUMPDEST PUSH1 0x1 PUSH1 0x0 PUSH2 0x100 EXP DUP2 SLOAD SWAP1 PUSH20 0xFFFFFFFFFFFFFFFFFFFFFFFFFFFFFFFFFFFFFFFF MUL NOT AND SWAP1 SSTORE PUSH3 0x2AE DUP2 PUSH3 0x2B1 PUSH1 0x20 SHL PUSH1 0x20 SHR JUMP JUMPDEST POP JUMP JUMPDEST PUSH1 0x0 DUP1 PUSH1 0x0 SWAP1 SLOAD SWAP1 PUSH2 0x100 EXP SWAP1 DIV PUSH20 0xFFFFFFFFFFFFFFFFFFFFFFFFFFFFFFFFFFFFFFFF AND SWAP1 POP DUP2 PUSH1 0x0 DUP1 PUSH2 0x100 EXP DUP2 SLOAD DUP2 PUSH20 0xFFFFFFFFFFFFFFFFFFFFFFFFFFFFFFFFFFFFFFFF MUL NOT AND SWAP1 DUP4 PUSH20 0xFFFFFFFFFFFFFFFFFFFFFFFFFFFFFFFFFFFFFFFF AND MUL OR SWAP1 SSTORE POP DUP2 PUSH20 0xFFFFFFFFFFFFFFFFFFFFFFFFFFFFFFFFFFFFFFFF AND DUP2 PUSH20 0xFFFFFFFFFFFFFFFFFFFFFFFFFFFFFFFFFFFFFFFF AND PUSH32 0x8BE0079C531659141344CD1FD0A4F28419497F9722A3DAAFE3B4186F6B6457E0 PUSH1 0x40 MLOAD PUSH1 0x40 MLOAD DUP1 SWAP2 SUB SWAP1 LOG3 POP POP JUMP JUMPDEST DUP3 DUP1 SLOAD DUP3 DUP3 SSTORE SWAP1 PUSH1 0x0 MSTORE PUSH1 0x20 PUSH1 0x0 KECCAK256 SWAP1 DUP2 ADD SWAP3 DUP3 ISZERO PUSH3 0x3F1 JUMPI SWAP2 PUSH1 0x20 MUL DUP3 ADD JUMPDEST DUP3 DUP2 GT ISZERO PUSH3 0x3F0 JUMPI DUP3 MLOAD DUP3 PUSH1 0x0 PUSH2 0x100 EXP DUP2 SLOAD DUP2 PUSH20 0xFFFFFFFFFFFFFFFFFFFFFFFFFFFFFFFFFFFFFFFF MUL NOT AND SWAP1 DUP4 PUSH20 0xFFFFFFFFFFFFFFFFFFFFFFFFFFFFFFFFFFFFFFFF AND MUL OR SWAP1 SSTORE POP SWAP2 PUSH1 0x20 ADD SWAP2 SWAP1 PUSH1 0x1 ADD SWAP1 PUSH3 0x396 JUMP JUMPDEST JUMPDEST POP SWAP1 POP PUSH3 0x400 SWAP2 SWAP1 PUSH3 0x404 JUMP JUMPDEST POP SWAP1 JUMP JUMPDEST JUMPDEST DUP1 DUP3 GT ISZERO PUSH3 0x41F JUMPI PUSH1 0x0 DUP2 PUSH1 0x0 SWAP1 SSTORE POP PUSH1 0x1 ADD PUSH3 0x405 JUMP JUMPDEST POP SWAP1 JUMP JUMPDEST PUSH1 0x0 PUSH1 0x40 MLOAD SWAP1 POP SWAP1 JUMP JUMPDEST PUSH1 0x0 DUP1 REVERT JUMPDEST PUSH1 0x0 DUP1 REVERT JUMPDEST PUSH1 0x0 PUSH20 0xFFFFFFFFFFFFFFFFFFFFFFFFFFFFFFFFFFFFFFFF DUP3 AND SWAP1 POP SWAP2 SWAP1 POP JUMP JUMPDEST PUSH1 0x0 PUSH3 0x464 DUP3 PUSH3 0x437 JUMP JUMPDEST SWAP1 POP SWAP2 SWAP1 POP JUMP JUMPDEST PUSH3 0x476 DUP2 PUSH3 0x457 JUMP JUMPDEST DUP2 EQ PUSH3 0x482 JUMPI PUSH1 0x0 DUP1 REVERT JUMPDEST POP JUMP JUMPDEST PUSH1 0x0 DUP2 MLOAD SWAP1 POP PUSH3 0x496 DUP2 PUSH3 0x46B JUMP JUMPDEST SWAP3 SWAP2 POP POP JUMP JUMPDEST PUSH1 0x0 DUP1 REVERT JUMPDEST PUSH1 0x0 PUSH1 0x1F NOT PUSH1 0x1F DUP4 ADD AND SWAP1 POP SWAP2 SWAP1 POP JUMP JUMPDEST PUSH32 0x4E487B7100000000000000000000000000000000000000000000000000000000 PUSH1 0x0 MSTORE PUSH1 0x41 PUSH1 0x4 MSTORE PUSH1 0x24 PUSH1 0x0 REVERT JUMPDEST PUSH3 0x4EC DUP3 PUSH3 0x4A1 JUMP JUMPDEST DUP2 ADD DUP2 DUP2 LT PUSH8 0xFFFFFFFFFFFFFFFF DUP3 GT OR ISZERO PUSH3 0x50E JUMPI PUSH3 0x50D PUSH3 0x4B2 JUMP JUMPDEST JUMPDEST DUP1 PUSH1 0x40 MSTORE POP POP POP JUMP JUMPDEST PUSH1 0x0 PUSH3 0x523 PUSH3 0x423 JUMP JUMPDEST SWAP1 POP PUSH3 0x531 DUP3 DUP3 PUSH3 0x4E1 JUMP JUMPDEST SWAP2 SWAP1 POP JUMP JUMPDEST PUSH1 0x0 PUSH8 0xFFFFFFFFFFFFFFFF DUP3 GT ISZERO PUSH3 0x554 JUMPI PUSH3 0x553 PUSH3 0x4B2 JUMP JUMPDEST JUMPDEST PUSH1 0x20 DUP3 MUL SWAP1 POP PUSH1 0x20 DUP2 ADD SWAP1 POP SWAP2 SWAP1 POP JUMP JUMPDEST PUSH1 0x0 DUP1 REVERT JUMPDEST PUSH1 0x0 PUSH3 0x581 PUSH3 0x57B DUP5 PUSH3 0x536 JUMP JUMPDEST PUSH3 0x517 JUMP JUMPDEST SWAP1 POP DUP1 DUP4 DUP3 MSTORE PUSH1 0x20 DUP3 ADD SWAP1 POP PUSH1 0x20 DUP5 MUL DUP4 ADD DUP6 DUP2 GT ISZERO PUSH3 0x5A7 JUMPI PUSH3 0x5A6 PUSH3 0x565 JUMP JUMPDEST JUMPDEST DUP4 JUMPDEST DUP2 DUP2 LT ISZERO PUSH3 0x5D4 JUMPI DUP1 PUSH3 0x5BF DUP9 DUP3 PUSH3 0x485 JUMP JUMPDEST DUP5 MSTORE PUSH1 0x20 DUP5 ADD SWAP4 POP POP PUSH1 0x20 DUP2 ADD SWAP1 POP PUSH3 0x5A9 JUMP JUMPDEST POP POP POP SWAP4 SWAP3 POP POP POP JUMP JUMPDEST PUSH1 0x0 DUP3 PUSH1 0x1F DUP4 ADD SLT PUSH3 0x5F6 JUMPI PUSH3 0x5F5 PUSH3 0x49C JUMP JUMPDEST JUMPDEST DUP2 MLOAD PUSH3 0x608 DUP5 DUP3 PUSH1 0x20 DUP7 ADD PUSH3 0x56A JUMP JUMPDEST SWAP2 POP POP SWAP3 SWAP2 POP POP JUMP JUMPDEST PUSH1 0x0 DUP1 PUSH1 0x0 DUP1 PUSH1 0x0 PUSH1 0xA0 DUP7 DUP9 SUB SLT ISZERO PUSH3 0x630 JUMPI PUSH3 0x62F PUSH3 0x42D JUMP JUMPDEST JUMPDEST PUSH1 0x0 PUSH3 0x640 DUP9 DUP3 DUP10 ADD PUSH3 0x485 JUMP JUMPDEST SWAP6 POP POP PUSH1 0x20 PUSH3 0x653 DUP9 DUP3 DUP10 ADD PUSH3 0x485 JUMP JUMPDEST SWAP5 POP POP PUSH1 0x40 PUSH3 0x666 DUP9 DUP3 DUP10 ADD PUSH3 0x485 JUMP JUMPDEST SWAP4 POP POP PUSH1 0x60 PUSH3 0x679 DUP9 DUP3 DUP10 ADD PUSH3 0x485 JUMP JUMPDEST SWAP3 POP POP PUSH1 0x80 DUP7 ADD MLOAD PUSH8 0xFFFFFFFFFFFFFFFF DUP2 GT ISZERO PUSH3 0x69D JUMPI PUSH3 0x69C PUSH3 0x432 JUMP JUMPDEST JUMPDEST PUSH3 0x6AB DUP9 DUP3 DUP10 ADD PUSH3 0x5DE JUMP JUMPDEST SWAP2 POP POP SWAP3 SWAP6 POP SWAP3 SWAP6 SWAP1 SWAP4 POP JUMP JUMPDEST PUSH3 0x6C3 DUP2 PUSH3 0x457 JUMP JUMPDEST DUP3 MSTORE POP POP JUMP JUMPDEST PUSH1 0x0 PUSH1 0x20 DUP3 ADD SWAP1 POP PUSH3 0x6E0 PUSH1 0x0 DUP4 ADD DUP5 PUSH3 0x6B8 JUMP JUMPDEST SWAP3 SWAP2 POP POP JUMP JUMPDEST PUSH2 0x1884 DUP1 PUSH3 0x6F6 PUSH1 0x0 CODECOPY PUSH1 0x0 RETURN INVALID PUSH1 0x80 PUSH1 0x40 MSTORE CALLVALUE DUP1 ISZERO PUSH2 0x10 JUMPI PUSH1 0x0 DUP1 REVERT JUMPDEST POP PUSH1 0x4 CALLDATASIZE LT PUSH2 0x121 JUMPI PUSH1 0x0 CALLDATALOAD PUSH1 0xE0 SHR DUP1 PUSH4 0x8DFA4363 GT PUSH2 0xAD JUMPI DUP1 PUSH4 0xD819BFEF GT PUSH2 0x71 JUMPI DUP1 PUSH4 0xD819BFEF EQ PUSH2 0x2B3 JUMPI DUP1 PUSH4 0xE30C3978 EQ PUSH2 0x2D1 JUMPI DUP1 PUSH4 0xEB607586 EQ PUSH2 0x2EF JUMPI DUP1 PUSH4 0xF2FDE38B EQ PUSH2 0x30B JUMPI DUP1 PUSH4 0xFD5E6DD1 EQ PUSH2 0x327 JUMPI PUSH2 0x121 JUMP JUMPDEST DUP1 PUSH4 0x8DFA4363 EQ PUSH2 0x20F JUMPI DUP1 PUSH4 0x903BF98B EQ PUSH2 0x23F JUMPI DUP1 PUSH4 0xA45667F4 EQ PUSH2 0x25D JUMPI DUP1 PUSH4 0xB7F7DE16 EQ PUSH2 0x279 JUMPI DUP1 PUSH4 0xC24DBEBD EQ PUSH2 0x295 JUMPI PUSH2 0x121 JUMP JUMPDEST DUP1 PUSH4 0x70A53926 GT PUSH2 0xF4 JUMPI DUP1 PUSH4 0x70A53926 EQ PUSH2 0x1A0 JUMPI DUP1 PUSH4 0x715018A6 EQ PUSH2 0x1BF JUMPI DUP1 PUSH4 0x79BA5097 EQ PUSH2 0x1C9 JUMPI DUP1 PUSH4 0x7DAD9115 EQ PUSH2 0x1D3 JUMPI DUP1 PUSH4 0x8DA5CB5B EQ PUSH2 0x1F1 JUMPI PUSH2 0x121 JUMP JUMPDEST DUP1 PUSH4 0x2C246501 EQ PUSH2 0x126 JUMPI DUP1 PUSH4 0x38CD6C0F EQ PUSH2 0x144 JUMPI DUP1 PUSH4 0x4EECF1FD EQ PUSH2 0x163 JUMPI DUP1 PUSH4 0x50C2161B EQ PUSH2 0x182 JUMPI JUMPDEST PUSH1 0x0 DUP1 REVERT JUMPDEST PUSH2 0x12E PUSH2 0x357 JUMP JUMPDEST PUSH1 0x40 MLOAD PUSH2 0x13B SWAP2 SWAP1 PUSH2 0x1317 JUMP JUMPDEST PUSH1 0x40 MLOAD DUP1 SWAP2 SUB SWAP1 RETURN JUMPDEST PUSH2 0x14C PUSH2 0x37D JUMP JUMPDEST PUSH1 0x40 MLOAD PUSH2 0x15A SWAP3 SWAP2 SWAP1 PUSH2 0x134B JUMP JUMPDEST PUSH1 0x40 MLOAD DUP1 SWAP2 SUB SWAP1 RETURN JUMPDEST PUSH2 0x16B PUSH2 0x38F JUMP JUMPDEST PUSH1 0x40 MLOAD PUSH2 0x179 SWAP3 SWAP2 SWAP1 PUSH2 0x134B JUMP JUMPDEST PUSH1 0x40 MLOAD DUP1 SWAP2 SUB SWAP1 RETURN JUMPDEST PUSH2 0x18A PUSH2 0x3A1 JUMP JUMPDEST PUSH1 0x40 MLOAD PUSH2 0x197 SWAP2 SWAP1 PUSH2 0x1317 JUMP JUMPDEST PUSH1 0x40 MLOAD DUP1 SWAP2 SUB SWAP1 RETURN JUMPDEST PUSH2 0x1A8 PUSH2 0x3C7 JUMP JUMPDEST PUSH1 0x40 MLOAD PUSH2 0x1B6 SWAP3 SWAP2 SWAP1 PUSH2 0x134B JUMP JUMPDEST PUSH1 0x40 MLOAD DUP1 SWAP2 SUB SWAP1 RETURN JUMPDEST PUSH2 0x1C7 PUSH2 0x3D9 JUMP JUMPDEST STOP JUMPDEST PUSH2 0x1D1 PUSH2 0x3ED JUMP JUMPDEST STOP JUMPDEST PUSH2 0x1DB PUSH2 0x47C JUMP JUMPDEST PUSH1 0x40 MLOAD PUSH2 0x1E8 SWAP2 SWAP1 PUSH2 0x1317 JUMP JUMPDEST PUSH1 0x40 MLOAD DUP1 SWAP2 SUB SWAP1 RETURN JUMPDEST PUSH2 0x1F9 PUSH2 0x4A2 JUMP JUMPDEST PUSH1 0x40 MLOAD PUSH2 0x206 SWAP2 SWAP1 PUSH2 0x1317 JUMP JUMPDEST PUSH1 0x40 MLOAD DUP1 SWAP2 SUB SWAP1 RETURN JUMPDEST PUSH2 0x229 PUSH1 0x4 DUP1 CALLDATASIZE SUB DUP2 ADD SWAP1 PUSH2 0x224 SWAP2 SWAP1 PUSH2 0x13AF JUMP JUMPDEST PUSH2 0x4CB JUMP JUMPDEST PUSH1 0x40 MLOAD PUSH2 0x236 SWAP2 SWAP1 PUSH2 0x14D9 JUMP JUMPDEST PUSH1 0x40 MLOAD DUP1 SWAP2 SUB SWAP1 RETURN JUMPDEST PUSH2 0x247 PUSH2 0xE17 JUMP JUMPDEST PUSH1 0x40 MLOAD PUSH2 0x254 SWAP2 SWAP1 PUSH2 0x1317 JUMP JUMPDEST PUSH1 0x40 MLOAD DUP1 SWAP2 SUB SWAP1 RETURN JUMPDEST PUSH2 0x277 PUSH1 0x4 DUP1 CALLDATASIZE SUB DUP2 ADD SWAP1 PUSH2 0x272 SWAP2 SWAP1 PUSH2 0x15D6 JUMP JUMPDEST PUSH2 0xE3D JUMP JUMPDEST STOP JUMPDEST PUSH2 0x293 PUSH1 0x4 DUP1 CALLDATASIZE SUB DUP2 ADD SWAP1 PUSH2 0x28E SWAP2 SWAP1 PUSH2 0x15D6 JUMP JUMPDEST PUSH2 0xE62 JUMP JUMPDEST STOP JUMPDEST PUSH2 0x29D PUSH2 0xE87 JUMP JUMPDEST PUSH1 0x40 MLOAD PUSH2 0x2AA SWAP2 SWAP1 PUSH2 0x1603 JUMP JUMPDEST PUSH1 0x40 MLOAD DUP1 SWAP2 SUB SWAP1 RETURN JUMPDEST PUSH2 0x2BB PUSH2 0xE8E JUMP JUMPDEST PUSH1 0x40 MLOAD PUSH2 0x2C8 SWAP2 SWAP1 PUSH2 0x1603 JUMP JUMPDEST PUSH1 0x40 MLOAD DUP1 SWAP2 SUB SWAP1 RETURN JUMPDEST PUSH2 0x2D9 PUSH2 0xE93 JUMP JUMPDEST PUSH1 0x40 MLOAD PUSH2 0x2E6 SWAP2 SWAP1 PUSH2 0x1317 JUMP JUMPDEST PUSH1 0x40 MLOAD DUP1 SWAP2 SUB SWAP1 RETURN JUMPDEST PUSH2 0x309 PUSH1 0x4 DUP1 CALLDATASIZE SUB DUP2 ADD SWAP1 PUSH2 0x304 SWAP2 SWAP1 PUSH2 0x15D6 JUMP JUMPDEST PUSH2 0xEBD JUMP JUMPDEST STOP JUMPDEST PUSH2 0x325 PUSH1 0x4 DUP1 CALLDATASIZE SUB DUP2 ADD SWAP1 PUSH2 0x320 SWAP2 SWAP1 PUSH2 0x164A JUMP JUMPDEST PUSH2 0xEE2 JUMP JUMPDEST STOP JUMPDEST PUSH2 0x341 PUSH1 0x4 DUP1 CALLDATASIZE SUB DUP2 ADD SWAP1 PUSH2 0x33C SWAP2 SWAP1 PUSH2 0x1677 JUMP JUMPDEST PUSH2 0xF8F JUMP JUMPDEST PUSH1 0x40 MLOAD PUSH2 0x34E SWAP2 SWAP1 PUSH2 0x1317 JUMP JUMPDEST PUSH1 0x40 MLOAD DUP1 SWAP2 SUB SWAP1 RETURN JUMPDEST PUSH1 0x3 PUSH1 0x0 SWAP1 SLOAD SWAP1 PUSH2 0x100 EXP SWAP1 DIV PUSH20 0xFFFFFFFFFFFFFFFFFFFFFFFFFFFFFFFFFFFFFFFF AND DUP2 JUMP JUMPDEST PUSH1 0xB DUP1 PUSH1 0x0 ADD SLOAD SWAP1 DUP1 PUSH1 0x1 ADD SLOAD SWAP1 POP DUP3 JUMP JUMPDEST PUSH1 0x7 DUP1 PUSH1 0x0 ADD SLOAD SWAP1 DUP1 PUSH1 0x1 ADD SLOAD SWAP1 POP DUP3 JUMP JUMPDEST PUSH1 0x2 PUSH1 0x0 SWAP1 SLOAD SWAP1 PUSH2 0x100 EXP SWAP1 DIV PUSH20 0xFFFFFFFFFFFFFFFFFFFFFFFFFFFFFFFFFFFFFFFF AND DUP2 JUMP JUMPDEST PUSH1 0x9 DUP1 PUSH1 0x0 ADD SLOAD SWAP1 DUP1 PUSH1 0x1 ADD SLOAD SWAP1 POP DUP3 JUMP JUMPDEST PUSH2 0x3E1 PUSH2 0xFCE JUMP JUMPDEST PUSH2 0x3EB PUSH1 0x0 PUSH2 0x1055 JUMP JUMPDEST JUMP JUMPDEST PUSH1 0x0 PUSH2 0x3F7 PUSH2 0x1086 JUMP JUMPDEST SWAP1 POP DUP1 PUSH20 0xFFFFFFFFFFFFFFFFFFFFFFFFFFFFFFFFFFFFFFFF AND PUSH2 0x418 PUSH2 0xE93 JUMP JUMPDEST PUSH20 0xFFFFFFFFFFFFFFFFFFFFFFFFFFFFFFFFFFFFFFFF AND EQ PUSH2 0x470 JUMPI DUP1 PUSH1 0x40 MLOAD PUSH32 0x118CDAA700000000000000000000000000000000000000000000000000000000 DUP2 MSTORE PUSH1 0x4 ADD PUSH2 0x467 SWAP2 SWAP1 PUSH2 0x1317 JUMP JUMPDEST PUSH1 0x40 MLOAD DUP1 SWAP2 SUB SWAP1 REVERT JUMPDEST PUSH2 0x479 DUP2 PUSH2 0x1055 JUMP JUMPDEST POP JUMP JUMPDEST PUSH1 0x5 PUSH1 0x0 SWAP1 SLOAD SWAP1 PUSH2 0x100 EXP SWAP1 DIV PUSH20 0xFFFFFFFFFFFFFFFFFFFFFFFFFFFFFFFFFFFFFFFF AND DUP2 JUMP JUMPDEST PUSH1 0x0 DUP1 PUSH1 0x0 SWAP1 SLOAD SWAP1 PUSH2 0x100 EXP SWAP1 DIV PUSH20 0xFFFFFFFFFFFFFFFFFFFFFFFFFFFFFFFFFFFFFFFF AND SWAP1 POP SWAP1 JUMP JUMPDEST PUSH2 0x4D3 PUSH2 0x1254 JUMP JUMPDEST PUSH1 0x0 PUSH1 0x64 PUSH1 0x14 DUP5 PUSH2 0x4E4 SWAP2 SWAP1 PUSH2 0x16D3 JUMP JUMPDEST PUSH2 0x4EE SWAP2 SWAP1 PUSH2 0x1744 JUMP JUMPDEST SWAP1 POP PUSH1 0x0 PUSH1 0x64 PUSH1 0x1E DUP6 PUSH2 0x501 SWAP2 SWAP1 PUSH2 0x16D3 JUMP JUMPDEST PUSH2 0x50B SWAP2 SWAP1 PUSH2 0x1744 JUMP JUMPDEST SWAP1 POP PUSH1 0x0 DUP2 DUP4 DUP7 PUSH2 0x51C SWAP2 SWAP1 PUSH2 0x1775 JUMP JUMPDEST PUSH2 0x526 SWAP2 SWAP1 PUSH2 0x1775 JUMP JUMPDEST SWAP1 POP PUSH2 0x624 PUSH1 0x6 PUSH1 0x0 DUP2 SLOAD DUP2 LT PUSH2 0x540 JUMPI PUSH2 0x53F PUSH2 0x17A9 JUMP JUMPDEST JUMPDEST SWAP1 PUSH1 0x0 MSTORE PUSH1 0x20 PUSH1 0x0 KECCAK256 ADD PUSH1 0x0 SWAP1 SLOAD SWAP1 PUSH2 0x100 EXP SWAP1 DIV PUSH20 0xFFFFFFFFFFFFFFFFFFFFFFFFFFFFFFFFFFFFFFFF AND PUSH1 0x3 PUSH1 0x0 SWAP1 SLOAD SWAP1 PUSH2 0x100 EXP SWAP1 DIV PUSH20 0xFFFFFFFFFFFFFFFFFFFFFFFFFFFFFFFFFFFFFFFF AND PUSH20 0xFFFFFFFFFFFFFFFFFFFFFFFFFFFFFFFFFFFFFFFF AND PUSH4 0x2C4E722E PUSH1 0x40 MLOAD DUP2 PUSH4 0xFFFFFFFF AND PUSH1 0xE0 SHL DUP2 MSTORE PUSH1 0x4 ADD PUSH1 0x20 PUSH1 0x40 MLOAD DUP1 DUP4 SUB DUP2 PUSH1 0x0 DUP8 GAS CALL ISZERO DUP1 ISZERO PUSH2 0x5DA JUMPI RETURNDATASIZE PUSH1 0x0 DUP1 RETURNDATACOPY RETURNDATASIZE PUSH1 0x0 REVERT JUMPDEST POP POP POP POP PUSH1 0x40 MLOAD RETURNDATASIZE PUSH1 0x1F NOT PUSH1 0x1F DUP3 ADD AND DUP3 ADD DUP1 PUSH1 0x40 MSTORE POP DUP2 ADD SWAP1 PUSH2 0x5FE SWAP2 SWAP1 PUSH2 0x17ED JUMP JUMPDEST PUSH1 0x7 PUSH1 0x40 MLOAD DUP1 PUSH1 0x40 ADD PUSH1 0x40 MSTORE SWAP1 DUP2 PUSH1 0x0 DUP3 ADD SLOAD DUP2 MSTORE PUSH1 0x20 ADD PUSH1 0x1 DUP3 ADD SLOAD DUP2 MSTORE POP POP PUSH2 0x108E JUMP JUMPDEST DUP5 PUSH1 0x0 ADD MLOAD PUSH1 0x0 ADD DUP2 SWAP1 MSTORE POP PUSH2 0x72C PUSH1 0x6 PUSH1 0x1 DUP2 SLOAD DUP2 LT PUSH2 0x648 JUMPI PUSH2 0x647 PUSH2 0x17A9 JUMP JUMPDEST JUMPDEST SWAP1 PUSH1 0x0 MSTORE PUSH1 0x20 PUSH1 0x0 KECCAK256 ADD PUSH1 0x0 SWAP1 SLOAD SWAP1 PUSH2 0x100 EXP SWAP1 DIV PUSH20 0xFFFFFFFFFFFFFFFFFFFFFFFFFFFFFFFFFFFFFFFF AND PUSH1 0x4 PUSH1 0x0 SWAP1 SLOAD SWAP1 PUSH2 0x100 EXP SWAP1 DIV PUSH20 0xFFFFFFFFFFFFFFFFFFFFFFFFFFFFFFFFFFFFFFFF AND PUSH20 0xFFFFFFFFFFFFFFFFFFFFFFFFFFFFFFFFFFFFFFFF AND PUSH4 0x2C4E722E PUSH1 0x40 MLOAD DUP2 PUSH4 0xFFFFFFFF AND PUSH1 0xE0 SHL DUP2 MSTORE PUSH1 0x4 ADD PUSH1 0x20 PUSH1 0x40 MLOAD DUP1 DUP4 SUB DUP2 PUSH1 0x0 DUP8 GAS CALL ISZERO DUP1 ISZERO PUSH2 0x6E2 JUMPI RETURNDATASIZE PUSH1 0x0 DUP1 RETURNDATACOPY RETURNDATASIZE PUSH1 0x0 REVERT JUMPDEST POP POP POP POP PUSH1 0x40 MLOAD RETURNDATASIZE PUSH1 0x1F NOT PUSH1 0x1F DUP3 ADD AND DUP3 ADD DUP1 PUSH1 0x40 MSTORE POP DUP2 ADD SWAP1 PUSH2 0x706 SWAP2 SWAP1 PUSH2 0x17ED JUMP JUMPDEST PUSH1 0x9 PUSH1 0x40 MLOAD DUP1 PUSH1 0x40 ADD PUSH1 0x40 MSTORE SWAP1 DUP2 PUSH1 0x0 DUP3 ADD SLOAD DUP2 MSTORE PUSH1 0x20 ADD PUSH1 0x1 DUP3 ADD SLOAD DUP2 MSTORE POP POP PUSH2 0x108E JUMP JUMPDEST DUP5 PUSH1 0x20 ADD MLOAD PUSH1 0x0 ADD DUP2 SWAP1 MSTORE POP PUSH2 0x834 PUSH1 0x6 PUSH1 0x2 DUP2 SLOAD DUP2 LT PUSH2 0x750 JUMPI PUSH2 0x74F PUSH2 0x17A9 JUMP JUMPDEST JUMPDEST SWAP1 PUSH1 0x0 MSTORE PUSH1 0x20 PUSH1 0x0 KECCAK256 ADD PUSH1 0x0 SWAP1 SLOAD SWAP1 PUSH2 0x100 EXP SWAP1 DIV PUSH20 0xFFFFFFFFFFFFFFFFFFFFFFFFFFFFFFFFFFFFFFFF AND PUSH1 0x5 PUSH1 0x0 SWAP1 SLOAD SWAP1 PUSH2 0x100 EXP SWAP1 DIV PUSH20 0xFFFFFFFFFFFFFFFFFFFFFFFFFFFFFFFFFFFFFFFF AND PUSH20 0xFFFFFFFFFFFFFFFFFFFFFFFFFFFFFFFFFFFFFFFF AND PUSH4 0x2C4E722E PUSH1 0x40 MLOAD DUP2 PUSH4 0xFFFFFFFF AND PUSH1 0xE0 SHL DUP2 MSTORE PUSH1 0x4 ADD PUSH1 0x20 PUSH1 0x40 MLOAD DUP1 DUP4 SUB DUP2 PUSH1 0x0 DUP8 GAS CALL ISZERO DUP1 ISZERO PUSH2 0x7EA JUMPI RETURNDATASIZE PUSH1 0x0 DUP1 RETURNDATACOPY RETURNDATASIZE PUSH1 0x0 REVERT JUMPDEST POP POP POP POP PUSH1 0x40 MLOAD RETURNDATASIZE PUSH1 0x1F NOT PUSH1 0x1F DUP3 ADD AND DUP3 ADD DUP1 PUSH1 0x40 MSTORE POP DUP2 ADD SWAP1 PUSH2 0x80E SWAP2 SWAP1 PUSH2 0x17ED JUMP JUMPDEST PUSH1 0xB PUSH1 0x40 MLOAD DUP1 PUSH1 0x40 ADD PUSH1 0x40 MSTORE SWAP1 DUP2 PUSH1 0x0 DUP3 ADD SLOAD DUP2 MSTORE PUSH1 0x20 ADD PUSH1 0x1 DUP3 ADD SLOAD DUP2 MSTORE POP POP PUSH2 0x108E JUMP JUMPDEST DUP5 PUSH1 0x40 ADD MLOAD PUSH1 0x0 ADD DUP2 SWAP1 MSTORE POP PUSH1 0x0 DUP5 PUSH1 0x40 ADD MLOAD PUSH1 0x0 ADD MLOAD PUSH1 0x0 ADD MLOAD DUP6 PUSH1 0x20 ADD MLOAD PUSH1 0x0 ADD MLOAD PUSH1 0x0 ADD MLOAD DUP7 PUSH1 0x0 ADD MLOAD PUSH1 0x0 ADD MLOAD PUSH1 0x0 ADD MLOAD PUSH2 0x873 SWAP2 SWAP1 PUSH2 0x181A JUMP JUMPDEST PUSH2 0x87D SWAP2 SWAP1 PUSH2 0x181A JUMP JUMPDEST SWAP1 POP DUP7 DUP2 GT ISZERO PUSH2 0x94A JUMPI PUSH1 0x0 DUP6 PUSH1 0x0 ADD MLOAD PUSH1 0x0 ADD MLOAD PUSH1 0x40 ADD MLOAD SWAP1 POP PUSH1 0x0 DUP7 PUSH1 0x20 ADD MLOAD PUSH1 0x0 ADD MLOAD PUSH1 0x40 ADD MLOAD SWAP1 POP PUSH1 0x0 DUP8 PUSH1 0x40 ADD MLOAD PUSH1 0x0 ADD MLOAD PUSH1 0x40 ADD MLOAD SWAP1 POP PUSH1 0x0 DUP2 DUP4 DUP6 PUSH2 0x8C9 SWAP2 SWAP1 PUSH2 0x181A JUMP JUMPDEST PUSH2 0x8D3 SWAP2 SWAP1 PUSH2 0x181A JUMP JUMPDEST SWAP1 POP DUP1 DUP12 DUP6 PUSH2 0x8E2 SWAP2 SWAP1 PUSH2 0x16D3 JUMP JUMPDEST PUSH2 0x8EC SWAP2 SWAP1 PUSH2 0x1744 JUMP JUMPDEST DUP10 PUSH1 0x0 ADD MLOAD PUSH1 0x20 ADD DUP2 DUP2 MSTORE POP POP DUP1 DUP12 DUP5 PUSH2 0x906 SWAP2 SWAP1 PUSH2 0x16D3 JUMP JUMPDEST PUSH2 0x910 SWAP2 SWAP1 PUSH2 0x1744 JUMP JUMPDEST DUP10 PUSH1 0x20 ADD MLOAD PUSH1 0x20 ADD DUP2 DUP2 MSTORE POP POP DUP1 DUP12 DUP4 PUSH2 0x92A SWAP2 SWAP1 PUSH2 0x16D3 JUMP JUMPDEST PUSH2 0x934 SWAP2 SWAP1 PUSH2 0x1744 JUMP JUMPDEST DUP10 PUSH1 0x40 ADD MLOAD PUSH1 0x20 ADD DUP2 DUP2 MSTORE POP POP POP POP POP POP PUSH2 0x999 JUMP JUMPDEST DUP5 PUSH1 0x0 ADD MLOAD PUSH1 0x0 ADD MLOAD PUSH1 0x0 ADD MLOAD DUP6 PUSH1 0x0 ADD MLOAD PUSH1 0x20 ADD DUP2 DUP2 MSTORE POP POP DUP5 PUSH1 0x20 ADD MLOAD PUSH1 0x0 ADD MLOAD PUSH1 0x0 ADD MLOAD DUP6 PUSH1 0x20 ADD MLOAD PUSH1 0x20 ADD DUP2 DUP2 MSTORE POP POP DUP5 PUSH1 0x40 ADD MLOAD PUSH1 0x0 ADD MLOAD PUSH1 0x0 ADD MLOAD DUP6 PUSH1 0x40 ADD MLOAD PUSH1 0x20 ADD DUP2 DUP2 MSTORE POP POP JUMPDEST PUSH1 0x3 PUSH1 0x0 SWAP1 SLOAD SWAP1 PUSH2 0x100 EXP SWAP1 DIV PUSH20 0xFFFFFFFFFFFFFFFFFFFFFFFFFFFFFFFFFFFFFFFF AND PUSH20 0xFFFFFFFFFFFFFFFFFFFFFFFFFFFFFFFFFFFFFFFF AND PUSH4 0x2C4E722E PUSH1 0x40 MLOAD DUP2 PUSH4 0xFFFFFFFF AND PUSH1 0xE0 SHL DUP2 MSTORE PUSH1 0x4 ADD PUSH1 0x20 PUSH1 0x40 MLOAD DUP1 DUP4 SUB DUP2 PUSH1 0x0 DUP8 GAS CALL ISZERO DUP1 ISZERO PUSH2 0xA08 JUMPI RETURNDATASIZE PUSH1 0x0 DUP1 RETURNDATACOPY RETURNDATASIZE PUSH1 0x0 REVERT JUMPDEST POP POP POP POP PUSH1 0x40 MLOAD RETURNDATASIZE PUSH1 0x1F NOT PUSH1 0x1F DUP3 ADD AND DUP3 ADD DUP1 PUSH1 0x40 MSTORE POP DUP2 ADD SWAP1 PUSH2 0xA2C SWAP2 SWAP1 PUSH2 0x17ED JUMP JUMPDEST DUP5 PUSH2 0xA37 SWAP2 SWAP1 PUSH2 0x1744 JUMP JUMPDEST DUP6 PUSH1 0x0 ADD MLOAD PUSH1 0x0 ADD MLOAD PUSH1 0x20 ADD MLOAD GT ISZERO PUSH2 0xAFA JUMPI PUSH1 0x3 PUSH1 0x0 SWAP1 SLOAD SWAP1 PUSH2 0x100 EXP SWAP1 DIV PUSH20 0xFFFFFFFFFFFFFFFFFFFFFFFFFFFFFFFFFFFFFFFF AND PUSH20 0xFFFFFFFFFFFFFFFFFFFFFFFFFFFFFFFFFFFFFFFF AND PUSH4 0x2C4E722E PUSH1 0x40 MLOAD DUP2 PUSH4 0xFFFFFFFF AND PUSH1 0xE0 SHL DUP2 MSTORE PUSH1 0x4 ADD PUSH1 0x20 PUSH1 0x40 MLOAD DUP1 DUP4 SUB DUP2 PUSH1 0x0 DUP8 GAS CALL ISZERO DUP1 ISZERO PUSH2 0xAB9 JUMPI RETURNDATASIZE PUSH1 0x0 DUP1 RETURNDATACOPY RETURNDATASIZE PUSH1 0x0 REVERT JUMPDEST POP POP POP POP PUSH1 0x40 MLOAD RETURNDATASIZE PUSH1 0x1F NOT PUSH1 0x1F DUP3 ADD AND DUP3 ADD DUP1 PUSH1 0x40 MSTORE POP DUP2 ADD SWAP1 PUSH2 0xADD SWAP2 SWAP1 PUSH2 0x17ED JUMP JUMPDEST DUP5 PUSH2 0xAE8 SWAP2 SWAP1 PUSH2 0x1744 JUMP JUMPDEST DUP6 PUSH1 0x0 ADD MLOAD PUSH1 0x40 ADD DUP2 DUP2 MSTORE POP POP PUSH2 0xB15 JUMP JUMPDEST DUP5 PUSH1 0x0 ADD MLOAD PUSH1 0x0 ADD MLOAD PUSH1 0x20 ADD MLOAD DUP6 PUSH1 0x0 ADD MLOAD PUSH1 0x40 ADD DUP2 DUP2 MSTORE POP POP JUMPDEST PUSH1 0x4 PUSH1 0x0 SWAP1 SLOAD SWAP1 PUSH2 0x100 EXP SWAP1 DIV PUSH20 0xFFFFFFFFFFFFFFFFFFFFFFFFFFFFFFFFFFFFFFFF AND PUSH20 0xFFFFFFFFFFFFFFFFFFFFFFFFFFFFFFFFFFFFFFFF AND PUSH4 0x2C4E722E PUSH1 0x40 MLOAD DUP2 PUSH4 0xFFFFFFFF AND PUSH1 0xE0 SHL DUP2 MSTORE PUSH1 0x4 ADD PUSH1 0x20 PUSH1 0x40 MLOAD DUP1 DUP4 SUB DUP2 PUSH1 0x0 DUP8 GAS CALL ISZERO DUP1 ISZERO PUSH2 0xB84 JUMPI RETURNDATASIZE PUSH1 0x0 DUP1 RETURNDATACOPY RETURNDATASIZE PUSH1 0x0 REVERT JUMPDEST POP POP POP POP PUSH1 0x40 MLOAD RETURNDATASIZE PUSH1 0x1F NOT PUSH1 0x1F DUP3 ADD AND DUP3 ADD DUP1 PUSH1 0x40 MSTORE POP DUP2 ADD SWAP1 PUSH2 0xBA8 SWAP2 SWAP1 PUSH2 0x17ED JUMP JUMPDEST DUP4 PUSH2 0xBB3 SWAP2 SWAP1 PUSH2 0x1744 JUMP JUMPDEST DUP6 PUSH1 0x20 ADD MLOAD PUSH1 0x0 ADD MLOAD PUSH1 0x20 ADD MLOAD GT ISZERO PUSH2 0xC76 JUMPI PUSH1 0x4 PUSH1 0x0 SWAP1 SLOAD SWAP1 PUSH2 0x100 EXP SWAP1 DIV PUSH20 0xFFFFFFFFFFFFFFFFFFFFFFFFFFFFFFFFFFFFFFFF AND PUSH20 0xFFFFFFFFFFFFFFFFFFFFFFFFFFFFFFFFFFFFFFFF AND PUSH4 0x2C4E722E PUSH1 0x40 MLOAD DUP2 PUSH4 0xFFFFFFFF AND PUSH1 0xE0 SHL DUP2 MSTORE PUSH1 0x4 ADD PUSH1 0x20 PUSH1 0x40 MLOAD DUP1 DUP4 SUB DUP2 PUSH1 0x0 DUP8 GAS CALL ISZERO DUP1 ISZERO PUSH2 0xC35 JUMPI RETURNDATASIZE PUSH1 0x0 DUP1 RETURNDATACOPY RETURNDATASIZE PUSH1 0x0 REVERT JUMPDEST POP POP POP POP PUSH1 0x40 MLOAD RETURNDATASIZE PUSH1 0x1F NOT PUSH1 0x1F DUP3 ADD AND DUP3 ADD DUP1 PUSH1 0x40 MSTORE POP DUP2 ADD SWAP1 PUSH2 0xC59 SWAP2 SWAP1 PUSH2 0x17ED JUMP JUMPDEST DUP4 PUSH2 0xC64 SWAP2 SWAP1 PUSH2 0x1744 JUMP JUMPDEST DUP6 PUSH1 0x20 ADD MLOAD PUSH1 0x40 ADD DUP2 DUP2 MSTORE POP POP PUSH2 0xC91 JUMP JUMPDEST DUP5 PUSH1 0x20 ADD MLOAD PUSH1 0x0 ADD MLOAD PUSH1 0x20 ADD MLOAD DUP6 PUSH1 0x20 ADD MLOAD PUSH1 0x40 ADD DUP2 DUP2 MSTORE POP POP JUMPDEST PUSH1 0x5 PUSH1 0x0 SWAP1 SLOAD SWAP1 PUSH2 0x100 EXP SWAP1 DIV PUSH20 0xFFFFFFFFFFFFFFFFFFFFFFFFFFFFFFFFFFFFFFFF AND PUSH20 0xFFFFFFFFFFFFFFFFFFFFFFFFFFFFFFFFFFFFFFFF AND PUSH4 0x2C4E722E PUSH1 0x40 MLOAD DUP2 PUSH4 0xFFFFFFFF AND PUSH1 0xE0 SHL DUP2 MSTORE PUSH1 0x4 ADD PUSH1 0x20 PUSH1 0x40 MLOAD DUP1 DUP4 SUB DUP2 PUSH1 0x0 DUP8 GAS CALL ISZERO DUP1 ISZERO PUSH2 0xD00 JUMPI RETURNDATASIZE PUSH1 0x0 DUP1 RETURNDATACOPY RETURNDATASIZE PUSH1 0x0 REVERT JUMPDEST POP POP POP POP PUSH1 0x40 MLOAD RETURNDATASIZE PUSH1 0x1F NOT PUSH1 0x1F DUP3 ADD AND DUP3 ADD DUP1 PUSH1 0x40 MSTORE POP DUP2 ADD SWAP1 PUSH2 0xD24 SWAP2 SWAP1 PUSH2 0x17ED JUMP JUMPDEST DUP3 PUSH2 0xD2F SWAP2 SWAP1 PUSH2 0x1744 JUMP JUMPDEST DUP6 PUSH1 0x40 ADD MLOAD PUSH1 0x0 ADD MLOAD PUSH1 0x20 ADD MLOAD GT ISZERO PUSH2 0xDF2 JUMPI PUSH1 0x5 PUSH1 0x0 SWAP1 SLOAD SWAP1 PUSH2 0x100 EXP SWAP1 DIV PUSH20 0xFFFFFFFFFFFFFFFFFFFFFFFFFFFFFFFFFFFFFFFF AND PUSH20 0xFFFFFFFFFFFFFFFFFFFFFFFFFFFFFFFFFFFFFFFF AND PUSH4 0x2C4E722E PUSH1 0x40 MLOAD DUP2 PUSH4 0xFFFFFFFF AND PUSH1 0xE0 SHL DUP2 MSTORE PUSH1 0x4 ADD PUSH1 0x20 PUSH1 0x40 MLOAD DUP1 DUP4 SUB DUP2 PUSH1 0x0 DUP8 GAS CALL ISZERO DUP1 ISZERO PUSH2 0xDB1 JUMPI RETURNDATASIZE PUSH1 0x0 DUP1 RETURNDATACOPY RETURNDATASIZE PUSH1 0x0 REVERT JUMPDEST POP POP POP POP PUSH1 0x40 MLOAD RETURNDATASIZE PUSH1 0x1F NOT PUSH1 0x1F DUP3 ADD AND DUP3 ADD DUP1 PUSH1 0x40 MSTORE POP DUP2 ADD SWAP1 PUSH2 0xDD5 SWAP2 SWAP1 PUSH2 0x17ED JUMP JUMPDEST DUP3 PUSH2 0xDE0 SWAP2 SWAP1 PUSH2 0x1744 JUMP JUMPDEST DUP6 PUSH1 0x40 ADD MLOAD PUSH1 0x40 ADD DUP2 DUP2 MSTORE POP POP PUSH2 0xE0D JUMP JUMPDEST DUP5 PUSH1 0x40 ADD MLOAD PUSH1 0x0 ADD MLOAD PUSH1 0x20 ADD MLOAD DUP6 PUSH1 0x40 ADD MLOAD PUSH1 0x40 ADD DUP2 DUP2 MSTORE POP POP JUMPDEST POP POP POP POP SWAP3 SWAP2 POP POP JUMP JUMPDEST PUSH1 0x4 PUSH1 0x0 SWAP1 SLOAD SWAP1 PUSH2 0x100 EXP SWAP1 DIV PUSH20 0xFFFFFFFFFFFFFFFFFFFFFFFFFFFFFFFFFFFFFFFF AND DUP2 JUMP JUMPDEST PUSH2 0xE45 PUSH2 0xFCE JUMP JUMPDEST DUP1 PUSH1 0xB PUSH1 0x0 DUP3 ADD MLOAD DUP2 PUSH1 0x0 ADD SSTORE PUSH1 0x20 DUP3 ADD MLOAD DUP2 PUSH1 0x1 ADD SSTORE SWAP1 POP POP POP JUMP JUMPDEST PUSH2 0xE6A PUSH2 0xFCE JUMP JUMPDEST DUP1 PUSH1 0x7 PUSH1 0x0 DUP3 ADD MLOAD DUP2 PUSH1 0x0 ADD SSTORE PUSH1 0x20 DUP3 ADD MLOAD DUP2 PUSH1 0x1 ADD SSTORE SWAP1 POP POP POP JUMP JUMPDEST PUSH3 0x186A0 DUP2 JUMP JUMPDEST PUSH1 0x1 DUP2 JUMP JUMPDEST PUSH1 0x0 PUSH1 0x1 PUSH1 0x0 SWAP1 SLOAD SWAP1 PUSH2 0x100 EXP SWAP1 DIV PUSH20 0xFFFFFFFFFFFFFFFFFFFFFFFFFFFFFFFFFFFFFFFF AND SWAP1 POP SWAP1 JUMP JUMPDEST PUSH2 0xEC5 PUSH2 0xFCE JUMP JUMPDEST DUP1 PUSH1 0x9 PUSH1 0x0 DUP3 ADD MLOAD DUP2 PUSH1 0x0 ADD SSTORE PUSH1 0x20 DUP3 ADD MLOAD DUP2 PUSH1 0x1 ADD SSTORE SWAP1 POP POP POP JUMP JUMPDEST PUSH2 0xEEA PUSH2 0xFCE JUMP JUMPDEST DUP1 PUSH1 0x1 PUSH1 0x0 PUSH2 0x100 EXP DUP2 SLOAD DUP2 PUSH20 0xFFFFFFFFFFFFFFFFFFFFFFFFFFFFFFFFFFFFFFFF MUL NOT AND SWAP1 DUP4 PUSH20 0xFFFFFFFFFFFFFFFFFFFFFFFFFFFFFFFFFFFFFFFF AND MUL OR SWAP1 SSTORE POP DUP1 PUSH20 0xFFFFFFFFFFFFFFFFFFFFFFFFFFFFFFFFFFFFFFFF AND PUSH2 0xF4A PUSH2 0x4A2 JUMP JUMPDEST PUSH20 0xFFFFFFFFFFFFFFFFFFFFFFFFFFFFFFFFFFFFFFFF AND PUSH32 0x38D16B8CAC22D99FC7C124B9CD0DE2D3FA1FAEF420BFE791D8C362D765E22700 PUSH1 0x40 MLOAD PUSH1 0x40 MLOAD DUP1 SWAP2 SUB SWAP1 LOG3 POP JUMP JUMPDEST PUSH1 0x6 DUP2 DUP2 SLOAD DUP2 LT PUSH2 0xF9F JUMPI PUSH1 0x0 DUP1 REVERT JUMPDEST SWAP1 PUSH1 0x0 MSTORE PUSH1 0x20 PUSH1 0x0 KECCAK256 ADD PUSH1 0x0 SWAP2 POP SLOAD SWAP1 PUSH2 0x100 EXP SWAP1 DIV PUSH20 0xFFFFFFFFFFFFFFFFFFFFFFFFFFFFFFFFFFFFFFFF AND DUP2 JUMP JUMPDEST PUSH2 0xFD6 PUSH2 0x1086 JUMP JUMPDEST PUSH20 0xFFFFFFFFFFFFFFFFFFFFFFFFFFFFFFFFFFFFFFFF AND PUSH2 0xFF4 PUSH2 0x4A2 JUMP JUMPDEST PUSH20 0xFFFFFFFFFFFFFFFFFFFFFFFFFFFFFFFFFFFFFFFF AND EQ PUSH2 0x1053 JUMPI PUSH2 0x1017 PUSH2 0x1086 JUMP JUMPDEST PUSH1 0x40 MLOAD PUSH32 0x118CDAA700000000000000000000000000000000000000000000000000000000 DUP2 MSTORE PUSH1 0x4 ADD PUSH2 0x104A SWAP2 SWAP1 PUSH2 0x1317 JUMP JUMPDEST PUSH1 0x40 MLOAD DUP1 SWAP2 SUB SWAP1 REVERT JUMPDEST JUMP JUMPDEST PUSH1 0x1 PUSH1 0x0 PUSH2 0x100 EXP DUP2 SLOAD SWAP1 PUSH20 0xFFFFFFFFFFFFFFFFFFFFFFFFFFFFFFFFFFFFFFFF MUL NOT AND SWAP1 SSTORE PUSH2 0x1083 DUP2 PUSH2 0x1190 JUMP JUMPDEST POP JUMP JUMPDEST PUSH1 0x0 CALLER SWAP1 POP SWAP1 JUMP JUMPDEST PUSH2 0x1096 PUSH2 0x1287 JUMP JUMPDEST PUSH1 0x0 PUSH1 0x2 DUP6 PUSH20 0xFFFFFFFFFFFFFFFFFFFFFFFFFFFFFFFFFFFFFFFF AND PUSH4 0x817B1CD2 PUSH1 0x40 MLOAD DUP2 PUSH4 0xFFFFFFFF AND PUSH1 0xE0 SHL DUP2 MSTORE PUSH1 0x4 ADD PUSH1 0x20 PUSH1 0x40 MLOAD DUP1 DUP4 SUB DUP2 DUP7 GAS STATICCALL ISZERO DUP1 ISZERO PUSH2 0x10E5 JUMPI RETURNDATASIZE PUSH1 0x0 DUP1 RETURNDATACOPY RETURNDATASIZE PUSH1 0x0 REVERT JUMPDEST POP POP POP POP PUSH1 0x40 MLOAD RETURNDATASIZE PUSH1 0x1F NOT PUSH1 0x1F DUP3 ADD AND DUP3 ADD DUP1 PUSH1 0x40 MSTORE POP DUP2 ADD SWAP1 PUSH2 0x1109 SWAP2 SWAP1 PUSH2 0x17ED JUMP JUMPDEST PUSH2 0x1113 SWAP2 SWAP1 PUSH2 0x1744 JUMP JUMPDEST SWAP1 POP PUSH1 0x40 MLOAD DUP1 PUSH1 0x80 ADD PUSH1 0x40 MSTORE DUP1 PUSH3 0x186A0 DUP6 PUSH1 0x0 ADD MLOAD DUP8 DUP6 PUSH2 0x1135 SWAP2 SWAP1 PUSH2 0x16D3 JUMP JUMPDEST PUSH2 0x113F SWAP2 SWAP1 PUSH2 0x16D3 JUMP JUMPDEST PUSH2 0x1149 SWAP2 SWAP1 PUSH2 0x1744 JUMP JUMPDEST DUP2 MSTORE PUSH1 0x20 ADD PUSH3 0x186A0 DUP6 PUSH1 0x20 ADD MLOAD DUP5 PUSH2 0x1162 SWAP2 SWAP1 PUSH2 0x16D3 JUMP JUMPDEST PUSH2 0x116C SWAP2 SWAP1 PUSH2 0x1744 JUMP JUMPDEST DUP2 MSTORE PUSH1 0x20 ADD DUP6 DUP4 PUSH2 0x117D SWAP2 SWAP1 PUSH2 0x16D3 JUMP JUMPDEST DUP2 MSTORE PUSH1 0x20 ADD DUP3 DUP2 MSTORE POP SWAP2 POP POP SWAP4 SWAP3 POP POP POP JUMP JUMPDEST PUSH1 0x0 DUP1 PUSH1 0x0 SWAP1 SLOAD SWAP1 PUSH2 0x100 EXP SWAP1 DIV PUSH20 0xFFFFFFFFFFFFFFFFFFFFFFFFFFFFFFFFFFFFFFFF AND SWAP1 POP DUP2 PUSH1 0x0 DUP1 PUSH2 0x100 EXP DUP2 SLOAD DUP2 PUSH20 0xFFFFFFFFFFFFFFFFFFFFFFFFFFFFFFFFFFFFFFFF MUL NOT AND SWAP1 DUP4 PUSH20 0xFFFFFFFFFFFFFFFFFFFFFFFFFFFFFFFFFFFFFFFF AND MUL OR SWAP1 SSTORE POP DUP2 PUSH20 0xFFFFFFFFFFFFFFFFFFFFFFFFFFFFFFFFFFFFFFFF AND DUP2 PUSH20 0xFFFFFFFFFFFFFFFFFFFFFFFFFFFFFFFFFFFFFFFF AND PUSH32 0x8BE0079C531659141344CD1FD0A4F28419497F9722A3DAAFE3B4186F6B6457E0 PUSH1 0x40 MLOAD PUSH1 0x40 MLOAD DUP1 SWAP2 SUB SWAP1 LOG3 POP POP JUMP JUMPDEST PUSH1 0x40 MLOAD DUP1 PUSH1 0x60 ADD PUSH1 0x40 MSTORE DUP1 PUSH2 0x1267 PUSH2 0x12AF JUMP JUMPDEST DUP2 MSTORE PUSH1 0x20 ADD PUSH2 0x1274 PUSH2 0x12AF JUMP JUMPDEST DUP2 MSTORE PUSH1 0x20 ADD PUSH2 0x1281 PUSH2 0x12AF JUMP JUMPDEST DUP2 MSTORE POP SWAP1 JUMP JUMPDEST PUSH1 0x40 MLOAD DUP1 PUSH1 0x80 ADD PUSH1 0x40 MSTORE DUP1 PUSH1 0x0 DUP2 MSTORE PUSH1 0x20 ADD PUSH1 0x0 DUP2 MSTORE PUSH1 0x20 ADD PUSH1 0x0 DUP2 MSTORE PUSH1 0x20 ADD PUSH1 0x0 DUP2 MSTORE POP SWAP1 JUMP JUMPDEST PUSH1 0x40 MLOAD DUP1 PUSH1 0x60 ADD PUSH1 0x40 MSTORE DUP1 PUSH2 0x12C2 PUSH2 0x1287 JUMP JUMPDEST DUP2 MSTORE PUSH1 0x20 ADD PUSH1 0x0 DUP2 MSTORE PUSH1 0x20 ADD PUSH1 0x0 DUP2 MSTORE POP SWAP1 JUMP JUMPDEST PUSH1 0x0 PUSH20 0xFFFFFFFFFFFFFFFFFFFFFFFFFFFFFFFFFFFFFFFF DUP3 AND SWAP1 POP SWAP2 SWAP1 POP JUMP JUMPDEST PUSH1 0x0 PUSH2 0x1301 DUP3 PUSH2 0x12D6 JUMP JUMPDEST SWAP1 POP SWAP2 SWAP1 POP JUMP JUMPDEST PUSH2 0x1311 DUP2 PUSH2 0x12F6 JUMP JUMPDEST DUP3 MSTORE POP POP JUMP JUMPDEST PUSH1 0x0 PUSH1 0x20 DUP3 ADD SWAP1 POP PUSH2 0x132C PUSH1 0x0 DUP4 ADD DUP5 PUSH2 0x1308 JUMP JUMPDEST SWAP3 SWAP2 POP POP JUMP JUMPDEST PUSH1 0x0 DUP2 SWAP1 POP SWAP2 SWAP1 POP JUMP JUMPDEST PUSH2 0x1345 DUP2 PUSH2 0x1332 JUMP JUMPDEST DUP3 MSTORE POP POP JUMP JUMPDEST PUSH1 0x0 PUSH1 0x40 DUP3 ADD SWAP1 POP PUSH2 0x1360 PUSH1 0x0 DUP4 ADD DUP6 PUSH2 0x133C JUMP JUMPDEST PUSH2 0x136D PUSH1 0x20 DUP4 ADD DUP5 PUSH2 0x133C JUMP JUMPDEST SWAP4 SWAP3 POP POP POP JUMP JUMPDEST PUSH1 0x0 PUSH1 0x40 MLOAD SWAP1 POP SWAP1 JUMP JUMPDEST PUSH1 0x0 DUP1 REVERT JUMPDEST PUSH2 0x138C DUP2 PUSH2 0x1332 JUMP JUMPDEST DUP2 EQ PUSH2 0x1397 JUMPI PUSH1 0x0 DUP1 REVERT JUMPDEST POP JUMP JUMPDEST PUSH1 0x0 DUP2 CALLDATALOAD SWAP1 POP PUSH2 0x13A9 DUP2 PUSH2 0x1383 JUMP JUMPDEST SWAP3 SWAP2 POP POP JUMP JUMPDEST PUSH1 0x0 DUP1 PUSH1 0x40 DUP4 DUP6 SUB SLT ISZERO PUSH2 0x13C6 JUMPI PUSH2 0x13C5 PUSH2 0x137E JUMP JUMPDEST JUMPDEST PUSH1 0x0 PUSH2 0x13D4 DUP6 DUP3 DUP7 ADD PUSH2 0x139A JUMP JUMPDEST SWAP3 POP POP PUSH1 0x20 PUSH2 0x13E5 DUP6 DUP3 DUP7 ADD PUSH2 0x139A JUMP JUMPDEST SWAP2 POP POP SWAP3 POP SWAP3 SWAP1 POP JUMP JUMPDEST PUSH2 0x13F8 DUP2 PUSH2 0x1332 JUMP JUMPDEST DUP3 MSTORE POP POP JUMP JUMPDEST PUSH1 0x80 DUP3 ADD PUSH1 0x0 DUP3 ADD MLOAD PUSH2 0x1414 PUSH1 0x0 DUP6 ADD DUP3 PUSH2 0x13EF JUMP JUMPDEST POP PUSH1 0x20 DUP3 ADD MLOAD PUSH2 0x1427 PUSH1 0x20 DUP6 ADD DUP3 PUSH2 0x13EF JUMP JUMPDEST POP PUSH1 0x40 DUP3 ADD MLOAD PUSH2 0x143A PUSH1 0x40 DUP6 ADD DUP3 PUSH2 0x13EF JUMP JUMPDEST POP PUSH1 0x60 DUP3 ADD MLOAD PUSH2 0x144D PUSH1 0x60 DUP6 ADD DUP3 PUSH2 0x13EF JUMP JUMPDEST POP POP POP POP JUMP JUMPDEST PUSH1 0xC0 DUP3 ADD PUSH1 0x0 DUP3 ADD MLOAD PUSH2 0x1469 PUSH1 0x0 DUP6 ADD DUP3 PUSH2 0x13FE JUMP JUMPDEST POP PUSH1 0x20 DUP3 ADD MLOAD PUSH2 0x147C PUSH1 0x80 DUP6 ADD DUP3 PUSH2 0x13EF JUMP JUMPDEST POP PUSH1 0x40 DUP3 ADD MLOAD PUSH2 0x148F PUSH1 0xA0 DUP6 ADD DUP3 PUSH2 0x13EF JUMP JUMPDEST POP POP POP POP JUMP JUMPDEST PUSH2 0x240 DUP3 ADD PUSH1 0x0 DUP3 ADD MLOAD PUSH2 0x14AC PUSH1 0x0 DUP6 ADD DUP3 PUSH2 0x1453 JUMP JUMPDEST POP PUSH1 0x20 DUP3 ADD MLOAD PUSH2 0x14BF PUSH1 0xC0 DUP6 ADD DUP3 PUSH2 0x1453 JUMP JUMPDEST POP PUSH1 0x40 DUP3 ADD MLOAD PUSH2 0x14D3 PUSH2 0x180 DUP6 ADD DUP3 PUSH2 0x1453 JUMP JUMPDEST POP POP POP POP JUMP JUMPDEST PUSH1 0x0 PUSH2 0x240 DUP3 ADD SWAP1 POP PUSH2 0x14EF PUSH1 0x0 DUP4 ADD DUP5 PUSH2 0x1495 JUMP JUMPDEST SWAP3 SWAP2 POP POP JUMP JUMPDEST PUSH1 0x0 DUP1 REVERT JUMPDEST PUSH1 0x0 PUSH1 0x1F NOT PUSH1 0x1F DUP4 ADD AND SWAP1 POP SWAP2 SWAP1 POP JUMP JUMPDEST PUSH32 0x4E487B7100000000000000000000000000000000000000000000000000000000 PUSH1 0x0 MSTORE PUSH1 0x41 PUSH1 0x4 MSTORE PUSH1 0x24 PUSH1 0x0 REVERT JUMPDEST PUSH2 0x1543 DUP3 PUSH2 0x14FA JUMP JUMPDEST DUP2 ADD DUP2 DUP2 LT PUSH8 0xFFFFFFFFFFFFFFFF DUP3 GT OR ISZERO PUSH2 0x1562 JUMPI PUSH2 0x1561 PUSH2 0x150B JUMP JUMPDEST JUMPDEST DUP1 PUSH1 0x40 MSTORE POP POP POP JUMP JUMPDEST PUSH1 0x0 PUSH2 0x1575 PUSH2 0x1374 JUMP JUMPDEST SWAP1 POP PUSH2 0x1581 DUP3 DUP3 PUSH2 0x153A JUMP JUMPDEST SWAP2 SWAP1 POP JUMP JUMPDEST PUSH1 0x0 PUSH1 0x40 DUP3 DUP5 SUB SLT ISZERO PUSH2 0x159C JUMPI PUSH2 0x159B PUSH2 0x14F5 JUMP JUMPDEST JUMPDEST PUSH2 0x15A6 PUSH1 0x40 PUSH2 0x156B JUMP JUMPDEST SWAP1 POP PUSH1 0x0 PUSH2 0x15B6 DUP5 DUP3 DUP6 ADD PUSH2 0x139A JUMP JUMPDEST PUSH1 0x0 DUP4 ADD MSTORE POP PUSH1 0x20 PUSH2 0x15CA DUP5 DUP3 DUP6 ADD PUSH2 0x139A JUMP JUMPDEST PUSH1 0x20 DUP4 ADD MSTORE POP SWAP3 SWAP2 POP POP JUMP JUMPDEST PUSH1 0x0 PUSH1 0x40 DUP3 DUP5 SUB SLT ISZERO PUSH2 0x15EC JUMPI PUSH2 0x15EB PUSH2 0x137E JUMP JUMPDEST JUMPDEST PUSH1 0x0 PUSH2 0x15FA DUP5 DUP3 DUP6 ADD PUSH2 0x1586 JUMP JUMPDEST SWAP2 POP POP SWAP3 SWAP2 POP POP JUMP JUMPDEST PUSH1 0x0 PUSH1 0x20 DUP3 ADD SWAP1 POP PUSH2 0x1618 PUSH1 0x0 DUP4 ADD DUP5 PUSH2 0x133C JUMP JUMPDEST SWAP3 SWAP2 POP POP JUMP JUMPDEST PUSH2 0x1627 DUP2 PUSH2 0x12F6 JUMP JUMPDEST DUP2 EQ PUSH2 0x1632 JUMPI PUSH1 0x0 DUP1 REVERT JUMPDEST POP JUMP JUMPDEST PUSH1 0x0 DUP2 CALLDATALOAD SWAP1 POP PUSH2 0x1644 DUP2 PUSH2 0x161E JUMP JUMPDEST SWAP3 SWAP2 POP POP JUMP JUMPDEST PUSH1 0x0 PUSH1 0x20 DUP3 DUP5 SUB SLT ISZERO PUSH2 0x1660 JUMPI PUSH2 0x165F PUSH2 0x137E JUMP JUMPDEST JUMPDEST PUSH1 0x0 PUSH2 0x166E DUP5 DUP3 DUP6 ADD PUSH2 0x1635 JUMP JUMPDEST SWAP2 POP POP SWAP3 SWAP2 POP POP JUMP JUMPDEST PUSH1 0x0 PUSH1 0x20 DUP3 DUP5 SUB SLT ISZERO PUSH2 0x168D JUMPI PUSH2 0x168C PUSH2 0x137E JUMP JUMPDEST JUMPDEST PUSH1 0x0 PUSH2 0x169B DUP5 DUP3 DUP6 ADD PUSH2 0x139A JUMP JUMPDEST SWAP2 POP POP SWAP3 SWAP2 POP POP JUMP JUMPDEST PUSH32 0x4E487B7100000000000000000000000000000000000000000000000000000000 PUSH1 0x0 MSTORE PUSH1 0x11 PUSH1 0x4 MSTORE PUSH1 0x24 PUSH1 0x0 REVERT JUMPDEST PUSH1 0x0 PUSH2 0x16DE DUP3 PUSH2 0x1332 JUMP JUMPDEST SWAP2 POP PUSH2 0x16E9 DUP4 PUSH2 0x1332 JUMP JUMPDEST SWAP3 POP DUP3 DUP3 MUL PUSH2 0x16F7 DUP2 PUSH2 0x1332 JUMP JUMPDEST SWAP2 POP DUP3 DUP3 DIV DUP5 EQ DUP4 ISZERO OR PUSH2 0x170E JUMPI PUSH2 0x170D PUSH2 0x16A4 JUMP JUMPDEST JUMPDEST POP SWAP3 SWAP2 POP POP JUMP JUMPDEST PUSH32 0x4E487B7100000000000000000000000000000000000000000000000000000000 PUSH1 0x0 MSTORE PUSH1 0x12 PUSH1 0x4 MSTORE PUSH1 0x24 PUSH1 0x0 REVERT JUMPDEST PUSH1 0x0 PUSH2 0x174F DUP3 PUSH2 0x1332 JUMP JUMPDEST SWAP2 POP PUSH2 0x175A DUP4 PUSH2 0x1332 JUMP JUMPDEST SWAP3 POP DUP3 PUSH2 0x176A JUMPI PUSH2 0x1769 PUSH2 0x1715 JUMP JUMPDEST JUMPDEST DUP3 DUP3 DIV SWAP1 POP SWAP3 SWAP2 POP POP JUMP JUMPDEST PUSH1 0x0 PUSH2 0x1780 DUP3 PUSH2 0x1332 JUMP JUMPDEST SWAP2 POP PUSH2 0x178B DUP4 PUSH2 0x1332 JUMP JUMPDEST SWAP3 POP DUP3 DUP3 SUB SWAP1 POP DUP2 DUP2 GT ISZERO PUSH2 0x17A3 JUMPI PUSH2 0x17A2 PUSH2 0x16A4 JUMP JUMPDEST JUMPDEST SWAP3 SWAP2 POP POP JUMP JUMPDEST PUSH32 0x4E487B7100000000000000000000000000000000000000000000000000000000 PUSH1 0x0 MSTORE PUSH1 0x32 PUSH1 0x4 MSTORE PUSH1 0x24 PUSH1 0x0 REVERT JUMPDEST PUSH1 0x0 DUP2 MLOAD SWAP1 POP PUSH2 0x17E7 DUP2 PUSH2 0x1383 JUMP JUMPDEST SWAP3 SWAP2 POP POP JUMP JUMPDEST PUSH1 0x0 PUSH1 0x20 DUP3 DUP5 SUB SLT ISZERO PUSH2 0x1803 JUMPI PUSH2 0x1802 PUSH2 0x137E JUMP JUMPDEST JUMPDEST PUSH1 0x0 PUSH2 0x1811 DUP5 DUP3 DUP6 ADD PUSH2 0x17D8 JUMP JUMPDEST SWAP2 POP POP SWAP3 SWAP2 POP POP JUMP JUMPDEST PUSH1 0x0 PUSH2 0x1825 DUP3 PUSH2 0x1332 JUMP JUMPDEST SWAP2 POP PUSH2 0x1830 DUP4 PUSH2 0x1332 JUMP JUMPDEST SWAP3 POP DUP3 DUP3 ADD SWAP1 POP DUP1 DUP3 GT ISZERO PUSH2 0x1848 JUMPI PUSH2 0x1847 PUSH2 0x16A4 JUMP JUMPDEST JUMPDEST SWAP3 SWAP2 POP POP JUMP INVALID LOG2 PUSH5 0x6970667358 0x22 SLT KECCAK256 SWAP7 0xE PUSH8 0xC3E3D00E5945FDBE DUP14 SELFDESTRUCT CODESIZE 0xEF DUP3 POP CALLDATACOPY SWAP2 MSTORE PUSH17 0x947157D1C02A1CFB243CFE64736F6C6343 STOP ADDMOD XOR STOP CALLER "
        },
        "methodIdentifiers": {
          "MAX_RATE()": "c24dbebd",
          "MIN_RATE()": "d819bfef",
          "acceptOwnership()": "79ba5097",
          "calculate(uint256,uint256)": "8dfa4363",
          "ldt()": "50c2161b",
          "owner()": "8da5cb5b",
          "pendingOwner()": "e30c3978",
          "renounceOwnership()": "715018a6",
          "setTbbRewardRate((uint256,uint256))": "b7f7de16",
          "setTbgRewardRate((uint256,uint256))": "a45667f4",
          "setTbsRewardRate((uint256,uint256))": "eb607586",
          "stakers(uint256)": "fd5e6dd1",
          "tbb()": "2c246501",
          "tbbRewardRate()": "4eecf1fd",
          "tbg()": "7dad9115",
          "tbgRewardRate()": "38cd6c0f",
          "tbs()": "903bf98b",
          "tbsRewardRate()": "70a53926",
          "transferOwnership(address)": "f2fde38b"
        }
      }
    }
  }
}