{
  "_format": "hh-sol-artifact-1",
  "contractName": "MockWETH",
  "sourceName": "contracts/MockWETH.sol",
  "abi": [
    {
      "inputs": [],
      "stateMutability": "nonpayable",
      "type": "constructor"
    },
    {
      "inputs": [
        {
          "internalType": "address",
          "name": "spender",
          "type": "address"
        },
        {
          "internalType": "uint256",
          "name": "allowance",
          "type": "uint256"
        },
        {
          "internalType": "uint256",
          "name": "needed",
          "type": "uint256"
        }
      ],
      "name": "ERC20InsufficientAllowance",
      "type": "error"
    },
    {
      "inputs": [
        {
          "internalType": "address",
          "name": "sender",
          "type": "address"
        },
        {
          "internalType": "uint256",
          "name": "balance",
          "type": "uint256"
        },
        {
          "internalType": "uint256",
          "name": "needed",
          "type": "uint256"
        }
      ],
      "name": "ERC20InsufficientBalance",
      "type": "error"
    },
    {
      "inputs": [
        {
          "internalType": "address",
          "name": "approver",
          "type": "address"
        }
      ],
      "name": "ERC20InvalidApprover",
      "type": "error"
    },
    {
      "inputs": [
        {
          "internalType": "address",
          "name": "receiver",
          "type": "address"
        }
      ],
      "name": "ERC20InvalidReceiver",
      "type": "error"
    },
    {
      "inputs": [
        {
          "internalType": "address",
          "name": "sender",
          "type": "address"
        }
      ],
      "name": "ERC20InvalidSender",
      "type": "error"
    },
    {
      "inputs": [
        {
          "internalType": "address",
          "name": "spender",
          "type": "address"
        }
      ],
      "name": "ERC20InvalidSpender",
      "type": "error"
    },
    {
      "inputs": [
        {
          "internalType": "address",
          "name": "owner",
          "type": "address"
        }
      ],
      "name": "OwnableInvalidOwner",
      "type": "error"
    },
    {
      "inputs": [
        {
          "internalType": "address",
          "name": "account",
          "type": "address"
        }
      ],
      "name": "OwnableUnauthorizedAccount",
      "type": "error"
    },
    {
      "anonymous": false,
      "inputs": [
        {
          "indexed": true,
          "internalType": "address",
          "name": "owner",
          "type": "address"
        },
        {
          "indexed": true,
          "internalType": "address",
          "name": "spender",
          "type": "address"
        },
        {
          "indexed": false,
          "internalType": "uint256",
          "name": "value",
          "type": "uint256"
        }
      ],
      "name": "Approval",
      "type": "event"
    },
    {
      "anonymous": false,
      "inputs": [
        {
          "indexed": true,
          "internalType": "address",
          "name": "previousOwner",
          "type": "address"
        },
        {
          "indexed": true,
          "internalType": "address",
          "name": "newOwner",
          "type": "address"
        }
      ],
      "name": "OwnershipTransferred",
      "type": "event"
    },
    {
      "anonymous": false,
      "inputs": [
        {
          "indexed": true,
          "internalType": "address",
          "name": "from",
          "type": "address"
        },
        {
          "indexed": true,
          "internalType": "address",
          "name": "to",
          "type": "address"
        },
        {
          "indexed": false,
          "internalType": "uint256",
          "name": "value",
          "type": "uint256"
        }
      ],
      "name": "Transfer",
      "type": "event"
    },
    {
      "inputs": [
        {
          "internalType": "address",
          "name": "owner",
          "type": "address"
        },
        {
          "internalType": "address",
          "name": "spender",
          "type": "address"
        }
      ],
      "name": "allowance",
      "outputs": [
        {
          "internalType": "uint256",
          "name": "",
          "type": "uint256"
        }
      ],
      "stateMutability": "view",
      "type": "function"
    },
    {
      "inputs": [
        {
          "internalType": "address",
          "name": "spender",
          "type": "address"
        },
        {
          "internalType": "uint256",
          "name": "value",
          "type": "uint256"
        }
      ],
      "name": "approve",
      "outputs": [
        {
          "internalType": "bool",
          "name": "",
          "type": "bool"
        }
      ],
      "stateMutability": "nonpayable",
      "type": "function"
    },
    {
      "inputs": [
        {
          "internalType": "address",
          "name": "account",
          "type": "address"
        }
      ],
      "name": "balanceOf",
      "outputs": [
        {
          "internalType": "uint256",
          "name": "",
          "type": "uint256"
        }
      ],
      "stateMutability": "view",
      "type": "function"
    },
    {
      "inputs": [
        {
          "internalType": "uint256",
          "name": "amount",
          "type": "uint256"
        }
      ],
      "name": "burn",
      "outputs": [],
      "stateMutability": "nonpayable",
      "type": "function"
    },
    {
      "inputs": [],
      "name": "decimals",
      "outputs": [
        {
          "internalType": "uint8",
          "name": "",
          "type": "uint8"
        }
      ],
      "stateMutability": "view",
      "type": "function"
    },
    {
      "inputs": [],
      "name": "deposit",
      "outputs": [],
      "stateMutability": "payable",
      "type": "function"
    },
    {
      "inputs": [
        {
          "internalType": "address",
          "name": "account",
          "type": "address"
        }
      ],
      "name": "depositTo",
      "outputs": [],
      "stateMutability": "payable",
      "type": "function"
    },
    {
      "inputs": [
        {
          "internalType": "uint256",
          "name": "amount",
          "type": "uint256"
        }
      ],
      "name": "mint",
      "outputs": [],
      "stateMutability": "nonpayable",
      "type": "function"
    },
    {
      "inputs": [],
      "name": "name",
      "outputs": [
        {
          "internalType": "string",
          "name": "",
          "type": "string"
        }
      ],
      "stateMutability": "view",
      "type": "function"
    },
    {
      "inputs": [],
      "name": "owner",
      "outputs": [
        {
          "internalType": "address",
          "name": "",
          "type": "address"
        }
      ],
      "stateMutability": "view",
      "type": "function"
    },
    {
      "inputs": [],
      "name": "renounceOwnership",
      "outputs": [],
      "stateMutability": "nonpayable",
      "type": "function"
    },
    {
      "inputs": [],
      "name": "symbol",
      "outputs": [
        {
          "internalType": "string",
          "name": "",
          "type": "string"
        }
      ],
      "stateMutability": "view",
      "type": "function"
    },
    {
      "inputs": [],
      "name": "totalSupply",
      "outputs": [
        {
          "internalType": "uint256",
          "name": "",
          "type": "uint256"
        }
      ],
      "stateMutability": "view",
      "type": "function"
    },
    {
      "inputs": [
        {
          "internalType": "address",
          "name": "to",
          "type": "address"
        },
        {
          "internalType": "uint256",
          "name": "value",
          "type": "uint256"
        }
      ],
      "name": "transfer",
      "outputs": [
        {
          "internalType": "bool",
          "name": "",
          "type": "bool"
        }
      ],
      "stateMutability": "nonpayable",
      "type": "function"
    },
    {
      "inputs": [
        {
          "internalType": "address",
          "name": "from",
          "type": "address"
        },
        {
          "internalType": "address",
          "name": "to",
          "type": "address"
        },
        {
          "internalType": "uint256",
          "name": "value",
          "type": "uint256"
        }
      ],
      "name": "transferFrom",
      "outputs": [
        {
          "internalType": "bool",
          "name": "",
          "type": "bool"
        }
      ],
      "stateMutability": "nonpayable",
      "type": "function"
    },
    {
      "inputs": [
        {
          "internalType": "address",
          "name": "newOwner",
          "type": "address"
        }
      ],
      "name": "transferOwnership",
      "outputs": [],
      "stateMutability": "nonpayable",
      "type": "function"
    },
    {
      "inputs": [
        {
          "internalType": "uint256",
          "name": "amount",
          "type": "uint256"
        }
      ],
      "name": "withdraw",
      "outputs": [],
      "stateMutability": "nonpayable",
      "type": "function"
    },
    {
      "inputs": [
        {
          "internalType": "address",
          "name": "account",
          "type": "address"
        },
        {
          "internalType": "uint256",
          "name": "amount",
          "type": "uint256"
        }
      ],
      "name": "withdrawTo",
      "outputs": [],
      "stateMutability": "nonpayable",
      "type": "function"
    },
    {
      "stateMutability": "payable",
      "type": "receive"
    }
  ],
  "bytecode": "0x60806040523480156200001157600080fd5b50620000226200014160201b60201c565b6040518060400160405280600d81526020017f57726170706564204574686572000000000000000000000000000000000000008152506040518060400160405280600481526020017f574554480000000000000000000000000000000000000000000000000000000081525081600390816200009f919062000489565b508060049081620000b1919062000489565b505050600073ffffffffffffffffffffffffffffffffffffffff168173ffffffffffffffffffffffffffffffffffffffff1603620001295760006040517f1e4fbdf7000000000000000000000000000000000000000000000000000000008152600401620001209190620005b5565b60405180910390fd5b6200013a816200014960201b60201c565b50620005d2565b600033905090565b6000600560009054906101000a900473ffffffffffffffffffffffffffffffffffffffff16905081600560006101000a81548173ffffffffffffffffffffffffffffffffffffffff021916908373ffffffffffffffffffffffffffffffffffffffff1602179055508173ffffffffffffffffffffffffffffffffffffffff168173ffffffffffffffffffffffffffffffffffffffff167f8be0079c531659141344cd1fd0a4f28419497f9722a3daafe3b4186f6b6457e060405160405180910390a35050565b600081519050919050565b7f4e487b7100000000000000000000000000000000000000000000000000000000600052604160045260246000fd5b7f4e487b7100000000000000000000000000000000000000000000000000000000600052602260045260246000fd5b600060028204905060018216806200029157607f821691505b602082108103620002a757620002a662000249565b5b50919050565b60008190508160005260206000209050919050565b60006020601f8301049050919050565b600082821b905092915050565b600060088302620003117fffffffffffffffffffffffffffffffffffffffffffffffffffffffffffffffff82620002d2565b6200031d8683620002d2565b95508019841693508086168417925050509392505050565b6000819050919050565b6000819050919050565b60006200036a620003646200035e8462000335565b6200033f565b62000335565b9050919050565b6000819050919050565b620003868362000349565b6200039e620003958262000371565b848454620002df565b825550505050565b600090565b620003b5620003a6565b620003c28184846200037b565b505050565b5b81811015620003ea57620003de600082620003ab565b600181019050620003c8565b5050565b601f82111562000439576200040381620002ad565b6200040e84620002c2565b810160208510156200041e578190505b620004366200042d85620002c2565b830182620003c7565b50505b505050565b600082821c905092915050565b60006200045e600019846008026200043e565b1980831691505092915050565b60006200047983836200044b565b9150826002028217905092915050565b62000494826200020f565b67ffffffffffffffff811115620004b057620004af6200021a565b5b620004bc825462000278565b620004c9828285620003ee565b600060209050601f831160018114620005015760008415620004ec578287015190505b620004f885826200046b565b86555062000568565b601f1984166200051186620002ad565b60005b828110156200053b5784890151825560018201915060208501945060208101905062000514565b868310156200055b578489015162000557601f8916826200044b565b8355505b6001600288020188555050505b505050505050565b600073ffffffffffffffffffffffffffffffffffffffff82169050919050565b60006200059d8262000570565b9050919050565b620005af8162000590565b82525050565b6000602082019050620005cc6000830184620005a4565b92915050565b61159580620005e26000396000f3fe60806040526004361061010d5760003560e01c8063715018a611610095578063a9059cbb11610064578063a9059cbb1461036b578063b760faf9146103a8578063d0e30db0146103c4578063dd62ed3e146103ce578063f2fde38b1461040b5761011d565b8063715018a6146102d55780638da5cb5b146102ec57806395d89b4114610317578063a0712d68146103425761011d565b806323b872dd116100dc57806323b872dd146101de5780632e1a7d4d1461021b578063313ce5671461024457806342966c681461026f57806370a08231146102985761011d565b806306fdde0314610122578063095ea7b31461014d57806318160ddd1461018a578063205c2878146101b55761011d565b3661011d5761011b33610434565b005b600080fd5b34801561012e57600080fd5b50610137610441565b604051610144919061110a565b60405180910390f35b34801561015957600080fd5b50610174600480360381019061016f91906111c5565b6104d3565b6040516101819190611220565b60405180910390f35b34801561019657600080fd5b5061019f6104f6565b6040516101ac919061124a565b60405180910390f35b3480156101c157600080fd5b506101dc60048036038101906101d791906111c5565b610500565b005b3480156101ea57600080fd5b5061020560048036038101906102009190611265565b6105bb565b6040516102129190611220565b60405180910390f35b34801561022757600080fd5b50610242600480360381019061023d91906112b8565b6105ea565b005b34801561025057600080fd5b506102596105f7565b6040516102669190611301565b60405180910390f35b34801561027b57600080fd5b50610296600480360381019061029191906112b8565b610600565b005b3480156102a457600080fd5b506102bf60048036038101906102ba919061131c565b61061c565b6040516102cc919061124a565b60405180910390f35b3480156102e157600080fd5b506102ea610664565b005b3480156102f857600080fd5b50610301610678565b60405161030e9190611358565b60405180910390f35b34801561032357600080fd5b5061032c6106a2565b604051610339919061110a565b60405180910390f35b34801561034e57600080fd5b50610369600480360381019061036491906112b8565b610734565b005b34801561037757600080fd5b50610392600480360381019061038d91906111c5565b610750565b60405161039f9190611220565b60405180910390f35b6103c260048036038101906103bd919061131c565b610434565b005b6103cc610773565b005b3480156103da57600080fd5b506103f560048036038101906103f09190611373565b61077e565b604051610402919061124a565b60405180910390f35b34801561041757600080fd5b50610432600480360381019061042d919061131c565b610805565b005b61043e813461088b565b50565b606060038054610450906113e2565b80601f016020809104026020016040519081016040528092919081815260200182805461047c906113e2565b80156104c95780601f1061049e576101008083540402835291602001916104c9565b820191906000526020600020905b8154815290600101906020018083116104ac57829003601f168201915b5050505050905090565b6000806104de61090d565b90506104eb818585610915565b600191505092915050565b6000600254905090565b61050a3382610927565b60008273ffffffffffffffffffffffffffffffffffffffff168260405161053090611444565b60006040518083038185875af1925050503d806000811461056d576040519150601f19603f3d011682016040523d82523d6000602084013e610572565b606091505b50509050806105b6576040517f08c379a00000000000000000000000000000000000000000000000000000000081526004016105ad906114a5565b60405180910390fd5b505050565b6000806105c661090d565b90506105d38582856109a9565b6105de858585610a3d565b60019150509392505050565b6105f43382610500565b50565b60006012905090565b610608610b31565b610619610613610678565b82610927565b50565b60008060008373ffffffffffffffffffffffffffffffffffffffff1673ffffffffffffffffffffffffffffffffffffffff168152602001908152602001600020549050919050565b61066c610b31565b6106766000610bb8565b565b6000600560009054906101000a900473ffffffffffffffffffffffffffffffffffffffff16905090565b6060600480546106b1906113e2565b80601f01602080910402602001604051908101604052809291908181526020018280546106dd906113e2565b801561072a5780601f106106ff5761010080835404028352916020019161072a565b820191906000526020600020905b81548152906001019060200180831161070d57829003601f168201915b5050505050905090565b61073c610b31565b61074d610747610678565b8261088b565b50565b60008061075b61090d565b9050610768818585610a3d565b600191505092915050565b61077c33610434565b565b6000600160008473ffffffffffffffffffffffffffffffffffffffff1673ffffffffffffffffffffffffffffffffffffffff16815260200190815260200160002060008373ffffffffffffffffffffffffffffffffffffffff1673ffffffffffffffffffffffffffffffffffffffff16815260200190815260200160002054905092915050565b61080d610b31565b600073ffffffffffffffffffffffffffffffffffffffff168173ffffffffffffffffffffffffffffffffffffffff160361087f5760006040517f1e4fbdf70000000000000000000000000000000000000000000000000000000081526004016108769190611358565b60405180910390fd5b61088881610bb8565b50565b600073ffffffffffffffffffffffffffffffffffffffff168273ffffffffffffffffffffffffffffffffffffffff16036108fd5760006040517fec442f050000000000000000000000000000000000000000000000000000000081526004016108f49190611358565b60405180910390fd5b61090960008383610c7e565b5050565b600033905090565b6109228383836001610ea3565b505050565b600073ffffffffffffffffffffffffffffffffffffffff168273ffffffffffffffffffffffffffffffffffffffff16036109995760006040517f96c6fd1e0000000000000000000000000000000000000000000000000000000081526004016109909190611358565b60405180910390fd5b6109a582600083610c7e565b5050565b60006109b5848461077e565b90507fffffffffffffffffffffffffffffffffffffffffffffffffffffffffffffffff8114610a375781811015610a27578281836040517ffb8f41b2000000000000000000000000000000000000000000000000000000008152600401610a1e939291906114c5565b60405180910390fd5b610a3684848484036000610ea3565b5b50505050565b600073ffffffffffffffffffffffffffffffffffffffff168373ffffffffffffffffffffffffffffffffffffffff1603610aaf5760006040517f96c6fd1e000000000000000000000000000000000000000000000000000000008152600401610aa69190611358565b60405180910390fd5b600073ffffffffffffffffffffffffffffffffffffffff168273ffffffffffffffffffffffffffffffffffffffff1603610b215760006040517fec442f05000000000000000000000000000000000000000000000000000000008152600401610b189190611358565b60405180910390fd5b610b2c838383610c7e565b505050565b610b3961090d565b73ffffffffffffffffffffffffffffffffffffffff16610b57610678565b73ffffffffffffffffffffffffffffffffffffffff1614610bb657610b7a61090d565b6040517f118cdaa7000000000000000000000000000000000000000000000000000000008152600401610bad9190611358565b60405180910390fd5b565b6000600560009054906101000a900473ffffffffffffffffffffffffffffffffffffffff16905081600560006101000a81548173ffffffffffffffffffffffffffffffffffffffff021916908373ffffffffffffffffffffffffffffffffffffffff1602179055508173ffffffffffffffffffffffffffffffffffffffff168173ffffffffffffffffffffffffffffffffffffffff167f8be0079c531659141344cd1fd0a4f28419497f9722a3daafe3b4186f6b6457e060405160405180910390a35050565b600073ffffffffffffffffffffffffffffffffffffffff168373ffffffffffffffffffffffffffffffffffffffff1603610cd0578060026000828254610cc4919061152b565b92505081905550610da3565b60008060008573ffffffffffffffffffffffffffffffffffffffff1673ffffffffffffffffffffffffffffffffffffffff16815260200190815260200160002054905081811015610d5c578381836040517fe450d38c000000000000000000000000000000000000000000000000000000008152600401610d53939291906114c5565b60405180910390fd5b8181036000808673ffffffffffffffffffffffffffffffffffffffff1673ffffffffffffffffffffffffffffffffffffffff16815260200190815260200160002081905550505b600073ffffffffffffffffffffffffffffffffffffffff168273ffffffffffffffffffffffffffffffffffffffff1603610dec5780600260008282540392505081905550610e39565b806000808473ffffffffffffffffffffffffffffffffffffffff1673ffffffffffffffffffffffffffffffffffffffff168152602001908152602001600020600082825401925050819055505b8173ffffffffffffffffffffffffffffffffffffffff168373ffffffffffffffffffffffffffffffffffffffff167fddf252ad1be2c89b69c2b068fc378daa952ba7f163c4a11628f55a4df523b3ef83604051610e96919061124a565b60405180910390a3505050565b600073ffffffffffffffffffffffffffffffffffffffff168473ffffffffffffffffffffffffffffffffffffffff1603610f155760006040517fe602df05000000000000000000000000000000000000000000000000000000008152600401610f0c9190611358565b60405180910390fd5b600073ffffffffffffffffffffffffffffffffffffffff168373ffffffffffffffffffffffffffffffffffffffff1603610f875760006040517f94280d62000000000000000000000000000000000000000000000000000000008152600401610f7e9190611358565b60405180910390fd5b81600160008673ffffffffffffffffffffffffffffffffffffffff1673ffffffffffffffffffffffffffffffffffffffff16815260200190815260200160002060008573ffffffffffffffffffffffffffffffffffffffff1673ffffffffffffffffffffffffffffffffffffffff168152602001908152602001600020819055508015611074578273ffffffffffffffffffffffffffffffffffffffff168473ffffffffffffffffffffffffffffffffffffffff167f8c5be1e5ebec7d5bd14f71427d1e84f3dd0314c0f7b2291e5b200ac8c7c3b9258460405161106b919061124a565b60405180910390a35b50505050565b600081519050919050565b600082825260208201905092915050565b60005b838110156110b4578082015181840152602081019050611099565b60008484015250505050565b6000601f19601f8301169050919050565b60006110dc8261107a565b6110e68185611085565b93506110f6818560208601611096565b6110ff816110c0565b840191505092915050565b6000602082019050818103600083015261112481846110d1565b905092915050565b600080fd5b600073ffffffffffffffffffffffffffffffffffffffff82169050919050565b600061115c82611131565b9050919050565b61116c81611151565b811461117757600080fd5b50565b60008135905061118981611163565b92915050565b6000819050919050565b6111a28161118f565b81146111ad57600080fd5b50565b6000813590506111bf81611199565b92915050565b600080604083850312156111dc576111db61112c565b5b60006111ea8582860161117a565b92505060206111fb858286016111b0565b9150509250929050565b60008115159050919050565b61121a81611205565b82525050565b60006020820190506112356000830184611211565b92915050565b6112448161118f565b82525050565b600060208201905061125f600083018461123b565b92915050565b60008060006060848603121561127e5761127d61112c565b5b600061128c8682870161117a565b935050602061129d8682870161117a565b92505060406112ae868287016111b0565b9150509250925092565b6000602082840312156112ce576112cd61112c565b5b60006112dc848285016111b0565b91505092915050565b600060ff82169050919050565b6112fb816112e5565b82525050565b600060208201905061131660008301846112f2565b92915050565b6000602082840312156113325761133161112c565b5b60006113408482850161117a565b91505092915050565b61135281611151565b82525050565b600060208201905061136d6000830184611349565b92915050565b6000806040838503121561138a5761138961112c565b5b60006113988582860161117a565b92505060206113a98582860161117a565b9150509250929050565b7f4e487b7100000000000000000000000000000000000000000000000000000000600052602260045260246000fd5b600060028204905060018216806113fa57607f821691505b60208210810361140d5761140c6113b3565b5b50919050565b600081905092915050565b50565b600061142e600083611413565b91506114398261141e565b600082019050919050565b600061144f82611421565b9150819050919050565b7f4641494c5f5452414e5346455200000000000000000000000000000000000000600082015250565b600061148f600d83611085565b915061149a82611459565b602082019050919050565b600060208201905081810360008301526114be81611482565b9050919050565b60006060820190506114da6000830186611349565b6114e7602083018561123b565b6114f4604083018461123b565b949350505050565b7f4e487b7100000000000000000000000000000000000000000000000000000000600052601160045260246000fd5b60006115368261118f565b91506115418361118f565b9250828201905080821115611559576115586114fc565b5b9291505056fea2646970667358221220ce37b01333fc94766023714cf252f62e6beacbf61f890f6bc7489914e393ddd264736f6c63430008180033",
  "linkReferences": {},
  "deployedLinkReferences": {}
}